:100000000C94F7000C94630A0C941F010C941F01CC
:100010000C941F010C941F010C941F010C94950962
:100020000C941F010C941F010C941F010C941F01D0
:100030000C941F010C941F010C9421010C941F01BE
:100040000C941F010C941F010C94E4090C941F01E3
:100050000C941F010C941F010C941F010C941F01A0
:100060000C94E01A0C941F016E616E00696E6600BC
:1000700000407A10F35A00A0724E18090010A5D45F
:10008000E80000E87648170000E40B54020000CABC
:100090009A3B000000E1F505000080969800000002
:1000A00040420F000000A086010000001027000061
:1000B0000000E803000000006400000000000A00E7
:1000C000000000000100000000002C76D888DC67EA
:1000D0004F0823DFC1DFAE59E1B1B796E5E3E45342
:1000E000C63AE651997696E8E6C28426EB898C9B5F
:1000F00062ED407C6FFCEFBC9C9F40F2BAA56FA5FF
:10010000F490055A2AF75C936B6CF9676DC11BFC80
:10011000E0E40D47FEF520E6B500D0ED902E03009B
:10012000943577050080841E080000204E0A0000E8
:1001300000C80C333333330F986E12831141EF8DA7
:100140002114893BE65516CFFEE6DB18D1844B38E7
:100150001BF77C1D901DA4BBE424203284725E2218
:100160008100C9F124ECA1E53D274D61696E20496C
:100170006E74766C2054696D653A20004D61696E2D
:1001800020456E642054696D653A20004D61696EAA
:100190002053746172742054696D653A20004D617A
:1001A000696E20496E74766C2054696D653A200042
:1001B0004D61696E20456E642054696D653A20007A
:1001C0004D61696E2053746172742054696D653A93
:1001D0002000446174652F54696D653A20004C6FAE
:1001E000636174696F6E3A2000006C2980291124C4
:1001F0001FBECFEFD8E0DEBFCDBF14E0A0E0B1E07E
:10020000EEE6F2E602C005900D92A43FB107D9F7E1
:1002100027E0A4EFB4E001C01D92A63CB207E1F7CD
:1002200010E0C7EFD0E004C02197FE010E94F12941
:10023000C53FD107C9F70E94CB270C940C310C9411
:1002400000001F921FB61F9211248F939F93EF936C
:10025000FF938091FD04813019F59091FC048FEF9C
:10026000890F9130D9F48091F9049091FA0480FFBC
:1002700043C05E9A8091F9049091FA04969587950F
:100280009093FA048093F9048091FB048150809349
:10029000FB04811102C01092FD0483E08093FC04F2
:1002A0008091FF04811120C08091F804882331F1EE
:1002B0008091F60481508093F604811115C010924C
:1002C000F8041092FE04E0910105F0E08091F4043E
:1002D000EE5FFA4F8083809101058F5F8093010567
:1002E000803210F010920105FF91EF919F918F9154
:1002F0001F901FBE1F9018955E98BCCF8091FE0482
:10030000811110C04C99F0CF81E08093FE041092CF
:10031000F40494E09093F60498E09093F5048093AD
:10032000F704E2CF9091F6048FEF890F9130B9F482
:100330008091F7044C9B05C09091F404982B909306
:10034000F404880F8093F7048091F5048150809322
:10035000F504811103C081E08093F80483E0809369
:10036000F604C2CF1092FD041092FE041092FF0416
:100370005E9A569A54989FB7F89481E287BD82E0BE
:1003800084BD85BDEEE6F0E080818260808316BC8E
:100390009FBF08951092FF04089581E08093FF04A9
:1003A000089590910005809101059817E1F3E92FD8
:1003B000F0E0EE5FFA4F80819F5F903218F49093E7
:1003C000000508951092000508959091010581E0BF
:1003D00020910005291301C080E0089510920105C5
:1003E0001092000508959091FD0481E0913009F08C
:1003F00080E008959091FD049130E1F393E09093B3
:10040000FC049AE09093FB04880F990B9260909300
:10041000FA048093F90481E08093FD040895CF935A
:10042000DF93EC018991882319F00E94FA01FACF39
:10043000DF91CF910895CF93DF93EC01FE0184917A
:100440002196882319F00E94FA01F8CFDF91CF910D
:100450000895CF93DF93D82FC62F67E084E40E94DE
:100460001D098D2F0E941F068C2F0E941F06C82F6A
:1004700067E084E40E94F9088C2FDF91CF91089502
:1004800060E08F770C9429028AE10E94400240913B
:100490002405509125056091260570912705411589
:1004A000514A6C4B734318F09DE9891B089594EAF7
:1004B000FCCF89E10E94400285958595089583E1EE
:1004C0000E94400290912305891B08950E945F02BB
:1004D000882341F0809123058F5F8093230580E07E
:1004E0000C9440028FEF08958EE10E9440028295A5
:1004F0008F700895CF93DF9300D000D0CDB7DEB7D3
:100500008DE10E94400290E09C0144E035952795E2
:100510004A95E1F7803A9105E0F4F901EE0FFF1FEB
:10052000E20FF31FE95FFE4F80819181A2819C0160
:100530004A2F50E029833A834B835C8369817A8117
:100540008B819C810F900F900F900F90DF91CF9136
:10055000089580E291EAA7E0B0E089839A83AB83B3
:10056000BC83ECCFCF92DF92EF92FF920F931F9359
:10057000CF93DF9300D000D000D0CDB7DEB788E2B4
:100580000E944002877090E0B0E0A0E0CC24D82E1A
:10059000E92EFA2E89E20E944002C80ED11CE11C0D
:1005A000F11CFE2CED2CDC2CCC248AE20E944002B3
:1005B000C80ED11CE11CF11C88E20E94400283FF9E
:1005C00003C088E0E81AF1080E947A028B018E834A
:1005D0009D83C701B6010E943D2C20E030E040E839
:1005E0005BE469837A838B839C8369817A818B81C5
:1005F0009C810E94C92C20E034E244EF5BE46983D3
:100600007A838B839C8369817A818B819C810E9410
:10061000932B6B017C01B8018E819D810E943B2C44
:1006200020E034E244EF58E469837A838B839C832F
:1006300069817A818B819C810E94932B9B01AC0103
:10064000C982DA82EB82FC8269817A818B819C810A
:100650000E94C92C69837A838B839C8369817A8108
:100660008B819C810E94052C26960FB6F894DEBFE4
:100670000FBECDBFDF91CF911F910F91FF90EF90F3
:10068000DF90CF90089580680C94290263E881E898
:100690000E94290282E10E94400283FD07C08FE090
:1006A00097E20197F1F700C00000F4CF68E082E91B
:1006B0000E94290281E00895DF92EF92FF920F934A
:1006C0001F93CF93DF93F82EE92EC62F82E20E946C
:1006D0004002D82F2C2F280F3327331F2F3F3105EF
:1006E00019F010F0CD2FC095DF2C0F2D1E2D802F6F
:1006F0008D198C1738F4F80161918F0180E80E9400
:100700002902F5CF6D2F6C0F82EA0E9429028C2FEF
:10071000DF91CF911F910F91FF90EF90DF9008959F
:10072000CF93DF930E945F02882381F08DE00E94C7
:100730004002D82F80E00E944002C82F6D2F8DE824
:100740000E9429028C2FDF91CF9108958FEFFBCF6C
:1007500061E881E80C94290260E881E80C942902A0
:100760000C94AC03682F823108F061E1623008F428
:1007700062E06250606889E80C942902AF92BF92EF
:10078000CF92DF92EF92FF920F931F93CF93DF935D
:10079000382F292FCB01A32FB22F809324059093BC
:1007A0002505A0932605B09327059B01AD0160E0C8
:1007B00070E080E090E003E10E94E12AA12CE8E4EF
:1007C000BE2EF8EECF2EDD24D394E12CF12C00E0E8
:1007D00010E00E943D2AC22FB32E6A017B01182F20
:1007E000D92F00E10E94FC2A622F86E80E9429028C
:1007F0002C2F3B2DA601B701812F9D2F08E00E94D1
:10080000FC2A622F87E80E9429026C2F88E8DF917A
:10081000CF911F910F91FF90EF90DF90CF90BF90FD
:10082000AF900C9429020F931F93CF93DF938B010A
:10083000D82FC92F67E084E40E94D50867E084E4DC
:100840000E94F90862E082E40E94D50862E082E436
:100850000E941D098FE097E20197F1F700C00000A8
:1008600062E082E40E94F9088FE097E20197F1F7D5
:1008700000C0000082E40E944002823131F50E94F3
:10088000AC03B8018D2F9C2F0E94BE0360E08EE860
:100890000E94290260E08FE80E9429028CE00E94F9
:1008A0004002682F63608CE80E94290264E086EAB7
:1008B0000E94290284E10E94B2030E94A80381E001
:1008C000DF91CF911F910F91089580E0F9CFCF93E1
:1008D000C82F893008F0C8E08DE10E9440026C2FDB
:1008E000C53008F465E06450770B660F771F817F91
:1008F000682B8DE9CF910C942902CF93C82F692FD3
:1009000080EA0E9429026C2F81EACF910C9429027F
:10091000682F89EB0C9429028EE10E944002682F17
:1009200064608EE90C9429028EE10E944002682FD7
:100930006B7F8EE90C942902109222058DE10E94B2
:100940004002682F6E7F8DE90C94290281E080932C
:1009500022058DE10E944002682F61608DE90C94B0
:100960002902CF93C82F0E94A803CC2369F00E94CC
:10097000A60460E08DE80E94290260E082EA0E94FD
:10098000290281E0CF9108950E949C04F2CFCF9379
:10099000DF93D82F82E10E944002C82FDD2329F186
:1009A0000E94A6046D2F82EA0E9429026C2F82E920
:1009B0000E942902C6FF1EC0C5FD1CC0109223055F
:1009C000809122058823A1F082E20E944002C82F74
:1009D00080E10E944002682F8DE80E9429020E9457
:1009E000A8038C2FDF91CF9108950E949C04DECF45
:1009F00083E1EBCF81E00E944002863841F060E065
:100A00008DE80E94290266E881E80E942902C0E080
:100A1000E8CFCF93DF93EC011816190664F40E9417
:100A2000A6046C2F82EA0E94290265E881E8DF9122
:100A3000CF910C9429020E949C04F7CFCF92DF92B1
:100A4000EF92FF92CF93DF930E947A026B017C01B9
:100A50000E947402D82F86E20E944002C82FA7018C
:100A6000960104C05695479537952795DA95D2F7A4
:100A700068EE73E080E090E00E94CF296C2F213176
:100A800031054105510550F0686086EADF91CF914C
:100A9000FF90EF90DF90CF900C942902677FF5CF05
:100AA000CF93C82F863020F08D30D0F48630C9F433
:100AB00065EC81EB0E9429026CE087EB0E94290221
:100AC000C6E08EE10E9440028F7090E1C99FB001A4
:100AD0001124682B8EE90E942902CF910C941E05E7
:100AE000CCE063EC81EB0E9429026AE087EB0E9474
:100AF0002902E7CFCF93462F572FBC01C0E04937DB
:100B00008EE1580761057105C8F1C1E0413A98E2EC
:100B100059076105710590F1C2E0413F8CE3580728
:100B20006105710558F1C3E0413491E5590761054C
:100B3000710520F1C4E043318AE75807610571056A
:100B4000E8F0C5E0453E92EA590761057105B0F04D
:100B5000C6E0453284EF58076105710578F0C7E0BB
:100B6000493498EE590791E06907710538F0C9E0FA
:100B70004139504D6340710508F4C8E08DE10E9491
:100B800040028F7090E1C99FB0011124682B8DE95C
:100B90000E942902CF910C941E050F9300E020E0E3
:100BA00040E061E080E00E94000660EC7AEC89E8B9
:100BB00096E30E941304811105C085E491E00E9430
:100BC000142FFFCF62E17AE780E090E00F910C9460
:100BD0007A051F93CF93DF93D82FC92F162F0E942A
:100BE000CD0580E00E94B104612F8D2F9C2F0E94C3
:100BF0005C030E944603DF91CF911F910C94AC03DC
:100C00000F9394B1986294B924982C9A30E2839F00
:100C1000C001112480722370822B94E0499FA001AF
:100C200011244C70842B30E1639FB001112460715A
:100C3000862B80648CBD01700DBD0F9108958EBD13
:100C40000DB407FEFDCF8EB50895AF92BF92CF923F
:100C5000DF92EF92FF920F931F93CF93DF93EC01FC
:100C6000B62EAA24A39488E8C82E83E1D82EE12CBE
:100C7000F12C02E310E08DA99EA92BA93CA928170D
:100C80003907C1F12CAD222321F02130B1F01CAE87
:100C90000BC08C0F9D1FFC0181818B3729F4ACAEFA
:100CA000C8AED9AEEAAEFBAE8DA99EA90196B80139
:100CB0000E94BB299EAB8DABDECF8C0F9D1FFC012C
:100CC000618181E396E06D3741F40E9425216B2D0F
:100CD00081E396E00E94DA1CDACF0E94252181117F
:100CE000D6CF88AD99ADAAADBBAD892B8A2B8B2B06
:100CF00071F2DACFDF91CF911F910F91FF90EF90BA
:100D0000DF90CF90BF90AF900895FC0187A9882312
:100D100079F080AD91ADA2ADB3AD0097A105B1055D
:100D200039F00197A109B10980AF91AFA2AFB3AF7C
:100D300008959F92AF92BF92CF92DF92EF92FF926F
:100D40000F931F93CF93DF938C01F62E0E944021C7
:100D5000E82EE801229680917F05882309F483C05C
:100D60008BE7F801808383E48183809128051F92BB
:100D70008F9320EEA22E23E0B22EBF92AF92DF938C
:100D8000CF930E94402FC80FD91F3CE2D32ED99297
:100D9000BE018FE795E00E94A20DFC01D192BF0138
:100DA0008FE795E00E94C10DFC01D192BF018FE752
:100DB00095E00E94A314EC01D9921092E80580916D
:100DC000F0058F938091EF058F938091EE058F93BF
:100DD0008091ED058F938CE591E09F938F93DF9346
:100DE000CF930E94402FC80FD91FD99280913C0504
:100DF0008F9380913B058F9380913E058F938091D7
:100E00003D058F93809140058F9380913F058F938F
:100E100080E691E09F938F93DF93CF930E94402FC2
:100E2000C80FD91FD9921F92EF92BF92AF92DF9352
:100E3000CF930E94402FC80FD91FFE01D192CF013E
:100E40002DB73EB7225E3F4F0FB6F8943EBF0FBEA0
:100E50002DBF249632E069E671E0F31609F44BC029
:100E60006DE671E048C08BE7F801808383E48183FD
:100E7000809128051F928F9380EEA82E83E0B82ED4
:100E8000BF92AF92DF93CF930E94402FC80FD91F1C
:100E90009CE2992EFE019192CF0161E771E00E94E0
:100EA000492E9F828DE2888799868A879B868C87C8
:100EB0006E01FEE0CF0ED11C9D861F92EF92BF9275
:100EC000AF92DF92CF920E94402FE601C80FD91F48
:100ED0009882CE01029699822DB73EB7245F3F4F8C
:100EE0000FB6F8943EBF0FBE2DBF259631E068E7E0
:100EF00071E0F312B5CF0E94492E8DE788831982E5
:100F0000E80109900020E9F72197C01BD10BDF937E
:100F1000CF931F930F938CE791E09F938F930E9441
:100F2000F92E0F900F900F900F900F900F90CE0111
:100F3000DF91CF911F910F91FF90EF90DF90CF90B5
:100F4000BF90AF909F900895CF93DF93CDB7DEB75A
:100F500061970FB6F894DEBF0FBECDBFEAE2F5E0B1
:100F600086A197A19E838D8384A195A19C838B8369
:100F700082A193A19A8389838EE090E098878F83E2
:100F800081E090E09A87898786E190E09C878B8753
:100F9000CE0101960E94441681E080932905619656
:100FA0000FB6F894DEBF0FBECDBFDF91CF9108958D
:100FB000EAE2F5E089E090E097A386A315A214A2E7
:100FC00013A212A210927305109272058AE090E0AB
:100FD000909371058093700510926F0510926E05C5
:100FE00082E190E090AF87AB16AA15AA14AA13AAC3
:100FF00008950E94CD0580E197E2A0E0B0E08093E3
:10100000990690939A06A0939B06B0939C0661E084
:101010008DE996E00E9425068091990690919A06A6
:10102000A0919B06B0919C06892B8A2B8B2B79F77C
:1010300008954BE355E06DE375E08FE395E00E9482
:10104000E51580E991E09F938F930E94F92EEAE2E3
:10105000F5E082898F9381898F9384898F93838927
:101060008F9386898F9385898F938BEB94E09F93E1
:101070008F930E94F92E8DB79EB70A960FB6F894FB
:101080009EBF0FBE8DBF08958DE996E00E94850634
:101090008091990690919A06A0919B06B0919C062A
:1010A0000097A105B10559F00197A109B1098093F5
:1010B000990690939A06A0939B06B0939C068FE79F
:1010C00095E00C948C14282F80939D068091D00677
:1010D0009091D106FC01E356F94F218301968233AA
:1010E00091052CF49093D1068093D0060895109228
:1010F000D1061092D00608950E94CD0580E395E7B1
:10110000A0E0B0E08093990690939A06A0939B0686
:10111000B0939C068091990690919A06A0919B06A7
:10112000B0919C06892B8A2B8B2BB9F080E00E9412
:10113000C704882379F30E945F02882329F00E9464
:1011400066020E946308F7CF60E08DE996E00E9496
:101150002506809129058823E9F20895833479F0E2
:101160008434C1F0823401F524B181E090E001C003
:10117000880F6A95EAF78095822384B9089527B18C
:1011800081E090E001C0880F6A95EAF7809582239C
:1011900087B908952AB181E090E001C0880F6A956F
:1011A000EAF7809582238AB90895833471F08434F4
:1011B000B1F08234E9F484B121E030E001C0220FC3
:1011C0006A95EAF7822B84B9089587B121E030E06F
:1011D00001C0220F6A95EAF7822B87B908958AB178
:1011E00021E030E001C0220F6A95EAF7822B8AB92C
:1011F0000895833471F08434B1F08234E9F485B118
:1012000021E030E001C0220F6A95EAF7822B85B910
:10121000089588B121E030E001C0220F6A95EAF715
:10122000822B88B908958BB121E030E001C0220FF4
:101230006A95EAF7822B8BB90895833479F0843468
:10124000C1F0823401F525B181E090E001C0880F42
:101250006A95EAF78095822385B9089528B181E0DF
:1012600090E001C0880F6A95EAF78095822388B9DB
:1012700008952BB181E090E001C0880F6A95EAF7EC
:10128000809582238BB90895442319F0413019F0D9
:1012900008950C941D090C94F9088334B1F084343A
:1012A000B1F08234B1F423B181E090E0062E02C0A7
:1012B000880F991F0A94E2F730E08223932302C03B
:1012C000959587956A95E2F7089526B1EDCF29B1F6
:1012D000EBCF81E008950895E1E8F0E0808182603D
:1012E00080830895109281000895809184009091E8
:1012F00085009695879508951092B200E0EBF0E096
:101300008081826080838FE18093B30017BAE0E729
:10131000F0E0808182608083E1EBF0E08081856095
:10132000808308951092B10008951F920F920FB616
:101330000F9211242F933F934F935F936F937F935B
:101340008F939F93AF93BF93EF93FF930E944408B3
:1013500017BA8091DB069091DC06A091DD06B09172
:10136000DE060196A11DB11D8093DB069093DC067D
:10137000A093DD06B093DE06FF91EF91BF91AF9190
:101380009F918F917F916F915F914F913F912F919D
:101390000F900FBE0F901F901895CF93DF9300D042
:1013A00000D0CDB7DEB78091DB069091DC06A0912E
:1013B000DD06B091DE06BC01CD010F900F900F90BD
:1013C0000F90DF91CF9108951F920F920FB60F9259
:1013D00011242F933F934F935F936F937F938F933A
:1013E0009F93AF93BF93EF93FF938091C600809339
:1013F000DA068091DA060E94630882E08093C000DA
:10140000FF91EF91BF91AF919F918F917F916F91DC
:101410005F914F913F912F910F900FBE0F901F90B2
:1014200018958091DF069091E0069093BF07809316
:10143000BE0789E18093C4001092C50088E98093BB
:10144000C10082E08093C00008959091C00095FF94
:10145000FCCF8093C600089590910001992329F054
:101460000E94250A90E080E0089581E090E00895D0
:10147000EF92FF920F931F93CF93DF93EB018C01B9
:10148000F12CE12CEC16FD064CF4F80181918F0152
:101490000E94250AFFEFEF1AFF0AF4CFCE01DF9179
:1014A000CF911F910F91FF90EF90089583B78160C6
:1014B00083BF83B7817F846083BF7894889583B727
:1014C0008E7F83BF0895E09A18950F931F93CF9353
:1014D000DF93EC018B010E947509998388830A834D
:1014E0001B83DF91CF911F910F910895CF93DF93CD
:1014F000EC010E9475099C014A815B8181E04115E4
:10150000510561F0888199818217930750F4281B57
:10151000390B81E02417350708F480E0DF91CF9183
:101520000895281B390B21503048F3CFFC0110825D
:1015300011821382128214821582168217821086FB
:101540001286118613861486158616861786118ACA
:10155000108A128A138A148A158A168A108E178A9C
:10156000118E128E138E148E158E12A213A214A237
:1015700015A216A217A210AA11AA12AA13AA14AA97
:1015800015AA16AE17AEDC01DE9616961D921D92B8
:101590001D921C9219971E961C9211961C921197DF
:1015A00016961D921D921D921C9219971E961C92C2
:1015B00011961C92119716961D921D921D921C92C7
:1015C00019971E961C9211961C92119716961D92B1
:1015D0001D921D921C9219971E961C9211961C9298
:1015E000119716961D921D921D921C9219971E9688
:1015F0001C9211961C9211961C92509682E08C932C
:1016000011961C9211961C9211961C92119611968D
:101610001C921E92129611961C921E9212961D9268
:101620001D921D921C92139714961D921D921D924D
:101630001C92139714961D921D921D921C92139743
:1016400014961D921D921D921C92139714961D9232
:101650001D921D921C921397E957FF4F1082089517
:10166000862F062E000C990B2FEB260F263010F438
:10167000C79708956156663018F487559109089503
:10168000C09708951F93CF93DF9300D000D000D070
:10169000CDB7DEB78D839E83AD81BE811C911D3297
:1016A00019F41196BE83AD838D819E810E94362DE3
:1016B00069837A838B839C83A4E6B0E09B01AC01B1
:1016C0000E94F729AB01BC01ED81FE81FA83E98319
:1016D000E981FA81DF012D91BA83A983822F022E3D
:1016E000000C990BC0970A9798F32E3231F581813F
:1016F000082E000C990BC0978A309105F0F4AAE0EF
:10170000A89F9001A99F300D1124C901330FAA0B86
:10171000BB0B480F591F6A1F7B1F8281082E000CCC
:10172000990BC0978A30910540F4092E000CAA0B42
:10173000BB0B480F591F6A1F7B1F1D3239F4709570
:101740006095509541955F4F6F4F7F4FCB01BA0128
:1017500026960FB6F894DEBF0FBECDBFDF91CF91B6
:101760001F9108958F929F92AF92BF92EF92FF9236
:101770000F931F93CF93DF93CDB7DEB72D970FB69F
:10178000F894DEBF0FBECDBF8D8799878B010E9475
:10179000362D24E630E040E050E00E94CF29490198
:1017A00069837A838B839C839B01AC0160E876E933
:1017B00088E990E00E948B296D837E838F839887D0
:1017C000D8018D929C92ED85F9852191822F022E70
:1017D000000C990BC0970A97C0F32E32E9F57F01F0
:1017E00020E836E948E950E029833A834B835C835B
:1017F0008AE0882E912CA12CB12CD701ED917D018E
:101800002E2F022E000C330B205331093A872987E3
:101810002A30310508F569817A818B819C81A50187
:1018200094010E94CF2929833A834B835C83A98545
:10183000BA850E94022A69877A878B879C872D81C7
:101840003E814F815885260F371F481F591F2D8312
:101850003E834F835887D1CFA5E0B0E02D813E81F4
:101860004F8158850E94F729DC01CB010196A11D0B
:10187000B11DBC01CD0123E030E040E050E00E940A
:10188000CF29D80112962D933D934D935C931597D4
:1018900016961C922D960FB6F894DEBF0FBECDBFE4
:1018A000DF91CF911F910F91FF90EF90BF90AF907C
:1018B0009F908F900895CF93DF9300D000D0CDB745
:1018C000DEB720E030E044E351E469837A838B8320
:1018D0009C8369817A818B819C810E94272B20E0E7
:1018E00030E044EB51E469837A838B839C83698184
:1018F0007A818B819C810E94932B69837A838B836D
:101900009C8369817A818B819C810E94052C6983EB
:101910007A838B839C8389819A8160E170E00E9445
:10192000BB29FC01EE0FFF1FEB5DFE4F8081918113
:101930000F900F900F900F90DF91CF910895CF935C
:10194000DF93EC0187E0FE017096DE0112960190B4
:101950000D928A95E1F787E0FE017796DE011996F0
:1019600001900D928A95E1F70E94CD096E8F7F8FCD
:1019700088A399A381E089838883DF91CF9108951B
:101980009B01BC01605F7F4FC9010C94B20B9B01AE
:10199000BC01695E7F4FC9010C94B20BEF92FF92BC
:1019A0000F931F93CF93DF9300D000D000D0CDB71B
:1019B000DEB78D839E83AD81BE8111961C921197F7
:1019C00014966D917D918D919C9117970E943B2C5F
:1019D00028E23BE64EE65EE469837A838B839C8350
:1019E00069817A818B819C810E94932B7B018C0180
:1019F000ED81FE81828193819C0150E040E029834A
:101A00003A834B835C83CA01B9010E943B2C9B0142
:101A1000AC01E982FA820B831C8369817A818B8114
:101A20009C810E94272B462F572FBC0149835A8344
:101A30006B837C83AD81BE8118968C91882339F0AD
:101A40009A01AB01505829833A834B835C836981A7
:101A50007A818B819C8126960FB6F894DEBF0FBEEB
:101A6000CDBFDF91CF911F910F91FF90EF9008951F
:101A7000EF92FF920F931F93CF93DF9300D000D08C
:101A800000D0CDB7DEB78D839E83AD81BE81119628
:101A90001C9211971B966D917D918D919C911E9733
:101AA0000E943B2C28E23BE64EE65EE469837A83A3
:101AB0008B839C8369817A818B819C810E94932B8B
:101AC0007B018C01ED81FE81818592859C0150E036
:101AD00040E029833A834B835C83CA01B9010E94A9
:101AE0003B2C9B01AC01E982FA820B831C83698148
:101AF0007A818B819C810E94272B462F572FBC0116
:101B000049835A836B837C83AD81BE811F968C9100
:101B1000882339F09A01AB01505829833A834B83CB
:101B20005C8369817A818B819C8126960FB6F894BB
:101B3000DEBF0FBECDBFDF91CF911F910F91FF9000
:101B4000EF900895CF93DF93EB010E94CE0C9F930B
:101B50008F937F936F9386E492E09F938F93DF93AD
:101B6000CF930E94402F2DB73EB7285F3F4F0FB64F
:101B7000F8943EBF0FBE2DBF8C0F9D1FDF91CF91FC
:101B80000895CF93DF93EB010E94380D9F938F93BD
:101B90007F936F9386E492E09F938F93DF93CF932D
:101BA0000E94402F2DB73EB7285F3F4F0FB6F894E5
:101BB0003EBF0FBE2DBF8C0F9D1FDF91CF910895AB
:101BC000CF93DF93EC018E819F81A885B9858A83AD
:101BD0009B83AC83BD830E94CD096A877B878C87FA
:101BE0009D8781E089838883DF91CF910895CF938A
:101BF000DF93EC018E819F81A885B9858A839B83C1
:101C0000AC83BD830E94CD096A877B878C879D87C3
:101C100081E089838883DF91CF910895CF93DF930B
:101C2000EC01CB010E94420B6E837F8388879987EA
:101C3000DF91CF910895CF93DF93EC01CB010E9408
:101C4000362D6E837F8388879987DF91CF910895A2
:101C5000CF93DF9300D000D0CDB7DEB7FC01118267
:101C600082819381A481B581BC01CD0124E630E05D
:101C700040E050E00E94CF2969837A838B839C8364
:101C800089819A818053984F0F900F900F900F90F9
:101C9000DF91CF910895CF92DF92EF92FF92CF9391
:101CA000DF9300D000D0CDB7DEB7FC011182828176
:101CB0009381A481B58124E6C22ED12CE12CF12C94
:101CC000BC01CD01A70196010E94CF29CA01B9012B
:101CD000A70196010E94CF29862F0F900F900F9099
:101CE0000F90DF91CF91FF90EF90DF90CF9008950C
:101CF000CF93DF9300D000D0CDB7DEB7FC011182C7
:101D000082819381A481B581BC01CD0120E137E2BC
:101D100040E050E00E94CF29822F0F900F900F904B
:101D20000F90DF91CF910895CF93DF9300D000D033
:101D3000CDB7DEB7FC01118282819381A481B58188
:101D4000BC01CD0120E432E44FE050E00E94CF29F5
:101D5000822F0F900F900F900F90DF91CF910895E9
:101D6000CF93DF9300D000D0CDB7DEB7FC01118256
:101D700082819381A481B581BC01CD0120E137E24C
:101D800040E050E00E94CF29CA01B90124E630E0CA
:101D900040E050E00E94CF29862F0F900F900F90C7
:101DA0000F90DF91CF910895CF92DF92EF92FF9243
:101DB000CF93DF9300D000D0CDB7DEB7FC01118206
:101DC00082819381A481B58124E6C22ED12CE12C9D
:101DD000F12CBC01CD01A70196010E94CF29CA01B7
:101DE000B901A70196010E94CF29862F0F900F906D
:101DF0000F900F90DF91CF91FF90EF90DF90CF90F9
:101E00000895CF93DF9300D000D0CDB7DEB7FC01AB
:101E1000118282819381A481B581BC01CD0124E628
:101E200030E040E050E00E94CF29862F0F900F90C5
:101E30000F900F90DF91CF910895CF93DF93EC0136
:101E40008A859B85AC85BD858E839F83A887B9874E
:101E50000E94CD096A837B838C839D8381E0898383
:101E60008883DF91CF910895CF93DF93EC01CB016D
:101E70000E94420B6A877B878C879D87DF91CF9179
:101E80000895CF93DF93EC018A859B85AC85BD8552
:101E90008E839F83A887B9870E94CD096A837B833D
:101EA0008C839D8381E089838883DF91CF9108951E
:101EB000CF93DF93EC01CB010E94362D6A877B879D
:101EC0008C879D87DF91CF910895CF93DF93EC01AD
:101ED000BC0140960E94492E0E94CD0968A379A3B7
:101EE0008AA39BA381E08DA38CA3DF91CF9108955A
:101EF00040E150E00C94502EAF92BF92DF92EF92EF
:101F0000FF920F931F93CF93DF93EC01FC01EA57ED
:101F1000FF4FD080DD2009F4A0C0319660810E947F
:101F2000300B182FFE01E857FF4F6081CE010E9451
:101F3000300B1295107F180FFE01EB57FF4F808179
:101F4000811372C0B59680819181A281B38101967F
:101F5000A11DB11D80839183A283B3838E01075697
:101F60001F4FD8018C91882361F03897808191812F
:101F7000A281B3810196A11DB11D80839183A283AB
:101F8000B383FE01EA56FF4F80818823A1F181309F
:101F9000C1F4CE0182960E94E00DCE01C0960E944F
:101FA000F70DF8018081882361F0CE010E949F0C1B
:101FB000CE01CE960E941D0FCE01845B9F4F0E94E2
:101FC0001D0F8E0104561F4FF801C081D18120974B
:101FD000C9F1D801ED91FC9166A177A18EA19FA1D5
:101FE0000E94402E892B71F5CE010E94650F0AA434
:101FF000DBA5C02DECCFCE01C0960E94F70DD80115
:102000008C91882341F0CE010E949F0CCE01865A0C
:102010009F4F0E941D0FCE0188599F4F0E94410F74
:10202000CE018A589F4FCBCFCA55DF4F8881998107
:10203000AA81BB810196A11DB11D88839983AA83C2
:10204000BB83D12C8D2DDF91CF911F910F91FF90EC
:10205000EF90DF90BF90AF9008957C01B7E9EB0E51
:10206000F11CF70130818A569F4F5C018E010456A6
:102070001F4F31113EC07E0197E8E90EF11C6BE461
:1020800072E0C7010E94402E892B39F061E572E0B1
:10209000C7010E94402E892B21F481E0D5018C9349
:1020A00010C067E572E0C7010E94402E892B39F00D
:1020B0006DE572E0C7010E94402E892BC1F4F50145
:1020C0001082C656DF4F88819981F8019183808301
:1020D000C081D181209709F4B5CFB7018EA19FA10E
:1020E0000E94402E97FF98C08AA59BA5EECF82E064
:1020F000D5CFDC01EC91E230C9F0CE0189579F4F7A
:10210000DC012C91222391F0B0E2EB9FF00111242D
:10211000E32B3197E932F10548F4E25FFE4C0C9471
:10212000F129BC01CE01C0960E940E0EF801A080DC
:10213000B180C957DF4FA114B10409F483CFD8018E
:10214000ED91FC9166A177A1F50186A197A10E946E
:10215000402E892B09F076CFD50198968D919C91D0
:10216000F7012081422F50E0281719060CF46ACF9E
:102170008417950721F4BE01C5010E94780FD5018F
:102180009A96AD90BC90D7CFFE01E756FF4F81E005
:10219000213479F180E02DC0BE01605F7F4F0E9445
:1021A000B20BC4CF81E0233509F080E08E8BBECF27
:1021B000BE01695E7F4FF3CF81E0273509F080E0F3
:1021C0008D8FB4CFBC01CE01CE960E94340FAECF1E
:1021D000BC01CE01845B9F4FF8CFBC01CE0182963B
:1021E0000E941B0EA3CFFE01E756FF4F81E0213373
:1021F0008CF280839BCFBC01CE0188599F4F0E94F7
:10220000580F94CFBC01CE018A589F4FDECFBC013E
:10221000CE01865A9F4FD9CF892B09F413CFD8010D
:102220001D921C920FCFCF92DF92EF92FF921F93DD
:10223000CF93DF93EC01162FFC01E256FF4F808114
:102240009181A281B3810196A11DB11D80839183EB
:10225000A283B383CE0188569F4F6C01DE01AA573B
:10226000BF4F7D01643209F449C0DCF46A3019F1D2
:102270006D3009F1D601EC91EE3048F481E08E0F1B
:102280008C93EC0FFD2FF11DE957FF4F1083F701E1
:102290008081811142C0CB57DF4F68811627188398
:1022A00025C06A3241F06C3229F7FE01EB57FF4F2F
:1022B000808186278083D601EC9180E0EF3048F45E
:1022C000EC0FFD2FF11DE957FF4F1082CE010E9448
:1022D0007C0FC956DF4F98819F5F9883F60110826B
:1022E00091E01A3209F090E0D7019C93DF91CF91F1
:1022F0001F91FF90EF90DF90CF900895FC01108226
:10230000FE01E956FF4F108272971082719682E0AB
:1023100080831C92C756DF4F188280E0E7CFAF92D0
:10232000BF92CF92DF92EF92FF920F931F93CF93C2
:10233000DF937B01B42EA52E69018C0106561F4F39
:10234000F801C081D1812097B1F06EA17FA18B2DC2
:102350009A2D0E94402E97FD0EC0892B29F488A546
:1023600099A5C816D9063CF08E01065D1F4F0AA438
:10237000DBA5C02DE8CFF701D3A7C2A7F801F182F2
:10238000E082DF91CF911F910F91FF90EF90DF904E
:10239000CF90BF90AF900895CF93DF93FC01DB0106
:1023A00010A211A212A213A214A215A246A357A30F
:1023B00020A731A790E1EF01892F19928A95E9F7BB
:1023C000BF01605F7F4FEB0119929A95E9F7BF015A
:1023D000CD01DF91CF910C948F110C94CC112FE78C
:1023E00089EA93E0215080409040E1F700C000006E
:1023F00040E063E084E40E94440987EB98E8019799
:10240000F1F700C0000041E063E084E40E94440969
:1024100087EB98E80197F1F700C0000040E063E027
:1024200084E40E94440987EB98E80197F1F700C023
:10243000000008951F93CF93DF93EC01C255DF4F47
:102440008CED95E0A0E0B0E088839983AA83BB83FC
:102450008CEF91E00E94142F10E088819981AA816D
:10246000BB81892B8A2B8B2B79F00E94E501882375
:10247000A1F30E94D101882381F3082E000C990B4F
:102480000E940D2F1F5FE9CF8CEF91E00E94142F67
:10249000812F110F990BDF91CF911F9108950F9309
:1024A0001F93CF93DF93EC0106E010E0CE010E9472
:1024B000EF11CE010E941A12892B51F083E692E0AF
:1024C0000E94142F81E0DF91CF911F910F91089509
:1024D0000150110959F780E0F6CF0F931F93CF9366
:1024E000DF93EC0106E010E0CE010E94EF11CE0177
:1024F0000E941A12892B51F48BE692E00E94142F4D
:1025000081E0DF91CF911F910F9108950150110942
:1025100059F780E0F6CF40E063E084E40C9444098E
:1025200041E063E084E40C9444090E94B2010E94FB
:10253000CA01789408951F93CF93DF93EC01162F6F
:102540000E94951263E084E40E94F90863E084E449
:102550000E94D508CC57DF4F1883DF91CF911F9190
:102560000895EF92FF920F931F93CF93DF9300D0C4
:1025700000D000D0CDB7DEB78D839E838EED91E085
:102580009F938F930E94F92E0F900F90AD81BE8183
:102590008C91882309F41FC1CD010E94380D162F9C
:1025A000072FF82EE92E8D819E810E94CE0CEF928E
:1025B000FF920F931F939F938F937F936F9386E761
:1025C00092E09F938F930E94F92E0FB6F894DEBF8E
:1025D0000FBECDBF82ED91E09F938F930E94F92EA5
:1025E0000F900F90AD81BE8192968C919297882327
:1025F00009F4F6C07D01B2E2EB0EF11CC7010E94A6
:10260000280E182F092FC7010E944B0EED81FE8165
:1026100013A20F931F931F928F93AD81BE81949647
:102620008D919D910D90BC91A02D89839A83AB8350
:10263000BC83BC01CD0120E137E240E050E00E94C4
:10264000CF291F922F938AE892E09F938F930E9445
:10265000F92E0FB6F894DEBF0FBECDBFAD81BE819F
:10266000D0968C91D097882309F4BFC08D01005D6E
:102670001F4FD1961C92D197D2968D919D910D901E
:10268000BC91A02D89839A83AB83BC83BC01CD010F
:1026900020E432E44FE050E00E94CF292A3020F4B9
:1026A00080E390E00E940D2FED81FE8111AA82A9A6
:1026B00093A9A4A9B5A989839A83AB83BC83BC01E0
:1026C000CD0120E432E44FE050E00E94CF291F9278
:1026D0002F9387EA92E09F938F930E94F92EC8016F
:1026E0000E94B00E0F900F900F900F908A3020F440
:1026F00080E390E00E940D2FC8010E94B00E1F924F
:102700008F9387EA92E09F938F930E94F92EC801DE
:102710000E94D40E0F900F900F900F908A3020F4EB
:1027200080E390E00E940D2FC8010E94D40E1F92FA
:102730008F9380EE93E09F938F930E94F92EED810B
:10274000FE8111AA82A993A9A4A9B5A989839A8314
:10275000AB83BC83BC01CD0124E630E040E050E017
:102760000E94CF290F900F900F900F906A3020F4A5
:1027700080E390E00E940D2FED81FE8111AA82A9D5
:1027800093A9A4A9B5A989839A83AB83BC83BC010F
:10279000CD0124E630E040E050E00E94CF297F9355
:1027A0006F938EE493E09F938F930E94F92E0F9086
:1027B0000F900F900F908CEF91E026960FB6F89443
:1027C000DEBF0FBECDBFDF91CF911F910F91FF9064
:1027D000EF900C94142F81E892E00E94142FFACE0F
:1027E0008DE992E00E94142F39CF81E892E00E9497
:1027F000142FE1CF9F92AF92BF92CF92DF92EF92D0
:10280000FF920F931F93CF93DF93EC010E944F121F
:10281000882309F47FC01882FE01E259FF4F10821D
:102820001182128213828E0108591F4FF801108203
:102830005E01FEEAAF0EB11C80ED97E0A0E0B0E0D3
:10284000F50180839183A283B38380EDC82E87E056
:10285000D82EE12CF12C99249394F501808191815B
:10286000A281B381892B8A2B8B2B09F44FC00E9444
:10287000E501882331F00E94D101682FCE010E942A
:102880001311F50180819181A281B3818C159D0581
:10289000AE05BF0560F4992051F0CE010E94B1123F
:1028A000F0EDCF1AF7E0DF0AE108F108912CF5010D
:1028B00080819181A281B381C816D906EA06FB0600
:1028C00010F4992493948881882339F2F801808147
:1028D000882319F2118286819781A085B18503979B
:1028E000A105B10508F4B9CFCE010E946D1288236D
:1028F00079F080E0DF91CF911F910F91FF90EF90E1
:10290000DF90CF90BF90AF909F9008951882ECCF4A
:1029100082E0F0CF81E0EECFFC01E255FF4F8081F5
:102920009181A281B381892B8A2B8B2B59F08081D5
:102930009181A281B3810197A109B109808391831B
:10294000A283B3830895CF93DF93EB01FC01EA5890
:10295000FF4F118266817781808591850E943D2C91
:102960009F938F937F936F938DEA92E09F938F93C2
:10297000DF93CF930E94402F2DB73EB7285F3F4F84
:102980000FB6F8943EBF0FBE2DBF8C0F9D1FDF9179
:10299000CF9108956AE00E949B298295807F890FDC
:1029A0000895982F92959F708F702AE0929F800DC6
:1029B00011240895CF93C82F88E60E944F1C8C2FB6
:1029C0000E94691C0E94591C61E088E60E94421C1A
:1029D000CF910C94BE1CCF93DF93C82FD62F88E6DF
:1029E0000E944F1C8D2F0E94691C8C2F0E94691C15
:1029F000DF91CF910C94591CCF93DF9381E10E941A
:102A0000DA14D82F82E10E94DA14C82F61E18EEE29
:102A10000E94EB1462E18DED0E94EB1481E10E94B3
:102A2000DA148E3E91F482E10E94DA148D3D69F44D
:102A300081E08093F30661E18D2F0E94EB1462E147
:102A40008C2FDF91CF910C94EB1481E08093F206F0
:102A5000DF91CF91089562E084E40E94AE0862E0C5
:102A600084E40E94F908E9E6F0E0808182608083D6
:102A7000E89A789408958091F30608958091F2067B
:102A8000089581E08093F3061092F2060895109263
:102A9000F30681E08093F2060895EF92FF920F9380
:102AA0001F93CF93DF93CDB7DEB729970FB6F89476
:102AB000DEBF0FBECDBF88E60E944F1C80E00E94A3
:102AC000691C0E94591C67E088E60E94421C8E0126
:102AD0000F5F1F4F7E0188E0E80EF11C0E94BE1CB4
:102AE000F80181938F01EE15FF05C1F70E94591C73
:102AF00089818F770E94D11490E09093E2068093B1
:102B0000E1068A810E94D11490E09093E4068093BC
:102B1000E3068B810E94D114082F10E01093E60683
:102B20000093E5068D810E94D11490E09093E80611
:102B30008093E706FE808F2D8F710E94D11490E064
:102B40009093EA068093E9068F810E94D11490E069
:102B5000F7FE27C08053984F9093EC068093EB06C6
:102B60008C810E94D11490E09093EE068093ED0644
:102B700001151105C9F41092F1061092F00681E0DA
:102B80008093EF0681EE96E029960FB6F894DEBFAB
:102B90000FBECDBFDF91CF911F910F91FF90EF90AE
:102BA00008958459984FD8CF0C3011052CF4109308
:102BB000F1060093F006E3CF0C5011091093F106D3
:102BC0000093F0061092EF06DDCF8F929F92AF92A6
:102BD000BF92CF92DF92EF92FF920F931F93CF930A
:102BE000DF93CDB7DEB729970FB6F894DEBF0FBEDF
:102BF000CDBF8C017B016A0188E60E944F1C80E0FA
:102C00000E94691C0E94591C67E088E60E94421CD1
:102C1000CE0101965C014E0198E0890E911C0E9444
:102C2000BE1CF50181935F018E169F06C1F70E94BD
:102C3000591CC114D10429F089810E94D114F601D4
:102C40008083E114F10429F08A810E94D114F701F4
:102C500080830115110529F08B810E94D114F801A0
:102C6000808329960FB6F894DEBF0FBECDBFDF91EB
:102C7000CF911F910F91FF90EF90DF90CF90BF9079
:102C8000AF909F908F9008951F93CF93DF93EC01A7
:102C900088E60E944F1C80E00E94691C8A859B8503
:102CA000813D27E0920774F1805D97409B878A877A
:102CB00010E888810E94CA140E94691C8A810E94BF
:102CC000CA140E94691C8C810E94CA140E94691C4B
:102CD0008C850E94CA140E94691C8E810E94CA14AD
:102CE0000E94691C88850E94CA14810F0E94691C79
:102CF0008A850E94CA140E94691CDF91CF911F919E
:102D00000C94591C8C5697409B878A8710E0D1CF32
:102D10001F93CF93DF93C82FD62F142F88E60E94DE
:102D20004F1C80E00E94691C812F0E94CA140E94DF
:102D3000691C8D2F0E94CA140E94691C8C2F0E944E
:102D4000CA140E94691CDF91CF911F910C94591CE9
:102D5000CF93C82F8091F20681110BC00E94DA1424
:102D6000CC2329F08F7760E0CF910C94EB1480682E
:102D7000FACFCF9108958091F206811106C00E948A
:102D8000DA148095881F8827881F0895FF920F9373
:102D90001F93CF93DF938C01EB01FC01108218820B
:102DA0008091F306811120C088E60E944F1C81E1CA
:102DB0000E94691C0E94591C62E088E60E94421C25
:102DC0000E94B81C882381F00E94BE1CF82E0E942D
:102DD000BE1CF801F082829586958695837099E1F4
:102DE000899F802D11248883DF91CF911F910F91AE
:102DF000FF900895CF93DF93C82F8091F306811140
:102E00002DC088E60E944F1C8EE00E94691C0E9423
:102E1000591C61E088E60E94421C0E94BE1CD82F0B
:102E200088E60E944F1C8EE00E94691C8D2F8062F4
:102E30000E94691C0E94591CCC2381F088E60E94E4
:102E40004F1C8EE00E94691C0E94591C61E088E6BC
:102E50000E94421C0E94BE1C85FDF0CFDF91CF91E5
:102E60000895CF93C82F88E60E944F1C88E08C0FEE
:102E70000E94691C0E94591C61E088E60E94421C65
:102E8000CF910C94BE1C0F931F93CF938C01C0E085
:102E90008C2F0E943117F80181938F01CF5FC833C7
:102EA000B9F7CF911F910F910895CF93DF93C82F5A
:102EB000D62F88E60E944F1C88E08D0F0E94691C67
:102EC0008C2F0E94691CDF91CF910C94591C0F9399
:102ED0001F93CF938C01C0E06C2FF80181918F017B
:102EE0000E945517CF5FC833B9F7CF911F910F914B
:102EF0000895CF93DF93D82F8091F306882309F1AB
:102F000088E60E944F1C87E00E94691C0E94591CA1
:102F100061E088E60E94421C0E94BE1CC82FDD238F
:102F200071F0C06188E60E944F1C87E00E94691C16
:102F30008C2F0E94691CDF91CF910C94591CCF7E7D
:102F4000F1CF88E60E944F1C8EE00E94691C0E940F
:102F5000591C61E088E60E94421C0E94BE1CC82FDA
:102F6000DD2339F0CB7FC06488E60E944F1C8EE0E1
:102F7000DDCFCF7BF9CFCF93DF93EC018091F306C8
:102F80008823E9F088E60E944F1C87E00E94691CB4
:102F90000E94591C61E088E60E94421C0E94BE1CEF
:102FA0008C7FC82B88E60E944F1C87E00E94691C1A
:102FB0008C2F0E94691CDF91CF910C94591C88E6DC
:102FC0000E944F1C8EE00E94691C0E94591C61E007
:102FD00088E60E94421C0E94BE1C94E0CC0FDD1FBC
:102FE0009A95E1F7877EC82B88E60E944F1C8EE0F9
:102FF000DDCFCF93DF93D82F8091F206882309F19C
:1030000088E60E944F1C8FE00E94691C0E94591C98
:1030100061E088E60E94421C0E94BE1CC82FDD238E
:1030200071F0C86088E60E944F1C8FE00E94691C06
:103030008C2F0E94691CDF91CF910C94591CC77F83
:10304000F1CFDF91CF9108958091F306882361F04D
:1030500060E080E00E94551761E080E00E94551713
:1030600062E080E00C94551767E080E00E94EB146A
:1030700068E080E00E94EB1469E080E00E94EB14BD
:103080006AE080E00C94EB141F93CF93DF93C82F7A
:10309000D62F142F883108F054C06C3308F051C07B
:1030A0004C3308F04EC08091F306882379F060E03D
:1030B0008C2F0E94551761E08D2F0E94551762E0FA
:1030C000812FDF91CF911F910C945517842F0E946F
:1030D000CA1467E00E94EB148D2F0E94CA1468E0A6
:1030E0000E94EB148C2F0E94CA1469E00E94EB141A
:1030F0006AE081E80E94EB148FE00E94DA146FE02E
:103100008E7F0E94EB1488E60E944F1C8EE00E9486
:10311000691C0E94591C61E088E60E94421C0E94C2
:10312000BE1CC82F88E60E944F1C8EE00E94691CBE
:103130008C2F81600E94691CDF91CF911F910C94AC
:10314000591CDF91CF911F910895FC01892B29F023
:103150004081628184810C9444180895EF92FF921B
:103160000F931F93CF93DF93EC018B017A01809132
:10317000F3068823E9F0209721F080E00E943117C0
:1031800088830115110529F081E00E943117F801AB
:103190008083E114F10429F082E00E943117F701E5
:1031A0008083DF91CF911F910F91FF90EF90089551
:1031B00087E00E94DA148F770E94D114F701808390
:1031C00088E00E94DA148F770E94D114F80180837E
:1031D00089E00E94DA148F770E94D1148883E1CFAE
:1031E000CF93DF9300D00F92CDB7DEB7AE014F5F24
:1031F0005F4FBE016E5F7F4FCE0103960E94AE18F7
:10320000E1EEF6E08B8190E0958384838A8190E003
:1032100093838283898190E091838083CF010F9093
:103220000F900F90DF91CF910895FF920F931F930E
:10323000CF93DF9300D00F92CDB7DEB78091F30626
:10324000882349F180E00E943117F82E81E00E9426
:103250003117082F82E00E943117182FAE014F5FFF
:103260005F4FBE016E5F7F4FCE0103960E94E51552
:103270008B818F1106C08A81801303C081E0998100
:10328000911380E00F900F900F90DF91CF911F91DD
:103290000F91FF9008958FE00E94DA14182F11709B
:1032A00080FF04C06FE08E7F0E94EB14812FEACF75
:1032B000CF93DF93FC01DB0146A157A127A930ADD5
:1032C00014968D919C911597421753070CF1241772
:1032D000350754F042175307D9F4C4A1D5A165A905
:1032E00076A96C177D07A4F484179507A4F088319C
:1032F0009105A4F02817390749F481E012964D9101
:103300005C9125A936A9421753074CF080E007C00D
:10331000841795077CF38217930764F781E0DF91A8
:10332000CF910895EF92FF920F931F93CF93DF9366
:10333000FC01EB01DC01A85BBF4F8C819D812D91CD
:103340003C91820F931F28E1E22EF12CB7010E94DD
:10335000BB299C0195838483DF01AA5BBF4F0D913C
:103360001C918A819B81800F911F6CE370E00E9409
:10337000BB29938382838A819B81080F191F0C3399
:1033800011053CF0C9010196B7010E94BB29958344
:103390008483DF91CF911F910F91FF90EF9008955B
:1033A000CF93DF93EC01BC016F5E7F4F0E949219B7
:1033B0008B818F938A818F938D818F938C818F9353
:1033C00084ED92E09F938F930E94F92EBE01CE016F
:1033D0000E9458190F900F900F900F900F900F9020
:1033E00040E08823D9F06A818C810E9444188B8147
:1033F0008F938A818F938D818F938C818F9388EFA8
:1034000092E09F938F930E94F92E0F900F900F9050
:103410000F900F900F90DF91CF9108956CA18EA126
:103420000E9444188DA18F938CA18F938FA18F93AD
:103430008EA18F9385E293E0E4CF10925F07449AC8
:10344000459AE9EBF0E080818E7F808380818D7FDB
:1034500080838CE08093B80085E48093BC007894EE
:103460000895880F8093BA000895982F842F4132D1
:1034700058F520915F072111FCCF21E020935F07D1
:103480002FEF2093F40610923907280F2093380766
:10349000990F916090935E0795EE9093BC00909188
:1034A0005F079130E1F390913907981710F48091FC
:1034B00039072AE337E0FB01D9019A2F921B9817AD
:1034C00020F49D919193F9CF80E00895982F413297
:1034D000B0F580915F078111FCCF32E030935F0738
:1034E0003FEF3093F4061092390740933807562F78
:1034F000AAE3B7E0FB013E2F351B341718F43191D6
:103500003D93F9CF492F50E0440F551F40935E077C
:1035100095EE9093BC00222321F090915F079230AA
:10352000D1F39091F4069F3F79F08091F4068032B8
:1035300041F08091F406803331F084E0089581E019
:10354000089582E0089583E00895613288F420911F
:103550005F07243079F460931607282FA8E1B7E0BD
:10356000FC018E2F821B861738F481918D93F9CF41
:1035700081E0089582E0089580E0089590935B07CC
:1035800080935A07089590935D0780935C07089590
:10359000882321F085EC8093BC00089585E8FBCF5B
:1035A00085ED8093BC008091BC0084FDFCCF10921F
:1035B0005F07089585EC8093BC0010925F07089523
:1035C0001F920F920FB60F9211242F933F934F9398
:1035D0005F936F937F938F939F93AF93BF93EF937B
:1035E000FF939091B900892F887F803509F4BCC082
:1035F00008F045C0803309F4B2C0A0F5883101F16C
:10360000D0F4883009F4A3C0803109F4A0C0882325
:1036100009F4E9C0FF91EF91BF91AF919F918F9114
:103620007F916F915F914F913F912F910F900FBEBE
:103630000F901F901895803209F491C0883251F78D
:103640009091390780913807981708F08AC0E09167
:10365000390781E08E0F80933907F0E0E65CF84F80
:10366000808177C0803409F48BC0883409F479C034
:10367000883381F68093F4060E94DA1ACBCF803A21
:1036800009F498C060F5803809F482C0F8F48036F7
:10369000B9F080F4883509F0BDCFE091390781E0B9
:1036A0008E0F809339078091BB00F0E0E65CF84F05
:1036B000808357C0803721F0987E983609F0AACFD2
:1036C00083E080935F071092F50645C0803909F4C6
:1036D0005FC0987E983809F09DCF85E83DC0883B53
:1036E000D9F058F5883A19F0803B09F093CF84E07F
:1036F00080935F071092170710921607E0915C07FE
:10370000F0915D07099580911607811105C081E050
:103710008093160710921807E091170781E08E0F2B
:1037200080931707F0E0E85EF84F80818093BB003C
:10373000909117078091160727C0907F903C09F061
:1037400069CF85EC8093BC0010925F0763CF8091B6
:103750005E078093BB0085EC8093BC005BCF8093B9
:10376000F4060E94D01A56CFE091390781E08E0FFF
:10377000809339078091BB00F0E0E65CF84F8083CE
:103780009091390780913807981708F0A6CFE3CFBA
:103790008091F506803208F0A0CFE091F50681E037
:1037A0008E0F8093F5068091BB00F0E0EA50F94F50
:1037B0008083D1CF8091F506803230F4E091F50618
:1037C000F0E0EA50F94F10820E94D01A6091F5069D
:1037D00070E0E0915A07F0915B0786EF96E009955B
:1037E0001092F50649CF1092F406BBCFCF93DF932A
:1037F000DC01CB01E0916007F09161073097E9F0BF
:1038000030918907209188073217B8F040E0242FC3
:1038100030E02817390754F4ED01C20FD31F588147
:103820002657384FE90158834F5FF1CF109289072F
:1038300080938807DF91CF910994DF91CF9108950C
:10384000E0916207F0916307309729F010926607C4
:1038500010926507099408951092890710928807BD
:1038600010926607109265070C941D1A0E94311A77
:1038700080E29CE10E94C31A86EF9BE10E94BE1A7F
:103880000C942C1C462F613208F040E26AE877E085
:103890000E94351A1092890780938807089591E055
:1038A00090936407809387071092660710926507CC
:1038B000089521E04091650767E677E080918707EA
:1038C0000E94661A109266071092650710926407AC
:1038D0000895CF93DF930F92CDB7DEB789838091A0
:1038E00064078823A9F080916507803268F480918D
:1038F0006607E82FF0E0E959F84F998190838F5FD0
:1039000080936607809365070F90DF91CF910895AC
:1039100061E0CE0101960E94A51AF6CF0F931F9386
:10392000CF93DF9320916407222369F08C01EC018F
:10393000C60FD11D0C171D0761F0F80181918F0191
:103940000E94691CF7CFDF91CF911F910F910C94CA
:10395000A51ADF91CF911F910F910895DC010D9071
:103960000020E9F71197BD01681B790B0C948E1CA0
:103970008091880790918907891B08959091890704
:1039800080918807981748F4E92FF0E0E657F84F40
:1039900080819F5F90938907089580E008959093B8
:1039A000610780936007089590936307809362078F
:1039B00008950895FF920F931F93CF93DF93CDB790
:1039C000DEB761970FB6F894DEBF0FBECDBF8C0196
:1039D000DC01D5961C921E92D4978C91282F082E2C
:1039E000000C330B3F938F9383E593E09F938F936A
:1039F0000E94F92EF80184A995A9E80FF91F2081EA
:103A00000F900F900F900F90223509F44DC0233581
:103A100009F479C1293409F008C49C012E5F3F4F95
:103A2000223331050CF0F0C3D801D5963C932E9388
:103A3000D497AC014D5F5F4F8F9709F4E5C3200F1A
:103A4000311FF9019081D5965C934E93D497905392
:103A5000040F151FD8018C91BAE09B9F800D112493
:103A600060ED680F8153823608F0DAC38AE090E097
:103A70000E94502368E275E08AE090E00E943D23B6
:103A800062E08BE090E00E945023809128051F9215
:103A90008F9385EC93E09F938F930E94F92E0F9064
:103AA0000F900F900F90ACC39C012E5F3F4F2233BD
:103AB00031050CF0A9C3D801D5963C932E93D49729
:103AC000200F311FF9014081042E000C550B40538B
:103AD00051096AE0649FF001659FF00D1124AC016B
:103AE0004D5F5F4F8F32910509F48EC3D5965C937D
:103AF0004E93D497400F511FDA012C91022E000CE7
:103B0000330B205331092E0F3F1F3E832D839C0121
:103B10002B5F3F4F223331050CF076C3F80135ABF4
:103B200024AB200F311FD9014C91042E000C550BF2
:103B300040535109649FF001659FF00D1124AC01C1
:103B40004A5F5F4F8C32910509F45EC3D801D59668
:103B50005C934E93D497400F511FDA012C91022EA3
:103B6000000C330B205331092E0F3F1F3C832B8356
:103B70009C01285F3F4F223331050CF045C3F8010B
:103B800035AB24AB200F311FD9014C91042E000C12
:103B9000550B40535109649FF001659FF00D1124AE
:103BA000AC01475F5F4F8932910509F42DC3D801FD
:103BB000D5965C934E93D497400F511FDA012C9108
:103BC000022E000C330B205331092E0F3F1F3A8376
:103BD00029839C01255F3F4F223331050CF014C32C
:103BE000F80135AB24AB200F311FD9014C91042EC5
:103BF000000C550B40535109649FF001659FF00D77
:103C00001124AC01445F5F4F8632910509F4FCC278
:103C1000D801D5965C934E93D497400F511FDA018B
:103C20002C91022E000C330B205331092E0F3F1F15
:103C300038872F839C01225F3F4F223331050CF0E0
:103C4000E3C2F80135AB24AB200F311FD9014C91F1
:103C5000042E000C550B40535109649FF001659FE1
:103C6000F00D1124AC01415F5F4F8332910509F4DF
:103C7000CBC2D801D5965C934E93D497400F511F79
:103C8000DA012C91022E000C330B205331092E0F38
:103C90003F1F3A8729879C012F5E3F4F2233310512
:103CA0000CF0B2C2F80135AB24AB200F311FD901A3
:103CB0002C91022E000C330B20533109629FA0017E
:103CC000639F500D11249C012E5E3F4F809709F495
:103CD0009BC235AB24AB020F131FF8018081082E65
:103CE000000C990BC097840F951F9C878B87CE0182
:103CF00001960E94441681E08093290582E693E0B4
:103D00000E94142F7DC29C012E5F3F4F223331054C
:103D10000CF07AC2D801D5963C932E93D497200FFD
:103D2000311FF9014081042E000C550B40535109FD
:103D30002AE0F22EF49EB001F59E700D11247093CE
:103D4000510560935005AC014D5F5F4F8F32910577
:103D500009F45AC2D5965C934E93D497400F511FE5
:103D6000DA012C91022E000C330B20533109260F5F
:103D7000371F30935105209350059C012B5F3F4F17
:103D8000223331050CF040C2F80135AB24AB200FD3
:103D9000311FD9014C91042E000C550B4053510991
:103DA000F49EB001F59E700D112470934F05609341
:103DB0004E05AC014A5F5F4F8C32910509F424C275
:103DC00055AB44AB400F511FFA012081022E000C6D
:103DD000330B20533109260F371F30934F052093A3
:103DE0004E059C01285F3F4F223331050CF00CC279
:103DF000D801D5963C932E93D497200F311FF9010B
:103E00002081022E000C330B20533109F29EA001B9
:103E1000F39E500D112450934D0540934C059C0189
:103E2000275F3F4F899709F4EFC1D5963C932E93B6
:103E3000D497200F311FD9018C91082E000C990BBB
:103E4000C097840F951F90934D0580934C0564E1B6
:103E500070E08CE495E00E94DD2364E170E08CE486
:103E600095E00E94102480914D058F9380914C0520
:103E70008F9380914F058F9380914E058F93809102
:103E800051058F93809150058F9386E793E09F9320
:103E90008F930E94F92EF80184A995A902960FB676
:103EA000F894DEBF0FBECDBF823391050CF0ACC1DC
:103EB00095AB84AB800F911FDC018C91082E000C18
:103EC000990BC097F89E9001F99E300D1124309304
:103ED00062052093610584A995A901968233910515
:103EE0000CF092C195AB84AB800F911FFC018081D7
:103EF000082E000C990BC097209161053091620546
:103F0000820F931F9093620580936105D801D49628
:103F10008D919C91D5970296823391050CF074C1D6
:103F2000D5969C938E93D497800F911FFC0180812E
:103F3000082E000C990BC097F89E9001F99E300D49
:103F400011243093600520935F05D4968D919C9148
:103F5000D5970196823391050CF056C1D5969C9366
:103F60008E93D497800F911FDC018C91082E000C4A
:103F7000990BC09720915F0530916005820F931FC8
:103F80009093600580935F05F80184A995A9029636
:103F9000823391050CF038C195AB84AB800F911F33
:103FA000DC018C91082E000C990BC097F89E9001B3
:103FB000F99E300D112430935E0520935D0584A990
:103FC00095A90196823391050CF01EC195AB84AB87
:103FD000800F911FFC018081082E000C990BC09767
:103FE00020915D0530915E05820F931F90935E05D1
:103FF00080935D0567E170E08DE595E00E94DD232B
:1040000067E170E08DE595E00E94102480915E05E7
:104010008F9380915D058F93809160058F93809140
:104020005F058F93809162058F93809161058F93D7
:1040300081E993E09F938F930E94F92ED801D49643
:104040008D919C91D59702960FB6F894DEBF0FBE66
:10405000CDBF823391050CF0D7C0D5969C938E933B
:10406000D497800F911FDC018C91082E000C990BC6
:10407000C097F89E9001F99E300D1124309373057E
:1040800020937205F80184A995A9019682339105C0
:104090000CF0BAC095AB84AB800F911FDC018C9102
:1040A000082E000C990BC097209172053091730572
:1040B000820F931F909373058093720584A995A92D
:1040C0000296823391050CF09FC095AB84AB800FB4
:1040D000911FFC018081082E000C990BC097F89E5F
:1040E0009001F99E300D11243093710520937005D5
:1040F000D801D4968D919C91D597019682339105E4
:104100000CF082C0D5969C938E93D497800F911F0C
:10411000FC018081082E000C990BC097209170053E
:1041200030917105820F931F9093710580937005F4
:10413000D4968D919C91D5970296823391050CF07F
:1041400063C0D5969C938E93D497800F911FDC010A
:104150008C91082E000C990BC097F89E9001F99E47
:10416000300D112430936F0520936E05F80184A95A
:1041700095A90196823391050CF046C095AB84ABAE
:10418000080F191FD8018C91082E000C990BC097AD
:1041900020916E0530916F05820F931F90936F05EC
:1041A00080936E056AE170E08EE695E00E94DD2363
:1041B0006AE170E08EE695E00E94102480916F0520
:1041C0008F9380916E058F93809171058F9380916D
:1041D00070058F93809173058F93809172058F93F3
:1041E0008AEA93E09F938F930E94F92E62E08CE01D
:1041F00090E00E9450230FB6F894DEBF0FBECDBFF3
:1042000089EF93E00E94142F61960FB6F894DEBFF9
:104210000FBECDBFDF91CF911F910F91FF900895F9
:104220001F926F9384ED93E036CC83EE93E068CDDC
:10423000FC0182A993A9813391052CF4019693ABDB
:1042400082AB80E0089581E00895FC01A2A9B3A9A2
:10425000A80FB91F6C930C941821FC0113AA12AA81
:104260000C942521FC0184A995A9680F791F62335C
:10427000710524F475AB64AB80E0089581E0089586
:104280000F931F93CF93DF938EE480937C0086E897
:1042900080937A0087EE93E00197F1F700C0000069
:1042A00080917A00806480937A0080917A0086FD04
:1042B000FCCF87EE93E00197F1F700C000008091FA
:1042C0007A00806480937A0080917A0086FDFCCF2A
:1042D0008FE097E20197F1F700C00000809178002D
:1042E00090917900C92FD0E0082F10E01F929F9382
:1042F0001F928F938EE094E09F938F930E94F92EEC
:10430000DC2FCC27C02BD12BCE011F921F929F9365
:104310008F9381E294E09F938F930E94F92E80E027
:104320009CE2BE010E94A729EB01CB0199279F9334
:104330008F938CE294E09F938F930E94F92E80914B
:104340007A008F7780937A008DB79EB740960FB62C
:10435000F8949EBF0FBE8DBF8C2FDF91CF911F9120
:104360000F910895CF93DF9300D000D0CDB7DEB783
:104370000E9440216AE00E949B29282F30E050E0F3
:1043800040E029833A834B835C83CA01B9010E94D0
:104390003D2C69837A838B839C8369817A818B81AD
:1043A0009C810F900F900F900F90DF91CF91089507
:1043B0009F92AF92BF92CF92DF92EF92FF920F93B4
:1043C0001F93CF93DF938C01F42EE52ED62EC72EAC
:1043D00059018BE7F8018083E801229683E4818309
:1043E000809128051F928F9380EE93E09F938F9387
:1043F000DF93CF930E94402FC80FD91F8CE2982ED5
:10440000FE019192CF0169E374E00E94492E259646
:10441000F50181818F9380818F9383818F93828136
:104420008F9385818F9384818F9380E691E09F9312
:104430008F93DF93CF930E94402FC80FD91F99927B
:10444000CF92DF92EF92FF928EE394E09F938F934F
:10445000DF93CF930E94402FC80FD91F8DE7888329
:104460001982F80101900020E9F7CF0101972DB7DB
:104470003EB7285E3F4F0FB6F8943EBF0FBE2DBF2C
:10448000801B910BDF91CF911F910F91FF90EF90C7
:10449000DF90CF90BF90AF909F90089583E494E019
:1044A0000C94142F0895EBEAF7E087E090E09583F1
:1044B00084838EE190E093838283118210829783BC
:1044C000868381E090E09187808786E190E0938702
:1044D00082870895FC01208531858091B3079091F2
:1044E000B40782179307B4F12817390789F5268195
:1044F00037818091B1079091B2078217930754F1E9
:104500002817390729F5248135818091AF079091CB
:10451000B00782179307F4F028173907C9F42281EE
:1045200033818091AD079091AE078217930794F085
:104530002817390769F4408151812091AB073091E8
:10454000AC0781E0241735073CF04217530721F0F0
:1045500080E0089581E008950895CF92DF92EF9270
:10456000FF920F931F93CF93DF93CDB7DEB768977A
:104570000FB6F894DEBF0FBECDBF182F0E94532296
:104580008091AA0781116AC00E944D15F82E092F4B
:10459000103278F589E594E00E94142F812F90E085
:1045A000B0E0A0E08D8B9E8BAF8BB88FBC01CD01AE
:1045B0000E943B2C2F2D302F462F572FBC01DE01A0
:1045C00011966D01CD010E94D821E82EDF92CF9285
:1045D00083E794E09F938F930E94F92E6E2DC6017E
:1045E0000E94E90581E08093AA070F900F900F9039
:1045F0000F908F2D902F0E946A22882379F181E8F5
:1046000094E00E94142F812F90E0B0E0A0E08D8B09
:104610009E8BAF8BB88FBC01CD010E943B2C2F2D00
:10462000302F462F572FBC018E010F5F1F4FC8013F
:104630000E94D821F82E1F930F9383E794E09F9355
:104640008F930E94F92E6F2DC8010E94E90581E029
:104650008093AA070F900F900F900F9068960FB657
:10466000F894DEBF0FBECDBFDF91CF911F910F91A8
:10467000FF90EF90DF90CF9008959C01FB012115F2
:1046800084E0380758F49FB3892F827091FDFBCFE7
:1046900032BD21BDF89A90B59083089582E00895C7
:1046A0009C01211584E0380758F49FB3892F82704C
:1046B00091FDFBCF32BD21BD60BDFA9AF99A0895F4
:1046C00082E00895FF920F931F93CF93DF930F9291
:1046D000CDB7DEB78C01F62E011584E0180730F552
:1046E0001982BE016F5F7F4FC8010E943D23811177
:1046F00016C09981F91699F06F2DC8010E945023B8
:1047000081110DC0BE016F5F7F4FC8010E943D2324
:10471000811105C081E099819F1101C080E00F9057
:10472000DF91CF911F910F91FF90089582E0F7CF15
:10473000EF92FF920F931F93CF93DF938C01EB01C6
:104740007B01E40EF51ECE15DF0579F06991C801F5
:104750000E9462230F5F1F4F8823A9F3DF91CF913F
:104760001F910F91FF90EF90089580E0F7CFCF92C7
:10477000DF92EF92FF920F931F93CF93DF938C0101
:104780007B016A01D0E0C0E0CC15DD0561F0B70126
:104790006C0F7D1FCE01800F911F0E943D23811160
:1047A00003C02196F1CF80E0DF91CF911F910F914F
:1047B000FF90EF90DF90CF9008950F931F93CF93CA
:1047C000DF93EC018B016C81C8010E9450236A8148
:1047D000C80101960E9450236881C80102960E9478
:1047E000502389818F9388818F938B818F938A81C6
:1047F0008F938D818F938C818F938FE994E09F931A
:104800008F930E94F92E8DB79EB708960FB6F89435
:104810009EBF0FBE8DBFDF91CF911F910F91089565
:104820000F931F93CF93DF93EC018B01BC016C5F5F
:104830007F4FC8010E943D23BE016E5F7F4FC801BC
:1048400001960E943D23BE01C80102960E943D23AD
:1048500089818F9388818F938B818F938A818F93A6
:104860008D818F938C818F938AEC94E09F938F93AB
:104870000E94F92E8DB79EB708960FB6F8949EBF8A
:104880000FBE8DBFDF91CF911F910F910895A5E1CC
:10489000B0E0EDE4F4E20C94AA2A7C011B015A0179
:1048A000DC0117961C921E92169713968C9181FF2D
:1048B00068C3FE0131964F01D70113969C91F10117
:1048C00093FD859193FF81911F01882309F4EDC227
:1048D000853239F493FD859193FF81911F018532D3
:1048E00039F4B70190E00E94C92E65015601E4CF6A
:1048F00010E0512C00E0003238F48B3209F190F4D2
:104900008032F9F0833209F107FD34C020ED280F21
:104910002A3020F506FF1BC0BAE01B9F200D112492
:10492000122F05C08D3279F0803371F70160F101EB
:1049300093FD859193FF81911F018111DCCF1AC0F6
:1049400002600460F4CF0860F2CF0061F0CFEAE0CB
:104950005E9E200D1124522E0062E9CF8E3221F48A
:1049600006FDA3C20064E3CF8C3611F40068DFCFEC
:104970008836E9F29BEB980F933008F073C0006122
:10498000805E06FF16E00F73702E853609F071C049
:10499000689476F877FE77C0812F1C3308F08BE39C
:1049A00044244394480E27E0D5014D915D916D91CB
:1049B0007D916D014C875D876E877F87042DA401F3
:1049C0006C857D858E859F850E945D2D5C01B981FA
:1049D000BC87B0FF04C06DE2662EB3FF0BC05BE284
:1049E000652E71FC07C0E72DE4706E2E72FE02C0CA
:1049F00070E2672E0C850C7009F456C06110C4C2B9
:104A0000F3E000E0F51598F483E0052D081B73FC36
:104A100007C0B70180E290E00E94C92E0150C9F79B
:104A2000662029F0B701862D90E00E94C92EFC85F2
:104A300048E6A42E40E0B42EF3FD04C03CE6A32ECD
:104A400030E0B32E172D1071F5018491811122C031
:104A5000002309F44BCFB70180E290E00E94C92EF9
:104A60000150F6CF9BE9980F933008F041C10F7EBB
:104A700088CF863619F4689477F88CCF112309F41F
:104A800089CF115087CF212F183010F027E017E081
:104A9000412C8ACF11118052B70190E00E94C92E9B
:104AA0002FEFA21AB20AD0CF77FE78C04A0CFC854D
:104AB000F4FF04C08A81813309F44A9414140CF081
:104AC00090C028E0241510F428E0422E85E090E004
:104AD00077FE06C0C501B7FE02C090E080E00196F7
:104AE00061100196112331F0212F30E02F5F3F4FED
:104AF000820F931F5816190619F014F0052D081B84
:104B0000872D897011F4011171C0662029F0B70159
:104B1000862D90E00E94C92E73FC02C001116DC069
:104B200077FE98C0B98AA88AB7FE02C0198A188A87
:104B300068887988A501441951095D8B4C8B412EF9
:104B4000512C66277727641975097B8B6A8BA6140D
:104B5000B7040CF459C08C899D89861597050CF013
:104B600053C0F501E619F709E80DF91D818191E0BF
:104B7000691A7108AA89BB896A167B060CF446C0BB
:104B8000B70190E00E94C92EBFEF6B167B06F9F6C5
:104B9000B7018EE290E00E94C92ED9CF76FC96CF65
:104BA000E12FF0E0EA15FB053CF03CEFA3163FEFE8
:104BB000B30614F0689477F83296E80DF91D01C039
:104BC0001150112319F082918033D1F377FE7ECFFB
:104BD00044244394410E1A151B0431F02CF01A1989
:104BE00075CF4424439472CF10E070CFB70180E2B8
:104BF00090E00E94C92E015086CFB70180E390E07B
:104C00000E94C92E01508ACF80E3B1CF688979898B
:104C10006150710940945094E889F9894E165F06F5
:104C2000A4F4461A570A460E571EA414B50441F4BC
:104C30009A81963368F4953319F4FC85F4FF08C023
:104C4000B70190E00E94C92E03CF512C412CEBCF2D
:104C500081E3F6CF8A81813319F02C852F7E2C8752
:104C6000B70190E00E94C92E1123A9F0B7018EE28E
:104C700090E00E94C92E92E0692E610E12E0E12FB1
:104C80001F5FE80DF92DF11D8081B70190E00E94B2
:104C9000C92E6112F4CF85E690E074FE02C085E46F
:104CA00090E0B7010E94C92EB7FC06C0A114B10460
:104CB000C1F43C8534FF15C0B194A194B1088DE2D4
:104CC000B70190E00E94C92E80E35AE0A516B10416
:104CD00054F4B70190E00E94C92EB701C501C096F7
:104CE000B1CF8BE2EDCF8F5F4AE0A41AB108EDCFD0
:104CF0008336B9F0833709F43CC0833509F04FC0DF
:104D0000D501AD90BD906D01612F70E006FD02C030
:104D10006FEF7FEFC5010E94352E3C01102F106808
:104D20000DC0650162E0C60ED11CD5018C9189834E
:104D300066246394712C5401102F1F7713FD04C057
:104D40005614170409F020F5052D6114710409F4B7
:104D50007FCEF50117FD859117FF81915F01B701A6
:104D600090E00E94C92E01110150B1E06B1A710848
:104D7000ECCFF501A190B1906F01612F70E006FDBD
:104D800002C06FEF7FEFC5010E945F2E3C01D4CFC0
:104D9000B70180E290E00E94C92E5A94D1CF8436A8
:104DA00019F0893609F070C007FF65C0F5016191FF
:104DB0007191819191916F010F7697FF08C0909545
:104DC0008095709561957F4F8F4F9F4F00682AE0C7
:104DD00030E0A4010E94632FA82EA818BA2C602EE0
:104DE00006FF0BC0E89460F8A11638F404FF04C075
:104DF00002FD02C00E7E602EB12E64FE9AC0FE013E
:104E0000EA0DF11D8081803309F08CC0562D597E4A
:104E1000652E062D087063FC9BC060FE95C01A2DA0
:104E2000B51410F4150D1B1964FE98C0B70180E38A
:104E300090E00E94C92E62FE09C088E790E061FE02
:104E400002C088E590E0B7010E94C92EA11608F4BF
:104E500091C0AA94B12C6FEFA61AB60AA80CB91C7F
:104E6000D5018E915D01B70190E00E94C92EA81472
:104E7000B904B1F7EDCDD5016D917D916D01072E8E
:104E8000000C880B990B98CF702EE89474F82AE0E8
:104E900030E0853739F1B02FB97F7B2E8037A9F00C
:104EA00058F48835A9F08F36D9F0F70186819781BB
:104EB0006596E2E10C94C62A8837B9F774FE02C001
:104EC000689472F820E130E00DC0689474F8F6CF71
:104ED00004FF03C0EB2FE6607E2E20E132E002C02B
:104EE00028E030E077FE16C0D5014D915D916D91BF
:104EF0007D916D014C875D876E877F87A4016C85EE
:104F00007D858E859F850E94632FA82EA818072D6A
:104F10000F7764CFF501819191916F01AC0170E041
:104F200060E0E8CF62FC02C0B39473CFB394B39453
:104F300070CF862D867809F46CCFF6CFB70180E26A
:104F400090E00E94C92EB394B514C0F300E06CCF7A
:104F5000052D0B19B51408F467CFF8CF862D867888
:104F600009F474CF8BE261FE80E267FC8DE2B70149
:104F700090E06ACFB70180E390E00E94C92E115003
:104F800065CF8FEF9FEF94CF24E000E0251508F068
:104F900049CD84E03ACDCDB7DEB761970FB6F8942E
:104FA000DEBF0FBECDBF0E94110A81EA91E00E94D0
:104FB000142F0E942C1C0E94FC1460E08FE795E0E7
:104FC0000E949B120E9440211F928F93809128057E
:104FD0001F928F938EEB91E09F938F9387E696E0DD
:104FE0009F938F930E94402F60E087E696E00E9497
:104FF000E9050E947C090E942C1C8CEC91E00E9427
:10500000142F0E942B150E94190886EE91E00E9431
:10501000142F0E94F9070E947C080E94190868E278
:1050200075E08AE090E00E943D2364E170E08CE44A
:1050300095E00E94102467E170E08DE595E00E9404
:1050400010246AE170E08EE695E00E94102480EC66
:1050500091E09F938F930E94F92E80914D058F933D
:1050600080914C058F9380914F058F9380914E05D1
:105070008F93809151058F93809150058F930BEB07
:1050800014E01F930F930E94F92E80EB91E09F9301
:105090008F930E94F92E80915E058F9380915D051C
:1050A0008F93809160058F9380915F058F9380919E
:1050B00062058F93809161058F931F930F930E94D8
:1050C000F92E8EE991E09F938F930E94F92E8091A3
:1050D0006F058F9380916E058F93809171058F93EB
:1050E000809170058F93809173058F9380917205E5
:1050F0008F931F930F930E94F92E0FB6F894DEBF83
:105100000FBECDBF809150059091510548976CF42A
:1051100080914E0590914F05CC973CF480914C05C1
:1051200090914D05CC970CF461C08EEF91E00E94F8
:10513000142F0E94D8078CE891E09F938F930E94D0
:10514000F92E80914D058F9380914C058F9380911E
:105150004F058F9380914E058F93809151058F93CA
:10516000809150058F930BEB14E01F930F930E94D7
:10517000F92E8CE791E09F938F930E94F92E8091F6
:105180005E058F9380915D058F93809160058F936D
:1051900080915F058F93809162058F938091610567
:1051A0008F931F930F930E94F92E8AE691E09F93AD
:1051B0008F930E94F92E80916F058F9380916E05D9
:1051C0008F93809171058F93809170058F9380915B
:1051D00073058F93809172058F931F930F930E9495
:1051E000F92E0FB6F894DEBF0FBECDBF8091280513
:1051F0001F928F9387E392E09F938F930E94F92EE3
:105200000F900F900F900F9001E00E947C090E9478
:105210002C1C0E942B150E9419080E9440218FE728
:1052200095E00E94FA13682F87E696E00E9499069F
:10523000182F8FE795E00E94B11280917F05882397
:1052400009F441C08FEA95E00E94940E90E09E839D
:105250008D838FEA95E00E94B00E90E09C838B8353
:105260008FEA95E00E94D40E90E09A83898381EAC8
:1052700095E00E94780E90E098878F8381EA95E010
:105280000E944B0E90E09A87898781EA95E00E9400
:10529000280E9C878B87CE0101960E9444160E949F
:1052A000190800932905612F87E696E00E94E90519
:1052B0008AE295E00E94D0190E9419080E94920982
:1052C0000E94560AA2CF809129058111ECCF0E943D
:1052D000A4070E941908E7CFEDE9F6E014AA13AA83
:1052E00016AA15AA81E087AB10AE11AE12AE13AEAE
:1052F00010926606109265068FE795E00C94960A68
:1053000070E060E08CE29AE00E947F2E9093E006CD
:105310008093DF060895DB018F939F930E94F72906
:10532000BF91AF91A29F800D911DA39F900DB29F41
:10533000900D11240895991B79E004C0991F9617C8
:1053400008F0961B881F7A95C9F780950895AA1BC7
:10535000BB1B51E107C0AA1FBB1FA617B70710F060
:10536000A61BB70B881F991F5A95A9F78095909592
:10537000BC01CD01089597FB072E16F4009407D0C9
:1053800077FD09D00E94A72907FC05D03EF490952F
:1053900081959F4F0895709561957F4F0895A1E283
:1053A0001A2EAA1BBB1BFD010DC0AA1FBB1FEE1F9F
:1053B000FF1FA217B307E407F50720F0A21BB30BEA
:1053C000E40BF50B661F771F881F991F1A9469F766
:1053D00060957095809590959B01AC01BD01CF01C2
:1053E0000895EE0FFF1F0590F491E02D09940E949F
:1053F000172BA59F900DB49F900DA49F800D911D1C
:1054000011240895B7FF0C94F7290E94F729821BF5
:10541000930B0895689401C0E894F92FF12B12F0D2
:105420000C943E2AA0E0B0E0E8E1FAE20C94B02A45
:10543000092E059422F40E949A2A112392F4F0E88E
:105440000F26FFEFE094F09400951095B094C0946F
:10545000D094A194BF0ACF0ADF0AEF0AFF0A0F0B0C
:105460001F0B0E94492A07FC0E949A2ACDB7DEB77B
:10547000ECE00C94CC2A689401C0E8948F929F923F
:10548000CF93DF930E94492ADF91CF919F908F9015
:10549000089588249924F401E401B0E49F93AA2795
:1054A0009A158B049C04ED05FE05CF05D007A107D6
:1054B00098F4AD2FDC2FCF2FFE2FE92D982C892EBD
:1054C000982F872F762F652F542F432F322F222787
:1054D000B85031F7BF9127C01B2EBF91BB27220FB9
:1054E000331F441F551F661F771F881F991F881C75
:1054F000991CEE1FFF1FCC1FDD1FAA1FBB1F8A14A4
:105500009B04EC05FD05CE05DF05A007B10748F0BB
:105510008A189B08EC09FD09CE09DF09A00BB10B25
:1055200021601A94E1F62EF49401AF01BE01CD0181
:10553000000C0895609570958095909530954095F4
:10554000509521953F4F4F4F5F4F6F4F7F4F8F4F7C
:105550009F4F08952F923F924F925F926F927F924A
:105560008F929F92AF92BF92CF92DF92EF92FF9273
:105570000F931F93CF93DF93CDB7DEB7CA1BDB0B1F
:105580000FB6F894DEBF0FBECDBF09942A883988C4
:1055900048885F846E847D848C849B84AA84B984CB
:1055A000C884DF80EE80FD800C811B81AA81B981D7
:1055B000CE0FD11D0FB6F894DEBF0FBECDBFED01EB
:1055C0000895002E083090F0982F872F762F652FA2
:1055D000542F432F322F22270850F4CF220F331F8E
:1055E000441F551F661F771F881F991F0A95B2F722
:1055F000002D089597FD1094002E083098F0085063
:10560000232F342F452F562F672F782F892F912D39
:10561000F4CF159497958795779567955795479506
:10562000379527950A95AAF71124002D0895A29F72
:10563000B001B39FC001A39F700D811D1124911D66
:10564000B29F700D811D1124911D08955058BB27E4
:10565000AA270E943E2B0C948F2C0E94812C38F09C
:105660000E94882C20F039F49F3F19F426F40C9402
:105670007E2C0EF4E095E7FB0C94782CE92F0E9429
:10568000A02C58F3BA17620773078407950720F018
:1056900079F4A6F50C94C22C0EF4E0950B2EBA2FDB
:1056A000A02D0B01B90190010C01CA01A001112428
:1056B000FF27591B99F0593F50F4503E68F11A16D4
:1056C000F040A22F232F342F4427585FF3CF469565
:1056D00037952795A795F0405395C9F77EF41F1687
:1056E000BA0B620B730B840BBAF09150A1F0FF0F51
:1056F000BB1F661F771F881FC2F70EC0BA0F621F3D
:10570000731F841F48F4879577956795B795F7952C
:105710009E3F08F0B0CF9395880F08F09927EE0FC1
:105720009795879508950E94A72B0C948F2C0E9423
:10573000882C58F00E94812C40F029F45F3F29F01A
:105740000C94782C51110C94C32C0C947E2C0E9438
:10575000A02C68F39923B1F3552391F3951B550BB6
:10576000BB27AA2762177307840738F09F5F5F4F34
:10577000220F331F441FAA1FA9F335D00E2E3AF073
:10578000E0E832D091505040E695001CCAF72BD08B
:10579000FE2F29D0660F771F881FBB1F26173707DC
:1057A0004807AB07B0E809F0BB0B802DBF01FF270E
:1057B00093585F4F3AF09E3F510578F00C94782C47
:1057C0000C94C32C5F3FE4F3983ED4F38695779511
:1057D0006795B795F7959F5FC9F7880F911D9695C7
:1057E000879597F90895E1E0660F771F881FBB1F23
:1057F000621773078407BA0720F0621B730B840BD0
:10580000BA0BEE1F88F7E09508950E940C2C68945F
:10581000B1110C94C32C08950E94A82C88F09F57B6
:1058200098F0B92F9927B751B0F0E1F0660F771FC4
:10583000881F991F1AF0BA95C9F714C0B13091F0BA
:105840000E94C22CB1E008950C94C22C672F782FCF
:105850008827B85F39F0B93FCCF38695779567957F
:10586000B395D9F73EF490958095709561957F4FEB
:105870008F4F9F4F0895E89409C097FB3EF4909591
:105880008095709561957F4F8F4F9F4F9923A9F019
:10589000F92F96E9BB279395F695879577956795A8
:1058A000B795F111F8CFFAF4BB0F11F460FF1BC0EC
:1058B0006F5F7F4F8F4F9F4F16C0882311F096E97F
:1058C00011C0772321F09EE8872F762F05C066232D
:1058D00071F096E8862F70E060E02AF09A95660FE6
:1058E000771F881FDAF7880F9695879597F908959F
:1058F00097F99F6780E870E060E008959FEF80EC83
:10590000089500240A941616170618060906089525
:1059100000240A9412161306140605060895092E8B
:105920000394000C11F4882352F0BB0F40F4BF2BFA
:1059300011F460FF04C06F5F7F4F8F4F9F4F08953A
:1059400057FD9058440F551F59F05F3F71F0479530
:10595000880F97FB991F61F09F3F79F08795089515
:10596000121613061406551FF2CF4695F1DF08C034
:10597000161617061806991FF1CF86957105610551
:1059800008940895E894BB2766277727CB0197F9F9
:1059900008950E94DC2C0C948F2C0E94812C38F0EE
:1059A0000E94882C20F0952311F00C94782C0C94F4
:1059B0007E2C11240C94C32C0E94A02C70F3959F74
:1059C000C1F3950F50E0551F629FF001729FBB27F6
:1059D000F00DB11D639FAA27F00DB11DAA1F649F92
:1059E0006627B00DA11D661F829F2227B00DA11D45
:1059F000621F739FB00DA11D621F839FA00D611DCB
:105A0000221F749F3327A00D611D231F849F600DEB
:105A1000211D822F762F6A2F11249F5750409AF014
:105A2000F1F088234AF0EE0FFF1FBB1F661F771FA0
:105A3000881F91505040A9F79E3F510580F00C946B
:105A4000782C0C94C32C5F3FE4F3983ED4F38695F6
:105A500077956795B795F795E7959F5FC1F7FE2B0B
:105A6000880F911D9695879597F908951F93FC01CE
:105A700099278827BC01E89411911032E9F3193075
:105A800010F01E30C8F31B3251F01D3249F46894F7
:105A900006C00E946A2E610F711D811D911D11911A
:105AA00010531A30B0F33EF490958095709561953F
:105AB0007F4F8F4F9F4F1F910895283008F027E0A8
:105AC0003327DA01990F311D87FD9160009661053A
:105AD000710539F432602E5F3D9330E32A95E1F78A
