:100000000C94E0000C94B4090C9408010C940801C1
:100010000C9408010C9408010C9408010C94F70846
:100020000C9408010C9408010C9408010C9408012C
:100030000C9408010C9408010C940A010C9408011A
:100040000C9408010C9408010C9438090C940801D4
:100050000C9408010C9408010C9408010C940801FC
:100060000C9451180C940801A60EB30EB70EBD0ED9
:10007000C30ED80EE10EE80EED0EF30EF30EF30EE6
:10008000F30EF30EF30EF30EF30EF30EF30EF30E68
:10009000F30EF30EF30EF30EF30EF30EF30EF30E58
:1000A000F30EF30EF30EF30EA60EAC0EB30EB70E58
:1000B000BD0EC30EC90ECD0ED20E6E616E00696EFE
:1000C000660000407A10F35A00A0724E1809001022
:1000D000A5D4E80000E87648170000E40B540200BD
:1000E00000CA9A3B000000E1F505000080969800E8
:1000F000000040420F000000A08601000000102711
:1001000000000000E80300000000640000000000A0
:100110000A00000000000100000000002C76D888D2
:10012000DC674F0823DFC1DFAE59E1B1B796E5E3E5
:10013000E453C63AE651997696E8E6C28426EB89FE
:100140008C9B62ED407C6FFCEFBC9C9F40F2BAA59B
:100150006FA5F490055A2AF75C936B6CF9676DC133
:100160001BFCE0E40D47FEF520E6B500D0ED902E37
:100170000300943577050080841E080000204E0A95
:10018000000000C80C333333330F986E12831141D3
:10019000EF8D2114893BE65516CFFEE6DB18D1849E
:1001A0004B381BF77C1D901DA4BBE42420328472C5
:1001B0005E228100C9F124ECA1E53D2777208B2048
:1001C00011241FBECFEFD8E0DEBFCDBF14E0A0E00A
:1001D000B1E0E8ECFFE402C005900D92A23AB1074D
:1001E000D9F727E0A2EAB4E001C01D92A435B20716
:1001F000E1F710E0C0EED0E004C02197FE010E94BC
:10020000FC20CE3DD107C9F70E94D21F0C94E227F3
:100210000C9400001F920F920FB60F9211248F932F
:100220009F93EF93FF938091AB04813019F58091F8
:10023000AA048150E9F48091A7049091A80480FF5A
:1002400002C05E9A01C05E988091A7049091A804B4
:10025000969587959093A8048093A7048091A9040C
:1002600081508093A904811102C01092AB0483E0F5
:100270008093AA048091AD04811152C08091A6049C
:100280008823E9F08091A50481508093A504811111
:1002900047C01092A6041092AC04E091AF04F0E0C5
:1002A0008091A404E055FB4F80838091AF048F5F61
:1002B0008093AF048032A0F11092AF0431C08091DE
:1002C000AC04811110C04C992BC081E08093AC0428
:1002D0001092A40494E09093A50498E09093A30452
:1002E0008093A2041DC08091A5048150B9F480912F
:1002F000A2044C9B05C09091A404982B9093A40455
:10030000880F8093A2048091A30481508093A3045A
:10031000811103C081E08093A60483E08093A5044B
:10032000FF91EF919F918F910F900FBE0F901F90B3
:1003300018951092AB041092AC041092AD045E9A22
:10034000569A54989FB7F89481E287BD82E084BDA5
:1003500085BDEEE6F0E080818260808316BC9FBFA1
:1003600008951092AD04089581E08093AD0408953E
:100370009091AE048091AF049817E1F3E92FF0E07B
:10038000E055FB4F80819F5F903218F49093AE044C
:1003900008951092AE0408959091AF0481E02091E9
:1003A000AE04291301C080E008951092AF041092AA
:1003B000AE0408959091AB0481E0913009F080E0A3
:1003C00008959091AB049130E1F393E09093AA04E7
:1003D0009AE09093A904880F990B92609093A804D7
:1003E0008093A70481E08093AB040895CF93DF93BB
:1003F000EC018991882319F00E94E101FACFDF9185
:10040000CF910895CF93DF93FC018491EF01219662
:10041000882321F00E94E101FE01F7CFDF91CF9107
:100420000895CF93DF93D82FC62F67E084E40E940E
:100430007D088D2F0E94D5058C2F0E94D505C82FD1
:1004400067E084E40E9459088C2FDF91CF910895D2
:1004500060E08F770C9411028AE10E94280240919B
:10046000D2045091D3046091D4047091D504411505
:10047000514A6C4B734310F09DE901C094EA891B0B
:10048000089589E10E94280285958595089583E164
:100490000E9428029091D104891B08950E9447026E
:1004A000882341F08091D1048F5F8093D10480E054
:1004B0000C9428028FEF08958EE10E942802829505
:1004C0008F7008958DE10E94280290E034E09595A8
:1004D00087953A95E1F78A3091057CF4FC01EE0F9F
:1004E000FF1F8E0F9F1FFC01E95FFE4F80819181EE
:1004F000A281BC018A2F90E0089560E271EA87E052
:1005000090E008958F929F92AF92BF92CF92DF9228
:10051000EF92FF9288E20E9428028770C82ED12CA9
:10052000E12CF12CFE2CED2CDC2CCC2489E20E9459
:100530002802C80ED11CE11CF11CFE2CED2CDC2C79
:10054000CC248AE20E942802C80ED11CE11CF11CB6
:1005500088E20E94280283FF03C088E0E81AF108BD
:100560000E9462024B015C01C701B6010E94082390
:1005700020E030E040E85BE40E94942320E034E295
:1005800044EF5BE40E945E226B017C01C501B40173
:100590000E94062320E034E244EF58E40E945E22E9
:1005A0009B01AC01C701B6010E9494230E94D02296
:1005B000FF90EF90DF90CF90BF90AF909F908F9083
:1005C000089580680C94110263E881E80E9411028A
:1005D00082E10E94280283FD07C08FE097E2019725
:1005E000F1F700C00000F4CF68E082E90E94110238
:1005F00081E00895DF92EF92FF920F931F93CF93C4
:10060000DF93F82ED92EC62F82E20E942802D82F1F
:100610008C2F90E08D0F911D8F3F910519F010F0F8
:10062000CD2FC095EF2C0F2D1D2D802F8E198C17DF
:1006300038F4F80161918F0180E80E941102F5CF32
:100640006C2F6D0F82EA0E9411028C2FDF91CF91E7
:100650001F910F91FF90EF90DF900895CF93DF935C
:100660000E944702882371F08DE00E942802D82F53
:1006700080E00E942802C82F6D2F8DE80E94110291
:100680008C2F01C08FEFDF91CF91089561E881E851
:100690000C94110260E881E80C9411020C944A0356
:1006A000823020F0823118F081E101C082E0825076
:1006B000682F606889E80C941102AF92BF92CF92C4
:1006C000DF92EF92FF920F931F93CF93DF9360938C
:1006D000D2047093D3048093D4049093D504DC01A6
:1006E000CB019C01AD0160E070E080E090E003E1AF
:1006F0000E94AB21A12CE8E4BE2EF8EECF2EDD2423
:10070000D394E12CF12C00E010E00E941721C22FBD
:10071000B32E6A017B01182FD92F00E10E94C62158
:10072000622F86E80E9411022C2F3B2DA601B701F3
:10073000812F9D2F08E00E94C621622F87E80E942A
:1007400011026C2F88E8DF91CF911F910F91FF90DC
:10075000EF90DF90CF90BF90AF900C941102CF92AA
:10076000DF92EF92FF92CF936B017C0167E084E40C
:100770000E94350867E084E40E94590862E082E440
:100780000E94350862E082E40E947D088FE097E2D3
:100790000197F1F700C0000062E082E40E9459086E
:1007A0008FE097E20197F1F700C0000085E491E047
:1007B0000E94EE2582E40E942802C82F8BE591E07A
:1007C0000E94EE25C23109F50E944A03C701B60115
:1007D0000E945D0360E08EE80E94110260E08FE8F5
:1007E0000E9411028CE00E942802682F63608CE84E
:1007F0000E94110264E086EA0E94110284E10E94D4
:1008000050030E94460381E001C080E0CF91FF9039
:10081000EF90DF90CF9008950F9300E020E040E04C
:1008200061E080E00E94B00580E791E00E94EE2543
:1008300060EC7AEC89E896E30E94AF03811105C071
:1008400085E891E00E94EE25FFCF8CE991E00F91C1
:100850000C94EE25CF93853028F0C82F893018F0FE
:10086000C8E001C0C5E08DE10E9428026C2F70E055
:1008700064507109660F771F817F682B8DE9CF91D6
:100880000C941102CF93C82F692F80EA0E941102A5
:100890006C2F81EACF910C941102682F89EB0C9494
:1008A00011028EE10E942802682F64608EE90C9488
:1008B00011028EE10E942802682F6B7F8EE90C9452
:1008C00011021092D0048DE10E942802682F6E7FE1
:1008D0008DE90C94110281E08093D0048DE10E9497
:1008E0002802682F61608DE90C941102CF93C82F04
:1008F0000E944603CC2319F00E946B0402C00E94A0
:10090000610460E08DE80E94110260E082EA0E94CA
:10091000110281E0CF9108951F93CF93DF93EC01F3
:10092000162F0E940C0480E00E947604612FCE01F5
:100930000E94FA020E94E402DF91CF911F910C9471
:100940004A03CF93DF93D82F82E10E942802C82F59
:10095000DD2339F00E946B046D2F82EA0E941102A0
:1009600002C00E9461046C2F82E90E941102C6FF3E
:1009700018C0C5FD16C01092D1048091D004882300
:1009800011F082E201C083E10E942802C82F80E1B9
:100990000E942802682F8DE80E9411020E944603DF
:1009A0000FC081E00E942802863841F060E08DE8A7
:1009B0000E94110266E881E80E941102C0E0D0E0C6
:1009C0008C2FDF91CF910895CF93DF93EC01181610
:1009D00019063CF40E946B046C2F82EA0E941102FB
:1009E00002C00E94610465E881E8DF91CF910C9418
:1009F0001102CF92DF92EF92FF92CF93DF930E948A
:100A000062026B017C010E945C02D82F86E20E9488
:100A10002802C82FA701960104C05695479537951F
:100A20002795DA95D2F768EE73E080E090E00E94B7
:100A3000DA206C2F213131054105510510F0686035
:100A400001C0677F86EADF91CF91FF90EF90DF9042
:100A5000CF900C941102CF93C82F863020F08D30A8
:100A600060F4863059F465EC81EB0E9411026CE071
:100A700087EB0E941102C6E009C0CCE063EC81EB79
:100A80000E9411026AE087EB0E9411028EE10E942F
:100A900028028F7090E1C99F90011124682F622B6A
:100AA0008EE90E941102CF910C94F904CF9369371B
:100AB0002EE172078105910590F1613A28E27207F3
:100AC0008105910570F1613F2CE372078105910565
:100AD00050F1613421E572078105910530F16331F0
:100AE0002AE772078105910510F1653E22EA720737
:100AF00081059105F0F0653224EF720781059105BB
:100B0000D0F0693428EE720721E082079105A8F041
:100B10006139704D8340910590F0C9E011C0C0E08B
:100B20000FC0C1E00DC0C2E00BC0C3E009C0C4E00B
:100B300007C0C5E005C0C6E003C0C7E001C0C8E00B
:100B40008DE10E9428028F7090E1C99F90011124CD
:100B5000682F622B8DE90E941102CF910C94F90449
:100B60000F9394B1986294B924982C9A437094E0AE
:100B7000499FA001112423702064422BA62FA1704D
:100B8000B0E094E0AA0FBB1F9A95E1F74A2BE82F3B
:100B9000E170F0E025E0EE0FFF1F2A95E1F7E42B6E
:100BA000ECBD01700DBD0F9108958EBD0DB407FE13
:100BB000FDCF8EB50895BF92CF92DF92EF92FF9254
:100BC0000F931F93CF93DF93EC01BB24B39488E87A
:100BD000C82E83E1D82EE12CF12C02E310E08DA980
:100BE0009EA92BA93CA928173907B9F12CAD2223BE
:100BF00019F0213069F027C0FE01E80FF91F81814B
:100C00008B3711F5BCAEC8AED9AEEAAEFBAE1CC098
:100C1000FE01E80FF91F618189E895E06D3739F42D
:100C20000E94BB1A89E895E00E94591A0CC00E94E4
:100C3000BB1A811108C088AD99ADAAADBBAD892B97
:100C40008A2B8B2B09F41CAE8DA99EA90196B801A5
:100C50000E94C6209EAB8DABC2CFDF91CF911F917A
:100C60000F91FF90EF90DF90CF90BF900895FC011F
:100C700087A9882389F040AD51AD62AD73AD4115B0
:100C800051056105710541F0415051096109710932
:100C900040AF51AF62AF73AF0895CF92DF92FF9232
:100CA0000F931F93CF93DF93EC018091D7048E01B4
:100CB0000E5F1F4F882309F47EC08BE7888383E48F
:100CC00089831F9282E08F938DEB91E09F938F93A6
:100CD0001F930F930E941E26BC016F5F7F4F600F12
:100CE000711FF801E80FF91F3CE2F32EF08287ED47
:100CF00094E00E94220CBC016F5F7F4FFC01F082E8
:100D000087ED94E00E94410CBC016F5F7F4FFC01B6
:100D1000F08287ED94E00E941A126C01FFEFCF1A67
:100D2000DF0AFC01F08210924005809148058F9304
:100D3000809147058F93809146058F93809145055B
:100D40008F9383EB91E09F938F93DF92CF920E94DA
:100D50001E268C010F5F1F4F0C0D1D1DF601E80FA5
:100D6000F91FF0828091E5058F938091E4058F93C0
:100D70008091E7058F938091E6058F938091E90537
:100D80008F938091E8058F9387EB91E09F938F93EA
:100D90001F930F930E941E26F801E80FF91F8DE79D
:100DA000808311828DB79EB748960FB6F8949EBF88
:100DB0000FBE8DBF4AC08BE7888383E489831F926F
:100DC00082E08F938DEB91E09F938F931F930F930E
:100DD0000E941E266801C80ED91E2CE2F22EF601D2
:100DE000F082019660EC71E0800F911F0E94142543
:100DF0008601085F1F4FF601F7828091E5058F930A
:100E00008091E4058F938091E7058F938091E605AB
:100E10008F938091E9058F938091E8058F9387EBFD
:100E200091E09F938F931F930F930E941E26F801CA
:100E3000E80FF91F8DE7808311828DB79EB740962A
:100E40000FB6F8949EBF0FBE8DBFDF93CF9387EC94
:100E500091E09F938F930E94D125FE010190002085
:100E6000E9F73197CF018C1B9D0BEC019F938F937A
:100E70008FED91E09F938F930E94D125EDB7FEB740
:100E800038960FB6F894FEBF0FBEEDBFCE01DF91CE
:100E9000CF911F910F91FF90DF90CF9008950F9306
:100EA0001F93CF93DF93CDB7DEB761970FB6F8945A
:100EB000DEBF0FBECDBF03E110E01E830D8381E0D6
:100EC00090E09C838B831A8219828BE190E0988753
:100ED0008F838CE090E09A87898785E190E09C87FA
:100EE0008B87CE0101960E94C013E3EDF5E017A3B6
:100EF00006A315A214A213A212A210921C0610920D
:100F00001B0683E090E090931A06809319061092D6
:100F100018061092170684E190E090AF87AB16AAEE
:100F200015AA14AA13AA81E08093D60461960FB67D
:100F3000F894DEBF0FBECDBFDF91CF911F910F910F
:100F400008958CE296E00E943706809128069091E1
:100F50002906A0912A06B0912B060097A105B1059C
:100F600059F00197A109B1098093280690932906A9
:100F7000A0932A06B0932B0687ED94E00C940512FB
:100F800080932C0620915F0630916006F901E45DA4
:100F9000F94F8183C9010196823391052CF4909316
:100FA000600680935F0608951092600610925F06B7
:100FB00008950E940C0480E395E7A0E0B0E08093E0
:100FC000280690932906A0932A06B0932B068091B9
:100FD000280690912906A0912A06B0912B06892B0C
:100FE0008A2B8B2BD1F080E00E94A104882379F317
:100FF0008FEB92E00E94EE250E944702882329F0A1
:101000000E944E020E94C007F7CF8CE296E00E9439
:10101000DB058091D6048823D1F20895833479F0DA
:101020008434C1F0823401F524B181E090E001C044
:10103000880F6A95EAF78095822384B9089527B1CD
:1010400081E090E001C0880F6A95EAF780958223DD
:1010500087B908952AB181E090E001C0880F6A95B0
:10106000EAF7809582238AB90895833471F0843435
:10107000B1F08234E9F424B181E090E001C0880F3E
:101080006A95EAF7822B84B9089527B181E090E050
:1010900001C0880F6A95EAF7822B87B908952AB1B3
:1010A00081E090E001C0880F6A95EAF7822B8AB947
:1010B0000895833471F08434B1F08234E9F425B1B9
:1010C00081E090E001C0880F6A95EAF7822B85B92C
:1010D000089528B181E090E001C0880F6A95EAF791
:1010E000822B88B908952BB181E090E001C0880F70
:1010F0006A95EAF7822B8BB90895833479F08434AA
:10110000C1F0823401F525B181E090E001C0880F83
:101110006A95EAF78095822385B9089528B181E020
:1011200090E001C0880F6A95EAF78095822388B91C
:1011300008952BB181E090E001C0880F6A95EAF72D
:10114000809582238BB90895442319F0413019F01A
:1011500008950C947D080C945908833431F084343C
:1011600031F08234B1F423B103C026B101C029B1FA
:1011700081E090E0062E02C0880F991F0A94E2F7E2
:1011800030E08223932302C0959587956A95E2F714
:10119000089581E008950895E1E8F0E0808182609B
:1011A0008083089510928100089580918400209199
:1011B000850090E0922B9695879508951092B20045
:1011C000E0EBF0E08081826080838FE18093B30068
:1011D00017BAE0E7F0E0808182608083E1EBF0E025
:1011E00080818560808308951092B10008951F92D8
:1011F0000F920FB60F9211242F933F934F935F934B
:101200006F937F938F939F93AF93BF93EF93FF93CE
:101210000E94A10717BA80916A0690916B06A0916F
:101220006C06B0916D060196A11DB11D80936A06F2
:1012300090936B06A0936C06B0936D06FF91EF91AF
:10124000BF91AF919F918F917F916F915F914F91DE
:101250003F912F910F900FBE0F901F9018956091A6
:101260006A0670916B0680916C0690916D060895E8
:101270001F920F920FB60F9211242F933F934F930B
:101280005F936F937F938F939F93AF93BF93EF93EE
:10129000FF938091C60080936906809169060E9441
:1012A000C00782E08093C000FF91EF91BF91AF91A2
:1012B0009F918F917F916F915F914F913F912F916E
:1012C0000F900FBE0F901F90189580916E06909111
:1012D0006F0690934D0780934C0789E18093C4007B
:1012E0001092C50088E98093C10082E08093C0001D
:1012F00008959091C00095FFFCCF8093C60008959B
:1013000090910001992329F00E94790980E090E0F2
:10131000089581E090E00895EF92FF920F931F935C
:10132000CF93DF937C018B01EC01CE018E199F09D5
:101330008017910724F489910E947909F6CFC8019A
:10134000DF91CF911F910F91FF90EF90089583B798
:10135000816083BF83B7817F846083BF78948895E1
:1013600083B78E7F83BF08951F920F920FB60F929F
:101370001124E09A0F900FBE0F901F9018950F93B5
:101380001F93CF93DF93EC018B010E94D5089983C3
:1013900088831B830A83DF91CF911F910F9108955A
:1013A000CF93DF93EC010E94D5084A815B81411500
:1013B0005105A9F0288139812817390728F4BC0183
:1013C000621B730B9B0105C0821B930B9C01215078
:1013D000304881E02417350718F480E001C081E02F
:1013E000DF91CF910895FC01108211821382128245
:1013F0001482158216821782108612861186138631
:101400001486158616861786118A108A128A138A00
:10141000148A158A168A108E178A118E128E138ED0
:10142000148E158E12A213A214A215A216A217A230
:1014300010AA11AA12AA13AA14AA15AA16AE17AEB8
:10144000DC01DE9616961D921D921D921C92199734
:101450001E961C9211961C92119716961D921D9223
:101460001D921C9219971E961C9211961C92119710
:1014700016961D921D921D921C9219971E961C92F3
:1014800011961C92119716961D921D921D921C92F8
:1014900019971E961C9211961C92119716961D92E2
:1014A0001D921D921C9219971E961C9211961C92C9
:1014B00011961C92509682E08C9311961C92119674
:1014C0001C9211961C92119611961C921E921296C5
:1014D00011961C921E9212961D921D921D921C92A4
:1014E000139714961D921D921D921C921397149699
:1014F0001D921D921D921C92139714961D921D927F
:101500001D921C92139714961D921D921D921C926F
:101510001397E957FF4F108208952FEB260F862F60
:10152000062E000C990B263010F4C79708956156CB
:10153000663018F4875591090895C0970895FF9271
:101540000F931F93CF93DF93EC01F8802DE2F212FB
:1015500001C02196CE010E9401249B01AC01A4E6AA
:10156000B0E00E940221FE014991242F042E000CBC
:10157000330B205331092A303105A8F34E3241F59F
:101580002181022E000C330B205331092A30310502
:10159000F8F44AE0429F8001439F100D1124012E70
:1015A000000C220B330B600F711F821F931F0281EF
:1015B000002E000C110B005311090A30110540F4E4
:1015C000012E000C220B330B600F711F821F931F23
:1015D0002DE2F21207C090958095709561957F4F2E
:1015E0008F4F9F4FDF91CF911F910F91FF900895E3
:1015F0002F923F924F925F926F927F928F929F9223
:10160000AF92BF92CF92DF92EF92FF920F931F9310
:10161000CF93DF93D82FC92F8B010E94012424E69A
:1016200030E040E050E00E94DA2049015A019B017D
:10163000AC0160E876E988E990E00E9496206B01B1
:101640007C01F80191828082ED2FFC2F2191822F65
:10165000022E000C990BC0970A97C0F32E3239F571
:101660001F0180E8882E86E9982E88E9A82EB12CE3
:101670009AE0492E512C612C712CF101C1911F016E
:101680000C2E000CDD0BE097CA30D10580F4C501AB
:10169000B401A30192010E94DA2049015A01DE013E
:1016A0000E940D21C60ED71EE81EF91EE6CFA5E04A
:1016B000B0E0A70196010E9402216F5F7F4F8F4F1C
:1016C0009F4F23E030E040E050E00E94DA20F80134
:1016D00022833383448355831682DF91CF911F91F8
:1016E0000F91FF90EF90DF90CF90BF90AF909F90C1
:1016F0008F907F906F905F904F903F902F900895C4
:1017000020E030E044E351E40E94F22120E030E0A8
:1017100044EB51E40E945E220E94D022CB0160E1A2
:1017200070E00E94C620FC01EE0FFF1FEB5DFE4F34
:10173000808191810895CF93DF93EC0187E0FE01D2
:101740007096DE01129601900D928A95E1F787E07E
:10175000FE017796DE01199601900D928A95E1F7C8
:101760000E942F096E8F7F8F88A399A381E08983C0
:101770008883DF91CF9108959B01BC01605F7F4F0B
:10178000C9010C94F80A9B01BC01695E7F4FC90135
:101790000C94F80ACF92DF92EF92FF92CF93DF93EF
:1017A000EC0119826C817D818E819F810E940623CC
:1017B00028E23BE64EE65EE40E945E226B017C017D
:1017C0006A817B8180E090E00E9406239B01AC014E
:1017D000C701B6010E94F221288521119058DF919E
:1017E000CF91FF90EF90DF90CF900895CF92DF924E
:1017F000EF92FF92CF93DF93EC0119826B857C858A
:101800008D859E850E94062328E23BE64EE65EE437
:101810000E945E226B017C0169857A8580E090E000
:101820000E9406239B01AC01C701B6010E94F22170
:101830002F8521119058DF91CF91FF90EF90DF908D
:10184000CF900895CF93DF93EB010E94CA0B9F9333
:101850008F937F936F9380ED92E09F938F93DF93AD
:10186000CF930E941E262DB73EB7285F3F4F0FB67D
:10187000F8943EBF0FBE2DBF8C0F9D1FDF91CF91FF
:101880000895CF93DF93EB010E94F60B9F938F9304
:101890007F936F9380ED92E09F938F93DF93CF932D
:1018A0000E941E262DB73EB7285F3F4F0FB6F89413
:1018B0003EBF0FBE2DBF8C0F9D1FDF91CF910895AE
:1018C000CF93DF93EC018E819F81A885B9858A83B0
:1018D0009B83AC83BD830E942F096A877B878C879B
:1018E0009D8781E089838883DF91CF910895CF938D
:1018F000DF93EC018E819F81A885B9858A839B83C4
:10190000AC83BD830E942F096A877B878C879D8764
:1019100081E089838883DF91CF910895CF93DF930E
:10192000EC01CB010E949F0A6E837F838887998791
:10193000DF91CF910895CF93DF93EC01CB010E940B
:1019400001246E837F8388879987DF91CF910895E3
:10195000FC011182628173818481958124E630E0EB
:1019600040E050E00E94DA20CB018053984F089568
:10197000CF92DF92EF92FF92FC011182628173811C
:101980008481958124E6C22ED12CE12CF12CA70173
:1019900096010E94DA20CA01B901A70196010E94AE
:1019A000DA20862FFF90EF90DF90CF900895FC0112
:1019B0001182628173818481958120E137E240E068
:1019C00050E00E94DA20822F0895FC01118262818A
:1019D00073818481958120E432E44FE050E00E94DD
:1019E000DA20822F0895FC01118262817381848143
:1019F000958120E137E240E050E00E94DA20CA0100
:101A0000B90124E630E040E050E00E94DA20862F61
:101A10000895CF92DF92EF92FF92FC0111826281D2
:101A200073818481958124E6C22ED12CE12CF12C86
:101A3000A70196010E94DA20CA01B901A701960107
:101A40000E94DA20862FFF90EF90DF90CF900895CC
:101A5000FC011182628173818481958124E630E0EA
:101A600040E050E00E94DA20862F0895CF93DF9364
:101A7000EC018A859B85AC85BD858E839F83A88775
:101A8000B9870E942F096A837B838C839D8381E0C1
:101A900089838883DF91CF910895CF93DF93EC0101
:101AA000CB010E949F0A6A877B878C879D87DF9185
:101AB000CF910895CF93DF93EC018A859B85AC8508
:101AC000BD858E839F83A887B9870E942F096A836B
:101AD0007B838C839D8381E089838883DF91CF9191
:101AE0000895CF93DF93EC01CB010E9401246A8714
:101AF0007B878C879D87DF91CF910895CF93DF936C
:101B0000EC01BC0140960E9414250E942F0968A395
:101B100079A38AA39BA381E08DA38CA3DF91CF91AE
:101B2000089540E150E00C941B25BF92CF92DF92C4
:101B3000EF92FF920F931F93CF93DF93EC01FC0181
:101B4000EA57FF4FB080BB2009F499C031966081FD
:101B50000E948D0A182FFE01E857FF4F6081CE01C9
:101B60000E948D0A40E1149F800D1124FE01EB5765
:101B7000FF4F9081891374C0B59680819181A281B5
:101B8000B3810196A11DB11D80839183A283B3838C
:101B90008E0107561F4FD8018C91882361F038972A
:101BA00080819181A281B3810196A11DB11D8083A5
:101BB0009183A283B383FE01EA56FF4F808188237D
:101BC000C9F0813089F5CE0182960E94600CCE0169
:101BD000C0960E94770CF8018081882329F1CE01FC
:101BE0000E949B0BCE01CE960E94360DCE01845BE7
:101BF0009F4F18C0CE01C0960E94770CD8018C91DF
:101C0000882341F0CE010E949B0BCE01865A9F4F44
:101C10000E94360DCE0188599F4F0E945A0DCE0169
:101C20008A589F4F0E94360D8E0104561F4FF801AF
:101C3000C081D181209709F407C1D801ED91FC91B1
:101C400066A177A18EA19FA10E940B25892B09F087
:101C5000FBC0CE010E947E0D0AA4DBA5C02DEACFF9
:101C6000CA55DF4F88819981AA81BB810196A11D48
:101C7000B11D88839983AA83BB83B12CE5C07C0105
:101C8000B7E9EB0EF11CF70130818A569F4F6C01CA
:101C90008E0104561F4F31113EC07E0197E8E90EB8
:101CA000F11C65ED72E0C7010E940B25892B39F00C
:101CB0006BED72E0C7010E940B25892B11F481E0C6
:101CC00012C061EE72E0C7010E940B25892B39F02A
:101CD00067EE72E0C7010E940B25892B19F4F6010B
:101CE000108203C082E0D6018C93C656DF4F8881F4
:101CF0009981F80191838083C081D181209709F473
:101D0000A3C0B7018EA19FA10E940B2597FF97C08A
:101D10008AA59BA5EECFDC01EC91E23009F463C00B
:101D2000CE0189579F4FDC012C91222309F45BC01F
:101D3000B0E2EB9FF0011124E32B3197E932F1057A
:101D400008F051C0EC5CFF4F0C94FC20BC01CE01AC
:101D5000C0960E948E0C47C0FE01E756FF4F81E0FF
:101D6000213461F52CC0BE01605F7F4F09C081E066
:101D7000233509F080E08E8B36C0BE01695E7F4F4F
:101D80000E94F80A30C081E0273509F080E08D8F8D
:101D90002AC0BC01CE01CE9624C0BC01CE01845B1A
:101DA0009F4F1FC0BC01CE0182960E949B0C1BC09E
:101DB000FE01E756FF4F81E021330CF480E0808381
:101DC00012C0BC01CE0188599F4F0E94710D0BC0FB
:101DD000BC01CE018A589F4F04C0BC01CE01865A77
:101DE0009F4F0E944D0DF801C080D180C957DF4F31
:101DF000C114D10449F1D801ED91FC9166A177A1FC
:101E0000F60186A197A10E940B25892BE9F4D60142
:101E100098962D913C919997F701808190E08217D7
:101E2000930794F02817390721F4BE01C6010E94D8
:101E3000910DD6019A96CD90DC909B97D9CF892BA6
:101E400019F0D8011D921C928B2DDF91CF911F911B
:101E50000F91FF90EF90DF90CF90BF900895DF92A9
:101E6000EF92FF920F931F93CF93DF939C01FC019E
:101E7000E256FF4F80819181A281B3810196A11D1D
:101E8000B11D80839183A283B383C90188569F4F7C
:101E90007C01E901CA57DF4F643279F12CF46A30D2
:101EA00069F06D30C9F50AC06A3241F06C32A1F5B3
:101EB000F901EB57FF4F808186278083D62E890159
:101EC000F70180818F3050F4F901E80FF11DE957D7
:101ED000FF4F1082C9010E94950D01C080E0F801FA
:101EE000E956FF4F90819F5F9083F701108291E048
:101EF000FAE2DF1290E0988327C0FC011082F9011A
:101F0000E956FF4F108272971082719682E08083AB
:101F100018823396108217C0F70180818E3048F402
:101F200091E0980F9083F901E80FF11DE957FF4FF9
:101F300060838881811107C0F901EB57FF4F9081C1
:101F40006927608301C080E0DF91CF911F910F91DD
:101F5000FF90EF90DF900895AF92BF92CF92DF9203
:101F6000EF92FF920F931F93CF93DF937B015A0160
:101F700069018C0106561F4FF801C081D18120975D
:101F8000A9F06EA17FA1C5010E940B2597FD0EC08F
:101F9000892B29F488A599A5C816D9063CF08E018D
:101FA000065D1F4F0AA4DBA5C02DE9CFF701D3A71B
:101FB000C2A7F801F182E082DF91CF911F910F91CA
:101FC000FF90EF90DF90CF90BF90AF900895CF93A8
:101FD000DF93FC01DB0110A211A212A213A214A232
:101FE00015A257A346A331A720A790E1EF01892F9F
:101FF00019928A95E9F7BF01605F7F4FEB01199253
:102000009A95E9F7BF01CD01DF91CF910C94AC0F08
:102010000C94E70F2FE789EA93E02150804090402D
:10202000E1F700C0000040E063E084E40E94A408FF
:1020300087EB98E80197F1F700C0000041E063E00A
:1020400084E40E94A40887EB98E80197F1F700C0A8
:10205000000040E063E084E40E94A40887EB98E875
:102060000197F1F700C000008DEE92E00C94EE2590
:1020700040E063E084E40C94A40841E063E084E47D
:102080000C94A4080E9499010E94B10178940895CB
:102090001F93CF93DF93EC01162F0E94421063E051
:1020A00084E40E94590863E084E40E943508CC5718
:1020B000DF4F1883DF91CF911F910895EF92FF9228
:1020C0000F931F93CF93DF93EC018FEF92E09F93D9
:1020D0008F930E94D1250F900F908881882309F15A
:1020E000CE010E94F60B162F072FF82EE92ECE01F7
:1020F0000E94CA0BEF92FF920F931F939F938F93AF
:102100007F936F938AE093E09F938F930E94D125F2
:102110008DB79EB70A960FB6F8949EBF0FBE8DBFBF
:1021200004C085E193E00E94EE258EE193E09F9349
:102130008F930E94D1250F900F908AA1882359F187
:102140008E010E5D1F4FC8010E94A80CF82EE92ECB
:10215000C8010E94B80C1BA2EF92FF921F928F93AE
:102160006CA17DA18EA19FA120E137E240E050E06B
:102170000E94DA201F922F938AE293E09F938F931D
:102180000E94D1258DB79EB708960FB6F8949EBFD2
:102190000FBE8DBF04C08DE393E00E94EE2588A999
:1021A000882309F484C019AA6AA97BA98CA99DA9CE
:1021B00020E432E44FE050E00E94DA202A3020F49C
:1021C00080E390E00E94E72519AA6AA97BA98CA95F
:1021D0009DA920E432E44FE050E00E94DA201F92F3
:1021E0002F9387E493E09F938F930E94D1258E01D4
:1021F000005D1F4FC8010E94F30C0F900F900F90CD
:102200000F908A3020F480E390E00E94E725C80117
:102210000E94F30C1F928F9387E493E09F938F9318
:102220000E94D125C8010E94090D0F900F900F90B8
:102230000F908A3020F480E390E00E94E725C801E7
:102240000E94090D1F928F938DEB91E09F938F93C6
:102250000E94D12519AA6AA97BA98CA99DA924E667
:1022600030E040E050E00E94DA200F900F900F9095
:102270000F906A3020F480E390E00E94E72519AACD
:102280006AA97BA98CA99DA924E630E040E050E032
:102290000E94DA207F936F9380E694E09F938F9360
:1022A0000E94D1250F900F900F900F9004C085E1F0
:1022B00093E00E94EE258DEB92E0DF91CF911F918C
:1022C0000F91FF90EF900C94EE25BF92CF92DF928A
:1022D000EF92FF920F931F93CF93DF93EC018C014A
:1022E00002551F4F80E197E2A0E0B0E0F801808343
:1022F0009183A283B3831F921F9287E28F9380E121
:102300008F938DE493E09F938F930E94D125CE010C
:102310000E940A1018820F900F900F900F900F904C
:102320000F9080E1C82E87E2D82EE12CF12CBB243F
:10233000B394F80180819181A281B381892B8A2B8A
:102340008B2B09F444C00E94CC01882331F00E94F9
:10235000B801682FCE010E942F0FF8018081918172
:10236000A281B3818C159D05AE05BF0560F4BB202D
:1023700051F0CE010E945E10F0EDCF1AF7E0DF0AB7
:10238000E108F108B12CF80180819181A281B3812B
:10239000C816D906EA06FB0610F4BB24B3942881BC
:1023A000222339F2BF93AF939F938F9386E693E0F6
:1023B0009F938F930E94D125CE010E940A100F9007
:1023C0000F900F900F900F900F9081E014C01F920C
:1023D0001F921F921F9286E993E09F938F930E9412
:1023E000D125CE010E940A100F900F900F900F90F0
:1023F0000F900F9080E0DF91CF911F910F91FF9090
:10240000EF90DF90CF90BF900895FC01E255FF4F11
:1024100040815181628173814115510561057105CA
:1024200041F0415051096109710940835183628330
:1024300073830895CF93DF93EB01FC01EA58FF4FBC
:10244000118266817781808591850E9408239F9300
:102450008F937F936F9387EC93E09F938F93DF939A
:10246000CF930E941E262DB73EB7285F3F4F0FB671
:10247000F8943EBF0FBE2DBF8C0F9D1FDF91CF91F3
:1024800008956AE00E94A62020E1829F900D112409
:10249000892F0895982F92959F708F702AE0929FB0
:1024A000800D11240895CF93C82F88E60E94D0197B
:1024B0008C2F0E94EA190E94DA1961E088E60E94D6
:1024C000C319CF910C943D1ACF93DF93C82FD62F09
:1024D00088E60E94D0198D2F0E94EA198C2F0E9445
:1024E000EA19DF91CF910C94DA19CF93DF9381E150
:1024F0000E945312D82F82E10E945312C82F61E12B
:102500008EEE0E94641262E18DED0E94641281E100
:102510000E9453128E3E29F482E10E9453128D3D97
:1025200031F081E080938106DF91CF91089581E0C1
:102530008093820661E18D2F0E94641262E18C2FEC
:10254000DF91CF910C94641262E084E40E940E0843
:1025500062E084E40E945908E9E6F0E0808182604C
:102560008083E89A789408958091820608958091F6
:102570008106089581E08093820610928106089575
:102580001092820681E0809381060895EF92FF9277
:102590000F931F93CF93DF93CDB7DEB729970FB675
:1025A000F894DEBF0FBECDBF88E60E94D01980E050
:1025B0000E94EA190E94DA1967E088E60E94C319AE
:1025C0008E010F5F1F4F7E0188E0E80EF11C0E9414
:1025D0003D1AF80181938F01EE15FF05C1F70E94A6
:1025E000DA1989818F770E944A1290E090937106E0
:1025F000809370068A810E944A1290E0909373063D
:10260000809372068B810E944A12082F10E010936B
:102610007506009374068D810E944A1290E0909393
:10262000770680937606FE808F2D8F710E944A1266
:1026300090E090937906809378068F81F7FE06C02C
:102640000E944A1290E08053984F05C00E944A129F
:1026500090E08459984F90937B0680937A068C8102
:102660000E944A1290E090937D0680937C060115AB
:10267000110529F41092800610927F0607C00C30D5
:10268000110544F41093800600937F0681E0809347
:102690007E0608C00C5011091093800600937F0637
:1026A00010927E0680E796E029960FB6F894DEBF7A
:1026B0000FBECDBFDF91CF911F910F91FF90EF9093
:1026C00008958F929F92AF92BF92CF92DF92EF9236
:1026D000FF920F931F93CF93DF93CDB7DEB7299768
:1026E0000FB6F894DEBF0FBECDBF7C016B015A015F
:1026F00088E60E94D01980E00E94EA190E94DA1947
:1027000067E088E60E94C3198E010F5F1F4F4E01DC
:1027100088E0880E911C0E943D1AF80181938F0178
:10272000E815F905C1F70E94DA19A114B10429F0DE
:1027300089810E944A12F5018083C114D10429F0D5
:102740008A810E944A12F6018083E114F10429F083
:102750008B810E944A12F701808329960FB6F89464
:10276000DEBF0FBECDBFDF91CF911F910F91FF90C4
:10277000EF90DF90CF90BF90AF909F908F90089593
:102780001F93CF93DF93EC0188E60E94D01980E07D
:102790000E94EA198A859B85813D27E0920734F0E3
:1027A000805D97409B878A8710E805C08C569740CC
:1027B0009B878A8710E088810E9441120E94EA1953
:1027C0008A810E9441120E94EA198C810E94411262
:1027D0000E94EA198C850E9441120E94EA198E819A
:1027E0000E9441120E94EA1988850E944112810FBD
:1027F0000E94EA198A850E9441120E94EA19DF911B
:10280000CF911F910C94DA191F93CF93DF93C82FA8
:10281000D62F142F88E60E94D01980E00E94EA1972
:10282000812F0E9441120E94EA198D2F0E944112AD
:102830000E94EA198C2F0E9441120E94EA19DF912E
:10284000CF911F910C94DA19CF9390918106911139
:102850000DC0C82F80E00E945312CC2311F08F7757
:1028600001C0806860E0CF910C946412CF9108950C
:1028700080918106811106C00E9453128095881FA5
:102880008827881F0895FF920F931F93CF93DF939C
:10289000FC011082FB01108220918206211122C0CE
:1028A000EB018C0188E60E94D01981E10E94EA19AF
:1028B0000E94DA1962E088E60E94C3190E94371A62
:1028C000882381F00E943D1AF82E0E943D1AF801DB
:1028D000F082829586958695837099E1899F802DF7
:1028E00011248883DF91CF911F910F91FF9008955C
:1028F000CF93DF939091820691112EC0C82F88E666
:102900000E94D0198EE00E94EA190E94DA1961E053
:1029100088E60E94C3190E943D1AD82F88E60E94BB
:10292000D0198EE00E94EA198D2F80620E94EA1968
:102930000E94DA19CC2381F088E60E94D0198EE03B
:102940000E94EA190E94DA1961E088E60E94C31920
:102950000E943D1A85FDF0CFDF91CF910895CF936E
:10296000C82F88E60E94D01988E08C0F0E94EA19CF
:102970000E94DA1961E088E60E94C319CF910C9495
:102980003D1A0F931F93CF938C01C0E08C2F0E94B0
:10299000AF14F80181938F01CF5FC833B9F7CF919E
:1029A0001F910F910895CF93DF93C82FD62F88E6FC
:1029B0000E94D01988E08D0F0E94EA198C2F0E9486
:1029C000EA19DF91CF910C94DA190F931F93CF93EB
:1029D0008C01C0E06C2FF80181918F010E94D3140B
:1029E000CF5FC833B9F7CF911F910F910895CF935F
:1029F000C82F809182068823D1F088E60E94D019E2
:102A000087E00E94EA190E94DA1961E088E60E94D4
:102A1000C3190E943D1ACC2319F0C82FC06102C00F
:102A2000C82FCF7E88E60E94D01987E01AC088E6BA
:102A30000E94D0198EE00E94EA190E94DA1961E022
:102A400088E60E94C3190E943D1ACC2321F0C82FAA
:102A5000CB7FC06402C0C82FCF7B88E60E94D0190C
:102A60008EE00E94EA198C2F0E94EA19CF910C94F3
:102A7000DA19CF93DF93EC01809182068823A9F0C5
:102A800088E60E94D01987E00E94EA190E94DA19AC
:102A900061E088E60E94C3190E943D1A8C7FC82B12
:102AA00088E60E94D01987E019C088E60E94D019F4
:102AB0008EE00E94EA190E94DA1961E088E60E941D
:102AC000C3190E943D1A94E0CC0FDD1F9A95E1F7DF
:102AD000877EC82B88E60E94D0198EE00E94EA19F2
:102AE0008C2F0E94EA19DF91CF910C94DA19CF93C1
:102AF00090918106992311F1C82F88E60E94D01980
:102B00008FE00E94EA190E94DA1961E088E60E94CB
:102B1000C3190E943D1ACC2319F0C82FC86002C007
:102B2000C82FC77F88E60E94D0198FE00E94EA195B
:102B30008C2F0E94EA19CF910C94DA19CF91089545
:102B400080918206882361F060E080E00E94D314C7
:102B500061E080E00E94D31462E080E00C94D31422
:102B600067E080E00E94641268E080E00E946412E6
:102B700069E080E00E9464126AE080E00C946412D4
:102B80001F93CF93DF93883108F057C06C3308F060
:102B900054C04C3308F051C0142FD62FC82F809149
:102BA0008206882379F060E08C2F0E94D31461E0C4
:102BB0008D2F0E94D31462E0812FDF91CF911F915E
:102BC0000C94D314842F0E94411267E00E94641277
:102BD0008D2F0E94411268E00E9464128C2F0E9487
:102BE000411269E00E9464126AE081E80E94641266
:102BF0008FE00E9453126FE08E7F0E94641288E67D
:102C00000E94D0198EE00E94EA190E94DA1961E050
:102C100088E60E94C3190E943D1AC82F88E60E94C8
:102C2000D0198EE00E94EA198C2F81600E94EA1967
:102C3000DF91CF911F910C94DA19DF91CF911F9101
:102C40000895FC01892B29F04081628184810C94D4
:102C5000C0150895EF92FF920F931F93CF93DF93C8
:102C6000EC018B017A01809182068823B9F02097CC
:102C700021F080E00E94AF1488830115110529F02E
:102C800081E00E94AF14F8018083E114F104E9F0BF
:102C900082E00E94AF14F701808317C087E00E9492
:102CA00053128F770E944A12F701808388E00E94B6
:102CB00053128F770E944A12F801808389E00E94A4
:102CC00053128F770E944A128883DF91CF911F9110
:102CD0000F91FF90EF900895CF93DF9300D01F9254
:102CE000CDB7DEB7AE014F5F5F4FBE016E5F7F4F66
:102CF000CE0103960E942A16E0E7F6E08B8190E071
:102D0000958384838A8190E093838283898190E094
:102D100091838083CF010F900F900F90DF91CF911F
:102D20000895FF920F931F93CF93DF9300D01F92CC
:102D3000CDB7DEB780918206882311F180E00E9432
:102D4000AF14F82E81E00E94AF14082F82E00E9499
:102D5000AF14182FAE014F5F5F4FBE016E5F7F4F04
:102D6000CE0103960E9461138B81F81207C08A81FD
:102D7000081304C081E09981911771F080E00CC0C4
:102D80008FE00E945312182F117080FF04C06FE073
:102D90008E7F0E946412812F0F900F900F90DF9111
:102DA000CF911F910F91FF900895CF93DF93FC0176
:102DB000DB0186A197A127A930AD14964D915C91B6
:102DC0001597821793076CF028173907F4F08217CC
:102DD000930739F4C4A1D5A165A976A96C177D071D
:102DE000A4F0481759071CF0421753079CF024170A
:102DF000350791F481E012964D915C91139725A9C6
:102E000036A9421753074CF007C04817590764F317
:102E100057FFEDCF81E001C080E0DF91CF910895B1
:102E20000F931F93CF93DF93FC01EB01DC01A85BB1
:102E3000BF4F2C813D818D919C91820F931F68E142
:102E400070E00E94C6209C0195838483DF01AA5B09
:102E5000BF4F0D911C918A819B81800F911F6CE364
:102E600070E00E94C620938382834A815B81400F79
:102E7000511F4D3351059CF001968C33910519F08B
:102E8000938382830CC0138212822F5F3F4F2831BD
:102E9000310519F03583248302C015821482DF9135
:102EA000CF911F910F910895CF93DF93EC01BC0157
:102EB0006F5E7F4F0E941017BE01CE010E94D51693
:102EC00040E0882379F06A818C810E94C0158B8153
:102ED0008F938A818F938D818F938C818F9380EFD5
:102EE00093E00EC06CA18EA10E94C0158DA18F939E
:102EF0008CA18F938FA18F938EA18F938AE294E000
:102F00009F938F930E94D1250F900F900F900F9059
:102F10000F900F90DF91CF9108951092EE06449A92
:102F2000459AE9EBF0E080818E7F808380818D7F00
:102F300080838CE08093B80085E48093BC00789413
:102F40000895880F8093BA000895413258F5909102
:102F5000EE069111FCCF91E09093EE069FEF9093D7
:102F600083061092C806940F9093C706880F81605D
:102F70008093ED0685EE8093BC008091EE06813053
:102F8000E1F38091C806841710F44091C806A9ECBB
:102F9000B6E0962FFB018E2F891B841728F48D91A4
:102FA0008193F9CF80E00895842F0895413248F548
:102FB0009091EE069111FCCF32E03093EE063FEF98
:102FC000309383061092C8064093C706562FA9EC8B
:102FD000B6E0FB013E2F351B341718F431913D93B9
:102FE000F9CF482F50E0440F551F4093ED0685EE72
:102FF0008093BC00222339F08091EE06823019F4D0
:10300000F9CF91E011C0809183068F3F69F08091E4
:103010008306803231F080918306803321F094E082
:1030200003C092E001C093E0892F0895613288F4D3
:103030002091EE06243079F46093A506282FA7EAA4
:10304000B6E0FC018E2F821B861738F481918D9398
:10305000F9CF81E0089582E0089580E0089590938B
:10306000EA068093E90608959093EC068093EB06B8
:103070000895882311F085EC01C085E88093BC0099
:10308000089585ED8093BC008091BC0084FDFCCF49
:103090001092EE06089585EC8093BC001092EE0627
:1030A00008951F920F920FB60F9211242F933F9302
:1030B0004F935F936F937F938F939F93AF93BF9340
:1030C000EF93FF938091B900887F803609F495C013
:1030D00068F5883209F45BC090F4803109F454C07B
:1030E00038F4882309F4EEC0883009F44DC0EEC0EE
:1030F000883109F44CC0803209F45EC0E7C08034E6
:1031000009F469C048F4803309F456C0883309F0E3
:10311000DDC080938306A1C0803509F450C0883596
:1031200009F45EC0883409F0D1C0CEC0883909F4F2
:10313000BFC0A8F4883709F460C038F4883609F4B1
:103140005CC0803709F459C0C1C0883809F4B0C0E8
:10315000803909F458C0803809F0B8C054C0803BA9
:1031600009F47EC038F4803A09F45FC0883A09F463
:1031700077C0ACC0803C09F49FC0883C09F49CC077
:10318000883B09F482C0A2C08091ED0611C09091E5
:10319000C8068091C706981708F096C0E091C80647
:1031A00081E08E0F8093C806F0E0E753F94F8081ED
:1031B0008093BB0085EC7DC08093830685C0E09141
:1031C000C80681E08E0F8093C8068091BB00F0E0B6
:1031D000E753F94F80839091C8068091C70665C078
:1031E000E091C80681E08E0F8093C8068091BB00F5
:1031F000F0E0E753F94F808367C083E08093EE06E9
:1032000010928406D7CF80918406803208F050C097
:10321000E091840681E08E0F809384068091BB004C
:10322000F0E0EB57F94F8083C5CF80918406803260
:1032300030F4E0918406F0E0EB57F94F10820E94E1
:1032400041186091840670E0E091E906F091EA0689
:1032500085E896E00995109284060E944B1836C0C6
:1032600084E08093EE061092A6061092A506E091E7
:10327000EB06F091EC0609958091A506811105C039
:1032800081E08093A5061092A706E091A60681E052
:103290008E0F8093A606F0E0E955F94F8081809368
:1032A000BB009091A6068091A506981708F482CFDE
:1032B00085E88093BC000AC085EC8093BC00109226
:1032C000EE0604C0109283060E944118FF91EF9110
:1032D000BF91AF919F918F917F916F915F914F912E
:1032E0003F912F910F900FBE0F901F901895CF9385
:1032F000DF93EC01E091EF06F091F0063097F1F0EA
:1033000090911807809117079817C0F090E0292F27
:1033100030E02617370754F4DE01A20FB31F4C919B
:10332000D901A75EB84F4C939F5FF1CF1092180759
:1033300060931707CB01DF91CF910994DF91CF9173
:103340000895E091F106F091F206309729F010927D
:10335000F5061092F4060994089510921807109239
:1033600017071092F5061092F4060C948D170E9420
:10337000A11781EA99E10E94341887E799E10E9438
:103380002F180C94AD19462F613208F040E269E124
:1033900077E00E94A51710921807809317070895E9
:1033A00091E09093F306809316071092F506109221
:1033B000F406089521E04091F40666EF76E08091EE
:1033C00016070E94D6171092F5061092F406109276
:1033D000F3060895CF93DF931F92CDB7DEB78983AD
:1033E0008091F306882391F08091F406803298F45E
:1033F0008091F506E82FF0E0EA50F94F998190832B
:103400008F5F8093F5068093F40605C061E0CE01DE
:1034100001960E9416180F90DF91CF9108950F9397
:103420001F93CF93DF932091F306222359F0EC01F1
:103430008C01060F111DC017D10751F089910E9410
:10344000EA19F9CFDF91CF911F910F910C941618C3
:10345000DF91CF911F910F910895FC010190002001
:10346000E9F73197BF01681B790B0C940F1A809113
:10347000170790911807891B08959091180780915C
:103480001707981748F4E92FF0E0E75EF84F8081BE
:103490009F5F90931807089580E008959093F00639
:1034A0008093EF0608959093F2068093F1060895B5
:1034B0000895CF93DF93CDB7DEB761970FB6F89439
:1034C000DEBF0FBECDBFFC0181E090E0978B868B05
:1034D000848995894197C1F581818235A9F58481D7
:1034E000082E000C990BC0979E838D838781082E30
:1034F000000C990BC0979C838B838285082E000C4F
:10350000990BC0979A8389838585082E000C990BA7
:10351000C09798878F838089082E000C990BC097DD
:103520009A87898783E190E0978B868B8389082E21
:10353000000C990BC0979C878B87CE0101960E9447
:10354000C01381E08093D60461960FB6F894DEBF75
:103550000FBECDBFDF91CF910895FC01248935893D
:103560002331310534F42F5F3F4F358B248B80E0BE
:10357000089581E00895DC015496ED91FC915597F2
:10358000E80FF91F60830C94AD1AFC01158A148AA8
:103590000C94BB1AFC0126893789620F731F6431B2
:1035A000710524F4778B668B80E0089581E008959F
:1035B000CF93DF9381E280937C0086E880937A004A
:1035C00087EE93E00197F1F700C0000080917A0048
:1035D000806480937A0080917A0086FDFCCF87EE2C
:1035E00093E00197F1F700C0000080917A008064B9
:1035F00080937A0080917A0086FDFCCFC09178009C
:1036000080917900D0E0D82BCE011F921F929F931A
:103610008F9385E694E09F938F930E94D1258091AC
:103620007A008F7780937A0080E09CE2BE010E944E
:10363000B220862F6AE00E94A620682F70E080E00A
:1036400090E00E9408230F900F900F900F900F9022
:103650000F90DF91CF910895AF92BF92CF92DF92FA
:10366000EF92FF920F931F93CF93DF93D42EC52E2B
:10367000B62EA72EE9012BE7FC0120837C01F2E0A6
:10368000EF0EF11C23E4FC0121831F9282E08F9353
:103690008DEB91E09F938F93FF92EF920E941E26F5
:1036A0008C010F5F1F4F0E0D1F1DF701E80FF91F53
:1036B0008CE2F82EF08289818F9388818F938B81A1
:1036C0008F938A818F938D818F938C818F9387EBDA
:1036D00091E09F938F931F930F930E941E26EC01FE
:1036E0002196C00FD11FF801E80FF91FF082AF92A9
:1036F000BF92CF92DF9280E794E09F938F93DF9306
:10370000CF930E941E26C80FD91F8DE78883198288
:103710008DB79EB748960FB6F8949EBF0FBE8DBF6B
:10372000DF91CF911F910F91FF90EF90DF90CF909D
:10373000BF90AF9008950895E9E3F7E083E190E04A
:103740009583848383E090E0938382831182108247
:103750008BE190E0978386838CE090E0918780876F
:1037600085E190E0938782870895FC01208531856B
:103770008091410790914207821793070CF446C04D
:10378000281739070CF440C028173907E1F52681BE
:10379000378180913F079091400782179307B4F1DA
:1037A000281739078CF12817390769F524813581E5
:1037B00080913D0790913E07821793073CF12817AF
:1037C000390714F128173907F1F4228133818091E8
:1037D0003B0790913C0782179307C4F028173907DD
:1037E0009CF02817390779F42081318180913907BD
:1037F00090913A07821793074CF02817390724F065
:103800002817390719F0089580E0089581E0089598
:10381000CF92DF92EF92FF920F931F93CF93DF939C
:10382000CDB7DEB764970FB6F894DEBF0FBECDBF3D
:103830000E94D81A6B017C010E949C1B0E94C61238
:103840008C010E94B51B882309F185E794E00E9452
:10385000EE259801B701A6018E010F5F1F4FC80129
:103860000E942C1BF82E1F930F9383E994E09F93E3
:103870008F930E94D1256F2DC8010E948C040F9058
:103880000F900F900F900E94A709FDCF64960FB67E
:10389000F894DEBF0FBECDBFDF91CF911F910F9186
:1038A000FF90EF90DF90CF900895A0E1B0E0EBE5BE
:1038B000FCE10C9474217C011B016A01FC0117825C
:1038C0001682838181FF44C39E012F5F3F4F3901E0
:1038D000F7019381F10193FD859193FF81911F0180
:1038E000882309F431C3853239F493FD859193FF20
:1038F00081911F01853239F4B70190E00E9495252E
:1039000056016501E5CF10E0512C912CFFE1F9152E
:10391000D8F08B3279F038F4803279F08332A1F428
:10392000F92DF0612EC08D3261F0803369F4292DBC
:1039300021602DC0392D3260932E892D8460982E00
:103940002AC0E92DE86015C097FC2DC020ED280F96
:103950002A3088F496FE06C03AE0139F200D112409
:10396000122F19C08AE0589E200D1124522EE92DE5
:10397000E0629E2E10C08E3231F496FCE5C2F92D25
:10398000F0649F2E08C08C3621F4292D2068922ED9
:1039900002C0883641F4F10193FD859193FF819136
:1039A0001F018111B3CF9BEB980F933020F4992D19
:1039B0009061805E07C09BE9980F933008F066C164
:1039C000992D9F7E96FF16E09F73992E853619F4E8
:1039D0009064992E08C0863621F4392F3068932ED2
:1039E00002C01111115097FE07C01C3350F444243B
:1039F0004394410E27E00BC0183038F027E017E061
:103A000005C027E09CE3492E02C0212F412C56011E
:103A100084E0A80EB11CF6016081718182819381DE
:103A2000042DA3010E9428246C01F981FC87F0FF7A
:103A300002C0F3FF06C091FC06C092FE06C000E281
:103A400005C00DE203C00BE201C000E08C858C7064
:103A500019F001115AC29BC297FE10C04C0CFC8594
:103A6000F4FF04C08A81813309F44A94141474F574
:103A700028E0241578F588E0482E2CC096FC2AC052
:103A8000812F90E08C159D059CF03CEFC3163FEF15
:103A9000D30674F0892D8068982E0AC0E2E0F0E029
:103AA000EC0FFD1FE10FF11D8081803319F41150DF
:103AB0001111F4CF97FE0EC044244394410E812F80
:103AC00090E0C816D9062CF41C1904C04424439471
:103AD00001C010E097FE06C01C141D0434F4C6019A
:103AE000019605C085E090E002C081E090E0011100
:103AF0000196112331F0212F30E02F5F3F4F820FCD
:103B0000931F252D30E08217930714F4581A01C033
:103B1000512C892D897049F4552039F0B70180E284
:103B200090E00E9495255A94F7CF002329F0B70121
:103B3000802F90E00E94952593FC09C0552039F014
:103B4000B70180E390E00E9495255A94F7CF97FE45
:103B50004CC04601D7FE02C0812C912CC6018819A9
:103B60009909F301E80FF91FFE87ED8796012419E3
:103B70003109388B2F87012F10E01195019511091C
:103B80003FEF8316930629F4B7018EE290E00E947E
:103B90009525C814D9044CF08F8598898815990506
:103BA00024F4ED85FE85818101C080E3F1E08F1A68
:103BB00091082D853E852F5F3F4F3E872D878016CC
:103BC00091062CF0B70190E00E949525D9CFC8143A
:103BD000D90441F49A81963320F4953319F43C8545
:103BE00034FF81E3B70190E04EC08A81813319F040
:103BF0009C859F7E9C87B70190E00E9495251111BE
:103C000005C094FC18C085E690E017C0B7018EE2AD
:103C100090E00E9495251E5F82E001E0080FF3010D
:103C2000E80FF11D8081B70190E00E949525802F5B
:103C30000113F3CFE6CF85E490E0B7010E9495250C
:103C4000D7FC06C0C114D10441F4EC85E4FF05C0E3
:103C5000D194C194D1088DE201C08BE2B70190E00C
:103C60000E94952580E32AE0C216D1042CF08F5FD4
:103C7000FAE0CF1AD108F7CFB70190E00E9495255E
:103C8000B701C601C0960E94952554C1833631F014
:103C9000833779F0833509F056C020C0560132E0F1
:103CA000A30EB11CF6018081898301E010E063015D
:103CB00012C05601F2E0AF0EB11CF601C080D180F7
:103CC00096FE03C0612F70E002C06FEF7FEFC60168
:103CD0000E942A258C01F92DFF7714C0560122E09D
:103CE000A20EB11CF601C080D18096FE03C0612FE8
:103CF00070E002C06FEF7FEFC6010E9400258C01CB
:103D0000F92DF0689F2EF3FD1AC0852D90E008175D
:103D10001907A8F4B70180E290E00E9495255A9413
:103D2000F4CFF60197FC859197FE81916F01B70161
:103D300090E00E94952551105A94015011090115E7
:103D4000110579F7F7C0843611F0893661F556010F
:103D500097FE09C024E0A20EB11CF60160817181BA
:103D6000828193810AC0F2E0AF0EB11CF60160813E
:103D70007181072E000C880B990BF92DFF769F2E71
:103D800097FF09C090958095709561957F4F8F4FF3
:103D90009F4FF0689F2E2AE030E0A3010E9440264A
:103DA000C82EC6183FC0092D853721F40F7E2AE0A2
:103DB00030E01DC0097F8F3691F018F4883559F036
:103DC000C3C0803719F0883711F0BEC0006104FF0E
:103DD00009C0046007C094FE08C0066006C028E061
:103DE00030E005C020E130E002C020E132E05601C1
:103DF00007FF09C084E0A80EB11CF6016081718143
:103E00008281938108C0F2E0AF0EB11CF60160819F
:103E1000718180E090E0A3010E944026C82EC61860
:103E20000F77902E96FE0BC0092D0E7FC11650F411
:103E300094FE0AC092FC08C0092D0E7E05C0DC2C41
:103E4000092D03C0DC2C01C0D12E04FF0DC0FE01E2
:103E5000EC0DF11D8081803311F4097E09C002FF51
:103E600006C0D394D39404C0802F867809F0D394ED
:103E700003FD11C000FF06C01C2DD51480F4150DE4
:103E80001D190DC0D51458F4B70180E290E00E94CE
:103E90009525D394F7CFD51410F45D1801C0512C9B
:103EA00004FF10C0B70180E390E00E94952502FF57
:103EB00017C001FD03C088E790E002C088E590E0EC
:103EC000B7010CC0802F867859F001FF02C08BE249
:103ED00001C080E207FD8DE2B70190E00E949525C8
:103EE000C11638F4B70180E390E00E949525115087
:103EF000F7CFCA94F301EC0DF11D8081B70190E07A
:103F00000E949525C110F5CF15C0F4E0F51560F5B8
:103F100084E0581A93FE1FC0011127C02C8523FF8F
:103F20002AC00AEB10E0392D3071932EF8018491EC
:103F3000811124C0552009F4E4CCB70180E290E05F
:103F40000E9495255A94F6CFF7018681978126C065
:103F50008FEF9FEF23C0B70180E290E00E9495258C
:103F60005A945110F8CFD8CF512CB701802F90E040
:103F70000E949525D3CF0EEB10E0D5CF9110805243
:103F8000B70190E00E9495250F5F1F4FCFCF23E030
:103F9000251510F483E0BDCF512CC0CF6096E2E12F
:103FA0000C9490210E94650980EF91E00E94EE251B
:103FB0000E94AD190E94751260E087ED94E00E94A6
:103FC00048108DE092E00E94EE250E944F0705E226
:103FD00012E0CBE7D2E00E94DE080E94AD190E94F9
:103FE000A41244EE55E066EE75E088EE95E00E947E
:103FF00061138091E5058F938091E4058F93809103
:10400000E7058F938091E6058F938091E9058F9363
:104010008091E8058F931F930F930E94D1258DB750
:104020009EB708960FB6F8949EBF0FBE8DBF8091C5
:10403000E8059091E905892B71F48091E60590914E
:10404000E705892B41F48091E4059091E505892BE2
:1040500011F41092D6048091D604811104C087E433
:1040600092E00E94EE2587ED94E00E94651187EDB5
:1040700094E00E945E1081EA95E00E944D06682F50
:1040800081EA95E00E948C0483ED95E00E9454172C
:1040900044EE55E066EE75E088EE95E00E9461130F
:1040A0008091E5058F938091E4058F938091E705DA
:1040B0008F938091E6058F938091E9058F9380918E
:1040C000E8058F93DF93CF930E94D1250E94F408D7
:1040D00082EA92E00E94EE250E94A7098DB79EB762
:1040E00008960FB6F8949EBF0FBE8DBF74CFECE25A
:1040F000F6E014AA13AA16AA15AA81E087AB10AE9F
:1041000011AE12AE13AE1092A00510929F0587ED6E
:1041100094E00C94F30960E070E080E899E00E947C
:104120004A2590936F0680936E060895DB018F9366
:104130009F930E940221BF91AF91A29F800D911D7C
:10414000A39F900DB29F900D11240895991B79E0C3
:1041500004C0991F961708F0961B881F7A95C9F717
:1041600080950895AA1BBB1B51E107C0AA1FBB1F66
:10417000A617B70710F0A61BB70B881F991F5A95F3
:10418000A9F780959095BC01CD01089597FB072E66
:1041900016F4009407D077FD09D00E94B22007FCE6
:1041A00005D03EF4909581959F4F08957095619547
:1041B0007F4F0895A1E21A2EAA1BBB1BFD010DC063
:1041C000AA1FBB1FEE1FFF1FA217B307E407F507C7
:1041D00020F0A21BB30BE40BF50B661F771F881FA3
:1041E000991F1A9469F760957095809590959B0139
:1041F000AC01BD01CF010895EE0FFF1F0590F491B2
:10420000E02D09940E94E221A59F900DB49F900D8E
:10421000A49F800D911D11240895B7FF0C940221D5
:104220000E940221821B930B0895689401C0E894B8
:104230008F929F92CF93DF930E942321DF91CF91A2
:104240009F908F90089588249924F401E401B0E4AC
:104250009F93AA279A158B049C04ED05FE05CF05B4
:10426000D007A10798F4AD2FDC2FCF2FFE2FE92D1B
:10427000982C892E982F872F762F652F542F432F18
:10428000322F2227B85031F7BF9127C01B2EBF9184
:10429000BB27220F331F441F551F661F771F881F20
:1042A000991F881C991CEE1FFF1FCC1FDD1FAA1F22
:1042B000BB1F8A149B04EC05FD05CE05DF05A00796
:1042C000B10748F08A189B08EC09FD09CE09DF09FF
:1042D000A00BB10B21601A94E1F62EF49401AF010A
:1042E000BE01CD01000C08952F923F924F925F9234
:1042F0006F927F928F929F92AF92BF92CF92DF92F6
:10430000EF92FF920F931F93CF93DF93CDB7DEB75A
:10431000CA1BDB0B0FB6F894DEBF0FBECDBF0994EE
:104320002A88398848885F846E847D848C849B8445
:10433000AA84B984C884DF80EE80FD800C811B8153
:10434000AA81B981CE0FD11D0FB6F894DEBF0FBE82
:10435000CDBFED0108950F93083090F0982F872F6F
:10436000762F652F542F432F322F22270850F4CF5A
:10437000220F331F441F551F661F771F881F991F69
:104380000A95B2F70F91089597FB10F8169400085C
:104390000F93083098F00850232F342F452F562FB5
:1043A000672F782F892F902DF4CF059497958795B7
:1043B0007795679557954795379527950A95AAF765
:1043C0000F910895A29FB001B39FC001A39F700DEC
:1043D000811D1124911DB29F700D811D1124911D0D
:1043E00008955058BB27AA270E9409220C945A23EB
:1043F0000E944C2338F00E94532320F039F49F3F51
:1044000019F426F40C9449230EF4E095E7FB0C9480
:104410004323E92F0E946B2358F3BA1762077307EF
:104420008407950720F079F4A6F50C948D230EF4FB
:10443000E0950B2EBA2FA02D0B01B90190010C01B4
:10444000CA01A0011124FF27591B99F0593F50F4CC
:10445000503E68F11A16F040A22F232F342F442724
:10446000585FF3CF469537952795A795F04053951C
:10447000C9F77EF41F16BA0B620B730B840BBAF0EC
:104480009150A1F0FF0FBB1F661F771F881FC2F757
:104490000EC0BA0F621F731F841F48F4879577956B
:1044A0006795B795F7959E3F08F0B0CF9395880F25
:1044B00008F09927EE0F9795879508950E9472222C
:1044C0000C945A230E94532358F00E944C2340F02E
:1044D00029F45F3F29F00C94432351110C948E234F
:1044E0000C9449230E946B2368F39923B1F355235D
:1044F00091F3951B550BBB27AA27621773078407F7
:1045000038F09F5F5F4F220F331F441FAA1FA9F38C
:1045100035D00E2E3AF0E0E832D091505040E6957A
:10452000001CCAF72BD0FE2F29D0660F771F881FDB
:10453000BB1F261737074807AB07B0E809F0BB0BCE
:10454000802DBF01FF2793585F4F3AF09E3F5105E2
:1045500078F00C9443230C948E235F3FE4F3983E51
:10456000D4F3869577956795B795F7959F5FC9F7CB
:10457000880F911D9695879597F90895E1E0660F4C
:10458000771F881FBB1F621773078407BA0720F0C5
:10459000621B730B840BBA0BEE1F88F7E09508952E
:1045A0000E94D7226894B1110C948E2308950E9422
:1045B000732388F09F5798F0B92F9927B751B0F01F
:1045C000E1F0660F771F881F991F1AF0BA95C9F797
:1045D00014C0B13091F00E948D23B1E008950C9485
:1045E0008D23672F782F8827B85F39F0B93FCCF338
:1045F000869577956795B395D9F73EF49095809514
:10460000709561957F4F8F4F9F4F0895E89409C033
:1046100097FB3EF490958095709561957F4F8F4FF5
:104620009F4F9923A9F0F92F96E9BB279395F6950B
:10463000879577956795B795F111F8CFFAF4BB0F89
:1046400011F460FF1BC06F5F7F4F8F4F9F4F16C0ED
:10465000882311F096E911C0772321F09EE8872F77
:10466000762F05C0662371F096E8862F70E060E033
:104670002AF09A95660F771F881FDAF7880F9695AC
:10468000879597F9089597F99F6780E870E060E053
:1046900008959FEF80EC089500240A9416161706DB
:1046A00018060906089500240A9412161306140623
:1046B00005060895092E0394000C11F4882352F086
:1046C000BB0F40F4BF2B11F460FF04C06F5F7F4F3E
:1046D0008F4F9F4F089557FD9058440F551F59F025
:1046E0005F3F71F04795880F97FB991F61F09F3FDF
:1046F00079F087950895121613061406551FF2CF08
:104700004695F1DF08C0161617061806991FF1CF57
:1047100086957105610508940895E894BB2766277E
:104720007727CB0197F908950E94A7230C945A2369
:104730000E944C2338F00E94532320F0952311F05F
:104740000C9443230C94492311240C948E230E942F
:104750006B2370F3959FC1F3950F50E0551F629F37
:10476000F001729FBB27F00DB11D639FAA27F00DCA
:10477000B11DAA1F649F6627B00DA11D661F829FF1
:104780002227B00DA11D621F739FB00DA11D621FD6
:10479000839FA00D611D221F749F3327A00D611DF3
:1047A000231F849F600D211D822F762F6A2F1124D5
:1047B0009F5750409AF0F1F088234AF0EE0FFF1F08
:1047C000BB1F661F771F881F91505040A9F79E3F5F
:1047D000510580F00C9443230C948E235F3FE4F347
:1047E000983ED4F3869577956795B795F795E795B5
:1047F0009F5FC1F7FE2B880F911D9695879597F9BE
:1048000008951F93FC0199278827BC01E894119112
:104810001032E9F3193010F01E30C8F31B3251F09A
:104820001D3249F4689406C00E943525610F711D40
:10483000811D911D119110531A30B0F33EF49095E3
:104840008095709561957F4F8F4F9F4F1F91089571
:10485000283008F027E03327DA01990F311D87FD52
:10486000916000966105710539F432602E5F3D93C9
:1048700030E32A95E1F708959F3F30F080387105C5
:10488000610509F03C5F3C5F3D93913008F0806822
:10489000911DDF93CF931F930F93FF92EF92192FE8
:1048A000987F9695E92F96959695E90FFF27E45EF8
:1048B000FE4F99273327EE24FF24A701E701059037
:1048C0000894079428F4360FE71EF81E491F511D5F
:1048D000660F771F881F991F0694A1F7059007940C
:1048E00028F4E70EF81E491F561FC11D770F881FB9
:1048F000991F661F0694A1F70590079428F4F80EF7
:10490000491F561FC71FD11D880F991F661F771F8C
:104910000694A1F70590079420F4490F561FC71F6E
:10492000D81F990F661F771F881F0694A9F78491D7
:104930001095177041F0D695C79557954795F79400
:10494000E7941A95C1F7E2ECF0E0689415901591A0
:1049500035916591959105907FE27395E118F10A83
:10496000430B560BC90BD009C0F7E10CF11E431FD6
:10497000561FC91FD01D7EF4703311F48A95E6CFFF
:10498000E894015030F0080F0AF40027021708F4E9
:10499000202F2395022F7A3328F079E37D932A95EF
:1049A000E9F710C07D932A9589F606949795679547
:1049B000379517951794E118F10A430B560BC90B5D
:1049C000D00998F023957E9173957A3308F070E3BF
:1049D0007C932013B8F77E9170617D9330F08395BE
:1049E00071E37D9370E32A95E1F71124EF90FF9036
:1049F0000F911F91CF91DF91992787FD9095089591
:104A0000FC010590615070400110D8F78095909599
:104A10008E0F9F1F0895FB01DC018D91019080197D
:104A20000110D9F3990B0895FB01DC0101900D925F
:104A30000020E1F70895FB01DC014150504048F0AF
:104A400001900D920020C9F701C01D9241505040C5
:104A5000E0F70895FC016150704001900110D8F713
:104A6000809590958E0F9F1F0895592F482F372FAF
:104A7000262F660F771F881F991F660F771F881FC5
:104A8000991F620F731F841F951F660F771F881F62
:104A9000991F08950F931F93CF93DF93009731F4DD
:104AA0006115710519F480E090E03AC08B01EC01CA
:104AB0006EE070E081E090E00E949E26FC01892B70
:104AC00091F380E883830115110571F01387028744
:104AD00081E8838380914A0790914B07892B21F4C9
:104AE000F0934B07E0934A072097C9F0D187C0871E
:104AF00083818260838380914C0790914D07892B3D
:104B000071F4F0934D07E0934C0780914E0790911C
:104B10004F07892B21F4F0934F07E0934E07CF0105
:104B2000DF91CF911F910F9108950F931F93CF9312
:104B3000DF93FB01238121FD03C08FEF9FEF2CC08A
:104B400022FF16C0468157812481358142175307C1
:104B500044F4A081B1819D012F5F3F4F31832083B9
:104B60008C93268137812F5F3F4F3783268314C074
:104B70008B01EC01FB010084F185E02D0995892B67
:104B8000E1F6D80116968D919C911797019617968C
:104B90009C938E931697CE01DF91CF911F910F9129
:104BA0000895A0E0B0E0E7EDF5E20C948421AE01B9
:104BB0004B5F5F4FFA0161917191AF0180914C079A
:104BC00090914D070E94551CE2E00C94A021609149
:104BD0004C0770914D070E94952508950F931F93E0
:104BE000CF93DF93E0914C07F0914D07238121FF94
:104BF0001BC08C01D0E0C0E0F80181918F01609171
:104C00004C0770914D07DB011896ED91FC911997B7
:104C1000882331F00995892B79F3DFEFCFEFECCFC3
:104C20008AE00995892B19F08FEF9FEF02C08D2F35
:104C30009C2FDF91CF911F910F910895AEE0B0E0CE
:104C4000E4E2F6E20C9482210D891E8986E08C83D1
:104C50001A8309838FEF9FE79E838D83AE01475EA2
:104C60005F4F6F89788DCE0101960E94551CEF81B0
:104C7000F885E00FF11F10822E96E4E00C949E213F
:104C8000FA01AA27283051F1203181F1E8946F937D
:104C90006E7F6E5F7F4F8F4F9F4FAF4FB1E03ED023
:104CA000B4E03CD0670F781F891F9A1FA11D680FC1
:104CB000791F8A1F911DA11D6A0F711D811D911DF4
:104CC000A11D20D009F468943F912AE0269F112469
:104CD0003019305D3193DEF6CF010895462F4770CD
:104CE000405D4193B3E00FD0C9F7F6CF462F4F7028
:104CF000405D4A3318F0495D31FD4052419302D086
:104D0000A9F7EACFB4E0A69597958795779567952B
:104D1000BA95C9F700976105710508959B01AC012B
:104D20000A2E06945795479537952795BA95C9F752
:104D3000620F731F841F951FA01D08950F931F936B
:104D4000CF93DF93869F8001879F100D969F100D54
:104D50001124C8010E94BA26EC01009729F0A8018D
:104D600060E070E00E94DB27CE01DF91CF911F91C0
:104D70000F9108950F931F93CF93DF938230910586
:104D800010F482E090E0E0915207F091530720E0A8
:104D900030E0A0E0B0E0309719F14081518102810C
:104DA000138148175907C8F08417950769F41097BD
:104DB00031F012960C93129713961C9327C0009310
:104DC00052071093530722C02115310519F04217DD
:104DD000530718F49A01BD01EF01DF01F801DBCFA1
:104DE00021153105F9F0281B390B2430310580F4E9
:104DF0008A819B816115710521F0FB019383828378
:104E000004C09093530780935207FE01329644C02A
:104E1000FE01E20FF31F81939193225031093983F0
:104E200028833AC02091500730915107232B41F439
:104E300020910301309104013093510720935007D2
:104E400020910101309102012115310541F42DB766
:104E50003EB74091050150910601241B350BE091AE
:104E60005007F0915107E217F307A0F42E1B3F0BF8
:104E70002817390778F0AC014E5F5F4F24173507CC
:104E800048F04E0F5F1F5093510740935007819396
:104E9000919302C0E0E0F0E0CF01DF91CF911F914C
:104EA0000F910895CF93DF93009709F481C0FC011F
:104EB000329713821282A0915207B0915307109734
:104EC00081F420813181820F931F2091500730910E
:104ED00051072817390751F5F0935107E093500710
:104EE00067C0ED0120E030E0CE17DF0740F44A81D3
:104EF0005B819E0141155105F1F0EA01F5CFD383A5
:104F0000C28340815181840F951FC817D90759F476
:104F100088819981840F951F0296918380838A816D
:104F20009B81938382832115310529F4F0935307E4
:104F3000E09352073DC0E901FB83EA83499159910F
:104F4000C40FD51FEC17FD0761F480819181840F98
:104F5000951F0296E90199838883828193819B83BF
:104F60008A83E0E0F0E012968D919C911397009770
:104F700019F0FD01DC01F7CF8D919C9111979D01F6
:104F80002E5F3F4F820F931F2091500730915107A2
:104F90002817390769F4309729F4109253071092B3
:104FA000520702C013821282B0935107A093500798
:104FB000DF91CF910895DC0101C06D9341505040C5
:084FC000E0F70895F894FFCF1B
:104FC80001000054072000781E00A02800F03C00D3
:104FD800405100127A00E4A20024F40048E801904D
:104FE800D00320A107CC03CE03D303D203D403D626
:104FF80003D703DA03DE03E003E103E403EE03E887
:1050080003ED03EC034265666F72652072656164A7
:105018002056657273696F6E200D00416674657263
:1050280020726561642056657273696F6E200D0089
:105038004C6F5261496E69742053504920646F6EF9
:10504800650D0A0D005374617274696E67204C6FA8
:105058005261206661696C6564210D004C6F526174
:1050680020496E6974205375636365737366756C44
:105078006C0D00256C750025643A25643A2564009A
:105088004E4F5F4C4F43005061636B6574206765FA
:105098006E6572617465643A202573200D0A0050AC
:1050A8006B74204C656E6774683A2025640D0A009D
:1050B8002D2D2D2D2D2D2D2054616D6120436F6CCC
:1050C8006C6172202D2D2D2D2D2D2D0D0052544348
:1050D80020616E642047505320496E697420446FE4
:1050E8006E65200D004D61696E3A2057616B6575DC
:1050F800702054696D653A202564203A2025642083
:105108003A2025640D0A004D61696E3A2054696D94
:1051180065206E6F74207365742C205761697469FB
:105128006E6720666F722074696D652066726F6D98
:10513800204C6F526120506B740D004D61696E3ABE
:1051480020536C6565702054696D653A202564208C
:105158003A202564203A2025640D0A0D0A0D0A0D0F
:105168000A004D61696E3A20476F696E6720746F57
:1051780020736C656570206E6F77200D0A0D0052E4
:1051880065636965766564205061636B65740D00BD
:10519800252E3666004750524D4300474E524D4328
:1051A80000475047474100474E4747410047505343
:1051B8002050756C736520476976656E200D004C2C
:1051C8006F636174696F6E3A20002566202C202574
:1051D80066200D0A00494E56414C49440D00446171
:1051E80074652F54696D653A20002564202F2025A9
:1051F80064202F2025642020202D202000494E5691
:10520800414C4944200D002564203A200048616E35
:1052180064656C696E6720475053204E6F773A205B
:10522800256C750D0A004750532D3E48616E646C1D
:1052380065723A2052657475726E205472756520D5
:10524800696E206D532054696D65722061743A202F
:10525800256C750D0A004750532D3E48616E646CED
:1052680065723A2052657475726E20466C6173657A
:1052780020696E206D532054696D65722061743AFF
:1052880020256C750D0A00252E3266004E004E4E04
:105298004500454E450045534500535345005300CE
:1052A8005353570057535700574E57004E4E570009
:1052B8007363686564756C652D3E616C61726D48D9
:1052C800616E646C65723A2054727565205365741A
:1052D80074696E6720616C61726D20666F723A2026
:1052E8002564202F2025640D0A00736368656475A2
:1052F8006C652D3E616C61726D48616E646C65729F
:105308003A2046616C73652053657474696E672032
:10531800616C61726D20666F723A202564202F20BF
:1053280025640D0A004144433A20256C750D0A0096
:10533800252E31660072656C6561736548616E641F
:105348006C65722D3E52656C656173652074696D7C
:10535800650D0053656E64696E673A2025730D0A02
:02536800000043
:00000001FF
