:100000000C94FF000C94450A0C9427010C942701D2
:100010000C9427010C9427010C9427010C94770968
:100020000C9427010C9427010C9427010C942701B0
:100030000C9427010C9427010C9429010C9427019E
:100040000C9427010C9427010C94C6090C942701E9
:100050000C9427010C9427010C9427010C94270180
:100060000C94C21A0C9427016E616E00696E6600D2
:1000700000407A10F35A00A0724E18090010A5D45F
:10008000E80000E87648170000E40B54020000CABC
:100090009A3B000000E1F505000080969800000002
:1000A00040420F000000A086010000001027000061
:1000B0000000E803000000006400000000000A00E7
:1000C000000000000100000000002C76D888DC67EA
:1000D0004F0823DFC1DFAE59E1B1B796E5E3E45342
:1000E000C63AE651997696E8E6C28426EB898C9B5F
:1000F00062ED407C6FFCEFBC9C9F40F2BAA56FA5FF
:10010000F490055A2AF75C936B6CF9676DC11BFC80
:10011000E0E40D47FEF520E6B500D0ED902E03009B
:10012000943577050080841E080000204E0A0000E8
:1001300000C80C333333330F986E12831141EF8DA7
:100140002114893BE65516CFFEE6DB18D1844B38E7
:100150001BF77C1D901DA4BBE424203284725E2218
:100160008100C9F124ECA1E53D274D61696E20496C
:100170006E74766C2054696D653A20004D61696E2D
:1001800020456E642054696D653A20004D61696EAA
:100190002053746172742054696D653A20004D617A
:1001A000696E20496E74766C2054696D653A200042
:1001B0004D61696E20456E642054696D653A20007A
:1001C0004D61696E2053746172742054696D653A93
:1001D00020004D61696E3A205254432054696D6588
:1001E0003A2000446174652F54696D653A20004CD3
:1001F0006F636174696F6E3A20007E299229112421
:100200001FBECFEFD8E0DEBFCDBF15E0A0E0B1E06C
:10021000E2E9F2E602C005900D92AE31B107D9F7DE
:1002200027E0AEE1B5E001C01D92A03FB207E1F7C3
:1002300010E0CFEFD0E004C02197FE010E94032A16
:10024000CD3FD107C9F70E94DF270C941E310C94D3
:1002500000001F921FB61F9211248F939F93EF935C
:10026000FF9380912705813019F5909126058FEF36
:10027000890F9130D9F4809123059091240580FF56
:1002800043C05E9A809123059091240596958795A9
:1002900090932405809323058091250581508093B8
:1002A0002505811102C01092270583E08093260561
:1002B00080912905811120C080912205882331F188
:1002C00080912005815080932005811115C01092E6
:1002D000220510922805E0912B05F0E080911E0583
:1002E000E45DFA4F808380912B058F5F80932B050F
:1002F000803210F010922B05FF91EF919F918F911A
:100300001F901FBE1F9018955E98BCCF8091280546
:10031000811110C04C99F0CF81E080932805109294
:100320001E0594E09093200598E090931F0580931C
:100330002105E2CF909120058FEF890F9130B9F41C
:10034000809121054C9B05C090911E05982B9093A0
:100350001E05880F8093210580911F058150809391
:100360001F05811103C081E08093220583E0809303
:100370002005C2CF1092270510922805109229055A
:100380005E9A569A54989FB7F89481E287BD82E0AE
:1003900084BD85BDEEE6F0E080818260808316BC7E
:1003A0009FBF089510922905089581E08093290543
:1003B000089590912A0580912B059817E1F3E92F74
:1003C000F0E0E45DFA4F80819F5F903218F49093E3
:1003D0002A05089510922A05089590912B0581E031
:1003E00020912A05291301C080E0089510922B0561
:1003F00010922A0508959091270581E0913009F027
:1004000080E00895909127059130E1F393E0909377
:1004100026059AE090932505880F990B926090939A
:1004200024058093230581E0809327050895CF93C9
:10043000DF93EC018991882319F00E940202FACF20
:10044000DF91CF910895CF93DF93EC01FE0184916A
:100450002196882319F00E940202F8CFDF91CF91F4
:100460000895CF93DF93D82FC62F67E084E40E94CE
:10047000FF088D2F0E9427068C2F0E942706C82F69
:1004800067E084E40E94DB088C2FDF91CF91089510
:1004900060E08F770C9431028AE10E94480240911B
:1004A0004E0550914F0560915005709151054115D1
:1004B000514A6C4B734318F09DE9891B089594EAE7
:1004C000FCCF89E10E94480285958595089583E1D6
:1004D0000E94480290914D05891B08950E94670271
:1004E000882341F080914D058F5F80934D0580E01A
:1004F0000C9448028FEF08958EE10E944802829585
:100500008F700895CF93DF9300D000D0CDB7DEB7C2
:100510008DE10E94480290E09C0144E035952795CA
:100520004A95E1F7803A9105E0F4F901EE0FFF1FDB
:10053000E20FF31FE95FFE4F80819181A2819C0150
:100540004A2F50E029833A834B835C8369817A8107
:100550008B819C810F900F900F900F90DF91CF9126
:10056000089580E291EAA7E0B0E089839A83AB83A3
:10057000BC83ECCFCF92DF92EF92FF920F931F9349
:10058000CF93DF9300D000D000D0CDB7DEB788E2A4
:100590000E944802877090E0B0E0A0E0CC24D82E02
:1005A000E92EFA2E89E20E944802C80ED11CE11CF5
:1005B000F11CFE2CED2CDC2CCC248AE20E9448029B
:1005C000C80ED11CE11CF11C88E20E94480283FF86
:1005D00003C088E0E81AF1080E9482028B018E8332
:1005E0009D83C701B6010E944F2C20E030E040E817
:1005F0005BE469837A838B839C8369817A818B81B5
:100600009C810E94DB2C20E034E244EF5BE46983B0
:100610007A838B839C8369817A818B819C810E9400
:10062000A52B6B017C01B8018E819D810E944D2C10
:1006300020E034E244EF58E469837A838B839C831F
:1006400069817A818B819C810E94A52B9B01AC01E1
:10065000C982DA82EB82FC8269817A818B819C81FA
:100660000E94DB2C69837A838B839C8369817A81E6
:100670008B819C810E94172C26960FB6F894DEBFC2
:100680000FBECDBFDF91CF911F910F91FF90EF90E3
:10069000DF90CF90089580680C94310263E881E880
:1006A0000E94310282E10E94480283FD07C08FE070
:1006B00097E20197F1F700C00000F4CF68E082E90B
:1006C0000E94310281E00895DF92EF92FF920F9332
:1006D0001F93CF93DF93F82EE92EC62F82E20E945C
:1006E0004802D82F2C2F280F3327331F2F3F3105D7
:1006F00019F010F0CD2FC095DF2C0F2D1E2D802F5F
:100700008D198C1738F4F80161918F0180E80E94EF
:100710003102F5CF6D2F6C0F82EA0E9431028C2FCF
:10072000DF91CF911F910F91FF90EF90DF9008958F
:10073000CF93DF930E946702882381F08DE00E94AF
:100740004802D82F80E00E944802C82F6D2F8DE804
:100750000E9431028C2FDF91CF9108958FEFFBCF54
:1007600061E881E80C94310260E881E80C94310280
:100770000C94B403682F823108F061E1623008F410
:1007800062E06250606889E80C943102AF92BF92D7
:10079000CF92DF92EF92FF920F931F93CF93DF934D
:1007A000382F292FCB01A32FB22F80934E05909382
:1007B0004F05A0935005B09351059B01AD0160E03A
:1007C00070E080E090E003E10E94F32AA12CE8E4CD
:1007D000BE2EF8EECF2EDD24D394E12CF12C00E0D8
:1007E00010E00E944F2AC22FB32E6A017B01182FFE
:1007F000D92F00E10E940E2B622F86E80E94310261
:100800002C2F3B2DA601B701812F9D2F08E00E94C0
:100810000E2B622F87E80E9431026C2F88E8DF914F
:10082000CF911F910F91FF90EF90DF90CF90BF90ED
:10083000AF900C9431020F931F93CF93DF938B01F2
:10084000D82FC92F67E084E40E94B70867E084E4EA
:100850000E94DB0862E082E40E94B70862E082E462
:100860000E94FF088FE097E20197F1F700C00000B7
:1008700062E082E40E94DB088FE097E20197F1F7E3
:1008800000C0000082E40E944802823131F50E94DB
:10089000B403B8018D2F9C2F0E94C60360E08EE840
:1008A0000E94310260E08FE80E9431028CE00E94D9
:1008B0004802682F63608CE80E94310264E086EA97
:1008C0000E94310284E10E94BA030E94B00381E0D9
:1008D000DF91CF911F910F91089580E0F9CFCF93D1
:1008E000C82F893008F0C8E08DE10E9448026C2FC3
:1008F000C53008F465E06450770B660F771F817F81
:10090000682B8DE9CF910C943102CF93C82F692FBA
:1009100080EA0E9431026C2F81EACF910C9431025F
:10092000682F89EB0C9431028EE10E944802682FF7
:1009300064608EE90C9431028EE10E944802682FB7
:100940006B7F8EE90C94310210924C058DE10E9470
:100950004802682F6E7F8DE90C94310281E080930C
:100960004C058DE10E944802682F61608DE90C946E
:100970003102CF93C82F0E94B003CC2369F00E94AC
:10098000AE0460E08DE80E94310260E082EA0E94DD
:10099000310281E0CF9108950E94A404F2CFCF9359
:1009A000DF93D82F82E10E944802C82FDD2329F16E
:1009B0000E94AE046D2F82EA0E9431026C2F82E900
:1009C0000E943102C6FF1EC0C5FD1CC010924D051D
:1009D00080914C058823A1F082E20E944802C82F32
:1009E00080E10E944802682F8DE80E9431020E9437
:1009F000B0038C2FDF91CF9108950E94A404DECF25
:100A000083E1EBCF81E00E944802863841F060E04C
:100A10008DE80E94310266E881E80E943102C0E060
:100A2000E8CFCF93DF93EC011816190664F40E9407
:100A3000AE046C2F82EA0E94310265E881E8DF9102
:100A4000CF910C9431020E94A404F7CFCF92DF9291
:100A5000EF92FF92CF93DF930E9482026B017C01A1
:100A60000E947C02D82F86E20E944802C82FA7016C
:100A7000960104C05695479537952795DA95D2F794
:100A800068EE73E080E090E00E94E1296C2F213154
:100A900031054105510550F0686086EADF91CF913C
:100AA000FF90EF90DF90CF900C943102677FF5CFED
:100AB000CF93C82F863020F08D30D0F48630C9F423
:100AC00065EC81EB0E9431026CE087EB0E94310201
:100AD000C6E08EE10E9448028F7090E1C99FB0018C
:100AE0001124682B8EE90E943102CF910C942605C7
:100AF000CCE063EC81EB0E9431026AE087EB0E945C
:100B00003102E7CFCF93462F572FBC01C0E04937C2
:100B10008EE1580761057105C8F1C1E0413A98E2DC
:100B200059076105710590F1C2E0413F8CE3580718
:100B30006105710558F1C3E0413491E5590761053C
:100B4000710520F1C4E043318AE75807610571055A
:100B5000E8F0C5E0453E92EA590761057105B0F03D
:100B6000C6E0453284EF58076105710578F0C7E0AB
:100B7000493498EE590791E06907710538F0C9E0EA
:100B80004139504D6340710508F4C8E08DE10E9481
:100B900048028F7090E1C99FB0011124682B8DE944
:100BA0000E943102CF910C9426050F9300E020E0C3
:100BB00040E061E080E00E94080660EC7AEC89E8A1
:100BC00096E30E941B04811105C085E491E00E9418
:100BD000262FFFCF62E17AE780E090E00F910C943E
:100BE00082051F93CF93DF93D82FC92F162F0E9412
:100BF000D50580E00E94B904612F8D2F9C2F0E94A3
:100C000064030E944E03DF91CF911F910C94B403B3
:100C10000F9394B1986294B924982C9A30E2839FF0
:100C2000C001112480722370822B94E0499FA0019F
:100C300011244C70842B30E1639FB001112460714A
:100C4000862B80648CBD01700DBD0F9108958EBD03
:100C50000DB407FEFDCF8EB50895BF92CF92DF92FF
:100C6000EF92FF920F931F93CF93DF93EC01BB247E
:100C7000B39488E8C82E83E1D82EE12CF12C02E34E
:100C800010E08DA99EA92BA93CA928173907B9F115
:100C90002CAD222321F02130B1F01CAE0BC08C0F03
:100CA0009D1FFC0181818B3729F4BCAEC8AED9AE43
:100CB000EAAEFBAE8DA99EA90196B8010E94CD298E
:100CC0009EAB8DABDECF8C0F9D1FFC0161818BE550
:100CD00096E06D3739F40E9439218BE596E00E9449
:100CE000BC1CDBCF0E9439218111D7CF88AD99ADD3
:100CF000AAADBBAD892B8A2B8B2B79F2DBCFDF9191
:100D0000CF911F910F91FF90EF90DF90CF90BF9008
:100D10000895FC0187A9882379F080AD91ADA2AD3B
:100D2000B3AD0097A105B10539F00197A109B1094B
:100D300080AF91AFA2AFB3AF08958F929F92BF9251
:100D4000CF92DF92EF92FF920F931F93CF93DF9397
:100D50008C01F62E0E945421B82EE8012296809133
:100D6000A905882309F483C08BE7F801808383E415
:100D70008183809152051F928F9329E4C22E24E033
:100D8000D22EDF92CF92DF93CF930E94522FC80FC3
:100D9000D91F3CE2E32EE992BE0189EA95E00E9468
:100DA000840DFC01E192BF0189EA95E00E94A30D48
:100DB000FC01E192BF0189EA95E00E948514EC01F3
:100DC000E9921092120680911A068F93809119066B
:100DD0008F93809118068F93809117068F938CE5DF
:100DE00091E09F938F93DF93CF930E94522FC80F70
:100DF000D91FE992809166058F93809165058F9345
:100E0000809168058F93809167058F9380916A0523
:100E10008F93809169058F9380E691E09F938F93E4
:100E2000DF93CF930E94522FC80FD91FE9921F92D0
:100E3000BF92DF92CF92DF93CF930E94522FC80FC1
:100E4000D91FFE01E192CF012DB73EB7225E3F4F81
:100E50000FB6F8943EBF0FBE2DBF249632E069E670
:100E600071E0F31609F44AC06DE671E047C08BE704
:100E7000F801808383E48183809152051F928F93D0
:100E800089E4882E84E0982E9F928F92DF93CF93EF
:100E90000E94522FC80FD91F9CE2E92EFE01E19259
:100EA000CF0161E771E00E945B2EEF828DE28887BF
:100EB000E9868A87EB868C876E01FEE0CF0ED11C17
:100EC000ED861F92BF929F928F92DF92CF920E94E7
:100ED000522FE601C80FD91FFE01E192CF012DB7B5
:100EE0003EB7245F3F4F0FB6F8943EBF0FBE2DBFF5
:100EF000249631E068E771E0F312B6CF0E945B2ED2
:100F00008DE788831982E80109900020E9F721978D
:100F1000C01BD10BDF93CF931F930F938CE791E00E
:100F20009F938F930E940B2F0F900F900F900F9015
:100F30000F900F90CE01DF91CF911F910F91FF90F5
:100F4000EF90DF90CF90BF909F908F900895CF93B8
:100F5000DF93CDB7DEB761970FB6F894DEBF0FBE53
:100F6000CDBFE4E5F5E086A197A19E838D8384A1A2
:100F700095A19C838B8382A193A19A8389838EE020
:100F800090E098878F8381E090E09A87898786E157
:100F900090E09C878B87CE0101960E94261681E007
:100FA0008093530561960FB6F894DEBF0FBECDBF98
:100FB000DF91CF910895E4E5F5E089E090E097A313
:100FC00086A315A214A213A212A210929D0510923C
:100FD0009C058AE090E090939B0580939A0510927F
:100FE00099051092980582E190E090AF87AB16AA20
:100FF00015AA14AA13AA089545E655E067E675E018
:1010000089E695E00E94C71582ED91E09F938F934A
:101010000E940B2FE4E5F5E082898F9381898F93FD
:1010200084898F9383898F9386898F9385898F9302
:1010300086EE94E09F938F930E940B2F8DB79EB7FF
:101040000A960FB6F8949EBF0FBE8DBF089587EC29
:1010500096E00E9489068091C3069091C406A091F3
:10106000C506B091C6060097A105B10559F00197D4
:10107000A109B1098093C3069093C406A093C50645
:10108000B093C60689EA95E00C946E14282F8093DD
:10109000C7068091FA069091FB06FC01E953F94FCF
:1010A00021830196823391052CF49093FB06809363
:1010B000FA0608951092FB061092FA0608950E940F
:1010C000D50580E395E7A0E0B0E08093C306909358
:1010D000C406A093C506B093C6068091C30690913E
:1010E000C406A091C506B091C606892B8A2B8B2B0E
:1010F000B1F080E00E94CF04882379F30E94670258
:10110000882329F00E946E020E944608F7CF87ECE0
:1011100096E00E942D06809153058823F1F20895F0
:10112000833479F08434C1F0823401F524B181E054
:1011300090E001C0880F6A95EAF78095822384B910
:10114000089527B181E090E001C0880F6A95EAF721
:101150008095822387B908952AB181E090E001C08B
:10116000880F6A95EAF7809582238AB908958334B7
:1011700071F08434B1F08234E9F484B121E030E0DC
:1011800001C0220F6A95EAF7822B84B9089587B1CE
:1011900021E030E001C0220F6A95EAF7822B87B97F
:1011A00008958AB121E030E001C0220F6A95EAF784
:1011B000822B8AB90895833471F08434B1F082347B
:1011C000E9F485B121E030E001C0220F6A95EAF729
:1011D000822B85B9089588B121E030E001C0220F4B
:1011E0006A95EAF7822B88B908958BB121E030E047
:1011F00001C0220F6A95EAF7822B8BB908958334D8
:1012000079F08434C1F0823401F525B181E090E0B9
:1012100001C0880F6A95EAF78095822385B9089501
:1012200028B181E090E001C0880F6A95EAF78095C7
:10123000822388B908952BB181E090E001C0880F26
:101240006A95EAF7809582238BB90895442319F0B3
:10125000413019F008950C94FF080C94DB08833496
:10126000B1F08434B1F08234B1F423B181E090E084
:10127000062E02C0880F991F0A94E2F730E08223FD
:10128000932302C0959587956A95E2F7089526B154
:10129000EDCF29B1EBCF81E008950895E1E8F0E0CA
:1012A00080818260808308951092810008958091EA
:1012B0008400909185009695879508951092B200CC
:1012C000E0EBF0E08081826080838FE18093B30067
:1012D00017BAE0E7F0E0808182608083E1EBF0E024
:1012E00080818560808308951092B10008951F92D7
:1012F0000F920FB60F9211242F933F934F935F934A
:101300006F937F938F939F93AF93BF93EF93FF93CD
:101310000E94270817BA8091050790910607A091AF
:101320000707B09108070196A11DB11D809305071D
:1013300090930607A0930707B0930807FF91EF91DA
:10134000BF91AF919F918F917F916F915F914F91DD
:101350003F912F910F900FBE0F901F901895CF9334
:10136000DF9300D000D0CDB7DEB780910507909114
:101370000607A0910707B0910807BC01CD010F90A7
:101380000F900F900F90DF91CF9108951F920F92C1
:101390000FB60F9211242F933F934F935F936F9348
:1013A0007F938F939F93AF93BF93EF93FF9380911E
:1013B000C60080930407809104070E94460882E0DB
:1013C0008093C000FF91EF91BF91AF919F918F915A
:1013D0007F916F915F914F913F912F910F900FBE31
:1013E0000F901F9018958091090790910A0790938C
:1013F000E9078093E80789E18093C4001092C50053
:1014000088E98093C10082E08093C00008959091A4
:10141000C00095FFFCCF8093C60008959091000115
:10142000992329F00E94070A90E080E0089581E066
:1014300090E00895EF92FF920F931F93CF93DF9365
:10144000EB018C01F12CE12CEC16FD064CF4F801BB
:1014500081918F010E94070AFFEFEF1AFF0AF4CF74
:10146000CE01DF91CF911F910F91FF90EF900895E2
:1014700083B7816083BF83B7817F846083BF7894A3
:10148000889583B78E7F83BF0895E09A18950F9350
:101490001F93CF93DF93EC018B010E94570999832F
:1014A00088830A831B83DF91CF911F910F91089549
:1014B000CF93DF93EC010E9457099C014A815B8125
:1014C00081E04115510561F0888199818217930768
:1014D00050F4281B390B81E02417350708F480E00D
:1014E000DF91CF910895281B390B21503048F3CF5D
:1014F000FC011082118213821282148215821682DC
:101500001782108612861186138614861586168613
:101510001786118A108A128A138A148A158A168AE3
:10152000108E178A118E128E138E148E158E12A2A3
:1015300013A214A215A216A217A210AA11AA12AAE7
:1015400013AA14AA15AA16AE17AEDC01DE961696DB
:101550001D921D921D921C9219971E961C92119617
:101560001C92119716961D921D921D921C9219970E
:101570001E961C9211961C92119716961D921D9202
:101580001D921C9219971E961C9211961C921197EF
:1015900016961D921D921D921C9219971E961C92D2
:1015A00011961C92119716961D921D921D921C92D7
:1015B00019971E961C9211961C9211961C92509689
:1015C00082E08C9311961C9211961C9211961C929B
:1015D000119611961C921E92129611961C921E92B2
:1015E00012961D921D921D921C92139714961D9295
:1015F0001D921D921C92139714961D921D921D927E
:101600001C92139714961D921D921D921C92139773
:1016100014961D921D921D921C921397E957FF4F2D
:1016200010820895862F062E000C990B2FEB260FA3
:10163000263010F4C79708956156663018F4875520
:1016400091090895C09708951F93CF93DF9300D019
:1016500000D000D0CDB7DEB78D839E83AD81BE8133
:101660001C911D3219F41196BE83AD838D819E812C
:101670000E94482D69837A838B839C83A4E6B0E023
:101680009B01AC010E94092AAB01BC01ED81FE81E6
:10169000FA83E983E981FA81DF012D91BA83A98375
:1016A000822F022E000C990BC0970A9798F32E32C6
:1016B00031F58181082E000C990BC0978A30910575
:1016C000F0F4AAE0A89F9001A99F300D1124C90150
:1016D000330FAA0BBB0B480F591F6A1F7B1F828158
:1016E000082E000C990BC0978A30910540F4092E02
:1016F000000CAA0BBB0B480F591F6A1F7B1F1D3222
:1017000039F470956095509541955F4F6F4F7F4FBD
:10171000CB01BA0126960FB6F894DEBF0FBECDBF3F
:10172000DF91CF911F9108958F929F92AF92BF92B8
:10173000EF92FF920F931F93CF93DF93CDB7DEB756
:101740002D970FB6F894DEBF0FBECDBF8D8799875A
:101750008B010E94482D24E630E040E050E00E94DA
:10176000E129490169837A838B839C839B01AC01C6
:1017700060E876E988E990E00E949D296D837E8388
:101780008F839887D8018D929C92ED85F985219160
:10179000822F022E000C990BC0970A97C0F32E32AD
:1017A000E9F57F0120E836E948E950E029833A83EA
:1017B0004B835C838AE0882E912CA12CB12CD7011D
:1017C000ED917D012E2F022E000C330B2053310999
:1017D0003A8729872A30310508F569817A818B811A
:1017E0009C81A50194010E94E12929833A834B83BE
:1017F0005C83A985BA850E94142A69877A878B87BA
:101800009C872D813E814F815885260F371F481FA9
:10181000591F2D833E834F835887D1CFA5E0B0E079
:101820002D813E814F8158850E94092ADC01CB0120
:101830000196A11DB11DBC01CD0123E030E040E0C7
:1018400050E00E94E129D80112962D933D934D93CB
:101850005C93159716961C922D960FB6F894DEBFE2
:101860000FBECDBFDF91CF911F910F91FF90EF90F1
:10187000BF90AF909F908F900895CF93DF9300D04B
:1018800000D0CDB7DEB720E030E044E351E4698317
:101890007A838B839C8369817A818B819C810E946E
:1018A000392B20E030E044EB51E469837A838B8369
:1018B0009C8369817A818B819C810E94A52B69839D
:1018C0007A838B839C8369817A818B819C810E943E
:1018D000172C69837A838B839C8389819A8160E149
:1018E00070E00E94CD29FC01EE0FFF1FEB5DFE4F63
:1018F000808191810F900F900F900F90DF91CF9189
:101900000895CF93DF93EC0187E0FE017096DE012E
:10191000129601900D928A95E1F787E0FE01779685
:10192000DE01199601900D928A95E1F70E94AF09A8
:101930006E8F7F8F88A399A381E089838883DF914D
:10194000CF9108959B01BC01605F7F4FC9010C944A
:10195000940B9B01BC01695E7F4FC9010C94940BF1
:10196000EF92FF920F931F93CF93DF9300D000D09D
:1019700000D0CDB7DEB78D839E83AD81BE81119639
:101980001C92119714966D917D918D919C91179752
:101990000E944D2C28E23BE64EE65EE469837A83A2
:1019A0008B839C8369817A818B819C810E94A52B8A
:1019B0007B018C01ED81FE81828193819C0150E04D
:1019C00040E029833A834B835C83CA01B9010E94BA
:1019D0004D2C9B01AC01E982FA820B831C83698147
:1019E0007A818B819C810E94392B462F572FBC0115
:1019F00049835A836B837C83AD81BE8118968C9119
:101A0000882339F09A01AB01505829833A834B83DC
:101A10005C8369817A818B819C8126960FB6F894CC
:101A2000DEBF0FBECDBFDF91CF911F910F91FF9011
:101A3000EF900895EF92FF920F931F93CF93DF9350
:101A400000D000D000D0CDB7DEB78D839E83AD81AE
:101A5000BE8111961C9211971B966D917D918D916F
:101A60009C911E970E944D2C28E23BE64EE65EE4D8
:101A700069837A838B839C8369817A818B819C8142
:101A80000E94A52B7B018C01ED81FE8181859285D1
:101A90009C0150E040E029833A834B835C83CA0178
:101AA000B9010E944D2C9B01AC01E982FA820B83A3
:101AB0001C8369817A818B819C810E94392B462FFE
:101AC000572FBC0149835A836B837C83AD81BE81D0
:101AD0001F968C91882339F09A01AB0150582983C5
:101AE0003A834B835C8369817A818B819C812696C2
:101AF0000FB6F894DEBF0FBECDBFDF91CF911F911F
:101B00000F91FF90EF900895CF93DF93EB010E9428
:101B1000B00C9F938F937F936F9385E392E09F9395
:101B20008F93DF93CF930E94522F2DB73EB7285F3C
:101B30003F4F0FB6F8943EBF0FBE2DBF8C0F9D1FB9
:101B4000DF91CF910895CF93DF93EB010E941A0D9F
:101B50009F938F937F936F9385E392E09F938F93EF
:101B6000DF93CF930E94522F2DB73EB7285F3F4F90
:101B70000FB6F8943EBF0FBE2DBF8C0F9D1FDF9197
:101B8000CF910895CF93DF93EC018E819F81A8853B
:101B9000B9858A839B83AC83BD830E94AF096A8722
:101BA0007B878C879D8781E089838883DF91CF91B4
:101BB0000895CF93DF93EC018E819F81A885B9852D
:101BC0008A839B83AC83BD830E94AF096A877B872E
:101BD0008C879D8781E089838883DF91CF910895E9
:101BE000CF93DF93EC01CB010E94240B6E837F83A4
:101BF00088879987DF91CF910895CF93DF93EC0188
:101C0000CB010E94482D6E837F8388879987DF915F
:101C1000CF910895CF93DF9300D000D0CDB7DEB73A
:101C2000FC01118282819381A481B581BC01CD0127
:101C300024E630E040E050E00E94E12969837A83A5
:101C40008B839C8389819A818053984F0F900F904A
:101C50000F900F90DF91CF910895CF92DF92EF9286
:101C6000FF92CF93DF9300D000D0CDB7DEB7FC0159
:101C7000118282819381A481B58124E6C22ED12C68
:101C8000E12CF12CBC01CD01A70196010E94E129B4
:101C9000CA01B901A70196010E94E129862F0F9080
:101CA0000F900F900F90DF91CF91FF90EF90DF900A
:101CB000CF900895CF93DF9300D000D0CDB7DEB79B
:101CC000FC01118282819381A481B581BC01CD0187
:101CD00020E137E240E050E00E94E129822F0F909E
:101CE0000F900F900F90DF91CF910895CF93DF93D6
:101CF00000D000D0CDB7DEB7FC0111828281938184
:101D0000A481B581BC01CD0120E432E44FE050E074
:101D10000E94E129822F0F900F900F900F90DF917A
:101D2000CF910895CF93DF9300D000D0CDB7DEB729
:101D3000FC01118282819381A481B581BC01CD0116
:101D400020E137E240E050E00E94E129CA01B901F8
:101D500024E630E040E050E00E94E129862F0F9019
:101D60000F900F900F90DF91CF910895CF92DF9257
:101D7000EF92FF92CF93DF9300D000D0CDB7DEB7C4
:101D8000FC01118282819381A481B58124E6C22E57
:101D9000D12CE12CF12CBC01CD01A70196010E94B0
:101DA000E129CA01B901A70196010E94E129862F04
:101DB0000F900F900F900F90DF91CF91FF90EF90C9
:101DC000DF90CF900895CF93DF9300D000D0CDB7B0
:101DD000DEB7FC01118282819381A481B581BC01AF
:101DE000CD0124E630E040E050E00E94E129862F5A
:101DF0000F900F900F900F90DF91CF910895CF9398
:101E0000DF93EC018A859B85AC85BD858E839F839E
:101E1000A887B9870E94AF096A837B838C839D83DF
:101E200081E089838883DF91CF910895CF93DF93F9
:101E3000EC01CB010E94240B6A877B878C879D87EE
:101E4000DF91CF910895CF93DF93EC018A859B8535
:101E5000AC85BD858E839F83A887B9870E94AF0913
:101E60006A837B838C839D8381E089838883DF9170
:101E7000CF910895CF93DF93EC01CB010E94482DC1
:101E80006A877B878C879D87DF91CF910895CF9359
:101E9000DF93EC01BC0140960E945B2E0E94AF09CB
:101EA00068A379A38AA39BA381E08DA38CA3DF9170
:101EB000CF91089540E150E00C94622EAF92BF9212
:101EC000DF92EF92FF920F931F93CF93DF93EC017A
:101ED000FC01EA57FF4FD080DD2009F4A0C0319605
:101EE00060810E94120B182FFE01E857FF4F60819E
:101EF000CE010E94120B1295107F180FFE01EB57B6
:101F0000FF4F8081811372C0B59680819181A2813B
:101F1000B3810196A11DB11D80839183A283B383F8
:101F20008E0107561F4FD8018C91882361F0389796
:101F300080819181A281B3810196A11DB11D808311
:101F40009183A283B383FE01EA56FF4F80818823E9
:101F5000A1F18130C1F4CE0182960E94C20DCE0162
:101F6000C0960E94D90DF8018081882361F0CE01CE
:101F70000E94810CCE01CE960E94FF0ECE01845BA2
:101F80009F4F0E94FF0E8E0104561F4FF801C08123
:101F9000D1812097C9F1D801ED91FC9166A177A17B
:101FA0008EA19FA10E94522E892B71F5CE010E9415
:101FB000470F0AA4DBA5C02DECCFCE01C0960E942E
:101FC000D90DD8018C91882341F0CE010E94810C5B
:101FD000CE01865A9F4F0E94FF0ECE0188599F4F17
:101FE0000E94230FCE018A589F4FCBCFCA55DF4F97
:101FF00088819981AA81BB810196A11DB11D888329
:102000009983AA83BB83D12C8D2DDF91CF911F9112
:102010000F91FF90EF90DF90BF90AF9008957C01FB
:10202000B7E9EB0EF11CF70130818A569F4F5C0136
:102030008E0104561F4F31113EC07E0197E8E90E14
:10204000F11C6AE372E0C7010E94522E892B39F01D
:1020500060E472E0C7010E94522E892B21F481E0D6
:10206000D5018C9310C066E472E0C7010E94522E25
:10207000892B39F06CE472E0C7010E94522E892B43
:10208000C1F4F5011082C656DF4F88819981F801AD
:1020900091838083C081D181209709F4B5CFB701A6
:1020A0008EA19FA10E94522E97FF98C08AA59BA542
:1020B000EECF82E0D5CFDC01EC91E230C9F0CE0169
:1020C00089579F4FDC012C91222391F0B0E2EB9FC6
:1020D000F0011124E32B3197E932F10548F4E05E79
:1020E000FE4C0C94032ABC01CE01C0960E94F00D58
:1020F000F801A080B180C957DF4FA114B10409F4E1
:1021000083CFD801ED91FC9166A177A1F50186A15D
:1021100097A10E94522E892B09F076CFD50198966F
:102120008D919C91F7012081422F50E028171906CC
:102130000CF46ACF8417950721F4BE01C5010E94F3
:102140005A0FD5019A96AD90BC90D7CFFE01E756B5
:10215000FF4F81E0213479F180E02DC0BE01605F46
:102160007F4F0E94940BC4CF81E0233509F080E0BB
:102170008E8BBECFBE01695E7F4FF3CF81E02735E6
:1021800009F080E08D8FB4CFBC01CE01CE960E94C5
:10219000160FAECFBC01CE01845B9F4FF8CFBC01C0
:1021A000CE0182960E94FD0DA3CFFE01E756FF4FA0
:1021B00081E021338CF280839BCFBC01CE01885912
:1021C0009F4F0E943A0F94CFBC01CE018A589F4F77
:1021D000DECFBC01CE01865A9F4FD9CF892B09F49F
:1021E00013CFD8011D921C920FCFCF92DF92EF92A6
:1021F000FF921F93CF93DF93EC01162FFC01E25661
:10220000FF4F80819181A281B3810196A11DB11DF3
:1022100080839183A283B383CE0188569F4F6C0144
:10222000DE01AA57BF4F7D01643209F449C0DCF4D6
:102230006A3019F16D3009F1D601EC91EE3048F4B5
:1022400081E08E0F8C93EC0FFD2FF11DE957FF4FAE
:102250001083F7018081811142C0CB57DF4F688125
:102260001627188325C06A3241F06C3229F7FE0127
:10227000EB57FF4F808186278083D601EC9180E069
:10228000EF3048F4EC0FFD2FF11DE957FF4F10829E
:10229000CE010E945E0FC956DF4F98819F5F9883E1
:1022A000F601108291E01A3209F090E0D7019C9378
:1022B000DF91CF911F91FF90EF90DF90CF90089525
:1022C000FC011082FE01E956FF4F108272971082C6
:1022D000719682E080831C92C756DF4F188280E09F
:1022E000E7CFAF92BF92CF92DF92EF92FF920F9320
:1022F0001F93CF93DF937B01B42EA52E69018C0130
:1023000006561F4FF801C081D1812097B1F06EA110
:102310007FA18B2D9A2D0E94522E97FD0EC0892BE6
:1023200029F488A599A5C816D9063CF08E01065D4A
:102330001F4F0AA4DBA5C02DE8CFF701D3A7C2A782
:10234000F801F182E082DF91CF911F910F91FF9010
:10235000EF90DF90CF90BF90AF900895CF93DF9331
:10236000FC01DB0110A211A212A213A214A215A259
:1023700046A357A320A731A790E1EF01892F199217
:102380008A95E9F7BF01605F7F4FEB0119929A953B
:10239000E9F7BF01CD01DF91CF910C9471110C943D
:1023A000AE112FE789EA93E0215080409040E1F799
:1023B00000C0000040E063E084E40E94260987EB4F
:1023C00098E80197F1F700C0000041E063E084E481
:1023D0000E94260987EB98E80197F1F700C00000FA
:1023E00040E063E084E40E94260987EB98E80197C7
:1023F000F1F700C0000008951F93CF93DF93EC0125
:10240000C255DF4F8CED95E0A0E0B0E08883998362
:10241000AA83BB838BEE91E00E94262F10E0888177
:102420009981AA81BB81892B8A2B8B2B79F00E9401
:10243000ED018823A1F30E94D901882381F3082E9E
:10244000000C990B0E941F2F1F5FE9CF8BEE91E0CC
:102450000E94262F812F110F990BDF91CF911F9191
:1024600008950F931F93CF93DF93EC0106E010E0E4
:10247000CE010E94D111CE010E94FC11892B51F096
:1024800082E592E00E94262F81E0DF91CF911F919B
:102490000F9108950150110959F780E0F6CF0F937D
:1024A0001F93CF93DF93EC0106E010E0CE010E9472
:1024B000D111CE010E94FC11892B51F48AE592E0E2
:1024C0000E94262F81E0DF91CF911F910F910895F7
:1024D0000150110959F780E0F6CF40E063E084E451
:1024E0000C94260941E063E084E40C9426090E94E0
:1024F000BA010E94D201789408951F93CF93DF937D
:10250000EC01162F0E94771263E084E40E94DB083E
:1025100063E084E40E94B708CC57DF4F1883DF9153
:10252000CF911F910895EF92FF920F931F93CF9336
:10253000DF9300D000D000D0CDB7DEB78D839E836F
:102540008FEE91E09F938F930E940B2F0F900F902F
:10255000AD81BE818C91882309F41FC1CD010E94F9
:102560001A0D162F072FF82EE92E8D819E810E94BD
:10257000B00CEF92FF920F931F939F938F937F93D3
:102580006F9385E692E09F938F930E940B2F0FB677
:10259000F894DEBF0FBECDBF83EE91E09F938F9383
:1025A0000E940B2F0F900F90AD81BE8192968C915F
:1025B0009297882309F4F6C07D01B2E2EB0EF11C7C
:1025C000C7010E940A0E182F092FC7010E942D0E65
:1025D000ED81FE8113A20F931F931F928F93AD8104
:1025E000BE8194968D919D910D90BC91A02D898373
:1025F0009A83AB83BC83BC01CD0120E137E240E08C
:1026000050E00E94E1291F922F9389E792E09F9367
:102610008F930E940B2F0FB6F894DEBF0FBECDBF75
:10262000AD81BE81D0968C91D097882309F4BFC02C
:102630008D01005D1F4FD1961C92D197D2968D913E
:102640009D910D90BC91A02D89839A83AB83BC830F
:10265000BC01CD0120E432E44FE050E00E94E129CA
:102660002A3020F480E390E00E941F2FED81FE814C
:1026700011AA82A993A9A4A9B5A989839A83AB8336
:10268000BC83BC01CD0120E432E44FE050E00E9465
:10269000E1291F922F9386E992E09F938F930E94E6
:1026A0000B2FC8010E94920E0F900F900F900F9069
:1026B0008A3020F480E390E00E941F2FC8010E941E
:1026C000920E1F928F9386E992E09F938F930E94C0
:1026D0000B2FC8010E94B60E0F900F900F900F9015
:1026E0008A3020F480E390E00E941F2FC8010E94EE
:1026F000B60E1F928F9389E494E09F938F930E946C
:102700000B2FED81FE8111AA82A993A9A4A9B5A9D5
:1027100089839A83AB83BC83BC01CD0124E630E07E
:1027200040E050E00E94E1290F900F900F900F9031
:102730006A3020F480E390E00E941F2FED81FE813B
:1027400011AA82A993A9A4A9B5A989839A83AB8365
:10275000BC83BC01CD0124E630E040E050E00E94A3
:10276000E1297F936F938DE393E09F938F930E9472
:102770000B2F0F900F900F900F908BEE91E02696FD
:102780000FB6F894DEBF0FBECDBFDF91CF911F9182
:102790000F91FF90EF900C94262F80E792E00E941B
:1027A000262FFACE8CE892E00E94262F39CF80E7C0
:1027B00092E00E94262FE1CF9F92AF92BF92CF92DC
:1027C000DF92EF92FF920F931F93CF93DF93EC0171
:1027D0000E943112882309F47FC01882FE01E25959
:1027E000FF4F10821182128213828E0108591F4FEF
:1027F000F80110825E01FEEAAF0EB11C80E69AEE8F
:10280000A0E0B0E0F50180839183A283B38380E6EA
:10281000C82E8AEED82EE12CF12C99249394F50140
:1028200080819181A281B381892B8A2B8B2B09F422
:102830004FC00E94ED01882331F00E94D901682F1A
:10284000CE010E94F510F50180819181A281B381B2
:102850008C159D05AE05BF0560F4992051F0CE01A1
:102860000E949312F0EDCF1AF7E0DF0AE108F108B9
:10287000912CF50180819181A281B381C816D9067E
:10288000EA06FB0610F4992493948881882339F290
:10289000F8018081882319F2118286819781A085B1
:1028A000B1850397A105B10508F4B9CFCE010E9407
:1028B0004F12882379F080E0DF91CF911F910F9123
:1028C000FF90EF90DF90CF90BF90AF909F900895D2
:1028D0001882ECCF82E0F0CF81E0EECFFC01E25530
:1028E000FF4F80819181A281B381892B8A2B8B2B11
:1028F00059F080819181A281B3810197A109B10929
:1029000080839183A283B3830895CF93DF93EB01F8
:10291000FC01EA58FF4F118266817781808591859D
:102920000E944F2C9F938F937F936F938CE992E03B
:102930009F938F93DF93CF930E94522F2DB73EB773
:10294000285F3F4F0FB6F8943EBF0FBE2DBF8C0FD0
:102950009D1FDF91CF9108956AE00E94AD29829575
:10296000807F890F0895982F92959F708F702AE02D
:10297000929F800D11240895CF93C82F88E60E945E
:10298000311C8C2F0E944B1C0E943B1C61E088E68E
:102990000E94241CCF910C94A01CCF93DF93C82FCE
:1029A000D62F88E60E94311C8D2F0E944B1C8C2F45
:1029B0000E944B1CDF91CF910C943B1CCF93DF9373
:1029C00081E10E94BC14D82F82E10E94BC14C82F60
:1029D00061E18EEE0E94CD1462E18DED0E94CD1476
:1029E00081E10E94BC148E3E91F482E10E94BC14ED
:1029F0008D3D69F481E080931D0761E18D2F0E9478
:102A0000CD1462E18C2FDF91CF910C94CD1481E035
:102A100080931C07DF91CF91089562E084E40E94C7
:102A2000900862E084E40E94DB08E9E6F0E080813F
:102A300082608083E89A7894089580911D070895B4
:102A400080911C07089581E080931D0710921C0758
:102A5000089510921D0781E080931C070895EF925E
:102A6000FF920F931F93CF93DF93CDB7DEB72997D4
:102A70000FB6F894DEBF0FBECDBF88E60E94311CB2
:102A800080E00E944B1C0E943B1C67E088E60E948D
:102A9000241C8E010F5F1F4F7E0188E0E80EF11CA1
:102AA0000E94A01CF80181938F01EE15FF05C1F76C
:102AB0000E943B1C89818F770E94B31490E0909311
:102AC0000C0780930B078A810E94B31490E09093C7
:102AD0000E0780930D078B810E94B314082F10E01E
:102AE0001093100700930F078D810E94B31490E09C
:102AF0009093120780931107FE808F2D8F710E9493
:102B0000B31490E090931407809313078F810E9471
:102B1000B31490E0F7FE27C08053984F90931607A8
:102B2000809315078C810E94B31490E0909318074E
:102B30008093170701151105C9F410921B07109215
:102B40001A0781E0809319078BE097E029960FB66A
:102B5000F894DEBF0FBECDBFDF91CF911F910F91D3
:102B6000FF90EF9008958459984FD8CF0C301105FD
:102B70002CF410931B0700931A07E3CF0C50110994
:102B800010931B0700931A0710921907DDCF8F923D
:102B90009F92AF92BF92CF92DF92EF92FF920F93EC
:102BA0001F93CF93DF93CDB7DEB729970FB6F89475
:102BB000DEBF0FBECDBF8C017B016A0188E60E949B
:102BC000311C80E00E944B1C0E943B1C67E088E6A1
:102BD0000E94241CCE0101965C014E0198E0890EF2
:102BE000911C0E94A01CF50181935F018E169F0627
:102BF000C1F70E943B1CC114D10429F089810E94B5
:102C0000B314F6018083E114F10429F08A810E9453
:102C1000B314F70180830115110529F08B810E94FF
:102C2000B314F801808329960FB6F894DEBF0FBE67
:102C3000CDBFDF91CF911F910F91FF90EF90DF906B
:102C4000CF90BF90AF909F908F9008951F93CF9398
:102C5000DF93EC0188E60E94311C80E00E944B1C4F
:102C60008A859B85813D27E0920774F1805D9740BE
:102C70009B878A8710E888810E94AC140E944B1CB5
:102C80008A810E94AC140E944B1C8C810E94AC145F
:102C90000E944B1C8C850E94AC140E944B1C8E81A0
:102CA0000E94AC140E944B1C88850E94AC14810FBA
:102CB0000E944B1C8A850E94AC140E944B1CDF9121
:102CC000CF911F910C943B1C8C5697409B878A8711
:102CD00010E0D1CF1F93CF93DF93C82FD62F142F9F
:102CE00088E60E94311C80E00E944B1C812F0E94CC
:102CF000AC140E944B1C8D2F0E94AC140E944B1CE4
:102D00008C2F0E94AC140E944B1CDF91CF911F911D
:102D10000C943B1CCF93C82F80911C0781110BC0D2
:102D20000E94BC14CC2329F08F7760E0CF910C94E3
:102D3000CD148068FACFCF91089580911C0781113E
:102D400006C00E94BC148095881F8827881F08959C
:102D5000FF920F931F93CF93DF938C01EB01FC0144
:102D60001082188280911D07811120C088E60E9480
:102D7000311C81E10E944B1C0E943B1C62E088E6F2
:102D80000E94241C0E949A1C882381F00E94A01C8F
:102D9000F82E0E94A01CF801F082829586958695F7
:102DA000837099E1899F802D11248883DF91CF91D1
:102DB0001F910F91FF900895CF93DF93C82F8091BB
:102DC0001D0781112DC088E60E94311C8EE00E94F3
:102DD0004B1C0E943B1C61E088E60E94241C0E9460
:102DE000A01CD82F88E60E94311C8EE00E944B1C4C
:102DF0008D2F80620E944B1C0E943B1CCC2381F0D3
:102E000088E60E94311C8EE00E944B1C0E943B1CF5
:102E100061E088E60E94241C0E94A01C85FDF0CF82
:102E2000DF91CF910895CF93C82F88E60E94311C7F
:102E300088E08C0F0E944B1C0E943B1C61E088E6DE
:102E40000E94241CCF910C94A01C0F931F93CF932E
:102E50008C01C0E08C2F0E941317F80181938F0121
:102E6000CF5FC833B9F7CF911F910F910895CF93DA
:102E7000DF93C82FD62F88E60E94311C88E08D0F83
:102E80000E944B1C8C2F0E944B1CDF91CF910C9405
:102E90003B1C0F931F93CF938C01C0E06C2FF80164
:102EA00081918F010E943717CF5FC833B9F7CF9157
:102EB0001F910F910895CF93DF93D82F80911D0715
:102EC000882309F188E60E94311C87E00E944B1C90
:102ED0000E943B1C61E088E60E94241C0E94A01C0A
:102EE000C82FDD2371F0C06188E60E94311C87E0A5
:102EF0000E944B1C8C2F0E944B1CDF91CF910C9495
:102F00003B1CCF7EF1CF88E60E94311C8EE00E94F0
:102F10004B1C0E943B1C61E088E60E94241C0E941E
:102F2000A01CC82FDD2339F0CB7FC06488E60E9447
:102F3000311C8EE0DDCFCF7BF9CFCF93DF93EC0157
:102F400080911D078823E9F088E60E94311C87E004
:102F50000E944B1C0E943B1C61E088E60E94241CDE
:102F60000E94A01C8C7FC82B88E60E94311C87E041
:102F70000E944B1C8C2F0E944B1CDF91CF910C9414
:102F80003B1C88E60E94311C8EE00E944B1C0E9474
:102F90003B1C61E088E60E94241C0E94A01C94E077
:102FA000CC0FDD1F9A95E1F7877EC82B88E60E943B
:102FB000311C8EE0DDCFCF93DF93D82F80911C079B
:102FC000882309F188E60E94311C8FE00E944B1C87
:102FD0000E943B1C61E088E60E94241C0E94A01C09
:102FE000C82FDD2371F0C86088E60E94311C8FE095
:102FF0000E944B1C8C2F0E944B1CDF91CF910C9494
:103000003B1CC77FF1CFDF91CF91089580911D07C1
:10301000882361F060E080E00E94371761E080E083
:103020000E94371762E080E00C94371767E080E079
:103030000E94CD1468E080E00E94CD1469E080E039
:103040000E94CD146AE080E00C94CD141F93CF93BE
:10305000DF93C82FD62F142F883108F054C06C335B
:1030600008F051C04C3308F04EC080911D078823F2
:1030700079F060E08C2F0E94371761E08D2F0E945D
:10308000371762E0812FDF91CF911F910C94371792
:10309000842F0E94AC1467E00E94CD148D2F0E94F3
:1030A000AC1468E00E94CD148C2F0E94AC1469E02F
:1030B0000E94CD146AE081E80E94CD148FE00E9446
:1030C000BC146FE08E7F0E94CD1488E60E94311CF4
:1030D0008EE00E944B1C0E943B1C61E088E60E942F
:1030E000241C0E94A01CC82F88E60E94311C8EE080
:1030F0000E944B1C8C2F81600E944B1CDF91CF9152
:103100001F910C943B1CDF91CF911F910895FC01FE
:10311000892B29F04081628184810C9426180895BE
:10312000EF92FF920F931F93CF93DF93EC018B01EC
:103130007A0180911D078823E9F0209721F080E033
:103140000E94131788830115110529F081E00E9460
:103150001317F8018083E114F10429F082E00E9442
:103160001317F7018083DF91CF911F910F91FF908B
:10317000EF90089587E00E94BC148F770E94B314EB
:10318000F701808388E00E94BC148F770E94B314FB
:10319000F801808389E00E94BC148F770E94B314E9
:1031A0008883E1CFCF93DF9300D00F92CDB7DEB706
:1031B000AE014F5F5F4FBE016E5F7F4FCE01039642
:1031C0000E949018EBE0F7E08B8190E09583848378
:1031D0008A8190E093838283898190E091838083C8
:1031E000CF010F900F900F90DF91CF910895FF9234
:1031F0000F931F93CF93DF9300D00F92CDB7DEB71D
:1032000080911D07882349F180E00E941317F82E52
:1032100081E00E941317082F82E00E941317182FD5
:10322000AE014F5F5F4FBE016E5F7F4FCE010396D1
:103230000E94C7158B818F1106C08A81801303C03D
:1032400081E09981911380E00F900F900F90DF91B2
:10325000CF911F910F91FF9008958FE00E94BC14B1
:10326000182F117080FF04C06FE08E7F0E94CD1474
:10327000812FEACFCF93DF93FC01DB0146A157A159
:1032800027A930AD14968D919C911597421753073D
:103290000CF12417350754F042175307D9F4C4A191
:1032A000D5A165A976A96C177D07A4F484179507A5
:1032B000A4F088319105A4F02817390749F481E07A
:1032C00012964D915C9125A936A9421753074CF0EF
:1032D00080E007C0841795077CF38217930764F793
:1032E00081E0DF91CF910895EF92FF920F931F93AA
:1032F000CF93DF93FC01EB01DC01A85BBF4F8C8116
:103300009D812D913C91820F931F28E1E22EF12C9B
:10331000B7010E94CD299C0195838483DF01AA5BBC
:10332000BF4F0D911C918A819B81800F911F6CE38F
:1033300070E00E94CD29938382838A819B81080F4C
:10334000191F0C3311053CF0C9010196B7010E9409
:10335000CD2995838483DF91CF911F910F91FF90A9
:10336000EF900895CF93DF93EC01BC016F5E7F4F28
:103370000E9474198B818F938A818F938D818F9393
:103380008C818F9383EC92E09F938F930E940B2FFD
:10339000BE01CE010E943A190F900F900F900F902E
:1033A0000F900F9040E08823D9F06A818C810E94B1
:1033B00026188B818F938A818F938D818F938C8137
:1033C0008F9387EE92E09F938F930E940B2F0F9025
:1033D0000F900F900F900F900F90DF91CF91089565
:1033E0006CA18EA10E9426188DA18F938CA18F9322
:1033F0008FA18F938EA18F9384E193E0E4CF1092FD
:103400008907449A459AE9EBF0E080818E7F8083BA
:1034100080818D7F80838CE08093B80085E48093E9
:10342000BC0078940895880F8093BA000895982F6F
:10343000842F413258F5209189072111FCCF21E0DA
:10344000209389072FEF20931E0710926307280F00
:1034500020936207990F91609093880795EE90935F
:10346000BC00909189079130E1F390916307981720
:1034700010F48091630724E637E0FB01D9019A2F0D
:10348000921B981720F49D919193F9CF80E00895B5
:10349000982F4132B0F5809189078111FCCF32E03D
:1034A000309389073FEF30931E07109263074093D4
:1034B0006207562FA4E6B7E0FB013E2F351B3417F9
:1034C00018F431913D93F9CF492F50E0440F551F27
:1034D0004093880795EE9093BC00222321F09091B1
:1034E00089079230D1F390911E079F3F79F0809128
:1034F0001E07803241F080911E07803331F084E056
:10350000089581E0089582E0089583E0089561328E
:1035100088F420918907243079F460934007282F9C
:10352000A2E4B7E0FC018E2F821B861738F481914C
:103530008D93F9CF81E0089582E0089580E00895A9
:1035400090938507809384070895909387078093CD
:1035500086070895882321F085EC8093BC000895A8
:1035600085E8FBCF85ED8093BC008091BC0084FD95
:10357000FCCF10928907089585EC8093BC001092CF
:10358000890708951F920F920FB60F9211242F935F
:103590003F934F935F936F937F938F939F93AF93DB
:1035A000BF93EF93FF939091B900892F887F803567
:1035B00009F4BCC008F045C0803309F4B2C0A0F5DE
:1035C000883101F1D0F4883009F4A3C0803109F4C6
:1035D000A0C0882309F4E9C0FF91EF91BF91AF919A
:1035E0009F918F917F916F915F914F913F912F911B
:1035F0000F900FBE0F901F901895803209F491C064
:10360000883251F79091630780916207981708F00C
:103610008AC0E091630781E08E0F80936307F0E03A
:10362000EC59F84F808177C0803409F48BC088341E
:1036300009F479C0883381F680931E070E94BC1A72
:10364000CBCF803A09F498C060F5803809F482C085
:10365000F8F48036B9F080F4883509F0BDCFE091F8
:10366000630781E08E0F809363078091BB00F0E0D9
:10367000EC59F84F808357C0803721F0987E9836F8
:1036800009F0AACF83E08093890710921F0745C0F5
:10369000803909F45FC0987E983809F09DCF85E89D
:1036A0003DC0883BD9F058F5883A19F0803B09F0C5
:1036B00093CF84E0809389071092410710924007CE
:1036C000E0918607F0918707099580914007811165
:1036D00005C081E08093400710924207E0914107C6
:1036E00081E08E0F80934107F0E0EE5BF84F808120
:1036F0008093BB00909141078091400727C0907F45
:10370000903C09F069CF85EC8093BC00109289074A
:1037100063CF809188078093BB0085EC8093BC00C9
:103720005BCF80931E070E94B21A56CFE0916307C9
:1037300081E08E0F809363078091BB00F0E0EC592D
:10374000F84F80839091630780916207981708F083
:10375000A6CFE3CF80911F07803208F0A0CFE09181
:103760001F0781E08E0F80931F078091BB00F0E060
:10377000E05EF84F8083D1CF80911F07803230F414
:10378000E0911F07F0E0E05EF84F10820E94B21A4D
:1037900060911F0770E0E0918407F091850780E257
:1037A00097E0099510921F0749CF10921E07BBCFD3
:1037B000CF93DF93DC01CB01E0918A07F0918B0777
:1037C0003097E9F03091B3072091B2073217B8F083
:1037D00040E0242F30E02817390754F4ED01C20FE0
:1037E000D31F58812C54384FE90158834F5FF1CFD4
:1037F0001092B3078093B207DF91CF910994DF91C4
:10380000CF910895E0918C07F0918D07309729F0C2
:103810001092900710928F07099408951092B307A1
:103820001092B2071092900710928F070C94FF1914
:103830000E94131A82E09CE10E94A51A88ED9BE188
:103840000E94A01A0C940E1C462F613208F040E230
:1038500064EB77E00E94171A1092B3078093B207C7
:10386000089591E090938E078093B107109290078E
:1038700010928F07089521E040918F0761E977E06A
:103880008091B1070E94481A1092900710928F07FA
:1038900010928E070895CF93DF930F92CDB7DEB7C6
:1038A000898380918E078823A9F080918F078032C9
:1038B00068F480919007E82FF0E0EF56F84F998177
:1038C00090838F5F8093900780938F070F90DF9195
:1038D000CF91089561E0CE0101960E94871AF6CF3C
:1038E0000F931F93CF93DF9320918E07222369F0CC
:1038F0008C01EC01C60FD11D0C171D0761F0F801FA
:1039000081918F010E944B1CF7CFDF91CF911F91C6
:103910000F910C94871ADF91CF911F910F91089509
:10392000DC010D900020E9F71197BD01681B790BB0
:103930000C94701C8091B2079091B307891B089575
:103940009091B3078091B207981748F4E92FF0E0FF
:10395000EC54F84F80819F5F9093B307089580E007
:10396000089590938B0780938A07089590938D070D
:1039700080938C0708950895DF92EF92FF920F9342
:103980001F93CF93DF93CDB7DEB761970FB6F8944F
:10399000DEBF0FBECDBF8C01DC01D5961C921E92FE
:1039A000D4978C91282F082E000C330B3F938F93C4
:1039B00082E493E09F938F930E940B2FF80184A9D8
:1039C00095A9E80FF91F20810F900F900F900F908D
:1039D000223509F44DC0233509F4A7C1293409F073
:1039E00038C49C012E5F3F4F223331050CF01EC4BA
:1039F000D801D5963C932E93D497AC014D5F5F4F81
:103A00008F9709F413C4200F311FF9019081D596C7
:103A10005C934E93D4979053040F151FD8018C914B
:103A2000BAE09B9F800D112460ED680F81538236B0
:103A300008F00AC48AE090E00E94642362E575E021
:103A40008AE090E00E94512362E08BE090E00E94C7
:103A50006423809152051F928F938EED93E09F9384
:103A60008F930E940B2F0F900F900F900F90DAC33F
:103A70009C012E5F3F4F223331050CF0D7C3D80194
:103A8000D5963C932E93D497200F311FF901408196
:103A9000042E000C550B405351096AE0D62ED49EDB
:103AA000B001D59E700D1124AC014D5F5F4F8F3278
:103AB000910509F4BBC3D5965C934E93D497400F00
:103AC000511FDA012C91022E000C330B20533109C7
:103AD000260F371F3E832D830596823391050CF008
:103AE000A5C3F80195AB84AB800F911FDC018C91CD
:103AF000282F082E000C330B3F938F9331E5E32ED4
:103B000033E0F32EFF92EF920E940B2FF80184A96D
:103B100095A9E80FF91F2081022E000C330B2053CA
:103B20003109D29EA001D39E500D11245C834B839A
:103B300001960F900F900F900F90823391050CF02B
:103B400075C3D801D5969C938E93D497800F911FFF
:103B5000FC018081282F082E000C330B3F938F939C
:103B6000FF92EF920E940B2FD801D4968D919C91D9
:103B7000F801E80FF91F2081022E000C330B2053AF
:103B800031094B815C81240F351F3C832B839C01C1
:103B90002E5F3F4F0F900F900F900F902233310503
:103BA0000CF044C3F80135AB24AB200F311FD90111
:103BB0004C91042E000C550B40535109D49EB0017A
:103BC000D59E700D1124AC014D5F5F4F8F32910572
:103BD00009F42CC355AB44AB400F511FFA012081AF
:103BE000022E000C330B20533109260F371F3A8366
:103BF00029839C012B5F3F4F223331050CF016C304
:103C0000D801D5963C932E93D497200F311FF901FC
:103C10004081042E000C550B40535109D49EB00135
:103C2000D59E700D1124AC014A5F5F4F8C32910517
:103C300009F4FCC2D5965C934E93D497400F511F64
:103C4000DA012C91022E000C330B20533109260F80
:103C5000371F38872F839C01285F3F4F2233310560
:103C60000CF0E4C2F80135AB24AB200F311FD901B1
:103C70004C91042E000C550B405351096AE0649F8F
:103C8000F001659FF00D1124AC01475F5F4F893251
:103C9000910509F4CBC2D801D5965C934E93D49785
:103CA000400F511FDA012C91022E000C330B2053D0
:103CB00031092E0F3F1F3A8729879C01255F3F4F0F
:103CC000223331050CF0B2C2F80135AB24AB200F22
:103CD000311FD9012C91022E000C330B20533109D6
:103CE000629FA001639F500D11249C01245F3F4FF0
:103CF000869709F49BC235AB24AB020F131FF80162
:103D00008081082E000C990BC097840F951F9C870B
:103D10008B87CE0101960E94261681E08093530581
:103D20008AE593E00E94262F7DC29C012E5F3F4FC3
:103D3000223331050CF07AC2D801D5963C932E93EC
:103D4000D497200F311FF9014081042E000C550B30
:103D5000405351092AE0F22EF49EB001F59E700DF9
:103D6000112470937B0560937A05AC014D5F5F4F22
:103D70008F32910509F45AC2D5965C934E93D4972D
:103D8000400F511FDA012C91022E000C330B2053EF
:103D90003109260F371F30937B0520937A059C014C
:103DA0002B5F3F4F223331050CF040C2F80135AB99
:103DB00024AB200F311FD9014C91042E000C550B60
:103DC00040535109F49EB001F59E700D112470937B
:103DD000790560937805AC014A5F5F4F8C3291059D
:103DE00009F424C255AB44AB400F511FFA012081A6
:103DF000022E000C330B20533109260F371F30934E
:103E00007905209378059C01285F3F4F22333105C7
:103E10000CF00CC2D801D5963C932E93D497200F6A
:103E2000311FF9012081022E000C330B2053310980
:103E3000F29EA001F39E500D1124509377054093FC
:103E400076059C01275F3F4F899709F4EFC1D5960E
:103E50003C932E93D497200F311FD9018C91082EBB
:103E6000000C990BC097840F951F90937705809352
:103E7000760564E170E086E795E00E94F12364E155
:103E800070E086E795E00E942424809177058F9367
:103E9000809176058F93809179058F938091780535
:103EA0008F9380917B058F9380917A058F938EE617
:103EB00093E09F938F930E940B2FF80184A995A9FB
:103EC00002960FB6F894DEBF0FBECDBF82339105C8
:103ED0000CF0ACC195AB84AB800F911FDC018C91D1
:103EE000082E000C990BC097F89E9001F99E300D9A
:103EF000112430938C0520938B0584A995A90196F4
:103F0000823391050CF092C195AB84AB800F911F69
:103F1000FC018081082E000C990BC09720918B0525
:103F200030918C05820F931F90938C0580938B05A5
:103F3000D801D4968D919C91D597029682339105A4
:103F40000CF074C1D5969C938E93D497800F911FDB
:103F5000FC018081082E000C990BC097F89E9001FF
:103F6000F99E300D112430938A0520938905D4964B
:103F70008D919C91D5970196823391050CF056C195
:103F8000D5969C938E93D497800F911FDC018C91D2
:103F9000082E000C990BC0972091890530918A0555
:103FA000820F931F90938A0580938905F80184A955
:103FB00095A90296823391050CF038C195AB84AB7C
:103FC000800F911FDC018C91082E000C990BC0977B
:103FD000F89E9001F99E300D1124309388052093AE
:103FE000870584A995A90196823391050CF01EC11D
:103FF00095AB84AB800F911FFC018081082E000CD3
:10400000990BC0972091870530918805820F931FE7
:10401000909388058093870567E170E087E895E0D5
:104020000E94F12367E170E087E895E00E94242474
:10403000809188058F93809187058F9380918A0561
:104040008F93809189058F9380918C058F938091B8
:104050008B058F9384E993E09F938F930E940B2F9E
:10406000D801D4968D919C91D59702960FB6F8946D
:10407000DEBF0FBECDBF823391050CF0D7C0D59601
:104080009C938E93D497800F911FDC018C91082E06
:10409000000C990BC097F89E9001F99E300D1124E9
:1040A00030939D0520939C05F80184A995A901965C
:1040B000823391050CF0BAC095AB84AB800F911F91
:1040C000DC018C91082E000C990BC09720919C0567
:1040D00030919D05820F931F90939D0580939C05C1
:1040E00084A995A90296823391050CF09FC095ABE7
:1040F00084AB800F911FFC018081082E000C990B6E
:10410000C097F89E9001F99E300D112430939B05C5
:1041100020939A05D801D4968D919C91D5970196BC
:10412000823391050CF082C0D5969C938E93D497E0
:10413000800F911FFC018081082E000C990BC09705
:1041400020919A0530919B05820F931F90939B05B8
:1041500080939A05D4968D919C91D597029682333F
:1041600091050CF063C0D5969C938E93D497800FE5
:10417000911FDC018C91082E000C990BC097F89EC2
:104180009001F99E300D11243093990520939805E4
:10419000F80184A995A90196823391050CF046C0D7
:1041A00095AB84AB080F191FD8018C91082E000C19
:1041B000990BC0972091980530919905820F931F14
:1041C00090939905809398056AE170E088E995E0FD
:1041D0000E94F1236AE170E088E995E00E942424BE
:1041E000809199058F93809198058F9380919B057D
:1041F0008F9380919A058F9380919D058F938091E5
:104200009C058F9388EB93E09F938F930E940B2FD5
:1042100062E08CE090E00E9464230FB6F894DEBF69
:104220000FBECDBF84E294E00E94262F61960FB6A8
:10423000F894DEBF0FBECDBFDF91CF911F910F91DC
:10424000FF90EF90DF9008951F926F9388EF93E0B7
:1042500006CC8EE094E066CDFC0182A993A981335F
:1042600091052CF4019693AB82AB80E0089581E038
:104270000895FC01A2A9B3A9A80FB91F6C930C94CF
:104280002C21FC0113AA12AA0C943921FC0184A947
:1042900095A9680F791F6233710524F475AB64AB7F
:1042A00080E0089581E008950F931F93CF93DF93EB
:1042B0008EE480937C0086E880937A0087EE93E01A
:1042C0000197F1F700C0000080917A00806480932C
:1042D0007A0080917A0086FDFCCF87EE93E001970B
:1042E000F1F700C0000080917A00806480937A002A
:1042F00080917A0086FDFCCF8FE097E20197F1F77D
:1043000000C000008091780090917900C92FD0E022
:10431000082F10E01F929F931F928F9389E394E0E0
:104320009F938F930E940B2FDC2FCC27C02BD12B78
:10433000CE011F921F929F938F938CE494E09F93E2
:104340008F930E940B2F80E09CE2BE010E94B9294E
:10435000EB01CB0199279F938F9387E594E09F937F
:104360008F930E940B2F80917A008F7780937A0031
:104370008DB79EB740960FB6F8949EBF0FBE8DBF07
:104380008C2FDF91CF911F910F910895CF93DF93E1
:1043900000D000D0CDB7DEB70E9454216AE00E9461
:1043A000AD29282F30E050E040E029833A834B8349
:1043B0005C83CA01B9010E944F2C69837A838B8385
:1043C0009C8369817A818B819C810F900F900F90E3
:1043D0000F90DF91CF9108959F92AF92BF92CF92AD
:1043E000DF92EF92FF920F931F93CF93DF938C0195
:1043F000F42EE52ED62EC72E59018BE7F8018083C7
:10440000E801229683E48183809152051F928F9365
:1044100089E494E09F938F93DF93CF930E94522F70
:10442000C80FD91F8CE2982EFE019192CF0164E64D
:1044300074E00E945B2E2596F50181818F93808127
:104440008F9383818F9382818F9385818F938481D2
:104450008F9380E691E09F938F93DF93CF930E9499
:10446000522FC80FD91F9992CF92DF92EF92FF92ED
:1044700089E694E09F938F93DF93CF930E94522F0E
:10448000C80FD91F8DE788831982F8010190002099
:10449000E9F7CF0101972DB73EB7285E3F4F0FB622
:1044A000F8943EBF0FBE2DBF801B910BDF91CF91C3
:1044B0001F910F91FF90EF90DF90CF90BF90AF9042
:1044C0009F9008958EE694E00C94262F0895E5EDD4
:1044D000F7E087E090E0958384838EE190E093831A
:1044E0008283118210829783868381E090E0918796
:1044F000808786E190E0938782870895FC0120857C
:1045000031858091DD079091DE0782179307B4F122
:104510002817390789F5268137818091DB0790912B
:10452000DC078217930754F12817390729F52481EE
:1045300035818091D9079091DA0782179307F4F0BB
:1045400028173907C9F4228133818091D7079091C8
:10455000D8078217930794F02817390769F4408128
:1045600051812091D5073091D60781E02417350776
:104570003CF04217530721F080E0089581E0089550
:104580000895CF92DF92EF92FF920F931F93CF93F4
:10459000DF93CDB7DEB768970FB6F894DEBF0FBED6
:1045A000CDBF182F0E9467228091D40781116AC065
:1045B0000E942F15F82E092F103278F584E894E028
:1045C0000E94262F812F90E0B0E0A0E08D8B9E8B83
:1045D000AF8BB88FBC01CD010E944D2C2F2D302FF9
:1045E000462F572FBC01DE0111966D01CD010E94AF
:1045F000EC21E82EDF92CF928EE994E09F938F9387
:104600000E940B2F6E2DC6010E94F10581E0809360
:10461000D4070F900F900F900F908F2D902F0E9426
:104620007E22882379F18CEA94E00E94262F812F44
:1046300090E0B0E0A0E08D8B9E8BAF8BB88FBC017B
:10464000CD010E944D2C2F2D302F462F572FBC010E
:104650008E010F5F1F4FC8010E94EC21F82E1F939F
:104660000F938EE994E09F938F930E940B2F6F2DF1
:10467000C8010E94F10581E08093D4070F900F904C
:104680000F900F9068960FB6F894DEBF0FBECDBFA7
:10469000DF91CF911F910F91FF90EF90DF90CF901E
:1046A00008959C01FB01211584E0380758F49FB35D
:1046B000892F827091FDFBCF32BD21BDF89A90B554
:1046C0009083089582E008959C01211584E03807C5
:1046D00058F49FB3892F827091FDFBCF32BD21BD6D
:1046E00060BDFA9AF99A089582E00895FF920F93B7
:1046F0001F93CF93DF930F92CDB7DEB78C01F62EC9
:10470000011584E0180730F51982BE016F5F7F4FF5
:10471000C8010E945123811116C09981F91699F0A0
:104720006F2DC8010E94642381110DC0BE016F5F0F
:104730007F4FC8010E945123811105C081E09981FA
:104740009F1101C080E00F90DF91CF911F910F91D9
:10475000FF90089582E0F7CFEF92FF920F931F939F
:10476000CF93DF938C01EB017B01E40EF51ECE1598
:10477000DF0579F06991C8010E9476230F5F1F4F12
:104780008823A9F3DF91CF911F910F91FF90EF90B4
:10479000089580E0F7CFCF92DF92EF92FF920F93D0
:1047A0001F93CF93DF938C017B016A01D0E0C0E0BF
:1047B000CC15DD0561F0B7016C0F7D1FCE01800FB8
:1047C000911F0E945123811103C02196F1CF80E0F7
:1047D000DF91CF911F910F91FF90EF90DF90CF90DD
:1047E00008950F931F93CF93DF93EC018B016C819E
:1047F000C8010E9464236A81C80101960E94642353
:104800006881C80102960E94642389818F93888100
:104810008F938B818F938A818F938D818F938C81DE
:104820008F938AEC94E09F938F930E940B2F8DB708
:104830009EB708960FB6F8949EBF0FBE8DBFDF914E
:10484000CF911F910F9108950F931F93CF93DF93F3
:10485000EC018B01BC016C5F7F4FC8010E945123AA
:10486000BE016E5F7F4FC80101960E945123BE01B9
:10487000C80102960E94512389818F9388818F936A
:104880008B818F938A818F938D818F938C818F936E
:1048900085EF94E09F938F930E940B2F8DB79EB767
:1048A00008960FB6F8949EBF0FBE8DBFDF91CF91D3
:1048B0001F910F910895A5E1B0E0E1E6F4E20C94B8
:1048C000BC2A7C011B015A01DC0117961C921E9226
:1048D000169713968C9181FF68C3FE0131964F01A4
:1048E000D70113969C91F10193FD859193FF8191DE
:1048F0001F01882309F4EDC2853239F493FD8591B7
:1049000093FF81911F01853239F4B70190E00E9435
:10491000DB2E65015601E4CF10E0512C00E000329F
:1049200038F48B3209F190F48032F9F0833209F1D6
:1049300007FD34C020ED280F2A3020F506FF1BC0EC
:10494000BAE01B9F200D1124122F05C08D3279F083
:10495000803371F70160F10193FD859193FF81919F
:104960001F018111DCCF1AC002600460F4CF08601F
:10497000F2CF0061F0CFEAE05E9E200D1124522EAE
:104980000062E9CF8E3221F406FDA3C20064E3CFBA
:104990008C3611F40068DFCF8836E9F29BEB980F74
:1049A000933008F073C00061805E06FF16E00F735D
:1049B000702E853609F071C0689476F877FE77C05E
:1049C000812F1C3308F08BE344244394480E27E0E6
:1049D000D5014D915D916D917D916D014C875D8704
:1049E0006E877F87042DA4016C857D858E859F85CC
:1049F0000E946F2D5C01B981BC87B0FF04C06DE2DD
:104A0000662EB3FF0BC05BE2652E71FC07C0E72D7D
:104A1000E4706E2E72FE02C070E2672E0C850C7080
:104A200009F456C06110C4C2F3E000E0F51598F433
:104A300083E0052D081B73FC07C0B70180E290E0FE
:104A40000E94DB2E0150C9F7662029F0B701862DA0
:104A500090E00E94DB2EFC8548E6A42E40E0B42EB8
:104A6000F3FD04C03CE6A32E30E0B32E172D1071E9
:104A7000F5018491811122C0002309F44BCFB701C5
:104A800080E290E00E94DB2E0150F6CF9BE9980F68
:104A9000933008F041C10F7E88CF863619F46894B0
:104AA00077F88CCF112309F489CF115087CF212FAC
:104AB000183010F027E017E0412C8ACF11118052F6
:104AC000B70190E00E94DB2E2FEFA21AB20AD0CFDE
:104AD00077FE78C04A0CFC85F4FF04C08A818133DC
:104AE00009F44A9414140CF090C028E0241510F432
:104AF00028E0422E85E090E077FE06C0C501B7FEB3
:104B000002C090E080E0019661100196112331F01F
:104B1000212F30E02F5F3F4F820F931F5816190649
:104B200019F014F0052D081B872D897011F401115F
:104B300071C0662029F0B701862D90E00E94DB2E1F
:104B400073FC02C001116DC077FE98C0B98AA88AB3
:104B5000B7FE02C0198A188A68887988A5014419A5
:104B600051095D8B4C8B412E512C66277727641998
:104B700075097B8B6A8BA614B7040CF459C08C8919
:104B80009D89861597050CF053C0F501E619F709C4
:104B9000E80DF91D818191E0691A7108AA89BB8924
:104BA0006A167B060CF446C0B70190E00E94DB2E2B
:104BB000BFEF6B167B06F9F6B7018EE290E00E941C
:104BC000DB2ED9CF76FC96CFE12FF0E0EA15FB057E
:104BD0003CF03CEFA3163FEFB30614F0689477F86F
:104BE0003296E80DF91D01C01150112319F0829180
:104BF0008033D1F377FE7ECF44244394410E1A15BF
:104C00001B0431F02CF01A1975CF4424439472CF51
:104C100010E070CFB70180E290E00E94DB2E0150DF
:104C200086CFB70180E390E00E94DB2E01508ACF4F
:104C300080E3B1CF688979896150710940945094BB
:104C4000E889F9894E165F06A4F4461A570A460EFB
:104C5000571EA414B50441F49A81963368F4953331
:104C600019F4FC85F4FF08C0B70190E00E94DB2E28
:104C700003CF512C412CEBCF81E3F6CF8A818133D6
:104C800019F02C852F7E2C87B70190E00E94DB2E37
:104C90001123A9F0B7018EE290E00E94DB2E92E092
:104CA000692E610E12E0E12F1F5FE80DF92DF11D55
:104CB0008081B70190E00E94DB2E6112F4CF85E67F
:104CC00090E074FE02C085E490E0B7010E94DB2E04
:104CD000B7FC06C0A114B104C1F43C8534FF15C073
:104CE000B194A194B1088DE2B70190E00E94DB2E4F
:104CF00080E35AE0A516B10454F4B70190E00E9495
:104D0000DB2EB701C501C096B1CF8BE2EDCF8F5F2F
:104D10004AE0A41AB108EDCF8336B9F0833709F41D
:104D20003CC0833509F04FC0D501AD90BD906D01F9
:104D3000612F70E006FD02C06FEF7FEFC5010E949A
:104D4000472E3C01102F10680DC0650162E0C60EB1
:104D5000D11CD5018C91898366246394712C5401F4
:104D6000102F1F7713FD04C05614170409F020F507
:104D7000052D6114710409F47FCEF50117FD8591AD
:104D800017FF81915F01B70190E00E94DB2E0111B6
:104D90000150B1E06B1A7108ECCFF501A190B19010
:104DA0006F01612F70E006FD02C06FEF7FEFC5015C
:104DB0000E94712E3C01D4CFB70180E290E00E94A6
:104DC000DB2E5A94D1CF843619F0893609F070C0A1
:104DD00007FF65C0F50161917191819191916F011A
:104DE0000F7697FF08C090958095709561957F4FDD
:104DF0008F4F9F4F00682AE030E0A4010E94752F7A
:104E0000A82EA818BA2C602E06FF0BC0E89460F8F4
:104E1000A11638F404FF04C002FD02C00E7E602E0D
:104E2000B12E64FE9AC0FE01EA0DF11D808180332F
:104E300009F08CC0562D597E652E062D087063FC36
:104E40009BC060FE95C01A2DB51410F4150D1B19EA
:104E500064FE98C0B70180E390E00E94DB2E62FE02
:104E600009C088E790E061FE02C088E590E0B701E4
:104E70000E94DB2EA11608F491C0AA94B12C6FEF0A
:104E8000A61AB60AA80CB91CD5018E915D01B7010E
:104E900090E00E94DB2EA814B904B1F7EDCDD50146
:104EA0006D917D916D01072E000C880B990B98CFA9
:104EB000702EE89474F82AE030E0853739F1B02F8D
:104EC000B97F7B2E8037A9F058F48835A9F08F364A
:104ED000D9F0F701868197816596E2E10C94D82A92
:104EE0008837B9F774FE02C0689472F820E130E0A8
:104EF0000DC0689474F8F6CF04FF03C0EB2FE66092
:104F00007E2E20E132E002C028E030E077FE16C0BD
:104F1000D5014D915D916D917D916D014C875D87BE
:104F20006E877F87A4016C857D858E859F850E9415
:104F3000752FA82EA818072D0F7764CFF501819142
:104F400091916F01AC0170E060E0E8CF62FC02C0BB
:104F5000B39473CFB394B39470CF862D867809F44D
:104F60006CCFF6CFB70180E290E00E94DB2EB394C5
:104F7000B514C0F300E06CCF052D0B19B51408F47F
:104F800067CFF8CF862D867809F474CF8BE261FE67
:104F900080E267FC8DE2B70190E06ACFB70180E361
:104FA00090E00E94DB2E115065CF8FEF9FEF94CFE2
:104FB00024E000E0251508F049CD84E03ACDCDB7D6
:104FC000DEB761970FB6F894DEBF0FBECDBF0E946B
:104FD000F30980E991E00E94262F0E940E1C0E9496
:104FE000DE1460E089EA95E00E947D120E9454215F
:104FF0001F928F93809152051F928F938DEA91E0BB
:105000009F938F9381E996E09F938F930E94522FF5
:1050100060E081E996E00E94F1050E945E090E942D
:105020000E1C8BEB91E00E94262F0E940D150E9412
:10503000FC0785ED91E00E94262F0E945F080E94E8
:10504000FC0762E575E08AE090E00E94512364E18C
:1050500070E086E795E00E94242467E170E087E82D
:1050600095E00E9424246AE170E088E995E00E94BE
:10507000242480EC91E09F938F930E940B2F8091CA
:1050800077058F93809176058F93809179058F9323
:10509000809178058F9380917B058F9380917A051D
:1050A0008F9306EE14E01F930F930E940B2F80EB5B
:1050B00091E09F938F930E940B2F809188058F938F
:1050C000809187058F9380918A058F9380918905C0
:1050D0008F9380918C058F9380918B058F931F9375
:1050E0000F930E940B2F8EE991E09F938F930E9464
:1050F0000B2F809199058F93809198058F938091C4
:105100009B058F9380919A058F9380919D058F9336
:1051100080919C058F931F930F930E940B2F0FB6C6
:10512000F894DEBF0FBECDBF80917A0590917B05CC
:1051300048976CF48091780590917905CC973CF470
:105140008091760590917705CC970CF461C08DEE37
:1051500091E00E94262F0E94DB078CE891E09F934C
:105160008F930E940B2F809177058F938091760506
:105170008F93809179058F93809178058F9380919B
:105180007B058F9380917A058F9306EE14E01F9331
:105190000F930E940B2F8CE791E09F938F930E94B7
:1051A0000B2F809188058F93809187058F93809135
:1051B0008A058F93809189058F9380918C058F93B9
:1051C00080918B058F931F930F930E940B2F8AE67C
:1051D00091E09F938F930E940B2F809199058F935D
:1051E000809198058F9380919B058F9380919A056C
:1051F0008F9380919D058F9380919C058F931F9332
:105200000F930E940B2F0FB6F894DEBF0FBECDBFD9
:10521000809152051F928F9386E292E09F938F9325
:105220000E940B2F0F900F900F900F9001E00E94A3
:105230005E090E940E1C0E940D150E94FC070E9430
:10524000542189EA95E00E94DC13682F81E996E0F9
:105250000E949D06182F89EA95E00E949312809182
:10526000A905882309F441C089ED95E00E94760ED6
:1052700090E09E838D8389ED95E00E94920E90E0F0
:105280009C838B8389ED95E00E94B60E90E09A8313
:1052900089838BEC95E00E945A0E90E098878F836B
:1052A0008BEC95E00E942D0E90E09A8789878BEC1D
:1052B00095E00E940A0E9C878B87CE0101960E9482
:1052C00026160E94FC0700935305612F81E996E0A2
:1052D0000E94F10584E595E00E94B2190E94FC0746
:1052E0000E9474090E94380AA2CF8091530581114F
:1052F000ECCF0E94A7070E94FC07E7CFE7ECF6E09F
:1053000014AA13AA16AA15AA81E087AB10AE11AE93
:1053100012AE13AE1092900610928F0689EA95E0B5
:105320000C94780A70E060E08EE09AE00E94912E82
:1053300090930A07809309070895DB018F939F9349
:105340000E94092ABF91AF91A29F800D911DA39F3A
:10535000900DB29F900D11240895991B79E004C01F
:10536000991F961708F0961B881F7A95C9F78095A4
:105370000895AA1BBB1B51E107C0AA1FBB1FA6179C
:10538000B70710F0A61BB70B881F991F5A95A9F7EE
:1053900080959095BC01CD01089597FB072E16F4DA
:1053A000009407D077FD09D00E94B92907FC05D0E9
:1053B0003EF4909581959F4F0895709561957F4F2C
:1053C0000895A1E21A2EAA1BBB1BFD010DC0AA1F46
:1053D000BB1FEE1FFF1FA217B307E407F50720F05E
:1053E000A21BB30BE40BF50B661F771F881F991FD9
:1053F0001A9469F760957095809590959B01AC0122
:10540000BD01CF010895EE0FFF1F0590F491E02D2F
:1054100009940E94292BA59F900DB49F900DA49FE5
:10542000800D911D11240895B7FF0C94092A0E9444
:10543000092A821B930B0895689401C0E894F92F00
:10544000F12B12F00C94502AA0E0B0E0EAE2FAE26C
:105450000C94C22A092E059422F40E94AC2A11232E
:1054600092F4F0E80F26FFEFE094F0940095109589
:10547000B094C094D094A194BF0ACF0ADF0AEF0A77
:10548000FF0A0F0B1F0B0E945B2A07FC0E94AC2A2D
:10549000CDB7DEB7ECE00C94DE2A689401C0E89446
:1054A0008F929F92CF93DF930E945B2ADF91CF91DF
:1054B0009F908F90089588249924F401E401B0E42A
:1054C0009F93AA279A158B049C04ED05FE05CF0532
:1054D000D007A10798F4AD2FDC2FCF2FFE2FE92D99
:1054E000982C892E982F872F762F652F542F432F96
:1054F000322F2227B85031F7BF9127C01B2EBF9102
:10550000BB27220F331F441F551F661F771F881F9D
:10551000991F881C991CEE1FFF1FCC1FDD1FAA1F9F
:10552000BB1F8A149B04EC05FD05CE05DF05A00713
:10553000B10748F08A189B08EC09FD09CE09DF097C
:10554000A00BB10B21601A94E1F62EF49401AF0187
:10555000BE01CD01000C08956095709580959095E1
:1055600030954095509521953F4F4F4F5F4F6F4F6E
:105570007F4F8F4F9F4F08952F923F924F925F9290
:105580006F927F928F929F92AF92BF92CF92DF9253
:10559000EF92FF920F931F93CF93DF93CDB7DEB7B8
:1055A000CA1BDB0B0FB6F894DEBF0FBECDBF09944C
:1055B0002A88398848885F846E847D848C849B84A3
:1055C000AA84B984C884DF80EE80FD800C811B81B1
:1055D000AA81B981CE0FD11D0FB6F894DEBF0FBEE0
:1055E000CDBFED010895002E083090F0982F872F41
:1055F000762F652F542F432F322F22270850F4CFB8
:10560000220F331F441F551F661F771F881F991FC6
:105610000A95B2F7002D089597FD1094002E0830DA
:1056200098F00850232F342F452F562F672F782FAF
:10563000892F912DF4CF1594979587957795679538
:1056400057954795379527950A95AAF71124002D68
:105650000895A29FB001B39FC001A39F700D811D4B
:105660001124911DB29F700D811D1124911D08956B
:105670005058BB27AA270E94502B0C94A12C0E94A3
:10568000932C38F00E949A2C20F039F49F3F19F4A3
:1056900026F40C94902C0EF4E095E7FB0C948A2CE5
:1056A000E92F0E94B22C58F3BA17620773078407D8
:1056B000950720F079F4A6F50C94D42C0EF4E0951F
:1056C0000B2EBA2FA02D0B01B90190010C01CA01BC
:1056D000A0011124FF27591B99F0593F50F4503E67
:1056E00068F11A16F040A22F232F342F4427585F59
:1056F000F3CF469537952795A795F0405395C9F771
:105700007EF41F16BA0B620B730B840BBAF0915028
:10571000A1F0FF0FBB1F661F771F881FC2F70EC0C7
:10572000BA0F621F731F841F48F48795779567959A
:10573000B795F7959E3F08F0B0CF9395880F08F086
:105740009927EE0F9795879508950E94B92B0C9491
:10575000A12C0E949A2C58F00E94932C40F029F41E
:105760005F3F29F00C948A2C51110C94D52C0C9489
:10577000902C0E94B22C68F39923B1F3552391F336
:10578000951B550BBB27AA2762177307840738F0B0
:105790009F5F5F4F220F331F441FAA1FA9F335D00D
:1057A0000E2E3AF0E0E832D091505040E695001CC1
:1057B000CAF72BD0FE2F29D0660F771F881FBB1F7B
:1057C000261737074807AB07B0E809F0BB0B802D59
:1057D000BF01FF2793585F4F3AF09E3F510578F085
:1057E0000C948A2C0C94D52C5F3FE4F3983ED4F3B0
:1057F000869577956795B795F7959F5FC9F7880F59
:10580000911D9695879597F90895E1E0660F771FAA
:10581000881FBB1F621773078407BA0720F0621B3B
:10582000730B840BBA0BEE1F88F7E09508950E9466
:105830001E2C6894B1110C94D52C08950E94BA2C9A
:1058400088F09F5798F0B92F9927B751B0F0E1F041
:10585000660F771F881F991F1AF0BA95C9F714C0F1
:10586000B13091F00E94D42CB1E008950C94D42C66
:10587000672F782F8827B85F39F0B93FCCF386952A
:1058800077956795B395D9F73EF490958095709587
:1058900061957F4F8F4F9F4F0895E89409C097FB04
:1058A0003EF490958095709561957F4F8F4F9F4FF7
:1058B0009923A9F0F92F96E9BB279395F69587953B
:1058C00077956795B795F111F8CFFAF4BB0F11F4FE
:1058D00060FF1BC06F5F7F4F8F4F9F4F16C08823A5
:1058E00011F096E911C0772321F09EE8872F762FDB
:1058F00005C0662371F096E8862F70E060E02AF01C
:105900009A95660F771F881FDAF7880F9695879507
:1059100097F9089597F99F6780E870E060E008952F
:105920009FEF80EC089500240A94161617061806B7
:105930000906089500240A94121613061406050693
:105940000895092E0394000C11F4882352F0BB0F24
:1059500040F4BF2B11F460FF04C06F5F7F4F8F4F87
:105960009F4F089557FD9058440F551F59F05F3FC2
:1059700071F04795880F97FB991F61F09F3F79F071
:1059800087950895121613061406551FF2CF4695F3
:10599000F1DF08C0161617061806991FF1CF869575
:1059A0007105610508940895E894BB276627772759
:1059B000CB0197F908950E94EE2C0C94A12C0E9423
:1059C000932C38F00E949A2C20F0952311F00C941F
:1059D0008A2C0C94902C11240C94D52C0E94B22C5F
:1059E00070F3959FC1F3950F50E0551F629FF00132
:1059F000729FBB27F00DB11D639FAA27F00DB11D4B
:105A0000AA1F649F6627B00DA11D661F829F2227D3
:105A1000B00DA11D621F739FB00DA11D621F839F5A
:105A2000A00D611D221F749F3327A00D611D231F30
:105A3000849F600D211D822F762F6A2F11249F577E
:105A400050409AF0F1F088234AF0EE0FFF1FBB1F81
:105A5000661F771F881F91505040A9F79E3F510540
:105A600080F00C948A2C0C94D52C5F3FE4F3983E84
:105A7000D4F3869577956795B795F795E7959F5FEA
:105A8000C1F7FE2B880F911D9695879597F908957C
:105A90001F93FC0199278827BC01E89411911032CB
:105AA000E9F3193010F01E30C8F31B3251F01D32EB
:105AB00049F4689406C00E947C2E610F711D811DFF
:105AC000911D119110531A30B0F33EF490958095CA
:105AD000709561957F4F8F4F9F4F1F91089528308C
