:100000000C94B7000C94180A0C94DF000C94DF00D9
:100010000C94DF000C94DF000C94DF000C944A0970
:100020000C94DF000C94DF000C94DF000C94DF00D4
:100030000C94DF000C94DF000C94E1000C94DF00C2
:100040000C94DF000C94DF000C9499090C94DF00F1
:100050000C94DF000C94DF000C94DF000C94DF00A4
:100060000C94951A0C94DF006E616E00696E660048
:1000700000407A10F35A00A0724E18090010A5D45F
:10008000E80000E87648170000E40B54020000CABC
:100090009A3B000000E1F505000080969800000002
:1000A00040420F000000A086010000001027000061
:1000B0000000E803000000006400000000000A00E7
:1000C000000000000100000000002C76D888DC67EA
:1000D0004F0823DFC1DFAE59E1B1B796E5E3E45342
:1000E000C63AE651997696E8E6C28426EB898C9B5F
:1000F00062ED407C6FFCEFBC9C9F40F2BAA56FA5FF
:10010000F490055A2AF75C936B6CF9676DC11BFC80
:10011000E0E40D47FEF520E6B500D0ED902E03009B
:10012000943577050080841E080000204E0A0000E8
:1001300000C80C333333330F986E12831141EF8DA7
:100140002114893BE65516CFFEE6DB18D1844B38E7
:100150001BF77C1D901DA4BBE424203284725E2218
:100160008100C9F124ECA1E53D2786289A281124B5
:100170001FBECFEFD8E0DEBFCDBF15E0A0E0B1E0FD
:10018000E4EFF0E602C005900D92AC31B107D9F76B
:1001900027E0ACE1B5E001C01D92AE3EB207E1F749
:1001A00010E0C7EBD0E004C02197FE010E940B29AC
:1001B000C53BD107C9F70E94A7270C944F300C9478
:1001C00000001F921FB61F9211248F939F93EF93ED
:1001D000FF9380912505813019F5909124058FEFCB
:1001E000890F9130D9F4809121059091220580FFEB
:1001F00043C05E9A8091210590912205969587953E
:10020000909322058093210580912305815080934E
:100210002305811102C01092250583E080932405F7
:1002200080912705811120C080912005882331F11C
:1002300080911E05815080931E05811115C010927A
:10024000200510922605E0912905F0E080911C051B
:10025000E65DFA4F8083809129058F5F80932905A1
:10026000803210F010922905FF91EF919F918F91AC
:100270001F901FBE1F9018955E98BCCF80912605D9
:10028000811110C04C99F0CF81E080932605109227
:100290001C0594E090931E0598E090931D058093B3
:1002A0001F05E2CF90911E058FEF890F9130B9F4B1
:1002B00080911F054C9B05C090911C05982B909335
:1002C0001C05880F80931F0580911D058150809328
:1002D0001D05811103C081E08093200583E0809398
:1002E0001E05C2CF109225051092260510922705F3
:1002F0005E9A569A54989FB7F89481E287BD82E03F
:1003000084BD85BDEEE6F0E080818260808316BC0E
:100310009FBF089510922705089581E080932705D7
:10032000089590912805809129059817E1F3E92F08
:10033000F0E0E65DFA4F80819F5F903218F4909371
:10034000280508951092280508959091290581E0C7
:1003500020912805291301C080E0089510922905F5
:100360001092280508959091250581E0913009F0BB
:1003700080E00895909125059130E1F393E090930A
:1003800024059AE090932305880F990B926090932F
:1003900022058093210581E0809325050895CF9360
:1003A000DF93EC018991882319F00E94BA01FACFFA
:1003B000DF91CF910895CF93DF93EC01FE018491FB
:1003C0002196882319F00E94BA01F8CFDF91CF91CE
:1003D0000895CF93DF93D82FC62F67E084E40E945F
:1003E000D2088D2F0E94DF058C2F0E94DF05C82FB9
:1003F00067E084E40E94AE088C2FDF91CF910895CE
:1004000060E08F770C94E9018AE10E94000240913C
:100410004C0550914D0560914E0570914F05411569
:10042000514A6C4B734318F09DE9891B089594EA77
:10043000FCCF89E10E94000285958595089583E1AE
:100440000E94000290914B05891B08950E941F0293
:10045000882341F080914B058F5F80934B0580E0AE
:100460000C9400028FEF08958EE10E9400028295A5
:100470008F700895CF93DF9300D000D0CDB7DEB753
:100480008DE10E94000290E09C0144E035952795A3
:100490004A95E1F7803A9105E0F4F901EE0FFF1F6C
:1004A000E20FF31FE95FFE4F80819181A2819C01E1
:1004B0004A2F50E029833A834B835C8369817A8198
:1004C0008B819C810F900F900F900F90DF91CF91B7
:1004D000089580E291EAA7E0B0E089839A83AB8334
:1004E000BC83ECCFCF92DF92EF92FF920F931F93DA
:1004F000CF93DF9300D000D000D0CDB7DEB788E235
:100500000E940002877090E0B0E0A0E0CC24D82EDA
:10051000E92EFA2E89E20E940002C80ED11CE11CCD
:10052000F11CFE2CED2CDC2CCC248AE20E94000273
:10053000C80ED11CE11CF11C88E20E94000283FF5E
:1005400003C088E0E81AF1080E943A028B018E830A
:100550009D83C701B6010E945C2B20E030E040E89B
:100560005BE469837A838B839C8369817A818B8145
:100570009C810E940C2C20E034E244EF5BE4698310
:100580007A838B839C8369817A818B819C810E9491
:10059000B22A6B017C01B8018E819D810E945A2B89
:1005A00020E034E244EF58E469837A838B839C83B0
:1005B00069817A818B819C810E94B22A9B01AC0166
:1005C000C982DA82EB82FC8269817A818B819C818B
:1005D0000E940C2C69837A838B839C8369817A8146
:1005E0008B819C810E94242B26960FB6F894DEBF47
:1005F0000FBECDBFDF91CF911F910F91FF90EF9074
:10060000DF90CF90089580680C94E90163E881E859
:100610000E94E90182E10E94000283FD07C08FE091
:1006200097E20197F1F700C00000F4CF68E082E99B
:100630000E94E90181E00895DF92EF92FF920F930B
:100640001F93CF93DF93F82EE92EC62F82E20E94EC
:100650000002D82F2C2F280F3327331F2F3F3105AF
:1006600019F010F0CD2FC095DF2C0F2D1E2D802FEF
:100670008D198C1738F4F80161918F0180E80E9480
:10068000E901F5CF6D2F6C0F82EA0E94E9018C2FF2
:10069000DF91CF911F910F91FF90EF90DF90089520
:1006A000CF93DF930E941F02882381F08DE00E9488
:1006B0000002D82F80E00E940002C82F6D2F8DE825
:1006C0000E94E9018C2FDF91CF9108958FEFFBCF2E
:1006D00061E881E80C94E90160E881E80C94E901A3
:1006E0000C946C03682F823108F061E1623008F4E9
:1006F00062E06250606889E80C94E901AF92BF92B1
:10070000CF92DF92EF92FF920F931F93CF93DF93DD
:10071000382F292FCB01A32FB22F80934C05909314
:100720004D05A0934E05B0934F059B01AD0160E0D0
:1007300070E080E090E003E10E94FB29A12CE8E456
:10074000BE2EF8EECF2EDD24D394E12CF12C00E068
:1007500010E00E945729C22FB32E6A017B01182F87
:10076000D92F00E10E94162A622F86E80E94E90133
:100770002C2F3B2DA601B701812F9D2F08E00E9451
:10078000162A622F87E80E94E9016C2F88E8DF9122
:10079000CF911F910F91FF90EF90DF90CF90BF907E
:1007A000AF900C94E9010F931F93CF93DF938B01CC
:1007B000D82FC92F67E084E40E948A0867E084E4A8
:1007C0000E94AE0862E082E40E948A0862E082E44D
:1007D0000E94D2088FE097E20197F1F700C0000075
:1007E00062E082E40E94AE088FE097E20197F1F7A1
:1007F00000C0000082E40E940002823131F50E94B4
:100800006C03B8018D2F9C2F0E947E0360E08EE860
:100810000E94E90160E08FE80E94E9018CE00E94FB
:100820000002682F63608CE80E94E90164E086EAB8
:100830000E94E90184E10E9472030E94680381E042
:10084000DF91CF911F910F91089580E0F9CFCF9361
:10085000C82F893008F0C8E08DE10E9400026C2F9B
:10086000C53008F465E06450770B660F771F817F11
:10087000682B8DE9CF910C94E901CF93C82F692F94
:1008800080EA0E94E9016C2F81EACF910C94E90182
:10089000682F89EB0C94E9018EE10E940002682F19
:1008A00064608EE90C94E9018EE10E940002682FD9
:1008B0006B7F8EE90C94E90110924A058DE10E944C
:1008C0000002682F6E7F8DE90C94E90181E080932E
:1008D0004A058DE10E940002682F61608DE90C9449
:1008E000E901CF93C82F0E946803CC2369F00E94CE
:1008F000660460E08DE80E94E90160E082EA0E94FF
:10090000E90181E0CF9108950E945C04F2CFCF937A
:10091000DF93D82F82E10E940002C82FDD2329F146
:100920000E9466046D2F82EA0E94E9016C2F82E921
:100930000E94E901C6FF1EC0C5FD1CC010924B05F8
:1009400080914A058823A1F082E20E940002C82F0C
:1009500080E10E940002682F8DE80E94E9010E9458
:1009600068038C2FDF91CF9108950E945C04DECF45
:1009700083E1EBCF81E00E940002863841F060E025
:100980008DE80E94E90166E881E80E94E901C0E083
:10099000E8CFCF93DF93EC011816190664F40E9498
:1009A00066046C2F82EA0E94E90165E881E8DF9124
:1009B000CF910C94E9010E945C04F7CFCF92DF92B3
:1009C000EF92FF92CF93DF930E943A026B017C017A
:1009D0000E943402D82F86E20E940002C82FA7018D
:1009E000960104C05695479537952795DA95D2F725
:1009F00068EE73E080E090E00E94E9286C2F2131DE
:100A000031054105510550F0686086EADF91CF91CC
:100A1000FF90EF90DF90CF900C94E901677FF5CFC6
:100A2000CF93C82F863020F08D30D0F48630C9F4B3
:100A300065EC81EB0E94E9016CE087EB0E94E90123
:100A4000C6E08EE10E9400028F7090E1C99FB00164
:100A50001124682B8EE90E94E901CF910C94DE04E9
:100A6000CCE063EC81EB0E94E9016AE087EB0E9435
:100A7000E901E7CFCF93462F572FBC01C0E049379C
:100A80008EE1580761057105C8F1C1E0413A98E26D
:100A900059076105710590F1C2E0413F8CE35807A9
:100AA0006105710558F1C3E0413491E559076105CD
:100AB000710520F1C4E043318AE7580761057105EB
:100AC000E8F0C5E0453E92EA590761057105B0F0CE
:100AD000C6E0453284EF58076105710578F0C7E03C
:100AE000493498EE590791E06907710538F0C9E07B
:100AF0004139504D6340710508F4C8E08DE10E9412
:100B000000028F7090E1C99FB0011124682B8DE91C
:100B10000E94E901CF910C94DE040F9300E020E0E5
:100B200040E061E080E00E94C00560EC7AEC89E87A
:100B300096E30E94D303811105C085E491E00E94F1
:100B4000572EFFCF62E17AE780E090E00F910C949E
:100B50003A051F93CF93DF93D82FC92F162F0E94EA
:100B60008D0580E00E947104612F8D2F9C2F0E94C3
:100B70001C030E940603DF91CF911F910C946C031C
:100B80000F9394B1986294B924982C9A30E2839F81
:100B9000C001112480722370822B94E0499FA00130
:100BA00011244C70842B30E1639FB00111246071DB
:100BB000862B80648CBD01700DBD0F9108958EBD94
:100BC0000DB407FEFDCF8EB50895BF92CF92DF9290
:100BD000EF92FF920F931F93CF93DF93EC01BB240F
:100BE000B39488E8C82E83E1D82EE12CF12C02E3DF
:100BF00010E08DA99EA92BA93CA928173907D9F186
:100C00002CAD222321F02130D1F01CAE0FC08C0F6F
:100C10009D1FFC0181818B3749F4BCAE10928C067C
:100C200010928B06C8AED9AEEAAEFBAE8DA99EA9D6
:100C30000196B8010E94D5289EAB8DABDACF8C0F00
:100C40009D1FFC01618189E596E06D3739F40E94B2
:100C50000C2189E596E00E948F1CD7CF0E940C21C1
:100C60008111D3CF88AD99ADAAADBBAD892B8A2BAD
:100C70008B2B59F2DBCFDF91CF911F910F91FF901A
:100C8000EF90DF90CF90BF900895FC0187A9882353
:100C900079F080AD91ADA2ADB3AD0097A105B105DE
:100CA00039F00197A109B10980AF91AFA2AFB3AFFD
:100CB00008959F92AF92BF92CF92DF92EF92FF92F0
:100CC0000F931F93CF93DF938C01F62E0E94272161
:100CD000E82EE80122968091A705882309F483C0B5
:100CE0008BE7F801808383E48183809150051F9214
:100CF0008F9326E4C22E24E0D22EDF92CF92DF9390
:100D0000CF930E94832EC80FD91F3CE2B32EB99215
:100D1000BE0187EA95E00E94570DFC01B192BF0128
:100D200087EA95E00E94760DFC01B192BF0187EA47
:100D300095E00E945814EC01B9921092100680912F
:100D400018068F93809117068F93809116068F93C4
:100D5000809115068F938CE591E09F938F93DF939D
:100D6000CF930E94832EC80FD91FB992809164053A
:100D70008F93809163058F93809166058F93809107
:100D800065058F93809168058F93809167058F9398
:100D900080E691E09F938F93DF93CF930E94832E01
:100DA000C80FD91FB9921F92EF92DF92CF92DF93B3
:100DB000CF930E94832EC80FD91FFE01B192CF019D
:100DC0002DB73EB7225E3F4F0FB6F8943EBF0FBE21
:100DD0002DBF249632E069E671E0F31609F467C08E
:100DE0006DE671E064C08BE7F801808383E4818362
:100DF000809150051F928F9386E4C82E84E0D82EF0
:100E0000DF92CF92DF93CF930E94832EC80FD91F1A
:100E10009CE2992EFE019192CF0161E771E00E9460
:100E20008C2D9F828DE2888799868A879B868C8706
:100E30005E01FEE0AF0EB11C9D86809164058F932C
:100E4000809163058F93809166058F9380916505EE
:100E50008F93809168058F93809167058F9380E6CB
:100E600091E09F938F93BF92AF920E94832EE501F2
:100E7000C80FD91F99921F92EF92DF92CF92DF9302
:100E8000CF930E94832EC80FD91FFE019192CF01EC
:100E90002DB73EB72A5E3F4F0FB6F8943EBF0FBE48
:100EA0002DBF249631E068E771E0F31299CF0E94DC
:100EB0008C2D8DE788831982E80109900020E9F7DD
:100EC0002197C01BD10BDF93CF931F930F938CE718
:100ED00091E09F938F930E943C2E0F900F900F9064
:100EE0000F900F900F90CE01DF91CF911F910F9136
:100EF000FF90EF90DF90CF90BF90AF909F900895BC
:100F0000CF93DF93CDB7DEB761970FB6F894DEBF0E
:100F10000FBECDBFE2E5F5E086A197A19E838D834C
:100F200084A195A19C838B8382A193A19A838983B9
:100F30008EE090E098878F8381E090E09A878987A0
:100F400086E190E09C878B87CE0101960E94F9157F
:100F500081E08093510561960FB6F894DEBF0FBE15
:100F6000CDBFDF91CF910895E2E5F5E017A216A27B
:100F700082E090E095A384A313A212A210929B0595
:100F800010929A0590939905809398051092970571
:100F90001092960587E190E090AF87AB8AE390E0EE
:100FA00096AB85AB14AA13AA089543E655E065E60F
:100FB00075E087E695E00E949A15E2E5F5E0828902
:100FC0008F9381898F9384898F9383898F93868967
:100FD0008F9385898F9380E991E09F938F930E94EF
:100FE0003C2E8DB79EB708960FB6F8949EBF0FBEE5
:100FF0008DBF089585EC96E00E9445068091C1065C
:101000009091C206A091C306B091C4060097A105B5
:10101000B10559F00197A109B1098093C1069093D8
:10102000C206A093C306B093C40687EA95E00C9469
:101030004114282F8093C5068091F8069091F906F7
:10104000FC01EB53F94F21830196823391052CF477
:101050009093F9068093F80608951092F90610927D
:10106000F80608950E948D0580E395E7A0E0B0E0C2
:101070008093C1069093C206A093C306B093C406A2
:101080008091C1069091C206A091C306B091C4069A
:10109000892B8A2B8B2BB1F080E00E948704882358
:1010A00079F30E941F02882329F00E9426020E94E1
:1010B0001908F7CF85EC96E00E94E505809151056F
:1010C0008823F1F20895833479F08434C1F08234B6
:1010D00001F524B181E090E001C0880F6A95EAF73C
:1010E0008095822384B9089527B181E090E001C002
:1010F000880F6A95EAF78095822387B908952AB107
:1011000081E090E001C0880F6A95EAF7809582231C
:101110008AB90895833471F08434B1F08234E9F4EB
:1011200084B121E030E001C0220F6A95EAF7822BFA
:1011300084B9089587B121E030E001C0220F6A959B
:10114000EAF7822B87B908958AB121E030E001C027
:10115000220F6A95EAF7822B8AB90895833471F0D9
:101160008434B1F08234E9F485B121E030E001C08B
:10117000220F6A95EAF7822B85B9089588B121E09C
:1011800030E001C0220F6A95EAF7822B88B90895F2
:101190008BB121E030E001C0220F6A95EAF7822B83
:1011A0008BB90895833479F08434C1F0823401F529
:1011B00025B181E090E001C0880F6A95EAF780953B
:1011C000822385B9089528B181E090E001C0880F9D
:1011D0006A95EAF78095822388B908952BB181E05A
:1011E00090E001C0880F6A95EAF7809582238BB959
:1011F0000895442319F0413019F008950C94D20851
:101200000C94AE088334B1F08434B1F08234B1F47C
:1012100023B181E090E0062E02C0880F991F0A9446
:10122000E2F730E08223932302C0959587956A9573
:10123000E2F7089526B1EDCF29B1EBCF81E0089513
:101240000895E1E8F0E08081826080830895109243
:1012500081000895809184009091850096958795EE
:1012600008951092B200E0EBF0E08081826080830C
:101270008FE18093B30017BAE0E7F0E080818260ED
:101280008083E1EBF0E08081856080830895109297
:10129000B10008951F920F920FB60F9211242F9351
:1012A0003F934F935F936F937F938F939F93AF93EE
:1012B000BF93EF93FF930E94FA0717BA8091030739
:1012C00090910407A0910507B09106070196A11D12
:1012D000B11D8093030790930407A0930507B09373
:1012E0000607FF91EF91BF91AF919F918F917F91F1
:1012F0006F915F914F913F912F910F900FBE0F9083
:101300001F901895CF93DF9300D000D0CDB7DEB7F4
:101310008091030790910407A0910507B0910607FB
:10132000BC01CD010F900F900F900F90DF91CF91E6
:1013300008951F920F920FB60F9211242F933F938F
:101340004F935F936F937F938F939F93AF93BF93CD
:10135000EF93FF938091C60080930207809102076C
:101360000E94190882E08093C000FF91EF91BF9125
:10137000AF919F918F917F916F915F914F913F912D
:101380002F910F900FBE0F901F9018958091070717
:10139000909108079093E7078093E60789E180938F
:1013A000C4001092C50088E98093C10082E0809358
:1013B000C00008959091C00095FFFCCF8093C600B7
:1013C000089590910001992329F00E94DA0990E094
:1013D00080E0089581E090E00895EF92FF920F93EE
:1013E0001F93CF93DF93EB018C01F12CE12CEC16D2
:1013F000FD064CF4F80181918F010E94DA09FFEF9C
:10140000EF1AFF0AF4CFCE01DF91CF911F910F9118
:10141000FF90EF90089583B7816083BF83B7817F8A
:10142000846083BF7894889583B78E7F83BF089547
:10143000E09A18950F931F93CF93DF93EC018B01E4
:101440000E942A09998388830A831B83DF91CF91A5
:101450001F910F910895CF93DF93EC010E942A0909
:101460009C014A815B8181E04115510561F08881D1
:1014700099818217930750F4281B390B81E02417B8
:10148000350708F480E0DF91CF910895281B390BD0
:1014900021503048F3CFFC01108211821382128256
:1014A0001482158216821782108612861186138680
:1014B0001486158616861786118A108A128A138A50
:1014C000148A158A168A108E178A118E128E138E20
:1014D000148E158E12A213A214A215A216A217A280
:1014E00010AA11AA12AA13AA14AA15AA16AE17AE08
:1014F000DC01DE9616961D921D921D921C92199784
:101500001E961C9211961C92119716961D921D9272
:101510001D921C9219971E961C9211961C9211975F
:1015200016961D921D921D921C9219971E961C9242
:1015300011961C92119716961D921D921D921C9247
:1015400019971E961C9211961C92119716961D9231
:101550001D921D921C9219971E961C9211961C9218
:1015600011961C92509682E08C9311961C921196C3
:101570001C9211961C92119611961C921E92129614
:1015800011961C921E9212961D921D921D921C92F3
:10159000139714961D921D921D921C9213971496E8
:1015A0001D921D921D921C92139714961D921D92CE
:1015B0001D921C92139714961D921D921D921C92BF
:1015C0001397E957FF4F10820895862F062E000CBF
:1015D000990B2FEB260F263010F4C797089561560C
:1015E000663018F4875591090895C09708951F93A0
:1015F000CF93DF9300D000D000D0CDB7DEB78D837E
:101600009E83AD81BE811C911D3219F41196BE835B
:10161000AD838D819E810E94792C69837A838B832F
:101620009C83A4E6B0E09B01AC010E941129AB01B0
:10163000BC01ED81FE81FA83E983E981FA81DF0152
:101640002D91BA83A983822F022E000C990BC0978B
:101650000A9798F32E3231F58181082E000C990BF0
:10166000C0978A309105F0F4AAE0A89F9001A99F45
:10167000300D1124C901330FAA0BBB0B480F591FA2
:101680006A1F7B1F8281082E000C990BC0978A303D
:10169000910540F4092E000CAA0BBB0B480F591FF3
:1016A0006A1F7B1F1D3239F47095609550954195E6
:1016B0005F4F6F4F7F4FCB01BA0126960FB6F8945C
:1016C000DEBF0FBECDBFDF91CF911F9108958F92E6
:1016D0009F92AF92BF92EF92FF920F931F93CF937F
:1016E000DF93CDB7DEB72D970FB6F894DEBF0FBEF0
:1016F000CDBF8D8799878B010E94792C24E630E03D
:1017000040E050E00E94E928490169837A838B8395
:101710009C839B01AC0160E876E988E990E00E9437
:10172000A5286D837E838F839887D8018D929C92A4
:10173000ED85F9852191822F022E000C990BC0971F
:101740000A97C0F32E32E9F57F0120E836E948E92F
:1017500050E029833A834B835C838AE0882E912C66
:10176000A12CB12CD701ED917D012E2F022E000C62
:10177000330B205331093A8729872A30310508F580
:1017800069817A818B819C81A50194010E94E9285D
:1017900029833A834B835C83A985BA850E941C29DF
:1017A00069877A878B879C872D813E814F815885F9
:1017B000260F371F481F591F2D833E834F8358879D
:1017C000D1CFA5E0B0E02D813E814F8158850E94A8
:1017D0001129DC01CB010196A11DB11DBC01CD0178
:1017E00023E030E040E050E00E94E928D801129662
:1017F0002D933D934D935C93159716961C922D96C1
:101800000FB6F894DEBF0FBECDBFDF91CF911F9111
:101810000F91FF90EF90BF90AF909F908F900895A1
:10182000CF93DF9300D000D0CDB7DEB720E030E01B
:1018300044E351E469837A838B839C8369817A8151
:101840008B819C810E94412A20E030E044EB51E4EE
:1018500069837A838B839C8369817A818B819C8164
:101860000E94B22A69837A838B839C8369817A81FF
:101870008B819C810E94242B69837A838B839C8338
:1018800089819A8160E170E00E94D528FC01EE0F09
:10189000FF1FEB5DFE4F808191810F900F900F90A5
:1018A0000F90DF91CF910895CF93DF93EC0187E004
:1018B000FE017096DE01129601900D928A95E1F775
:1018C00087E0FE017796DE01199601900D928A95C8
:1018D000E1F70E9482096E8F7F8F88A399A381E030
:1018E00089838883DF91CF9108959B01BC01605F5C
:1018F0007F4FC9010C94670B9B01BC01695E7F4F50
:10190000C9010C94670BEF92FF920F931F93CF9333
:10191000DF9300D000D000D0CDB7DEB78D839E839B
:10192000AD81BE8111961C92119714966D917D9197
:101930008D919C9117970E945A2B28E23BE64EE628
:101940005EE469837A838B839C8369817A818B814E
:101950009C810E94B22A7B018C01ED81FE818281F3
:1019600093819C0150E040E029833A834B835C8360
:10197000CA01B9010E945A2B9B01AC01E982FA828B
:101980000B831C8369817A818B819C810E94412A0F
:10199000462F572FBC0149835A836B837C83AD81CB
:1019A000BE8118968C91882339F09A01AB0150586A
:1019B00029833A834B835C8369817A818B819C8103
:1019C00026960FB6F894DEBF0FBECDBFDF91CF9144
:1019D0001F910F91FF90EF900895EF92FF920F9358
:1019E0001F93CF93DF9300D000D000D0CDB7DEB7E8
:1019F0008D839E83AD81BE8111961C9211971B969B
:101A00006D917D918D919C911E970E945A2B28E299
:101A10003BE64EE65EE469837A838B839C8369812F
:101A20007A818B819C810E94B22A7B018C01ED819D
:101A3000FE81818592859C0150E040E029833A83B4
:101A40004B835C83CA01B9010E945A2B9B01AC01F4
:101A5000E982FA820B831C8369817A818B819C8164
:101A60000E94412A462F572FBC0149835A836B831A
:101A70007C83AD81BE811F968C91882339F09A01B9
:101A8000AB01505829833A834B835C8369817A8107
:101A90008B819C8126960FB6F894DEBF0FBECDBF1A
:101AA000DF91CF911F910F91FF90EF900895CF9309
:101AB000DF93EB010E94830C9F938F937F936F932F
:101AC0008BE192E09F938F93DF93CF930E94832EBD
:101AD0002DB73EB7285F3F4F0FB6F8943EBF0FBEFD
:101AE0002DBF8C0F9D1FDF91CF910895CF93DF9372
:101AF000EB010E94ED0C9F938F937F936F938BE18B
:101B000092E09F938F93DF93CF930E94832E2DB704
:101B10003EB7285F3F4F0FB6F8943EBF0FBE2DBFB4
:101B20008C0F9D1FDF91CF910895CF93DF93EC0130
:101B30008E819F81A885B9858A839B83AC83BD8371
:101B40000E9482096A877B878C879D8781E08983D1
:101B50008883DF91CF910895CF93DF93EC018E813D
:101B60009F81A885B9858A839B83AC83BD830E94AE
:101B700082096A877B878C879D8781E08983888338
:101B8000DF91CF910895CF93DF93EC01CB010E94B9
:101B9000F70A6E837F8388879987DF91CF910895B5
:101BA000CF93DF93EC01CB010E94792C6E837F836E
:101BB00088879987DF91CF910895CF93DF9300D0E5
:101BC00000D0CDB7DEB7FC01118282819381A48160
:101BD000B581BC01CD0124E630E040E050E00E9438
:101BE000E92869837A838B839C8389819A818053D6
:101BF000984F0F900F900F900F90DF91CF91089515
:101C0000CF92DF92EF92FF92CF93DF9300D000D07C
:101C1000CDB7DEB7FC01118282819381A481B581A9
:101C200024E6C22ED12CE12CF12CBC01CD01A70160
:101C300096010E94E928CA01B901A70196010E94F4
:101C4000E928862F0F900F900F900F90DF91CF9182
:101C5000FF90EF90DF90CF900895CF93DF9300D067
:101C600000D0CDB7DEB7FC01118282819381A481BF
:101C7000B581BC01CD0120E137E240E050E00E9497
:101C8000E928822F0F900F900F900F90DF91CF9146
:101C90000895CF93DF9300D000D0CDB7DEB7FC011D
:101CA000118282819381A481B581BC01CD0120E4A0
:101CB00032E44FE050E00E94E928822F0F900F900D
:101CC0000F900F90DF91CF910895CF93DF9300D0C5
:101CD00000D0CDB7DEB7FC01118282819381A4814F
:101CE000B581BC01CD0120E137E240E050E00E9427
:101CF000E928CA01B90124E630E040E050E00E9442
:101D0000E928862F0F900F900F900F90DF91CF91C1
:101D10000895CF92DF92EF92FF92CF93DF9300D09E
:101D200000D0CDB7DEB7FC01118282819381A481FE
:101D3000B58124E6C22ED12CE12CF12CBC01CD01C1
:101D4000A70196010E94E928CA01B901A7019601DD
:101D50000E94E928862F0F900F900F900F90DF912F
:101D6000CF91FF90EF90DF90CF900895CF93DF93C6
:101D700000D000D0CDB7DEB7FC0111828281938103
:101D8000A481B581BC01CD0124E630E040E050E003
:101D90000E94E928862F0F900F900F900F90DF91EF
:101DA000CF910895CF93DF93EC018A859B85AC8515
:101DB000BD858E839F83A887B9870E9482096A8325
:101DC0007B838C839D8381E089838883DF91CF919E
:101DD0000895CF93DF93EC01CB010E94F70A6A8745
:101DE0007B878C879D87DF91CF910895CF93DF9379
:101DF000EC018A859B85AC85BD858E839F83A887F2
:101E0000B9870E9482096A837B838C839D8381E0EA
:101E100089838883DF91CF910895CF93DF93EC017D
:101E2000CB010E94792C6A877B878C879D87DF9105
:101E3000CF910895CF93DF93EC01BC0140960E94AF
:101E40008C2D0E94820968A379A38AA39BA381E0B9
:101E50008DA38CA3DF91CF91089540E150E00C94C5
:101E6000932DAF92BF92DF92EF92FF920F931F9349
:101E7000CF93DF93EC01FC01EA57FF4FD080DD20C8
:101E800009F4A0C0319660810E94E50A182FFE0176
:101E9000E857FF4F6081CE010E94E50A1295107F3E
:101EA000180FFE01EB57FF4F8081811372C0B5966A
:101EB00080819181A281B3810196A11DB11D808392
:101EC0009183A283B3838E0107561F4FD8018C9153
:101ED000882361F0389780819181A281B381019636
:101EE000A11DB11D80839183A283B383FE01EA56B5
:101EF000FF4F80818823A1F18130C1F4CE01829609
:101F00000E94950DCE01C0960E94AC0DF801808113
:101F1000882361F0CE010E94540CCE01CE960E941F
:101F2000D20ECE01845B9F4F0E94D20E8E010456CA
:101F30001F4FF801C081D1812097C9F1D801ED91DF
:101F4000FC9166A177A18EA19FA10E94832D892B70
:101F500071F5CE010E941A0F0AA4DBA5C02DECCFAB
:101F6000CE01C0960E94AC0DD8018C91882341F01F
:101F7000CE010E94540CCE01865A9F4F0E94D20E71
:101F8000CE0188599F4F0E94F60ECE018A589F4F6E
:101F9000CBCFCA55DF4F88819981AA81BB81019639
:101FA000A11DB11D88839983AA83BB83D12C8D2D5C
:101FB000DF91CF911F910F91FF90EF90DF90BF9035
:101FC000AF9008957C01B7E9EB0EF11CF701308169
:101FD0008A569F4F5C018E0104561F4F31113EC03F
:101FE0007E0197E8E90EF11C60E272E0C7010E94F1
:101FF000832D892B39F066E272E0C7010E94832DA0
:10200000892B21F481E0D5018C9310C06CE272E041
:10201000C7010E94832D892B39F062E372E0C7016A
:102020000E94832D892BC1F4F5011082C656DF4F23
:1020300088819981F80191838083C081D181209723
:1020400009F4B5CFB7018EA19FA10E94832D97FF00
:1020500098C08AA59BA5EECF82E0D5CFDC01EC919C
:10206000E230C9F0CE0189579F4FDC012C91222329
:1020700091F0B0E2EB9FF0011124E32B3197E932AC
:10208000F10548F4EF5AFF4C0C940B29BC01CE012A
:10209000C0960E94C30DF801A080B180C957DF4FE0
:1020A000A114B10409F483CFD801ED91FC9166A18C
:1020B00077A1F50186A197A10E94832D892B09F0B4
:1020C00076CFD50198968D919C91F7012081422F72
:1020D00050E0281719060CF46ACF8417950721F4ED
:1020E000BE01C5010E942D0FD5019A96AD90BC90FE
:1020F000D7CFFE01E756FF4F81E0213479F180E030
:102100002DC0BE01605F7F4F0E94670BC4CF81E08E
:10211000233509F080E08E8BBECFBE01695E7F4F14
:10212000F3CF81E0273509F080E08D8FB4CFBC017B
:10213000CE01CE960E94E90EAECFBC01CE01845BEB
:102140009F4FF8CFBC01CE0182960E94D00DA3CF45
:10215000FE01E756FF4F81E021338CF280839BCF55
:10216000BC01CE0188599F4F0E940D0F94CFBC0136
:10217000CE018A589F4FDECFBC01CE01865A9F4FB9
:10218000D9CF892B09F413CFD8011D921C920FCF00
:10219000CF92DF92EF92FF921F93CF93DF93EC01E8
:1021A000162FFC01E256FF4F80819181A281B381FD
:1021B0000196A11DB11D80839183A283B383CE01BB
:1021C00088569F4F6C01DE01AA57BF4F7D016432D4
:1021D00009F449C0DCF46A3019F16D3009F1D60117
:1021E000EC91EE3048F481E08E0F8C93EC0FFD2FD4
:1021F000F11DE957FF4F1083F7018081811142C023
:10220000CB57DF4F68811627188325C06A3241F00B
:102210006C3229F7FE01EB57FF4F808186278083C0
:10222000D601EC9180E0EF3048F4EC0FFD2FF11D6A
:10223000E957FF4F1082CE010E94310FC956DF4F80
:1022400098819F5F9883F601108291E01A3209F01D
:1022500090E0D7019C93DF91CF911F91FF90EF9079
:10226000DF90CF900895FC011082FE01E956FF4FE8
:10227000108272971082719682E080831C92C756FA
:10228000DF4F188280E0E7CFAF92BF92CF92DF920C
:10229000EF92FF920F931F93CF93DF937B01B42EA6
:1022A000A52E69018C0106561F4FF801C081D1810E
:1022B0002097B1F06EA17FA18B2D9A2D0E94832DC6
:1022C00097FD0EC0892B29F488A599A5C816D906B3
:1022D0003CF08E01065D1F4F0AA4DBA5C02DE8CFA0
:1022E000F701D3A7C2A7F801F182E082DF91CF9175
:1022F0001F910F91FF90EF90DF90CF90BF90AF9024
:102300000895CF93DF93FC01DB0110A211A212A26A
:1023100013A214A215A246A357A320A731A790E1A8
:10232000EF01892F19928A95E9F7BF01605F7F4F0E
:10233000EB0119929A95E9F7BF01CD01DF91CF9199
:102340000C9444110C9481112FE789EA93E02150F9
:1023500080409040E1F700C0000040E063E084E48A
:102360000E94F90887EB98E80197F1F700C0000098
:1023700041E063E084E40E94F90887EB98E8019764
:10238000F1F700C0000040E063E084E40E94F90837
:1023900087EB98E80197F1F700C0000008951F93BC
:1023A000CF93DF93EC01C255DF4F8CED95E0A0E0B9
:1023B000B0E088839983AA83BB838AE092E00E947D
:1023C000572E10E088819981AA81BB81892B8A2BA5
:1023D0008B2B79F00E94A5018823A1F30E94910123
:1023E000882381F3082E000C990B0E94502E1F5F4A
:1023F000E9CF8AE092E00E94572E812F110F990BAE
:10240000DF91CF911F9108950F931F93CF93DF9387
:10241000EC0106E010E0CE010E94A411CE010E9462
:10242000CF11892B51F088E392E00E94572E81E072
:10243000DF91CF911F910F9108950150110959F724
:1024400080E0F6CF0F931F93CF93DF93EC0106E06C
:1024500010E0CE010E94A411CE010E94CF11892B61
:1024600051F480E492E00E94572E81E0DF91CF91F9
:102470001F910F9108950150110959F780E0F6CF8F
:1024800040E063E084E40C94F90841E063E084E414
:102490000C94F9080E9472010E948A0178940895B0
:1024A0001F93CF93DF93EC01162F0E944A1263E033
:1024B00084E40E94AE0863E084E40E948A08CC575A
:1024C000DF4F1883DF91CF911F910895EF92FF9214
:1024D0000F931F93CF93DF9300D000D000D0CDB7E0
:1024E000DEB78D839E838BE492E09F938F930E944F
:1024F0003C2E0F900F90AD81BE818C91882309F402
:102500001FC1CD010E94ED0C162F072FF82EE92ECA
:102510008D819E810E94830CEF92FF920F931F93F7
:102520009F938F937F936F9386E592E09F938F9312
:102530000E943C2E0FB6F894DEBF0FBECDBF8AE6D8
:1025400092E09F938F930E943C2E0F900F90AD814D
:10255000BE8192968C919297882309F4F6C07D01F2
:10256000B2E2EB0EF11CC7010E94DD0D182F092FFE
:10257000C7010E94000EED81FE8113A20F931F93ED
:102580001F928F93AD81BE8194968D919D910D90F8
:10259000BC91A02D89839A83AB83BC83BC01CD0100
:1025A00020E137E240E050E00E94E9281F922F939B
:1025B00086E792E09F938F930E943C2E0FB6F8948B
:1025C000DEBF0FBECDBFAD81BE81D0968C91D097BE
:1025D000882309F4BFC08D01005D1F4FD1961C9266
:1025E000D197D2968D919D910D90BC91A02D89830C
:1025F0009A83AB83BC83BC01CD0120E432E44FE07D
:1026000050E00E94E9282A3020F480E390E00E9404
:10261000502EED81FE8111AA82A993A9A4A9B5A982
:1026200089839A83AB83BC83BC01CD0120E432E46F
:102630004FE050E00E94E9281F922F9383E992E037
:102640009F938F930E943C2EC8010E94650E0F90AD
:102650000F900F900F908A3020F480E390E00E945A
:10266000502EC8010E94650E1F928F9383E992E05D
:102670009F938F930E943C2EC8010E94890E0F9059
:102680000F900F900F908A3020F480E390E00E942A
:10269000502EC8010E94890E1F928F9386E494E009
:1026A0009F938F930E943C2EED81FE8111AA82A9F7
:1026B00093A9A4A9B5A989839A83AB83BC83BC01E0
:1026C000CD0124E630E040E050E00E94E9280F9080
:1026D0000F900F900F906A3020F480E390E00E94FA
:1026E000502EED81FE8111AA82A993A9A4A9B5A9B2
:1026F00089839A83AB83BC83BC01CD0124E630E09F
:1027000040E050E00E94E9287F936F938AE393E0D2
:102710009F938F930E943C2E0F900F900F900F90DD
:102720008AE092E026960FB6F894DEBF0FBECDBFCA
:10273000DF91CF911F910F91FF90EF900C94572E46
:1027400081E692E00E94572EFACE89E892E00E943C
:10275000572E39CF81E692E00E94572EE1CF9F920B
:10276000AF92BF92CF92DF92EF92FF920F931F939F
:10277000CF93DF93EC010E940412882309F47FC0F9
:102780001882FE01E259FF4F1082118212821382D9
:102790008E0108591F4FF80110825E01FEEAAF0E4C
:1027A000B11C80E69AEEA0E0B0E0F5018083918351
:1027B000A283B38380E6C82E8AEED82EE12CF12CBA
:1027C00099249394F50180819181A281B381892B11
:1027D0008A2B8B2B09F44FC00E94A501882331F06E
:1027E0000E949101682FCE010E94C810F5018081DE
:1027F0009181A281B3818C159D05AE05BF0560F462
:10280000992051F0CE010E946612F0EDCF1AF7E048
:10281000DF0AE108F108912CF50180819181A28104
:10282000B381C816D906EA06FB0610F499249394DE
:102830008881882339F2F8018081882319F2118276
:1028400086819781A085B1850397A105B10508F41C
:10285000B9CFCE010E942212882379F080E0DF9167
:10286000CF911F910F91FF90EF90DF90CF90BF908D
:10287000AF909F9008951882ECCF82E0F0CF81E076
:10288000EECFFC01E255FF4F80819181A281B3819F
:10289000892B8A2B8B2B59F080819181A281B38166
:1028A0000197A109B10980839183A283B38308951D
:1028B000CF93DF93EB01FC01EA58FF4F1182668151
:1028C0007781808591850E945C2B9F938F937F9366
:1028D0006F9389E992E09F938F93DF93CF930E9448
:1028E000832E2DB73EB7285F3F4F0FB6F8943EBFFB
:1028F0000FBE2DBF8C0F9D1FDF91CF9108956AE011
:102900000E94B5288295807F890F0895982F92950F
:102910009F708F702AE0929F800D11240895CF93AD
:10292000C82F88E60E94041C8C2F0E941E1C0E9447
:102930000E1C61E088E60E94F71BCF910C94731C7B
:10294000CF93DF93C82FD62F88E60E94041C8D2FCB
:102950000E941E1C8C2F0E941E1CDF91CF910C9494
:102960000E1CCF93DF9381E10E948F14D82F82E158
:102970000E948F14C82F61E18EEE0E94A01462E1C4
:102980008DED0E94A01481E10E948F148E3E91F47F
:1029900082E10E948F148D3D69F481E080931B07D2
:1029A00061E18D2F0E94A01462E18C2FDF91CF9105
:1029B0000C94A01481E080931A07DF91CF910895C1
:1029C00062E084E40E94630862E084E40E94AE084E
:1029D000E9E6F0E0808182608083E89A7894089547
:1029E00080911B07089580911A07089581E08093D4
:1029F0001B0710921A07089510921B0781E080931D
:102A00001A070895EF92FF920F931F93CF93DF93CE
:102A1000CDB7DEB729970FB6F894DEBF0FBECDBF96
:102A200088E60E94041C80E00E941E1C0E940E1C6E
:102A300067E088E60E94F71B8E010F5F1F4F7E0143
:102A400088E0E80EF11C0E94731CF80181938F014D
:102A5000EE15FF05C1F70E940E1C89818F770E9439
:102A6000861490E090930A07809309078A810E9458
:102A7000861490E090930C0780930B078B810E9443
:102A80008614082F10E010930E0700930D078D8118
:102A90000E94861490E09093100780930F07FE80A9
:102AA0008F2D8F710E94861490E09093120780936F
:102AB00011078F810E94861490E0F7FE27C0805393
:102AC000984F90931407809313078C810E9486146B
:102AD00090E0909316078093150701151105C9F42E
:102AE000109219071092180781E08093170789E068
:102AF00097E029960FB6F894DEBF0FBECDBFDF91E9
:102B0000CF911F910F91FF90EF9008958459984FA6
:102B1000D8CF0C3011052CF4109319070093180727
:102B2000E3CF0C5011091093190700931807109266
:102B30001707DDCF8F929F92AF92BF92CF92DF9215
:102B4000EF92FF920F931F93CF93DF93CDB7DEB732
:102B500029970FB6F894DEBF0FBECDBF8C017B0165
:102B60006A0188E60E94041C80E00E941E1C0E94EC
:102B70000E1C67E088E60E94F71BCE0101965C01FF
:102B80004E0198E0890E911C0E94731CF5018193FF
:102B90005F018E169F06C1F70E940E1CC114D1045E
:102BA00029F089810E948614F6018083E114F104E2
:102BB00029F08A810E948614F7018083011511058E
:102BC00029F08B810E948614F801808329960FB624
:102BD000F894DEBF0FBECDBFDF91CF911F910F9153
:102BE000FF90EF90DF90CF90BF90AF909F908F902D
:102BF00008951F93CF93DF93EC0188E60E94041C95
:102C000080E00E941E1C8A859B85813D27E09207FB
:102C100074F1805D97409B878A8710E888810E94C5
:102C20007F140E941E1C8A810E947F140E941E1C19
:102C30008C810E947F140E941E1C8C850E947F1430
:102C40000E941E1C8E810E947F140E941E1C88857B
:102C50000E947F14810F0E941E1C8A850E947F148F
:102C60000E941E1CDF91CF911F910C940E1C8C565C
:102C700097409B878A8710E0D1CF1F93CF93DF9334
:102C8000C82FD62F142F88E60E94041C80E00E94D3
:102C90001E1C812F0E947F140E941E1C8D2F0E94DB
:102CA0007F140E941E1C8C2F0E947F140E941E1CE9
:102CB000DF91CF911F910C940E1CCF93C82F809160
:102CC0001A0781110BC00E948F14CC2329F08F7733
:102CD00060E0CF910C94A0148068FACFCF91089552
:102CE00080911A07811106C00E948F148095881F59
:102CF0008827881F0895FF920F931F93CF93DF9328
:102D00008C01EB01FC011082188280911B0781115C
:102D100020C088E60E94041C81E10E941E1C0E94C3
:102D20000E1C62E088E60E94F71B0E946D1C88233F
:102D300081F00E94731CF82E0E94731CF801F0822F
:102D4000829586958695837099E1899F802D1124BF
:102D50008883DF91CF911F910F91FF900895CF93BA
:102D6000DF93C82F80911B0781112DC088E60E9438
:102D7000041C8EE00E941E1C0E940E1C61E088E66E
:102D80000E94F71B0E94731CD82F88E60E94041C27
:102D90008EE00E941E1C8D2F80620E941E1C0E94CD
:102DA0000E1CCC2381F088E60E94041C8EE00E9459
:102DB0001E1C0E940E1C61E088E60E94F71B0E9408
:102DC000731C85FDF0CFDF91CF910895CF93C82F6D
:102DD00088E60E94041C88E08C0F0E941E1C0E9442
:102DE0000E1C61E088E60E94F71BCF910C94731CC7
:102DF0000F931F93CF938C01C0E08C2F0E94E61697
:102E0000F80181938F01CF5FC833B9F7CF911F913C
:102E10000F910895CF93DF93C82FD62F88E60E9495
:102E2000041C88E08D0F0E941E1C8C2F0E941E1C0B
:102E3000DF91CF910C940E1C0F931F93CF938C01B5
:102E4000C0E06C2FF80181918F010E940A17CF5FBB
:102E5000C833B9F7CF911F910F910895CF93DF93A6
:102E6000D82F80911B07882309F188E60E94041C53
:102E700087E00E941E1C0E940E1C61E088E60E94F2
:102E8000F71B0E94731CC82FDD2371F0C06188E618
:102E90000E94041C87E00E941E1C8C2F0E941E1C96
:102EA000DF91CF910C940E1CCF7EF1CF88E60E946B
:102EB000041C8EE00E941E1C0E940E1C61E088E62D
:102EC0000E94F71B0E94731CC82FDD2339F0CB7FB3
:102ED000C06488E60E94041C8EE0DDCFCF7BF9CF72
:102EE000CF93DF93EC0180911B078823E9F088E6FC
:102EF0000E94041C87E00E941E1C0E940E1C61E0C0
:102F000088E60E94F71B0E94731C8C7FC82B88E602
:102F10000E94041C87E00E941E1C8C2F0E941E1C15
:102F2000DF91CF910C940E1C88E60E94041C8EE069
:102F30000E941E1C0E940E1C61E088E60E94F71B86
:102F40000E94731C94E0CC0FDD1F9A95E1F7877EF9
:102F5000C82B88E60E94041C8EE0DDCFCF93DF9360
:102F6000D82F80911A07882309F188E60E94041C53
:102F70008FE00E941E1C0E940E1C61E088E60E94E9
:102F8000F71B0E94731CC82FDD2371F0C86088E610
:102F90000E94041C8FE00E941E1C8C2F0E941E1C8D
:102FA000DF91CF910C940E1CC77FF1CFDF91CF91B1
:102FB000089580911B07882361F060E080E00E9403
:102FC0000A1761E080E00E940A1762E080E00C943A
:102FD0000A1767E080E00E94A01468E080E00E9489
:102FE000A01469E080E00E94A0146AE080E00C94E4
:102FF000A0141F93CF93DF93C82FD62F142F88319F
:1030000008F054C06C3308F051C04C3308F04EC087
:1030100080911B07882379F060E08C2F0E940A17AB
:1030200061E08D2F0E940A1762E0812FDF91CF911E
:103030001F910C940A17842F0E947F1467E00E944E
:10304000A0148D2F0E947F1468E00E94A0148C2F82
:103050000E947F1469E00E94A0146AE081E80E9447
:10306000A0148FE00E948F146FE08E7F0E94A01446
:1030700088E60E94041C8EE00E941E1C0E940E1C0A
:1030800061E088E60E94F71B0E94731CC82F88E647
:103090000E94041C8EE00E941E1C8C2F81600E94E6
:1030A0001E1CDF91CF911F910C940E1CDF91CF91CC
:1030B0001F910895FC01892B29F040816281848150
:1030C0000C94F9170895EF92FF920F931F93CF93EB
:1030D000DF93EC018B017A0180911B078823E9F0D3
:1030E000209721F080E00E94E616888301151105E3
:1030F00029F081E00E94E616F8018083E114F104D2
:1031000029F082E00E94E616F7018083DF91CF91DB
:103110001F910F91FF90EF90089587E00E948F1408
:103120008F770E948614F701808388E00E948F14B5
:103130008F770E948614F801808389E00E948F14A3
:103140008F770E9486148883E1CFCF93DF9300D0DE
:103150000F92CDB7DEB7AE014F5F5F4FBE016E5F1E
:103160007F4FCE0103960E946318E9E0F7E08B8160
:1031700090E0958384838A8190E093838283898120
:1031800090E091838083CF010F900F900F90DF919B
:10319000CF910895FF920F931F93CF93DF9300D0A9
:1031A0000F92CDB7DEB780911B07882349F180E0ED
:1031B0000E94E616F82E81E00E94E616082F82E0B3
:1031C0000E94E616182FAE014F5F5F4FBE016E5F83
:1031D0007F4FCE0103960E949A158B818F1106C0F6
:1031E0008A81801303C081E09981911380E00F9060
:1031F0000F900F90DF91CF911F910F91FF90089545
:103200008FE00E948F14182F117080FF04C06FE0B0
:103210008E7F0E94A014812FEACFCF93DF93FC0111
:10322000DB0146A157A127A930AD14968D919C9141
:103230001597421753070CF12417350754F042171E
:103240005307D9F4C4A1D5A165A976A96C177D0748
:10325000A4F484179507A4F088319105A4F02817E9
:10326000390749F481E012964D915C9125A936A960
:10327000421753074CF080E007C0841795077CF392
:103280008217930764F781E0DF91CF910895EF9261
:10329000FF920F931F93CF93DF93FC01EB01DC01AF
:1032A000A85BBF4F8C819D812D913C91820F931F14
:1032B00028E1E22EF12CB7010E94D5289C019583CC
:1032C0008483DF01AA5BBF4F0D911C918A819B8192
:1032D000800F911F6CE370E00E94D5289383828356
:1032E0008A819B81080F191F0C3311053CF0C9011D
:1032F0000196B7010E94D52895838483DF91CF91F1
:103300001F910F91FF90EF900895CF93DF93EC0101
:10331000BC016F5E7F4F0E9447198B818F938A811A
:103320008F938D818F938C818F9380EC92E09F930C
:103330008F930E943C2EBE01CE010E940D190F906A
:103340000F900F900F900F900F9040E08823D9F0CE
:103350006A818C810E94F9178B818F938A818F9368
:103360008D818F938C818F9384EE92E09F938F93C6
:103370000E943C2E0F900F900F900F900F900F9087
:10338000DF91CF9108956CA18EA10E94F9178DA1B4
:103390008F938CA18F938FA18F938EA18F9381E1B7
:1033A00093E0E4CF10928707449A459AE9EBF0E066
:1033B00080818E7F808380818D7F80838CE080936D
:1033C000B80085E48093BC0078940895880F8093BA
:1033D000BA000895982F842F413258F5209187071D
:1033E0002111FCCF21E0209387072FEF20931C07AA
:1033F00010926107280F20936007990F91609093B6
:10340000860795EE9093BC00909187079130E1F389
:1034100090916107981710F48091610722E637E0D8
:10342000FB01D9019A2F921B981720F49D9191933B
:10343000F9CF80E00895982F4132B0F58091870749
:103440008111FCCF32E0309387073FEF30931C07A8
:103450001092610740936007562FA2E6B7E0FB0188
:103460003E2F351B341718F431913D93F9CF492F76
:1034700050E0440F551F4093860795EE9093BC0093
:10348000222321F0909187079230D1F390911C076D
:103490009F3F79F080911C07803241F080911C079A
:1034A000803331F084E0089581E0089582E008954A
:1034B00083E00895613288F420918707243079F4FD
:1034C00060933E07282FA0E4B7E0FC018E2F821BFB
:1034D000861738F481918D93F9CF81E0089582E0C9
:1034E000089580E00895909383078093820708955C
:1034F00090938507809384070895882321F085ECB5
:103500008093BC00089585E8FBCF85ED8093BC00D7
:103510008091BC0084FDFCCF10928707089585EC54
:103520008093BC001092870708951F920F920FB6E8
:103530000F9211242F933F934F935F936F937F9339
:103540008F939F93AF93BF93EF93FF939091B900A5
:10355000892F887F803509F4BCC008F045C08033CE
:1035600009F4B2C0A0F5883101F1D0F4883009F433
:10357000A3C0803109F4A0C0882309F4E9C0FF91F9
:10358000EF91BF91AF919F918F917F916F915F91DB
:103590004F913F912F910F900FBE0F901F90189554
:1035A000803209F491C0883251F79091610780917F
:1035B0006007981708F08AC0E091610781E08E0FDC
:1035C00080936107F0E0EE59F84F808177C0803436
:1035D00009F48BC0883409F479C0883381F680936C
:1035E0001C070E948F1ACBCF803A09F498C060F56F
:1035F000803809F482C0F8F48036B9F080F4883558
:1036000009F0BDCFE091610781E08E0F80936107E3
:103610008091BB00F0E0EE59F84F808357C08037AF
:1036200021F0987E983609F0AACF83E0809387072F
:1036300010921D0745C0803909F45FC0987E983804
:1036400009F09DCF85E83DC0883BD9F058F5883A10
:1036500019F0803B09F093CF84E0809387071092A4
:103660003F0710923E07E0918407F0918507099586
:1036700080913E07811105C081E080933E07109242
:103680004007E0913F0781E08E0F80933F07F0E015
:10369000E05CF84F80818093BB0090913F07809160
:1036A0003E0727C0907F903C09F069CF85EC80935E
:1036B000BC001092870763CF809186078093BB0080
:1036C00085EC8093BC005BCF80931C070E94851A19
:1036D00056CFE091610781E08E0F80936107809162
:1036E000BB00F0E0EE59F84F808390916107809124
:1036F0006007981708F0A6CFE3CF80911D078032AE
:1037000008F0A0CFE0911D0781E08E0F80931D0788
:103710008091BB00F0E0E25EF84F8083D1CF8091D2
:103720001D07803230F4E0911D07F0E0E25EF84FB3
:1037300010820E94851A60911D0770E0E091820757
:10374000F09183078EE197E0099510921D0749CF0C
:1037500010921C07BBCFCF93DF93DC01CB01E0912C
:103760008807F09189073097E9F03091B1072091EF
:10377000B0073217B8F040E0242F30E0281739079F
:1037800054F4ED01C20FD31F58812E54384FE90174
:1037900058834F5FF1CF1092B1078093B007DF914C
:1037A000CF910994DF91CF910895E0918A07F0912C
:1037B0008B07309729F010928E0710928D0709948D
:1037C00008951092B1071092B00710928E071092D0
:1037D0008D070C94D2190E94E61985ED9BE10E9499
:1037E000781A8BEA9BE10E94731A0C94E11B462F16
:1037F000613208F040E262EB77E00E94EA19109231
:10380000B1078093B007089591E090938C0780935F
:10381000AF0710928E0710928D07089521E0409116
:103820008D076FE877E08091AF070E941B1A109216
:103830008E0710928D0710928C070895CF93DF9317
:103840000F92CDB7DEB7898380918C078823A9F0CA
:1038500080918D07803268F480918E07E82FF0E028
:10386000E157F84F998190838F5F80938E07809303
:103870008D070F90DF91CF91089561E0CE01019601
:103880000E945A1AF6CF0F931F93CF93DF93209184
:103890008C07222369F08C01EC01C60FD11D0C1797
:1038A0001D0761F0F80181918F010E941E1CF7CF66
:1038B000DF91CF911F910F910C945A1ADF91CF9104
:1038C0001F910F910895DC010D900020E9F71197E9
:1038D000BD01681B790B0C94431C8091B00790913B
:1038E000B107891B08959091B1078091B00798178F
:1038F00048F4E92FF0E0EE54F84F80819F5F9093F9
:10390000B107089580E00895909389078093880710
:10391000089590938B0780938A0708950895DF9206
:10392000EF92FF920F931F93CF93DF93CDB7DEB744
:1039300061970FB6F894DEBF0FBECDBF8C01DC01DE
:10394000D5961C921E92D4978C91282F082E000C8D
:10395000330B3F938F938FE393E09F938F930E945A
:103960003C2EF80184A995A9E80FF91F20810F903A
:103970000F900F900F90223509F44DC0233509F4B4
:10398000A7C1293409F038C49C012E5F3F4F223370
:1039900031050CF01EC4D801D5963C932E93D497D4
:1039A000AC014D5F5F4F8F9709F413C4200F311F97
:1039B000F9019081D5965C934E93D4979053040F60
:1039C000151FD8018C91BAE09B9F800D112460EDEA
:1039D000680F8153823608F00AC48AE090E00E94A2
:1039E0002D2360E575E08AE090E00E941A2362E0F2
:1039F0008BE090E00E942D23809150051F928F93C1
:103A00008BED93E09F938F930E943C2E0F900F902D
:103A10000F900F90DAC39C012E5F3F4F2233310588
:103A20000CF0D7C3D801D5963C932E93D497200F92
:103A3000311FF9014081042E000C550B40535109F0
:103A40006AE0D62ED49EB001D59E700D1124AC0133
:103A50004D5F5F4F8F32910509F4BBC3D5965C93E0
:103A60004E93D497400F511FDA012C91022E000C77
:103A7000330B20533109260F371F3E832D830596C4
:103A8000823391050CF0A5C3F80195AB84AB800F90
:103A9000911FDC018C91282F082E000C330B3F93D3
:103AA0008F933EE4E32E33E0F32EFF92EF920E94D9
:103AB0003C2EF80184A995A9E80FF91F2081022E58
:103AC000000C330B20533109D29EA001D39E500D20
:103AD00011245C834B8301960F900F900F900F90F1
:103AE000823391050CF075C3D801D5969C938E93C3
:103AF000D497800F911FFC018081282F082E000C85
:103B0000330B3F938F93FF92EF920E943C2ED8018C
:103B1000D4968D919C91F801E80FF91F2081022E17
:103B2000000C330B205331094B815C81240F351F6E
:103B30003C832B839C012E5F3F4F0F900F900F9083
:103B40000F90223331050CF044C3F80135AB24ABA0
:103B5000200F311FD9014C91042E000C550B4053FE
:103B60005109D49EB001D59E700D1124AC014D5F5A
:103B70005F4F8F32910509F42CC355AB44AB400F16
:103B8000511FFA012081022E000C330B2053310902
:103B9000260F371F3A8329839C012B5F3F4F223327
:103BA00031050CF016C3D801D5963C932E93D497CB
:103BB000200F311FF9014081042E000C550B40539A
:103BC0005109D49EB001D59E700D1124AC014A5FFD
:103BD0005F4F8C32910509F4FCC2D5965C934E93ED
:103BE000D497400F511FDA012C91022E000C330B99
:103BF00020533109260F371F38872F839C01285FF8
:103C00003F4F223331050CF0E4C2F80135AB24AB51
:103C1000200F311FD9014C91042E000C550B40533D
:103C200051096AE0649FF001659FF00D1124AC0119
:103C3000475F5F4F8932910509F4CBC2D801D59611
:103C40005C934E93D497400F511FDA012C91022EB2
:103C5000000C330B205331092E0F3F1F3A87298761
:103C60009C01255F3F4F223331050CF0B2C2F801B1
:103C700035AB24AB200F311FD9012C91022E000C43
:103C8000330B20533109629FA001639F500D112413
:103C90009C01245F3F4F869709F49BC235AB24AB50
:103CA000020F131FF8018081082E000C990BC0979A
:103CB000840F951F9C878B87CE0101960E94F91572
:103CC00081E08093510587E593E00E94572E7DC2E5
:103CD0009C012E5F3F4F223331050CF07AC2D80190
:103CE000D5963C932E93D497200F311FF901408134
:103CF000042E000C550B405351092AE0F22EF49E7D
:103D0000B001F59E700D11247093790560937805CC
:103D1000AC014D5F5F4F8F32910509F45AC2D596C1
:103D20005C934E93D497400F511FDA012C91022ED1
:103D3000000C330B20533109260F371F30937905C0
:103D4000209378059C012B5F3F4F223331050CF007
:103D500040C2F80135AB24AB200F311FD9014C9183
:103D6000042E000C550B40535109F49EB001F59EF2
:103D7000700D11247093770560937605AC014A5F4E
:103D80005F4F8C32910509F424C255AB44AB400F10
:103D9000511FFA012081022E000C330B20533109F0
:103DA000260F371F30937705209376059C01285FF7
:103DB0003F4F223331050CF00CC2D801D5963C930D
:103DC0002E93D497200F311FF9012081022E000C71
:103DD000330B20533109F29EA001F39E500D1124A4
:103DE00050937505409374059C01275F3F4F899759
:103DF00009F4EFC1D5963C932E93D497200F311F31
:103E0000D9018C91082E000C990BC097840F951F37
:103E1000909375058093740564E170E084E795E004
:103E20000E94BA2364E170E084E795E00E94ED23EC
:103E3000809175058F93809174058F93809177059C
:103E40008F93809176058F93809179058F938091E0
:103E500078058F938BE693E09F938F930E943C2E7F
:103E6000F80184A995A902960FB6F894DEBF0FBE9B
:103E7000CDBF823391050CF0ACC195AB84AB800F04
:103E8000911FDC018C91082E000C990BC097F89EB5
:103E90009001F99E300D112430938A0520938905F5
:103EA00084A995A90196823391050CF092C195AB36
:103EB00084AB800F911FFC018081082E000C990BB0
:103EC000C0972091890530918A05820F931F9093A6
:103ED0008A0580938905D801D4968D919C91D597B8
:103EE0000296823391050CF074C1D5969C938E9303
:103EF000D497800F911FFC018081082E000C990B34
:103F0000C097F89E9001F99E300D112430938805DA
:103F100020938705D4968D919C91D59701968233F5
:103F200091050CF056C1D5969C938E93D497800F33
:103F3000911FDC018C91082E000C990BC0972091E9
:103F4000870530918805820F931F90938805809391
:103F50008705F80184A995A90296823391050CF092
:103F600038C195AB84AB800F911FDC018C91082E7A
:103F7000000C990BC097F89E9001F99E300D11240A
:103F8000309386052093850584A995A901968233EF
:103F900091050CF01EC195AB84AB800F911FFC0105
:103FA0008081082E000C990BC097209185053091D7
:103FB0008605820F931F909386058093850567E1A0
:103FC00070E085E895E00E94BA2367E170E085E83B
:103FD00095E00E94ED23809186058F938091850561
:103FE0008F93809188058F93809187058F9380911F
:103FF0008A058F93809189058F9381E993E09F9340
:104000008F930E943C2ED801D4968D919C91D59788
:1040100002960FB6F894DEBF0FBECDBF8233910576
:104020000CF0D7C0D5969C938E93D497800F911F98
:10403000DC018C91082E000C990BC097F89E900122
:10404000F99E300D112430939B0520939A05F801B9
:1040500084A995A90196823391050CF0BAC095AB5D
:1040600084AB800F911FDC018C91082E000C990B02
:10407000C09720919A0530919B05820F931F9093D2
:104080009B0580939A0584A995A902968233910590
:104090000CF09FC095AB84AB800F911FFC01808119
:1040A000082E000C990BC097F89E9001F99E300DD8
:1040B00011243093990520939805D801D4968D91B9
:1040C0009C91D5970196823391050CF082C0D596CC
:1040D0009C938E93D497800F911FFC018081082EB2
:1040E000000C990BC0972091980530919905820F8B
:1040F000931F9093990580939805D4968D919C91E8
:10410000D5970296823391050CF063C0D5969C93A7
:104110008E93D497800F911FDC018C91082E000C98
:10412000990BC097F89E9001F99E300D11243093A1
:10413000970520939605F80184A995A901968233E5
:1041400091050CF046C095AB84AB080F191FD80140
:104150008C91082E000C990BC097209196053091F8
:104160009705820F931F90939705809396056AE1B8
:1041700070E086E995E00E94BA236AE170E086E982
:1041800095E00E94ED23809197058F93809196058D
:104190008F93809199058F93809198058F9380914B
:1041A0009B058F9380919A058F9385EB93E09F9366
:1041B0008F930E943C2E62E08CE090E00E942D23C1
:1041C0000FB6F894DEBF0FBECDBF81E294E00E942F
:1041D000572E61960FB6F894DEBF0FBECDBFDF91AC
:1041E000CF911F910F91FF90EF90DF9008951F9254
:1041F0006F9385EF93E006CC8BE094E066CDFC01F5
:1042000082A993A9813391052CF4019693AB82ABDB
:1042100080E0089581E00895FC01A2A9B3A9A80F48
:10422000B91F6C930C94FF20FC0113AA12AA0C94E2
:104230000C21FC0184A995A9680F791F62337105CF
:1042400024F475AB64AB80E0089581E008950F938A
:104250001F93CF93DF938EE480937C0086E8809356
:104260007A0087EE93E00197F1F700C0000080919B
:104270007A00806480937A0080917A0086FDFCCF7A
:1042800087EE93E00197F1F700C0000080917A007B
:10429000806480937A0080917A0086FDFCCF8FE065
:1042A00097E20197F1F700C00000809178009091AB
:1042B0007900C92FD0E0082F10E01F929F931F9222
:1042C0008F9386E394E09F938F930E943C2EDC2F84
:1042D000CC27C02BD12BCE011F921F929F938F937F
:1042E00089E494E09F938F930E943C2E80E09CE2AF
:1042F000BE010E94C128EB01CB0199279F938F93A8
:1043000084E594E09F938F930E943C2E80917A00E5
:104310008F7780937A008DB79EB740960FB6F8944A
:104320009EBF0FBE8DBF8C2FDF91CF911F910F913C
:104330000895CF93DF9300D000D0CDB7DEB70E94B1
:1043400027216AE00E94B528282F30E050E040E0A5
:1043500029833A834B835C83CA01B9010E945C2B99
:1043600069837A838B839C8369817A818B819C8129
:104370000F900F900F900F90DF91CF9108959F9223
:10438000AF92BF92CF92DF92EF92FF920F931F9363
:10439000CF93DF938C01F42EE52ED62EC72E590134
:1043A0008BE7F8018083E801229683E48183809182
:1043B00050051F928F9386E494E09F938F93DF9331
:1043C000CF930E94832EC80FD91F8CE2982EFE0136
:1043D0009192CF0161E674E00E948C2D2596F50143
:1043E00081818F9380818F9383818F9382818F933B
:1043F00085818F9384818F9380E691E09F938F9343
:10440000DF93CF930E94832EC80FD91F9992CF922A
:10441000DF92EF92FF9286E694E09F938F93DF9373
:10442000CF930E94832EC80FD91F8DE788831982EE
:10443000F80101900020E9F7CF0101972DB73EB7B1
:10444000285E3F4F0FB6F8943EBF0FBE2DBF801BB6
:10445000910BDF91CF911F910F91FF90EF90DF9023
:10446000CF90BF90AF909F9008958BE694E00C940E
:10447000572E0895E3EDF7E087E090E0958384837D
:104480008EE190E0938382831182108297838683EA
:1044900081E090E09187808786E190E09387828732
:1044A0000895FC01208531858091DB079091DC0720
:1044B00082179307B4F12817390789F526813781C8
:1044C0008091D9079091DA078217930754F1281742
:1044D000390729F5248135818091D7079091D80734
:1044E00082179307F4F028173907C9F42281338122
:1044F0008091D5079091D6078217930794F02817DB
:10450000390769F4408151812091D3073091D40754
:1045100081E0241735073CF04217530721F080E073
:10452000089581E0089508959F92AF92BF92CF922F
:10453000DF92EF92FF920F931F93CF93DF93CDB74C
:10454000DEB768970FB6F894DEBF0FBECDBF7B0114
:104550008C010E943A228091D207811159C00E9499
:1045600002156C0126E636E646E450E4ED8AFE8A42
:104570000F8B188F6D897E898F89988D0E94AD2A47
:10458000181604F181E894E00E94572E9601A701C5
:10459000B801CE0101965C010E94BF21982EBF9206
:1045A000AF928BE994E09F938F930E943C2E692DEC
:1045B000C5010E94A90581E08093D2070F900F905A
:1045C0000F900F90C6010E945122882309F189EAB9
:1045D00094E00E94572E9601A701B8018E010F5F4B
:1045E0001F4FC8010E94BF21F82E1F930F938BE924
:1045F00094E09F938F930E943C2E6F2DC8010E94E0
:10460000A90581E08093D2070F900F900F900F9033
:1046100068960FB6F894DEBF0FBECDBFDF91CF9185
:104620001F910F91FF90EF90DF90CF90BF90AF90D0
:104630009F9008959C01FB01211584E0380758F4F0
:104640009FB3892F827091FDFBCF32BD21BDF89AB7
:1046500090B59083089582E008959C01211584E02F
:10466000380758F49FB3892F827091FDFBCF32BD7C
:1046700021BD60BDFA9AF99A089582E00895FF92EB
:104680000F931F93CF93DF930F92CDB7DEB78C01BB
:10469000F62E011584E0180730F51982BE016F5F10
:1046A0007F4FC8010E941A23811116C09981F91603
:1046B00099F06F2DC8010E942D2381110DC0BE01FC
:1046C0006F5F7F4FC8010E941A23811105C081E0EE
:1046D00099819F1101C080E00F90DF91CF911F91D0
:1046E0000F91FF90089582E0F7CFEF92FF920F9322
:1046F0001F93CF93DF938C01EB017B01E40EF51E3A
:10470000CE15DF0579F06991C8010E943F230F5F44
:104710001F4F8823A9F3DF91CF911F910F91FF9035
:10472000EF90089580E0F7CFCF92DF92EF92FF9263
:104730000F931F93CF93DF938C017B016A01D0E02D
:10474000C0E0CC15DD0561F0B7016C0F7D1FCE0117
:10475000800F911F0E941A23811103C02196F1CF6F
:1047600080E0DF91CF911F910F91FF90EF90DF904C
:10477000CF9008950F931F93CF93DF93EC018B019C
:104780006C81C8010E942D236A81C80101960E9494
:104790002D236881C80102960E942D2389818F9361
:1047A00088818F938B818F938A818F938D818F9353
:1047B0008C818F9387EC94E09F938F930E943C2E83
:1047C0008DB79EB708960FB6F8949EBF0FBE8DBFEB
:1047D000DF91CF911F910F9108950F931F93CF9366
:1047E000DF93EC018B016C817D81C8010E941A234B
:1047F0006A817B81C80101960E941A2368817981B0
:10480000C80102960E941A2389818F9388818F9311
:104810008B818F938A818F938D818F938C818F93DE
:1048200082EF94E09F938F930E943C2E8DB79EB7AA
:1048300008960FB6F8949EBF0FBE8DBFDF91CF9143
:104840001F910F910895A5E1B0E0E9E2F4E20C9424
:10485000C4297C011B015A01DC0117961C921E928F
:10486000169713968C9181FF68C3FE0131964F0114
:10487000D70113969C91F10193FD859193FF81914E
:104880001F01882309F4EDC2853239F493FD859127
:1048900093FF81911F01853239F4B70190E00E94A6
:1048A0000C2E65015601E4CF10E0512C00E00032DF
:1048B00038F48B3209F190F48032F9F0833209F147
:1048C00007FD34C020ED280F2A3020F506FF1BC05D
:1048D000BAE01B9F200D1124122F05C08D3279F0F4
:1048E000803371F70160F10193FD859193FF819110
:1048F0001F018111DCCF1AC002600460F4CF086090
:10490000F2CF0061F0CFEAE05E9E200D1124522E1E
:104910000062E9CF8E3221F406FDA3C20064E3CF2A
:104920008C3611F40068DFCF8836E9F29BEB980FE4
:10493000933008F073C00061805E06FF16E00F73CD
:10494000702E853609F071C0689476F877FE77C0CE
:10495000812F1C3308F08BE344244394480E27E056
:10496000D5014D915D916D917D916D014C875D8774
:104970006E877F87042DA4016C857D858E859F853C
:104980000E94A02C5C01B981BC87B0FF04C06DE21D
:10499000662EB3FF0BC05BE2652E71FC07C0E72DEE
:1049A000E4706E2E72FE02C070E2672E0C850C70F1
:1049B00009F456C06110C4C2F3E000E0F51598F4A4
:1049C00083E0052D081B73FC07C0B70180E290E06F
:1049D0000E940C2E0150C9F7662029F0B701862DE0
:1049E00090E00E940C2EFC8548E6A42E40E0B42EF8
:1049F000F3FD04C03CE6A32E30E0B32E172D10715A
:104A0000F5018491811122C0002309F44BCFB70135
:104A100080E290E00E940C2E0150F6CF9BE9980FA7
:104A2000933008F041C10F7E88CF863619F4689420
:104A300077F88CCF112309F489CF115087CF212F1C
:104A4000183010F027E017E0412C8ACF1111805266
:104A5000B70190E00E940C2E2FEFA21AB20AD0CF1D
:104A600077FE78C04A0CFC85F4FF04C08A8181334C
:104A700009F44A9414140CF090C028E0241510F4A2
:104A800028E0422E85E090E077FE06C0C501B7FE23
:104A900002C090E080E0019661100196112331F090
:104AA000212F30E02F5F3F4F820F931F58161906BA
:104AB00019F014F0052D081B872D897011F40111D0
:104AC00071C0662029F0B701862D90E00E940C2E5F
:104AD00073FC02C001116DC077FE98C0B98AA88A24
:104AE000B7FE02C0198A188A68887988A501441916
:104AF00051095D8B4C8B412E512C66277727641909
:104B000075097B8B6A8BA614B7040CF459C08C8989
:104B10009D89861597050CF053C0F501E619F70934
:104B2000E80DF91D818191E0691A7108AA89BB8994
:104B30006A167B060CF446C0B70190E00E940C2E6A
:104B4000BFEF6B167B06F9F6B7018EE290E00E948C
:104B50000C2ED9CF76FC96CFE12FF0E0EA15FB05BD
:104B60003CF03CEFA3163FEFB30614F0689477F8DF
:104B70003296E80DF91D01C01150112319F08291F0
:104B80008033D1F377FE7ECF44244394410E1A152F
:104B90001B0431F02CF01A1975CF4424439472CFC2
:104BA00010E070CFB70180E290E00E940C2E01501F
:104BB00086CFB70180E390E00E940C2E01508ACF8F
:104BC00080E3B1CF6889798961507109409450942C
:104BD000E889F9894E165F06A4F4461A570A460E6C
:104BE000571EA414B50441F49A81963368F49533A2
:104BF00019F4FC85F4FF08C0B70190E00E940C2E68
:104C000003CF512C412CEBCF81E3F6CF8A81813346
:104C100019F02C852F7E2C87B70190E00E940C2E76
:104C20001123A9F0B7018EE290E00E940C2E92E0D1
:104C3000692E610E12E0E12F1F5FE80DF92DF11DC5
:104C40008081B70190E00E940C2E6112F4CF85E6BE
:104C500090E074FE02C085E490E0B7010E940C2E43
:104C6000B7FC06C0A114B104C1F43C8534FF15C0E3
:104C7000B194A194B1088DE2B70190E00E940C2E8E
:104C800080E35AE0A516B10454F4B70190E00E9405
:104C90000C2EB701C501C096B1CF8BE2EDCF8F5F6F
:104CA0004AE0A41AB108EDCF8336B9F0833709F48E
:104CB0003CC0833509F04FC0D501AD90BD906D016A
:104CC000612F70E006FD02C06FEF7FEFC5010E940B
:104CD000782D3C01102F10680DC0650162E0C60EF2
:104CE000D11CD5018C91898366246394712C540165
:104CF000102F1F7713FD04C05614170409F020F578
:104D0000052D6114710409F47FCEF50117FD85911D
:104D100017FF81915F01B70190E00E940C2E0111F5
:104D20000150B1E06B1A7108ECCFF501A190B19080
:104D30006F01612F70E006FD02C06FEF7FEFC501CC
:104D40000E94A22D3C01D4CFB70180E290E00E94E6
:104D50000C2E5A94D1CF843619F0893609F070C0E0
:104D600007FF65C0F50161917191819191916F018A
:104D70000F7697FF08C090958095709561957F4F4D
:104D80008F4F9F4F00682AE030E0A4010E94A62EBA
:104D9000A82EA818BA2C602E06FF0BC0E89460F865
:104DA000A11638F404FF04C002FD02C00E7E602E7E
:104DB000B12E64FE9AC0FE01EA0DF11D80818033A0
:104DC00009F08CC0562D597E652E062D087063FCA7
:104DD0009BC060FE95C01A2DB51410F4150D1B195B
:104DE00064FE98C0B70180E390E00E940C2E62FE42
:104DF00009C088E790E061FE02C088E590E0B70155
:104E00000E940C2EA11608F491C0AA94B12C6FEF49
:104E1000A61AB60AA80CB91CD5018E915D01B7017E
:104E200090E00E940C2EA814B904B1F7EDCDD50185
:104E30006D917D916D01072E000C880B990B98CF19
:104E4000702EE89474F82AE030E0853739F1B02FFD
:104E5000B97F7B2E8037A9F058F48835A9F08F36BA
:104E6000D9F0F701868197816596E2E10C94E029FB
:104E70008837B9F774FE02C0689472F820E130E018
:104E80000DC0689474F8F6CF04FF03C0EB2FE66002
:104E90007E2E20E132E002C028E030E077FE16C02E
:104EA000D5014D915D916D917D916D014C875D872F
:104EB0006E877F87A4016C857D858E859F850E9486
:104EC000A62EA82EA818072D0F7764CFF501819183
:104ED00091916F01AC0170E060E0E8CF62FC02C02C
:104EE000B39473CFB394B39470CF862D867809F4BE
:104EF0006CCFF6CFB70180E290E00E940C2EB39405
:104F0000B514C0F300E06CCF052D0B19B51408F4EF
:104F100067CFF8CF862D867809F474CF8BE261FED7
:104F200080E267FC8DE2B70190E06ACFB70180E3D1
:104F300090E00E940C2E115065CF8FEF9FEF94CF21
:104F400024E000E0251508F049CD84E03ACDCDB746
:104F5000DEB765970FB6F894DEBF0FBECDBF0E94D7
:104F6000C6098FEA91E00E94572E0E94E11B0E9421
:104F7000B11460E087EA95E00E9450120E94272158
:104F8000282F30E050E040E02A8B3B8B4C8B5D8B30
:104F9000CA01B9010E945A2B9F938F937F936F93FD
:104FA000809150051F928F938CEC91E09F938F938B
:104FB0008FE896E09F938F930E94832E60E08FE8A6
:104FC00096E00E94A9050E9431090E94E11B8AED2A
:104FD00091E00E94572E0E94E0140E94D50784EFB2
:104FE00091E00E94572E0E9432080E94D50760E58A
:104FF00075E08AE090E00E941A2364E170E084E7A3
:1050000095E00E94ED2367E170E085E895E00E945D
:10501000ED236AE170E086E995E00E94ED2380913E
:1050200050051F928F938CE092E09F938F930E9484
:105030003C2E0FB6F894DEBF0FBECDBF01E00E943C
:1050400031090E94E11B0E94E0140E94D5070E94D2
:10505000272187EA95E00E94AF13682F8FE896E03A
:105060000E945906182F87EA95E00E9466128091E7
:10507000A705882309F441C087ED95E00E94490EF9
:1050800090E09E838D8387ED95E00E94650E90E011
:105090009C838B8387ED95E00E94890E90E09A8334
:1050A000898389EC95E00E942D0E90E098878F838C
:1050B00089EC95E00E94000E90E09A87898789EC40
:1050C00095E00E94DD0D9C878B87CE0101960E94A2
:1050D000F9150E94D50700935105612F8FE896E0DE
:1050E0000E94A90582E595E00E9485190E94D507D6
:1050F0000E9447090E940B0AA2CF8091510581119D
:10510000ECCF0E9480070E94D507E7CFE5ECF6E0E0
:1051100014AA13AA16AA15AA81E087AB10AE11AE85
:1051200012AE13AE10928E0610928D0687EA95E0AD
:105130000C944B0A70E060E081EE99E00E94C22D71
:1051400090930807809307070895DB018F939F933F
:105150000E941129BF91AF91A29F800D911DA39F25
:10516000900DB29F900D11240895991B79E004C011
:10517000991F961708F0961B881F7A95C9F7809596
:105180000895AA1BBB1B51E107C0AA1FBB1FA6178E
:10519000B70710F0A61BB70B881F991F5A95A9F7E0
:1051A00080959095BC01CD01089597FB072E16F4CC
:1051B000009407D077FD09D00E94C12807FC05D0D4
:1051C0003EF4909581959F4F0895709561957F4F1E
:1051D0000895A1E21A2EAA1BBB1BFD010DC0AA1F38
:1051E000BB1FEE1FFF1FA217B307E407F50720F050
:1051F000A21BB30BE40BF50B661F771F881F991FCB
:105200001A9469F760957095809590959B01AC0113
:10521000BD01CF010895EE0FFF1F0590F491E02D21
:1052200009940E94312AA59F900DB49F900DA49FD0
:10523000800D911D11240895B7FF0C9411290E942F
:105240001129821B930B0895689401C0E894F92FEB
:10525000F12B12F00C945829A0E0B0E0E2E3F9E25F
:105260000C94CA29092E059422F40E94B429112312
:1052700092F4F0E80F26FFEFE094F094009510957B
:10528000B094C094D094A194BF0ACF0ADF0AEF0A69
:10529000FF0A0F0B1F0B0E94632907FC0E94B42911
:1052A000CDB7DEB7ECE00C94E629689401C0E89431
:1052B0008F929F92CF93DF930E946329DF91CF91CA
:1052C0009F908F90089588249924F401E401B0E41C
:1052D0009F93AA279A158B049C04ED05FE05CF0524
:1052E000D007A10798F4AD2FDC2FCF2FFE2FE92D8B
:1052F000982C892E982F872F762F652F542F432F88
:10530000322F2227B85031F7BF9127C01B2EBF91F3
:10531000BB27220F331F441F551F661F771F881F8F
:10532000991F881C991CEE1FFF1FCC1FDD1FAA1F91
:10533000BB1F8A149B04EC05FD05CE05DF05A00705
:10534000B10748F08A189B08EC09FD09CE09DF096E
:10535000A00BB10B21601A94E1F62EF49401AF0179
:10536000BE01CD01000C08956095709580959095D3
:1053700030954095509521953F4F4F4F5F4F6F4F60
:105380007F4F8F4F9F4F08952F923F924F925F9282
:105390006F927F928F929F92AF92BF92CF92DF9245
:1053A000EF92FF920F931F93CF93DF93CDB7DEB7AA
:1053B000CA1BDB0B0FB6F894DEBF0FBECDBF09943E
:1053C0002A88398848885F846E847D848C849B8495
:1053D000AA84B984C884DF80EE80FD800C811B81A3
:1053E000AA81B981CE0FD11D0FB6F894DEBF0FBED2
:1053F000CDBFED010895002E083090F0982F872F33
:10540000762F652F542F432F322F22270850F4CFA9
:10541000220F331F441F551F661F771F881F991FB8
:105420000A95B2F7002D089597FD1094002E0830CC
:1054300098F00850232F342F452F562F672F782FA1
:10544000892F912DF4CF159497958795779567952A
:1054500057954795379527950A95AAF71124002D5A
:105460000895A29FB001B39FC001A39F700D811D3D
:105470001124911DB29F700D811D1124911D08955D
:105480005058BB27AA270E94582A0C94D22B0E945E
:10549000C42B38F00E94CB2B20F039F49F3F19F435
:1054A00026F40C94C12B0EF4E095E7FB0C94BB2B77
:1054B000E92F0E94E32B58F3BA176207730784079A
:1054C000950720F079F4A6F50C94052C0EF4E095E0
:1054D0000B2EBA2FA02D0B01B90190010C01CA01AE
:1054E000A0011124FF27591B99F0593F50F4503E59
:1054F00068F11A16F040A22F232F342F4427585F4B
:10550000F3CF469537952795A795F0405395C9F762
:105510007EF41F16BA0B620B730B840BBAF091501A
:10552000A1F0FF0FBB1F661F771F881FC2F70EC0B9
:10553000BA0F621F731F841F48F48795779567958C
:10554000B795F7959E3F08F0B0CF9395880F08F078
:105550009927EE0F9795879508950E94972B08F449
:1055600081E008950E94C62A0C94D22B0E94CB2B76
:1055700058F00E94C42B40F029F45F3F29F00C94AE
:10558000BB2B51110C94062C0C94C12B0E94E32BC5
:1055900068F39923B1F3552391F3951B550BBB2762
:1055A000AA2762177307840738F09F5F5F4F220FA7
:1055B000331F441FAA1FA9F335D00E2E3AF0E0E89E
:1055C00032D091505040E695001CCAF72BD0FE2FE8
:1055D00029D0660F771F881FBB1F2617370748077C
:1055E000AB07B0E809F0BB0B802DBF01FF27935834
:1055F0005F4F3AF09E3F510578F00C94BB2B0C9412
:10560000062C5F3FE4F3983ED4F386957795679533
:10561000B795F7959F5FC9F7880F911D9695879568
:1056200097F90895E1E0660F771F881FBB1F621787
:1056300073078407BA0720F0621B730B840BBA0B45
:10564000EE1F88F7E09508950E942B2B6894B11106
:105650000C94062C08950E94EB2B88F09F5798F02D
:10566000B92F9927B751B0F0E1F0660F771F881F67
:10567000991F1AF0BA95C9F714C0B13091F00E9481
:10568000052CB1E008950C94052C672F782F8827FE
:10569000B85F39F0B93FCCF3869577956795B395A8
:1056A000D9F73EF490958095709561957F4F8F4F17
:1056B0009F4F0895E89409C097FB3EF4909580951C
:1056C000709561957F4F8F4F9F4F9923A9F0F92FC8
:1056D00096E9BB279395F695879577956795B79546
:1056E000F111F8CFFAF4BB0F11F460FF1BC06F5F2C
:1056F0007F4F8F4F9F4F16C0882311F096E911C03E
:10570000772321F09EE8872F762F05C0662371F05E
:1057100096E8862F70E060E02AF09A95660F771F72
:10572000881FDAF7880F9695879597F90895990F4E
:105730000008550FAA0BE0E8FEEF16161706E8075B
:10574000F907C0F012161306E407F50798F0621B7C
:10575000730B840B950B39F40A2661F0232B242B51
:10576000252B21F408950A2609F4A140A6958FEF70
:10577000811D811D089597F99F6780E870E060E0C2
:1057800008959FEF80EC089500240A9416161706DA
:1057900018060906089500240A9412161306140622
:1057A00005060895092E0394000C11F4882352F085
:1057B000BB0F40F4BF2B11F460FF04C06F5F7F4F3D
:1057C0008F4F9F4F089557FD9058440F551F59F024
:1057D0005F3F71F04795880F97FB991F61F09F3FDE
:1057E00079F087950895121613061406551FF2CF07
:1057F0004695F1DF08C0161617061806991FF1CF57
:1058000086957105610508940895E894BB2766277D
:105810007727CB0197F908950E941F2C0C94D22B67
:105820000E94C42B38F00E94CB2B20F0952311F05E
:105830000C94BB2B0C94C12B11240C94062C0E94AD
:10584000E32B70F3959FC1F3950F50E0551F629FB6
:10585000F001729FBB27F00DB11D639FAA27F00DC9
:10586000B11DAA1F649F6627B00DA11D661F829FF0
:105870002227B00DA11D621F739FB00DA11D621FD5
:10588000839FA00D611D221F749F3327A00D611DF2
:10589000231F849F600D211D822F762F6A2F1124D4
:1058A0009F5750409AF0F1F088234AF0EE0FFF1F07
:1058B000BB1F661F771F881F91505040A9F79E3F5E
:1058C000510580F00C94BB2B0C94062C5F3FE4F345
:1058D000983ED4F3869577956795B795F795E795B4
:1058E0009F5FC1F7FE2B880F911D9695879597F9BD
:1058F00008951F93FC0199278827BC01E894119112
:105900001032E9F3193010F01E30C8F31B3251F099
:105910001D3249F4689406C00E94AD2D610F711DBF
:10592000811D911D119110531A30B0F33EF49095E2
:105930008095709561957F4F8F4F9F4F1F91089570
:10594000283008F027E03327DA01990F311D87FD51
:10595000916000966105710539F432602E5F3D93C8
:1059600030E32A95E1F708959F3F30F080387105C4
:10597000610509F03C5F3C5F3D93913008F0806821
:10598000911DDF93CF931F930F93FF92EF92192FE7
:10599000987F9695E92F96959695E90FFF27E65300
:1059A000FF4F99273327EE24FF24A701E701059035
:1059B0000894079428F4360FE71EF81E491F511D5E
:1059C000660F771F881F991F0694A1F7059007940B
:1059D00028F4E70EF81E491F561FC11D770F881FB8
:1059E000991F661F0694A1F70590079428F4F80EF6
:1059F000491F561FC71FD11D880F991F661F771F8C
:105A00000694A1F70590079420F4490F561FC71F6D
:105A1000D81F990F661F771F881F0694A9F78491D6
:105A20001095177041F0D695C79557954795F794FF
:105A3000E7941A95C1F7E0E7F0E0689415901591A6
:105A400035916591959105907FE27395E118F10A82
:105A5000430B560BC90BD009C0F7E10CF11E431FD5
:105A6000561FC91FD01D7EF4703311F48A95E6CFFE
:105A7000E894015030F0080F0AF40027021708F4E8
:105A8000202F2395022F7A3328F079E37D932A95EE
:105A9000E9F710C07D932A9589F606949795679546
:105AA000379517951794E118F10A430B560BC90B5C
:105AB000D00998F023957E9173957A3308F070E3BE
:105AC0007C932013B8F77E9170617D9330F08395BD
:105AD00071E37D9370E32A95E1F71124EF90FF9035
