:100000000C94B7000C94210A0C94DF000C94DF00D0
:100010000C94DF000C94DF000C94DF000C94530967
:100020000C94DF000C94DF000C94DF000C94DF00D4
:100030000C94DF000C94DF000C94E1000C94DF00C2
:100040000C94DF000C94DF000C94A2090C94DF00E8
:100050000C94DF000C94DF000C94DF000C94DF00A4
:100060000C94D91A0C94DF006E616E00696E660004
:1000700000407A10F35A00A0724E18090010A5D45F
:10008000E80000E87648170000E40B54020000CABC
:100090009A3B000000E1F505000080969800000002
:1000A00040420F000000A086010000001027000061
:1000B0000000E803000000006400000000000A00E7
:1000C000000000000100000000002C76D888DC67EA
:1000D0004F0823DFC1DFAE59E1B1B796E5E3E45342
:1000E000C63AE651997696E8E6C28426EB898C9B5F
:1000F00062ED407C6FFCEFBC9C9F40F2BAA56FA5FF
:10010000F490055A2AF75C936B6CF9676DC11BFC80
:10011000E0E40D47FEF520E6B500D0ED902E03009B
:10012000943577050080841E080000204E0A0000E8
:1001300000C80C333333330F986E12831141EF8DA7
:100140002114893BE65516CFFEE6DB18D1844B38E7
:100150001BF77C1D901DA4BBE424203284725E2218
:100160008100C9F124ECA1E53D270E2722271124A7
:100170001FBECFEFD8E0DEBFCDBF15E0A0E0B1E0FD
:10018000E4E0FEE502C005900D92AA3CB107D9F764
:1001900028E0AAECB5E001C01D92AE37B207E1F746
:1001A00010E0C7EBD0E004C02197FE010E94932726
:1001B000C53BD107C9F70E943F260C94D72E0C945B
:1001C00000001F921FB61F9211248F939F93EF93ED
:1001D000FF938091D305813019F59091D2058FEF6F
:1001E000890F9130D9F48091CF059091D00580FF8F
:1001F00043C05E9A8091CF059091D00596958795E2
:100200009093D0058093CF058091D1058150809344
:10021000D105811102C01092D30583E08093D205ED
:100220008091D505811120C08091CE05882331F1C0
:100230008091CC0581508093CC05811115C010921E
:10024000CE051092D405E091D705F0E08091CA0563
:10025000E852FA4F80838091D7058F5F8093D7054E
:10026000803210F01092D705FF91EF919F918F91FE
:100270001F901FBE1F9018955E98BCCF8091D4052B
:10028000811110C04C99F0CF81E08093D405109279
:10029000CA0594E09093CC0598E09093CB058093A9
:1002A000CD05E2CF9091CC058FEF890F9130B9F455
:1002B0008091CD054C9B05C09091CA05982B9093D9
:1002C000CA05880F8093CD058091CB05815080931E
:1002D000CB05811103C081E08093CE0583E080933C
:1002E000CC05C2CF1092D3051092D4051092D5053B
:1002F0005E9A569A54989FB7F89481E287BD82E03F
:1003000084BD85BDEEE6F0E080818260808316BC0E
:100310009FBF08951092D505089581E08093D5057B
:1003200008959091D6058091D7059817E1F3E92FAC
:10033000F0E0E852FA4F80819F5F903218F490937A
:10034000D60508951092D60508959091D70581E0BD
:100350002091D605291301C080E008951092D70599
:100360001092D60508959091D30581E0913009F05F
:1003700080E008959091D3059130E1F393E090935C
:10038000D2059AE09093D105880F990B92609093D3
:10039000D0058093CF0581E08093D3050895CF9356
:1003A000DF93EC018991882319F00E94BA01FACFFA
:1003B000DF91CF910895CF93DF93EC01FE018491FB
:1003C0002196882319F00E94BA01F8CFDF91CF91CE
:1003D0000895CF93DF93D82FC62F67E084E40E945F
:1003E000DB088D2F0E94DF058C2F0E94DF05C82FB0
:1003F00067E084E40E94B7088C2FDF91CF910895C5
:1004000060E08F770C94E9018AE10E94000240913C
:10041000FA055091FB056091FC057091FD054115B1
:10042000514A6C4B734318F09DE9891B089594EA77
:10043000FCCF89E10E94000285958595089583E1AE
:100440000E9400029091F905891B08950E941F02E5
:10045000882341F08091F9058F5F8093F90580E052
:100460000C9400028FEF08958EE10E9400028295A5
:100470008F700895CF93DF9300D000D0CDB7DEB753
:100480008DE10E94000290E09C0144E035952795A3
:100490004A95E1F7803A9105E0F4F901EE0FFF1F6C
:1004A000E20FF31FE95FFE4F80819181A2819C01E1
:1004B0004A2F50E029833A834B835C8369817A8198
:1004C0008B819C810F900F900F900F90DF91CF91B7
:1004D000089580E291EAA7E0B0E089839A83AB8334
:1004E000BC83ECCFCF92DF92EF92FF920F931F93DA
:1004F000CF93DF9300D000D000D0CDB7DEB788E235
:100500000E940002877090E0B0E0A0E0CC24D82EDA
:10051000E92EFA2E89E20E940002C80ED11CE11CCD
:10052000F11CFE2CED2CDC2CCC248AE20E94000273
:10053000C80ED11CE11CF11C88E20E94000283FF5E
:1005400003C088E0E81AF1080E943A028B018E830A
:100550009D83C701B6010E94E42920E030E040E815
:100560005BE469837A838B839C8369817A818B8145
:100570009C810E94942A20E034E244EF5BE469838A
:100580007A838B839C8369817A818B819C810E9491
:100590003A296B017C01B8018E819D810E94E2297C
:1005A00020E034E244EF58E469837A838B839C83B0
:1005B00069817A818B819C810E943A299B01AC01DF
:1005C000C982DA82EB82FC8269817A818B819C818B
:1005D0000E94942A69837A838B839C8369817A81C0
:1005E0008B819C810E94AC2926960FB6F894DEBFC1
:1005F0000FBECDBFDF91CF911F910F91FF90EF9074
:10060000DF90CF90089580680C94E90163E881E859
:100610000E94E90182E10E94000283FD07C08FE091
:1006200097E20197F1F700C00000F4CF68E082E99B
:100630000E94E90181E00895DF92EF92FF920F930B
:100640001F93CF93DF93F82EE92EC62F82E20E94EC
:100650000002D82F2C2F280F3327331F2F3F3105AF
:1006600019F010F0CD2FC095DF2C0F2D1E2D802FEF
:100670008D198C1738F4F80161918F0180E80E9480
:10068000E901F5CF6D2F6C0F82EA0E94E9018C2FF2
:10069000DF91CF911F910F91FF90EF90DF90089520
:1006A000CF93DF930E941F02882381F08DE00E9488
:1006B0000002D82F80E00E940002C82F6D2F8DE825
:1006C0000E94E9018C2FDF91CF9108958FEFFBCF2E
:1006D00061E881E80C94E90160E881E80C94E901A3
:1006E0000C946C03682F823108F061E1623008F4E9
:1006F00062E06250606889E80C94E901AF92BF92B1
:10070000CF92DF92EF92FF920F931F93CF93DF93DD
:10071000382F292FCB01A32FB22F8093FA05909366
:10072000FB05A093FC05B093FD059B01AD0160E0C6
:1007300070E080E090E003E10E948328A12CE8E4CF
:10074000BE2EF8EECF2EDD24D394E12CF12C00E068
:1007500010E00E94DF27C22FB32E6A017B01182F01
:10076000D92F00E10E949E28622F86E80E94E901AD
:100770002C2F3B2DA601B701812F9D2F08E00E9451
:100780009E28622F87E80E94E9016C2F88E8DF919C
:10079000CF911F910F91FF90EF90DF90CF90BF907E
:1007A000AF900C94E9010F931F93CF93DF938B01CC
:1007B000D82FC92F67E084E40E94930867E084E49F
:1007C0000E94B70862E082E40E94930862E082E43B
:1007D0000E94DB088FE097E20197F1F700C000006C
:1007E00062E082E40E94B7088FE097E20197F1F798
:1007F00000C0000082E40E940002823131F50E94B4
:100800006C03B8018D2F9C2F0E947E0360E08EE860
:100810000E94E90160E08FE80E94E9018CE00E94FB
:100820000002682F63608CE80E94E90164E086EAB8
:100830000E94E90184E10E9472030E94680381E042
:10084000DF91CF911F910F91089580E0F9CFCF9361
:10085000C82F893008F0C8E08DE10E9400026C2F9B
:10086000C53008F465E06450770B660F771F817F11
:10087000682B8DE9CF910C94E901CF93C82F692F94
:1008800080EA0E94E9016C2F81EACF910C94E90182
:10089000682F89EB0C94E9018EE10E940002682F19
:1008A00064608EE90C94E9018EE10E940002682FD9
:1008B0006B7F8EE90C94E9011092F8058DE10E949E
:1008C0000002682F6E7F8DE90C94E90181E080932E
:1008D000F8058DE10E940002682F61608DE90C949B
:1008E000E901CF93C82F0E946803CC2369F00E94CE
:1008F000660460E08DE80E94E90160E082EA0E94FF
:10090000E90181E0CF9108950E945C04F2CFCF937A
:10091000DF93D82F82E10E940002C82FDD2329F146
:100920000E9466046D2F82EA0E94E9016C2F82E921
:100930000E94E901C6FF1EC0C5FD1CC01092F9054A
:100940008091F8058823A1F082E20E940002C82F5E
:1009500080E10E940002682F8DE80E94E9010E9458
:1009600068038C2FDF91CF9108950E945C04DECF45
:1009700083E1EBCF81E00E940002863841F060E025
:100980008DE80E94E90166E881E80E94E901C0E083
:10099000E8CFCF93DF93EC011816190664F40E9498
:1009A00066046C2F82EA0E94E90165E881E8DF9124
:1009B000CF910C94E9010E945C04F7CFCF92DF92B3
:1009C000EF92FF92CF93DF930E943A026B017C017A
:1009D0000E943402D82F86E20E940002C82FA7018D
:1009E000960104C05695479537952795DA95D2F725
:1009F00068EE73E080E090E00E9471276C2F213157
:100A000031054105510550F0686086EADF91CF91CC
:100A1000FF90EF90DF90CF900C94E901677FF5CFC6
:100A2000CF93C82F863020F08D30D0F48630C9F4B3
:100A300065EC81EB0E94E9016CE087EB0E94E90123
:100A4000C6E08EE10E9400028F7090E1C99FB00164
:100A50001124682B8EE90E94E901CF910C94DE04E9
:100A6000CCE063EC81EB0E94E9016AE087EB0E9435
:100A7000E901E7CFCF93462F572FBC01C0E049379C
:100A80008EE1580761057105C8F1C1E0413A98E26D
:100A900059076105710590F1C2E0413F8CE35807A9
:100AA0006105710558F1C3E0413491E559076105CD
:100AB000710520F1C4E043318AE7580761057105EB
:100AC000E8F0C5E0453E92EA590761057105B0F0CE
:100AD000C6E0453284EF58076105710578F0C7E03C
:100AE000493498EE590791E06907710538F0C9E07B
:100AF0004139504D6340710508F4C8E08DE10E9412
:100B000000028F7090E1C99FB0011124682B8DE91C
:100B10000E94E901CF910C94DE040F9300E020E0E5
:100B200040E061E080E00E94C00560EC7AEC89E87A
:100B300096E30E94D303811105C085E491E00E94F1
:100B4000DF2CFFCF62E17AE780E090E00F910C9418
:100B50003A051F93CF93DF93D82FC92F162F0E94EA
:100B60008D0580E00E947104612F8D2F9C2F0E94C3
:100B70001C030E940603DF91CF911F910C946C031C
:100B80000F9394B1986294B924982C9A30E2839F81
:100B9000C001112480722370822B94E0499FA00130
:100BA00011244C70842B30E1639FB00111246071DB
:100BB000862B80648CBD01700DBD0F9108958EBD94
:100BC0000DB407FEFDCF8EB50895BF92CF92DF9290
:100BD000EF92FF920F931F93CF93DF93EC01BB240F
:100BE000B39488E8C82E83E1D82EE12CF12C02E3DF
:100BF00010E08DA99EA92BA93CA928173907B9F1A6
:100C00002CAD222321F02130B1F01CAE0BC08C0F93
:100C10009D1FFC0181818B3729F4BCAEC8AED9AED3
:100C2000EAAEFBAE8DA99EA90196B8010E945D2790
:100C30009EAB8DABDECF8C0F9D1FFC01618187E0E9
:100C400097E06D3739F40E94A61F87E097E00E9475
:100C5000D31CDBCF0E94A61F8111D7CF88AD99ADE1
:100C6000AAADBBAD892B8A2B8B2B79F2DBCFDF9121
:100C7000CF911F910F91FF90EF90DF90CF90BF9099
:100C80000895FC0187A9882379F080AD91ADA2ADCC
:100C9000B3AD0097A105B10539F00197A109B109DC
:100CA00080AF91AFA2AFB3AF08958F929F92AF92F2
:100CB000BF92CF92DF92EF92FF920F931F93CF9349
:100CC000DF938C01F62E0E94C11FE62ED72EC82E70
:100CD000B92EE801229680915506882309F485C033
:100CE0008BE7F801808383E481838091FE051F9266
:100CF0008F938AEF94E09F938F93DF93CF930E941B
:100D00000B2DC80FD91F9CE2A92EA992BE0185E523
:100D100096E00E94600DFC01A192BF0185E596E07E
:100D20000E947F0DFC01A192BF0185E596E00E9423
:100D30009C14EC01A9921092BE068091C6068F9376
:100D40008091C5068F938091C4068F938091C306CE
:100D50008F938CE591E09F938F93DF93CF930E94C5
:100D60000B2DC80FD91FA992809112068F938091E5
:100D700011068F93809114068F93809113068F93A1
:100D8000809116068F93809115068F9380E691E0EF
:100D90009F938F93DF93CF930E940B2DC80FD91F82
:100DA000A992BF92CF92DF92EF9289E691E09F9352
:100DB0008F93DF93CF930E940B2DC80FD91FFE0195
:100DC000A192CF012DB73EB7205E3F4F0FB6F894EA
:100DD0003EBF0FBE2DBF249632E06EE671E0F316E3
:100DE00009F469C062E771E066C08BE7F8018083AF
:100DF00083E481838091FE051F928F938AEF94E0B4
:100E00009F938F93DF93CF930E940B2DC80FD91F11
:100E10008CE2A82EFE01A192CF0166E771E00E944C
:100E2000142CAF828DE28887A9868A87AB868C874F
:100E30004E01FEE08F0E911CAD86809112068F93BD
:100E4000809111068F93809114068F9380911306E1
:100E50008F93809116068F93809115068F9380E66D
:100E600091E09F938F939F928F920E940B2DE401AC
:100E7000C80FD91FA992BF92CF92DF92EF9289E655
:100E800091E09F938F93DF93CF930E940B2DC80F18
:100E9000D91FFE01A192CF012DB73EB7285E3F4F6B
:100EA0000FB6F8943EBF0FBE2DBF249631E06DE71C
:100EB00071E0F31297CF0E94142C8DE7888319827A
:100EC000E80109900020E9F72197C01BD10BDF93BF
:100ED000CF931F930F9381E891E09F938F930E948C
:100EE000C42C0F900F900F900F900F900F90CE0189
:100EF000DF91CF911F910F91FF90EF90DF90CF90F6
:100F0000BF90AF909F908F900895CF93DF93CDB710
:100F1000DEB761970FB6F894DEBF0FBECDBFE0E03D
:100F2000F6E086A197A19E838D8384A195A19C83E1
:100F30008B8382A193A19A8389838EE090E0988726
:100F40008F8381E090E09A87898786E190E09C8793
:100F50008B87CE0101960E943D1681E08093FF05AC
:100F600061960FB6F894DEBF0FBECDBFDF91CF9173
:100F70000895E0E0F6E017A216A282E090E095A3C3
:100F800084A313A212A210924906109248069093CD
:100F9000470680934606109245061092440687E164
:100FA00090E090AF87AB8AE390E096AB85AB14AA54
:100FB00013AA089541E156E063E176E085E196E009
:100FC0000E94DE15E0E0F6E082898F9381898F939D
:100FD00084898F9383898F9386898F9385898F9353
:100FE00085E991E09F938F930E94C42C8DB79EB7A3
:100FF00008960FB6F8949EBF0FBE8DBF089585E585
:1010000097E00E9441068091510790915207A0916C
:101010005307B09154070097A105B10559F0019706
:10102000A109B1098093510790935207A0935307E8
:10103000B093540785E596E00C948514282F80938F
:1010400055078091880790918907FC01EB5AF84F6A
:1010500021830196823391052CF490938907809324
:1010600088070895109289071092880708950E94B2
:101070008D0580E395E7A0E0B0E080935107909361
:101080005207A0935307B093540780915107909152
:101090005207A0915307B0915407892B8A2B8B2BB1
:1010A000D1F080E00E948704882379F384EB91E0FB
:1010B0000E94DF2C0E941F02882329F00E94260232
:1010C0000E941E08F7CF85E597E00E94E505809114
:1010D000FF058823D1F20895833479F08434C1F078
:1010E000823401F524B181E090E001C0880F6A9557
:1010F000EAF78095822384B9089527B181E090E0D2
:1011000001C0880F6A95EAF78095822387B9089510
:101110002AB181E090E001C0880F6A95EAF78095D6
:1011200082238AB90895833471F08434B1F0823413
:10113000E9F484B121E030E001C0220F6A95EAF7BA
:10114000822B84B9089587B121E030E001C0220FDD
:101150006A95EAF7822B87B908958AB121E030E0D9
:1011600001C0220F6A95EAF7822B8AB90895833469
:1011700071F08434B1F08234E9F485B121E030E0DB
:1011800001C0220F6A95EAF7822B85B9089588B1CC
:1011900021E030E001C0220F6A95EAF7822B88B97E
:1011A00008958BB121E030E001C0220F6A95EAF783
:1011B000822B8BB90895833479F08434C1F0823462
:1011C00001F525B181E090E001C0880F6A95EAF74A
:1011D0008095822385B9089528B181E090E001C00F
:1011E000880F6A95EAF78095822388B908952BB114
:1011F00081E090E001C0880F6A95EAF7809582232C
:101200008BB90895442319F0413019F008950C94D6
:10121000DB080C94B7088334B1F08434B1F0823425
:10122000B1F423B181E090E0062E02C0880F991F2F
:101230000A94E2F730E08223932302C095958795C4
:101240006A95E2F7089526B1EDCF29B1EBCF81E0A1
:1012500008950895E1E8F0E0808182608083089538
:101260001092810008958091840090918500969558
:10127000879508951092B200E0EBF0E080818260E3
:1012800080838FE18093B30017BAE0E7F0E08081BC
:1012900082608083E1EBF0E0808185608083089547
:1012A0001092B10008951F920F920FB60F92112461
:1012B0002F933F934F935F936F937F938F939F935E
:1012C000AF93BF93EF93FF930E94FF0717BA8091EC
:1012D000930790919407A0919507B0919607019676
:1012E000A11DB11D8093930790939407A093950738
:1012F000B0939607FF91EF91BF91AF919F918F911E
:101300007F916F915F914F913F912F910F900FBE01
:101310000F901F901895CF93DF9300D000D0CDB7DA
:10132000DEB78091930790919407A0919507B091B3
:101330009607BC01CD010F900F900F900F90DF9199
:10134000CF9108951F920F920FB60F9211242F93F1
:101350003F934F935F936F937F938F939F93AF933D
:10136000BF93EF93FF938091C60080939207809183
:1013700092070E941E0882E08093C000FF91EF91C7
:10138000BF91AF919F918F917F916F915F914F919D
:101390003F912F910F900FBE0F901F901895809145
:1013A000970790919807909377088093760889E142
:1013B0008093C4001092C50088E98093C10082E048
:1013C0008093C00008959091C00095FFFCCF80935A
:1013D000C600089590910001992329F00E94E30925
:1013E00090E080E0089581E090E00895EF92FF9210
:1013F0000F931F93CF93DF93EB018C01F12CE12C22
:10140000EC16FD064CF4F80181918F010E94E3096E
:10141000FFEFEF1AFF0AF4CFCE01DF91CF911F91BA
:101420000F91FF90EF90089583B7816083BF83B7DA
:10143000817F846083BF7894889583B78E7F83BFD4
:101440000895E09A18950F931F93CF93DF93EC01C3
:101450008B010E943309998388830A831B83DF9160
:10146000CF911F910F910895CF93DF93EC010E94CC
:1014700033099C014A815B8181E04115510561F08E
:10148000888199818217930750F4281B390B81E0DA
:101490002417350708F480E0DF91CF910895281BC9
:1014A000390B21503048F3CFFC0110821182138296
:1014B0001282148215821682178210861286118675
:1014C00013861486158616861786118A108A128A44
:1014D000138A148A158A168A108E178A118E128E14
:1014E000138E148E158E12A213A214A215A216A288
:1014F00017A210AA11AA12AA13AA14AA15AA16AE04
:1015000017AEDC01DE9616961D921D921D921C925E
:1015100019971E961C9211961C92119716961D9261
:101520001D921D921C9219971E961C9211961C9248
:10153000119716961D921D921D921C9219971E9638
:101540001C9211961C92119716961D921D921D9237
:101550001C9219971E961C9211961C921197169622
:101560001D921D921D921C9219971E961C92119607
:101570001C9211961C92509682E08C9311961C92AC
:1015800011961C9211961C92119611961C921E9205
:10159000129611961C921E9212961D921D921D92E9
:1015A0001C92139714961D921D921D921C921397D4
:1015B00014961D921D921D921C92139714961D92C3
:1015C0001D921D921C92139714961D921D921D92AE
:1015D0001C921397E957FF4F10820895862F062E0D
:1015E000000C990B2FEB260F263010F4C7970895A7
:1015F0006156663018F4875591090895C09708958B
:101600001F93CF93DF9300D000D000D0CDB7DEB7CB
:101610008D839E83AD81BE811C911D3219F411967C
:10162000BE83AD838D819E810E94012B69837A8365
:101630008B839C83A4E6B0E09B01AC010E949927B8
:10164000AB01BC01ED81FE81FA83E983E981FA8176
:10165000DF012D91BA83A983822F022E000C990BF2
:10166000C0970A9798F32E3231F58181082E000C2D
:10167000990BC0978A309105F0F4AAE0A89F9001D9
:10168000A99F300D1124C901330FAA0BBB0B480FC2
:10169000591F6A1F7B1F8281082E000C990BC0976F
:1016A0008A30910540F4092E000CAA0BBB0B480FA1
:1016B000591F6A1F7B1F1D3239F470956095509534
:1016C00041955F4F6F4F7F4FCB01BA0126960FB602
:1016D000F894DEBF0FBECDBFDF91CF911F9108956B
:1016E0008F929F92AF92BF92EF92FF920F931F93B0
:1016F000CF93DF93CDB7DEB72D970FB6F894DEBF4B
:101700000FBECDBF8D8799878B010E94012B24E6E8
:1017100030E040E050E00E947127490169837A83FC
:101720008B839C839B01AC0160E876E988E990E0BB
:101730000E942D276D837E838F839887D8018D9299
:101740009C92ED85F9852191822F022E000C990B38
:10175000C0970A97C0F32E32E9F57F0120E836E9F9
:1017600048E950E029833A834B835C838AE0882EE2
:10177000912CA12CB12CD701ED917D012E2F022EA1
:10178000000C330B205331093A8729872A30310561
:1017900008F569817A818B819C81A50194010E9461
:1017A000712729833A834B835C83A985BA850E947C
:1017B000A42769877A878B879C872D813E814F81FB
:1017C0005885260F371F481F591F2D833E834F838F
:1017D0005887D1CFA5E0B0E02D813E814F8158855B
:1017E0000E949927DC01CB010196A11DB11DBC010E
:1017F000CD0123E030E040E050E00E947127D801A5
:1018000012962D933D934D935C93159716961C92CB
:101810002D960FB6F894DEBF0FBECDBFDF91CF91EE
:101820001F910F91FF90EF90BF90AF909F908F907E
:101830000895CF93DF9300D000D0CDB7DEB720E07E
:1018400030E044E351E469837A838B839C8369812C
:101850007A818B819C810E94C92820E030E044EB92
:1018600051E469837A838B839C8369817A818B813C
:101870009C810E943A2969837A838B839C83698146
:101880007A818B819C810E94AC2969837A838B83C6
:101890009C8389819A8160E170E00E945D27FC0150
:1018A000EE0FFF1FEB5DFE4F808191810F900F9037
:1018B0000F900F90DF91CF910895CF93DF93EC01BC
:1018C00087E0FE017096DE01129601900D928A95D6
:1018D000E1F787E0FE017796DE01199601900D92FF
:1018E0008A95E1F70E948B096E8F7F8F88A399A359
:1018F00081E089838883DF91CF9108959B01BC01AA
:10190000605F7F4FC9010C94700B9B01BC01695E45
:101910007F4FC9010C94700BEF92FF920F931F93AE
:10192000CF93DF9300D000D000D0CDB7DEB78D834A
:101930009E83AD81BE8111961C92119714966D9174
:101940007D918D919C9117970E94E22928E23BE6B8
:101950004EE65EE469837A838B839C8369817A8116
:101960008B819C810E943A297B018C01ED81FE8153
:10197000828193819C0150E040E029833A834B832C
:101980005C83CA01B9010E94E2299B01AC01E98292
:10199000FA820B831C8369817A818B819C810E94EE
:1019A000C928462F572FBC0149835A836B837C83F8
:1019B000AD81BE8118968C91882339F09A01AB01D4
:1019C000505829833A834B835C8369817A818B8168
:1019D0009C8126960FB6F894DEBF0FBECDBFDF9177
:1019E000CF911F910F91FF90EF900895EF92FF928A
:1019F0000F931F93CF93DF9300D000D000D0CDB7CB
:101A0000DEB78D839E83AD81BE8111961C921197A6
:101A10001B966D917D918D919C911E970E94E2295C
:101A200028E23BE64EE65EE469837A838B839C83FF
:101A300069817A818B819C810E943A297B018C018A
:101A4000ED81FE81818592859C0150E040E02983F3
:101A50003A834B835C83CA01B9010E94E2299B014E
:101A6000AC01E982FA820B831C8369817A818B81C4
:101A70009C810E94C928462F572FBC0149835A8355
:101A80006B837C83AD81BE811F968C91882339F056
:101A90009A01AB01505829833A834B835C83698157
:101AA0007A818B819C8126960FB6F894DEBF0FBE9B
:101AB000CDBFDF91CF911F910F91FF90EF900895CF
:101AC000CF93DF93EB010E948C0C9F938F937F93B6
:101AD0006F9383E492E09F938F93DF93CF930E9461
:101AE0000B2D2DB73EB7285F3F4F0FB6F8943EBF82
:101AF0000FBE2DBF8C0F9D1FDF91CF910895CF9307
:101B0000DF93EB010E94F60C9F938F937F936F936B
:101B100083E492E09F938F93DF93CF930E940B2DEA
:101B20002DB73EB7285F3F4F0FB6F8943EBF0FBEAC
:101B30002DBF8C0F9D1FDF91CF910895CF93DF9321
:101B4000EC018E819F81A885B9858A839B83AC83B4
:101B5000BD830E948B096A877B878C879D8781E084
:101B600089838883DF91CF910895CF93DF93EC0130
:101B70008E819F81A885B9858A839B83AC83BD8331
:101B80000E948B096A877B878C879D8781E0898388
:101B90008883DF91CF910895CF93DF93EC01CB0140
:101BA0000E94000B6E837F8388879987DF91CF9196
:101BB0000895CF93DF93EC01CB010E94012B6E833C
:101BC0007F8388879987DF91CF910895CF93DF93A3
:101BD00000D000D0CDB7DEB7FC01118282819381A5
:101BE000A481B581BC01CD0124E630E040E050E0A5
:101BF0000E94712769837A838B839C8389819A8170
:101C00008053984F0F900F900F900F90DF91CF91CE
:101C10000895CF92DF92EF92FF92CF93DF9300D09F
:101C200000D0CDB7DEB7FC01118282819381A481FF
:101C3000B58124E6C22ED12CE12CF12CBC01CD01C2
:101C4000A70196010E947127CA01B901A701960157
:101C50000E947127862F0F900F900F900F90DF91A9
:101C6000CF91FF90EF90DF90CF900895CF93DF93C7
:101C700000D000D0CDB7DEB7FC0111828281938104
:101C8000A481B581BC01CD0120E137E240E050E004
:101C90000E947127822F0F900F900F900F90DF916D
:101CA000CF910895CF93DF9300D000D0CDB7DEB7AA
:101CB000FC01118282819381A481B581BC01CD0197
:101CC00020E432E44FE050E00E947127822F0F9011
:101CD0000F900F900F90DF91CF910895CF93DF93E6
:101CE00000D000D0CDB7DEB7FC0111828281938194
:101CF000A481B581BC01CD0120E137E240E050E094
:101D00000E947127CA01B90124E630E040E050E0AA
:101D10000E947127862F0F900F900F900F90DF91E8
:101D2000CF910895CF92DF92EF92FF92CF93DF93FE
:101D300000D000D0CDB7DEB7FC0111828281938143
:101D4000A481B58124E6C22ED12CE12CF12CBC015A
:101D5000CD01A70196010E947127CA01B901A7010F
:101D600096010E947127862F0F900F900F900F9071
:101D7000DF91CF91FF90EF90DF90CF900895CF93B8
:101D8000DF9300D000D0CDB7DEB7FC011182828195
:101D90009381A481B581BC01CD0124E630E040E00F
:101DA00050E00E947127862F0F900F900F900F9098
:101DB000DF91CF910895CF93DF93EC018A859B85C6
:101DC000AC85BD858E839F83A887B9870E948B09C8
:101DD0006A837B838C839D8381E089838883DF9101
:101DE000CF910895CF93DF93EC01CB010E94000BBC
:101DF0006A877B878C879D87DF91CF910895CF93EA
:101E0000DF93EC018A859B85AC85BD858E839F839E
:101E1000A887B9870E948B096A837B838C839D8303
:101E200081E089838883DF91CF910895CF93DF93F9
:101E3000EC01CB010E94012B6A877B878C879D87F1
:101E4000DF91CF910895CF93DF93EC01BC014096D1
:101E50000E94142C0E948B0968A379A38AA39BA3D8
:101E600081E08DA38CA3DF91CF91089540E150E0F4
:101E70000C941B2CAF92BF92DF92EF92FF920F93C4
:101E80001F93CF93DF93EC01FC01EA57FF4FD08003
:101E9000DD2009F4A0C0319660810E94EE0A182F5F
:101EA000FE01E857FF4F6081CE010E94EE0A1295B5
:101EB000107F180FFE01EB57FF4F8081811372C016
:101EC000B59680819181A281B3810196A11DB11D3A
:101ED00080839183A283B3838E0107561F4FD8015D
:101EE0008C91882361F0389780819181A281B381A0
:101EF0000196A11DB11D80839183A283B383FE014E
:101F0000EA56FF4F80818823A1F18130C1F4CE01D0
:101F100082960E949E0DCE01C0960E94B50DF801DA
:101F20008081882361F0CE010E945D0CCE01CE96A7
:101F30000E94DB0ECE01845B9F4F0E94DB0E8E0160
:101F400004561F4FF801C081D1812097C9F1D801F3
:101F5000ED91FC9166A177A18EA19FA10E940B2C0F
:101F6000892B71F5CE010E94230F0AA4DBA5C02D99
:101F7000ECCFCE01C0960E94B50DD8018C9188237C
:101F800041F0CE010E945D0CCE01865A9F4F0E9407
:101F9000DB0ECE0188599F4F0E94FF0ECE018A585A
:101FA0009F4FCBCFCA55DF4F88819981AA81BB81D2
:101FB0000196A11DB11D88839983AA83BB83D12C6F
:101FC0008D2DDF91CF911F910F91FF90EF90DF90BA
:101FD000BF90AF9008957C01B7E9EB0EF11CF701BB
:101FE00030818A569F4F5C018E0104561F4F31117C
:101FF0003EC07E0197E8E90EF11C68E472E0C7017B
:102000000E940B2C892B39F06EE472E0C7010E940C
:102010000B2C892B21F481E0D5018C9310C064E551
:1020200072E0C7010E940B2C892B39F06AE572E03F
:10203000C7010E940B2C892BC1F4F5011082C656F2
:10204000DF4F88819981F80191838083C081D1819C
:10205000209709F4B5CFB7018EA19FA10E940B2C48
:1020600097FF98C08AA59BA5EECF82E0D5CFDC0173
:10207000EC91E230C9F0CE0189579F4FDC012C91E1
:10208000222391F0B0E2EB9FF0011124E32B319772
:10209000E932F10548F4E752F14D0C949327BC0165
:1020A000CE01C0960E94CC0DF801A080B180C95726
:1020B000DF4FA114B10409F483CFD801ED91FC9155
:1020C00066A177A1F50186A197A10E940B2C892B0F
:1020D00009F076CFD50198968D919C91F7012081DA
:1020E000422F50E0281719060CF46ACF8417950781
:1020F00021F4BE01C5010E94360FD5019A96AD901C
:10210000BC90D7CFFE01E756FF4F81E0213479F133
:1021100080E02DC0BE01605F7F4F0E94700BC4CF76
:1021200081E0233509F080E08E8BBECFBE01695E71
:102130007F4FF3CF81E0273509F080E08D8FB4CF5A
:10214000BC01CE01CE960E94F20EAECFBC01CE01F4
:10215000845B9F4FF8CFBC01CE0182960E94D90DBF
:10216000A3CFFE01E756FF4F81E021338CF280833D
:102170009BCFBC01CE0188599F4F0E94160F94CF70
:10218000BC01CE018A589F4FDECFBC01CE01865ADA
:102190009F4FD9CF892B09F413CFD8011D921C92E0
:1021A0000FCFCF92DF92EF92FF921F93CF93DF93E7
:1021B000EC01162FFC01E256FF4F80819181A28134
:1021C000B3810196A11DB11D80839183A283B38346
:1021D000CE0188569F4F6C01DE01AA57BF4F7D018B
:1021E000643209F449C0DCF46A3019F16D3009F148
:1021F000D601EC91EE3048F481E08E0F8C93EC0F19
:10220000FD2FF11DE957FF4F1083F70180818111E8
:1022100042C0CB57DF4F68811627188325C06A322A
:1022200041F06C3229F7FE01EB57FF4F8081862782
:102230008083D601EC9180E0EF3048F4EC0FFD2F65
:10224000F11DE957FF4F1082CE010E943A0FC95687
:10225000DF4F98819F5F9883F601108291E01A32D8
:1022600009F090E0D7019C93DF91CF911F91FF90EF
:10227000EF90DF90CF900895FC011082FE01E956A7
:10228000FF4F108272971082719682E080831C92B9
:10229000C756DF4F188280E0E7CFAF92BF92CF9250
:1022A000DF92EF92FF920F931F93CF93DF937B0107
:1022B000B42EA52E69018C0106561F4FF801C0816E
:1022C000D1812097B1F06EA17FA18B2D9A2D0E9414
:1022D0000B2C97FD0EC0892B29F488A599A5C8164B
:1022E000D9063CF08E01065D1F4F0AA4DBA5C02D68
:1022F000E8CFF701D3A7C2A7F801F182E082DF910E
:10230000CF911F910F91FF90EF90DF90CF90BF90F2
:10231000AF900895CF93DF93FC01DB0110A211A2CF
:1023200012A213A214A215A246A357A320A731A755
:1023300090E1EF01892F19928A95E9F7BF01605F5B
:102340007F4FEB0119929A95E9F7BF01CD01DF911B
:10235000CF910C944D110C948A112FE789EA93E0E8
:10236000215080409040E1F700C0000040E063E071
:1023700084E40E94020987EB98E80197F1F700C016
:10238000000041E063E084E40E94020987EB98E8E2
:102390000197F1F700C0000040E063E084E40E9490
:1023A000020987EB98E80197F1F700C0000080E68A
:1023B00092E00C94DF2C1F93CF93DF93EC01C25576
:1023C000DF4F8CED95E0A0E0B0E088839983AA838D
:1023D000BB8381E492E00E94DF2C10E08881998128
:1023E000AA81BB81892B8A2B8B2B79F00E94A501B6
:1023F0008823A1F30E949101882381F3082E000C09
:10240000990B0E94D82C1F5FE9CF81E492E00E94D3
:10241000DF2C812F110F990BDF91CF911F91089520
:102420000F931F93CF93DF93EC0106E010E0CE01F2
:102430000E94AD11CE010E94DB11892B51F082E781
:1024400092E00E94DF2C81E0DF91CF911F910F91EC
:1024500008950150110959F78AE792E00E94DF2C94
:1024600080E0F2CF0F931F93CF93DF93EC0106E050
:1024700010E0CE010E94AD11CE010E94DB11892B2C
:1024800051F48DE892E00E94DF2C81E0DF91CF9142
:102490001F910F9108950150110959F788E992E0B1
:1024A0000E94DF2C80E0F2CF40E063E084E40C94F3
:1024B000020941E063E084E40C9402090E94720185
:1024C0000E948A01789408951F93CF93DF93EC01C3
:1024D000162F0E945E1263E084E40E94B70863E056
:1024E00084E40E949308CC57DF4F1883DF91CF918B
:1024F0001F910895EF92FF920F931F93CF93DF9355
:1025000000D000D000D0CDB7DEB78D839E838EEA99
:1025100092E09F938F930E94C42C0F900F90AD81F7
:10252000BE818C91882309F41FC1CD010E94F60C55
:10253000162F072FF82EE92E8D819E810E948C0C7C
:10254000EF92FF920F931F939F938F937F936F93BD
:1025500089EB92E09F938F930E94C42C0FB6F8945E
:10256000DEBF0FBECDBF8DEC92E09F938F930E9494
:10257000C42C0F900F90AD81BE8192968C91929752
:10258000882309F4F6C07D01B2E2EB0EF11CC7010D
:102590000E94E60D182F092FC7010E94090EED8138
:1025A000FE8113A20F931F931F928F93AD81BE8163
:1025B00094968D919D910D90BC91A02D89839A83C5
:1025C000AB83BC83BC01CD0120E137E240E050E0A9
:1025D0000E9471271F922F9389ED92E09F938F9312
:1025E0000E94C42C0FB6F894DEBF0FBECDBFAD81E4
:1025F000BE81D0968C91D097882309F4BFC08D01FD
:10260000005D1F4FD1961C92D197D2968D919D91CE
:102610000D90BC91A02D89839A83AB83BC83BC01B0
:10262000CD0120E432E44FE050E00E9471272A30CF
:1026300020F480E390E00E94D82CED81FE8111AA65
:1026400082A993A9A4A9B5A989839A83AB83BC83E2
:10265000BC01CD0120E432E44FE050E00E9471273C
:102660001F922F9386EF92E09F938F930E94C42C2A
:10267000C8010E946E0E0F900F900F900F908A303D
:1026800020F480E390E00E94D82CC8010E946E0ED6
:102690001F928F9386EF92E09F938F930E94C42C9A
:1026A000C8010E94920E0F900F900F900F908A30E9
:1026B00020F480E390E00E94D82CC8010E94920E82
:1026C0001F928F938AEF94E09F938F930E94C42C64
:1026D000ED81FE8111AA82A993A9A4A9B5A9898334
:1026E0009A83AB83BC83BC01CD0124E630E040E09B
:1026F00050E00E9471270F900F900F900F906A305A
:1027000020F480E390E00E94D82CED81FE8111AA94
:1027100082A993A9A4A9B5A989839A83AB83BC8311
:10272000BC01CD0124E630E040E050E00E9471277A
:102730007F936F9386E094E09F938F930E94C42CC5
:102740000F900F900F900F9081E492E026960FB6B5
:10275000F894DEBF0FBECDBFDF91CF911F910F91D7
:10276000FF90EF900C94DF2C84EC92E00E94DF2C21
:10277000FACE8CEE92E00E94DF2C39CF84EC92E00E
:102780000E94DF2CE1CF8F929F92AF92BF92CF92A7
:10279000DF92EF92FF920F931F93CF93DF93EC01A1
:1027A0008CEF92E00E94DF2CCE010E941012882351
:1027B00009F4A9C01882FE01E259FF4F108211826C
:1027C000128213826E0188E6C80ED11CF6011082B7
:1027D0008E0102551F4F80E69AEEA0E0B0E0F801AE
:1027E00080839183A283B38380E6882E8AEE982E1D
:1027F000A12CB12CEE24E394F80180819181A28177
:10280000B381892B8A2B8B2B09F46FC00E94A50101
:10281000882371F00E949101F82E882329F0082E58
:10282000000C990B0E94D82C6F2DCE010E94D11064
:10283000F80180819181A281B38188159905AA054B
:10284000BB0560F4EE2051F0CE010E947A12F0ED4B
:102850008F1AF7E09F0AA108B108E12CF8018081E6
:102860009181A281B38188169906AA06BB0610F44D
:10287000EE24E3948881882309F4BECFF601808199
:10288000882309F4B9CF118286819781A085B1850B
:102890000397A105B10508F4AFCFF80180819181BC
:1028A000A281B381BF93AF939F938F938FE093E007
:1028B0009F938F930E94C42CCE010E9432120F90DE
:1028C0000F900F900F900F900F908823D1F080E021
:1028D000DF91CF911F910F91FF90EF90DF90CF90FC
:1028E000BF90AF909F908F900895188280819181C2
:1028F000A281B381BF93AF939F938F9389E393E0BA
:10290000D7CF82E0E5CF81E0E3CFFC01E255FF4F76
:1029100080819181A281B381892B8A2B8B2B59F0E5
:1029200080819181A281B3810197A109B10980833E
:102930009183A283B3830895CF93DF93EB01FC01CE
:10294000EA58FF4F118266817781808591850E94C8
:10295000E4299F938F937F936F9385E693E09F93F2
:102960008F93DF93CF930E940B2D2DB73EB7285F37
:102970003F4F0FB6F8943EBF0FBE2DBF8C0F9D1F6B
:10298000DF91CF9108956AE00E943D278295807F74
:10299000890F0895982F92959F708F702AE0929FCB
:1029A000800D11240895CF93C82F88E60E94481CFB
:1029B0008C2F0E94621C0E94521C61E088E60E94DB
:1029C0003B1CCF910C94B71CCF93DF93C82FD62F0D
:1029D00088E60E94481C8D2F0E94621C8C2F0E944A
:1029E000621CDF91CF910C94521CCF93DF9381E155
:1029F0000E94D314D82F82E10E94D314C82F61E122
:102A00008EEE0E94E41462E18DED0E94E41481E1F7
:102A10000E94D3148E3E91F482E10E94D3148D3D26
:102A200069F481E08093AB0761E18D2F0E94E4148B
:102A300062E18C2FDF91CF910C94E41481E08093BC
:102A4000AA07DF91CF91089562E084E40E946C08A8
:102A500062E084E40E94B708E9E6F0E080818260E9
:102A60008083E89A789408958091AB0708958091C7
:102A7000AA07089581E08093AB071092AA070895F2
:102A80001092AB0781E08093AA070895EF92FF921E
:102A90000F931F93CF93DF93CDB7DEB729970FB670
:102AA000F894DEBF0FBECDBF88E60E94481C80E0D0
:102AB0000E94621C0E94521C67E088E60E943B1C38
:102AC0008E010F5F1F4F7E0188E0E80EF11C0E940F
:102AD000B71CF80181938F01EE15FF05C1F70E9425
:102AE000521C89818F770E94CA1490E090939A07B4
:102AF000809399078A810E94CA1490E090939C0762
:102B000080939B078B810E94CA14082F10E01093BA
:102B10009E0700939D078D810E94CA1490E09093B8
:102B2000A00780939F07FE808F2D8F710E94CA148B
:102B300090E09093A2078093A1078F810E94CA140E
:102B400090E0F7FE27C08053984F9093A40780939E
:102B5000A3078C810E94CA1490E09093A6078093EB
:102B6000A50701151105C9F41092A9071092A8072D
:102B700081E08093A70789E997E029960FB6F8943A
:102B8000DEBF0FBECDBFDF91CF911F910F91FF90A0
:102B9000EF9008958459984FD8CF0C3011052CF43C
:102BA0001093A9070093A807E3CF0C5011091093C5
:102BB000A9070093A8071092A707DDCF8F929F92D5
:102BC000AF92BF92CF92DF92EF92FF920F931F933B
:102BD000CF93DF93CDB7DEB729970FB6F894DEBF5A
:102BE0000FBECDBF8C017B016A0188E60E94481CA4
:102BF00080E00E94621C0E94521C67E088E60E94EE
:102C00003B1CCE0101965C014E0198E0890E911C9F
:102C10000E94B71CF50181935F018E169F06C1F7D4
:102C20000E94521CC114D10429F089810E94CA1447
:102C3000F6018083E114F10429F08A810E94CA140C
:102C4000F70180830115110529F08B810E94CA14B8
:102C5000F801808329960FB6F894DEBF0FBECDBF72
:102C6000DF91CF911F910F91FF90EF90DF90CF9068
:102C7000BF90AF909F908F9008951F93CF93DF9355
:102C8000EC0188E60E94481C80E00E94621C8A8554
:102C90009B85813D27E0920774F1805D97409B877B
:102CA0008A8710E888810E94C3140E94621C8A816E
:102CB0000E94C3140E94621C8C810E94C3140E9453
:102CC000621C8C850E94C3140E94621C8E810E942B
:102CD000C3140E94621C88850E94C314810F0E9445
:102CE000621C8A850E94C3140E94621CDF91CF91EE
:102CF0001F910C94521C8C5697409B878A8710E03A
:102D0000D1CF1F93CF93DF93C82FD62F142F88E6F0
:102D10000E94481C80E00E94621C812F0E94C31404
:102D20000E94621C8D2F0E94C3140E94621C8C2F73
:102D30000E94C3140E94621CDF91CF911F910C94DA
:102D4000521CCF93C82F8091AA0781110BC00E94FB
:102D5000D314CC2329F08F7760E0CF910C94E41446
:102D60008068FACFCF9108958091AA07811106C09B
:102D70000E94D3148095881F8827881F0895FF928A
:102D80000F931F93CF93DF938C01EB01FC01108213
:102D900018828091AB07811120C088E60E94481CF0
:102DA00081E10E94621C0E94521C62E088E60E943F
:102DB0003B1C0E94B11C882381F00E94B71CF82E96
:102DC0000E94B71CF801F0828295869586958370E3
:102DD00099E1899F802D11248883DF91CF911F91E4
:102DE0000F91FF900895CF93DF93C82F8091AB0789
:102DF00081112DC088E60E94481C8EE00E94621C52
:102E00000E94521C61E088E60E943B1C0E94B71C95
:102E1000D82F88E60E94481C8EE00E94621C8D2FED
:102E200080620E94621C0E94521CCC2381F088E6C2
:102E30000E94481C8EE00E94621C0E94521C61E0AD
:102E400088E60E943B1C0E94B71C85FDF0CFDF91F5
:102E5000CF910895CF93C82F88E60E94481C88E040
:102E60008C0F0E94621C0E94521C61E088E60E9446
:102E70003B1CCF910C94B71C0F931F93CF938C01E5
:102E8000C0E08C2F0E942A17F80181938F01CF5F39
:102E9000C833B9F7CF911F910F910895CF93DF9366
:102EA000C82FD62F88E60E94481C88E08D0F0E940C
:102EB000621C8C2F0E94621CDF91CF910C94521CDB
:102EC0000F931F93CF938C01C0E06C2FF801819179
:102ED0008F010E944E17CF5FC833B9F7CF911F9172
:102EE0000F910895CF93DF93D82F8091AB0788235C
:102EF00009F188E60E94481C87E00E94621C0E943B
:102F0000521C61E088E60E943B1C0E94B71CC82F3F
:102F1000DD2371F0C06188E60E94481C87E00E94B2
:102F2000621C8C2F0E94621CDF91CF910C94521C6A
:102F3000CF7EF1CF88E60E94481C8EE00E94621C82
:102F40000E94521C61E088E60E943B1C0E94B71C54
:102F5000C82FDD2339F0CB7FC06488E60E94481C6F
:102F60008EE0DDCFCF7BF9CFCF93DF93EC01809163
:102F7000AB078823E9F088E60E94481C87E00E949E
:102F8000621C0E94521C61E088E60E943B1C0E9469
:102F9000B71C8C7FC82B88E60E94481C87E00E94E3
:102FA000621C8C2F0E94621CDF91CF910C94521CEA
:102FB00088E60E94481C8EE00E94621C0E94521CFF
:102FC00061E088E60E943B1C0E94B71C94E0CC0F95
:102FD000DD1F9A95E1F7877EC82B88E60E94481C82
:102FE0008EE0DDCFCF93DF93D82F8091AA0788237F
:102FF00009F188E60E94481C8FE00E94621C0E9432
:10300000521C61E088E60E943B1C0E94B71CC82F3E
:10301000DD2371F0C86088E60E94481C8FE00E94A2
:10302000621C8C2F0E94621CDF91CF910C94521C69
:10303000C77FF1CFDF91CF9108958091AB078823AF
:1030400061F060E080E00E944E1761E080E00E9445
:103050004E1762E080E00C944E1767E080E00E941B
:10306000E41468E080E00E94E41469E080E00E94DB
:10307000E4146AE080E00C94E4141F93CF93DF9390
:10308000C82FD62F142F883108F054C06C3308F0A5
:1030900051C04C3308F04EC08091AB07882379F0C3
:1030A00060E08C2F0E944E1761E08D2F0E944E171A
:1030B00062E0812FDF91CF911F910C944E17842FE6
:1030C0000E94C31467E00E94E4148D2F0E94C31471
:1030D00068E00E94E4148C2F0E94C31469E00E94EF
:1030E000E4146AE081E80E94E4148FE00E94D314A3
:1030F0006FE08E7F0E94E41488E60E94481C8EE0F8
:103100000E94621C0E94521C61E088E60E943B1CE7
:103110000E94B71CC82F88E60E94481C8EE00E94BF
:10312000621C8C2F81600E94621CDF91CF911F91E5
:103130000C94521CDF91CF911F910895FC01892BB3
:1031400029F04081628184810C943D180895EF92AA
:10315000FF920F931F93CF93DF93EC018B017A01C2
:103160008091AB078823E9F0209721F080E00E944E
:103170002A1788830115110529F081E00E942A177A
:10318000F8018083E114F10429F082E00E942A17FB
:10319000F7018083DF91CF911F910F91FF90EF9006
:1031A000089587E00E94D3148F770E94CA14F70114
:1031B000808388E00E94D3148F770E94CA14F8019C
:1031C000808389E00E94D3148F770E94CA14888379
:1031D000E1CFCF93DF9300D00F92CDB7DEB7AE0132
:1031E0004F5F5F4FBE016E5F7F4FCE0103960E941F
:1031F000A718E9E9F7E08B8190E0958384838A81C1
:1032000090E093838283898190E091838083CF01D2
:103210000F900F900F90DF91CF910895FF920F9331
:103220001F93CF93DF9300D00F92CDB7DEB780917D
:10323000AB07882349F180E00E942A17F82E81E02D
:103240000E942A17082F82E00E942A17182FAE0129
:103250004F5F5F4FBE016E5F7F4FCE0103960E94AE
:10326000DE158B818F1106C08A81801303C081E037
:103270009981911380E00F900F900F90DF91CF9183
:103280001F910F91FF9008958FE00E94D314182F83
:10329000117080FF04C06FE08E7F0E94E414812FC4
:1032A000EACFCF93DF93FC01DB0146A157A127A909
:1032B00030AD14968D919C911597421753070CF1E0
:1032C0002417350754F042175307D9F4C4A1D5A1E8
:1032D00065A976A96C177D07A4F484179507A4F057
:1032E00088319105A4F02817390749F481E0129636
:1032F0004D915C9125A936A9421753074CF080E007
:1033000007C0841795077CF38217930764F781E061
:10331000DF91CF910895EF92FF920F931F93CF9378
:10332000DF93FC01EB01DC01A85BBF4F8C819D8129
:103330002D913C91820F931F28E1E22EF12CB701D1
:103340000E945D279C0195838483DF01AA5BBF4FA8
:103350000D911C918A819B81800F911F6CE370E01D
:103360000E945D27938382838A819B81080F191FA6
:103370000C3311053CF0C9010196B7010E945D278D
:1033800095838483DF91CF911F910F91FF90EF90F0
:103390000895CF93DF93EC01BC016F5E7F4F0E94D5
:1033A0008B198B818F938A818F938D818F938C81E1
:1033B0008F938CE893E09F938F930E94C42CBE015F
:1033C000CE010E9451190F900F900F900F900F9007
:1033D0000F9040E08823D9F06A818C810E943D18CB
:1033E0008B818F938A818F938D818F938C818F9323
:1033F00080EB93E09F938F930E94C42C0F900F90CB
:103400000F900F900F900F90DF91CF9108956CA1C6
:103410008EA10E943D188DA18F938CA18F938FA1B7
:103420008F938EA18F938DED93E0E4CF10921708C8
:10343000449A459AE9EBF0E080818E7F8083808119
:103440008D7F80838CE08093B80085E48093BC00FE
:1034500078940895880F8093BA000895982F842F48
:10346000413258F5209117082111FCCF21E020931B
:1034700017082FEF2093AC071092F107280F209325
:10348000F007990F91609093160895EE9093BC0009
:10349000909117089130E1F39091F107981710F48B
:1034A0008091F10722EF37E0FB01D9019A2F921B9F
:1034B000981720F49D919193F9CF80E00895982F6B
:1034C0004132B0F5809117088111FCCF32E0309382
:1034D00017083FEF3093AC071092F1074093F007C5
:1034E000562FA2EFB7E0FB013E2F351B341718F41F
:1034F00031913D93F9CF492F50E0440F551F409330
:10350000160895EE9093BC00222321F090911708A5
:103510009230D1F39091AC079F3F79F08091AC0746
:10352000803241F08091AC07803331F084E008951F
:1035300081E0089582E0089583E00895613288F47F
:1035400020911708243079F46093CE07282FA0ED3E
:10355000B7E0FC018E2F821B861738F481918D9382
:10356000F9CF81E0089582E0089580E00895909376
:1035700013088093120808959093150880931408F7
:103580000895882321F085EC8093BC00089585E898
:10359000FBCF85ED8093BC008091BC0084FDFCCF07
:1035A00010921708089585EC8093BC0010921708BC
:1035B00008951F920F920FB60F9211242F933F93ED
:1035C0004F935F936F937F938F939F93AF93BF932B
:1035D000EF93FF939091B900892F887F803509F48C
:1035E000BCC008F045C0803309F4B2C0A0F58831F2
:1035F00001F1D0F4883009F4A3C0803109F4A0C0EF
:10360000882309F4E9C0FF91EF91BF91AF919F9199
:103610008F917F916F915F914F913F912F910F907B
:103620000FBE0F901F901895803209F491C0883218
:1036300051F79091F1078091F007981708F08AC030
:10364000E091F10781E08E0F8093F107F0E0EE50FA
:10365000F84F808177C0803409F48BC0883409F436
:1036600079C0883381F68093AC070E94D31ACBCF00
:10367000803A09F498C060F5803809F482C0F8F403
:103680008036B9F080F4883509F0BDCFE091F107BC
:1036900081E08E0F8093F1078091BB00F0E0EE5047
:1036A000F84F808357C0803721F0987E983609F014
:1036B000AACF83E0809317081092AD0745C08039E8
:1036C00009F45FC0987E983809F09DCF85E83DC029
:1036D000883BD9F058F5883A19F0803B09F093CF30
:1036E00084E0809317081092CF071092CE07E091E4
:1036F0001408F091150809958091CE07811105C035
:1037000081E08093CE071092D007E091CF0781E04F
:103710008E0F8093CF07F0E0E053F84F80818093C5
:10372000BB009091CF078091CE0727C0907F903C3F
:1037300009F069CF85EC8093BC001092170863CF25
:10374000809116088093BB0085EC8093BC005BCF12
:103750008093AC070E94C91A56CFE091F10781E02F
:103760008E0F8093F1078091BB00F0E0EE50F84F90
:1037700080839091F1078091F007981708F0A6CF09
:10378000E3CF8091AD07803208F0A0CFE091AD0784
:1037900081E08E0F8093AD078091BB00F0E0E25591
:1037A000F84F8083D1CF8091AD07803230F4E09123
:1037B000AD07F0E0E255F84F10820E94C91A6091FF
:1037C000AD0770E0E0911208F09113088EEA97E0DF
:1037D00009951092AD0749CF1092AC07BBCFCF939C
:1037E000DF93DC01CB01E0911808F09119083097C4
:1037F000E9F030914108209140083217B8F040E0DC
:10380000242F30E02817390754F4ED01C20FD31FDD
:1038100058812E5B374FE90158834F5FF1CF1092EB
:10382000410880934008DF91CF910994DF91CF91B7
:103830000895E0911A08F0911B08309729F0109232
:103840001E0810921D0809940895109241081092C4
:10385000400810921E0810921D080C94161A0E941F
:103860002A1A89E19CE10E94BC1A8FEE9BE10E941A
:10387000B71A0C94251C462F613208F040E262E42E
:1038800078E00E942E1A1092410880934008089513
:1038900091E090931C0880933F0810921E081092AC
:1038A0001D08089521E040911D086FE178E08091A6
:1038B0003F080E945F1A10921E0810921D08109275
:1038C0001C080895CF93DF930F92CDB7DEB789839D
:1038D00080911C088823A9F080911D08803268F42B
:1038E00080911E08E82FF0E0E15EF74F9981908308
:1038F0008F5F80931E0880931D080F90DF91CF91FA
:10390000089561E0CE0101960E949E1AF6CF0F93B2
:103910001F93CF93DF9320911C08222369F08C0121
:10392000EC01C60FD11D0C171D0761F0F801819144
:103930008F010E94621CF7CFDF91CF911F910F91F1
:103940000C949E1ADF91CF911F910F910895DC0185
:103950000D900020E9F71197BD01681B790B0C94BD
:10396000871C8091400890914108891B089590918F
:10397000410880914008981748F4E92FF0E0EE5B89
:10398000F74F80819F5F90934108089580E00895EC
:103990009093190880931808089590931B088093BA
:1039A0001A0808950895FF920F931F93CF93DF9302
:1039B000CDB7DEB761970FB6F894DEBF0FBECDBFAF
:1039C0008C0181E090E0F801978B868B81818235B4
:1039D00069F1833509F464C0893409F0A7C284E031
:1039E00090E0978B868B6481605316160CF099C219
:1039F0008AE090E00E94C5216EEF75E08AE090E0D9
:103A00000E94B22162E08BE090E00E94C52180918B
:103A1000FE051F928F938FE894E09F938F930E94EF
:103A2000C42C0F900F900F900F906BC28481082EC2
:103A3000000C990BC0979E838D838781082E000C04
:103A4000990BC0979C838B838285082E000C990B61
:103A5000C0979A8389838585082E000C990BC0979F
:103A600098878F838089082E000C990BC0979A87BE
:103A7000898783E190E0978B868B8389082E000CE1
:103A8000990BC0979C878B87CE0101960E943D16AB
:103A900081E08093FF058BE094E00E94DF2C31C22F
:103AA00083E090E0978B868B8381082E000C990B26
:103AB000C0972AE0F22EF89E9001F99E300D112455
:103AC00030932706209326068689978901968431AC
:103AD00091050CF01AC2978B868B800F911FFC0109
:103AE0008081082E000C990BC09790932706809335
:103AF0002606F801868997890296843191050CF093
:103B000004C2978B868B800F911FFC018081082E49
:103B1000000C990BC097F89E9001F99E300D11246E
:103B20003093250620932406F8018689978901960B
:103B3000843191050CF0E9C1978B868B800F911F22
:103B4000FC018081082E000C990BC09790932506EC
:103B500080932406F801868997890296843191051D
:103B60000CF0D3C1978B868B800F911FFC01808155
:103B7000082E000C990BC097F89E9001F99E300D0D
:103B800011243093230620932206F8018689978911
:103B90000196843191050CF0B8C1978B868B800F0C
:103BA000911FFC018081082E000C990BC097909307
:103BB00023068093220664E170E082E296E00E9490
:103BC000522264E170E082E296E00E9485228091B8
:103BD00023068F93809122068F93809125068F93E1
:103BE000809124068F93809127068F9380912606DB
:103BF0008F938FE194E09F938F930E94C42CF801E0
:103C00008689978902960FB6F894DEBF0FBECDBFA6
:103C1000843191050CF079C1978B868B800F911FB1
:103C2000FC018081082E000C990BC097F89E900132
:103C3000F99E300D11243093380620933706F80191
:103C4000868997890196843191050CF05EC1978B26
:103C5000868B800F911FFC018081082E000C990B30
:103C6000C0979093380680933706F8018689978924
:103C70000296843191050CF048C1978B868B800F9A
:103C8000911FFC018081082E000C990BC097F89EB3
:103C90009001F99E300D112430933606209335069D
:103CA000F801868997890196843191050CF02DC120
:103CB000978B868B800F911FFC018081082E000C52
:103CC000990BC0979093360680933506F801868944
:103CD00097890296843191050CF017C1978B868BDA
:103CE000800F911FFC018081082E000C990BC0975A
:103CF000F89E9001F99E300D1124309334062093E4
:103D00003306F801868997890196843191050CF074
:103D1000FCC0978B868B800F911FFC018081082E41
:103D2000000C990BC097909334068093330667E19B
:103D300070E083E396E00E94522267E170E083E343
:103D400096E00E948522809134068F9380913306FD
:103D50008F93809136068F93809135068F93809153
:103D600038068F93809137068F9385E494E09F9374
:103D70008F930E94C42CF8018689978902960FB60A
:103D8000F894DEBF0FBECDBF843191050CF0BDC0ED
:103D9000978B868B800F911FFC018081082E000C71
:103DA000990BC097F89E9001F99E300D1124309325
:103DB000490620934806F80186899789019684313F
:103DC00091050CF0A2C0978B868B800F911FFC0190
:103DD0008081082E000C990BC09790934906809320
:103DE0004806F801868997890296843191050CF07E
:103DF0008CC0978B868B800F911FFC018081082ED1
:103E0000000C990BC097F89E9001F99E300D11247B
:103E10003093470620934606F801868997890196D4
:103E2000843191050CF071C0978B868B800F911FA8
:103E3000FC018081082E000C990BC09790934706D7
:103E400080934606F8018689978902968431910508
:103E50000CF05BC0978B868B800F911FFC018081DB
:103E6000082E000C990BC097F89E9001F99E300D1A
:103E700011243093450620934406F80186899789DA
:103E80000196843191050CF040C0978B868B080F0A
:103E9000191FF8018081082E000C990BC097909390
:103EA0004506809344066AE170E084E496E00E944F
:103EB00052226AE170E084E496E00E9485228091BB
:103EC00045068F93809144068F93809147068F9388
:103ED000809146068F93809149068F938091480682
:103EE0008F9389E694E09F938F930E94C42C62E0A5
:103EF0008CE090E00E94C5210FB6F894DEBF0FBEA3
:103F0000CDBF85ED94E00E94DF2C61960FB6F8944A
:103F1000DEBF0FBECDBFDF91CF911F910F91FF90FC
:103F200008951F926F9389EA94E077CD8FEB94E028
:103F3000B4CDFC0184899589833191052CF40196D7
:103F4000958B848B80E0089581E00895FC01A4891D
:103F5000B589A80FB91F6C930C94991FFC01158AA1
:103F6000148A0C94A61FFC0186899789680F791F13
:103F70006431710524F4778B668B80E0089581E0CD
:103F800008950F931F93CF93DF9300D000D0CDB748
:103F9000DEB78EE480937C0086E880937A0087EE1B
:103FA00093E00197F1F700C0000080917A008064EF
:103FB00080937A0080917A0086FDFCCF87EE93E0B3
:103FC0000197F1F700C0000080917A00806480932F
:103FD0007A0080917A0086FDFCCF8FE097E201970E
:103FE000F1F700C000008091780090917900292FAE
:103FF00030E03A832983082F10E01F929F931F928D
:104000008F938AEE94E09F938F930E94C42C4981F2
:104010005A81542F4427402B512B5A834983CA017C
:104020001F921F929F938F938DEF94E09F938F9396
:104030000E94C42C80E09CE269817A810E94492719
:104040007A836983CB0199279F938F9388E095E0CA
:104050009F938F930E94C42C80917A008F778093D6
:104060007A0089816AE00E943D27282F30E050E0E5
:1040700040E029833A834B835C83CA01B9010E94E3
:10408000E4290FB6F894DEBF0FBECDBF69837A83F3
:104090008B839C8369817A818B819C810F900F90A7
:1040A0000F900F90DF91CF911F910F9108959F92E4
:1040B000AF92BF92CF92DF92EF92FF920F931F9336
:1040C000CF93DF938C01F42EE52ED62EC72E590107
:1040D0008BE7F8018083E801229683E48183809155
:1040E000FE051F928F938AEF94E09F938F93DF9347
:1040F000CF930E940B2DC80FD91F8CE2982EFE0182
:104100009192CF0165E175E00E94142C2596F5018E
:1041100081818F9380818F9383818F9382818F930D
:1041200085818F9384818F9380E691E09F938F9315
:10413000DF93CF930E940B2DC80FD91F9992CF9276
:10414000DF92EF92FF9289E691E09F938F93DF9346
:10415000CF930E940B2DC80FD91F8DE7888319823A
:10416000F80101900020E9F7CF0101972DB73EB784
:10417000285E3F4F0FB6F8943EBF0FBE2DBF801B89
:10418000910BDF91CF911F910F91FF90EF90DF90F6
:10419000CF90BF90AF909F9008958AE195E00C94E6
:1041A000DF2C0895E3E6F8E087E090E095838483D0
:1041B0008EE190E0938382831182108297838683BD
:1041C00081E090E09187808786E190E09387828705
:1041D0000895FC012085318580916B0890916C08D1
:1041E00082179307B4F12817390789F5268137819B
:1041F0008091690890916A088217930754F12817F3
:10420000390729F5248135818091670890916808E4
:1042100082179307F4F028173907C9F422813381F4
:1042200080916508909166088217930794F028178B
:10423000390769F440815181209163083091640805
:1042400081E0241735073CF04217530721F080E046
:10425000089581E0089508959F92AF92BF92CF9202
:10426000DF92EF92FF920F931F93CF93DF93CDB71F
:10427000DEB768970FB6F894DEBF0FBECDBF7B01E7
:104280008C010E94D22080916208811159C00E9445
:1042900046156C0126E636E646E450E4ED8AFE8AD1
:1042A0000F8B188F6D897E898F89988D0E94352993
:1042B000181604F180E395E00E94DF2C9601A70117
:1042C000B801CE0101965C010E945720982EBF9242
:1042D000AF928AE495E09F938F930E94C42C692D3E
:1042E000C5010E94A90581E0809362080F900F909C
:1042F0000F900F90C6010E94E920882309F188E5FC
:1043000095E00E94DF2C9601A701B8018E010F5F96
:104310001F4FC8010E945720F82E1F930F938AE465
:1043200095E09F938F930E94C42C6F2DC8010E942B
:10433000A90581E0809362080F900F900F900F9075
:1043400068960FB6F894DEBF0FBECDBFDF91CF9158
:104350001F910F91FF90EF90DF90CF90BF90AF90A3
:104360009F9008959C01FB01211584E0380758F4C3
:104370009FB3892F827091FDFBCF32BD21BDF89A8A
:1043800090B59083089582E008959C01211584E002
:10439000380758F49FB3892F827091FDFBCF32BD4F
:1043A00021BD60BDFA9AF99A089582E00895FF92BE
:1043B0000F931F93CF93DF930F92CDB7DEB78C018E
:1043C000F62E011584E0180730F51982BE016F5FE3
:1043D0007F4FC8010E94B221811116C09981F91640
:1043E00099F06F2DC8010E94C52181110DC0BE0139
:1043F0006F5F7F4FC8010E94B221811105C081E02B
:1044000099819F1101C080E00F90DF91CF911F91A2
:104410000F91FF90089582E0F7CFEF92FF920F93F4
:104420001F93CF93DF938C01EB017B01E40EF51E0C
:10443000CE15DF0579F06991C8010E94D7210F5F81
:104440001F4F8823A9F3DF91CF911F910F91FF9008
:10445000EF90089580E0F7CFCF92DF92EF92FF9236
:104460000F931F93CF93DF938C017B016A01D0E000
:10447000C0E0CC15DD0561F0B7016C0F7D1FCE01EA
:10448000800F911F0E94B221811103C02196F1CFAC
:1044900080E0DF91CF911F910F91FF90EF90DF901F
:1044A000CF9008950F931F93CF93DF93EC018B016F
:1044B0006C81C8010E94C5216A81C80101960E94D1
:1044C000C5216881C80102960E94C52189818F9308
:1044D00088818F938B818F938A818F938D818F9326
:1044E0008C818F9386E795E09F938F930E94C42CD5
:1044F0008DB79EB708960FB6F8949EBF0FBE8DBFBE
:10450000DF91CF911F910F9108950F931F93CF9338
:10451000DF93EC018B016C817D81C8010E94B22187
:104520006A817B81C80101960E94B22168817981EC
:10453000C80102960E94B22189818F9388818F934E
:104540008B818F938A818F938D818F938C818F93B1
:1045500081EA95E09F938F930E94C42C8DB79EB7FC
:1045600008960FB6F8949EBF0FBE8DBFDF91CF9116
:104570001F910F910895A5E1B0E0E1ECF2E20C94F7
:104580004C287C011B015A01DC0117961C921E92DB
:10459000169713968C9181FF68C3FE0131964F01E7
:1045A000D70113969C91F10193FD859193FF819121
:1045B0001F01882309F4EDC2853239F493FD8591FA
:1045C00093FF81911F01853239F4B70190E00E9479
:1045D000942C65015601E4CF10E0512C00E000322C
:1045E00038F48B3209F190F48032F9F0833209F11A
:1045F00007FD34C020ED280F2A3020F506FF1BC030
:10460000BAE01B9F200D1124122F05C08D3279F0C6
:10461000803371F70160F10193FD859193FF8191E2
:104620001F018111DCCF1AC002600460F4CF086062
:10463000F2CF0061F0CFEAE05E9E200D1124522EF1
:104640000062E9CF8E3221F406FDA3C20064E3CFFD
:104650008C3611F40068DFCF8836E9F29BEB980FB7
:10466000933008F073C00061805E06FF16E00F73A0
:10467000702E853609F071C0689476F877FE77C0A1
:10468000812F1C3308F08BE344244394480E27E029
:10469000D5014D915D916D917D916D014C875D8747
:1046A0006E877F87042DA4016C857D858E859F850F
:1046B0000E94282B5C01B981BC87B0FF04C06DE269
:1046C000662EB3FF0BC05BE2652E71FC07C0E72DC1
:1046D000E4706E2E72FE02C070E2672E0C850C70C4
:1046E00009F456C06110C4C2F3E000E0F51598F477
:1046F00083E0052D081B73FC07C0B70180E290E042
:104700000E94942C0150C9F7662029F0B701862D2C
:1047100090E00E94942CFC8548E6A42E40E0B42E44
:10472000F3FD04C03CE6A32E30E0B32E172D10712C
:10473000F5018491811122C0002309F44BCFB70108
:1047400080E290E00E94942C0150F6CF9BE9980FF4
:10475000933008F041C10F7E88CF863619F46894F3
:1047600077F88CCF112309F489CF115087CF212FEF
:10477000183010F027E017E0412C8ACF1111805239
:10478000B70190E00E94942C2FEFA21AB20AD0CF6A
:1047900077FE78C04A0CFC85F4FF04C08A8181331F
:1047A00009F44A9414140CF090C028E0241510F475
:1047B00028E0422E85E090E077FE06C0C501B7FEF6
:1047C00002C090E080E0019661100196112331F063
:1047D000212F30E02F5F3F4F820F931F581619068D
:1047E00019F014F0052D081B872D897011F40111A3
:1047F00071C0662029F0B701862D90E00E94942CAC
:1048000073FC02C001116DC077FE98C0B98AA88AF6
:10481000B7FE02C0198A188A68887988A5014419E8
:1048200051095D8B4C8B412E512C662777276419DB
:1048300075097B8B6A8BA614B7040CF459C08C895C
:104840009D89861597050CF053C0F501E619F70907
:10485000E80DF91D818191E0691A7108AA89BB8967
:104860006A167B060CF446C0B70190E00E94942CB7
:10487000BFEF6B167B06F9F6B7018EE290E00E945F
:10488000942CD9CF76FC96CFE12FF0E0EA15FB050A
:104890003CF03CEFA3163FEFB30614F0689477F8B2
:1048A0003296E80DF91D01C01150112319F08291C3
:1048B0008033D1F377FE7ECF44244394410E1A1502
:1048C0001B0431F02CF01A1975CF4424439472CF95
:1048D00010E070CFB70180E290E00E94942C01506C
:1048E00086CFB70180E390E00E94942C01508ACFDC
:1048F00080E3B1CF688979896150710940945094FF
:10490000E889F9894E165F06A4F4461A570A460E3E
:10491000571EA414B50441F49A81963368F4953374
:1049200019F4FC85F4FF08C0B70190E00E94942CB4
:1049300003CF512C412CEBCF81E3F6CF8A81813319
:1049400019F02C852F7E2C87B70190E00E94942CC3
:104950001123A9F0B7018EE290E00E94942C92E01E
:10496000692E610E12E0E12F1F5FE80DF92DF11D98
:104970008081B70190E00E94942C6112F4CF85E60B
:1049800090E074FE02C085E490E0B7010E94942C90
:10499000B7FC06C0A114B104C1F43C8534FF15C0B6
:1049A000B194A194B1088DE2B70190E00E94942CDB
:1049B00080E35AE0A516B10454F4B70190E00E94D8
:1049C000942CB701C501C096B1CF8BE2EDCF8F5FBC
:1049D0004AE0A41AB108EDCF8336B9F0833709F461
:1049E0003CC0833509F04FC0D501AD90BD906D013D
:1049F000612F70E006FD02C06FEF7FEFC5010E94DE
:104A0000002C3C01102F10680DC0650162E0C60E3D
:104A1000D11CD5018C91898366246394712C540137
:104A2000102F1F7713FD04C05614170409F020F54A
:104A3000052D6114710409F47FCEF50117FD8591F0
:104A400017FF81915F01B70190E00E94942C011142
:104A50000150B1E06B1A7108ECCFF501A190B19053
:104A60006F01612F70E006FD02C06FEF7FEFC5019F
:104A70000E942A2C3C01D4CFB70180E290E00E9432
:104A8000942C5A94D1CF843619F0893609F070C02D
:104A900007FF65C0F50161917191819191916F015D
:104AA0000F7697FF08C090958095709561957F4F20
:104AB0008F4F9F4F00682AE030E0A4010E942E2D06
:104AC000A82EA818BA2C602E06FF0BC0E89460F838
:104AD000A11638F404FF04C002FD02C00E7E602E51
:104AE000B12E64FE9AC0FE01EA0DF11D8081803373
:104AF00009F08CC0562D597E652E062D087063FC7A
:104B00009BC060FE95C01A2DB51410F4150D1B192D
:104B100064FE98C0B70180E390E00E94942C62FE8E
:104B200009C088E790E061FE02C088E590E0B70127
:104B30000E94942CA11608F491C0AA94B12C6FEF96
:104B4000A61AB60AA80CB91CD5018E915D01B70151
:104B500090E00E94942CA814B904B1F7EDCDD501D2
:104B60006D917D916D01072E000C880B990B98CFEC
:104B7000702EE89474F82AE030E0853739F1B02FD0
:104B8000B97F7B2E8037A9F058F48835A9F08F368D
:104B9000D9F0F701868197816596E2E10C94682847
:104BA0008837B9F774FE02C0689472F820E130E0EB
:104BB0000DC0689474F8F6CF04FF03C0EB2FE660D5
:104BC0007E2E20E132E002C028E030E077FE16C001
:104BD000D5014D915D916D917D916D014C875D8702
:104BE0006E877F87A4016C857D858E859F850E9459
:104BF0002E2DA82EA818072D0F7764CFF5018191CF
:104C000091916F01AC0170E060E0E8CF62FC02C0FE
:104C1000B39473CFB394B39470CF862D867809F490
:104C20006CCFF6CFB70180E290E00E94942CB39451
:104C3000B514C0F300E06CCF052D0B19B51408F4C2
:104C400067CFF8CF862D867809F474CF8BE261FEAA
:104C500080E267FC8DE2B70190E06ACFB70180E3A4
:104C600090E00E94942C115065CF8FEF9FEF94CF6E
:104C700024E000E0251508F049CD84E03ACDCDB719
:104C8000DEB762970FB6F894DEBF0FBECDBF1A8AAB
:104C90000E94CF098DEB91E00E94DF2C0E94251C21
:104CA0000E94F51460E085E596E00E9464120E947F
:104CB000C11F0E94C11F9F938F937F936F93809119
:104CC000FE051F928F938AED91E09F938F930FE1E2
:104CD00017E01F930F930E940B2D1F930F9388EEE5
:104CE00091E09F938F930E94C42C60E0C8010E94C2
:104CF000A9050E943A090E94251C0E9424150E94C1
:104D0000DA070E94C11FBE016E5E7F4F8BE090E00C
:104D10000E94B2210FB6F894DEBF0FBECDBF8A89C4
:104D2000823021F48091FF05811108C081E092E07A
:104D30000E94DF2C0E9437080E94DA0701E00E94DF
:104D40003A090E94251C0E9424150E94DA070E943D
:104D5000C11F85E596E00E94C313682F8FE197E09D
:104D60000E945506182F85E596E00E947A128091E0
:104D70005506882309F449C085E192E00E94DF2CA2
:104D800085E896E00E94520E90E09E838D8385E830
:104D900096E00E946E0E90E09C838B8385E896E0FF
:104DA0000E94920E90E09A83898387E796E00E94A2
:104DB000360E90E098878F8387E796E00E94090E71
:104DC00090E09A87898787E796E00E94E60D9C87A6
:104DD0008B87CE0101960E943D160E94DA07009350
:104DE000FF05612F8FE197E00E94A90580E096E022
:104DF0000E94C9190E94DA070E9450098FE292E0CE
:104E00000E94DF2C0E94140A9ACF8091FF05811125
:104E1000E8CF0E9485070E94DA07E3CFE5E5F7E0D7
:104E200014AA13AA16AA15AA81E087AB10AE11AE78
:104E300012AE13AE10921E0710921D0785E596E084
:104E40000C94540A70E060E08AEE99E00E944A2CCB
:104E500090939807809397070895DB018F939F9312
:104E60000E949927BF91AF91A29F800D911DA39F92
:104E7000900DB29F900D11240895991B79E004C004
:104E8000991F961708F0961B881F7A95C9F7809589
:104E90000895AA1BBB1B51E107C0AA1FBB1FA61781
:104EA000B70710F0A61BB70B881F991F5A95A9F7D3
:104EB00080959095BC01CD01089597FB072E16F4BF
:104EC000009407D077FD09D00E94492707FC05D040
:104ED0003EF4909581959F4F0895709561957F4F11
:104EE0000895A1E21A2EAA1BBB1BFD010DC0AA1F2B
:104EF000BB1FEE1FFF1FA217B307E407F50720F043
:104F0000A21BB30BE40BF50B661F771F881F991FBD
:104F10001A9469F760957095809590959B01AC0106
:104F2000BD01CF010895EE0FFF1F0590F491E02D14
:104F300009940E94B928A59F900DB49F900DA49F3D
:104F4000800D911D11240895B7FF0C9499270E949C
:104F50009927821B930B0895689401C0E894F92F58
:104F6000F12B12F00C94E027A0E0B0E0EAEBF7E2BE
:104F70000C945228092E059422F40E943C281123F7
:104F800092F4F0E80F26FFEFE094F094009510956E
:104F9000B094C094D094A194BF0ACF0ADF0AEF0A5C
:104FA000FF0A0F0B1F0B0E94EB2707FC0E943C28F7
:104FB000CDB7DEB7ECE00C946E28689401C0E8949D
:104FC0008F929F92CF93DF930E94EB27DF91CF9137
:104FD0009F908F90089588249924F401E401B0E40F
:104FE0009F93AA279A158B049C04ED05FE05CF0517
:104FF000D007A10798F4AD2FDC2FCF2FFE2FE92D7E
:10500000982C892E982F872F762F652F542F432F7A
:10501000322F2227B85031F7BF9127C01B2EBF91E6
:10502000BB27220F331F441F551F661F771F881F82
:10503000991F881C991CEE1FFF1FCC1FDD1FAA1F84
:10504000BB1F8A149B04EC05FD05CE05DF05A007F8
:10505000B10748F08A189B08EC09FD09CE09DF0961
:10506000A00BB10B21601A94E1F62EF49401AF016C
:10507000BE01CD01000C08956095709580959095C6
:1050800030954095509521953F4F4F4F5F4F6F4F53
:105090007F4F8F4F9F4F08952F923F924F925F9275
:1050A0006F927F928F929F92AF92BF92CF92DF9238
:1050B000EF92FF920F931F93CF93DF93CDB7DEB79D
:1050C000CA1BDB0B0FB6F894DEBF0FBECDBF099431
:1050D0002A88398848885F846E847D848C849B8488
:1050E000AA84B984C884DF80EE80FD800C811B8196
:1050F000AA81B981CE0FD11D0FB6F894DEBF0FBEC5
:10510000CDBFED010895002E083090F0982F872F25
:10511000762F652F542F432F322F22270850F4CF9C
:10512000220F331F441F551F661F771F881F991FAB
:105130000A95B2F7002D089597FD1094002E0830BF
:1051400098F00850232F342F452F562F672F782F94
:10515000892F912DF4CF159497958795779567951D
:1051600057954795379527950A95AAF71124002D4D
:105170000895A29FB001B39FC001A39F700D811D30
:105180001124911DB29F700D811D1124911D089550
:105190005058BB27AA270E94E0280C945A2A0E9444
:1051A0004C2A38F00E94532A20F039F49F3F19F41A
:1051B00026F40C94492A0EF4E095E7FB0C94432A5C
:1051C000E92F0E946B2A58F3BA1762077307840706
:1051D000950720F079F4A6F50C948D2A0EF4E0954D
:1051E0000B2EBA2FA02D0B01B90190010C01CA01A1
:1051F000A0011124FF27591B99F0593F50F4503E4C
:1052000068F11A16F040A22F232F342F4427585F3D
:10521000F3CF469537952795A795F0405395C9F755
:105220007EF41F16BA0B620B730B840BBAF091500D
:10523000A1F0FF0FBB1F661F771F881FC2F70EC0AC
:10524000BA0F621F731F841F48F48795779567957F
:10525000B795F7959E3F08F0B0CF9395880F08F06B
:105260009927EE0F9795879508950E941F2A08F4B5
:1052700081E008950E944E290C945A2A0E94532AD4
:1052800058F00E944C2A40F029F45F3F29F00C941A
:10529000432A51110C948E2A0C94492A0E946B2A9D
:1052A00068F39923B1F3552391F3951B550BBB2755
:1052B000AA2762177307840738F09F5F5F4F220F9A
:1052C000331F441FAA1FA9F335D00E2E3AF0E0E891
:1052D00032D091505040E695001CCAF72BD0FE2FDB
:1052E00029D0660F771F881FBB1F2617370748076F
:1052F000AB07B0E809F0BB0B802DBF01FF27935827
:105300005F4F3AF09E3F510578F00C94432A0C947D
:105310008E2A5F3FE4F3983ED4F3869577956795A0
:10532000B795F7959F5FC9F7880F911D969587955B
:1053300097F90895E1E0660F771F881FBB1F62177A
:1053400073078407BA0720F0621B730B840BBA0B38
:10535000EE1F88F7E09508950E94B3296894B11173
:105360000C948E2A08950E94732A88F09F5798F013
:10537000B92F9927B751B0F0E1F0660F771F881F5A
:10538000991F1AF0BA95C9F714C0B13091F00E9474
:105390008D2AB1E008950C948D2A672F782F8827E5
:1053A000B85F39F0B93FCCF3869577956795B3959B
:1053B000D9F73EF490958095709561957F4F8F4F0A
:1053C0009F4F0895E89409C097FB3EF4909580950F
:1053D000709561957F4F8F4F9F4F9923A9F0F92FBB
:1053E00096E9BB279395F695879577956795B79539
:1053F000F111F8CFFAF4BB0F11F460FF1BC06F5F1F
:105400007F4F8F4F9F4F16C0882311F096E911C030
:10541000772321F09EE8872F762F05C0662371F051
:1054200096E8862F70E060E02AF09A95660F771F65
:10543000881FDAF7880F9695879597F90895990F41
:105440000008550FAA0BE0E8FEEF16161706E8074E
:10545000F907C0F012161306E407F50798F0621B6F
:10546000730B840B950B39F40A2661F0232B242B44
:10547000252B21F408950A2609F4A140A6958FEF63
:10548000811D811D089597F99F6780E870E060E0B5
:1054900008959FEF80EC089500240A9416161706CD
:1054A00018060906089500240A9412161306140615
:1054B00005060895092E0394000C11F4882352F078
:1054C000BB0F40F4BF2B11F460FF04C06F5F7F4F30
:1054D0008F4F9F4F089557FD9058440F551F59F017
:1054E0005F3F71F04795880F97FB991F61F09F3FD1
:1054F00079F087950895121613061406551FF2CFFA
:105500004695F1DF08C0161617061806991FF1CF49
:1055100086957105610508940895E894BB27662770
:105520007727CB0197F908950E94A72A0C945A2A4D
:105530000E944C2A38F00E94532A20F0952311F043
:105540000C94432A0C94492A11240C948E2A0E940C
:105550006B2A70F3959FC1F3950F50E0551F629F22
:10556000F001729FBB27F00DB11D639FAA27F00DBC
:10557000B11DAA1F649F6627B00DA11D661F829FE3
:105580002227B00DA11D621F739FB00DA11D621FC8
:10559000839FA00D611D221F749F3327A00D611DE5
:1055A000231F849F600D211D822F762F6A2F1124C7
:1055B0009F5750409AF0F1F088234AF0EE0FFF1FFA
:1055C000BB1F661F771F881F91505040A9F79E3F51
:1055D000510580F00C94432A0C948E2A5F3FE4F32B
:1055E000983ED4F3869577956795B795F795E795A7
:1055F0009F5FC1F7FE2B880F911D9695879597F9B0
:1056000008951F93FC0199278827BC01E894119104
:105610001032E9F3193010F01E30C8F31B3251F08C
:105620001D3249F4689406C00E94352C610F711D2B
:10563000811D911D119110531A30B0F33EF49095D5
:105640008095709561957F4F8F4F9F4F1F91089563
:10565000283008F027E03327DA01990F311D87FD44
:10566000916000966105710539F432602E5F3D93BB
:1056700030E32A95E1F708959F3F30F080387105B7
:10568000610509F03C5F3C5F3D93913008F0806814
:10569000911DDF93CF931F930F93FF92EF92192FDA
:1056A000987F9695E92F96959695E90FFF27E653F3
:1056B000FF4F99273327EE24FF24A701E701059028
:1056C0000894079428F4360FE71EF81E491F511D51
:1056D000660F771F881F991F0694A1F705900794FE
:1056E00028F4E70EF81E491F561FC11D770F881FAB
:1056F000991F661F0694A1F70590079428F4F80EE9
:10570000491F561FC71FD11D880F991F661F771F7E
:105710000694A1F70590079420F4490F561FC71F60
:10572000D81F990F661F771F881F0694A9F78491C9
:105730001095177041F0D695C79557954795F794F2
:10574000E7941A95C1F7E0E7F0E068941590159199
:1057500035916591959105907FE27395E118F10A75
:10576000430B560BC90BD009C0F7E10CF11E431FC8
:10577000561FC91FD01D7EF4703311F48A95E6CFF1
:10578000E894015030F0080F0AF40027021708F4DB
:10579000202F2395022F7A3328F079E37D932A95E1
:1057A000E9F710C07D932A9589F606949795679539
:1057B000379517951794E118F10A430B560BC90B4F
:1057C000D00998F023957E9173957A3308F070E3B1
:1057D0007C932013B8F77E9170617D9330F08395B0
:1057E00071E37D9370E32A95E1F71124EF90FF9028
:1057F0000F911F91CF91DF91992787FD9095089583
:10580000FC010590615070400110D8F7809590958B
:105810008E0F9F1F0895FB01DC018D91019080196F
:105820000110D9F3990B0895FB01DC0101900D9251
:105830000020E1F70895FB01DC014150504048F0A1
:1058400001900D920020C9F701C01D9241505040B7
:10585000E0F70895FC016150704001900110D8F705
:10586000809590958E0F9F1F0895592F482F372FA1
:10587000262F660F771F881F991F660F771F881FB7
:10588000991F620F731F841F951F660F771F881F54
:10589000991F08950F931F93CF93DF93EC018B0112
:1058A000892B51F4672B41F4F0E0E0E0CF01DF9168
:1058B000CF911F910F9108956EE070E081E090E02C
:1058C0000E948C2DFC01892B79F380E883830115DC
:1058D000110571F01387028781E883838091740832
:1058E00090917508892B21F4F0937508E093740862
:1058F0002097E1F2D187C087838182608383809182
:10590000760890917708892B89F6F0937708E093D1
:1059100076088091780890917908892B39F6F09370
:105920007908E0937808C2CF0F931F93CF93DF934A
:10593000182F092FEB018B8181FD09C01FEF0FEF9D
:10594000812F902FDF91CF911F910F91089582FFAA
:1059500014C02E813F818C819D81281739073CF42A
:10596000E881F981CF0101969983888310838E8124
:105970009F8101969F838E83E3CFE885F985812FF0
:105980000995892BA1F3DACFB0E0A0E0EAECFCE2C4
:105990000C945C28FE01359661917191AF01809164
:1059A0007608909177080E94BB22E2E00C94782858
:1059B00060917608709177080E94942C08950F9357
:1059C0001F93CF93DF93E0917608F09177082381BE
:1059D00010E000E021FD0EC00FEF1FEFC801DF91C6
:1059E000CF911F910F9108950995892B11F00FEF19
:1059F0001FEFCE01EC0189916091760870917708D4
:105A0000DB011896ED91FC918111EECF8AE00995AA
:105A1000892B21F3E1CFAEE0B0E0E1E1FDE20C94AF
:105A20005A280D891E8986E08C831A8309838FEF9B
:105A30009FE79E838D83AE01475E5F4F6F89788DB0
:105A4000CE0101960E94BB222F813885020F131FC1
:105A5000F80110822E96E4E00C947628FA01AA2729
:105A6000283051F1203181F1E8946F936E7F6E5FA1
:105A70007F4F8F4F9F4FAF4FB1E03ED0B4E03CD04F
:105A8000670F781F891F9A1FA11D680F791F8A1F32
:105A9000911DA11D6A0F711D811D911DA11D20D099
:105AA00009F468943F912AE0269F11243019305D53
:105AB0003193DEF6CF010895462F4770405D419344
:105AC000B3E00FD0C9F7F6CF462F4F70405D4A3391
:105AD00018F0495D31FD4052419302D0A9F7EACF59
