:100000000C94E0000C945E090C9408010C94080117
:100010000C9408010C9408010C9408010C94A1089C
:100020000C9408010C9408010C9408010C9408012C
:100030000C9408010C9408010C940A010C9408011A
:100040000C9408010C9408010C94E2080C9408012B
:100050000C9408010C9408010C9408010C940801FC
:100060000C94D1170C940801500E5D0E610E670EB2
:100070006D0E820E8B0E920E970E9D0E9D0E9D0E96
:100080009D0E9D0E9D0E9D0E9D0E9D0E9D0E9D0E18
:100090009D0E9D0E9D0E9D0E9D0E9D0E9D0E9D0E08
:1000A0009D0E9D0E9D0E9D0E500E560E5D0E610E08
:1000B000670E6D0E730E770E7C0E6E616E00696EAC
:1000C000660000407A10F35A00A0724E1809001022
:1000D000A5D4E80000E87648170000E40B540200BD
:1000E00000CA9A3B000000E1F505000080969800E8
:1000F000000040420F000000A08601000000102711
:1001000000000000E80300000000640000000000A0
:100110000A00000000000100000000002C76D888D2
:10012000DC674F0823DFC1DFAE59E1B1B796E5E3E5
:10013000E453C63AE651997696E8E6C28426EB89FE
:100140008C9B62ED407C6FFCEFBC9C9F40F2BAA59B
:100150006FA5F490055A2AF75C936B6CF9676DC133
:100160001BFCE0E40D47FEF520E6B500D0ED902E37
:100170000300943577050080841E080000204E0A95
:10018000000000C80C333333330F986E12831141D3
:10019000EF8D2114893BE65516CFFEE6DB18D1849E
:1001A0004B381BF77C1D901DA4BBE42420328472C5
:1001B0005E228100C9F124ECA1E53D274C2060209E
:1001C00011241FBECFEFD8E0DEBFCDBF14E0A0E00A
:1001D000B1E0E4ECFFE402C005900D92AE34B1074B
:1001E000D9F727E0AEE4B4E001C01D92A030B20719
:1001F000E1F710E0C0EED0E004C02197FE010E94BC
:10020000D120CE3DD107C9F70E94A01F0C94E02752
:100210000C9400001F920F920FB60F9211248F932F
:100220009F93EF93FF9380915704813019F580914C
:1002300056048150E9F4809153049091540480FF56
:1002400002C05E9A01C05E9880915304909154045C
:100250009695879590935404809353048091550408
:10026000815080935504811102C01092570483E09D
:100270008093560480915904811152C08091520498
:100280008823E9F0809151048150809351048111B9
:1002900047C01092520410925804E0915B04F0E0C1
:1002A00080915004E45AFB4F808380915B048F5F00
:1002B00080935B048032A0F110925B0431C0809186
:1002C0005804811110C04C992BC081E080935804D0
:1002D0001092500494E09093510498E090934F044E
:1002E00080934E041DC0809151048150B9F48091D7
:1002F0004E044C9B05C090915004982B9093500451
:10030000880F80934E0480914F04815080934F0456
:10031000811103C081E08093520483E080935104F3
:10032000FF91EF919F918F910F900FBE0F901F90B3
:1003300018951092570410925804109259045E9A1E
:10034000569A54989FB7F89481E287BD82E084BDA5
:1003500085BDEEE6F0E080818260808316BC9FBFA1
:10036000089510925904089581E0809359040895E6
:1003700090915A0480915B049817E1F3E92FF0E023
:10038000E45AFB4F80819F5F903218F490935A0497
:10039000089510925A04089590915B0481E0209191
:1003A0005A04291301C080E0089510925B04109252
:1003B0005A0408959091570481E0913009F080E04B
:1003C0000895909157049130E1F393E0909356048F
:1003D0009AE090935504880F990B9260909354047F
:1003E0008093530481E0809357040895CF93DF9363
:1003F000EC018991882319F00E94E101FACFDF9185
:10040000CF910895CF93DF93FC018491EF01219662
:10041000882321F00E94E101FE01F7CFDF91CF9107
:100420000895CF93DF93D82FC62F67E084E40E940E
:1004300027088D2F0E94C6058C2F0E94C605C82F45
:1004400067E084E40E9403088C2FDF91CF91089528
:1004500060E08F770C9411028AE10E94280240919B
:100460007E0450917F046091800470918104411555
:10047000514A6C4B734310F09DE901C094EA891B0B
:10048000089589E10E94280285958595089583E164
:100490000E94280290917D04891B08950E944702C2
:1004A000882341F080917D048F5F80937D0480E0FC
:1004B0000C9428028FEF08958EE10E942802829505
:1004C0008F7008958DE10E94280290E034E09595A8
:1004D00087953A95E1F78A3091057CF4FC01EE0F9F
:1004E000FF1F8E0F9F1FFC01E95FFE4F80819181EE
:1004F000A281BC018A2F90E0089560E271EA87E052
:1005000090E008958F929F92AF92BF92CF92DF9228
:10051000EF92FF9288E20E9428028770C82ED12CA9
:10052000E12CF12CFE2CED2CDC2CCC2489E20E9459
:100530002802C80ED11CE11CF11CFE2CED2CDC2C79
:10054000CC248AE20E942802C80ED11CE11CF11CB6
:1005500088E20E94280283FF03C088E0E81AF108BD
:100560000E9462024B015C01C701B6010E94E222B7
:1005700020E030E040E85BE40E94922320E034E297
:1005800044EF5BE40E9438226B017C01C501B40199
:100590000E94E02220E034E244EF58E40E94382236
:1005A0009B01AC01C701B6010E9492230E94AA22BE
:1005B000FF90EF90DF90CF90BF90AF909F908F9083
:1005C000089580680C94110263E881E80E9411028A
:1005D00082E10E94280283FD07C08FE097E2019725
:1005E000F1F700C00000F4CF68E082E90E94110238
:1005F00081E00895DF92EF92FF920F931F93CF93C4
:10060000DF93F82ED92EC62F82E20E942802D82F1F
:100610008C2F90E08D0F911D8F3F910519F010F0F8
:10062000CD2FC095EF2C0F2D1D2D802F8E198C17DF
:1006300038F4F80161918F0180E80E941102F5CF32
:100640006C2F6D0F82EA0E9411028C2FDF91CF91E7
:100650001F910F91FF90EF90DF900895CF93DF935C
:100660000E944702882371F08DE00E942802D82F53
:1006700080E00E942802C82F6D2F8DE80E94110291
:100680008C2F01C08FEFDF91CF91089561E881E851
:100690000C94110260E881E80C9411020C944A0356
:1006A000823020F0823118F081E101C082E0825076
:1006B000682F606889E80C941102AF92BF92CF92C4
:1006C000DF92EF92FF920F931F93CF93DF9360938C
:1006D0007E0470937F048093800490938104DC01F6
:1006E000CB019C01AD0160E070E080E090E003E1AF
:1006F0000E948021A12CE8E4BE2EF8EECF2EDD244E
:10070000D394E12CF12C00E010E00E94EC20C22FE9
:10071000B32E6A017B01182FD92F00E10E949B2183
:10072000622F86E80E9411022C2F3B2DA601B701F3
:10073000812F9D2F08E00E949B21622F87E80E9455
:1007400011026C2F88E8DF91CF911F910F91FF90DC
:10075000EF90DF90CF90BF90AF900C941102CF92AA
:10076000DF92EF92FF926B017C0167E084E40E94CC
:10077000DF0767E084E40E94030862E082E40E94ED
:10078000DF0762E082E40E9427088FE097E201978A
:10079000F1F700C0000062E082E40E9403088FE0ED
:1007A00097E20197F1F700C0000082E40E9428025E
:1007B000823109F50E944A03C701B6010E945D0318
:1007C00060E08EE80E94110260E08FE80E94110252
:1007D0008CE00E942802682F63608CE80E9411025E
:1007E00064E086EA0E94110284E10E9450030E94A4
:1007F000460381E001C080E0FF90EF90DF90CF9052
:1008000008950F9301E020E040E061E080E00E9465
:10081000A10560EC7AEC89E896E30E94AF038111B0
:1008200005C085E491E00E94EC25FFCF8CE591E0C6
:100830000F910C94EC25CF93853028F0C82F893088
:1008400018F0C8E001C0C5E08DE10E9428026C2FBD
:1008500070E064507109660F771F817F682B8DE906
:10086000CF910C941102CF93C82F692F80EA0E9478
:1008700011026C2F81EACF910C941102682F89EB41
:100880000C9411028EE10E942802682F64608EE9A8
:100890000C9411028EE10E942802682F6B7F8EE972
:1008A0000C94110210927C048DE10E942802682FA2
:1008B0006E7F8DE90C94110281E080937C048DE1C0
:1008C0000E942802682F61608DE90C941102CF9379
:1008D000C82F0E944603CC2319F00E945C0402C07A
:1008E0000E94520460E08DE80E94110260E082EAFA
:1008F0000E94110281E0CF9108951F93CF93DF935F
:10090000EC01162F0E94010480E00E946704612F11
:10091000CE010E94FA020E94E402DF91CF911F9162
:100920000C944A03CF93DF93D82F82E10E942802D0
:10093000C82FDD2339F00E945C046D2F82EA0E94EB
:10094000110202C00E9452046C2F82E90E9411021F
:10095000C6FF18C0C5FD16C010927D0480917C04AE
:10096000882311F082E201C083E10E942802C82F8F
:1009700080E10E942802682F8DE80E9411020E94E7
:1009800046030FC081E00E942802863841F060E0F3
:100990008DE80E94110266E881E80E941102C0E021
:1009A000D0E08C2FDF91CF910895CF93DF93EC01AE
:1009B000181619063CF40E945C046C2F82EA0E940F
:1009C000110202C00E94520465E881E8DF91CF91D4
:1009D0000C941102CF92DF92EF92FF92CF93DF93AC
:1009E0000E9462026B017C010E945C02D82F86E2A9
:1009F0000E942802C82FA701960104C0569547956A
:100A000037952795DA95D2F768EE73E080E090E0AD
:100A10000E94AF206C2F213131054105510510F0A6
:100A2000686001C0677F86EADF91CF91FF90EF9009
:100A3000DF90CF900C941102CF93C82F863020F016
:100A40008D3060F4863059F465EC81EB0E94110220
:100A50006CE087EB0E941102C6E009C0CCE063ECB9
:100A600081EB0E9411026AE087EB0E9411028EE185
:100A70000E9428028F7090E1C99F90011124682F75
:100A8000622B8EE90E941102CF910C94EA04CF935D
:100A900069372EE172078105910590F1613A28E2EC
:100AA00072078105910570F1613F2CE372078105A2
:100AB000910550F1613421E572078105910530F10E
:100AC00063312AE772078105910510F1653E22EA3C
:100AD000720781059105F0F0653224EF72078105F8
:100AE0009105D0F0693428EE720721E08207910564
:100AF000A8F06139704D8340910590F0C9E011C0B4
:100B0000C0E00FC0C1E00DC0C2E00BC0C3E009C02F
:100B1000C4E007C0C5E005C0C6E003C0C7E001C02F
:100B2000C8E08DE10E9428028F7090E1C99F90017A
:100B30001124682F622B8DE90E941102CF910C9431
:100B4000EA040F9394B1986294B924982C9A437054
:100B500094E0499FA001112423702064422BA62F0A
:100B6000A170B0E094E0AA0FBB1F9A95E1F74A2B61
:100B7000E82FE170F0E025E0EE0FFF1F2A95E1F786
:100B8000E42BECBD01700DBD0F9108958EBD0DB429
:100B900007FEFDCF8EB50895BF92CF92DF92EF9200
:100BA000FF920F931F93CF93DF93EC01BB24B39479
:100BB00088E8C82E83E1D82EE12CF12C02E310E066
:100BC0008DA99EA92BA93CA928173907B9F12CADED
:100BD000222319F0213069F027C0FE01E80FF91F28
:100BE00081818B3711F5BCAEC8AED9AEEAAEFBAE93
:100BF0001CC0FE01E80FF91F618185E395E06D37A8
:100C000039F40E945B1A85E395E00E94D9190CC063
:100C10000E945B1A811108C088AD99ADAAADBBAD29
:100C2000892B8A2B8B2B09F41CAE8DA99EA90196CA
:100C3000B8010E949B209EAB8DABC2CFDF91CF91BC
:100C40001F910F91FF90EF90DF90CF90BF9008958C
:100C5000FC0187A9882389F040AD51AD62AD73AD29
:100C6000411551056105710541F041505109610976
:100C7000710940AF51AF62AF73AF0895CF92DF9269
:100C8000FF920F931F93CF93DF938C018091830486
:100C9000E8012296882309F47CC08BE7F801808361
:100CA00083E481831F9282E08F938DE791E09F938D
:100CB0008F93DF93CF930E941C26BC016F5F7F4F01
:100CC0006C0F7D1FC80FD91F3CE2F32EF88283E81A
:100CD00094E00E94CC0BBC016F5F7F4FFC01F0825F
:100CE00083E894E00E94EB0BBC016F5F7F4FFC0137
:100CF000F08283E894E00E949D116C01FFEFCF1A0F
:100D0000DF0AFC01F0821092EC048091F4048F93CE
:100D10008091F3048F938091F2048F938091F1047A
:100D20008F9383E791E09F938F93DF92CF920E94FE
:100D30001C26EC012196CC0DDD1DF601E80FF91FF4
:100D4000F082809191058F93809190058F9380918F
:100D500093058F93809192058F93809195058F9342
:100D6000809194058F9387E791E09F938F93DF9312
:100D7000CF930E941C26C80FD91F8DE78883198244
:100D80008DB79EB748960FB6F8949EBF0FBE8DBF25
:100D900049C08BE7F801808383E481831F9282E05E
:100DA0008F938DE791E09F938F93DF93CF930E9472
:100DB0001C266E01C80ED91E2CE2F22EF601F0821E
:100DC000019660E871E08C0F9D1F0E941225E601DC
:100DD0002896F601F782809191058F938091900576
:100DE0008F93809193058F93809192058F9380913B
:100DF00095058F93809194058F9387E791E09F935A
:100E00008F93DF93CF930E941C26C80FD91F8DE7C5
:100E1000888319828DB79EB740960FB6F8949EBF0F
:100E20000FBE8DBFF80101900020E9F7CF010197B7
:100E3000801B910BDF91CF911F910F91FF90DF905D
:100E4000CF90089540E061E083E10E948713EFE7CF
:100E5000F5E083E190E097A386A315A214A213A264
:100E600012A21092C8051092C70581E090E09093FD
:100E7000C6058093C5051092C4051092C30584E190
:100E800090E090AF87AB16AA15AA14AA13AA81E026
:100E900080938204089588ED95E00E942806809151
:100EA000D4059091D505A091D605B091D7050097AE
:100EB000A105B10559F00197A109B1098093D405A5
:100EC0009093D505A093D605B093D70583E894E019
:100ED0000C9488118093D80520910B0630910C0654
:100EE000F901E852FA4F8183C901019682339105D5
:100EF0002CF490930C0680930B06089510920C0628
:100F000010920B0608950E94010480E395E7A0E08B
:100F1000B0E08093D4059093D505A093D605B09307
:100F2000D7058091D4059091D505A091D605B091B3
:100F3000D705892B8A2B8B2BD1F080E00E9492045D
:100F4000882379F387E891E00E94EC250E9447020C
:100F5000882329F00E944E020E946A07F7CF88ED8D
:100F600095E00E94CC05809182048823D1F20895F7
:100F7000833479F08434C1F0823401F524B181E006
:100F800090E001C0880F6A95EAF78095822384B9C2
:100F9000089527B181E090E001C0880F6A95EAF7D3
:100FA0008095822387B908952AB181E090E001C03D
:100FB000880F6A95EAF7809582238AB90895833469
:100FC00071F08434B1F08234E9F424B181E090E02E
:100FD00001C0880F6A95EAF7822B84B9089527B17A
:100FE00081E090E001C0880F6A95EAF7822B87B90B
:100FF00008952AB181E090E001C0880F6A95EAF770
:10100000822B8AB90895833471F08434B1F082342C
:10101000E9F425B181E090E001C0880F6A95EAF714
:10102000822B85B9089528B181E090E001C0880F36
:101030006A95EAF7822B88B908952BB181E090E098
:1010400001C0880F6A95EAF7822B8BB90895833423
:1010500079F08434C1F0823401F525B181E090E06B
:1010600001C0880F6A95EAF78095822385B90895B3
:1010700028B181E090E001C0880F6A95EAF7809579
:10108000822388B908952BB181E090E001C0880FD8
:101090006A95EAF7809582238BB90895442319F065
:1010A000413019F008950C9427080C9403088334F8
:1010B00031F0843431F08234B1F423B103C026B16D
:1010C00001C029B181E090E0062E02C0880F991F6F
:1010D0000A94E2F730E08223932302C09595879526
:1010E0006A95E2F7089581E008950895E1E8F0E057
:1010F000808182608083089510928100089580919C
:1011000084002091850090E0922B96958795089514
:101110001092B200E0EBF0E08081826080838FE18A
:101120008093B30017BAE0E7F0E0808182608083AB
:10113000E1EBF0E080818560808308951092B1003A
:1011400008951F920F920FB60F9211242F933F9381
:101150004F935F936F937F938F939F93AF93BF93BF
:10116000EF93FF930E944B0717BA80911606909158
:101170001706A0911806B09119060196A11DB11D80
:101180008093160690931706A0931806B09319063D
:10119000FF91EF91BF91AF919F918F917F916F914F
:1011A0005F914F913F912F910F900FBE0F901F9025
:1011B0001895609116067091170680911806909107
:1011C000190608951F920F920FB60F9211242F93B4
:1011D0003F934F935F936F937F938F939F93AF93BF
:1011E000BF93EF93FF938091C60080931506809183
:1011F00015060E946A0782E08093C000FF91EF917C
:10120000BF91AF919F918F917F916F915F914F911E
:101210003F912F910F900FBE0F901F9018958091C6
:101220001A0690911B069093F9068093F8068CE0BD
:101230008093C4001092C50088E98093C10082E0C9
:101240008093C00008959091C00095FFFCCF8093DB
:10125000C600089590910001992329F00E94230966
:1012600080E090E0089581E090E00895EF92FF9291
:101270000F931F93CF93DF937C018B01EC01CE0181
:101280008E199F098017910724F489910E942309E0
:10129000F6CFC801DF91CF911F910F91FF90EF9092
:1012A000089583B7816083BF83B7817F846083BFE4
:1012B0007894889583B78E7F83BF08951F920F928D
:1012C0000FB60F921124E09A0F900FBE0F901F904F
:1012D00018950F931F93CF93DF93EC018B010E941E
:1012E0007F08998388831B830A83DF91CF911F91A5
:1012F0000F910895CF93DF93EC010E947F084A81FC
:101300005B8141155105A9F02881398128173907DA
:1013100028F4BC01621B730B9B0105C0821B930B5D
:101320009C012150304881E02417350718F480E0F3
:1013300001C081E0DF91CF910895FC0110821182FC
:1013400013821282148215821682178210861286E8
:10135000118613861486158616861786118A108ABA
:10136000128A138A148A158A168A108E178A118E89
:10137000128E138E148E158E12A213A214A215A211
:1013800016A217A210AA11AA12AA13AA14AA15AA81
:1013900016AE17AEDC01DE9616961D921D921D92BA
:1013A0001C9219971E961C9211961C9211971696D4
:1013B0001D921D921D921C9219971E961C921196B9
:1013C0001C92119716961D921D921D921C921997B0
:1013D0001E961C9211961C92119716961D921D92A4
:1013E0001D921C9219971E961C9211961C92119791
:1013F00016961D921D921D921C9219971E961C9274
:1014000011961C9211961C92509682E08C93119624
:101410001C9211961C9211961C92119611961C9278
:101420001E92129611961C921E9212961D921D9259
:101430001D921C92139714961D921D921D921C9240
:10144000139714961D921D921D921C921397149639
:101450001D921D921D921C92139714961D921D921F
:101460001D921C921397E957FF4F108208952FEB9E
:10147000260F862F062E000C990B263010F4C797E6
:1014800008956156663018F4875591090895C097FC
:101490000895FF920F931F93CF93DF93EC01F88091
:1014A0002DE2F21201C02196CE010E94FF239B0182
:1014B000AC01A4E6B0E00E94D720FE014991242FA0
:1014C000042E000C330B205331092A303105A8F3C8
:1014D0004E3241F52181022E000C330B205331098D
:1014E0002A303105F8F44AE0429F8001439F100DF5
:1014F0001124012E000C220B330B600F711F821F71
:10150000931F0281002E000C110B005311090A30A9
:10151000110540F4012E000C220B330B600F711FDC
:10152000821F931F2DE2F21207C09095809570954F
:1015300061957F4F8F4F9F4FDF91CF911F910F91FB
:10154000FF9008952F923F924F925F926F927F92F9
:101550008F929F92AF92BF92CF92DF92EF92FF92C3
:101560000F931F93CF93DF93D82FC92F8B010E9426
:10157000FF2324E630E040E050E00E94AF20490124
:101580005A019B01AC0160E876E988E990E00E948D
:101590006B206B017C01F80191828082ED2FFC2F82
:1015A0002191822F022E000C990BC0970A97C0F34D
:1015B0002E3239F51F0180E8882E86E9982E88E9B9
:1015C000A82EB12C9AE0492E512C612C712CF101DE
:1015D000C1911F010C2E000CDD0BE097CA30D10524
:1015E00080F4C501B401A30192010E94AF2049011A
:1015F0005A01DE010E94E220C60ED71EE81EF91E27
:10160000E6CFA5E0B0E0A70196010E94D7206F5F6A
:101610007F4F8F4F9F4F23E030E040E050E00E942B
:10162000AF20F80122833383448355831682DF91F0
:10163000CF911F910F91FF90EF90DF90CF90BF90CF
:10164000AF909F908F907F906F905F904F903F9062
:101650002F90089520E030E044E351E40E94C72138
:1016600020E030E044EB51E40E9438220E94AA229C
:10167000CB0160E170E00E949B20FC01EE0FFF1F98
:10168000EB5DFE4F808191810895CF93DF93EC0154
:1016900087E0FE017096DE01129601900D928A9508
:1016A000E1F787E0FE017796DE01199601900D9231
:1016B0008A95E1F70E94D9086E8F7F8F88A399A33E
:1016C00081E089838883DF91CF9108959B01BC01DC
:1016D000605F7F4FC9010C94A20A9B01BC01695E47
:1016E0007F4FC9010C94A20ACF92DF92EF92FF9232
:1016F000CF93DF93EC0119826C817D818E819F8174
:101700000E94E02228E23BE64EE65EE40E94382298
:101710006B017C016A817B8180E090E00E94E02285
:101720009B01AC01C701B6010E94C7212885211188
:101730009058DF91CF91FF90EF90DF90CF90089578
:10174000CF92DF92EF92FF92CF93DF93EC01198259
:101750006B857C858D859E850E94E02228E23BE694
:101760004EE65EE40E9438226B017C0169857A8531
:1017700080E090E00E94E0229B01AC01C701B6012D
:101780000E94C7212F8521119058DF91CF91FF90A2
:10179000EF90DF90CF900895CF93DF93EB010E94FD
:1017A000740B9F938F937F936F938AE692E09F933E
:1017B0008F93DF93CF930E941C262DB73EB7285FEF
:1017C0003F4F0FB6F8943EBF0FBE2DBF8C0F9D1F2D
:1017D000DF91CF910895CF93DF93EB010E94A00B8F
:1017E0009F938F937F936F938AE692E09F938F935B
:1017F000DF93CF930E941C262DB73EB7285F3F4F43
:101800000FB6F8943EBF0FBE2DBF8C0F9D1FDF910A
:10181000CF910895CF93DF93EC018E819F81A885AE
:10182000B9858A839B83AC83BD830E94D9086A876C
:101830007B878C879D8781E089838883DF91CF9127
:101840000895CF93DF93EC018E819F81A885B985A0
:101850008A839B83AC83BD830E94D9086A877B8778
:101860008C879D8781E089838883DF91CF9108955C
:10187000CF93DF93EC01CB010E94490A6E837F83F3
:1018800088879987DF91CF910895CF93DF93EC01FB
:10189000CB010E94FF236E837F8388879987DF9126
:1018A000CF910895FC0111826281738184819581B9
:1018B00024E630E040E050E00E94AF20CB018053AE
:1018C000984F0895CF92DF92EF92FF92FC01118220
:1018D000628173818481958124E6C22ED12CE12C12
:1018E000F12CA70196010E94AF20CA01B901A701FE
:1018F00096010E94AF20862FFF90EF90DF90CF904F
:101900000895FC011182628173818481958120E1B7
:1019100037E240E050E00E94AF20822F0895FC01A2
:101920001182628173818481958120E432E44FE0E9
:1019300050E00E94AF20822F0895FC011182628145
:1019400073818481958120E137E240E050E00E947C
:10195000AF20CA01B90124E630E040E050E00E9427
:10196000AF20862F0895CF92DF92EF92FF92FC0175
:101970001182628173818481958124E6C22ED12CEB
:10198000E12CF12CA70196010E94AF20CA01B901F8
:10199000A70196010E94AF20862FFF90EF90DF9065
:1019A000CF900895FC0111826281738184819581B9
:1019B00024E630E040E050E00E94AF20862F0895FA
:1019C000CF93DF93EC018A859B85AC85BD858E83A3
:1019D0009F83A887B9870E94D9086A837B838C83F9
:1019E0009D8381E089838883DF91CF910895CF9390
:1019F000DF93EC01CB010E94490A6A877B878C87C1
:101A00009D87DF91CF910895CF93DF93EC018A8575
:101A10009B85AC85BD858E839F83A887B9870E94EF
:101A2000D9086A837B838C839D8381E08983888343
:101A3000DF91CF910895CF93DF93EC01CB010E940A
:101A4000FF236A877B878C879D87DF91CF910895DD
:101A5000CF93DF93EC01BC0140960E9412250E94B7
:101A6000D90868A379A38AA39BA381E08DA38CA343
:101A7000DF91CF91089540E150E00C941925BF9279
:101A8000CF92DF92EF92FF920F931F93CF93DF934A
:101A9000EC01FC01EA57FF4FB080BB2009F499C06C
:101AA000319660810E94370A182FFE01E857FF4FD8
:101AB0006081CE010E94370A40E1149F800D1124FD
:101AC000FE01EB57FF4F9081891374C0B59680815A
:101AD0009181A281B3810196A11DB11D8083918363
:101AE000A283B3838E0107561F4FD8018C918823A0
:101AF00061F0389780819181A281B3810196A11D07
:101B0000B11D80839183A283B383FE01EA56FF4F08
:101B100080818823C9F0813089F5CE0182960E94A8
:101B20000A0CCE01C0960E94210CF8018081882306
:101B300029F1CE010E94450BCE01CE960E94E00C09
:101B4000CE01845B9F4F18C0CE01C0960E94210C2D
:101B5000D8018C91882341F0CE010E94450BCE0123
:101B6000865A9F4F0E94E00CCE0188599F4F0E94D9
:101B7000040DCE018A589F4F0E94E00C8E0104563E
:101B80001F4FF801C081D181209709F407C1D80106
:101B9000ED91FC9166A177A18EA19FA10E940925DC
:101BA000892B09F0FBC0CE010E94280D0AA4DBA5F9
:101BB000C02DEACFCA55DF4F88819981AA81BB81A8
:101BC0000196A11DB11D88839983AA83BB83B12C83
:101BD000E5C07C01B7E9EB0EF11CF70130818A56B4
:101BE0009F4F6C018E0104561F4F31113EC07E0184
:101BF00097E8E90EF11C6FE672E0C7010E94092523
:101C0000892B39F065E772E0C7010E940925892B0D
:101C100011F481E012C06BE772E0C7010E94092550
:101C2000892B39F061E872E0C7010E940925892BF0
:101C300019F4F601108203C082E0D6018C93C656D7
:101C4000DF4F88819981F80191838083C081D181A0
:101C5000209709F4A3C0B7018EA19FA10E94092576
:101C600097FF97C08AA59BA5EECFDC01EC91E230EF
:101C700009F463C0CE0189579F4FDC012C912223C8
:101C800009F45BC0B0E2EB9FF0011124E32B319724
:101C9000E932F10508F051C0EC5CFF4F0C94D12003
:101CA000BC01CE01C0960E94380C47C0FE01E75629
:101CB000FF4F81E0213461F52CC0BE01605F7F4F92
:101CC00009C081E0233509F080E08E8B36C0BE016B
:101CD000695E7F4F0E94A20A30C081E0273509F07B
:101CE00080E08D8F2AC0BC01CE01CE9624C0BC01FD
:101CF000CE01845B9F4F1FC0BC01CE0182960E9423
:101D0000450C1BC0FE01E756FF4F81E021330CF468
:101D100080E0808312C0BC01CE0188599F4F0E9491
:101D20001B0D0BC0BC01CE018A589F4F04C0BC01E3
:101D3000CE01865A9F4F0E94F70CF801C080D180D7
:101D4000C957DF4FC114D10449F1D801ED91FC917D
:101D500066A177A1F60186A197A10E940925892B8A
:101D6000E9F4D60198962D913C919997F7018081DD
:101D700090E08217930794F02817390721F4BE01E9
:101D8000C6010E943B0DD6019A96CD90DC909B97A0
:101D9000D9CF892B19F0D8011D921C928B2DDF9180
:101DA000CF911F910F91FF90EF90DF90CF90BF9058
:101DB0000895DF92EF92FF920F931F93CF93DF93DB
:101DC0009C01FC01E256FF4F80819181A281B38189
:101DD0000196A11DB11D80839183A283B383C901A4
:101DE00088569F4F7C01E901CA57DF4F643279F171
:101DF0002CF46A3069F06D30C9F50AC06A3241F0DE
:101E00006C32A1F5F901EB57FF4F80818627808363
:101E1000D62E8901F70180818F3050F4F901E80F47
:101E2000F11DE957FF4F1082C9010E943F0D01C00B
:101E300080E0F801E956FF4F90819F5F9083F701A2
:101E4000108291E0FAE2DF1290E0988327C0FC0153
:101E50001082F901E956FF4F108272971082719635
:101E600082E0808318823396108217C0F701808148
:101E70008E3048F491E0980F9083F901E80FF11D3E
:101E8000E957FF4F60838881811107C0F901EB5743
:101E9000FF4F90816927608301C080E0DF91CF917F
:101EA0001F910F91FF90EF90DF900895AF92BF9236
:101EB000CF92DF92EF92FF920F931F93CF93DF9316
:101EC0007B015A0169018C0106561F4FF801C08140
:101ED000D1812097A9F06EA17FA1C5010E9409259B
:101EE00097FD0EC0892B29F488A599A5C816D90697
:101EF0003CF08E01065D1F4F0AA4DBA5C02DE9CF83
:101F0000F701D3A7C2A7F801F182E082DF91CF9158
:101F10001F910F91FF90EF90DF90CF90BF90AF9007
:101F20000895CF93DF93FC01DB0110A211A212A24E
:101F300013A214A215A257A346A331A720A790E18C
:101F4000EF01892F19928A95E9F7BF01605F7F4FF2
:101F5000EB0119929A95E9F7BF01CD01DF91CF917D
:101F60000C94560F0C94910F2FE789EA93E02150BF
:101F700080409040E1F700C0000040E063E084E46E
:101F80000E944E0887EB98E80197F1F700C0000027
:101F900041E063E084E40E944E0887EB98E80197F3
:101FA000F1F700C0000040E063E084E40E944E08C6
:101FB00087EB98E80197F1F700C0000087E892E00E
:101FC0000C94EC2541E063E084E40C944E0840E07E
:101FD00063E084E40C944E080E9499010E94B101D0
:101FE000789408951F93CF93DF93EC01162F0E94EE
:101FF000EC0F63E084E40E94DF07CC57DF4F1883C7
:10200000DF91CF911F910895EF92FF920F931F934D
:10201000CF93DF93EC018C0102551F4F88EC9FEAB0
:10202000A0E0B0E0F80180839183A283B3837E01B6
:10203000F4E8EF0EF11CF7018081811104C0CE019C
:102040000E94B40F03C0CE010E94E20FF80180810C
:102050009181A281B381892B8A2B8B2B79F10E94EC
:10206000CC01882331F00E94B801682FCE010E9474
:10207000D90E8881882351F3F80183818F9382815F
:102080008F9381818F9380818F9389E992E09F93D1
:102090008F930E94CF250F900F900F900F900F906D
:1020A0000F90F7018081811104C0CE010E94B40F0E
:1020B00003C0CE010E94E70F81E01CC01F921F9257
:1020C0001F921F9288EC92E09F938F930E94CF25DE
:1020D0000F900F900F900F900F900F90F70180814D
:1020E000811104C0CE010E94B40F03C0CE010E9432
:1020F000E70F80E0DF91CF911F910F91FF90EF905C
:102100000895EF92FF920F931F93CF93DF93EC010B
:1021100088EF92E09F938F930E94CF250F900F90AE
:102120008881882309F1CE010E94A00B162F072F6A
:10213000F82EE92ECE010E94740BEF92FF920F93BE
:102140001F939F938F937F936F9383E093E09F936D
:102150008F930E94CF258DB79EB70A960FB6F8943D
:102160009EBF0FBE8DBF04C08EE093E00E94EC25A1
:1021700087E193E09F938F930E94CF250F900F905C
:102180008AA1882359F18E010E5D1F4FC8010E945C
:10219000520CF82EE92EC8010E94620C1BA2EF928D
:1021A000FF921F928F936CA17DA18EA19FA120E130
:1021B00037E240E050E00E94AF201F922F9383E26D
:1021C00093E09F938F930E94CF258DB79EB708967B
:1021D0000FB6F8949EBF0FBE8DBF04C086E393E098
:1021E0000E94EC2588A9882309F484C019AA6AA949
:1021F0007BA98CA99DA920E432E44FE050E00E9425
:10220000AF202A3020F480E390E00E94E52519AA4F
:102210006AA97BA98CA99DA920E432E44FE050E093
:102220000E94AF201F922F9380E493E09F938F939F
:102230000E94CF258E01005D1F4FC8010E949D0C9A
:102240000F900F900F900F908A3020F480E390E071
:102250000E94E525C8010E949D0C1F928F9380E487
:1022600093E09F938F930E94CF25C8010E94B30CE7
:102270000F900F900F900F908A3020F480E390E041
:102280000E94E525C8010E94B30C1F928F938DE731
:1022900091E09F938F930E94CF2519AA6AA97BA9E9
:1022A0008CA99DA924E630E040E050E00E94AF20D8
:1022B0000F900F900F900F906A3020F480E390E021
:1022C0000E94E52519AA6AA97BA98CA99DA924E6E3
:1022D00030E040E050E00E94AF207F936F938FE9A1
:1022E00093E09F938F930E94CF250F900F900F90B4
:1022F0000F9004C08EE093E00E94EC258EE393E003
:10230000DF91CF911F910F91FF90EF900C94EC25EE
:10231000FC01E255FF4F408151816281738141157B
:1023200051056105710541F041505109610971097B
:1023300040835183628373830895CF93DF93EB01CE
:10234000FC01EA58FF4F1182668177818085918573
:102350000E94E2229F938F937F936F9386E493E092
:102360009F938F93DF93CF930E941C262DB73EB788
:10237000285F3F4F0FB6F8943EBF0FBE2DBF8C0FA6
:102380009D1FDF91CF9108956AE00E947B2020E19C
:10239000829F900D1124892F0895982F92959F70F8
:1023A0008F702AE0929F800D11240895CF93C82F3B
:1023B00088E60E9450198C2F0E946A190E945A19AF
:1023C00061E088E60E944319CF910C94BD19CF9328
:1023D000DF93C82FD62F88E60E9450198D2F0E94B8
:1023E0006A198C2F0E946A19DF91CF910C945A19A7
:1023F000CF93DF9381E10E94D611D82F82E10E9412
:10240000D611C82F61E18EEE0E94E71162E18DEDD9
:102410000E94E71181E10E94D6118E3E29F482E1EB
:102420000E94D6118D3D31F081E080932D06DF9121
:10243000CF91089581E080932E0661E18D2F0E9457
:10244000E71162E18C2FDF91CF910C94E71162E0EC
:1024500084E40E94B80762E084E40E940308E9E68D
:10246000F0E0808182608083E89A7894089580917A
:102470002E06089580912D06089581E080932E0602
:1024800010922D06089510922E0681E080932D065D
:102490000895EF92FF920F931F93CF93DF93CDB7E1
:1024A000DEB729970FB6F894DEBF0FBECDBF88E622
:1024B0000E94501980E00E946A190E945A1967E030
:1024C00088E60E9443198E010F5F1F4F7E0188E04E
:1024D000E80EF11C0E94BD19F80181938F01EE15E1
:1024E000FF05C1F70E945A1989818F770E94CD118B
:1024F00090E090931D0680931C068A810E94CD1166
:1025000090E090931F0680931E068B810E94CD1150
:10251000082F10E010932106009320068D810E9461
:10252000CD1190E09093230680932206FE808F2D9C
:102530008F710E94CD1190E0909325068093240620
:102540008F81F7FE06C00E94CD1190E08053984F16
:1025500005C00E94CD1190E08459984F90932706B2
:10256000809326068C810E94CD1190E090932906DD
:10257000809328060115110529F410922C0610925B
:102580002B0607C00C30110544F410932C06009361
:102590002B0681E080932A0608C00C501109109385
:1025A0002C0600932B0610922A068CE196E02996C1
:1025B0000FB6F894DEBF0FBECDBFDF91CF911F9154
:1025C0000F91FF90EF9008958F929F92AF92BF92DC
:1025D000CF92DF92EF92FF920F931F93CF93DF93EF
:1025E000CDB7DEB729970FB6F894DEBF0FBECDBFCB
:1025F0007C016B015A0188E60E94501980E00E941C
:102600006A190E945A1967E088E60E9443198E01F0
:102610000F5F1F4F4E0188E0880E911C0E94BD196C
:10262000F80181938F01E815F905C1F70E945A1945
:10263000A114B10429F089810E94CD11F501808394
:10264000C114D10429F08A810E94CD11F601808342
:10265000E114F10429F08B810E94CD11F7018083F0
:1026600029960FB6F894DEBF0FBECDBFDF91CF9194
:102670001F910F91FF90EF90DF90CF90BF90AF90A0
:102680009F908F9008951F93CF93DF93EC0188E67E
:102690000E94501980E00E946A198A859B85813DBD
:1026A00027E0920734F0805D97409B878A8710E887
:1026B00005C08C5697409B878A8710E088810E94CE
:1026C000C4110E946A198A810E94C4110E946A1969
:1026D0008C810E94C4110E946A198C850E94C411C9
:1026E0000E946A198E810E94C4110E946A1988850D
:1026F0000E94C411810F0E946A198A850E94C41128
:102700000E946A19DF91CF911F910C945A191F935F
:10271000CF93DF93C82FD62F142F88E60E9450192D
:1027200080E00E946A19812F0E94C4110E946A19D8
:102730008D2F0E94C4110E946A198C2F0E94C4110F
:102740000E946A19DF91CF911F910C945A19CF936F
:1027500090912D0691110DC0C82F80E00E94D611D6
:10276000CC2311F08F7701C0806860E0CF910C948A
:10277000E711CF91089580912D06811106C00E9426
:10278000D6118095881F8827881F0895FF920F9380
:102790001F93CF93DF93FC011082FB0110822091E5
:1027A0002E06211122C0EB018C0188E60E945019EF
:1027B00081E10E946A190E945A1962E088E60E942B
:1027C00043190E94B719882381F00E94BD19F82E81
:1027D0000E94BD19F801F0828295869586958370D6
:1027E00099E1899F802D11248883DF91CF911F91DA
:1027F0000F91FF900895CF93DF9390912E06911142
:102800002EC0C82F88E60E9450198EE00E946A19D7
:102810000E945A1961E088E60E9443190E94BD197E
:10282000D82F88E60E9450198EE00E946A198D2FD9
:1028300080620E946A190E945A19CC2381F088E6AE
:102840000E9450198EE00E946A190E945A1961E094
:1028500088E60E9443190E94BD1985FDF0CFDF91E3
:10286000CF910895CF93C82F88E60E94501988E031
:102870008C0F0E946A190E945A1961E088E60E9432
:102880004319CF910C94BD190F931F93CF938C01D3
:10289000C0E08C2F0E943214F80181938F01CF5F2A
:1028A000C833B9F7CF911F910F910895CF93DF935C
:1028B000C82FD62F88E60E94501988E08D0F0E94FD
:1028C0006A198C2F0E946A19DF91CF910C945A19C2
:1028D0000F931F93CF938C01C0E06C2FF80181916F
:1028E0008F010E945614CF5FC833B9F7CF911F9163
:1028F0000F910895CF93C82F80912E068823D1F091
:1029000088E60E94501987E00E946A190E945A19AD
:1029100061E088E60E9443190E94BD19CC2319F09A
:10292000C82FC06102C0C82FCF7E88E60E94501910
:1029300087E01AC088E60E9450198EE00E946A194A
:102940000E945A1961E088E60E9443190E94BD194D
:10295000CC2321F0C82FCB7FC06402C0C82FCF7B0F
:1029600088E60E9450198EE00E946A198C2F0E94FE
:102970006A19CF910C945A19CF93DF93EC0180918F
:102980002E068823A9F088E60E94501987E00E944D
:102990006A190E945A1961E088E60E9443190E9450
:1029A000BD198C7FC82B88E60E94501987E019C09A
:1029B00088E60E9450198EE00E946A190E945A19F6
:1029C00061E088E60E9443190E94BD1994E0CC0F93
:1029D000DD1F9A95E1F7877EC82B88E60E94501983
:1029E0008EE00E946A198C2F0E946A19DF91CF91A4
:1029F0000C945A19CF9390912D06992311F1C82F59
:102A000088E60E9450198FE00E946A190E945A19A4
:102A100061E088E60E9443190E94BD19CC2319F099
:102A2000C82FC86002C0C82FC77F88E60E9450190F
:102A30008FE00E946A198C2F0E946A19CF910C9422
:102A40005A19CF91089580912E06882361F060E095
:102A500080E00E94561461E080E00E94561462E01B
:102A600080E00C94561467E080E00E94E71168E073
:102A700080E00E94E71169E080E00E94E7116AE0CF
:102A800080E00C94E7111F93CF93DF93883108F017
:102A900057C06C3308F054C04C3308F051C0142FA9
:102AA000D62FC82F80912E06882379F060E08C2FD6
:102AB0000E94561461E08D2F0E94561462E0812F0F
:102AC000DF91CF911F910C945614842F0E94C41152
:102AD00067E00E94E7118D2F0E94C41168E00E94F8
:102AE000E7118C2F0E94C41169E00E94E7116AE08F
:102AF00081E80E94E7118FE00E94D6116FE08E7F7F
:102B00000E94E71188E60E9450198EE00E946A191F
:102B10000E945A1961E088E60E9443190E94BD197B
:102B2000C82F88E60E9450198EE00E946A198C2FE7
:102B300081600E946A19DF91CF911F910C945A19FC
:102B4000DF91CF911F910895FC01892B29F04081DD
:102B5000628184810C9443150895EF92FF920F9344
:102B60001F93CF93DF93EC018B017A0180912E06A6
:102B70008823B9F0209721F080E00E9432148883E6
:102B80000115110529F081E00E943214F8018083BB
:102B9000E114F104E9F082E00E943214F70180832D
:102BA00017C087E00E94D6118F770E94CD11F701E0
:102BB000808388E00E94D6118F770E94CD11F801A2
:102BC000808389E00E94D6118F770E94CD1188837F
:102BD000DF91CF911F910F91FF90EF900895CF93C8
:102BE000DF9300D01F92CDB7DEB7AE014F5F5F4FCE
:102BF000BE016E5F7F4FCE0103960E94AD15ECE1E2
:102C0000F6E08B8190E0958384838A8190E09383C2
:102C10008283898190E091838083CF010F900F9010
:102C20000F90DF91CF910895FF920F931F93CF9351
:102C3000DF9300D01F92CDB7DEB780912E06882398
:102C400011F180E00E943214F82E81E00E943214CB
:102C5000082F82E00E943214182FAE014F5F5F4FA1
:102C6000BE016E5F7F4FCE0103960E94E4128B81FE
:102C7000F81207C08A81081304C081E09981911776
:102C800071F080E00CC08FE00E94D611182F1170F7
:102C900080FF04C06FE08E7F0E94E711812F0F90AC
:102CA0000F900F90DF91CF911F910F91FF9008959A
:102CB000CF93DF93FC01DB0186A197A127A930AD5B
:102CC00014964D915C911597821793076CF0281715
:102CD0003907F4F08217930739F4C4A1D5A165A987
:102CE00076A96C177D07A4F0481759071CF0421706
:102CF00053079CF02417350791F481E012964D910B
:102D00005C91139725A936A9421753074CF007C0C9
:102D10004817590764F357FFEDCF81E001C080E009
:102D2000DF91CF9108950F931F93CF93DF93FC0111
:102D3000EB01DC01A85BBF4F2C813D818D919C9103
:102D4000820F931F68E170E00E949B209C01958395
:102D50008483DF01AA5BBF4F0D911C918A819B8107
:102D6000800F911F6CE370E00E949B20938382830D
:102D70004A815B81400F511F4D3351059CF00196F4
:102D80008C33910519F0938382830CC013821282D5
:102D90002F5F3F4F2831310519F03583248302C05E
:102DA00015821482DF91CF911F910F910895CF93D7
:102DB000DF93EC01BC016F5E7F4F0E949316BE0152
:102DC000CE010E94581640E0882361F06A818C8110
:102DD0000E9443158B818F938A818F938D818F936E
:102DE0008C810BC06CA18EA10E9443158DA18F9385
:102DF0008CA18F938FA18F938EA18F938FE693E0F9
:102E00009F938F930E94CF250F900F900F900F905C
:102E10000F900F90DF91CF91089510929A06449AE7
:102E2000459AE9EBF0E080818E7F808380818D7F01
:102E300080838CE08093B80085E48093BC00789414
:102E40000895880F8093BA000895413258F5909103
:102E50009A069111FCCF91E090939A069FEF909380
:102E60002F0610927406940F90937306880F81605A
:102E70008093990685EE8093BC0080919A068130FC
:102E8000E1F380917406841710F440917406A5E76D
:102E9000B6E0962FFB018E2F891B841728F48D91A5
:102EA0008193F9CF80E00895842F0895413248F549
:102EB00090919A069111FCCF32E030939A063FEF41
:102EC00030932F061092740640937306562FA5E791
:102ED000B6E0FB013E2F351B341718F431913D93BA
:102EE000F9CF482F50E0440F551F4093990685EEC7
:102EF0008093BC00222339F080919A06823019F425
:102F0000F9CF91E011C080912F068F3F69F0809139
:102F10002F06803231F080912F06803321F094E02B
:102F200003C092E001C093E0892F0895613288F4D4
:102F300020919A06243079F460935106282FA3E556
:102F4000B6E0FC018E2F821B861738F481918D9399
:102F5000F9CF81E0089582E0089580E0089590938C
:102F60009606809395060895909398068093970609
:102F70000895882311F085EC01C085E88093BC009A
:102F8000089585ED8093BC008091BC0084FDFCCF4A
:102F900010929A06089585EC8093BC0010929A06D0
:102FA00008951F920F920FB60F9211242F933F9303
:102FB0004F935F936F937F938F939F93AF93BF9341
:102FC000EF93FF938091B900887F803609F495C014
:102FD00068F5883209F45BC090F4803109F454C07C
:102FE00038F4882309F4EEC0883009F44DC0EEC0EF
:102FF000883109F44CC0803209F45EC0E7C08034E7
:1030000009F469C048F4803309F456C0883309F0E4
:10301000DDC080932F06A1C0803509F450C08835EB
:1030200009F45EC0883409F0D1C0CEC0883909F4F3
:10303000BFC0A8F4883709F460C038F4883609F4B2
:103040005CC0803709F459C0C1C0883809F4B0C0E9
:10305000803909F458C0803809F0B8C054C0803BAA
:1030600009F47EC038F4803A09F45FC0883A09F464
:1030700077C0ACC0803C09F49FC0883C09F49CC078
:10308000883B09F482C0A2C08091990611C090913A
:10309000740680917306981708F096C0E091740644
:1030A00081E08E0F80937406F0E0EB58F94F808139
:1030B0008093BB0085EC7DC080932F0685C0E09196
:1030C000740681E08E0F809374068091BB00F0E05F
:1030D000EB58F94F8083909174068091730665C018
:1030E000E091740681E08E0F809374068091BB009E
:1030F000F0E0EB58F94F808367C083E080939A0635
:1031000010923006D7CF80913006803208F050C040
:10311000E091300681E08E0F809330068091BB00F5
:10312000F0E0EF5CF94F8083C5CF809130068032AC
:1031300030F4E0913006F0E0EF5CF94F10820E942D
:10314000C1176091300670E0E0919506F091960607
:1031500081E396E00995109230060E94CB1736C0A5
:1031600084E080939A061092520610925106E091E4
:103170009706F0919806099580915106811105C036
:1031800081E08093510610925306E091520681E04F
:103190008E0F80935206F0E0ED5AF94F80818093B4
:1031A000BB009091520680915106981708F482CF87
:1031B00085E88093BC000AC085EC8093BC00109227
:1031C0009A0604C010922F060E94C117FF91EF913A
:1031D000BF91AF919F918F917F916F915F914F912F
:1031E0003F912F910F900FBE0F901F901895CF9386
:1031F000DF93EC01E0919B06F0919C063097F1F093
:103200009091C4068091C3069817C0F090E0292FD2
:1032100030E02617370754F4DE01A20FB31F4C919C
:10322000D901AB53B94F4C939F5FF1CF1092C406B5
:103230006093C306CB01DF91CF910994DF91CF91C9
:103240000895E0919D06F0919E06309729F0109226
:10325000A1061092A006099408951092C406109237
:10326000C3061092A1061092A0060C940D170E949E
:10327000211781E299E10E94B41787EF98E10E943B
:10328000AF170C942D19462F613208F040E265EC1F
:1032900076E00E9425171092C4068093C306089515
:1032A00091E090939F068093C2061092A10610921F
:1032B000A006089521E04091A00662EA76E08091A0
:1032C000C2060E9456171092A1061092A0061092F4
:1032D0009F060895CF93DF931F92CDB7DEB7898302
:1032E00080919F06882391F08091A006803298F407
:1032F0008091A106E82FF0E0EE55F94F9981908377
:103300008F5F8093A1068093A00605C061E0CE0187
:1033100001960E9496170F90DF91CF9108950F9319
:103320001F93CF93DF9320919F06222359F0EC0146
:103330008C01060F111DC017D10751F089910E9411
:103340006A19F9CFDF91CF911F910F910C949617C5
:10335000DF91CF911F910F910895FC010190002002
:10336000E9F73197BF01681B790B0C948F19809195
:10337000C3069091C406891B08959091C40680915C
:10338000C306981748F4E92FF0E0EB53F94F80811A
:103390009F5F9093C406089580E0089590939C06E3
:1033A00080939B06089590939E0680939D060895B2
:1033B00008950F931F93CF93DF93CDB7DEB7619737
:1033C0000FB6F894DEBF0FBECDBF8C0184EA93E048
:1033D0000E94EC2581E090E0F801978B868B848930
:1033E00095898131910569F09F938F9384EC93E0E7
:1033F0009F938F930E94CF250F900F900F900F9067
:1034000041C0F80181818235C9F58481082E000C04
:10341000990BC0979E838D838781082E000C990B92
:10342000C0979C838B838285082E000C990BC097D4
:103430009A8389838585082E000C990BC0979887FD
:103440008F838089082E000C990BC0979A878987F3
:1034500083E190E0978B868B8389082E000C990B73
:10346000C0979C878B87CE0101960E94431381E011
:10347000809382048BEE93E00E94EC2584E094E03C
:103480000E94EC2561960FB6F894DEBF0FBECDBF4B
:10349000DF91CF911F910F910895FC012489358907
:1034A0002331310534F42F5F3F4F358B248B80E07F
:1034B000089581E00895DC015496ED91FC915597B3
:1034C000E80FF91F60830C944D1AFC01158A148AC9
:1034D0000C945B1AFC0126893789620F731F6431D3
:1034E000710524F4778B668B80E0089581E0089560
:1034F00081E280937C0086E880937A0087EE93E0F7
:103500000197F1F700C0000080917A0080648093F9
:103510007A0080917A0086FDFCCF87EE93E00197D8
:10352000F1F700C0000080917A00806480937A00F7
:1035300080917A0086FDFCCF6091780090917900AF
:1035400080917A008F7780937A0070E0792B80E009
:103550009CE20E948720862F6AE00E947B20682FD1
:1035600070E080E090E00E94E2220895CF92DF9226
:10357000EF92FF920F931F93CF93DF93F42EE52EDC
:10358000D62EC72EE9012BE7FC0120838C010E5FAC
:103590001F4F23E421831F9282E08F938DE791E0F8
:1035A0009F938F931F930F930E941C26080F191F40
:1035B00089818F9388818F938B818F938A818F9359
:1035C0008D818F938C818F9389E194E09F938F936A
:1035D0000E94CF2589818F9388818F938B818F93D0
:1035E0008A818F938D818F938C818F9387E791E070
:1035F0009F938F931F930F930E941C26EC0121969B
:10360000C00FD11FF801E80FF91F2CE22083CF92E1
:10361000DF92EF92FF928CE394E09F938F93DF937E
:10362000CF930E941C26C80FD91F8DE7888319826B
:10363000EDB7FEB7B0960FB6F894FEBF0FBEEDBF64
:10364000DF91CF911F910F91FF90EF90DF90CF907E
:1036500008950895E5EEF6E08DE090E0958384838B
:10366000138212821182108282E190E09783868316
:103670008CE090E09187808785E190E09387828756
:103680000895FC01228533858091EF069091F00624
:10369000821793070CF458C0281739070CF452C04E
:1036A0002817390709F04DC0208531858091ED0636
:1036B0009091EE06821793070CF446C0281739073D
:1036C0000CF440C028173907E1F526813781809135
:1036D000EB069091EC0682179307B4F1281739078F
:1036E0008CF12817390769F5248135818091E90625
:1036F0009091EA06821793073CF12817390714F1D5
:1037000028173907F1F4228133818091E7069091DF
:10371000E80682179307C4F0281739079CF028178A
:10372000390779F4208131818091E5069091E60690
:10373000821793074CF02817390724F02817390708
:1037400019F0089580E0089581E00895CF92DF9206
:10375000EF92FF920F931F93CF93DF93CDB7DEB716
:10376000A5970FB6F894DEBF0FBECDBF0E94781AA2
:103770006B017C010E942A1BAE014B5E5F4FBE01B4
:10378000695E7F4FCE0149960E94E41226E636E636
:1037900046E450E4C701B6010E9433221816FCF03B
:1037A0009E012B5E3F4FB701A6018E010F5F1F4F99
:1037B000C8010E94B61AF82E1F930F9381E494E07B
:1037C0009F938F930E94CF256F2DC8010E947D0487
:1037D0000F900F900F900F900E945109FDCFCE01D6
:1037E00045960E94411B8823F9F09E012B5E3F4FB6
:1037F000B701A6018E010F5F1F4FC8010E94B61AC4
:10380000F82E1F930F9381E494E09F938F930E946F
:10381000CF256F2DC8010E947D040F900F900F904F
:103820000F900E945109FDCFA5960FB6F894DEBF08
:103830000FBECDBFDF91CF911F910F91FF90EF9001
:10384000DF90CF900895A0E1B0E0E9E2FCE10C94B4
:1038500049217C011B016A01FC01178216828381C8
:1038600081FF44C39E012F5F3F4F3901F7019381D0
:10387000F10193FD859193FF81911F01882309F444
:1038800031C3853239F493FD859193FF81911F01F6
:10389000853239F4B70190E00E9493255601650105
:1038A000E5CF10E0512C912CFFE1F915D8F08B32C7
:1038B00079F038F4803279F08332A1F4F92DF06197
:1038C0002EC08D3261F0803369F4292D21602DC026
:1038D000392D3260932E892D8460982E2AC0E92DCF
:1038E000E86015C097FC2DC020ED280F2A3088F421
:1038F00096FE06C03AE0139F200D1124122F19C026
:103900008AE0589E200D1124522EE92DE0629E2E51
:1039100010C08E3231F496FCE5C2F92DF0649F2E72
:1039200008C08C3621F4292D2068922E02C08836DA
:1039300041F4F10193FD859193FF81911F01811164
:10394000B3CF9BEB980F933020F4992D9061805E5C
:1039500007C09BE9980F933008F066C1992D9F7EB0
:1039600096FF16E09F73992E853619F49064992E70
:1039700008C0863621F4392F3068932E02C0111109
:10398000115097FE07C01C3350F444244394410E59
:1039900027E00BC0183038F027E017E005C027E01B
:1039A0009CE3492E02C0212F412C560184E0A80E31
:1039B000B11CF6016081718182819381042DA30184
:1039C0000E9426246C01F981FC87F0FF02C0F3FFFE
:1039D00006C091FC06C092FE06C000E205C00DE2E2
:1039E00003C00BE201C000E08C858C7019F001115E
:1039F0005AC29BC297FE10C04C0CFC85F4FF04C059
:103A00008A81813309F44A94141474F528E024154A
:103A100078F588E0482E2CC096FC2AC0812F90E0D3
:103A20008C159D059CF03CEFC3163FEFD30674F058
:103A3000892D8068982E0AC0E2E0F0E0EC0FFD1FAF
:103A4000E10FF11D8081803319F411501111F4CF71
:103A500097FE0EC044244394410E812F90E0C81677
:103A6000D9062CF41C1904C04424439401C010E06E
:103A700097FE06C01C141D0434F4C601019605C04F
:103A800085E090E002C081E090E0011101961123F1
:103A900031F0212F30E02F5F3F4F820F931F252DF4
:103AA00030E08217930714F4581A01C0512C892D65
:103AB000897049F4552039F0B70180E290E00E9406
:103AC00093255A94F7CF002329F0B701802F90E077
:103AD0000E94932593FC09C0552039F0B70180E37B
:103AE00090E00E9493255A94F7CF97FE4CC0460170
:103AF000D7FE02C0812C912CC60188199909F301C7
:103B0000E80FF91FFE87ED87960124193109388BDC
:103B10002F87012F10E01195019511093FEF8316B2
:103B2000930629F4B7018EE290E00E949325C81411
:103B3000D9044CF08F8598898815990524F4ED8572
:103B4000FE85818101C080E3F1E08F1A91082D8507
:103B50003E852F5F3F4F3E872D87801691062CF0C4
:103B6000B70190E00E949325D9CFC814D90441F43D
:103B70009A81963320F4953319F43C8534FF81E320
:103B8000B70190E04EC08A81813319F09C859F7EF9
:103B90009C87B70190E00E949325111105C094FC09
:103BA00018C085E690E017C0B7018EE290E00E9451
:103BB00093251E5F82E001E0080FF301E80FF11D7D
:103BC0008081B70190E00E949325802F0113F3CFED
:103BD000E6CF85E490E0B7010E949325D7FC06C0AC
:103BE000C114D10441F4EC85E4FF05C0D194C19423
:103BF000D1088DE201C08BE2B70190E00E949325CD
:103C000080E32AE0C216D1042CF08F5FFAE0CF1ACD
:103C1000D108F7CFB70190E00E949325B701C60104
:103C2000C0960E94932554C1833631F0833779F0D2
:103C3000833509F056C020C0560132E0A30EB11CF6
:103C4000F6018081898301E010E0630112C0560112
:103C5000F2E0AF0EB11CF601C080D18096FE03C029
:103C6000612F70E002C06FEF7FEFC6010E94282530
:103C70008C01F92DFF7714C0560122E0A20EB11C71
:103C8000F601C080D18096FE03C0612F70E002C0B3
:103C90006FEF7FEFC6010E94FE248C01F92DF068C2
:103CA0009F2EF3FD1AC0852D90E008171907A8F480
:103CB000B70180E290E00E9493255A94F4CFF60178
:103CC00097FC859197FE81916F01B70190E00E946A
:103CD000932551105A94015011090115110579F7D6
:103CE000F7C0843611F0893661F5560197FE09C098
:103CF00024E0A20EB11CF601608171818281938162
:103D00000AC0F2E0AF0EB11CF60160817181072E8E
:103D1000000C880B990BF92DFF769F2E97FF09C099
:103D200090958095709561957F4F8F4F9F4FF0686C
:103D30009F2E2AE030E0A3010E943E26C82EC6181E
:103D40003FC0092D853721F40F7E2AE030E01DC0E9
:103D5000097F8F3691F018F4883559F0C3C0803749
:103D600019F0883711F0BEC0006104FF09C004607B
:103D700007C094FE08C0066006C028E030E005C019
:103D800020E130E002C020E132E0560107FF09C027
:103D900084E0A80EB11CF60160817181828193815B
:103DA00008C0F2E0AF0EB11CF6016081718180E0C5
:103DB00090E0A3010E943E26C82EC6180F77902ED1
:103DC00096FE0BC0092D0E7FC11650F494FE0AC05A
:103DD00092FC08C0092D0E7E05C0DC2C092D03C005
:103DE000DC2C01C0D12E04FF0DC0FE01EC0DF11D35
:103DF0008081803311F4097E09C002FF06C0D3948C
:103E0000D39404C0802F867809F0D39403FD11C0A9
:103E100000FF06C01C2DD51480F4150D1D190DC012
:103E2000D51458F4B70180E290E00E949325D39412
:103E3000F7CFD51410F45D1801C0512C04FF10C049
:103E4000B70180E390E00E94932502FF17C001FDB7
:103E500003C088E790E002C088E590E0B7010CC09D
:103E6000802F867859F001FF02C08BE201C080E20A
:103E700007FD8DE2B70190E00E949325C11638F44A
:103E8000B70180E390E00E9493251150F7CFCA94C8
:103E9000F301EC0DF11D8081B70190E00E949325A4
:103EA000C110F5CF15C0F4E0F51560F584E0581A9F
:103EB00093FE1FC0011127C02C8523FF2AC00AEBE7
:103EC00010E0392D3071932EF8018491811124C0B6
:103ED000552009F4E4CCB70180E290E00E949325DC
:103EE0005A94F6CFF7018681978126C08FEF9FEF16
:103EF00023C0B70180E290E00E9493255A945110AC
:103F0000F8CFD8CF512CB701802F90E00E94932595
:103F1000D3CF0EEB10E0D5CF91108052B70190E0D7
:103F20000E9493250F5F1F4FCFCF23E0251510F47C
:103F300083E0BDCF512CC0CF6096E2E10C946521A7
:103F40000E940F0988E991E00E94EC250E942D193A
:103F50000E94F81160E083E894E00E94F20F85EB84
:103F600091E09F938F930E94CF250E9422070F908C
:103F70000F90CCECD1E011E00E942D190E94271285
:103F800040E955E062E975E084E995E00E94E412B9
:103F9000809191058F93809190058F9380919305E7
:103FA0008F93809192058F93809195058F93809147
:103FB00094058F93DF93CF930E94CF258DB79EB743
:103FC00008960FB6F8949EBF0FBE8DBF80919405E2
:103FD00090919505892B71F48091920590919305AC
:103FE000892B41F48091900590919105892B11F4D2
:103FF0001092820480918204811106C08EEE91E0BD
:104000000E94EC250E9483070E94880883E894E0C0
:104010000E94041083E894E00E9481108091820441
:1040200081111CC08091B3048823C1F082E292E028
:104030000E94EC2583EB94E00E94B30CF82E83EBF6
:1040400094E00E949D0C082F83EB94E00E948F0C5B
:104050004F2D602F0E948713109382048DE495E00A
:104060000E943E06682F8DE495E00E947D048FE754
:1040700095E00E94D71640E955E062E975E084E9D1
:1040800095E00E94E4120E949E088FE492E00E9454
:10409000EC250E94510970CFE8EDF5E014AA13AAAF
:1040A00016AA15AA81E087AB10AE11AE12AE13AE00
:1040B00010924C0510924B0583E894E00C949D09F6
:1040C00060E070E08AE299E00E94482590931B0628
:1040D00080931A060895DB018F939F930E94D72047
:1040E000BF91AF91A29F800D911DA39F900DB29F94
:1040F000900D11240895991B79E004C0991F96171B
:1041000008F0961B881F7A95C9F780950895AA1B19
:10411000BB1B51E107C0AA1FBB1FA617B70710F0B2
:10412000A61BB70B881F991F5A95A9F780959095E4
:10413000BC01CD01089597FB072E16F4009407D01B
:1041400077FD09D00E94872007FC05D03EF49095AA
:1041500081959F4F0895709561957F4F0895A1E2D5
:104160001A2EAA1BBB1BFD010DC0AA1FBB1FEE1FF1
:10417000FF1FA217B307E407F50720F0A21BB30B3C
:10418000E40BF50B661F771F881F991F1A9469F7B8
:1041900060957095809590959B01AC01BD01CF0114
:1041A0000895EE0FFF1F0590F491E02D09940E94F1
:1041B000B721A59F900DB49F900DA49F800D911DD8
:1041C00011240895B7FF0C94D7200E94D720821B9A
:1041D000930B0895689401C0E8948F929F92CF93B7
:1041E000DF930E94F820DF91CF919F908F900895E8
:1041F00088249924F401E401B0E49F93AA279A1536
:104200008B049C04ED05FE05CF05D007A10798F4AB
:10421000AD2FDC2FCF2FFE2FE92D982C892E982F34
:10422000872F762F652F542F432F322F2227B850F8
:1042300031F7BF9127C01B2EBF91BB27220F331F21
:10424000441F551F661F771F881F991F881C991CC4
:10425000EE1FFF1FCC1FDD1FAA1FBB1F8A149B046C
:10426000EC05FD05CE05DF05A007B10748F08A186B
:104270009B08EC09FD09CE09DF09A00BB10B2160F9
:104280001A94E1F62EF49401AF01BE01CD01000CA9
:1042900008952F923F924F925F926F927F928F92EA
:1042A0009F92AF92BF92CF92DF92EF92FF920F93C5
:1042B0001F93CF93DF93CDB7DEB7CA1BDB0B0FB6CF
:1042C000F894DEBF0FBECDBF09942A88398848888C
:1042D0005F846E847D848C849B84AA84B984C88422
:1042E000DF80EE80FD800C811B81AA81B981CE0F19
:1042F000D11D0FB6F894DEBF0FBECDBFED010895FE
:104300000F93083090F0982F872F762F652F542F1A
:10431000432F322F22270850F4CF220F331F441F80
:10432000551F661F771F881F991F0A95B2F70F91B7
:10433000089597FB10F8169400080F93083098F032
:104340000850232F342F452F562F672F782F892F72
:10435000902DF4CF05949795879577956795579508
:104360004795379527950A95AAF70F910895A29F2B
:10437000B001B39FC001A39F700D811D1124911D39
:10438000B29F700D811D1124911D08955058BB27B7
:10439000AA270E94DE210C9458230E944A2338F059
:1043A0000E94512320F039F49F3F19F426F40C9415
:1043B00047230EF4E095E7FB0C944123E92F0E947C
:1043C000692358F3BA17620773078407950720F02B
:1043D00079F4A6F50C948B230EF4E0950B2EBA2FEE
:1043E000A02D0B01B90190010C01CA01A0011124FB
:1043F000FF27591B99F0593F50F4503E68F11A16A7
:10440000F040A22F232F342F4427585FF3CF469537
:1044100037952795A795F0405395C9F77EF41F1659
:10442000BA0B620B730B840BBAF09150A1F0FF0F23
:10443000BB1F661F771F881FC2F70EC0BA0F621F0F
:10444000731F841F48F4879577956795B795F795FF
:104450009E3F08F0B0CF9395880F08F09927EE0F94
:104460009795879508950E941D2308F481E008958B
:104470000E944C220C9458230E94512358F00E9411
:104480004A2340F029F45F3F29F00C944123511155
:104490000C948C230C9447230E94692368F399237E
:1044A000B1F3552391F3951B550BBB27AA27621730
:1044B0007307840738F09F5F5F4F220F331F441F3D
:1044C000AA1FA9F335D00E2E3AF0E0E832D0915071
:1044D0005040E695001CCAF72BD0FE2F29D0660F5E
:1044E000771F881FBB1F261737074807AB07B0E8A1
:1044F00009F0BB0B802DBF01FF2793585F4F3AF0A7
:104500009E3F510578F00C9441230C948C235F3F1F
:10451000E4F3983ED4F3869577956795B795F7952C
:104520009F5FC9F7880F911D9695879597F9089514
:10453000E1E0660F771F881FBB1F621773078407B0
:10454000BA0720F0621B730B840BBA0BEE1F88F7BF
:10455000E09508950E94B1226894B1110C948C23C7
:1045600008950E94712388F09F5798F0B92F9927DA
:10457000B751B0F0E1F0660F771F881F991F1AF04E
:10458000BA95C9F714C0B13091F00E948B23B1E005
:1045900008950C948B23672F782F8827B85F39F004
:1045A000B93FCCF3869577956795B395D9F73EF4E7
:1045B00090958095709561957F4F8F4F9F4F08958F
:1045C000E89409C097FB3EF49095809570956195AD
:1045D0007F4F8F4F9F4F9923A9F0F92F96E9BB2763
:1045E0009395F695879577956795B795F111F8CFDF
:1045F000FAF4BB0F11F460FF1BC06F5F7F4F8F4F4A
:104600009F4F16C0882311F096E911C0772321F03F
:104610009EE8872F762F05C0662371F096E8862FD7
:1046200070E060E02AF09A95660F771F881FDAF72E
:10463000880F9695879597F90895990F0008550F5B
:10464000AA0BE0E8FEEF16161706E807F907C0F018
:1046500012161306E407F50798F0621B730B840B20
:10466000950B39F40A2661F0232B242B252B21F4FA
:1046700008950A2609F4A140A6958FEF811D811D9A
:10468000089597F99F6780E870E060E008959FEFD4
:1046900080EC089500240A941616170618060906D9
:1046A000089500240A9412161306140605060895A8
:1046B000092E0394000C11F4882352F0BB0F40F430
:1046C000BF2B11F460FF04C06F5F7F4F8F4F9F4F70
:1046D000089557FD9058440F551F59F05F3F71F0F2
:1046E0004795880F97FB991F61F09F3F79F0879559
:1046F0000895121613061406551FF2CF4695F1DFE2
:1047000008C0161617061806991FF1CF8695710571
:10471000610508940895E894BB2766277727CB01A5
:1047200097F908950E94A5230C9458230E944A23C8
:1047300038F00E94512320F0952311F00C9441236E
:104740000C94472311240C948C230E94692370F34A
:10475000959FC1F3950F50E0551F629FF001729F26
:10476000BB27F00DB11D639FAA27F00DB11DAA1F35
:10477000649F6627B00DA11D661F829F2227B00D82
:10478000A11D621F739FB00DA11D621F839FA00D0D
:10479000611D221F749F3327A00D611D231F849F5D
:1047A000600D211D822F762F6A2F11249F575040B4
:1047B0009AF0F1F088234AF0EE0FFF1FBB1F661F2F
:1047C000771F881F91505040A9F79E3F510580F0F8
:1047D0000C9441230C948C235F3FE4F3983ED4F374
:1047E000869577956795B795F795E7959F5FC1F79C
:1047F000FE2B880F911D9695879597F908951F9325
:10480000FC0199278827BC01E89411911032E9F343
:10481000193010F01E30C8F31B3251F01D3249F42C
:10482000689406C00E943325610F711D811D911D82
:10483000119110531A30B0F33EF490958095709515
:1048400061957F4F8F4F9F4F1F910895283008F03B
:1048500027E03327DA01990F311D87FD916000961B
:104860006105710539F432602E5F3D9330E32A957E
:10487000E1F708959F3F30F080387105610509F038
:104880003C5F3C5F3D93913008F08068911DDF9361
:10489000CF931F930F93FF92EF92192F987F9695C6
:1048A000E92F96959695E90FFF27E45EFE4F99272D
:1048B0003327EE24FF24A701E7010590089407940D
:1048C00028F4360FE71EF81E491F511D660F771F8B
:1048D000881F991F0694A1F70590079428F4E70E06
:1048E000F81E491F561FC11D770F881F991F661F8D
:1048F0000694A1F70590079428F4F80E491F561F57
:10490000C71FD11D880F991F661F771F0694A1F737
:104910000590079420F4490F561FC71FD81F990F01
:10492000661F771F881F0694A9F78491109517704A
:1049300041F0D695C79557954795F794E7941A9502
:10494000C1F7E2ECF0E0689415901591359165910E
:10495000959105907FE27395E118F10A430B560B90
:10496000C90BD009C0F7E10CF11E431F561FC91F28
:10497000D01D7EF4703311F48A95E6CFE89401508F
:1049800030F0080F0AF40027021708F4202F2395AF
:10499000022F7A3328F079E37D932A95E9F710C046
:1049A0007D932A9589F6069497956795379517957F
:1049B0001794E118F10A430B560BC90BD00998F074
:1049C00023957E9173957A3308F070E37C932013DE
:1049D000B8F77E9170617D9330F0839571E37D939C
:1049E00070E32A95E1F71124EF90FF900F911F914A
:1049F000CF91DF91992787FD90950895FC0105904F
:104A0000615070400110D8F7809590958E0F9F1FD0
:104A10000895FB01DC018D91019080190110D9F3FB
:104A2000990B0895FB01DC0101900D920020E1F744
:104A30000895FB01DC014150504048F001900D9277
:104A40000020C9F701C01D9241505040E0F7089581
:104A5000FC016150704001900110D8F7809590954D
:104A60008E0F9F1F0895592F482F372F262F660F1F
:104A7000771F881F991F660F771F881F991F620F66
:104A8000731F841F951F660F771F881F991F089536
:104A90000F931F93CF93DF93009731F46115710546
:104AA00019F480E090E03AC08B01EC016EE070E018
:104AB00081E090E00E949C26FC01892B91F380E824
:104AC00083830115110571F01387028781E88383C1
:104AD0008091F6069091F706892B21F4F093F70662
:104AE000E093F6062097C9F0D187C0878381826062
:104AF00083838091F8069091F906892B71F4F093E5
:104B0000F906E093F8068091FA069091FB06892B4E
:104B100021F4F093FB06E093FA06CF01DF91CF91E9
:104B20001F910F9108950F931F93CF93DF93FB0174
:104B3000238121FD03C08FEF9FEF2CC022FF16C001
:104B400046815781248135814217530744F4A0815F
:104B5000B1819D012F5F3F4F318320838C9326814C
:104B600037812F5F3F4F3783268314C08B01EC01C1
:104B7000FB010084F185E02D0995892BE1F6D80130
:104B800016968D919C911797019617969C938E93EC
:104B90001697CE01DF91CF911F910F910895A0E05C
:104BA000B0E0E5EDF5E20C945921AE014B5F5F4FAB
:104BB000FA0161917191AF018091F8069091F90627
:104BC0000E94231CE2E00C9475216091F80670911C
:104BD000F9060E94932508950F931F93CF93DF93B7
:104BE000E091F806F091F906238121FF1BC08C01AA
:104BF000D0E0C0E0F80181918F016091F8067091DA
:104C0000F906DB011896ED91FC911997882331F094
:104C10000995892B79F3DFEFCFEFECCF8AE0099587
:104C2000892B19F08FEF9FEF02C08D2F9C2FDF9102
:104C3000CF911F910F910895AEE0B0E0E2E2F6E26D
:104C40000C9457210D891E8986E08C831A83098371
:104C50008FEF9FE79E838D83AE01475E5F4F6F8925
:104C6000788DCE0101960E94231CEF81F885E00F1C
:104C7000F11F10822E96E4E00C947321FA01AA270A
:104C8000283051F1203181F1E8946F936E7F6E5F8F
:104C90007F4F8F4F9F4FAF4FB1E03ED0B4E03CD03D
:104CA000670F781F891F9A1FA11D680F791F8A1F20
:104CB000911DA11D6A0F711D811D911DA11D20D087
:104CC00009F468943F912AE0269F11243019305D41
:104CD0003193DEF6CF010895462F4770405D419332
:104CE000B3E00FD0C9F7F6CF462F4F70405D4A337F
:104CF00018F0495D31FD4052419302D0A9F7EACF47
:104D0000B4E0A6959795879577956795BA95C9F775
:104D100000976105710508959B01AC010A2E069468
:104D20005795479537952795BA95C9F7620F731F21
:104D3000841F951FA01D08950F931F93CF93DF939A
:104D4000869F8001879F100D969F100D1124C8012A
:104D50000E94B826EC01009729F0A80160E070E0FD
:104D60000E94D927CE01DF91CF911F910F91089515
:104D70000F931F93CF93DF938230910510F482E05D
:104D800090E0E091FE06F091FF0620E030E0A0E028
:104D9000B0E0309719F140815181028113814817A9
:104DA0005907C8F08417950769F4109731F01296E7
:104DB0000C93129713961C9327C00093FE06109332
:104DC000FF0622C02115310519F04217530718F4C8
:104DD0009A01BD01EF01DF01F801DBCF211531059B
:104DE000F9F0281B390B2430310580F48A819B812E
:104DF0006115710521F0FB019383828304C09093B8
:104E0000FF068093FE06FE01329644C0FE01E20FCB
:104E1000F31F8193919322503109398328833AC03B
:104E20002091FC063091FD06232B41F420910301D3
:104E3000309104013093FD062093FC06209101017E
:104E4000309102012115310541F42DB73EB7409153
:104E5000050150910601241B350BE091FC06F091F1
:104E6000FD06E217F307A0F42E1B3F0B28173907A6
:104E700078F0AC014E5F5F4F2417350748F04E0FB6
:104E80005F1F5093FD064093FC068193919302C0EF
:104E9000E0E0F0E0CF01DF91CF911F910F910895F5
:104EA000CF93DF93009709F481C0FC0132971382FE
:104EB0001282A091FE06B091FF06109781F4208126
:104EC0003181820F931F2091FC063091FD06281737
:104ED000390751F5F093FD06E093FC0667C0ED013C
:104EE00020E030E0CE17DF0740F44A815B819E016D
:104EF00041155105F1F0EA01F5CFD383C28340811A
:104F00005181840F951FC817D90759F48881998159
:104F1000840F951F0296918380838A819B8193835E
:104F200082832115310529F4F093FF06E093FE06F4
:104F30003DC0E901FB83EA8349915991C40FD51F14
:104F4000EC17FD0761F480819181840F951F029613
:104F5000E90199838883828193819B838A83E0E03E
:104F6000F0E012968D919C911397009719F0FD0136
:104F7000DC01F7CF8D919C9111979D012E5F3F4FE2
:104F8000820F931F2091FC063091FD0628173907E8
:104F900069F4309729F41092FF061092FE0602C0C1
:104FA00013821282B093FD06A093FC06DF91CF918D
:104FB0000895DC0101C06D9341505040E0F7089521
:044FC000F894FFCF93
:104FC40001000000072000781E00A02800F03C002B
:104FD400405100127A00E4A20024F40048E8019051
:104FE400D00320A1074B034D035203510353035530
:104FF40003560359035D035F03600363036D036793
:10500400036C036B035374617274696E67204C6F95
:105014005261206661696C6564210D004C6F5261B8
:1050240020496E6974205375636365737366756C88
:105034006C0D00256C750025643A25643A256400DE
:105044004E4F5F4C4F43005265636965766564203B
:105054005061636B65740D002D2D2D2D2D2D2D208C
:1050640054616D6120436F6C6C6172202D2D2D2D68
:105074002D2D2D0D0052544320616E642047505352
:1050840020496E697420446F6E6520004D61696E1D
:105094003A2057616B6575702054696D653A202517
:1050A40064203A202564203A2025640D0A004D61CD
:1050B400696E3A2054696D65206E6F74207365744F
:1050C4002C2057616974696E6720666F7220746959
:1050D4006D652066726F6D204C6F526120506B7449
:1050E4000D004D61696E3A2056616C6964207469E3
:1050F4006D6520617661696C61626C6520696E2002
:105104004750532C2073657474696E672E0D004DDF
:1051140061696E3A20476F696E6720746F20736C03
:10512400656570206E6F77200D00252E366600476A
:1051340050524D4300474E524D430047504747415C
:1051440000474E474741004750532050756C7365E4
:1051540020476976656E200D004750532D3E486107
:105164006E646C65723A2052657475726E20547266
:10517400756520696E206D532054696D65722061D8
:10518400743A2025640D0A004750532D3E48616E41
:10519400646C65723A2052657475726E20466C6157
:1051A400736520696E206D532054696D65722061AA
:1051B400743A2025640D0A004C6F636174696F6E44
:1051C4003A20002566202C202566200D0A00494E31
:1051D40056414C49440D00446174652F54696D6512
:1051E4003A20002564202F202564202F20256420C8
:1051F40020202D202000494E56414C4944200D00CA
:105204002564203A2000252E3266004E004E4E457D
:1052140000454E4500455345005353450053005344
:1052240053570057535700574E57004E4E5700736D
:1052340063686564756C652D3E616C61726D48616F
:105244006E646C65723A2053657474696E6720618C
:105254006C61726D20666F723A202564202F2025C0
:10526400640D0A00636D642E6465746563742D3E79
:1052740050726F63657373696E6720636F6D6D61E0
:105284006E640D00636D642E6465746563742D3EF5
:1052940057726F6E6720636F6D6D616E64206C650D
:1052A4006E6774683A2025640D0A00636D642E6489
:1052B40065746563742D5254432054696D6520737D
:1052C40065740D00636D642E6465746563742D3EAE
:1052D40045786974696E670D004D61696E3A2052B4
:1052E400656C656173652054696D653A2025642099
:1052F4003A202564203A2025640D0A00252E3166C3
:0E5304000053656E64696E673A2025730000E1
:00000001FF
