:100000000C94E0000C941E090C9408010C94080157
:100010000C9408010C9408010C9408010C945D08E0
:100020000C9408010C9408010C9408010C9408012C
:100030000C9408010C9408010C940A010C9408011A
:100040000C9408010C9408010C949E080C9408016F
:100050000C9408010C9408010C9408010C940801FC
:100060000C94BC170C940801100E1D0E210E270EC7
:100070002D0E420E4B0E520E570E5D0E5D0E5D0E96
:100080005D0E5D0E5D0E5D0E5D0E5D0E5D0E5D0E18
:100090005D0E5D0E5D0E5D0E5D0E5D0E5D0E5D0E08
:1000A0005D0E5D0E5D0E5D0E100E160E1D0E210E08
:1000B000270E2D0E330E370E3C0E6E616E00696EEC
:1000C000660000407A10F35A00A0724E1809001022
:1000D000A5D4E80000E87648170000E40B540200BD
:1000E00000CA9A3B000000E1F505000080969800E8
:1000F000000040420F000000A08601000000102711
:1001000000000000E80300000000640000000000A0
:100110000A00000000000100000000002C76D888D2
:10012000DC674F0823DFC1DFAE59E1B1B796E5E3E5
:10013000E453C63AE651997696E8E6C28426EB89FE
:100140008C9B62ED407C6FFCEFBC9C9F40F2BAA59B
:100150006FA5F490055A2AF75C936B6CF9676DC133
:100160001BFCE0E40D47FEF520E6B500D0ED902E37
:100170000300943577050080841E080000204E0A95
:10018000000000C80C333333330F986E12831141D3
:10019000EF8D2114893BE65516CFFEE6DB18D1849E
:1001A0004B381BF77C1D901DA4BBE42420328472C5
:1001B0005E228100C9F124ECA1E53D272D1E441EDD
:1001C00011241FBECFEFD8E0DEBFCDBF15E0A0E009
:1001D000B1E0EAE3FBE402C005900D92A238B1075A
:1001E000D9F728E0A2E8B5E001C01D92AF36B2070A
:1001F000E1F710E0C0EED0E004C02197FE010E94BC
:10020000A11ECE3DD107C9F70E94401D0C949B252D
:100210000C9400001F920F920FB60F9211248F932F
:100220009F93EF93FF9380918B05813019F5809117
:100230008A058150E9F4809187059091880580FFB7
:1002400002C05E9A01C05E988091870590918805F2
:100250009695879590938805809387058091890569
:10026000815080938905811102C010928B0583E033
:1002700080938A0580918D05811152C080918605F9
:100280008823E9F08091850581508093850581114F
:1002900047C01092860510928C05E0918F05F0E022
:1002A00080918405E057FA4F808380918F058F5F9E
:1002B00080938F058032A0F110928F0531C080911C
:1002C0008C05811110C04C992BC081E080938C0566
:1002D0001092840594E09093850598E090938305AF
:1002E000809382051DC0809185058150B9F480916D
:1002F00082054C9B05C090918405982B90938405B2
:10030000880F8093820580918305815080938305B7
:10031000811103C081E08093860583E08093850589
:10032000FF91EF919F918F910F900FBE0F901F90B3
:10033000189510928B0510928C0510928D055E9A7F
:10034000569A54989FB7F89481E287BD82E084BDA5
:1003500085BDEEE6F0E080818260808316BC9FBFA1
:10036000089510928D05089581E080938D0508957C
:1003700090918E0580918F059817E1F3E92FF0E0B9
:10038000E057FA4F80819F5F903218F490938E056A
:10039000089510928E05089590918F0581E0209127
:1003A0008E05291301C080E0089510928F051092E8
:1003B0008E05089590918B0581E0913009F080E0E1
:1003C000089590918B059130E1F393E090938A0525
:1003D0009AE090938905880F990B92609093880515
:1003E0008093870581E080938B050895CF93DF93F9
:1003F000EC018991882319F00E94E101FACFDF9185
:10040000CF910895CF93DF93FC018491EF01219662
:10041000882321F00E94E101FE01F7CFDF91CF9107
:100420000895CF93DF93D82FC62F67E084E40E940E
:10043000E3078D2F0E94B3058C2F0E94B305C82FB0
:1004400067E084E40E94BF078C2FDF91CF9108956D
:1004500060E08F770C9411028AE10E94280240919B
:10046000B2055091B3056091B4057091B505411581
:10047000514A6C4B734310F09DE901C094EA891B0B
:10048000089589E10E94280285958595089583E164
:100490000E9428029091B105891B08950E9447028D
:1004A000882341F08091B1058F5F8093B10580E092
:1004B0000C9428028FEF08958EE10E942802829505
:1004C0008F7008958DE10E94280290E034E09595A8
:1004D00087953A95E1F78A3091057CF4FC01EE0F9F
:1004E000FF1F8E0F9F1FFC01E95FFE4F80819181EE
:1004F000A281BC018A2F90E0089560E271EA87E052
:1005000090E008958F929F92AF92BF92CF92DF9228
:10051000EF92FF9288E20E9428028770C82ED12CA9
:10052000E12CF12CFE2CED2CDC2CCC2489E20E9459
:100530002802C80ED11CE11CF11CFE2CED2CDC2C79
:10054000CC248AE20E942802C80ED11CE11CF11CB6
:1005500088E20E94280283FF03C088E0E81AF108BD
:100560000E9462024B015C01C701B6010E94C120DA
:1005700020E030E040E85BE40E944D2120E034E2DE
:1005800044EF5BE40E9417206B017C01C501B401BC
:100590000E94BF2020E034E244EF58E40E9417207C
:1005A0009B01AC01C701B6010E944D210E94892028
:1005B000FF90EF90DF90CF90BF90AF909F908F9083
:1005C000089580680C94110263E881E80E9411028A
:1005D00082E10E94280283FD07C08FE097E2019725
:1005E000F1F700C00000F4CF68E082E90E94110238
:1005F00081E00895DF92EF92FF920F931F93CF93C4
:10060000DF93F82ED92EC62F82E20E942802D82F1F
:100610008C2F90E08D0F911D8F3F910519F010F0F8
:10062000CD2FC095EF2C0F2D1D2D802F8E198C17DF
:1006300038F4F80161918F0180E80E941102F5CF32
:100640006C2F6D0F82EA0E9411028C2FDF91CF91E7
:100650001F910F91FF90EF90DF900895CF93DF935C
:100660000E944702882371F08DE00E942802D82F53
:1006700080E00E942802C82F6D2F8DE80E94110291
:100680008C2F01C08FEFDF91CF91089561E881E851
:100690000C94110260E881E80C9411020C944A0356
:1006A000823020F0823118F081E101C082E0825076
:1006B000682F606889E80C941102AF92BF92CF92C4
:1006C000DF92EF92FF920F931F93CF93DF9360938C
:1006D000B2057093B3058093B4059093B505DC0122
:1006E000CB019C01AD0160E070E080E090E003E1AF
:1006F0000E94501FA12CE8E4BE2EF8EECF2EDD2480
:10070000D394E12CF12C00E010E00E94BC1EC22F1B
:10071000B32E6A017B01182FD92F00E10E946B1FB5
:10072000622F86E80E9411022C2F3B2DA601B701F3
:10073000812F9D2F08E00E946B1F622F87E80E9487
:1007400011026C2F88E8DF91CF911F910F91FF90DC
:10075000EF90DF90CF90BF90AF900C941102CF92AA
:10076000DF92EF92FF926B017C0167E084E40E94CC
:100770009B0767E084E40E94BF0762E082E40E9476
:100780009B0762E082E40E94E3078FE097E2019713
:10079000F1F700C0000062E082E40E94BF078FE032
:1007A00097E20197F1F700C0000085E491E00E9414
:1007B000A72382E40E942802823171F01F928F9356
:1007C00089E691E09F938F930E948A230F900F9068
:1007D0000F900F9080E02CC01F928F9389E691E0DC
:1007E0009F938F930E948A230E944A03C701B601F8
:1007F0000E945D0360E08EE80E94110260E08FE8D5
:100800000E9411028CE00E942802682F63608CE82D
:100810000E94110264E086EA0E94110284E10E94B3
:1008200050030E9446030F900F900F900F9081E0AD
:10083000FF90EF90DF90CF900895CF93853028F010
:10084000C82F893018F0C8E001C0C5E08DE10E94D2
:1008500028026C2F70E064507109660F771F817F4A
:10086000682B8DE9CF910C941102CF93C82F692F7B
:1008700080EA0E9411026C2F81EACF910C94110240
:10088000682F89EB0C9411028EE10E942802682FD8
:1008900064608EE90C9411028EE10E942802682F98
:1008A0006B7F8EE90C9411021092B0058DE10E94CD
:1008B0002802682F6E7F8DE90C94110281E08093ED
:1008C000B0058DE10E942802682F61608DE90C94CB
:1008D0001102CF93C82F0E944603CC2319F00E9427
:1008E0005E0402C00E94540460E08DE80E94110280
:1008F00060E082EA0E94110281E0CF910895CF93D7
:10090000DF93D82F82E10E942802C82FDD2339F01F
:100910000E945E046D2F82EA0E94110202C00E94B2
:1009200054046C2F82E90E941102C6FF18C0C5FD55
:1009300016C01092B1058091B005882311F082E2B3
:1009400001C083E10E942802C82F80E10E94280292
:10095000682F8DE80E9411020E9446030FC081E0BB
:100960000E942802863841F060E08DE80E94110262
:1009700066E881E80E941102C0E0D0E08C2FDF9190
:10098000CF910895CF93DF93EC01181619063CF42C
:100990000E945E046C2F82EA0E94110202C00E9433
:1009A000540465E881E8DF91CF910C941102CF9255
:1009B000DF92EF92FF92CF93DF930E9462026B016E
:1009C0007C010E945C02D82F86E20E942802C82F78
:1009D000A701960104C05695479537952795DA9556
:1009E000D2F768EE73E080E090E00E947F1E6C2FEB
:1009F000213131054105510510F0686001C0677F64
:100A000086EADF91CF91FF90EF90DF90CF900C942A
:100A10001102CF93C82F863020F08D3060F48630DD
:100A200059F465EC81EB0E9411026CE087EB0E94A7
:100A30001102C6E009C0CCE063EC81EB0E94110218
:100A40006AE087EB0E9411028EE10E9428028F70FB
:100A500090E1C99F90011124682F622B8EE90E94BA
:100A60001102CF910C94D704CF9369372EE172070E
:100A70008105910590F1613A28E27207810591059F
:100A800070F1613F2CE372078105910550F16134EB
:100A900021E572078105910530F163312AE772077C
:100AA0008105910510F1653E22EA720781059105E5
:100AB000F0F0653224EF720781059105D0F06934BA
:100AC00028EE720721E082079105A8F06139704D88
:100AD0008340910590F0C9E011C0C0E00FC0C1E0B3
:100AE0000DC0C2E00BC0C3E009C0C4E007C0C5E050
:100AF00005C0C6E003C0C7E001C0C8E08DE10E94A8
:100B000028028F7090E1C99F90011124682F622BF9
:100B10008DE90E941102CF910C94D7040F9394B1E8
:100B2000986294B924982C9A437094E0499FA0014C
:100B3000112423702064422BA62FA170B0E094E012
:100B4000AA0FBB1F9A95E1F74A2BE82FE170F0E05E
:100B500025E0EE0FFF1F2A95E1F7E42BECBD0170B5
:100B60000DBD0F9108958EBD0DB407FEFDCF8EB55E
:100B700008957F928F929F92AF92BF92CF92DF9211
:100B8000EF92FF920F931F93CF93DF939C01FC0191
:100B9000EB59FF4FC080D180EC01C959DF4F399626
:100BA000772473948C0106591F4F88E8882E83E1BF
:100BB000982EA12CB12C94E6E92EF12C88819981F4
:100BC000C816D90669F14081442319F0413081F0FB
:100BD0001FC0D901A80FB91F11964C914B37C9F40A
:100BE0007082D8018D929D92AD92BC92139711C0E4
:100BF000D901A80FB91F11964C914D3749F0D80172
:100C00004D915D916D917C91452B462B472B09F4BD
:100C100010820196B7010E946B1E99838883CECF04
:100C2000DF91CF911F910F91FF90EF90DF90CF90C8
:100C3000BF90AF909F908F907F900895FC01E759EF
:100C4000FF4F2081222381F0319680819181A28102
:100C5000B3810097A105B10539F00197A109B10948
:100C600080839183A283B38308950F9301E020E0F2
:100C700040E061E080E00E948E0560EC7AEC89E85B
:100C800096E30E94AF03811111C08CE791E00E94AE
:100C9000A72383E991E00E94A72383E991E00E94C2
:100CA000A72383E991E00E94A723FFCF87E991E082
:100CB0000F910C94A723EF92FF920F931F93CF9362
:100CC000DF93EC018091B6058E010E5F1F4F8823E4
:100CD00009F45AC08BE7888383E489831F9282E0FA
:100CE0008F938EEA91E09F938F931F930F930E94AF
:100CF000D723BC016F5F7F4F600F711FF801E80FB2
:100D0000F91F8CE2F82EF08286EB95E00E948C0BA6
:100D1000BC016F5F7F4FFC01F08286EB95E00E9483
:100D2000AB0BBC016F5F7F4FFC01F08286EB95E05F
:100D30000E9466118C010F5F1F4FFC01F082109220
:100D40001F06809127068F93809126068F938091AE
:100D500025068F93809124068F9381EB91E09F93DA
:100D60008F931F930F930E94D723F801E80FF91F69
:100D70008DE7808311828DB79EB70E960FB6F894DB
:100D80009EBF0FBE8DBF26C08BE7888383E4898317
:100D90001F9282E08F938EEA91E09F938F931F932F
:100DA0000F930E94D7237801E80EF91E2CE2F70179
:100DB0002083019665EB71E0800F911F0E94CD2288
:100DC0008DE7F701878310860F900F900F900F909B
:100DD0000F900F90DF93CF938CEB91E09F938F93C5
:100DE0000E948A23FE0101900020E9F73197CF018C
:100DF0008C1B9D0BEC019F938F9384ED91E09F934F
:100E00008F930E948A23EDB7FEB738960FB6F894F9
:100E1000FEBF0FBEEDBFCE01DF91CF911F910F91AD
:100E2000FF90EF90089540E061E083E10E9472132B
:100E3000EDECF6E083E190E097A386A315A214A25F
:100E400013A212A2109216071092150781E090E0EB
:100E500090931407809313071092120710921107B2
:100E600084E190E090AF87AB16AA15AA14AA13AA42
:100E700081E080936806089586E297E00E941E064E
:100E80008091220790912307A0912407B091250714
:100E90000097A105B10559F00197A109B109809307
:100EA000220790932307A0932407B093250786EB8E
:100EB00095E00C9451118093260720918B07309177
:100EC0008C07F901EA5DF84F8183C90101968436E8
:100ED00091052CF490938C0780938B0708951092C2
:100EE0008C0710928B070895833479F08434C1F015
:100EF000823401F524B181E090E001C0880F6A9549
:100F0000EAF78095822384B9089527B181E090E0C3
:100F100001C0880F6A95EAF78095822387B9089502
:100F20002AB181E090E001C0880F6A95EAF78095C8
:100F300082238AB90895833471F08434B1F0823405
:100F4000E9F424B181E090E001C0880F6A95EAF7E6
:100F5000822B84B9089527B181E090E001C0880F09
:100F60006A95EAF7822B87B908952AB181E090E06B
:100F700001C0880F6A95EAF7822B8AB908958334F5
:100F800071F08434B1F08234E9F425B181E090E06D
:100F900001C0880F6A95EAF7822B85B9089528B1B8
:100FA00081E090E001C0880F6A95EAF7822B88B94A
:100FB00008952BB181E090E001C0880F6A95EAF7AF
:100FC000822B8BB90895833479F08434C1F0823454
:100FD00001F525B181E090E001C0880F6A95EAF73C
:100FE0008095822385B9089528B181E090E001C001
:100FF000880F6A95EAF78095822388B908952BB106
:1010000081E090E001C0880F6A95EAF7809582231D
:101010008BB90895442319F0413019F008950C94C8
:10102000E3070C94BF07833431F0843431F0823409
:10103000B1F423B103C026B101C029B181E090E031
:10104000062E02C0880F991F0A94E2F730E082232F
:10105000932302C0959587956A95E2F7089581E0FC
:1010600008950895E1E8F0E080818260808308952A
:10107000109281000895809184002091850090E075
:10108000922B9695879508951092B200E0EBF0E0D0
:101090008081826080838FE18093B30017BAE0E79C
:1010A000F0E0808182608083E1EBF0E08081856008
:1010B000808308951092B10008951F920F920FB689
:1010C0000F9211242F933F934F935F936F937F93CE
:1010D0008F939F93AF93BF93EF93FF930E943C072F
:1010E00017BA8091960790919707A0919807B091B1
:1010F00099070196A11DB11D8093960790939707BC
:10110000A0939807B0939907FF91EF91BF91AF918A
:101110009F918F917F916F915F914F913F912F910F
:101120000F900FBE0F901F901895609196077091C9
:101130009707809198079091990708951F920F92B1
:101140000FB60F9211242F933F934F935F936F939A
:101150007F938F939F93AF93BF93EF93FF93809170
:10116000C60080939507809195070E945B0782E0F7
:101170008093C000FF91EF91BF91AF919F918F91AC
:101180007F916F915F914F913F912F910F900FBE83
:101190000F901F90189580919A0790919B079093BC
:1011A0006808809367088CE08093C4001092C500A3
:1011B00088E98093C10082E08093C00008959091F7
:1011C000C00095FFFCCF8093C60008959091000168
:1011D000992329F00E94DF0880E090E0089581E0E3
:1011E00090E00895EF92FF920F931F93CF93DF93B8
:1011F0007C018B01EC01CE018E199F0980179107AC
:1012000024F489910E94DF08F6CFC801DF91CF91C5
:101210001F910F91FF90EF90089583B7816083BF76
:1012200083B7817F846083BF78948CE993E00E94C8
:10123000A723889583B78E7F83BF08951F920F924F
:101240000FB60F921124E09A0F900FBE0F901F90CF
:1012500018950F931F93CF93DF93EC018B010E949E
:101260003B08998388831B830A83DF91CF911F9169
:101270000F910895CF93DF93EC010E943B084A81C0
:101280005B8141155105A9F028813981281739075B
:1012900028F4BC01621B730B9B0105C0821B930BDE
:1012A0009C012150304881E02417350718F480E074
:1012B00001C081E0DF91CF910895FC01108211827D
:1012C0001382128214821582168217821086128669
:1012D000118613861486158616861786118A108A3B
:1012E000128A138A148A158A168A108E178A118E0A
:1012F000128E138E148E158E12A213A214A215A292
:1013000016A217A210AA11AA12AA13AA14AA15AA01
:1013100016AE17AEDC01DE9616961D921D921D923A
:101320001C9219971E961C9211961C921197169654
:101330001D921D921D921C9219971E961C92119639
:101340001C92119716961D921D921D921C92199730
:101350001E961C9211961C92119716961D921D9224
:101360001D921C9219971E961C9211961C92119711
:1013700016961D921D921D921C9219971E961C92F4
:1013800011961C9211961C92509682E08C931196A5
:101390001C9211961C9211961C92119611961C92F9
:1013A0001E92129611961C921E9212961D921D92DA
:1013B0001D921C92139714961D921D921D921C92C1
:1013C000139714961D921D921D921C9213971496BA
:1013D0001D921D921D921C92139714961D921D92A0
:1013E0001D921C921397E957FF4F108208952FEB1F
:1013F000260F862F062E000C990B263010F4C79767
:1014000008956156663018F4875591090895C0977C
:101410000895FF920F931F93CF93DF93EC01F88011
:101420002DE2F21201C02196CE010E94BA219B0149
:10143000AC01A4E6B0E00E94A71EFE014991242F52
:10144000042E000C330B205331092A303105A8F348
:101450004E3241F52181022E000C330B205331090D
:101460002A303105F8F44AE0429F8001439F100D75
:101470001124012E000C220B330B600F711F821FF1
:10148000931F0281002E000C110B005311090A302A
:10149000110540F4012E000C220B330B600F711F5D
:1014A000821F931F2DE2F21207C0909580957095D0
:1014B00061957F4F8F4F9F4FDF91CF911F910F917C
:1014C000FF9008952F923F924F925F926F927F927A
:1014D0008F929F92AF92BF92CF92DF92EF92FF9244
:1014E0000F931F93CF93DF93D82FC92F8B010E94A7
:1014F000BA2124E630E040E050E00E947F1E49011E
:101500005A019B01AC0160E876E988E990E00E940D
:101510004F1E6B017C01F80191828082ED2FFC2F20
:101520002191822F022E000C990BC0970A97C0F3CD
:101530002E3239F51F0180E8882E86E9982E88E939
:10154000A82EB12C9AE0492E512C612C712CF1015E
:10155000C1911F010C2E000CDD0BE097CA30D105A4
:1015600080F4C501B401A30192010E947F1E4901CC
:101570005A01DE010E94B21EC60ED71EE81EF91ED9
:10158000E6CFA5E0B0E0A70196010E94A71E6F5F1D
:101590007F4F8F4F9F4F23E030E040E050E00E94AC
:1015A0007F1EF80122833383448355831682DF91A3
:1015B000CF911F910F91FF90EF90DF90CF90BF9050
:1015C000AF909F908F907F906F905F904F903F90E3
:1015D0002F90089520E030E044E351E40E94AB1FD7
:1015E00020E030E044EB51E40E9417200E94892063
:1015F000CB0160E170E00E946B1EFC01EE0FFF1F4B
:10160000EB5DFE4F808191810895CF93DF93EC01D4
:1016100087E0FE017096DE01129601900D928A9588
:10162000E1F787E0FE017796DE01199601900D92B1
:101630008A95E1F70E9495086E8F7F8F88A399A302
:1016400081E089838883DF91CF9108959B01BC015C
:10165000605F7F4FC9010C94620A9B01BC01695E07
:101660007F4FC9010C94620ACF92DF92EF92FF92F2
:10167000CF93DF93EC0119826C817D818E819F81F4
:101680000E94BF2028E23BE64EE65EE40E9417205F
:101690006B017C016A817B8180E090E00E94BF2029
:1016A0009B01AC01C701B6010E94AB1F2885211127
:1016B0009058DF91CF91FF90EF90DF90CF900895F9
:1016C000CF92DF92EF92FF92CF93DF93EC011982DA
:1016D0006B857C858D859E850E94BF2028E23BE638
:1016E0004EE65EE40E9417206B017C0169857A85D5
:1016F00080E090E00E94BF209B01AC01C701B601D1
:101700000E94AB1F2F8521119058DF91CF91FF9040
:10171000EF90DF90CF900895CF93DF93EB010E947D
:10172000340B9F938F937F936F9381EC93E09F9300
:101730008F93DF93CF930E94D7232DB73EB7285FB7
:101740003F4F0FB6F8943EBF0FBE2DBF8C0F9D1FAD
:10175000DF91CF910895CF93DF93EB010E94600B4F
:101760009F938F937F936F9381EC93E09F938F93DD
:10177000DF93CF930E94D7232DB73EB7285F3F4F0B
:101780000FB6F8943EBF0FBE2DBF8C0F9D1FDF918B
:10179000CF910895CF93DF93EC018E819F81A8852F
:1017A000B9858A839B83AC83BD830E9495086A8731
:1017B0007B878C879D8781E089838883DF91CF91A8
:1017C0000895CF93DF93EC018E819F81A885B98521
:1017D0008A839B83AC83BD830E9495086A877B873D
:1017E0008C879D8781E089838883DF91CF910895DD
:1017F000CF93DF93EC01CB010E94090A6E837F83B4
:1018000088879987DF91CF910895CF93DF93EC017B
:10181000CB010E94BA216E837F8388879987DF91ED
:10182000CF910895FC011182628173818481958139
:1018300024E630E040E050E00E947F1ECB01805360
:10184000984F0895CF92DF92EF92FF92FC011182A0
:10185000628173818481958124E6C22ED12CE12C92
:10186000F12CA70196010E947F1ECA01B901A701B0
:1018700096010E947F1E862FFF90EF90DF90CF9001
:101880000895FC011182628173818481958120E138
:1018900037E240E050E00E947F1E822F0895FC0155
:1018A0001182628173818481958120E432E44FE06A
:1018B00050E00E947F1E822F0895FC0111826281F8
:1018C00073818481958120E137E240E050E00E94FD
:1018D0007F1ECA01B90124E630E040E050E00E94DA
:1018E0007F1E862F0895CF92DF92EF92FF92FC0128
:1018F0001182628173818481958124E6C22ED12C6C
:10190000E12CF12CA70196010E947F1ECA01B901AA
:10191000A70196010E947F1E862FFF90EF90DF9017
:10192000CF900895FC011182628173818481958139
:1019300024E630E040E050E00E947F1E862F0895AC
:10194000CF93DF93EC018A859B85AC85BD858E8323
:101950009F83A887B9870E9495086A837B838C83BD
:101960009D8381E089838883DF91CF910895CF9310
:10197000DF93EC01CB010E94090A6A877B878C8781
:101980009D87DF91CF910895CF93DF93EC018A85F6
:101990009B85AC85BD858E839F83A887B9870E9470
:1019A00095086A837B838C839D8381E08983888308
:1019B000DF91CF910895CF93DF93EC01CB010E948B
:1019C000BA216A877B878C879D87DF91CF910895A5
:1019D000CF93DF93EC01BC0140960E94CD220E9480
:1019E000950868A379A38AA39BA381E08DA38CA308
:1019F000DF91CF91089540E150E00C94D422BF9242
:101A0000CF92DF92EF92FF920F931F93CF93DF93CA
:101A1000EC01FC01EA57FF4FB080BB2009F499C0EC
:101A2000319660810E94F709182FFE01E857FF4F99
:101A30006081CE010E94F70940E1149F800D1124BE
:101A4000FE01EB57FF4F9081891374C0B5968081DA
:101A50009181A281B3810196A11DB11D80839183E3
:101A6000A283B3838E0107561F4FD8018C91882320
:101A700061F0389780819181A281B3810196A11D87
:101A8000B11D80839183A283B383FE01EA56FF4F89
:101A900080818823C9F0813089F5CE0182960E9429
:101AA000CA0BCE01C0960E94E10BF8018081882309
:101AB00029F1CE010E94050BCE01CE960E94A00C0A
:101AC000CE01845B9F4F18C0CE01C0960E94E10BEF
:101AD000D8018C91882341F0CE010E94050BCE01E4
:101AE000865A9F4F0E94A00CCE0188599F4F0E949A
:101AF000C40CCE018A589F4F0E94A00C8E01045640
:101B00001F4FF801C081D181209709F407C1D80186
:101B1000ED91FC9166A177A18EA19FA10E94C422A4
:101B2000892B09F0FBC0CE010E94E80C0AA4DBA5BA
:101B3000C02DEACFCA55DF4F88819981AA81BB8128
:101B40000196A11DB11D88839983AA83BB83B12C03
:101B5000E5C07C01B7E9EB0EF11CF70130818A5634
:101B60009F4F6C018E0104561F4F31113EC07E0104
:101B700097E8E90EF11C66EC73E0C7010E94C422ED
:101B8000892B39F06CEC73E0C7010E94C422892BC9
:101B900011F481E012C062ED73E0C7010E94C4221B
:101BA000892B39F068ED73E0C7010E94C422892BAC
:101BB00019F4F601108203C082E0D6018C93C65658
:101BC000DF4F88819981F80191838083C081D18121
:101BD000209709F4A3C0B7018EA19FA10E94C4223F
:101BE00097FF97C08AA59BA5EECFDC01EC91E23070
:101BF00009F463C0CE0189579F4FDC012C91222349
:101C000009F45BC0B0E2EB9FF0011124E32B3197A4
:101C1000E932F10508F051C0EC5CFF4F0C94A11EB5
:101C2000BC01CE01C0960E94F80B47C0FE01E756EA
:101C3000FF4F81E0213461F52CC0BE01605F7F4F12
:101C400009C081E0233509F080E08E8B36C0BE01EB
:101C5000695E7F4F0E94620A30C081E0273509F03B
:101C600080E08D8F2AC0BC01CE01CE9624C0BC017D
:101C7000CE01845B9F4F1FC0BC01CE0182960E94A3
:101C8000050C1BC0FE01E756FF4F81E021330CF429
:101C900080E0808312C0BC01CE0188599F4F0E9412
:101CA000DB0C0BC0BC01CE018A589F4F04C0BC01A5
:101CB000CE01865A9F4F0E94B70CF801C080D18098
:101CC000C957DF4FC114D10449F1D801ED91FC91FE
:101CD00066A177A1F60186A197A10E94C422892B53
:101CE000E9F4D60198962D913C919997F70180815E
:101CF00090E08217930794F02817390721F4BE016A
:101D0000C6010E94FB0CD6019A96CD90DC909B9761
:101D1000D9CF892B19F0D8011D921C928B2DDF9100
:101D2000CF911F910F91FF90EF90DF90CF90BF90D8
:101D30000895DF92EF92FF920F931F93CF93DF935B
:101D40009C01FC01E256FF4F80819181A281B38109
:101D50000196A11DB11D80839183A283B383C90124
:101D600088569F4F7C01E901CA57DF4F643279F1F1
:101D70002CF46A3069F06D30C9F50AC06A3241F05E
:101D80006C32A1F5F901EB57FF4F808186278083E4
:101D9000D62E8901F70180818F3050F4F901E80FC8
:101DA000F11DE957FF4F1082C9010E94FF0C01C0CD
:101DB00080E0F801E956FF4F90819F5F9083F70123
:101DC000108291E0FAE2DF1290E0988327C0FC01D4
:101DD0001082F901E956FF4F1082729710827196B6
:101DE00082E0808318823396108217C0F7018081C9
:101DF0008E3048F491E0980F9083F901E80FF11DBF
:101E0000E957FF4F60838881811107C0F901EB57C3
:101E1000FF4F90816927608301C080E0DF91CF91FF
:101E20001F910F91FF90EF90DF900895AF92BF92B6
:101E3000CF92DF92EF92FF920F931F93CF93DF9396
:101E40007B015A0169018C0106561F4FF801C081C0
:101E5000D1812097A9F06EA17FA1C5010E94C42263
:101E600097FD0EC0892B29F488A599A5C816D90617
:101E70003CF08E01065D1F4F0AA4DBA5C02DE9CF03
:101E8000F701D3A7C2A7F801F182E082DF91CF91D9
:101E90001F910F91FF90EF90DF90CF90BF90AF9088
:101EA0000895CF93DF93FC01DB0110A211A212A2CF
:101EB00013A214A215A257A346A331A720A790E10D
:101EC000EF01892F19928A95E9F7BF01605F7F4F73
:101ED000EB0119929A95E9F7BF01CD01DF91CF91FE
:101EE0000C94160F0C94510F2FE789EA93E02150C0
:101EF00080409040E1F700C0000040E063E084E4EF
:101F00000E940A0887EB98E80197F1F700C00000EB
:101F100041E063E084E40E940A0887EB98E80197B7
:101F2000F1F700C0000040E063E084E40E940A088A
:101F300087EB98E80197F1F700C000008EED93E081
:101F40000C94A72341E063E084E40C940A0840E089
:101F500063E084E40C940A080E9499010E94B10194
:101F6000789408951F93CF93DF93EC01162F80EFA1
:101F700093E00E94A723CE010E94AC0F86E094E07C
:101F80000E94A72363E084E40E949B07CC57DF4FA5
:101F90001883DF91CF911F910895EF92FF920F93D5
:101FA0001F93CF93DF93EC018C0102551F4F88ECF8
:101FB0009FEAA0E0B0E0F80180839183A283B3831D
:101FC0007E01F4E8EF0EF11CF7018081811104C05D
:101FD000CE010E94740F03C0CE010E94A20FF8012F
:101FE00080819181A281B381892B8A2B8B2B79F1FE
:101FF0000E94CC01882331F00E94B801682FCE01E5
:102000000E94990E8881882351F3F80183818F9370
:1020100082818F9381818F9380818F938FE194E070
:102020009F938F930E948A230F900F900F900F9091
:102030000F900F90F7018081811104C0CE010E94A2
:10204000740F03C0CE010E94A70F81E01CC01F9235
:102050001F921F921F928EE494E09F938F930E9491
:102060008A230F900F900F900F900F900F90F70111
:102070008081811104C0CE010E94740F03C0CE0183
:102080000E94A70F80E0DF91CF911F910F91FF90E9
:10209000EF900895EF92FF920F931F93CF93DF93EA
:1020A000EC018EE794E09F938F930E948A230F9018
:1020B0000F908881882309F1CE010E94600B162FB2
:1020C000072FF82EE92ECE010E94340BEF92FF92DB
:1020D0000F931F939F938F937F936F9389E894E05F
:1020E0009F938F930E948A238DB79EB70A960FB64F
:1020F000F8949EBF0FBE8DBF04C084E994E00E9497
:10210000A7238DE994E09F938F930E948A230F90D9
:102110000F908AA1882359F18E010E5D1F4FC801CF
:102120000E94120CF82EE92EC8010E94220C1BA25C
:10213000EF92FF921F928F936CA17DA18EA19FA120
:1021400020E137E240E050E00E947F1E1F922F9373
:1021500089EA94E09F938F930E948A238DB79EB75C
:1021600008960FB6F8949EBF0FBE8DBF04C08CEBCF
:1021700094E00E94A72388A9882309F484C019AA9F
:102180006AA97BA98CA99DA920E432E44FE050E024
:102190000E947F1E2A3020F480E390E00E94A0235A
:1021A00019AA6AA97BA98CA99DA920E432E44FE071
:1021B00050E00E947F1E1F922F9386EC94E09F9325
:1021C0008F930E948A238E01005D1F4FC8010E94D9
:1021D0005D0C0F900F900F900F908A3020F480E3E9
:1021E00090E00E94A023C8010E945D0C1F928F9373
:1021F00086EC94E09F938F930E948A23C8010E94EB
:10220000730C0F900F900F900F908A3020F480E3A2
:1022100090E00E94A023C8010E94730C1F928F932C
:102220008EEA91E09F938F930E948A2319AA6AA94C
:102230007BA98CA99DA924E630E040E050E00E94F3
:102240007F1E0F900F900F900F906A3020F480E364
:1022500090E00E94A02319AA6AA97BA98CA99DA934
:1022600024E630E040E050E00E947F1E7F936F93B1
:102270008DE795E09F938F930E948A230F900F9094
:102280000F900F9004C084E994E00E94A72384EC8F
:1022900094E0DF91CF911F910F91FF90EF900C94FC
:1022A000A723FC01E255FF4F408151816281738178
:1022B000411551056105710541F041505109610910
:1022C000710940835183628373830895CF93DF93B1
:1022D000EB01FC01EA58FF4F11826681778180850E
:1022E00091850E94C1209F938F937F936F938CEC75
:1022F00094E09F938F93DF93CF930E94D7232DB7C2
:102300003EB7285F3F4F0FB6F8943EBF0FBE2DBFBC
:102310008C0F9D1FDF91CF9108956AE00E945F1E90
:1023200020E1829F900D1124892F0895982F929576
:102330009F708F702AE0929F800D11240895CF9393
:10234000C82F88E60E943B198C2F0E9455190E94C5
:10235000451961E088E60E942E19CF910C94A819C6
:10236000CF93DF93C82FD62F88E60E943B198D2F7D
:102370000E9455198C2F0E945519DF91CF910C9412
:1023800045191F93CF93DF9381E10E949F11D82FAE
:1023900082E10E949F11C82F61E18EEE0E94B01170
:1023A00062E18DED0E94B01182E10E949F11182F11
:1023B00081E10E949F111F921F931F928F9385EFBF
:1023C00094E09F938F930E948A2381E10E949F1142
:1023D0000F900F900F900F900F900F908E3E29F45A
:1023E00082E10E949F118D3D59F088E195E00E94A5
:1023F000A72381E08093AD07DF91CF911F910895CE
:1024000083E395E00E94A72381E08093AE0761E11A
:102410008D2F0E94B01162E18C2FDF91CF911F911F
:102420000C94B01162E084E40E94740762E084E4DA
:102430000E94BF07E9E6F0E0808182608083E89A2D
:10244000789408958091AE0708958091AD0708951E
:1024500081E08093AE071092AD0708951092AE0709
:1024600081E08093AD070895EF92FF920F931F9341
:10247000CF93DF93CDB7DEB729970FB6F894DEBFC1
:102480000FBECDBF88E60E943B1980E00E9455191F
:102490000E94451967E088E60E942E198E010F5FA1
:1024A0001F4F7E0188E0E80EF11C0E94A819F80178
:1024B00081938F01EE15FF05C1F70E9445198981AF
:1024C0008F770E94961190E090939D0780939C07D0
:1024D0008A810E94961190E090939F0780939E07B7
:1024E0008B810E949611082F10E01093A107009392
:1024F000A0078D810E94961190E09093A30780938E
:10250000A207FE808F2D8F710E94961190E090930C
:10251000A5078093A4078F81F7FE06C00E9496113D
:1025200090E08053984F05C00E94961190E0845926
:10253000984F9093A7078093A6078C810E949611CD
:1025400090E09093A9078093A8070115110529F43D
:102550001092AC071092AB0707C00C30110544F481
:102560001093AC070093AB0781E08093AA0708C0E3
:102570000C5011091093AC070093AB071092AA07F7
:102580008CE997E029960FB6F894DEBF0FBECDBF59
:10259000DF91CF911F910F91FF90EF9008958F924F
:1025A0009F92AF92BF92CF92DF92EF92FF920F93E2
:1025B0001F93CF93DF93CDB7DEB729970FB6F8946B
:1025C000DEBF0FBECDBF7C016B015A0188E60E94C1
:1025D0003B1980E00E9455190E94451967E088E682
:1025E0000E942E198E010F5F1F4F4E0188E0880E4A
:1025F000911C0E94A819F80181938F01E815F90533
:10260000C1F70E944519A114B10429F089810E94E3
:102610009611F5018083C114D10429F08A810E94AA
:102620009611F6018083E114F10429F08B810E9458
:102630009611F701808329960FB6F894DEBF0FBE7E
:10264000CDBFDF91CF911F910F91FF90EF90DF9061
:10265000CF90BF90AF909F908F9008951F93CF938E
:10266000DF93EC0188E60E943B1980E00E94551937
:102670008A859B85813D27E0920734F0805D9740F5
:102680009B878A8710E805C08C5697409B878A876E
:1026900010E088810E948D110E9455198A810E9444
:1026A0008D110E9455198C810E948D110E9455191F
:1026B0008C850E948D110E9455198E810E948D116A
:1026C0000E94551988850E948D11810F0E9455190D
:1026D0008A850E948D110E945519DF91CF911F911B
:1026E0000C9445191F93CF93DF93C82FD62F142F27
:1026F00088E60E943B1980E00E945519812F0E94B4
:102700008D110E9455198D2F0E948D110E9455190F
:102710008C2F0E948D110E945519DF91CF911F912E
:102720000C944519CF939091AD0791110DC0C82F0E
:1027300080E00E949F11CC2311F08F7701C0806848
:1027400060E0CF910C94B011CF9108958091AD07C6
:10275000811106C00E949F118095881F8827881FBD
:102760000895FF920F931F93CF93DF93FC01108284
:10277000FB0110822091AE07211122C0EB018C01D8
:1027800088E60E943B1981E10E9455190E94451973
:1027900062E088E60E942E190E94A219882381F027
:1027A0000E94A819F82E0E94A819F801F0828295BB
:1027B00086958695837099E1899F802D1124888361
:1027C000DF91CF911F910F91FF900895CF93DF93E9
:1027D0009091AE0791112EC0C82F88E60E943B1938
:1027E0008EE00E9455190E94451961E088E60E941A
:1027F0002E190E94A819D82F88E60E943B198EE056
:102800000E9455198D2F80620E9455190E9445190A
:10281000CC2381F088E60E943B198EE00E94551976
:102820000E94451961E088E60E942E190E94A819AD
:1028300085FDF0CFDF91CF910895CF93C82F88E623
:102840000E943B1988E08C0F0E9455190E9445197F
:1028500061E088E60E942E19CF910C94A8190F937D
:102860001F93CF938C01C0E08C2F0E941D14F801A0
:1028700081938F01CF5FC833B9F7CF911F910F912B
:102880000895CF93DF93C82FD62F88E60E943B1977
:1028900088E08D0F0E9455198C2F0E945519DF91E9
:1028A000CF910C9445190F931F93CF938C01C0E0E7
:1028B0006C2FF80181918F010E944114CF5FC833C2
:1028C000B9F7CF911F910F910895CF93C82F8091A1
:1028D000AE078823D1F088E60E943B1987E00E946A
:1028E00055190E94451961E088E60E942E190E9440
:1028F000A819CC2319F0C82FC06102C0C82FCF7E01
:1029000088E60E943B1987E01AC088E60E943B19BE
:102910008EE00E9455190E94451961E088E60E94E8
:102920002E190E94A819CC2321F0C82FCB7FC06498
:1029300002C0C82FCF7B88E60E943B198EE00E9420
:1029400055198C2F0E945519CF910C944519CF938E
:10295000DF93EC018091AE078823A9F088E60E94FE
:102960003B1987E00E9455190E94451961E088E6ED
:102970000E942E190E94A8198C7FC82B88E60E94FD
:102980003B1987E019C088E60E943B198EE00E943F
:1029900055190E94451961E088E60E942E190E948F
:1029A000A81994E0CC0FDD1F9A95E1F7877EC82B1C
:1029B00088E60E943B198EE00E9455198C2F0E94D8
:1029C0005519DF91CF910C944519CF939091AD0794
:1029D000992311F1C82F88E60E943B198FE00E94CD
:1029E00055190E94451961E088E60E942E190E943F
:1029F000A819CC2319F0C82FC86002C0C82FC77F00
:102A000088E60E943B198FE00E9455198C2F0E9486
:102A10005519CF910C944519CF9108958091AE0727
:102A2000882361F060E080E00E94411461E080E072
:102A30000E94411462E080E00C94411467E080E061
:102A40000E94B01168E080E00E94B01169E080E06F
:102A50000E94B0116AE080E00C94B0111F93CF93F4
:102A6000DF93883108F057C06C3308F054C04C3302
:102A700008F051C0142FD62FC82F8091AE0788239D
:102A800079F060E08C2F0E94411461E08D2F0E944C
:102A9000411462E0812FDF91CF911F910C9441147A
:102AA000842F0E948D1167E00E94B0118D2F0E942B
:102AB0008D1168E00E94B0118C2F0E948D1169E089
:102AC0000E94B0116AE081E80E94B0118FE00E947C
:102AD0009F116FE08E7F0E94B01188E60E943B1923
:102AE0008EE00E9455190E94451961E088E60E9417
:102AF0002E190E94A819C82F88E60E943B198EE063
:102B00000E9455198C2F81600E945519DF91CF9139
:102B10001F910C944519DF91CF911F910895FC01ED
:102B2000892B29F04081628184810C942E150895AF
:102B3000EF92FF920F931F93CF93DF93EC018B01E2
:102B40007A018091AE078823B9F0209721F080E0C8
:102B50000E941D1488830115110529F081E00E944F
:102B60001D14F8018083E114F104E9F082E00E9471
:102B70001D14F701808317C087E00E949F118F7793
:102B80000E949611F701808388E00E949F118F7741
:102B90000E949611F801808389E00E949F118F772F
:102BA0000E9496118883DF91CF911F910F91FF9022
:102BB000EF900895CF93DF9300D01F92CDB7DEB78B
:102BC000AE014F5F5F4FBE016E5F7F4FCE01039638
:102BD0000E949815ECE9F7E08B8190E0958384835F
:102BE0008A8190E093838283898190E091838083BE
:102BF000CF010F900F900F90DF91CF910895FF922A
:102C00000F931F93CF93DF9300D01F92CDB7DEB702
:102C10008091AE07882311F180E00E941D14F82EE8
:102C200081E00E941D14082F82E00E941D14182FBD
:102C3000AE014F5F5F4FBE016E5F7F4FCE010396C7
:102C40000E94CF128B81F81207C08A81081304C03A
:102C500081E09981911771F080E00CC08FE00E94B3
:102C60009F11182F117080FF04C06FE08E7F0E94AB
:102C7000B011812F0F900F900F90DF91CF911F9186
:102C80000F91FF900895CF93DF93FC01DB0186A1A4
:102C900097A127A930AD14964D915C911597821795
:102CA00093076CF028173907F4F08217930739F46B
:102CB000C4A1D5A165A976A96C177D07A4F0481712
:102CC00059071CF0421753079CF02417350791F45D
:102CD00081E012964D915C91139725A936A9421770
:102CE00053074CF007C04817590764F357FFEDCF5F
:102CF00081E001C080E0DF91CF9108950F931F9391
:102D0000CF93DF93FC01EB01DC01A85BBF4F2C816B
:102D10003D818D919C91820F931F68E170E00E942C
:102D20006B1E9C0195838483DF01AA5BBF4F0D91CD
:102D30001C918A819B81800F911F6CE370E00E943F
:102D40006B1E938382834A815B81400F511F4D33F9
:102D500051059CF001968C33910519F09383828381
:102D60000CC0138212822F5F3F4F2831310519F0BA
:102D70003583248302C015821482DF91CF911F9185
:102D80000F910895CF93DF93EC01BC016F5E7F4FED
:102D90000E947E16BE01CE010E94431640E08823A9
:102DA00061F06A818C810E942E158B818F938A81BC
:102DB0008F938D818F938C810BC06CA18EA10E940B
:102DC0002E158DA18F938CA18F938FA18F938EA1A0
:102DD0008F938DE495E09F938F930E948A230F90A9
:102DE0000F900F900F900F900F90DF91CF9108955B
:102DF00010921A08449A459AE9EBF0E080818E7FA0
:102E0000808380818D7F80838CE08093B80085E40F
:102E10008093BC0078940895880F8093BA00089539
:102E2000413258F590911A089111FCCF91E090939E
:102E30001A089FEF9093AF071092F407940F9093A6
:102E4000F307880F81608093190885EE8093BC009A
:102E500080911A088130E1F38091F407841710F40F
:102E60004091F407A5EFB7E0962FFB018E2F891B49
:102E7000841728F48D918193F9CF80E00895842FF1
:102E80000895413248F590911A089111FCCF32E033
:102E900030931A083FEF3093AF071092F407409336
:102EA000F307562FA5EFB7E0FB013E2F351B341774
:102EB00018F431913D93F9CF482F50E0440F551F3E
:102EC0004093190885EE8093BC00222339F080914D
:102ED0001A08823019F4F9CF91E011C08091AF0740
:102EE0008F3F69F08091AF07803231F08091AF075A
:102EF000803321F094E003C092E001C093E0892F79
:102F00000895613288F420911A08243079F460938E
:102F1000D107282FA3EDB7E0FC018E2F821B861767
:102F200038F481918D93F9CF81E0089582E008957E
:102F300080E0089590931608809315080895909363
:102F40001808809317080895882311F085EC01C0B4
:102F500085E88093BC00089585ED8093BC00809146
:102F6000BC0084FDFCCF10921A08089585EC809374
:102F7000BC0010921A0808951F920F920FB60F927C
:102F800011242F933F934F935F936F937F938F936E
:102F90009F93AF93BF93EF93FF938091B900887F86
:102FA000803609F495C068F5883209F45BC090F466
:102FB000803109F454C038F4882309F4EEC0883015
:102FC00009F44DC0EEC0883109F44CC0803209F4D8
:102FD0005EC0E7C0803409F469C048F4803309F466
:102FE00056C0883309F0DDC08093AF07A1C080359B
:102FF00009F450C0883509F45EC0883409F0D1C0A6
:10300000CEC0883909F4BFC0A8F4883709F460C07D
:1030100038F4883609F45CC0803709F459C0C1C05F
:10302000883809F4B0C0803909F458C0803809F0F4
:10303000B8C054C0803B09F47EC038F4803A09F42B
:103040005FC0883A09F477C0ACC0803C09F49FC0E7
:10305000883C09F49CC0883B09F482C0A2C08091DE
:10306000190811C09091F4078091F307981708F0A0
:1030700096C0E091F40781E08E0F8093F407F0E0B2
:10308000EB50F84F80818093BB0085EC7DC080932E
:10309000AF0785C0E091F40781E08E0F8093F407BD
:1030A0008091BB00F0E0EB50F84F80839091F407E3
:1030B0008091F30765C0E091F40781E08E0F809363
:1030C000F4078091BB00F0E0EB50F84F808367C0BD
:1030D00083E080931A081092B007D7CF8091B00791
:1030E000803208F050C0E091B00781E08E0F8093ED
:1030F000B0078091BB00F0E0EF54F84F8083C5CF5C
:103100008091B007803230F4E091B007F0E0EF54E6
:10311000F84F10820E94AC176091B00770E0E09108
:103120001508F091160881EB97E009951092B00709
:103130000E94B61736C084E080931A081092D20716
:103140001092D107E0911708F09118080995809125
:10315000D107811105C081E08093D1071092D30778
:10316000E091D20781E08E0F8093D207F0E0ED521C
:10317000F84F80818093BB009091D2078091D10756
:10318000981708F482CF85E88093BC000AC085ECCC
:103190008093BC0010921A0804C01092AF070E94DE
:1031A000AC17FF91EF91BF91AF919F918F917F915C
:1031B0006F915F914F913F912F910F900FBE0F90A4
:1031C0001F901895CF93DF93EC01E0911B08F091CD
:1031D0001C083097F1F090914408809143089817AB
:1031E000C0F090E0292F30E02617370754F4DE01B5
:1031F000A20FB31F4C91D901AB5BB74F4C939F5FAC
:10320000F1CF1092440860934308CB01DF91CF9136
:103210000994DF91CF910895E0911D08F0911E0867
:10322000309729F0109221081092200809940895EF
:10323000109244081092430810922108109220081E
:103240000C94F8160E940C178CE099E10E949F17CD
:1032500082EE98E10E949A170C941819462F613259
:1032600008F040E265E478E00E94101710924408EC
:1032700080934308089591E090931F08809342083B
:103280001092210810922008089521E04091200812
:1032900062E278E0809142080E9441171092210872
:1032A0001092200810921F080895CF93DF931F9269
:1032B000CDB7DEB7898380911F08882391F0809174
:1032C0002008803298F480912108E82FF0E0EE5D2C
:1032D000F74F998190838F5F809321088093200816
:1032E00005C061E0CE0101960E9481170F90DF9129
:1032F000CF9108950F931F93CF93DF9320911F08D1
:10330000222359F0EC018C01060F111DC017D107C3
:1033100051F089910E945519F9CFDF91CF911F91FA
:103320000F910C948117DF91CF911F910F91089508
:10333000FC0101900020E9F73197BF01681B790B70
:103340000C947A198091430890914408891B089540
:103350009091440880914308981748F4E92FF0E0D1
:10336000EB5BF74F80819F5F90934408089580E066
:10337000089590931C0880931B08089590931E084D
:1033800080931D080895A0E1B0E0E9ECF9E10C9408
:10339000191F7C011B016A01FC01178216828381BF
:1033A00081FF44C39E012F5F3F4F3901F701938195
:1033B000F10193FD859193FF81911F01882309F409
:1033C00031C3853239F493FD859193FF81911F01BB
:1033D000853239F4B70190E00E944E235601650111
:1033E000E5CF10E0512C912CFFE1F915D8F08B328C
:1033F00079F038F4803279F08332A1F4F92DF0615C
:103400002EC08D3261F0803369F4292D21602DC0EA
:10341000392D3260932E892D8460982E2AC0E92D93
:10342000E86015C097FC2DC020ED280F2A3088F4E5
:1034300096FE06C03AE0139F200D1124122F19C0EA
:103440008AE0589E200D1124522EE92DE0629E2E16
:1034500010C08E3231F496FCE5C2F92DF0649F2E37
:1034600008C08C3621F4292D2068922E02C088369F
:1034700041F4F10193FD859193FF81911F01811129
:10348000B3CF9BEB980F933020F4992D9061805E21
:1034900007C09BE9980F933008F066C1992D9F7E75
:1034A00096FF16E09F73992E853619F49064992E35
:1034B00008C0863621F4392F3068932E02C01111CE
:1034C000115097FE07C01C3350F444244394410E1E
:1034D00027E00BC0183038F027E017E005C027E0E0
:1034E0009CE3492E02C0212F412C560184E0A80EF6
:1034F000B11CF6016081718182819381042DA30149
:103500000E94E1216C01F981FC87F0FF02C0F3FF0A
:1035100006C091FC06C092FE06C000E205C00DE2A6
:1035200003C00BE201C000E08C858C7019F0011122
:103530005AC29BC297FE10C04C0CFC85F4FF04C01D
:103540008A81813309F44A94141474F528E024150F
:1035500078F588E0482E2CC096FC2AC0812F90E098
:103560008C159D059CF03CEFC3163FEFD30674F01D
:10357000892D8068982E0AC0E2E0F0E0EC0FFD1F74
:10358000E10FF11D8081803319F411501111F4CF36
:1035900097FE0EC044244394410E812F90E0C8163C
:1035A000D9062CF41C1904C04424439401C010E033
:1035B00097FE06C01C141D0434F4C601019605C014
:1035C00085E090E002C081E090E0011101961123B6
:1035D00031F0212F30E02F5F3F4F820F931F252DB9
:1035E00030E08217930714F4581A01C0512C892D2A
:1035F000897049F4552039F0B70180E290E00E94CB
:103600004E235A94F7CF002329F0B701802F90E082
:103610000E944E2393FC09C0552039F0B70180E386
:1036200090E00E944E235A94F7CF97FE4CC046017B
:10363000D7FE02C0812C912CC60188199909F3018B
:10364000E80FF91FFE87ED87960124193109388BA1
:103650002F87012F10E01195019511093FEF831677
:10366000930629F4B7018EE290E00E944E23C8141D
:10367000D9044CF08F8598898815990524F4ED8537
:10368000FE85818101C080E3F1E08F1A91082D85CC
:103690003E852F5F3F4F3E872D87801691062CF089
:1036A000B70190E00E944E23D9CFC814D90441F449
:1036B0009A81963320F4953319F43C8534FF81E3E5
:1036C000B70190E04EC08A81813319F09C859F7EBE
:1036D0009C87B70190E00E944E23111105C094FC15
:1036E00018C085E690E017C0B7018EE290E00E9416
:1036F0004E231E5F82E001E0080FF301E80FF11D89
:103700008081B70190E00E944E23802F0113F3CFF8
:10371000E6CF85E490E0B7010E944E23D7FC06C0B7
:10372000C114D10441F4EC85E4FF05C0D194C194E7
:10373000D1088DE201C08BE2B70190E00E944E23D8
:1037400080E32AE0C216D1042CF08F5FFAE0CF1A92
:10375000D108F7CFB70190E00E944E23B701C60110
:10376000C0960E944E2354C1833631F0833779F0DE
:10377000833509F056C020C0560132E0A30EB11CBB
:10378000F6018081898301E010E0630112C05601D7
:10379000F2E0AF0EB11CF601C080D18096FE03C0EE
:1037A000612F70E002C06FEF7FEFC6010E94E3223D
:1037B0008C01F92DFF7714C0560122E0A20EB11C36
:1037C000F601C080D18096FE03C0612F70E002C078
:1037D0006FEF7FEFC6010E94B9228C01F92DF068CE
:1037E0009F2EF3FD1AC0852D90E008171907A8F445
:1037F000B70180E290E00E944E235A94F4CFF60184
:1038000097FC859197FE81916F01B70190E00E942E
:103810004E2351105A94015011090115110579F7E1
:10382000F7C0843611F0893661F5560197FE09C05C
:1038300024E0A20EB11CF601608171818281938126
:103840000AC0F2E0AF0EB11CF60160817181072E53
:10385000000C880B990BF92DFF769F2E97FF09C05E
:1038600090958095709561957F4F8F4F9F4FF06831
:103870009F2E2AE030E0A3010E94F923C82EC6182B
:103880003FC0092D853721F40F7E2AE030E01DC0AE
:10389000097F8F3691F018F4883559F0C3C080370E
:1038A00019F0883711F0BEC0006104FF09C0046040
:1038B00007C094FE08C0066006C028E030E005C0DE
:1038C00020E130E002C020E132E0560107FF09C0EC
:1038D00084E0A80EB11CF601608171818281938120
:1038E00008C0F2E0AF0EB11CF6016081718180E08A
:1038F00090E0A3010E94F923C82EC6180F77902EDE
:1039000096FE0BC0092D0E7FC11650F494FE0AC01E
:1039100092FC08C0092D0E7E05C0DC2C092D03C0C9
:10392000DC2C01C0D12E04FF0DC0FE01EC0DF11DF9
:103930008081803311F4097E09C002FF06C0D39450
:10394000D39404C0802F867809F0D39403FD11C06E
:1039500000FF06C01C2DD51480F4150D1D190DC0D7
:10396000D51458F4B70180E290E00E944E23D3941E
:10397000F7CFD51410F45D1801C0512C04FF10C00E
:10398000B70180E390E00E944E2302FF17C001FDC3
:1039900003C088E790E002C088E590E0B7010CC062
:1039A000802F867859F001FF02C08BE201C080E2CF
:1039B00007FD8DE2B70190E00E944E23C11638F456
:1039C000B70180E390E00E944E231150F7CFCA94D4
:1039D000F301EC0DF11D8081B70190E00E944E23B0
:1039E000C110F5CF15C0F4E0F51560F584E0581A64
:1039F00093FE1FC0011127C02C8523FF2AC00AEBAC
:103A000010E0392D3071932EF8018491811124C07A
:103A1000552009F4E4CCB70180E290E00E944E23E7
:103A20005A94F6CFF7018681978126C08FEF9FEFDA
:103A300023C0B70180E290E00E944E235A945110B7
:103A4000F8CFD8CF512CB701802F90E00E944E23A1
:103A5000D3CF0EEB10E0D5CF91108052B70190E09C
:103A60000E944E230F5F1F4FCFCF23E0251510F488
:103A700083E0BDCF512CC0CF6096E2E10C94351F9E
:103A80000E94CB0885EE91E00E94A72389EF91E088
:103A90000E94A7230E94181986E192E00E94A723A2
:103AA0000E94C1118BE292E00E94A72360E086EBA6
:103AB00095E00E94B20F8BE392E00E94A7230E9440
:103AC000130705E812E0EE24E394CAE5D3E00E9470
:103AD000181987E592E00E94A7230E94121281E73D
:103AE00092E00E94A7234EED56E060EE76E082EE73
:103AF00096E00E94CF128091DF068F938091DE06C0
:103B00008F938091E1068F938091E0068F9380914F
:103B1000E3068F938091E2068F931F930F930E9489
:103B20008A238DB79EB708960FB6F8949EBF0FBE36
:103B30008DBF8091E2069091E306892B91F48091EC
:103B4000E0069091E106892B61F48091DE06909168
:103B5000DF06892B31F487EA92E00E94A7231092B6
:103B6000680680916806811104C08BEB92E00E9488
:103B7000A7230E94440886EB95E00E94CD0F86EBB8
:103B800095E00E944A1080916806811120C081EE64
:103B900092E00E94A7238091E6058823C1F08DE280
:103BA00093E00E94A72386EE95E00E94730CD82E26
:103BB00086EE95E00E945D0CF82E86EE95E00E9460
:103BC0004F0C4D2D6F2D0E947213E092680689E60E
:103BD00096E00E945B06F82E0E94350680E00E9467
:103BE00069046F2D89E696E00E94FA020E94E402C1
:103BF0000E944E038DEC96E00E94C2164EED56E0F8
:103C000060EE76E082EE96E00E94CF128091DF06B1
:103C10008F938091DE068F938091E1068F93809140
:103C2000E0068F938091E3068F938091E2068F9355
:103C3000DF93CF930E948A230E945A0881E893E081
:103C40000E94A7230E940D098DB79EB708960FB654
:103C5000F8949EBF0FBE8DBF3ACF10928C07109282
:103C60008B0710928E0710928D0781E080938F074B
:103C7000109290071092910710929207109293075A
:103C800086EB95E00C945D0960E070E086EE98E0CC
:103C90000E94032390939B0780939A070895DB016A
:103CA0008F939F930E94A71EBF91AF91A29F800DFB
:103CB000911DA39F900DB29F900D11240895991B03
:103CC00079E004C0991F961708F0961B881F7A9513
:103CD000C9F78095089597FB072E16F4009407D036
:103CE00077FD09D00E94871F07FC05D03EF4909510
:103CF00081959F4F0895709561957F4F0895A1E23A
:103D00001A2EAA1BBB1BFD010DC0AA1FBB1FEE1F55
:103D1000FF1FA217B307E407F50720F0A21BB30BA0
:103D2000E40BF50B661F771F881F991F1A9469F71C
:103D300060957095809590959B01AC01BD01CF0178
:103D40000895EE0FFF1F0590F491E02D09940E9455
:103D50009B1FA59F900DB49F900DA49F800D911D5A
:103D600011240895B7FF0C94A71E0E94A71E821B62
:103D7000930B0895689401C0E8948F929F92CF931B
:103D8000DF930E94C81EDF91CF919F908F9008957E
:103D900088249924F401E401B0E49F93AA279A159A
:103DA0008B049C04ED05FE05CF05D007A10798F410
:103DB000AD2FDC2FCF2FFE2FE92D982C892E982F99
:103DC000872F762F652F542F432F322F2227B8505D
:103DD00031F7BF9127C01B2EBF91BB27220F331F86
:103DE000441F551F661F771F881F991F881C991C29
:103DF000EE1FFF1FCC1FDD1FAA1FBB1F8A149B04D1
:103E0000EC05FD05CE05DF05A007B10748F08A18CF
:103E10009B08EC09FD09CE09DF09A00BB10B21605D
:103E20001A94E1F62EF49401AF01BE01CD01000C0D
:103E300008952F923F924F925F926F927F928F924E
:103E40009F92AF92BF92CF92DF92EF92FF920F9329
:103E50001F93CF93DF93CDB7DEB7CA1BDB0B0FB633
:103E6000F894DEBF0FBECDBF09942A8839884888F0
:103E70005F846E847D848C849B84AA84B984C88486
:103E8000DF80EE80FD800C811B81AA81B981CE0F7D
:103E9000D11D0FB6F894DEBF0FBECDBFED01089562
:103EA0000F93083090F0982F872F762F652F542F7F
:103EB000432F322F22270850F4CF220F331F441FE5
:103EC000551F661F771F881F991F0A95B2F70F911C
:103ED000089597FB10F8169400080F93083098F097
:103EE0000850232F342F452F562F672F782F892FD7
:103EF000902DF4CF0594979587957795679557956D
:103F00004795379527950A95AAF70F910895AA1B0B
:103F1000BB1B51E107C0AA1FBB1FA617B70710F0B4
:103F2000A61BB70B881F991F5A95A9F780959095E6
:103F3000BC01CD010895A29FB001B39FC001A39F12
:103F4000700D811D1124911DB29F700D811D1124D2
:103F5000911D08955058BB27AA270E94C21F0C9498
:103F600013210E94052138F00E940C2120F039F421
:103F70009F3F19F426F40C9402210EF4E095E7FB20
:103F80000C94FC20E92F0E94242158F3BA176207F1
:103F900073078407950720F079F4A6F50C94462161
:103FA0000EF4E0950B2EBA2FA02D0B01B901900154
:103FB0000C01CA01A0011124FF27591B99F0593F98
:103FC00050F4503E68F11A16F040A22F232F342FE0
:103FD0004427585FF3CF469537952795A795F0402E
:103FE0005395C9F77EF41F16BA0B620B730B840B43
:103FF000BAF09150A1F0FF0FBB1F661F771F881FFB
:10400000C2F70EC0BA0F621F731F841F48F4879552
:1040100077956795B795F7959E3F08F0B0CF939544
:10402000880F08F09927EE0F9795879508950E94BD
:104030002B200C9413210E940C2158F00E94052182
:1040400040F029F45F3F29F00C94FC2051110C94AE
:1040500047210C9402210E94242168F39923B1F393
:10406000552391F3951B550BBB27AA27621773079E
:10407000840738F09F5F5F4F220F331F441FAA1F32
:10408000A9F335D00E2E3AF0E0E832D091505040EE
:10409000E695001CCAF72BD0FE2F29D0660F771F9C
:1040A000881FBB1F261737074807AB07B0E809F082
:1040B000BB0B802DBF01FF2793585F4F3AF09E3F07
:1040C000510578F00C94FC200C9447215F3FE4F3F9
:1040D000983ED4F3869577956795B795F7959F5F4A
:1040E000C9F7880F911D9695879597F90895E1E096
:1040F000660F771F881FBB1F621773078407BA07F5
:1041000020F0621B730B840BBA0BEE1F88F7E0954F
:1041100008950E9490206894B1110C94472108954D
:104120000E942C2188F09F5798F0B92F9927B751FA
:10413000B0F0E1F0660F771F881F991F1AF0BA954B
:10414000C9F714C0B13091F00E944621B1E0089542
:104150000C944621672F782F8827B85F39F0B93F34
:10416000CCF3869577956795B395D9F73EF49095FE
:104170008095709561957F4F8F4F9F4F0895E8947C
:1041800009C097FB3EF490958095709561957F4F9F
:104190008F4F9F4F9923A9F0F92F96E9BB2793954D
:1041A000F695879577956795B795F111F8CFFAF45D
:1041B000BB0F11F460FF1BC06F5F7F4F8F4F9F4F8E
:1041C00016C0882311F096E911C0772321F09EE8EC
:1041D000872F762F05C0662371F096E8862F70E052
:1041E00060E02AF09A95660F771F881FDAF7880F2C
:1041F0009695879597F9089597F99F6780E870E0FD
:1042000060E008959FEF80EC089500240A9416164C
:10421000170618060906089500240A9412161306B4
:10422000140605060895092E0394000C11F4882342
:1042300052F0BB0F40F4BF2B11F460FF04C06F5F5E
:104240007F4F8F4F9F4F089557FD9058440F551F34
:1042500059F05F3F71F04795880F97FB991F61F008
:104260009F3F79F087950895121613061406551F7F
:10427000F2CF4695F1DF08C0161617061806991FEB
:10428000F1CF86957105610508940895E894BB27E0
:1042900066277727CB0197F908950E9460210C9437
:1042A00013210E94052138F00E940C2120F0952353
:1042B00011F00C94FC200C94022111240C94472141
:1042C0000E94242170F3959FC1F3950F50E0551F74
:1042D000629FF001729FBB27F00DB11D639FAA275B
:1042E000F00DB11DAA1F649F6627B00DA11D661FAA
:1042F000829F2227B00DA11D621F739FB00DA11DCB
:10430000621F839FA00D611D221F749F3327A00D84
:10431000611D231F849F600D211D822F762F6A2F20
:1043200011249F5750409AF0F1F088234AF0EE0F85
:10433000FF1FBB1F661F771F881F91505040A9F7B2
:104340009E3F510580F00C94FC200C9447215F3F68
:10435000E4F3983ED4F3869577956795B795F795EE
:10436000E7959F5FC1F7FE2B880F911D9695879566
:1043700097F908951F93FC0199278827BC01E894B9
:1043800011911032E9F3193010F01E30C8F31B32CE
:1043900051F01D3249F4689406C00E94EE22610F6C
:1043A000711D811D911D119110531A30B0F33EF40F
:1043B00090958095709561957F4F8F4F9F4F1F917E
:1043C0000895283008F027E03327DA01990F311DCE
:1043D00087FD916000966105710539F432602E5FAA
:1043E0003D9330E32A95E1F708959F3F30F0803800
:1043F0007105610509F03C5F3C5F3D93913008F029
:104400008068911DDF93CF931F930F93FF92EF92DC
:10441000192F987F9695E92F96959695E90FFF2786
:10442000E45EFE4F99273327EE24FF24A701E7011E
:1044300005900894079428F4360FE71EF81E491FCC
:10444000511D660F771F881F991F0694A1F70590CD
:10445000079428F4E70EF81E491F561FC11D770F59
:10446000881F991F661F0694A1F70590079428F4EA
:10447000F80E491F561FC71FD11D880F991F661FB1
:10448000771F0694A1F70590079420F4490F561F53
:10449000C71FD81F990F661F771F881F0694A9F79B
:1044A00084911095177041F0D695C795579547950B
:1044B000F794E7941A95C1F7E2ECF0E06894159050
:1044C000159135916591959105907FE27395E1186D
:1044D000F10A430B560BC90BD009C0F7E10CF11ED2
:1044E000431F561FC91FD01D7EF4703311F48A95E7
:1044F000E6CFE894015030F0080F0AF400270217C5
:1045000008F4202F2395022F7A3328F079E37D9346
:104510002A95E9F710C07D932A9589F60694979518
:104520006795379517951794E118F10A430B560BC9
:10453000C90BD00998F023957E9173957A3308F0D2
:1045400070E37C932013B8F77E9170617D9330F017
:10455000839571E37D9370E32A95E1F71124EF9041
:10456000FF900F911F91CF91DF91992787FD909533
:104570000895FC010590615070400110D8F78095B6
:1045800090958E0F9F1F0895FB01DC018D91019086
:1045900080190110D9F3990B0895FB01DC010190FA
:1045A0000D920020E1F70895FB01DC0141505040DD
:1045B00048F001900D920020C9F701C01D924150B2
:1045C0005040E0F70895FC016150704001900110E7
:1045D000D8F7809590958E0F9F1F0895592F482FDB
:1045E000372F262F660F771F881F991F660F771F9B
:1045F000881F991F620F731F841F951F660F771FF7
:10460000881F991F08950F931F93CF93DF930097EF
:1046100031F46115710519F480E090E03AC08B0126
:10462000EC016EE070E081E090E00E945724FC0114
:10463000892B91F380E883830115110571F01387AD
:10464000028781E883838091650890916608892BB1
:1046500021F4F0936608E09365082097C9F0D187AC
:10466000C087838182608383809167089091680806
:10467000892B71F4F0936808E093670880916908CA
:1046800090916A08892B21F4F0936A08E0936908F5
:10469000CF01DF91CF911F910F9108950F931F9339
:1046A000CF93DF93FB01238121FD03C08FEF9FEFA9
:1046B0002CC022FF16C046815781248135814217C4
:1046C000530744F4A081B1819D012F5F3F4F318397
:1046D00020838C93268137812F5F3F4F378326833A
:1046E00014C08B01EC01FB010084F185E02D0995DC
:1046F000892BE1F6D80116968D919C91179701961A
:1047000017969C938E931697CE01DF91CF911F91B0
:104710000F910895A0E0B0E0E0E9F3E20C94291FC6
:10472000AE014B5F5F4FFA0161917191AF018091D2
:104730006708909168080E94C319E2E00C94451F35
:1047400060916708709168080E944E2308950F9346
:104750001F93CF93DF93E0916708F091680823815E
:1047600021FF1BC08C01D0E0C0E0F80181918F01D6
:104770006091670870916808DB011896ED91FC91D3
:104780001997882331F00995892B79F3DFEFCFEF63
:10479000ECCF8AE00995892B19F08FEF9FEF02C0CB
:1047A0008D2F9C2FDF91CF911F910F910895AEE037
:1047B000B0E0EDEDF3E20C94271F0D891E8986E031
:1047C0008C831A8309838FEF9FE79E838D83AE01CD
:1047D000475E5F4F6F89788DCE0101960E94C319A5
:1047E000EF81F885E00FF11F10822E96E4E00C9423
:1047F000431FFA01AA27283051F1203181F1E894B2
:104800006F936E7F6E5F7F4F8F4F9F4FAF4FB1E0C3
:104810003ED0B4E03CD0670F781F891F9A1FA11DBE
:10482000680F791F8A1F911DA11D6A0F711D811DBF
:10483000911DA11D20D009F468943F912AE0269F84
:1048400011243019305D3193DEF6CF010895462FE3
:104850004770405D4193B3E00FD0C9F7F6CF462FC4
:104860004F70405D4A3318F0495D31FD405241932D
:1048700002D0A9F7EACFB4E0A695979587957795EA
:104880006795BA95C9F700976105710508959B0171
:10489000AC010A2E06945795479537952795BA95FA
:1048A000C9F7620F731F841F951FA01D08950F93F2
:1048B0001F93CF93DF93869F8001879F100D969F54
:1048C000100D1124C8010E947324EC01009729F0F7
:1048D000A80160E070E00E949425CE01DF91CF91A5
:1048E0001F910F9108950F931F93CF93DF93823001
:1048F000910510F482E090E0E0916D08F0916E086F
:1049000020E030E0A0E0B0E0309719F14081518123
:104910000281138148175907C8F08417950769F475
:10492000109731F012960C93129713961C9327C090
:1049300000936D0810936E0822C02115310519F0FF
:104940004217530718F49A01BD01EF01DF01F80186
:10495000DBCF21153105F9F0281B390B2430310547
:1049600080F48A819B816115710521F0FB0193839D
:10497000828304C090936E0880936D08FE01329686
:1049800044C0FE01E20FF31F81939193225031093D
:10499000398328833AC020916B0830916C08232B0F
:1049A00041F4209103013091040130936C0820936D
:1049B0006B0820910101309102012115310541F46C
:1049C0002DB73EB74091050150910601241B350BD0
:1049D000E0916B08F0916C08E217F307A0F42E1B2E
:1049E0003F0B2817390778F0AC014E5F5F4F241753
:1049F000350748F04E0F5F1F50936C0840936B08CB
:104A00008193919302C0E0E0F0E0CF01DF91CF917C
:104A10001F910F910895CF93DF93009709F481C000
:104A2000FC01329713821282A0916D08B0916E083A
:104A3000109781F420813181820F931F20916B08A0
:104A400030916C082817390751F5F0936C08E09302
:104A50006B0867C0ED0120E030E0CE17DF0740F4BF
:104A60004A815B819E0141155105F1F0EA01F5CFC4
:104A7000D383C28340815181840F951FC817D90702
:104A800059F488819981840F951F029691838083C0
:104A90008A819B81938382832115310529F4F093C8
:104AA0006E08E0936D083DC0E901FB83EA834991FC
:104AB0005991C40FD51FEC17FD0761F480819181D6
:104AC000840F951F0296E9019983888382819381DF
:104AD0009B838A83E0E0F0E012968D919C9113977E
:104AE000009719F0FD01DC01F7CF8D919C91119792
:104AF0009D012E5F3F4F820F931F20916B083091D5
:104B00006C082817390769F4309729F410926E0859
:104B100010926D0802C013821282B0936C08A093A9
:104B20006B08DF91CF910895DC0101C06D93415076
:0A4B30005040E0F70895F894FFCF1D
:104B3A000100006F082000781E00A02800F03C0049
:104B4A00405100127A00E4A20024F40048E80190DF
:104B5A00D00320A107D104D304D804D704D904DB95
:104B6A0004DC04DF04E304E504E604E904F304EDE9
:104B7A0004F204F1044265666F726520726561642D
:104B8A0020726567697374657220696E204C6F5272
:104B9A006120426567696E0D005265616420566541
:104BAA007273696F6E3A2025640D0A00537461723C
:104BBA0074696E67204C6F5261206661696C656426
:104BCA00210D002E2E0D004C6F526120496E697422
:104BDA00205375636365737366756C6C0D00256489
:104BEA0000256C75004E4F5F4C4F43005061636B5C
:104BFA0065742067656E6572617465643A20257311
:104C0A00200D0A00506B74204C656E6774683A2058
:104C1A0025640D0A00456E746572696E67206D61C0
:104C2A00696E206C6F6F700D002D2D2D2D2D2D2D81
:104C3A002054616D6120436F6C6C6172202D2D2DA3
:104C4A002D2D2D2D0D004D61696E3A2054574920A6
:104C5A00496E697420446F6E650D004D61696E3A44
:104C6A002052544320496E69740D004D61696E3AB1
:104C7A002047505320496E69742054616D61204366
:104C8A006F6C6C61720D005254432D3E496E69740B
:104C9A003A2054574920496E697420446F6E650D55
:104CAA00004D61696E3A2052544320457874204978
:104CBA006E69740D004D61696E3A2057616B6575B6
:104CCA00702054696D653A202564203A20256420B5
:104CDA003A2025640D0A004D61696E3A2054696DC7
:104CEA0065206E6F74207365740D004D61696E3AAC
:104CFA002057616974696E6720666F722074696DE6
:104D0A00652066726F6D204C6F526120506B740D76
:104D1A00004D61696E3A2053657474696E67207438
:104D2A00696D652066726F6D204C6F5261206661F5
:104D3A00696C656420736F20636865636B696E676D
:104D4A002069662069742063616E20626520646F41
:104D5A006E652066726F6D204750530D004D616974
:104D6A006E3A2056616C69642074696D65206176BB
:104D7A0061696C61626C6520696E204750532C2012
:104D8A0073657474696E672E0D004D61696E3A2001
:104D9A00536C6565702054696D653A202564203A24
:104DAA00202564203A2025640D0A0D0A0D0A0D0AF1
:104DBA00004D61696E3A20476F696E6720746F20F3
:104DCA00736C656570206E6F77200D00496E73698C
:104DDA0064652066756E6374696F6E20476F696ECD
:104DEA006720746F20736C656570206E6F77200D75
:104DFA0000252E3666004750524D4300474E524D0D
:104E0A004300475047474100474E474741004750F4
:104E1A00532050756C736520476976656E200D00C6
:104E2A004750532D3E496E69743A205541525420D9
:104E3A00496E69740D004750532D3E496E69743AA4
:104E4A002050696E204D6F6465207365740D0047AC
:104E5A0050532D3E48616E646C65723A20526574F7
:104E6A0075726E205472756520696E206D532054D8
:104E7A00696D65722061743A2025640D0A004750F5
:104E8A00532D3E48616E646C65723A2052657475A2
:104E9A00726E20466C61736520696E206D532054D2
:104EAA00696D65722061743A2025640D0A004C6FA1
:104EBA00636174696F6E3A20002566202C2025668E
:104ECA00200D0A00494E56414C49440D0044617474
:104EDA00652F54696D653A20002564202F202564CA
:104EEA00202F2025642020202D202000494E5641C5
:104EFA004C4944200D002564203A2000252E3266B4
:104F0A00004E004E4E4500454E4500455345005360
:104F1A0053450053005353570057535700574E57A2
:104F2A00004E4E57007274635F696E69743A20527C
:104F3A00656164207265676973746572733A2025C6
:104F4A0064202C25640D0A007274635F696E6974AB
:104F5A003A2044657465637465642044533332337C
:104F6A00310D007274635F696E69743A2044657426
:104F7A006563746564204F746865720D00736368B5
:104F8A006564756C652D3E616C61726D48616E6415
:104F9A006C65723A2053657474696E6720616C613E
:104FAA00726D20666F723A202564202F2025640DC9
:024FBA000A00EB
:00000001FF
