:100000000C94B7000C9445090C94DF000C94DF00AD
:100010000C94DF000C94DF000C94DF000C94770844
:100020000C94DF000C94DF000C94DF000C94DF00D4
:100030000C94DF000C94DF000C94E1000C94DF00C2
:100040000C94DF000C94DF000C94C6080C94DF00C5
:100050000C94DF000C94DF000C94DF000C94DF00A4
:100060000C946F190C94DF006E616E00696E66006F
:1000700000407A10F35A00A0724E18090010A5D45F
:10008000E80000E87648170000E40B54020000CABC
:100090009A3B000000E1F505000080969800000002
:1000A00040420F000000A086010000001027000061
:1000B0000000E803000000006400000000000A00E7
:1000C000000000000100000000002C76D888DC67EA
:1000D0004F0823DFC1DFAE59E1B1B796E5E3E45342
:1000E000C63AE651997696E8E6C28426EB898C9B5F
:1000F00062ED407C6FFCEFBC9C9F40F2BAA56FA5FF
:10010000F490055A2AF75C936B6CF9676DC11BFC80
:10011000E0E40D47FEF520E6B500D0ED902E03009B
:10012000943577050080841E080000204E0A0000E8
:1001300000C80C333333330F986E12831141EF8DA7
:100140002114893BE65516CFFEE6DB18D1844B38E7
:100150001BF77C1D901DA4BBE424203284725E2218
:100160008100C9F124ECA1E53D27A22BB62B112477
:100170001FBECFEFD8E0DEBFCDBF14E0A0E0B1E0FE
:10018000EAEDF6E602C005900D92A83DB107D9F759
:1001900027E0A8EDB4E001C01D92A93BB207E1F74A
:1001A00010E0C7EBD0E004C02197FE010E94272C8D
:1001B000C53BD107C9F70E9486290C9442330C94A1
:1001C00000001F921FB61F9211248F939F93EF93ED
:1001D000FF938091E104813019F59091E0048FEF55
:1001E000890F9130D9F48091DD049091DE0480FF75
:1001F00043C0289A8091DD049091DE0496958795FE
:100200009093DE048093DD048091DF04815080931D
:10021000DF04811102C01092E10483E08093E004C6
:100220008091E304811120C08091DC04882331F1A6
:100230008091DA0481508093DA04811115C0109204
:10024000DC041092E204E091E504F0E08091D8042F
:10025000EA51FB4F80838091E5048F5F8093E50432
:10026000803210F01092E504FF91EF919F918F91F1
:100270001F901FBE1F9018952898BCCF8091E20454
:10028000811110C01999F0CF81E08093E20410929F
:10029000D80494E09093DA0498E09093D904809382
:1002A000DB04E2CF9091DA048FEF890F9130B9F43B
:1002B0008091DB04199B05C09091D804982B9093F2
:1002C000D804880F8093DB048091D90481508093F7
:1002D000D904811103C081E08093DC0483E0809322
:1002E000DA04C2CF1092E1041092E2041092E30407
:1002F000289A209A21989FB7F89481E287BD82E0DE
:1003000084BD85BDEEE6F0E080818260808316BC0E
:100310009FBF08951092E304089581E08093E30461
:1003200008959091E4048091E5049817E1F3E92F92
:10033000F0E0EA51FB4F80819F5F903218F4909378
:10034000E40408951092E40408959091E50481E096
:100350002091E404291301C080E008951092E5047F
:100360001092E40408959091E10481E0913009F045
:1003700080E008959091E1049130E1F393E090934F
:10038000E0049AE09093DF04880F990B92609093B9
:10039000DE048093DD0481E08093E1040895CF932F
:1003A000DF93EC018991882319F00E94BA01FACFFA
:1003B000DF91CF910895CF93DF93EC01FE018491FB
:1003C0002196882319F00E94BA01F8CFDF91CF91CE
:1003D0000895CF93DF93D82FC62F60E083E40E9467
:1003E000FF078D2F0E94E7058C2F0E94E705C82F7D
:1003F00060E083E40E94DB078C2FDF91CF910895AA
:1004000060E08F770C94E9018AE10E94000240913C
:1004100008055091090560910A0570910B05411579
:10042000514A6C4B734318F09DE9891B089594EA77
:10043000FCCF89E10E94000285958595089583E1AE
:100440000E94000290910705891B08950E941F02D7
:10045000882341F0809107058F5F8093070580E036
:100460000C9400028FEF08958EE10E9400028295A5
:100470008F700895CF93DF9300D000D0CDB7DEB753
:100480008DE10E94000290E09C0144E035952795A3
:100490004A95E1F7803A9105E0F4F901EE0FFF1F6C
:1004A000E20FF31FE95FFE4F80819181A2819C01E1
:1004B0004A2F50E029833A834B835C8369817A8198
:1004C0008B819C810F900F900F900F90DF91CF91B7
:1004D000089580E291EAA7E0B0E089839A83AB8334
:1004E000BC83ECCFCF92DF92EF92FF920F931F93DA
:1004F000CF93DF9300D000D000D0CDB7DEB788E235
:100500000E940002877090E0B0E0A0E0CC24D82EDA
:10051000E92EFA2E89E20E940002C80ED11CE11CCD
:10052000F11CFE2CED2CDC2CCC248AE20E94000273
:10053000C80ED11CE11CF11C88E20E94000283FF5E
:1005400003C088E0E81AF1080E943A028B018E830A
:100550009D83C701B6010E94732E20E030E040E881
:100560005BE469837A838B839C8369817A818B8145
:100570009C810E94FF2E20E034E244EF5BE469831B
:100580007A838B839C8369817A818B819C810E9491
:10059000C92D6B017C01B8018E819D810E94712E55
:1005A00020E034E244EF58E469837A838B839C83B0
:1005B00069817A818B819C810E94C92D9B01AC014C
:1005C000C982DA82EB82FC8269817A818B819C818B
:1005D0000E94FF2E69837A838B839C8369817A8151
:1005E0008B819C810E943B2E26960FB6F894DEBF2D
:1005F0000FBECDBFDF91CF911F910F91FF90EF9074
:10060000DF90CF90089580680C94E90163E881E859
:100610000E94E90182E10E94000283FD07C08FE190
:100620009EE40197F1F700C00000F4CF68E082E992
:100630000E94E90181E00895DF92EF92FF920F930B
:100640001F93CF93DF93F82EE92EC62F82E20E94EC
:100650000002D82F2C2F280F3327331F2F3F3105AF
:1006600019F010F0CD2FC095DF2C0F2D1E2D802FEF
:100670008D198C1738F4F80161918F0180E80E9480
:10068000E901F5CF6D2F6C0F82EA0E94E9018C2FF2
:10069000DF91CF911F910F91FF90EF90DF90089520
:1006A000CF93DF930E941F02882381F08DE00E9488
:1006B0000002D82F80E00E940002C82F6D2F8DE825
:1006C0000E94E9018C2FDF91CF9108958FEFFBCF2E
:1006D00061E881E80C94E90160E881E80C94E901A3
:1006E0000C946C03682F823108F061E1623008F4E9
:1006F00062E06250606889E80C94E901AF92BF92B1
:10070000CF92DF92EF92FF920F931F93CF93DF93DD
:10071000382F292FCB01A32FB22F80930805909358
:100720000905A0930A05B0930B059B01AD0160E09C
:1007300070E080E090E003E10E94172DA12CE8E436
:10074000BE2EF8EECF2EDD24D394E12CF12C00E068
:1007500010E00E94732CC22FB32E6A017B01182F68
:10076000D92F00E10E94322D622F86E80E94E90114
:100770002C2F3B2DA601B701812F9D2F08E00E9451
:10078000322D622F87E80E94E9016C2F88E8DF9103
:10079000CF911F910F91FF90EF90DF90CF90BF907E
:1007A000AF900C94E9010F931F93CF93DF938B01CC
:1007B000D82FC92F60E083E40E94B70760E083E48C
:1007C0000E94DB0761E083E40E94B70761E083E4F5
:1007D0000E94FF078FE19EE40197F1F700C000003F
:1007E00061E083E40E94DB078FE19EE40197F1F76B
:1007F00000C0000082E40E940002823131F50E94B4
:100800006C03B8018D2F9C2F0E947E0360E08EE860
:100810000E94E90160E08FE80E94E9018CE00E94FB
:100820000002682F63608CE80E94E90164E086EAB8
:100830000E94E90184E10E9472030E94680381E042
:10084000DF91CF911F910F91089580E0F9CFCF9361
:10085000C82F893008F0C8E08DE10E9400026C2F9B
:10086000C53008F465E06450770B660F771F817F11
:10087000682B8DE9CF910C94E901CF93C82F692F94
:1008800080EA0E94E9016C2F81EACF910C94E90182
:10089000682F89EB0C94E9018EE10E940002682F19
:1008A00064608EE90C94E9018EE10E940002682FD9
:1008B0006B7F8EE90C94E901109206058DE10E9490
:1008C0000002682F6E7F8DE90C94E90181E080932E
:1008D00006058DE10E940002682F61608DE90C948D
:1008E000E901CF93C82F0E946803CC2369F00E94CE
:1008F000660460E08DE80E94E90160E082EA0E94FF
:10090000E90181E0CF9108950E945C04F2CFCF937A
:10091000DF93D82F82E10E940002C82FDD2329F146
:100920000E9466046D2F82EA0E94E9016C2F82E921
:100930000E94E901C6FF1EC0C5FD1CC0109207053C
:10094000809106058823A1F082E20E940002C82F50
:1009500080E10E940002682F8DE80E94E9010E9458
:1009600068038C2FDF91CF9108950E945C04DECF45
:1009700083E1EBCF81E00E940002863841F060E025
:100980008DE80E94E90166E881E80E94E901C0E083
:10099000E8CFCF93DF93EC011816190664F40E9498
:1009A00066046C2F82EA0E94E90165E881E8DF9124
:1009B000CF910C94E9010E945C04F7CFCF92DF92B3
:1009C000EF92FF92CF93DF930E943A026B017C017A
:1009D0000E943402D82F86E20E940002C82FA7018D
:1009E000960104C05695479537952795DA95D2F725
:1009F00068EE73E080E090E00E94052C6C2F2131BE
:100A000031054105510550F0686086EADF91CF91CC
:100A1000FF90EF90DF90CF900C94E901677FF5CFC6
:100A2000CF93C82F863020F08D30D0F48630C9F4B3
:100A300065EC81EB0E94E9016CE087EB0E94E90123
:100A4000C6E08EE10E9400028F7090E1C99FB00164
:100A50001124682B8EE90E94E901CF910C94DE04E9
:100A6000CCE063EC81EB0E94E9016AE087EB0E9435
:100A7000E901E7CFCF93462F572FBC01C0E049379C
:100A80008EE1580761057105C8F1C1E0413A98E26D
:100A900059076105710590F1C2E0413F8CE35807A9
:100AA0006105710558F1C3E0413491E559076105CD
:100AB000710520F1C4E043318AE7580761057105EB
:100AC000E8F0C5E0453E92EA590761057105B0F0CE
:100AD000C6E0453284EF58076105710578F0C7E03C
:100AE000493498EE590791E06907710538F0C9E07B
:100AF0004139504D6340710508F4C8E08DE10E9412
:100B000000028F7090E1C99FB0011124682B8DE91C
:100B10000E94E901CF910C94DE040F9362E082E41D
:100B20000E94B70762E082E40E94FF0700E020E035
:100B300040E061E080E00E94C80560EC7AEC89E862
:100B400096E30E94D303811105C085E491E00E94E1
:100B50004A31FFCF62E17AE780E090E00F910C9498
:100B60003A051F93CF93DF93D82FC92F162F0E94DA
:100B70008D0580E00E947104612F8D2F9C2F0E94B3
:100B80001C030E940603DF91CF911F910C946C030C
:100B90000F9394B1986294B924982C9A30E2839F71
:100BA000C001112480722370822B94E0499FA00120
:100BB00011244C70842B30E1639FB00111246071CB
:100BC000862B80648CBD01700DBD0F9108958EBD84
:100BD0000DB407FEFDCF8EB50895AF92BF92CF92B0
:100BE000DF92EF92FF920F931F93CF93DF93EC016D
:100BF000B62EAA24A39488E8C82E83E1D82EE12C2F
:100C0000F12C02E310E08DA99EA92BA93CA928177D
:100C10003907C1F12CAD222321F02130B1F01CAEF7
:100C20000BC08C0F9D1FFC0181818B3729F4ACAE6A
:100C3000C8AED9AEEAAEFBAE8DA99EA90196B801A9
:100C40000E94F12B9EAB8DABDECF8C0F9D1FFC0164
:100C5000618180E296E06D3741F40E9405206B2DA2
:100C600080E296E00E94691BDACF0E940520811184
:100C7000D6CF88AD99ADAAADBBAD892B8A2B8B2B76
:100C800071F2DACFDF91CF911F910F91FF90EF902A
:100C9000DF90CF90BF90AF900895FC0187A9882383
:100CA00079F080AD91ADA2ADB3AD0097A105B105CE
:100CB00039F00197A109B10980AF91AFA2AFB3AFED
:100CC0000895CF93DF93CDB7DEB761970FB6F89451
:100CD000DEBF0FBECDBFEFE0F5E086A197A19E83FA
:100CE0008D8384A195A19C838B8382A193A19A83F8
:100CF00089838EE090E098878F8381E090E09A87E7
:100D0000898786E190E09C878B87CE0101960E94BF
:100D1000D31481E080930E0561960FB6F894DEBF80
:100D20000FBECDBFDF91CF910895EFE0F5E089E0F0
:100D300090E097A386A315A214A213A212A2109268
:100D40005805109257058AE090E0909356058093DD
:100D50005505109254051092530582E190E090AF32
:100D600087AB16AA15AA14AA13AA08950E948D0586
:100D700080E197E2A0E0B0E0809388069093890636
:100D8000A0938A06B0938B0661E080E996E00E940A
:100D9000ED058091880690918906A0918A06B09110
:100DA0008B06892B8A2B8B2B79F7089540E255E02F
:100DB00062E275E084E295E00E9474148CE591E0B3
:100DC0009F938F930E942F31EFE0F5E082898F93FC
:100DD00081898F9384898F9383898F9386898F9359
:100DE00085898F9380E893E09F938F930E942F31A2
:100DF0008DB79EB70A960FB6F8949EBF0FBE8DBFF3
:100E0000089580E996E00E944D0680918C069091AD
:100E10008D06A0918E06B0918F060097A105B105B1
:100E200059F00197A109B10980938C0690938D0622
:100E3000A0938E06B0938F068091880690918906C4
:100E4000A0918A06B0918B060097A105B10559F0D3
:100E50000197A109B1098093880690938906A09310
:100E60008A06B0938B0684E695E00C940413282F31
:100E7000809390068091C3069091C406FC01E057D0
:100E8000F94F21830196823391052CF49093C40687
:100E90008093C30608951092C4061092C306089565
:100EA000CF93C82F0E948D0580E395E7A0E0B0E0C6
:100EB0008093880690938906A0938A06B0938B0648
:100EC0008091880690918906A0918A06B0918B0640
:100ED000892B8A2B8B2BC9F080E00E948704882302
:100EE00079F30E941F02882329F00E9426020E94A3
:100EF0003707F7CF60E080E996E00E94ED05C23049
:100F000031F480910E058823D9F2CF910895C13034
:100F1000B9F680910D05882399F210920D05F5CF51
:100F2000833479F08434C1F0823401F524B181E056
:100F300090E001C0880F6A95EAF78095822384B912
:100F4000089527B181E090E001C0880F6A95EAF723
:100F50008095822387B908952AB181E090E001C08D
:100F6000880F6A95EAF7809582238AB908958334B9
:100F700071F08434B1F08234E9F484B121E030E0DE
:100F800001C0220F6A95EAF7822B84B9089587B1D0
:100F900021E030E001C0220F6A95EAF7822B87B981
:100FA00008958AB121E030E001C0220F6A95EAF786
:100FB000822B8AB90895833471F08434B1F082347D
:100FC000E9F485B121E030E001C0220F6A95EAF72B
:100FD000822B85B9089588B121E030E001C0220F4D
:100FE0006A95EAF7822B88B908958BB121E030E049
:100FF00001C0220F6A95EAF7822B8BB908958334DA
:1010000079F08434C1F0823401F525B181E090E0BB
:1010100001C0880F6A95EAF78095822385B9089503
:1010200028B181E090E001C0880F6A95EAF78095C9
:10103000822388B908952BB181E090E001C0880F28
:101040006A95EAF7809582238BB90895442319F0B5
:10105000413019F008950C94FF070C94DB0783349A
:10106000B1F08434B1F08234B1F423B181E090E086
:10107000062E02C0880F991F0A94E2F730E08223FF
:10108000932302C0959587956A95E2F7089526B156
:10109000EDCF29B1EBCF81E008950895E1E8F0E0CC
:1010A00080818260808308951092810008958091EC
:1010B0008400909185009695879508951092B200CE
:1010C000E0EBF0E08081826080838EE38093B30068
:1010D00017BAE0E7F0E0808182608083E1EBF0E026
:1010E00080818560808308951092B10008951F92D9
:1010F0000F920FB60F9211242F933F934F935F934C
:101100006F937F938F939F93AF93BF93EF93FF93CF
:101110000E94010717BA8091CE069091CF06A09148
:10112000D006B091D1060196A11DB11D8093CE06C7
:101130009093CF06A093D006B093D106FF91EF9184
:10114000BF91AF919F918F917F916F915F914F91DF
:101150003F912F910F900FBE0F901F901895CF9336
:10116000DF9300D000D0CDB7DEB78091CE0690914E
:10117000CF06A091D006B091D106BC01CD010F9051
:101180000F900F900F90DF91CF9108951F920F92C3
:101190000FB60F9211242F933F934F935F936F934A
:1011A0007F938F939F93AF93BF93EF93FF93809120
:1011B000C6008093CD068091CD060E94370782E05D
:1011C0008093C000FF91EF91BF91AF919F918F915C
:1011D0007F916F915F914F913F912F910F900FBE33
:1011E0000F901F9018958091D2069091D3069093FE
:1011F000B2078093B10783E38093C4001092C500C7
:1012000088E98093C10082E08093C00008959091A6
:10121000C00095FFFCCF8093C60008959091000117
:10122000992329F00E94070990E080E0089581E069
:1012300090E00895EF92FF920F931F93CF93DF9367
:10124000EB018C01F12CE12CEC16FD064CF4F801BD
:1012500081918F010E940709FFEFEF1AFF0AF4CF77
:10126000CE01DF91CF911F910F91FF90EF900895E4
:1012700083B7816083BF83B7817F846083BF7894A5
:10128000889583B78E7F83BF0895E09A18950F9352
:101290001F93CF93DF93EC018B010E945708998332
:1012A00088830A831B83DF91CF911F910F9108954B
:1012B000CF93DF93EC010E9457089C014A815B8128
:1012C00081E04115510561F088819981821793076A
:1012D00050F4281B390B81E02417350708F480E00F
:1012E000DF91CF910895281B390B21503048F3CF5F
:1012F000FC011082118213821282148215821682DE
:101300001782108612861186138614861586168615
:101310001786118A108A128A138A148A158A168AE5
:10132000108E178A118E128E138E148E158E12A2A5
:1013300013A214A215A216A217A210AA11AA12AAE9
:1013400013AA14AA15AA16AE17AEDC01DE961696DD
:101350001D921D921D921C9219971E961C92119619
:101360001C92119716961D921D921D921C92199710
:101370001E961C9211961C92119716961D921D9204
:101380001D921C9219971E961C9211961C921197F1
:1013900016961D921D921D921C9219971E961C92D4
:1013A00011961C92119716961D921D921D921C92D9
:1013B00019971E961C9211961C9211961C921196CA
:1013C0001C9211961C92509682E08C9311961C925E
:1013D00011961C9211961C92119611961C921E92B7
:1013E000129611961C921E9212961D921D921D929B
:1013F0001C92139714961D921D921D921C92139786
:1014000014961D921D921D921C92139714961D9274
:101410001D921D921C92139714961D921D921D925F
:101420001C92139714961D921D921D921C92139755
:1014300014961D921D921D921C921397E757FF4F11
:1014400010820895862F062E000C990B2FEB260F85
:10145000263010F4C79708956156663018F4875502
:1014600091090895C09708951F93CF93DF9300D0FB
:1014700000D000D0CDB7DEB78D839E83AD81BE8115
:101480001C911D3219F41196BE83AD838D819E810E
:101490000E946C2F69837A838B839C83A4E6B0E0DF
:1014A0009B01AC010E942D2CAB01BC01ED81FE81A2
:1014B000FA83E983E981FA81DF012D91BA83A98357
:1014C000822F022E000C990BC0970A9798F32E32A8
:1014D00031F58181082E000C990BC0978A30910557
:1014E000F0F4AAE0A89F9001A99F300D1124C90132
:1014F000330FAA0BBB0B480F591F6A1F7B1F82813A
:10150000082E000C990BC0978A30910540F4092EE3
:10151000000CAA0BBB0B480F591F6A1F7B1F1D3203
:1015200039F470956095509541955F4F6F4F7F4F9F
:10153000CB01BA0126960FB6F894DEBF0FBECDBF21
:10154000DF91CF911F9108958F929F92AF92BF929A
:10155000EF92FF920F931F93CF93DF93CDB7DEB738
:101560002D970FB6F894DEBF0FBECDBF8D8799873C
:101570008B010E946C2F24E630E040E050E00E9496
:10158000052C490169837A838B839C839B01AC0181
:1015900060E876E988E990E00E94C12B6D837E8344
:1015A0008F839887D8018D929C92ED85F985219142
:1015B000822F022E000C990BC0970A97C0F32E328F
:1015C000E9F57F0120E836E948E950E029833A83CC
:1015D0004B835C838AE0882E912CA12CB12CD701FF
:1015E000ED917D012E2F022E000C330B205331097B
:1015F0003A8729872A30310508F569817A818B81FC
:101600009C81A50194010E94052C29833A834B8378
:101610005C83A985BA850E94382C69877A878B8775
:101620009C872D813E814F815885260F371F481F8B
:10163000591F2D833E834F835887D1CFA5E0B0E05B
:101640002D813E814F8158850E942D2CDC01CB01DC
:101650000196A11DB11DBC01CD0123E030E040E0A9
:1016600050E00E94052CD80112962D933D934D9386
:101670005C93159716961C922D960FB6F894DEBFC4
:101680000FBECDBFDF91CF911F910F91FF90EF90D3
:10169000BF90AF909F908F900895CF93DF9300D02D
:1016A00000D0CDB7DEB720E030E044E351E46983F9
:1016B0007A838B839C8369817A818B819C810E9450
:1016C0005D2D20E030E044EB51E469837A838B8325
:1016D0009C8369817A818B819C810E94C92D698359
:1016E0007A838B839C8369817A818B819C810E9420
:1016F0003B2E69837A838B839C8389819A8160E105
:1017000070E00E94F12BFC01EE0FFF1FEB5DFE4F1E
:10171000808191810F900F900F900F90DF91CF916A
:101720000895CF93DF93EC0187E0FE017096DE0110
:10173000129601900D928A95E1F787E0FE01779667
:10174000DE01199601900D928A95E1F70E94AF088B
:101750006E8F7F8F88A399A381E089838883DF912F
:10176000CF9108959B01BC01605F7F4FC9010C942C
:10177000A40A9B01BC01695E7F4FC9010C94A40AB5
:10178000EF92FF920F931F93CF93DF9300D000D07F
:1017900000D0CDB7DEB78D839E83AD81BE8111961B
:1017A0001C92119714966D917D918D919C91179734
:1017B0000E94712E28E23BE64EE65EE469837A835E
:1017C0008B839C8369817A818B819C810E94C92D46
:1017D0007B018C01ED81FE81828193819C0150E02F
:1017E00040E029833A834B835C83CA01B9010E949C
:1017F000712E9B01AC01E982FA820B831C83698103
:101800007A818B819C810E945D2D462F572FBC01D0
:1018100049835A836B837C83AD81BE8118968C91FA
:10182000882339F09A01AB01505829833A834B83BE
:101830005C8369817A818B819C8126960FB6F894AE
:10184000DEBF0FBECDBFDF91CF911F910F91FF90F3
:10185000EF900895EF92FF920F931F93CF93DF9332
:1018600000D000D000D0CDB7DEB78D839E83AD8190
:10187000BE8111961C9211971B966D917D918D9151
:101880009C911E970E94712E28E23BE64EE65EE494
:1018900069837A838B839C8369817A818B819C8124
:1018A0000E94C92D7B018C01ED81FE81818592858D
:1018B0009C0150E040E029833A834B835C83CA015A
:1018C000B9010E94712E9B01AC01E982FA820B835F
:1018D0001C8369817A818B819C810E945D2D462FBA
:1018E000572FBC0149835A836B837C83AD81BE81B2
:1018F0001F968C91882339F09A01AB0150582983A7
:101900003A834B835C8369817A818B819C812696A3
:101910000FB6F894DEBF0FBECDBFDF91CF911F9100
:101920000F91FF90EF900895CF93DF93EB010E940A
:10193000C00B9F938F937F936F9383E292E09F936B
:101940008F93DF93CF930E9476312DB73EB7285FF8
:101950003F4F0FB6F8943EBF0FBE2DBF8C0F9D1F9B
:10196000DF91CF910895CF93DF93EB010E942A0C72
:101970009F938F937F936F9383E292E09F938F93D4
:10198000DF93CF930E9476312DB73EB7285F3F4F4C
:101990000FB6F8943EBF0FBE2DBF8C0F9D1FDF9179
:1019A000CF910895CF93DF93EC018E819F81A8851D
:1019B000B9858A839B83AC83BD830E94AF086A8705
:1019C0007B878C879D8781E089838883DF91CF9196
:1019D0000895CF93DF93EC018E819F81A885B9850F
:1019E0008A839B83AC83BD830E94AF086A877B8711
:1019F0008C879D8781E089838883DF91CF910895CB
:101A0000CF93DF93EC01CB010E94340A6E837F8376
:101A100088879987DF91CF910895CF93DF93EC0169
:101A2000CB010E946C2F6E837F8388879987DF911B
:101A3000CF910895CF93DF9300D000D0CDB7DEB71C
:101A4000FC01118282819381A481B581BC01CD0109
:101A500024E630E040E050E00E94052C69837A8360
:101A60008B839C8389819A818053984F0F900F902C
:101A70000F900F90DF91CF910895CF92DF92EF9268
:101A8000FF92CF93DF9300D000D0CDB7DEB7FC013B
:101A9000118282819381A481B58124E6C22ED12C4A
:101AA000E12CF12CBC01CD01A70196010E94052C6F
:101AB000CA01B901A70196010E94052C862F0F903B
:101AC0000F900F900F90DF91CF91FF90EF90DF90EC
:101AD000CF900895CF93DF9300D000D0CDB7DEB77D
:101AE000FC01118282819381A481B581BC01CD0169
:101AF00020E137E240E050E00E94052C822F0F9059
:101B00000F900F900F90DF91CF910895CF93DF93B7
:101B100000D000D0CDB7DEB7FC0111828281938165
:101B2000A481B581BC01CD0120E432E44FE050E056
:101B30000E94052C822F0F900F900F900F90DF9135
:101B4000CF910895CF93DF9300D000D0CDB7DEB70B
:101B5000FC01118282819381A481B581BC01CD01F8
:101B600020E137E240E050E00E94052CCA01B901B3
:101B700024E630E040E050E00E94052C862F0F90D4
:101B80000F900F900F90DF91CF910895CF92DF9239
:101B9000EF92FF92CF93DF9300D000D0CDB7DEB7A6
:101BA000FC01118282819381A481B58124E6C22E39
:101BB000D12CE12CF12CBC01CD01A70196010E9492
:101BC000052CCA01B901A70196010E94052C862F98
:101BD0000F900F900F900F90DF91CF91FF90EF90AB
:101BE000DF90CF900895CF93DF9300D000D0CDB792
:101BF000DEB7FC01118282819381A481B581BC0191
:101C0000CD0124E630E040E050E00E94052C862F14
:101C10000F900F900F900F90DF91CF910895CF9379
:101C2000DF93EC018A859B85AC85BD858E839F8380
:101C3000A887B9870E94AF086A837B838C839D83C2
:101C400081E089838883DF91CF910895CF93DF93DB
:101C5000EC01CB010E94340A6A877B878C879D87C1
:101C6000DF91CF910895CF93DF93EC018A859B8517
:101C7000AC85BD858E839F83A887B9870E94AF08F6
:101C80006A837B838C839D8381E089838883DF9152
:101C9000CF910895CF93DF93EC01CB010E946C2F7D
:101CA0006A877B878C879D87DF91CF910895CF933B
:101CB000DF93EC01BC0140960E947F300E94AF0888
:101CC00068A379A38AA39BA381E08DA38CA3DF9152
:101CD000CF91089540E150E00C948630AF92BF92CE
:101CE000DF92EF92FF920F931F93CF93DF93EC015C
:101CF000FC01E857FF4FD080DD2009F4A0C03196E9
:101D000060810E94220A182FFE01E657FF4F608172
:101D1000CE010E94220A1295107F180FFE01E9578A
:101D2000FF4F8081811372C0B59680819181A2811D
:101D3000B3810196A11DB11D80839183A283B383DA
:101D40008E0105561F4FD8018C91882361F038977A
:101D500080819181A281B3810196A11DB11D8083F3
:101D60009183A283B383FE01E856FF4F80818823CD
:101D7000A1F18130C1F4CE0182960E94D20CCE0135
:101D8000C0960E94E90CF8018081882361F0CE01A1
:101D90000E94910BCE01CE960E940F0ECE01845B65
:101DA0009F4F0E940F0E8E0102561F4FF801C081F7
:101DB000D1812097C9F1D801ED91FC9166A177A15D
:101DC0008EA19FA10E947630892B71F5CE010E94D1
:101DD000570E0AA4DBA5C02DECCFCE01C0960E9401
:101DE000E90CD8018C91882341F0CE010E94910B1F
:101DF000CE01865A9F4F0E940F0ECE0188599F4FE9
:101E00000E94330ECE018A589F4FCBCFC855DF4F6B
:101E100088819981AA81BB810196A11DB11D88830A
:101E20009983AA83BB83D12C8D2DDF91CF911F91F4
:101E30000F91FF90EF90DF90BF90AF9008957C01DD
:101E4000B9E9EB0EF11CF701308188569F4F5C0118
:101E50008E0102561F4F31113EC07E0199E8E90EF6
:101E6000F11C69E272E0C7010E947630892B39F0DB
:101E70006FE272E0C7010E947630892B21F481E085
:101E8000D5018C9310C065E372E0C7010E947630E3
:101E9000892B39F06BE372E0C7010E947630892B01
:101EA000C1F4F5011082C456DF4F88819981F80191
:101EB00091838083C081D181209709F4B5CFB70188
:101EC0008EA19FA10E94763097FF98C08AA59BA5FE
:101ED000EECF82E0D5CFDC01EC91E230C9F0CE014B
:101EE00087579F4FDC012C91222391F0B0E2EB9FAA
:101EF000F0011124E32B3197E932F10548F4EC5B52
:101F0000FC4C0C94272CBC01CE01C0960E94000D05
:101F1000F801A080B180C757DF4FA114B10409F4C4
:101F200083CFD801ED91FC9166A177A1F50186A13F
:101F300097A10E947630892B09F076CFD50198962B
:101F40008D919C91F7012081422F50E028171906AE
:101F50000CF46ACF8417950721F4BE01C5010E94D5
:101F60006A0ED5019A96AD90BC90D7CFFE01E5568A
:101F7000FF4F81E0213479F180E02DC0BE01605F28
:101F80007F4F0E94A40AC4CF81E0233509F080E08E
:101F90008E8BBECFBE01695E7F4FF3CF81E02735C8
:101FA00009F080E08D8FB4CFBC01CE01CE960E94A7
:101FB000260EAECFBC01CE01845B9F4FF8CFBC0193
:101FC000CE0182960E940D0DA3CFFE01E556FF4F74
:101FD00081E021338CF280839BCFBC01CE018859F4
:101FE0009F4F0E944A0E94CFBC01CE018A589F4F4A
:101FF000DECFBC01CE01865A9F4FD9CF892B09F481
:1020000013CFD8011D921C920FCFCF92DF92EF9287
:10201000FF921F93CF93DF93EC01162FFC01E05644
:10202000FF4F80819181A281B3810196A11DB11DD5
:1020300080839183A283B383CE0186569F4F6C0128
:10204000DE01A857BF4F7D01643209F449C0DCF4BA
:102050006A3019F16D3009F1D601EC91EE3048F497
:1020600081E08E0F8C93EC0FFD2FF11DE757FF4F92
:102070001083F7018081811142C0C957DF4F688109
:102080001627188325C06A3241F06C3229F7FE0109
:10209000E957FF4F808186278083D601EC9180E04D
:1020A000EF3048F4EC0FFD2FF11DE757FF4F108282
:1020B000CE010E946E0EC756DF4F98819F5F9883B6
:1020C000F601108291E01A3209F090E0D7019C935A
:1020D000DF91CF911F91FF90EF90DF90CF90089507
:1020E000FC011082FE01E756FF4F108272971082AA
:1020F000719682E080831C92C556DF4F188280E083
:10210000E7CFAF92BF92CF92DF92EF92FF920F9301
:102110001F93CF93DF937B01B42EA52E69018C0111
:1021200004561F4FF801C081D1812097B1F06EA1F4
:102130007FA18B2D9A2D0E94763097FD0EC0892BA2
:1021400029F488A599A5C816D9063CF08E01065D2C
:102150001F4F0AA4DBA5C02DE8CFF701D3A7C2A764
:10216000F801F182E082DF91CF911F910F91FF90F2
:10217000EF90DF90CF90BF90AF900895CF93DF9313
:10218000FC01DB0110A211A212A213A214A215A23B
:1021900046A357A320A731A790E1EF01892F1992F9
:1021A0008A95E9F7BF01605F7F4FEB0119929A951D
:1021B000E9F7BF01CD01DF91CF910C9481100C9410
:1021C000BE101F93CF93DF93EC01CC54DF4F8CED07
:1021D00095E0A0E0B0E088839983AA83BB838CEB71
:1021E00091E00E944A3110E088819981AA81BB81E7
:1021F000892B8A2B8B2B79F00E94A5018823A1F3D0
:102200000E949101882381F3082E000C990B0E94F3
:1022100043311F5FE9CF8CEB91E00E944A31812F5F
:10222000110F990BDF91CF911F91089540E064E069
:1022300084E40C94260841E064E084E40C942608CD
:102240000E9472010E948A01789408951F93CF938F
:10225000DF93EC01162F0E94201164E084E40E94B9
:10226000DB0764E084E40E94B707CA57DF4F188396
:10227000DF91CF911F9108950F931F93CF93DF9319
:10228000EC018C0100551F4F8CED95E0A0E0B0E013
:10229000F80180839183A283B383F80180819181C7
:1022A000A281B381892B8A2B8B2B59F00E94A50127
:1022B000882399F30E949101682FCE010E94051096
:1022C000ECCFDF91CF911F910F910895EC018C011C
:1022D0000C571F4FF8018081813091F0823079F1E5
:1022E000CE010E9416111882FE01E259FF4F1082A2
:1022F0001182128213823697108281E0F801808366
:10230000CE010E943C1188818823C9F0FE01E85962
:10231000FF4F8081882399F0118286819781A08563
:10232000B1850397A105B10550F0C055DF4F80E39B
:1023300095E7A0E0B0E088839983AA83BB83CE01B0
:102340000E943C11FE01E055FF4F80819181A281E6
:10235000B381892B8A2B8B2B91F7CE010E941B1105
:10236000F8011082FE01EB57FF4F81E08083CE0120
:102370000E943F24E4CFEF92FF920F931F93CF93DD
:10238000DF9300D000D000D0CDB7DEB78D839E8321
:1023900081E492E09F938F930E942F310F900F90D2
:1023A000AD81BE818C91882309F41FC1CD010E94AB
:1023B0002A0C162F072FF82EE92E8D819E810E9460
:1023C000C00BEF92FF920F931F939F938F937F9376
:1023D0006F938CE492E09F938F930E942F310FB6FE
:1023E000F894DEBF0FBECDBF80E692E09F938F933F
:1023F0000E942F310F900F90AD81BE8192968C91EB
:102400009297882309F4F6C07D01B2E2EB0EF11C2D
:10241000C7010E941A0D182F092FC7010E943D0DF8
:10242000ED81FE8113A20F931F931F928F93AD81B5
:10243000BE8194968D919D910D90BC91A02D898324
:102440009A83AB83BC83BC01CD0120E137E240E03D
:1024500050E00E94052C1F922F938CE692E09F93F0
:102460008F930E942F310FB6F894DEBF0FBECDBF01
:10247000AD81BE81D0968C91D097882309F4BFC0DE
:102480008D01005D1F4FD1961C92D197D2968D91F0
:102490009D910D90BC91A02D89839A83AB83BC83C1
:1024A000BC01CD0120E432E44FE050E00E94052C55
:1024B0002A3020F480E390E00E944331ED81FE81D8
:1024C00011AA82A993A9A4A9B5A989839A83AB83E8
:1024D000BC83BC01CD0120E432E44FE050E00E9417
:1024E000052C1F922F9389E892E09F938F930E946F
:1024F0002F31C8010E94A20D0F900F900F900F90E6
:102500008A3020F480E390E00E944331C8010E94A9
:10251000A20D1F928F9389E892E09F938F930E9460
:102520002F31C8010E94C60D0F900F900F900F9091
:102530008A3020F480E390E00E944331C8010E9479
:10254000C60D1F928F9385EC93E09F938F930E940B
:102550002F31ED81FE8111AA82A993A9A4A9B5A961
:1025600089839A83AB83BC83BC01CD0124E630E030
:1025700040E050E00E94052C0F900F900F900F90BC
:102580006A3020F480E390E00E944331ED81FE81C7
:1025900011AA82A993A9A4A9B5A989839A83AB8317
:1025A000BC83BC01CD0124E630E040E050E00E9455
:1025B000052C7F936F9383E393E09F938F930E9407
:1025C0002F310F900F900F900F908CEB91E026968B
:1025D0000FB6F894DEBF0FBECDBFDF91CF911F9134
:1025E0000F91FF90EF900C944A3187E592E00E94A2
:1025F0004A31FACE8FE792E00E944A3139CF87E51F
:1026000092E00E944A31E1CF9C01FC01E055FF4F6E
:1026100080819181A281B381892B8A2B8B2B59F0E8
:1026200080819181A281B3810197A109B109808341
:102630009183A283B383F901EC54FF4F8081918190
:10264000A281B381892B8A2B8B2B59F080819181B8
:10265000A281B3810197A109B10980839183A283EB
:10266000B3830895CF93DF93EB01FC01EA58FF4F4A
:10267000118266817781808591850E94732E9F9358
:102680008F937F936F938FE892E09F938F93DF9365
:10269000CF930E9476312DB73EB7285F3F4F0FB6DC
:1026A000F8943EBF0FBE2DBF8C0F9D1FDF91CF91C1
:1026B00008956AE00E94D12B8295807F890F08954A
:1026C000982F92959F708F702AE0929F800D112411
:1026D0000895CF93C82F88E60E94DE1A8C2F0E949F
:1026E000F81A0E94E81A61E088E60E94D11ACF9198
:1026F0000C944D1BCF93DF93C82FD62F88E60E94F2
:10270000DE1A8D2F0E94F81A8C2F0E94F81ADF9182
:10271000CF910C94E81ACF93DF9381E10E94691363
:10272000D82F82E10E946913C82F61E18EEE0E94CA
:102730007A1362E18DED0E947A1381E10E946913A0
:102740008E3E91F482E10E9469138D3D69F481E02F
:102750008093E60661E18D2F0E947A1362E18C2F4F
:10276000DF91CF910C947A1381E08093E506DF919D
:10277000CF91089562E084E40E94900762E084E4CF
:102780000E94DB07E9E6F0E0808182608083E89ABE
:10279000789408958091E60608958091E50608955D
:1027A00081E08093E6061092E50608951092E60611
:1027B00081E08093E5060895EF92FF920F931F93B7
:1027C000CF93DF93CDB7DEB729970FB6F894DEBF6E
:1027D0000FBECDBF88E60E94DE1A80E00E94F81A84
:1027E0000E94E81A67E088E60E94D11A8E010F5F06
:1027F0001F4F7E0188E0E80EF11C0E944D1BF8017E
:1028000081938F01EE15FF05C1F70E94E81A8981B7
:102810008F770E94601390E09093D5068093D40642
:102820008A810E94601390E09093D7068093D60629
:102830008B810E946013082F10E01093D90600933B
:10284000D8068D810E94601390E09093DB06809300
:10285000DA06FE808F2D8F710E94601390E09093B6
:10286000DD068093DC068F810E94601390E0F7FE06
:1028700027C08053984F9093DF068093DE068C81AB
:102880000E94601390E09093E1068093E0060115AA
:102890001105C9F41092E4061092E30681E08093DA
:1028A000E20684ED96E029960FB6F894DEBF0FBEDF
:1028B000CDBFDF91CF911F910F91FF90EF900895C1
:1028C0008459984FD8CF0C3011052CF41093E4069E
:1028D0000093E306E3CF0C5011091093E406009334
:1028E000E3061092E206DDCF8F929F92AF92BF92E5
:1028F000CF92DF92EF92FF920F931F93CF93DF93CC
:10290000CDB7DEB729970FB6F894DEBF0FBECDBFA7
:102910008C017B016A0188E60E94DE1A80E00E9439
:10292000F81A0E94E81A67E088E60E94D11ACE01E0
:1029300001965C014E0198E0890E911C0E944D1B8E
:10294000F50181935F018E169F06C1F70E94E81A78
:10295000C114D10429F089810E946013F60180839B
:10296000E114F10429F08A810E946013F701808349
:102970000115110529F08B810E946013F8018083F5
:1029800029960FB6F894DEBF0FBECDBFDF91CF9171
:102990001F910F91FF90EF90DF90CF90BF90AF907D
:1029A0009F908F9008951F93CF93DF93EC0188E65B
:1029B0000E94DE1A80E00E94F81A8A859B85813D7C
:1029C00027E0920774F1805D97409B878A8710E823
:1029D00088810E9459130E94F81A8A810E94591313
:1029E0000E94F81A8C810E9459130E94F81A8C8553
:1029F0000E9459130E94F81A8E810E9459130E9456
:102A0000F81A88850E945913810F0E94F81A8A8546
:102A10000E9459130E94F81ADF91CF911F910C94D4
:102A2000E81A8C5697409B878A8710E0D1CF1F9376
:102A3000CF93DF93C82FD62F142F88E60E94DE1A7B
:102A400080E00E94F81A812F0E9459130E94F81A00
:102A50008D2F0E9459130E94F81A8C2F0E9459132F
:102A60000E94F81ADF91CF911F910C94E81ACF932E
:102A7000C82F8091E50681110BC00E946913CC23F9
:102A800029F08F7760E0CF910C947A138068FACFA9
:102A9000CF9108958091E506811106C00E946913C7
:102AA0008095881F8827881F0895FF920F931F9392
:102AB000CF93DF938C01EB01FC011082188280918F
:102AC000E606811120C088E60E94DE1A81E10E949C
:102AD000F81A0E94E81A62E088E60E94D11A0E9461
:102AE000471B882381F00E944D1BF82E0E944D1B2E
:102AF000F801F082829586958695837099E1899F89
:102B0000802D11248883DF91CF911F910F91FF9029
:102B10000895CF93DF93C82F8091E60681112DC0D1
:102B200088E60E94DE1A8EE00E94F81A0E94E81AD7
:102B300061E088E60E94D11A0E944D1BD82F88E6DA
:102B40000E94DE1A8EE00E94F81A8D2F80620E9489
:102B5000F81A0E94E81ACC2381F088E60E94DE1A57
:102B60008EE00E94F81A0E94E81A61E088E60E944E
:102B7000D11A0E944D1B85FDF0CFDF91CF910895B2
:102B8000CF93C82F88E60E94DE1A88E08C0F0E943F
:102B9000F81A0E94E81A61E088E60E94D11ACF91E3
:102BA0000C944D1B0F931F93CF938C01C0E08C2F7F
:102BB0000E94C015F80181938F01CF5FC833B9F728
:102BC000CF911F910F910895CF93DF93C82FD62FE8
:102BD00088E60E94DE1A88E08D0F0E94F81A8C2F7A
:102BE0000E94F81ADF91CF910C94E81A0F931F936B
:102BF000CF938C01C0E06C2FF80181918F010E946E
:102C0000E415CF5FC833B9F7CF911F910F910895A5
:102C1000CF93DF93D82F8091E606882309F188E6C9
:102C20000E94DE1A87E00E94F81A0E94E81A61E00A
:102C300088E60E94D11A0E944D1BC82FDD2371F037
:102C4000C06188E60E94DE1A87E00E94F81A8C2F85
:102C50000E94F81ADF91CF910C94E81ACF7EF1CF41
:102C600088E60E94DE1A8EE00E94F81A0E94E81A96
:102C700061E088E60E94D11A0E944D1BC82FDD2317
:102C800039F0CB7FC06488E60E94DE1A8EE0DDCF8B
:102C9000CF7BF9CFCF93DF93EC018091E6068823B9
:102CA000E9F088E60E94DE1A87E00E94F81A0E9486
:102CB000E81A61E088E60E94D11A0E944D1B8C7FC1
:102CC000C82B88E60E94DE1A87E00E94F81A8C2F33
:102CD0000E94F81ADF91CF910C94E81A88E60E94BE
:102CE000DE1A8EE00E94F81A0E94E81A61E088E677
:102CF0000E94D11A0E944D1B94E0CC0FDD1F9A95C3
:102D0000E1F7877EC82B88E60E94DE1A8EE0DDCFD1
:102D1000CF93DF93D82F8091E506882309F188E6C9
:102D20000E94DE1A8FE00E94F81A0E94E81A61E001
:102D300088E60E94D11A0E944D1BC82FDD2371F036
:102D4000C86088E60E94DE1A8FE00E94F81A8C2F75
:102D50000E94F81ADF91CF910C94E81AC77FF1CF47
:102D6000DF91CF9108958091E606882361F060E0BD
:102D700080E00E94E41561E080E00E94E41562E0DA
:102D800080E00C94E41567E080E00E947A1368E02C
:102D900080E00E947A1369E080E00E947A136AE082
:102DA00080E00C947A131F93CF93DF93C82FD62F14
:102DB000142F883108F054C06C3308F051C04C33E4
:102DC00008F04EC08091E606882379F060E08C2FF1
:102DD0000E94E41561E08D2F0E94E41562E0812FCE
:102DE000DF91CF911F910C94E415842F0E94591309
:102DF00067E00E947A138D2F0E94591368E00E94A9
:102E00007A138C2F0E94591369E00E947A136AE0AA
:102E100081E80E947A138FE00E9469136FE08E7F31
:102E20000E947A1388E60E94DE1A8EE00E94F81A49
:102E30000E94E81A61E088E60E94D11A0E944D1BA8
:102E4000C82F88E60E94DE1A8EE00E94F81A8C2FA6
:102E500081600E94F81ADF91CF911F910C94E81ABB
:102E6000DF91CF911F910895FC01892B29F04081BA
:102E7000628184810C94D3160895EF92FF920F9390
:102E80001F93CF93DF93EC018B017A018091E606CB
:102E90008823E9F0209721F080E00E94C015888304
:102EA0000115110529F081E00E94C015F801808309
:102EB000E114F10429F082E00E94C015F70180833B
:102EC000DF91CF911F910F91FF90EF90089587E0D0
:102ED0000E9469138F770E946013F701808388E056
:102EE0000E9469138F770E946013F801808389E044
:102EF0000E9469138F770E9460138883E1CFCF937C
:102F0000DF9300D00F92CDB7DEB7AE014F5F5F4FBA
:102F1000BE016E5F7F4FCE0103960E943D17E4ED28
:102F2000F6E08B8190E0958384838A8190E093839F
:102F30008283898190E091838083CF010F900F90ED
:102F40000F90DF91CF910895FF920F931F93CF932E
:102F5000DF9300D00F92CDB7DEB78091E6068823CD
:102F600049F180E00E94C015F82E81E00E94C01552
:102F7000082F82E00E94C015182FAE014F5F5F4FEF
:102F8000BE016E5F7F4FCE0103960E9474148B8149
:102F90008F1106C08A81801303C081E0998191134B
:102FA00080E00F900F900F90DF91CF911F910F91C4
:102FB000FF9008958FE00E946913182F117080FF11
:102FC00004C06FE08E7F0E947A13812FEACFCF93E7
:102FD000DF93FC01DB0146A157A127A930AD149670
:102FE0008D919C911597421753070CF124173507C3
:102FF00054F042175307D9F4C4A1D5A165A976A905
:103000006C177D07A4F484179507A4F08831910507
:10301000A4F02817390749F481E012964D915C918C
:1030200025A936A9421753074CF080E007C0841742
:1030300095077CF38217930764F781E0DF91CF91C6
:103040000895EF92FF920F931F93CF93DF93FC01AC
:10305000EB01DC01A85BBF4F8C819D812D913C91E0
:10306000820F931F28E1E22EF12CB7010E94F12B71
:103070009C0195838483DF01AA5BBF4F0D911C9156
:103080008A819B81800F911F6CE370E00E94F12B7D
:10309000938382838A819B81080F191F0C3311054A
:1030A0003CF0C9010196B7010E94F12B95838483FE
:1030B000DF91CF911F910F91FF90EF900895CF93E3
:1030C000DF93EC01BC016F5E7F4F0E9421188B8162
:1030D0008F938A818F938D818F938C818F9389EBCE
:1030E00092E09F938F930E942F31BE01CE010E94E8
:1030F000E7170F900F900F900F900F900F9040E0F8
:103100008823D9F06A818C810E94D3168B818F939A
:103110008A818F938D818F938C818F938DED92E037
:103120009F938F930E942F310F900F900F900F90CD
:103130000F900F90DF91CF9108956CA18EA10E9406
:10314000D3168DA18F938CA18F938FA18F938EA176
:103150008F938AE093E0E4CF10925207449A459A05
:10316000E9EBF0E080818E7F808380818D7F80839A
:103170008CE08093B80085E48093BC007894089537
:10318000880F8093BA000895982F842F413258F504
:10319000209152072111FCCF21E0209352072FEFFD
:1031A0002093E70610922C07280F20932B07990FE6
:1031B00091609093510795EE9093BC0090915207C7
:1031C0009130E1F390912C07981710F480912C071F
:1031D0002DE237E0FB01D9019A2F921B981720F4BA
:1031E0009D919193F9CF80E00895982F4132B0F5E9
:1031F000809152078111FCCF32E0309352073FEFAC
:103200003093E70610922C0740932B07562FADE220
:10321000B7E0FB013E2F351B341718F431913D9375
:10322000F9CF492F50E0440F551F4093510795EEB9
:103230009093BC00222321F0909152079230D1F359
:103240009091E7069F3F79F08091E706803241F048
:103250008091E706803331F084E0089581E008959D
:1032600082E0089583E00895613288F42091520746
:10327000243079F460930907282FABE0B7E0FC0114
:103280008E2F821B861738F481918D93F9CF81E0C0
:10329000089582E0089580E0089590934E0780930A
:1032A0004D0708959093500780934F070895882302
:1032B00021F085EC8093BC00089585E8FBCF85ED77
:1032C0008093BC008091BC0084FDFCCF109252071B
:1032D000089585EC8093BC001092520708951F92C8
:1032E0000F920FB60F9211242F933F934F935F933A
:1032F0006F937F938F939F93AF93BF93EF93FF93BE
:103300009091B900892F887F803509F4BCC008F0FE
:1033100045C0803309F4B2C0A0F5883101F1D0F482
:10332000883009F4A3C0803109F4A0C0882309F4CF
:10333000E9C0FF91EF91BF91AF919F918F917F91E4
:103340006F915F914F913F912F910F900FBE0F9012
:103350001F901895803209F491C0883251F79091EE
:103360002C0780912B07981708F08AC0E0912C0752
:1033700081E08E0F80932C07F0E0E35DF84F8081B1
:1033800077C0803409F48BC0883409F479C088335D
:1033900081F68093E7060E946919CBCF803A09F441
:1033A00098C060F5803809F482C0F8F48036B9F02E
:1033B00080F4883509F0BDCFE0912C0781E08E0FB5
:1033C00080932C078091BB00F0E0E35DF84F808391
:1033D00057C0803721F0987E983609F0AACF83E055
:1033E000809352071092E80645C0803909F45FC007
:1033F000987E983809F09DCF85E83DC0883BD9F08C
:1034000058F5883A19F0803B09F093CF84E0809317
:10341000520710920A0710920907E0914F07F091A6
:103420005007099580910907811105C081E08093BB
:10343000090710920B07E0910A0781E08E0F809335
:103440000A07F0E0E55FF84F80818093BB00909120
:103450000A078091090727C0907F903C09F069CF47
:1034600085EC8093BC001092520763CF8091510786
:103470008093BB0085EC8093BC005BCF8093E70614
:103480000E945F1956CFE0912C0781E08E0F809348
:103490002C078091BB00F0E0E35DF84F80839091B2
:1034A0002C0780912B07981708F0A6CFE3CF8091C7
:1034B000E806803208F0A0CFE091E80681E08E0FA8
:1034C0008093E8068091BB00F0E0E751F94F8083DC
:1034D000D1CF8091E806803230F4E091E806F0E048
:1034E000E751F94F10820E945F196091E80670E081
:1034F000E0914D07F0914E0789EE96E00995109204
:10350000E80649CF1092E706BBCFCF93DF93DC01EB
:10351000CB01E0915307F09154073097E9F03091D7
:103520007C0720917B073217B8F040E0242F30E071
:103530002817390754F4ED01C20FD31F58812358BF
:10354000384FE90158834F5FF1CF10927C07809389
:103550007B07DF91CF910994DF91CF910895E0919E
:103560005507F0915607309729F01092590710929D
:1035700058070994089510927C0710927B071092C7
:103580005907109258070C94AC180E94C0188FEA83
:103590009AE10E94521985E89AE10E944D190C9413
:1035A000BB1A462F613208F040E26DE777E00E94D7
:1035B000C41810927C0780937B07089591E0909344
:1035C000570780937A071092590710925807089569
:1035D00021E0409158076AE577E080917A070E94E0
:1035E000F51810925907109258071092570708952E
:1035F000CF93DF930F92CDB7DEB7898380915707C2
:103600008823A9F080915807803268F48091590787
:10361000E82FF0E0E65AF84F998190838F5F80930E
:103620005907809358070F90DF91CF91089561E07B
:10363000CE0101960E943419F6CF0F931F93CF93BA
:10364000DF9320915707222369F08C01EC01C60F0C
:10365000D11D0C171D0761F0F80181918F010E94A7
:10366000F81AF7CFDF91CF911F910F910C94341975
:10367000DF91CF911F910F910895DC010D900020F3
:10368000E9F71197BD01681B790B0C941D1B809104
:103690007B0790917C07891B089590917C0780910E
:1036A0007B07981748F4E92FF0E0E358F84F808142
:1036B0009F5F90937C07089580E00895909354074E
:1036C0008093530708959093560780935507089564
:1036D0000895FF920F931F93CF93DF93CDB7DEB77B
:1036E00061970FB6F894DEBF0FBECDBF8C01F62EEA
:1036F000DC01D5961C921E92D4978C91282F082E0F
:10370000000C330B3F938F9388E393E09F938F9349
:103710000E942F31F80184A995A9E80FF91F208193
:103720000F900F900F900F90293409F4CBC34CF4F5
:10373000213409F41EC4243409F40FC487EF93E044
:10374000BEC3223509F490C22335C1F79C012E5F18
:103750003F4F223331050CF07BC2D801D5963C9304
:103760002E93D497200F311FF9016081062E000C93
:10377000770B605371094AE0469FF001479FF00DB7
:103780001124F0933605E0933505BC016D5F7F4F42
:103790008F32910509F45CC2D5967C936E93D497D1
:1037A000600F711FDB012C91022E000C330B205394
:1037B00031092E0F3F1F30933605209335059C01AC
:1037C0002B5F3F4F223331050CF042C2F80135AB7D
:1037D00024AB200F311FD9016C91062E000C770B02
:1037E00060537109469FF001479FF00D1124F0933B
:1037F0003405E0933305BC016A5F7F4F8C3291053D
:1038000009F426C2D801D5967C936E93D497600FA5
:10381000711FDB012C91022E000C330B2053310958
:103820002E0F3F1F30933405209333059C01285FF2
:103830003F4F223331050CF00BC2F80135AB24ABFE
:10384000200F311FD9012C91022E000C330B205375
:103850003109429FB001439F700D112470933205CE
:10386000609331059C01275F3F4F899709F4F0C1B0
:1038700035AB24AB200F311FF9018081082E000CDD
:10388000990BC097860F971F90933205809331054F
:1038900064E170E081E395E00E94172364E170E049
:1038A00081E395E00E943223809132058F938091CD
:1038B00031058F93809134058F93809133058F93D9
:1038C000809136058F93809135058F938BE593E03A
:1038D0009F938F930E942F31D801D4968D919C9104
:1038E000D59702960FB6F894DEBF0FBECDBF8233D8
:1038F00091050CF0ADC1D5969C938E93D497800F13
:10390000911FDC018C91082E000C990BC0972AE0C6
:10391000F22EF89E9001F99E300D11243093470548
:1039200020934605F80184A995A901968233910553
:103930000CF08EC195AB84AB800F911FDC018C9194
:10394000082E000C990BC097209146053091470531
:10395000820F931F909347058093460584A995A9EC
:103960000296823391050CF073C195AB84AB800F46
:10397000911FFC018081082E000C990BC097F89EC6
:103980009001F99E300D1124309345052093440594
:10399000D801D4968D919C91D5970196823391054B
:1039A0000CF056C1D5969C938E93D497800F911F9F
:1039B000FC018081082E000C990BC09720914405D2
:1039C00030914505820F931F9093450580934405E0
:1039D000D4968D919C91D5970296823391050CF0E7
:1039E00037C1D5969C938E93D497800F911FDC019D
:1039F0008C91082E000C990BC097F89E9001F99EAF
:103A0000300D11243093430520934205F80184A919
:103A100095A90196823391050CF01AC195AB84AB40
:103A2000800F911FDC018C91082E000C990BC09720
:103A30002091420530914305820F931F90934305D7
:103A40008093420567E170E082E495E00E941723CD
:103A500067E170E082E495E00E94322380914305A3
:103A60008F93809142058F93809145058F9380912C
:103A700044058F93809147058F93809146058F93DE
:103A800086E793E09F938F930E942F31F80184A9DA
:103A900095A902960FB6F894DEBF0FBECDBF823354
:103AA00091050CF0D5C095AB84AB800F911FDC0164
:103AB0008C91082E000C990BC097F89E9001F99EEE
:103AC000300D1124309358052093570584A995A9EA
:103AD0000196823391050CF0BBC095AB84AB800F8F
:103AE000911FFC018081082E000C990BC09720913A
:103AF000570530915805820F931F90935805809376
:103B00005705D801D4968D919C91D5970296823312
:103B100091050CF09DC0D5969C938E93D497800F01
:103B2000911FFC018081082E000C990BC097F89E14
:103B30009001F99E300D11243093560520935505C0
:103B4000D4968D919C91D5970196823391050CF076
:103B50007FC0D5969C938E93D497800F911FDC01E4
:103B60008C91082E000C990BC0972091550530912F
:103B70005605820F931F9093560580935505F801C3
:103B800084A995A90296823391050CF061C095AB8A
:103B900084AB800F911FDC018C91082E000C990BD7
:103BA000C0974AE0489F9001499F300D11243093FF
:103BB00054052093530584A995A901968233910554
:103BC0000CF046C095AB84AB080F191FF80180813B
:103BD000082E000C990BC097209153053091540585
:103BE000820F931F90935405809353056AE170E010
:103BF00083E595E00E9417236AE170E083E595E094
:103C00000E943223809154058F93809153058F93A6
:103C1000809156058F93809155058F93809158051B
:103C20008F93809157058F938FE893E09F938F93A5
:103C30000E942F3162E08CE090E00E948A220FB651
:103C4000F894DEBF0FBECDBF8DE094E00E944A31F4
:103C500061960FB6F894DEBF0FBECDBFDF91CF9156
:103C60001F910F91FF9008959C012E5F3F4F2233CB
:103C7000310574F7D801D5963C932E93D497200F35
:103C8000311FF9014081042E000C550B405351099E
:103C90006AE0649FF001659FF00D1124AC014D5F57
:103CA0005F4F8F329105A1F2D5965C934E93D497D6
:103CB000400F511FDA012C91022E000C330B2053C0
:103CC00031092E0F3F1F3E832D839C012B5F3F4FF9
:103CD000223331050CF0BCCFF80135AB24AB200FFB
:103CE000311FD9014C91042E000C550B4053510942
:103CF000649FF001659FF00D1124AC014A5F5F4F96
:103D00008C32910509F4A4CFD801D5965C934E93DB
:103D1000D497400F511FDA012C91022E000C330B67
:103D2000205331092E0F3F1F3C832B839C01285FBA
:103D30003F4F223331050CF08BCFF80135AB24AB6C
:103D4000200F311FD9014C91042E000C550B40530C
:103D50005109649FF001659FF00D1124AC01475F8C
:103D60005F4F8932910509F473CFD801D5965C93E2
:103D70004E93D497400F511FDA012C91022E000C64
:103D8000330B205331092E0F3F1F3A8329839C01A7
:103D9000255F3F4F223331050CF05ACFF80135AB88
:103DA00024AB200F311FD9016C91062E000C770B2C
:103DB000605371094AE0469FF001479FF00D1124BE
:103DC000BC01645F7F4F8632910509F441CFD80171
:103DD000D5967C936E93D497600F711FDB012C9165
:103DE000022E000C330B205331092E0F3F1F388752
:103DF0002F839C01225F3F4F223331050CF028CFE7
:103E0000F80135AB24AB200F311FD9016C91062E80
:103E1000000C770B60537109469FF001479FF00D2E
:103E20001124BC01615F7F4F8332910509F410CFEB
:103E3000D801D5967C936E93D497600F711FDB01E8
:103E40002C91022E000C330B205331092E0F3F1FF3
:103E50003A8729879C012F5E3F4F223331050CF0B2
:103E6000F7CEF80135AB24AB200F311FD9012C91CF
:103E7000022E000C330B20533109429FB001439FA7
:103E8000700D11249C012E5E3F4F809709F4E0CE07
:103E900035AB24AB020F131FF8018081082E000CF4
:103EA000990BC097860F971F9C878B87CE01019631
:103EB0000E94D31481E080930E0587E493E00E9472
:103EC0004A31C2CE9C012E5F3F4F223331050CF0A8
:103ED000BFCED801D5963C932E93D497AC014D5FBD
:103EE0005F4F8F9709F4B4CE200F311FF9019081F5
:103EF000D5965C934E93D4979053040F151FD80119
:103F00008C91BAE09B9F800D112460ED680F815366
:103F10008236F0F48AE090E00E948A226CE075E03C
:103F20008AE090E00E94772262E08BE090E00E94BD
:103F30008A2280910C051F928F938AEA93E09F93C7
:103F40008F930E942F310F900F900F900F907CCE87
:103F50001F926F9389EB93E0F2CFE1E081EE93E063
:103F6000FE12ADCF88EC93E00E944A310E945B24A0
:103F70006BCE9C012E5F3F4F223331050CF068CE93
:103F8000D801D5963C932E93D497200F311FF90179
:103F90002081243409F0D2CB9C012D5F3F4F8F321A
:103FA000910509F455CED5963C932E93D497AC0148
:103FB0004C5F5F4F8E9709F44BCE200F311FD90114
:103FC0009C91F80155AB44AB9053040F151FD801D9
:103FD0008C918053BAE09B9F800D112490910C0529
:103FE0009813ACCB0E94862381E080930D05A6CB6D
:103FF000FC0182A993A9813391052CF4019693AB1E
:1040000082AB80E0089581E00895FC01A2A9B3A9E4
:10401000A80FB91F6C930C94F81FFC0113AA12AAE5
:104020000C940520FC0184A995A9680F791F6233BF
:10403000710524F475AB64AB80E0089581E00895C8
:10404000CF93DF938EE480937C0086E880937A00A0
:104050008FEC97E00197F1F700C0000080917A00A3
:10406000806480937A0080917A0086FDFCCF8FEC8B
:1040700097E00197F1F700C0000080917A0080641A
:1040800080937A0080917A0086FDFCCF8FE19EE4D8
:104090000197F1F700C000006091780080917900ED
:1040A000782F80E09CE20E94DD2BEB01CB01992769
:1040B0009F938F9382E294E09F938F930E942F317E
:1040C00080917A008F7780937A000F900F900F90F5
:1040D0000F908C2FDF91CF910895CF93DF9300D075
:1040E00000D0CDB7DEB70E9420206AE00E94D12B1D
:1040F000282F30E050E040E029833A834B835C83F3
:10410000CA01B9010E94732E69837A838B839C83D1
:1041100069817A818B819C810F900F900F900F9015
:10412000DF91CF9108959F92AF92BF92CF92DF928D
:10413000EF92FF920F931F93CF93DF938C01F42E96
:10414000E52ED62EC72E59018BE7F8018083E801B2
:10415000229684E4818380910C051F928F938CE3D7
:1041600094E09F938F93DF93CF930E947631C80F93
:10417000D91F8CE2982EFE019192CF016FE274E07C
:104180000E947F302596F50181818F9380818F93E6
:1041900083818F9382818F9385818F9384818F9385
:1041A00084E394E09F938F93DF93CF930E947631C3
:1041B000C80FD91F9992CF92DF92EF92FF9280E4BD
:1041C00094E09F938F93DF93CF930E947631C80F33
:1041D000D91F8DE788831982F80101900020E9F743
:1041E000CF0101972DB73EB7285E3F4F0FB6F89429
:1041F0003EBF0FBE2DBF801B910BDF91CF911F9152
:104200000F91FF90EF90DF90CF90BF90AF909F9075
:10421000089585E494E00E944A3167E084E40E94B6
:10422000B70767E084E40E94DB0765E084E40E944E
:10423000B70765E084E40E94FF0766E084E40E941B
:10424000B70766E084E40E94FF0767E084E40E9409
:10425000FF0765E084E40E94DB0766E084E40E94D7
:10426000FF072FEF82E795E5215080409040E1F76E
:1042700000C0000065E084E40E94FF0766E084E47B
:104280000E94FF072FEF84E39CE021508040904084
:10429000E1F700C0000065E084E40E94FF0766E0EB
:1042A00084E40E94DB072FEF82E795E521508040F0
:1042B0009040E1F700C0000065E084E40E94FF0741
:1042C00066E084E40E94FF0767E084E40C94DB0767
:1042D00067E084E40E94FF0765E084E40E94DB0756
:1042E00066E084E40E94FF072FEF82E795E5215006
:1042F00080409040E1F700C0000065E084E40E9447
:10430000FF0766E084E40E94FF0767E084E40C9402
:10431000DB07EEE9F7E087E090E0958384838EE1A8
:1043200090E093838283118210829783868381E059
:1043300090E09187808786E190E093878287089557
:10434000FC01208531858091A6079091A7078217EF
:104350009307B4F12817390789F5268137818091B1
:10436000A4079091A5078217930754F128173907DE
:1043700029F5248135818091A2079091A3078217A6
:104380009307F4F028173907C9F42281338180910B
:10439000A0079091A1078217930794F02817390777
:1043A00069F44081518120919E0730919F0781E0FF
:1043B000241735073CF04217530721F080E0089599
:1043C00081E008950895CF92DF92EF92FF920F93CC
:1043D0001F93CF93DF93CDB7DEB768970FB6F894EE
:1043E000DEBF0FBECDBF182F0E94892180919D078F
:1043F00081116EC00E94DC13F82E092F103288F54F
:104400008BE594E00E944A310E946821812F90E060
:10441000B0E0A0E08D8B9E8BAF8BB88FBC01CD013F
:104420000E94712E2F2D302F462F572FBC01DE01F9
:1044300011966D01CD010E949320E82EDF92CF925C
:1044400085E794E09F938F930E942F316E2DC601D4
:104450000E94B10581E080939D070F900F900F900F
:104460000F908F2D902F0E94A021882389F183E83F
:1044700094E00E944A310E946821812F90E0B0E0D0
:10448000A0E08D8B9E8BAF8BB88FBC01CD010E94BD
:10449000712E2F2D302F462F572FBC018E010F5F0D
:1044A0001F4FC8010E949320F82E1F930F9385E79A
:1044B00094E09F938F930E942F316F2DC8010E942B
:1044C000B10581E080939D070F900F900F900F90A2
:1044D00068960FB6F894DEBF0FBECDBFDF91CF91C7
:1044E0001F910F91FF90EF90DF90CF9008959C0166
:1044F000FB01211584E0380758F49FB3892F82709F
:1045000091FDFBCF32BD21BDF89A90B590830895FF
:1045100082E008959C01211584E0380758F49FB388
:10452000892F827091FDFBCF32BD21BD60BDFA9A0B
:10453000F99A089582E00895FF920F931F93CF9305
:10454000DF930F92CDB7DEB78C01F62E011584E014
:10455000180730F51982BE016F5F7F4FC8010E94B6
:104560007722811116C09981F91699F06F2DC80133
:104570000E948A2281110DC0BE016F5F7F4FC8016A
:104580000E947722811105C081E099819F1101C0AD
:1045900080E00F90DF91CF911F910F91FF900895D0
:1045A00082E0F7CFEF92FF920F931F93CF93DF93A9
:1045B0008C01EB017B01E40EF51ECE15DF0579F0D1
:1045C0006991C8010E949C220F5F1F4F8823A9F3A5
:1045D000DF91CF911F910F91FF90EF90089580E0B0
:1045E000F7CFCF92DF92EF92FF920F931F93CF936B
:1045F000DF938C017B016A01D0E0C0E0CC15DD05C2
:1046000061F0B7016C0F7D1FCE01800F911F0E94DA
:104610007722811103C02196F1CF80E0DF91CF9105
:104620001F910F91FF90EF90DF90CF9008950F931F
:104630001F93CF93DF938C01EB01FC016481CE01CA
:104640000E948A22F8016281CE0101960E948A228C
:10465000F8016081CE010296DF91CF911F910F91F9
:104660000C948A220F931F93CF93DF938C01EB015D
:10467000BC016C5F7F4FCE010E947722B8016E5F54
:104680007F4FCE0101960E947722B801CE0102969B
:10469000DF91CF911F910F910C947722CF93DF93ED
:1046A00089E190E00E947725C82FD0E089E190E071
:1046B0000E947725D82B2BE22C9FC0012D9F900DB7
:1046C0001124C296DF91CF910895CF93DF9389E1B2
:1046D00090E00E947725C82FD0E089E190E00E9409
:1046E00077259E01382BC901019662EC71E00E948A
:1046F000DD2BC92F682F89E190E00E9421256C2FC6
:1047000089E190E0DF91CF910C9421250F931F93C5
:10471000CF93DF9389E190E00E947725082F10E086
:1047200089E190E00E947725182B8BE190E00E94B0
:104730007725C82FD0E08BE190E00E947725D82B19
:10474000C017D107A8F4CE01019662EC71E00E9477
:10475000DD2BEC016C2F8BE190E00E9421256D2F69
:104760008BE190E0DF91CF911F910F910C94212567
:104770000C171D0778F72196EDCFCF93DF93D82F35
:10478000C92F0E944E234BE26D2F7C2F0E94E32500
:10479000DF91CF910C946523AF92BF92CF92DF92BD
:1047A000EF92FF920F931F93CF93DF935C01E62E5E
:1047B000D72E0E942020C82E6E2D7D2DC5010E946F
:1047C000940CFC018CE2F82EF192BF01C5010E940D
:1047D000B30CFC01F192BF01C5010E943213EC0140
:1047E000F99280E3A80EB11CC5010E94C60D082FE6
:1047F000C5010E94A20D182FC5010E94860D1F92AF
:104800000F931F921F931F928F9384E394E09F93C3
:104810008F93DF93CF930E947631C80FD91FF992FF
:104820001F92CF928CE394E09F938F93DF93CF936B
:104830000E947631C80FD91FFE01F192CF0161EAC3
:1048400074E00E947F301C82DF92EF9285EA94E050
:104850009F938F930E942F318DB79EB744960FB6CA
:10486000F8949EBF0FBE8DBFDF91CF911F910F9126
:10487000FF90EF90DF90CF90BF90AF900895CF93CF
:10488000DF93CDB7DEB7E2970FB6F894DEBF0FBE69
:10489000CDBFBE016F5F7F4F0E94CC23CE0101963A
:1048A0000E94BD23E2960FB6F894DEBF0FBECDBFC7
:1048B000DF91CF9108950F931F93CF930E944E23C2
:1048C000C82F192F85EB94E09F938F930E942F316F
:1048D0001F93CF9383E393E09F938F930E942F3195
:1048E0000F900F900F900F900F900F9002E310E039
:1048F000C8010E947725C82F90E00E944331CB3336
:1049000059F48CEB91E00E944A310F5F1F4F0F3F2B
:104910008FE3180769F702C0CF3FB9F7CF911F9116
:104920000F910895AF92BF92CF92DF92EF92FF92D4
:104930000F931F93CF93DF93EC0189E190E00E94E6
:104940007725E82EF12C89E190E00E947725F82A5E
:104950008BE190E00E947725082F10E08BE190E03A
:104960000E947725182B80E0E016F10609F455C067
:104970008BE7888384E4898380910C051F928F9351
:104980008CE394E09F938F938E010E5F1F4F1F93D4
:104990000F930E947631080F191F8CE2F801819362
:1049A0006F012BE22E9DC0012F9D900D11245C0103
:1049B000F2E3AF0EB11C7C012DE5E20EF11C0F906D
:1049C0000F900F900F900F900F90C5010E947725C8
:1049D000F60181936F01FFEFAF1ABF0AAE14BF0457
:1049E000A1F78DE7F80181831282FE01019000207A
:1049F000E9F73197EC1BFD0BFF93EF93DF93CF9318
:104A000084EC94E09F938F930E942F310F900F902E
:104A10000F900F900F900F9081E0DF91CF911F9139
:104A20000F91FF90EF90DF90CF90BF90AF900895DF
:104A300085E08093B800E9EBF0E080818C7F808393
:104A4000089534EA40EA54E83093BC002091BC0059
:104A500027FFFCCF2091B900287F283011F080E09B
:104A600008954093BB005093BC002091BC0027FFE9
:104A7000FCCF2091B900287F283131F79093BB00FB
:104A800094E89093BC009091BC0097FFFCCF90916C
:104A9000B900987F983219F78093BB0084E880931F
:104AA000BC008091BC0087FFFCCF8091B900887F5B
:104AB0008832A9F66093BB0084E88093BC008091A3
:104AC000BC0087FFFCCF8091B900887F883239F61F
:104AD00084E98093BC008091BC0084FDFCCF8FEB07
:104AE0009DE50197F1F700C0000081E0089534EAE8
:104AF00040EA54E83093BC002091BC0027FFFCCF73
:104B00002091B900287F283009F05BC04093BB009A
:104B10005093BC002091BC0027FFFCCF2091B9002E
:104B2000287F283139F79093BB0094E89093BC001C
:104B30009091BC0097FFFCCF9091B900987F98327C
:104B400009F03FC08093BB0084E88093BC00809153
:104B5000BC0087FFFCCF8091B900887F883289F53F
:104B600084EA8093BC008091BC0087FFFCCF8091D9
:104B7000B900887F803129F581EA8093BB0084E801
:104B80008093BC008091BC0087FFFCCF8091B9006E
:104B9000887F8034B1F484E88093BC008091BC00AD
:104BA00087FFFCCF8091B900887F883551F48091D0
:104BB000BB0094E99093BC009091BC0094FDFCCFA5
:104BC000089580E00895EF92FF920F931F93CF9383
:104BD000DF938C01EB017B01E40EF11CCE15DF05A8
:104BE00079F06991C8010E9421250F5F1F4F811143
:104BF000F5CFDF91CF911F910F91FF90EF90089526
:104C000081E0F7CFA5E1B0E0E8E0F6E20C94E02C1B
:104C10007C011B015A01DC0117961C921E9216970B
:104C200013968C9181FF68C3FE0131964F01D70125
:104C300013969C91F10193FD859193FF81911F0142
:104C4000882309F4EDC2853239F493FD859193FFF1
:104C500081911F01853239F4B70190E00E94FF3045
:104C600065015601E4CF10E0512C00E0003238F429
:104C70008B3209F190F48032F9F0833209F107FDAB
:104C800034C020ED280F2A3020F506FF1BC0BAE003
:104C90001B9F200D1124122F05C08D3279F0803317
:104CA00071F70160F10193FD859193FF81911F01DF
:104CB0008111DCCF1AC002600460F4CF0860F2CF2B
:104CC0000061F0CFEAE05E9E200D1124522E0062BA
:104CD000E9CF8E3221F406FDA3C20064E3CF8C3607
:104CE00011F40068DFCF8836E9F29BEB980F933020
:104CF00008F073C00061805E06FF16E00F73702E2F
:104D0000853609F071C0689476F877FE77C0812FF8
:104D10001C3308F08BE344244394480E27E0D5016C
:104D20004D915D916D917D916D014C875D876E8791
:104D30007F87042DA4016C857D858E859F850E94CB
:104D4000932F5C01B981BC87B0FF04C06DE2662E71
:104D5000B3FF0BC05BE2652E71FC07C0E72DE4706A
:104D60006E2E72FE02C070E2672E0C850C7009F484
:104D700056C06110C4C2F3E000E0F51598F483E07A
:104D8000052D081B73FC07C0B70180E290E00E946C
:104D9000FF300150C9F7662029F0B701862D90E059
:104DA0000E94FF30FC8548E6A42E40E0B42EF3FDBF
:104DB00004C03CE6A32E30E0B32E172D1071F50190
:104DC0008491811122C0002309F44BCFB70180E206
:104DD00090E00E94FF300150F6CF9BE9980F93308E
:104DE00008F041C10F7E88CF863619F4689477F8B1
:104DF0008CCF112309F489CF115087CF212F183080
:104E000010F027E017E0412C8ACF11118052B70132
:104E100090E00E94FF302FEFA21AB20AD0CF77FEA7
:104E200078C04A0CFC85F4FF04C08A81813309F400
:104E30004A9414140CF090C028E0241510F428E0D3
:104E4000422E85E090E077FE06C0C501B7FE02C0A5
:104E500090E080E0019661100196112331F0212F3E
:104E600030E02F5F3F4F820F931F5816190619F03D
:104E700014F0052D081B872D897011F4011171C0E4
:104E8000662029F0B701862D90E00E94FF3073FC68
:104E900002C001116DC077FE98C0B98AA88AB7FE1A
:104EA00002C0198A188A68887988A50144195109AD
:104EB0005D8B4C8B412E512C662777276419750921
:104EC0007B8B6A8BA614B7040CF459C08C899D891E
:104ED000861597050CF053C0F501E619F709E80DA2
:104EE000F91D818191E0691A7108AA89BB896A1646
:104EF0007B060CF446C0B70190E00E94FF30BFEF84
:104F00006B167B06F9F6B7018EE290E00E94FF3047
:104F1000D9CF76FC96CFE12FF0E0EA15FB053CF007
:104F20003CEFA3163FEFB30614F0689477F832967F
:104F3000E80DF91D01C01150112319F08291803341
:104F4000D1F377FE7ECF44244394410E1A151B04FF
:104F500031F02CF01A1975CF4424439472CF10E02D
:104F600070CFB70180E290E00E94FF30015086CF01
:104F7000B70180E390E00E94FF3001508ACF80E3C8
:104F8000B1CF688979896150710940945094E8895A
:104F9000F9894E165F06A4F4461A570A460E571EA4
:104FA000A414B50441F49A81963368F4953319F446
:104FB000FC85F4FF08C0B70190E00E94FF3003CFEA
:104FC000512C412CEBCF81E3F6CF8A81813319F04C
:104FD0002C852F7E2C87B70190E00E94FF30112393
:104FE000A9F0B7018EE290E00E94FF3092E0692EB6
:104FF000610E12E0E12F1F5FE80DF92DF11D808198
:10500000B70190E00E94FF306112F4CF85E690E096
:1050100074FE02C085E490E0B7010E94FF30B7FC47
:1050200006C0A114B104C1F43C8534FF15C0B1948D
:10503000A194B1088DE2B70190E00E94FF3080E3B7
:105040005AE0A516B10454F4B70190E00E94FF3075
:10505000B701C501C096B1CF8BE2EDCF8F5F4AE0BB
:10506000A41AB108EDCF8336B9F0833709F43CC0F8
:10507000833509F04FC0D501AD90BD906D01612F12
:1050800070E006FD02C06FEF7FEFC5010E946B303C
:105090003C01102F10680DC0650162E0C60ED11CE6
:1050A000D5018C91898366246394712C5401102F4F
:1050B0001F7713FD04C05614170409F020F5052DC1
:1050C0006114710409F47FCEF50117FD859117FF76
:1050D00081915F01B70190E00E94FF300111015002
:1050E000B1E06B1A7108ECCFF501A190B1906F019E
:1050F000612F70E006FD02C06FEF7FEFC5010E94D7
:1051000095303C01D4CFB70180E290E00E94FF309F
:105110005A94D1CF843619F0893609F070C007FF50
:1051200065C0F50161917191819191916F010F7647
:1051300097FF08C090958095709561957F4F8F4F30
:105140009F4F00682AE030E0A4010E949931A82E08
:10515000A818BA2C602E06FF0BC0E89460F8A116C0
:1051600038F404FF04C002FD02C00E7E602EB12E92
:1051700064FE9AC0FE01EA0DF11D8081803309F0C2
:105180008CC0562D597E652E062D087063FC9BC081
:1051900060FE95C01A2DB51410F4150D1B1964FE90
:1051A00098C0B70180E390E00E94FF3062FE09C022
:1051B00088E790E061FE02C088E590E0B7010E94B8
:1051C000FF30A11608F491C0AA94B12C6FEFA61A73
:1051D000B60AA80CB91CD5018E915D01B70190E00B
:1051E0000E94FF30A814B904B1F7EDCDD5016D913F
:1051F0007D916D01072E000C880B990B98CF702EB6
:10520000E89474F82AE030E0853739F1B02FB97F9F
:105210007B2E8037A9F058F48835A9F08F36D9F065
:10522000F701868197816596E2E10C94FC2C883722
:10523000B9F774FE02C0689472F820E130E00DC046
:10524000689474F8F6CF04FF03C0EB2FE6607E2E5F
:1052500020E132E002C028E030E077FE16C0D50140
:105260004D915D916D917D916D014C875D876E874C
:105270007F87A4016C857D858E859F850E949931ED
:10528000A82EA818072D0F7764CFF5018191919171
:105290006F01AC0170E060E0E8CF62FC02C0B39443
:1052A00073CFB394B39470CF862D867809F46CCF06
:1052B000F6CFB70180E290E00E94FF30B394B514BE
:1052C000C0F300E06CCF052D0B19B51408F467CFBF
:1052D000F8CF862D867809F474CF8BE261FE80E2E8
:1052E00067FC8DE2B70190E06ACFB70180E390E000
:1052F0000E94FF30115065CF8FEF9FEF94CF24E0D5
:1053000000E0251508F049CD84E03ACDCDB7DEB7F1
:1053100061970FB6F894DEBF0FBECDBF0E94F308B1
:105320008DE691E00E944A310E94BB1A0E948B13C5
:1053300061E084E695E00E9426110E942020B82EAC
:105340000E945E080E94BB1A8CE891E00E944A31DC
:105350000E94BA130E94D60686EA91E00E944A3162
:105360000E94B60680E00E9450070E94D6066CE0BC
:1053700075E08AE090E00E94772264E170E081E3CA
:1053800095E00E94322367E170E082E495E00E949C
:1053900032236AE170E083E595E00E9432238EEBD0
:1053A00091E00E944A31809132058F9380913105BE
:1053B0008F93809134058F93809133058F938091E3
:1053C00036058F93809135058F9300E813E01F9386
:1053D0000F930E942F31809143058F938091420556
:1053E0008F93809145058F93809144058F93809191
:1053F00047058F93809146058F931F930F930E94CB
:105400002F31809154058F93809153058F93809114
:1054100056058F93809155058F93809158058F93F2
:10542000809157058F931F930F930E942F310FB6D2
:10543000F894DEBF0FBECDBF809135059091360543
:1054400048976CF48091330590913405CC973CF4E7
:105450008091310590913205CC970CF44FC08BEDC3
:1054600091E00E944A310E949506809132058F9307
:10547000809131058F93809134058F93809133050E
:105480008F93809136058F93809135058F9300E837
:1054900013E01F930F930E942F31809143058F9348
:1054A000809142058F93809145058F9380914405AB
:1054B0008F93809147058F93809146058F931F931B
:1054C0000F930E942F31809154058F938091530543
:1054D0008F93809156058F93809155058F9380917E
:1054E00058058F93809157058F931F930F930E94B8
:1054F0002F310FB6F894DEBF0FBECDBF80910C05E3
:105500001F928F938AEE91E09F938F930E942F3189
:1055100086E5E82E86E0F82E8BE78093560684E435
:105520008093570680910C051F928F9389EF91E02D
:105530009F938F9388E596E09F938F930E94763197
:105540008C01085A194F809132058F938091310553
:105550008F93809134058F93809133058F93809141
:1055600036058F93809135058F9390E0C92E92E098
:10557000D92EDF92CF921F930F930E947631080F9E
:10558000191F809154058F93809153058F938091BB
:1055900056058F93809155058F93809158058F9371
:1055A000809157058F93DF92CF921F930F930E94A4
:1055B0007631080F191F1F92BF9285EC93E09F93DD
:1055C0008F931F930F930E947631F801E80FF91F14
:1055D0008DE780831182F70101900020E9F78F01A8
:1055E000075516400FB6F894DEBF0FBECDBFFF9231
:1055F000EF928AE092E09F938F930E942F31102FB9
:10560000602FC7010E94B1050F900F900F900F906F
:1056100020E8C22E29EAD22E23E0E22EF12C0E94AD
:105620005E080E94BB1A0E94BA130E94D6060E940E
:105630002020C0928C06D0928D06E0928E06F092C9
:105640008F061092E9058091E905811104C084E676
:1056500095E00E94661186E596E00E9492248823D8
:1056600009F46BC00E948D0580E00E94710462E322
:1056700086E596E00E941C030E94060381E00E94DA
:10568000500780918C0690918D06A0918E06B09166
:105690008F06892B8A2B8B2BB1F68091640588238A
:1056A00009F442C084E995E00E94860D90E09E8353
:1056B0008D8384E995E00E94A20D90E09C838B830A
:1056C00084E995E00E94C60D90E09A83898386E87C
:1056D00095E00E946A0D90E098878F8386E895E0B8
:1056E0000E943D0D90E09A87898786E895E00E94A8
:1056F0001A0D9C878B87CE0101960E94D3140E94BD
:10570000D60681E080930E05612F86E596E00E9423
:10571000B1058FE095E00E945F180E94D6060E94B6
:1057200074080E9438097BCF80910E058111ECCF5F
:105730000E9461060E94D606E7CF8091E90581119B
:10574000A0CFABCFE0E9F6E014AA13AA16AA15AAD7
:1057500081E087AB10AE11AE12AE13AE10925506BB
:105760001092540684E695E00C94780970E060E0AD
:105770008EE099E00E94B5309093D3068093D206D4
:105780000895DB018F939F930E942D2CBF91AF91C1
:10579000A29F800D911DA39F900DB29F900D11248B
:1057A0000895991B79E004C0991F961708F0961B7D
:1057B000881F7A95C9F780950895AA1BBB1B51E1F4
:1057C00007C0AA1FBB1FA617B70710F0A61BB70B71
:1057D000881F991F5A95A9F780959095BC01CD0116
:1057E000089597FB072E16F4009407D077FD09D093
:1057F0000E94DD2B07FC05D03EF4909581959F4FCC
:105800000895709561957F4F0895A1E21A2EAA1B05
:10581000BB1BFD010DC0AA1FBB1FEE1FFF1FA21760
:10582000B307E407F50720F0A21BB30BE40BF50B5D
:10583000661F771F881F991F1A9469F760957095E6
:10584000809590959B01AC01BD01CF010895EE0FAD
:10585000FF1F0590F491E02D09940E944D2DA59F06
:10586000900DB49F900DA49F800D911D112408955B
:10587000B7FF0C942D2C0E942D2C821B930B0895A6
:10588000689401C0E894F92FF12B12F00C94742C59
:10589000A0E0B0E0EEE4FCE20C94E62C092E0594C6
:1058A00022F40E94D02C112392F4F0E80F26FFEF8F
:1058B000E094F09400951095B094C094D094A19485
:1058C000BF0ACF0ADF0AEF0AFF0A0F0B1F0B0E9465
:1058D0007F2C07FC0E94D02CCDB7DEB7ECE00C94F7
:1058E000022D689401C0E8948F929F92CF93DF932A
:1058F0000E947F2CDF91CF919F908F9008958824F4
:105900009924F401E401B0E49F93AA279A158B042B
:105910009C04ED05FE05CF05D007A10798F4AD2F37
:10592000DC2FCF2FFE2FE92D982C892E982F872F33
:10593000762F652F542F432F322F2227B85031F75F
:10594000BF9127C01B2EBF91BB27220F331F441FBF
:10595000551F661F771F881F991F881C991CEE1FF3
:10596000FF1FCC1FDD1FAA1FBB1F8A149B04EC0561
:10597000FD05CE05DF05A007B10748F08A189B0892
:10598000EC09FD09CE09DF09A00BB10B21601A94C7
:10599000E1F62EF49401AF01BE01CD01000C089593
:1059A000609570958095909530954095509521958E
:1059B0003F4F4F4F5F4F6F4F7F4F8F4F9F4F089518
:1059C0002F923F924F925F926F927F928F929F920F
:1059D000AF92BF92CF92DF92EF92FF920F931F93FD
:1059E000CF93DF93CDB7DEB7CA1BDB0B0FB6F894AE
:1059F000DEBF0FBECDBF09942A88398848885F84EE
:105A00006E847D848C849B84AA84B984C884DF805E
:105A1000EE80FD800C811B81AA81B981CE0FD11D42
:105A20000FB6F894DEBF0FBECDBFED010895002E76
:105A3000083090F0982F872F762F652F542F432F03
:105A4000322F22270850F4CF220F331F441F551F37
:105A5000661F771F881F991F0A95B2F7002D0895BA
:105A600097FD1094002E083098F00850232F342F03
:105A7000452F562F672F782F892F912DF4CF15940E
:105A80009795879577956795579547953795279576
:105A90000A95AAF71124002D0895A29FB001B39F83
:105AA000C001A39F700D811D1124911DB29F700D27
:105AB000811D1124911D08955058BB27AA270E94CB
:105AC000742D0C94C52E0E94B72E38F00E94BE2E65
:105AD00020F039F49F3F19F426F40C94B42E0EF400
