:100000000C94B7000C9441090C94DF000C94DF00B1
:100010000C94DF000C94DF000C94DF000C94730848
:100020000C94DF000C94DF000C94DF000C94DF00D4
:100030000C94DF000C94DF000C94E1000C94DF00C2
:100040000C94DF000C94DF000C94C2080C94DF00C9
:100050000C94DF000C94DF000C94DF000C94DF00A4
:100060000C9480190C94DF006E616E00696E66005E
:1000700000407A10F35A00A0724E18090010A5D45F
:10008000E80000E87648170000E40B54020000CABC
:100090009A3B000000E1F505000080969800000002
:1000A00040420F000000A086010000001027000061
:1000B0000000E803000000006400000000000A00E7
:1000C000000000000100000000002C76D888DC67EA
:1000D0004F0823DFC1DFAE59E1B1B796E5E3E45342
:1000E000C63AE651997696E8E6C28426EB898C9B5F
:1000F00062ED407C6FFCEFBC9C9F40F2BAA56FA5FF
:10010000F490055A2AF75C936B6CF9676DC11BFC80
:10011000E0E40D47FEF520E6B500D0ED902E03009B
:10012000943577050080841E080000204E0A0000E8
:1001300000C80C333333330F986E12831141EF8DA7
:100140002114893BE65516CFFEE6DB18D1844B38E7
:100150001BF77C1D901DA4BBE424203284725E2218
:100160008100C9F124ECA1E53D27D32BE72B112415
:100170001FBECFEFD8E0DEBFCDBF14E0A0E0B1E0FE
:10018000ECE3F7E602C005900D92AC39B107D9F760
:1001900027E0ACE9B4E001C01D92AE37B207E1F749
:1001A00010E0C7EBD0E004C02197FE010E94582C5C
:1001B000C53BD107C9F70E94CA290C9473330C942C
:1001C00000001F921FB61F9211248F939F93EF93ED
:1001D000FF938091A504813019F59091A4048FEFCD
:1001E000890F9130D9F48091A1049091A20480FFED
:1001F00043C0289A8091A1049091A2049695879576
:100200009093A2048093A1048091A30481508093D1
:10021000A304811102C01092A50483E08093A4047A
:100220008091A704811120C08091A004882331F11E
:1002300080919E04815080939E04811115C010927C
:10024000A0041092A604E091A904F0E080919C041F
:10025000E655FB4F80838091A9048F5F8093A904AA
:10026000803210F01092A904FF91EF919F918F912D
:100270001F901FBE1F9018952898BCCF8091A60490
:10028000811110C01999F0CF81E08093A6041092DB
:100290009C0494E090939E0498E090939D04809336
:1002A0009F04E2CF90919E048FEF890F9130B9F4B3
:1002B00080919F04199B05C090919C04982B90936A
:1002C0009C04880F80939F0480919D0481508093AB
:1002D0009D04811103C081E08093A00483E080939A
:1002E0009E04C2CF1092A5041092A6041092A704F7
:1002F000289A209A21989FB7F89481E287BD82E0DE
:1003000084BD85BDEEE6F0E080818260808316BC0E
:100310009FBF08951092A704089581E08093A704D9
:1003200008959091A8048091A9049817E1F3E92F0A
:10033000F0E0E655FB4F80819F5F903218F4909378
:10034000A80408951092A80408959091A90481E04A
:100350002091A804291301C080E008951092A904F7
:100360001092A80408959091A50481E0913009F0BD
:1003700080E008959091A5049130E1F393E090938B
:10038000A4049AE09093A304880F990B9260909331
:10039000A2048093A10481E08093A5040895CF93E3
:1003A000DF93EC018991882319F00E94BA01FACFFA
:1003B000DF91CF910895CF93DF93EC01FE018491FB
:1003C0002196882319F00E94BA01F8CFDF91CF91CE
:1003D0000895CF93DF93D82FC62F60E083E40E9467
:1003E000FB078D2F0E94E3058C2F0E94E305C82F89
:1003F00060E083E40E94D7078C2FDF91CF910895AE
:1004000060E08F770C94E9018AE10E94000240913C
:10041000CC045091CD046091CE047091CF0441156D
:10042000514A6C4B734318F09DE9891B089594EA77
:10043000FCCF89E10E94000285958595089583E1AE
:100440000E9400029091CB04891B08950E941F0214
:10045000882341F08091CB048F5F8093CB0480E0B0
:100460000C9400028FEF08958EE10E9400028295A5
:100470008F700895CF93DF9300D000D0CDB7DEB753
:100480008DE10E94000290E09C0144E035952795A3
:100490004A95E1F7803A9105E0F4F901EE0FFF1F6C
:1004A000E20FF31FE95FFE4F80819181A2819C01E1
:1004B0004A2F50E029833A834B835C8369817A8198
:1004C0008B819C810F900F900F900F90DF91CF91B7
:1004D000089580E291EAA7E0B0E089839A83AB8334
:1004E000BC83ECCFCF92DF92EF92FF920F931F93DA
:1004F000CF93DF9300D000D000D0CDB7DEB788E235
:100500000E940002877090E0B0E0A0E0CC24D82EDA
:10051000E92EFA2E89E20E940002C80ED11CE11CCD
:10052000F11CFE2CED2CDC2CCC248AE20E94000273
:10053000C80ED11CE11CF11C88E20E94000283FF5E
:1005400003C088E0E81AF1080E943A028B018E830A
:100550009D83C701B6010E94A42E20E030E040E850
:100560005BE469837A838B839C8369817A818B8145
:100570009C810E94302F20E034E244EF5BE46983E9
:100580007A838B839C8369817A818B819C810E9491
:10059000FA2D6B017C01B8018E819D810E94A22EF3
:1005A00020E034E244EF58E469837A838B839C83B0
:1005B00069817A818B819C810E94FA2D9B01AC011B
:1005C000C982DA82EB82FC8269817A818B819C818B
:1005D0000E94302F69837A838B839C8369817A811F
:1005E0008B819C810E946C2E26960FB6F894DEBFFC
:1005F0000FBECDBFDF91CF911F910F91FF90EF9074
:10060000DF90CF90089580680C94E90163E881E859
:100610000E94E90182E10E94000283FD07C08FE190
:100620009EE40197F1F700C00000F4CF68E082E992
:100630000E94E90181E00895DF92EF92FF920F930B
:100640001F93CF93DF93F82EE92EC62F82E20E94EC
:100650000002D82F2C2F280F3327331F2F3F3105AF
:1006600019F010F0CD2FC095DF2C0F2D1E2D802FEF
:100670008D198C1738F4F80161918F0180E80E9480
:10068000E901F5CF6D2F6C0F82EA0E94E9018C2FF2
:10069000DF91CF911F910F91FF90EF90DF90089520
:1006A000CF93DF930E941F02882381F08DE00E9488
:1006B0000002D82F80E00E940002C82F6D2F8DE825
:1006C0000E94E9018C2FDF91CF9108958FEFFBCF2E
:1006D00061E881E80C94E90160E881E80C94E901A3
:1006E0000C946C03682F823108F061E1623008F4E9
:1006F00062E06250606889E80C94E901AF92BF92B1
:10070000CF92DF92EF92FF920F931F93CF93DF93DD
:10071000382F292FCB01A32FB22F8093CC04909395
:10072000CD04A093CE04B093CF049B01AD0160E053
:1007300070E080E090E003E10E94482DA12CE8E405
:10074000BE2EF8EECF2EDD24D394E12CF12C00E068
:1007500010E00E94A42CC22FB32E6A017B01182F37
:10076000D92F00E10E94632D622F86E80E94E901E3
:100770002C2F3B2DA601B701812F9D2F08E00E9451
:10078000632D622F87E80E94E9016C2F88E8DF91D2
:10079000CF911F910F91FF90EF90DF90CF90BF907E
:1007A000AF900C94E9010F931F93CF93DF938B01CC
:1007B000D82FC92F60E083E40E94B30760E083E490
:1007C0000E94D70761E083E40E94B30761E083E4FD
:1007D0000E94FB078FE19EE40197F1F700C0000043
:1007E00061E083E40E94D7078FE19EE40197F1F76F
:1007F00000C0000082E40E940002823131F50E94B4
:100800006C03B8018D2F9C2F0E947E0360E08EE860
:100810000E94E90160E08FE80E94E9018CE00E94FB
:100820000002682F63608CE80E94E90164E086EAB8
:100830000E94E90184E10E9472030E94680381E042
:10084000DF91CF911F910F91089580E0F9CFCF9361
:10085000C82F893008F0C8E08DE10E9400026C2F9B
:10086000C53008F465E06450770B660F771F817F11
:10087000682B8DE9CF910C94E901CF93C82F692F94
:1008800080EA0E94E9016C2F81EACF910C94E90182
:10089000682F89EB0C94E9018EE10E940002682F19
:1008A00064608EE90C94E9018EE10E940002682FD9
:1008B0006B7F8EE90C94E9011092CA048DE10E94CD
:1008C0000002682F6E7F8DE90C94E90181E080932E
:1008D000CA048DE10E940002682F61608DE90C94CA
:1008E000E901CF93C82F0E946803CC2369F00E94CE
:1008F000660460E08DE80E94E90160E082EA0E94FF
:10090000E90181E0CF9108950E945C04F2CFCF937A
:10091000DF93D82F82E10E940002C82FDD2329F146
:100920000E9466046D2F82EA0E94E9016C2F82E921
:100930000E94E901C6FF1EC0C5FD1CC01092CB0479
:100940008091CA048823A1F082E20E940002C82F8D
:1009500080E10E940002682F8DE80E94E9010E9458
:1009600068038C2FDF91CF9108950E945C04DECF45
:1009700083E1EBCF81E00E940002863841F060E025
:100980008DE80E94E90166E881E80E94E901C0E083
:10099000E8CFCF93DF93EC011816190664F40E9498
:1009A00066046C2F82EA0E94E90165E881E8DF9124
:1009B000CF910C94E9010E945C04F7CFCF92DF92B3
:1009C000EF92FF92CF93DF930E943A026B017C017A
:1009D0000E943402D82F86E20E940002C82FA7018D
:1009E000960104C05695479537952795DA95D2F725
:1009F00068EE73E080E090E00E94362C6C2F21318D
:100A000031054105510550F0686086EADF91CF91CC
:100A1000FF90EF90DF90CF900C94E901677FF5CFC6
:100A2000CF93C82F863020F08D30D0F48630C9F4B3
:100A300065EC81EB0E94E9016CE087EB0E94E90123
:100A4000C6E08EE10E9400028F7090E1C99FB00164
:100A50001124682B8EE90E94E901CF910C94DE04E9
:100A6000CCE063EC81EB0E94E9016AE087EB0E9435
:100A7000E901E7CFCF93462F572FBC01C0E049379C
:100A80008EE1580761057105C8F1C1E0413A98E26D
:100A900059076105710590F1C2E0413F8CE35807A9
:100AA0006105710558F1C3E0413491E559076105CD
:100AB000710520F1C4E043318AE7580761057105EB
:100AC000E8F0C5E0453E92EA590761057105B0F0CE
:100AD000C6E0453284EF58076105710578F0C7E03C
:100AE000493498EE590791E06907710538F0C9E07B
:100AF0004139504D6340710508F4C8E08DE10E9412
:100B000000028F7090E1C99FB0011124682B8DE91C
:100B10000E94E901CF910C94DE040F9362E082E41D
:100B20000E94B30762E082E40E94FB0700E020E03D
:100B300040E061E080E00E94C40560EC7AEC89E866
:100B400096E30E94D303811101C0FFCF62E17AE7EF
:100B500080E090E00F910C943A051F93CF93DF93C0
:100B6000D82FC92F162F0E948D0580E00E94710496
:100B7000612F8D2F9C2F0E941C030E940603DF9182
:100B8000CF911F910C946C030F9394B1986294B918
:100B900024982C9A30E2839FC00111248072237024
:100BA000822B94E0499FA00111244C70842B30E1EA
:100BB000639FB00111246071862B80648CBD01702D
:100BC0000DBD0F9108958EBD0DB407FEFDCF8EB5FE
:100BD0000895AF92BF92CF92DF92EF92FF920F9360
:100BE0001F93CF93DF93EC01B62EAA24A39488E839
:100BF000C82E83E1D82EE12CF12C02E310E08DA960
:100C00009EA92BA93CA928173907C1F12CAD222395
:100C100021F02130B1F01CAE0BC08C0F9D1FFC01E8
:100C200081818B3729F4ACAEC8AED9AEEAAEFBAE4B
:100C30008DA99EA90196B8010E94222C9EAB8DAB76
:100C4000DECF8C0F9D1FFC01618184EE95E06D3736
:100C500041F40E9416206B2D84EE95E00E947A1BD1
:100C6000DACF0E9416208111D6CF88AD99ADAAADFA
:100C7000BBAD892B8A2B8B2B71F2DACFDF91CF9111
:100C80001F910F91FF90EF90DF90CF90BF90AF90AA
:100C90000895FC0187A9882379F080AD91ADA2ADBC
:100CA000B3AD0097A105B10539F00197A109B109CC
:100CB00080AF91AFA2AFB3AF0895CF93DF93CDB71D
:100CC000DEB761970FB6F894DEBF0FBECDBFE3ED80
:100CD000F4E086A197A19E838D8384A195A19C8336
:100CE0008B8382A193A19A8389838EE090E0988779
:100CF0008F8381E090E09A87898786E190E09C87E6
:100D00008B87CE0101960E94E41481E08093D20487
:100D100061960FB6F894DEBF0FBECDBFDF91CF91C5
:100D20000895E3EDF4E089E090E097A386A315A28F
:100D300014A213A212A210921C0510921B058AE0A5
:100D400090E090931A05809319051092180510925F
:100D5000170582E190E090AF87AB16AA15AA14AAF6
:100D600013AA08950E948D0580E197E2A0E0B0E00B
:100D700080934D0690934E06A0934F06B093500675
:100D800061E085E596E00E94E90580914D0690912D
:100D90004E06A0914F06B0915006892B8A2B8B2BC3
:100DA00079F7089544EE54E066EE74E088EE94E03E
:100DB0000E94851485E491E09F938F930E94603197
:100DC000E3EDF4E082898F9381898F9384898F93F7
:100DD00083898F9386898F9385898F9386E193E0AA
:100DE0009F938F930E9460318DB79EB70A960FB67E
:100DF000F8949EBF0FBE8DBF089585E596E00E94D2
:100E000049068091510690915206A0915306B091E7
:100E100054060097A105B10559F00197A109B10940
:100E20008093510690935206A0935306B0935406B4
:100E300080914D0690914E06A0914F06B0915006BC
:100E40000097A105B10559F00197A109B109809357
:100E50004D0690934E06A0934F06B093500688E23D
:100E600095E00C941513282F8093550680918806E1
:100E700090918906FC01EB5AF94F21830196823348
:100E800091052CF49093890680938806089510921A
:100E90008906109288060895CF93C82F0E948D0569
:100EA00088EB9BE0A0E0B0E080934D0690934E0667
:100EB000A0934F06B093500680914D0690914E0638
:100EC000A0914F06B0915006892B8A2B8B2BC9F02D
:100ED00080E00E948704882379F30E941F02882300
:100EE00029F00E9426020E943307F7CF60E085E5D3
:100EF00096E00E94E905C23031F48091D204882343
:100F0000D9F2CF910895C130B9F68091D1048823E8
:100F100099F21092D104F5CF833479F08434C1F082
:100F2000823401F524B181E090E001C0880F6A9518
:100F3000EAF78095822384B9089527B181E090E093
:100F400001C0880F6A95EAF78095822387B90895D2
:100F50002AB181E090E001C0880F6A95EAF7809598
:100F600082238AB90895833471F08434B1F08234D5
:100F7000E9F484B121E030E001C0220F6A95EAF77C
:100F8000822B84B9089587B121E030E001C0220F9F
:100F90006A95EAF7822B87B908958AB121E030E09B
:100FA00001C0220F6A95EAF7822B8AB9089583342B
:100FB00071F08434B1F08234E9F485B121E030E09D
:100FC00001C0220F6A95EAF7822B85B9089588B18E
:100FD00021E030E001C0220F6A95EAF7822B88B940
:100FE00008958BB121E030E001C0220F6A95EAF745
:100FF000822B8BB90895833479F08434C1F0823424
:1010000001F525B181E090E001C0880F6A95EAF70B
:101010008095822385B9089528B181E090E001C0D0
:10102000880F6A95EAF78095822388B908952BB1D5
:1010300081E090E001C0880F6A95EAF780958223ED
:101040008BB90895442319F0413019F008950C9498
:10105000FB070C94D7078334B1F08434B1F08234A9
:10106000B1F423B181E090E0062E02C0880F991FF1
:101070000A94E2F730E08223932302C09595879586
:101080006A95E2F7089526B1EDCF29B1EBCF81E063
:1010900008950895E1E8F0E08081826080830895FA
:1010A000109281000895809184009091850096951A
:1010B000879508951092B200E0EBF0E080818260A5
:1010C00080838EE38093B30017BAE0E7F0E080817D
:1010D00082608083E1EBF0E0808185608083089509
:1010E0001092B10008951F920F920FB60F92112423
:1010F0002F933F934F935F936F937F938F939F9320
:10110000AF93BF93EF93FF930E94FD0617BA8091B0
:10111000930690919406A0919506B091960601963B
:10112000A11DB11D8093930690939406A0939506FC
:10113000B0939606FF91EF91BF91AF919F918F91E0
:101140007F916F915F914F913F912F910F900FBEC3
:101150000F901F901895CF93DF9300D000D0CDB79C
:10116000DEB78091930690919406A0919506B09178
:101170009606BC01CD010F900F900F900F90DF915C
:10118000CF9108951F920F920FB60F9211242F93B3
:101190003F934F935F936F937F938F939F93AF93FF
:1011A000BF93EF93FF938091C60080939206809146
:1011B00092060E94330782E08093C000FF91EF9176
:1011C000BF91AF919F918F917F916F915F914F915F
:1011D0003F912F910F900FBE0F901F901895809107
:1011E000970690919806909377078093760783E30C
:1011F0008093C4001092C50088E98093C10082E00A
:101200008093C00008959091C00095FFFCCF80931B
:10121000C600089590910001992329F00E940309C6
:1012200090E080E0089581E090E00895EF92FF92D1
:101230000F931F93CF93DF93EB018C01F12CE12CE3
:10124000EC16FD064CF4F80181918F010E94030910
:10125000FFEFEF1AFF0AF4CFCE01DF91CF911F917C
:101260000F91FF90EF90089583B7816083BF83B79C
:10127000817F846083BF7894889583B78E7F83BF96
:101280000895E09A18950F931F93CF93DF93EC0185
:101290008B010E945308998388830A831B83DF9103
:1012A000CF911F910F910895CF93DF93EC010E948E
:1012B00053089C014A815B8181E04115510561F031
:1012C000888199818217930750F4281B390B81E09C
:1012D0002417350708F480E0DF91CF910895281B8B
:1012E000390B21503048F3CFFC0110821182138258
:1012F0001282148215821682178210861286118637
:1013000013861486158616861786118A108A128A05
:10131000138A148A158A168A108E178A118E128ED5
:10132000138E148E158E12A213A214A215A216A249
:1013300017A210AA11AA12AA13AA14AA15AA16AEC5
:1013400017AEDC01DE9616961D921D921D921C9220
:1013500019971E961C9211961C92119716961D9223
:101360001D921D921C9219971E961C9211961C920A
:10137000119716961D921D921D921C9219971E96FA
:101380001C9211961C92119716961D921D921D92F9
:101390001C9219971E961C9211961C9211971696E4
:1013A0001D921D921D921C9219971E961C921196C9
:1013B0001C9211961C9211961C9211961C9250969A
:1013C00082E08C9311961C9211961C9211961C929D
:1013D000119611961C921E92129611961C921E92B4
:1013E00012961D921D921D921C92139714961D9297
:1013F0001D921D921C92139714961D921D921D9280
:101400001C92139714961D921D921D921C92139775
:1014100014961D921D921D921C92139714961D9264
:101420001D921D921C92139714961D921D921D924F
:101430001C921397E757FF4F10820895862F062EB0
:10144000000C990B2FEB260F263010F4C797089548
:101450006156663018F4875591090895C09708952C
:101460001F93CF93DF9300D000D000D0CDB7DEB76D
:101470008D839E83AD81BE811C911D3219F411961E
:10148000BE83AD838D819E810E949D2F69837A8367
:101490008B839C83A4E6B0E09B01AC010E945E2C90
:1014A000AB01BC01ED81FE81FA83E983E981FA8118
:1014B000DF012D91BA83A983822F022E000C990B94
:1014C000C0970A9798F32E3231F58181082E000CCF
:1014D000990BC0978A309105F0F4AAE0A89F90017B
:1014E000A99F300D1124C901330FAA0BBB0B480F64
:1014F000591F6A1F7B1F8281082E000C990BC09711
:101500008A30910540F4092E000CAA0BBB0B480F42
:10151000591F6A1F7B1F1D3239F4709560955095D5
:1015200041955F4F6F4F7F4FCB01BA0126960FB6A3
:10153000F894DEBF0FBECDBFDF91CF911F9108950C
:101540008F929F92AF92BF92EF92FF920F931F9351
:10155000CF93DF93CDB7DEB72D970FB6F894DEBFEC
:101560000FBECDBF8D8799878B010E949D2F24E6EA
:1015700030E040E050E00E94362C490169837A83D4
:101580008B839C839B01AC0160E876E988E990E05D
:101590000E94F22B6D837E838F839887D8018D9272
:1015A0009C92ED85F9852191822F022E000C990BDA
:1015B000C0970A97C0F32E32E9F57F0120E836E99B
:1015C00048E950E029833A834B835C838AE0882E84
:1015D000912CA12CB12CD701ED917D012E2F022E43
:1015E000000C330B205331093A8729872A30310503
:1015F00008F569817A818B819C81A50194010E9403
:10160000362C29833A834B835C83A985BA850E9453
:10161000692C69877A878B879C872D813E814F81D2
:101620005885260F371F481F591F2D833E834F8330
:101630005887D1CFA5E0B0E02D813E814F815885FC
:101640000E945E2CDC01CB010196A11DB11DBC01E5
:10165000CD0123E030E040E050E00E94362CD8017C
:1016600012962D933D934D935C93159716961C926D
:101670002D960FB6F894DEBF0FBECDBFDF91CF9190
:101680001F910F91FF90EF90BF90AF909F908F9020
:101690000895CF93DF9300D000D0CDB7DEB720E020
:1016A00030E044E351E469837A838B839C836981CE
:1016B0007A818B819C810E948E2D20E030E044EB6A
:1016C00051E469837A838B839C8369817A818B81DE
:1016D0009C810E94FA2D69837A838B839C83698124
:1016E0007A818B819C810E946C2E69837A838B83A3
:1016F0009C8389819A8160E170E00E94222CFC0128
:10170000EE0FFF1FEB5DFE4F808191810F900F90D8
:101710000F900F90DF91CF910895CF93DF93EC015D
:1017200087E0FE017096DE01129601900D928A9577
:10173000E1F787E0FE017796DE01199601900D92A0
:101740008A95E1F70E94AB086E8F7F8F88A399A3DB
:1017500081E089838883DF91CF9108959B01BC014B
:10176000605F7F4FC9010C94A00A9B01BC01695EB8
:101770007F4FC9010C94A00AEF92FF920F931F9321
:10178000CF93DF9300D000D000D0CDB7DEB78D83EC
:101790009E83AD81BE8111961C92119714966D9116
:1017A0007D918D919C9117970E94A22E28E23BE695
:1017B0004EE65EE469837A838B839C8369817A81B8
:1017C0008B819C810E94FA2D7B018C01ED81FE8131
:1017D000828193819C0150E040E029833A834B83CE
:1017E0005C83CA01B9010E94A22E9B01AC01E9826F
:1017F000FA820B831C8369817A818B819C810E9490
:101800008E2D462F572FBC0149835A836B837C83CF
:10181000AD81BE8118968C91882339F09A01AB0175
:10182000505829833A834B835C8369817A818B8109
:101830009C8126960FB6F894DEBF0FBECDBFDF9118
:10184000CF911F910F91FF90EF900895EF92FF922B
:101850000F931F93CF93DF9300D000D000D0CDB76C
:10186000DEB78D839E83AD81BE8111961C92119748
:101870001B966D917D918D919C911E970E94A22E39
:1018800028E23BE64EE65EE469837A838B839C83A1
:1018900069817A818B819C810E94FA2D7B018C0168
:1018A000ED81FE81818592859C0150E040E0298395
:1018B0003A834B835C83CA01B9010E94A22E9B012B
:1018C000AC01E982FA820B831C8369817A818B8166
:1018D0009C810E948E2D462F572FBC0149835A832D
:1018E0006B837C83AD81BE811F968C91882339F0F8
:1018F0009A01AB01505829833A834B835C836981F9
:101900007A818B819C8126960FB6F894DEBF0FBE3C
:10191000CDBFDF91CF911F910F91FF90EF90089570
:10192000CF93DF93EB010E94BC0B9F938F937F9328
:101930006F9388EA91E09F938F93DF93CF930E94F8
:10194000A7312DB73EB7285F3F4F0FB6F8943EBF83
:101950000FBE2DBF8C0F9D1FDF91CF910895CF93A8
:10196000DF93EB010E94260C9F938F937F936F93DD
:1019700088EA91E09F938F93DF93CF930E94A731E2
:101980002DB73EB7285F3F4F0FB6F8943EBF0FBE4E
:101990002DBF8C0F9D1FDF91CF910895CF93DF93C3
:1019A000EC018E819F81A885B9858A839B83AC8356
:1019B000BD830E94AB086A877B878C879D8781E007
:1019C00089838883DF91CF910895CF93DF93EC01D2
:1019D0008E819F81A885B9858A839B83AC83BD83D3
:1019E0000E94AB086A877B878C879D8781E089830B
:1019F0008883DF91CF910895CF93DF93EC01CB01E2
:101A00000E94300A6E837F8388879987DF91CF9108
:101A10000895CF93DF93EC01CB010E949D2F6E833D
:101A20007F8388879987DF91CF910895CF93DF9344
:101A300000D000D0CDB7DEB7FC0111828281938146
:101A4000A481B581BC01CD0124E630E040E050E046
:101A50000E94362C69837A838B839C8389819A8147
:101A60008053984F0F900F900F900F90DF91CF9170
:101A70000895CF92DF92EF92FF92CF93DF9300D041
:101A800000D0CDB7DEB7FC01118282819381A481A1
:101A9000B58124E6C22ED12CE12CF12CBC01CD0164
:101AA000A70196010E94362CCA01B901A70196012F
:101AB0000E94362C862F0F900F900F900F90DF9181
:101AC000CF91FF90EF90DF90CF900895CF93DF9369
:101AD00000D000D0CDB7DEB7FC01118282819381A6
:101AE000A481B581BC01CD0120E137E240E050E0A6
:101AF0000E94362C822F0F900F900F900F90DF9145
:101B0000CF910895CF93DF9300D000D0CDB7DEB74B
:101B1000FC01118282819381A481B581BC01CD0138
:101B200020E432E44FE050E00E94362C822F0F90E8
:101B30000F900F900F90DF91CF910895CF93DF9387
:101B400000D000D0CDB7DEB7FC0111828281938135
:101B5000A481B581BC01CD0120E137E240E050E035
:101B60000E94362CCA01B90124E630E040E050E082
:101B70000E94362C862F0F900F900F900F90DF91C0
:101B8000CF910895CF92DF92EF92FF92CF93DF93A0
:101B900000D000D0CDB7DEB7FC01118282819381E5
:101BA000A481B58124E6C22ED12CE12CF12CBC01FC
:101BB000CD01A70196010E94362CCA01B901A701E7
:101BC00096010E94362C862F0F900F900F900F9049
:101BD000DF91CF91FF90EF90DF90CF900895CF935A
:101BE000DF9300D000D0CDB7DEB7FC011182828137
:101BF0009381A481B581BC01CD0124E630E040E0B1
:101C000050E00E94362C862F0F900F900F900F906F
:101C1000DF91CF910895CF93DF93EC018A859B8567
:101C2000AC85BD858E839F83A887B9870E94AB084A
:101C30006A837B838C839D8381E089838883DF91A2
:101C4000CF910895CF93DF93EC01CB010E94300A2E
:101C50006A877B878C879D87DF91CF910895CF938B
:101C6000DF93EC018A859B85AC85BD858E839F8340
:101C7000A887B9870E94AB086A837B838C839D8386
:101C800081E089838883DF91CF910895CF93DF939B
:101C9000EC01CB010E949D2F6A877B878C879D87F3
:101CA000DF91CF910895CF93DF93EC01BC01409673
:101CB0000E94B0300E94AB0868A379A38AA39BA3BB
:101CC00081E08DA38CA3DF91CF91089540E150E096
:101CD0000C94B730AF92BF92DF92EF92FF920F93C6
:101CE0001F93CF93DF93EC01FC01E857FF4FD080A7
:101CF000DD2009F4A0C0319660810E941E0A182FD1
:101D0000FE01E657FF4F6081CE010E941E0A129528
:101D1000107F180FFE01E957FF4F8081811372C0B9
:101D2000B59680819181A281B3810196A11DB11DDB
:101D300080839183A283B3838E0105561F4FD80100
:101D40008C91882361F0389780819181A281B38141
:101D50000196A11DB11D80839183A283B383FE01EF
:101D6000E856FF4F80818823A1F18130C1F4CE0174
:101D700082960E94CE0CCE01C0960E94E50CF8011E
:101D80008081882361F0CE010E948D0BCE01CE961A
:101D90000E940B0ECE01845B9F4F0E940B0E8E01A2
:101DA00002561F4FF801C081D1812097C9F1D80197
:101DB000ED91FC9166A177A18EA19FA10E94A73011
:101DC000892B71F5CE010E94530E0AA4DBA5C02D0C
:101DD000ECCFCE01C0960E94E50CD8018C918823EF
:101DE00041F0CE010E948D0BCE01865A9F4F0E947A
:101DF0000B0ECE0188599F4F0E942F0ECE018A589C
:101E00009F4FCBCFC855DF4F88819981AA81BB8175
:101E10000196A11DB11D88839983AA83BB83D12C10
:101E20008D2DDF91CF911F910F91FF90EF90DF905B
:101E3000BF90AF9008957C01B9E9EB0EF11CF7015A
:101E4000308188569F4F5C018E0102561F4F311121
:101E50003EC07E0199E8E90EF11C60EB71E0C7011C
:101E60000E94A730892B39F066EB71E0C7010E9410
:101E7000A730892B21F481E0D5018C9310C06CEB45
:101E800071E0C7010E94A730892B39F062EC71E044
:101E9000C7010E94A730892BC1F4F5011082C456F6
:101EA000DF4F88819981F80191838083C081D1813E
:101EB000209709F4B5CFB7018EA19FA10E94A7304A
:101EC00097FF98C08AA59BA5EECF82E0D5CFDC0115
:101ED000EC91E230C9F0CE0187579F4FDC012C9185
:101EE000222391F0B0E2EB9FF0011124E32B319714
:101EF000E932F10548F4EB58FC4C0C94582CBC0129
:101F0000CE01C0960E94FC0CF801A080B180C7579A
:101F1000DF4FA114B10409F483CFD801ED91FC91F6
:101F200066A177A1F50186A197A10E94A730892B10
:101F300009F076CFD50198968D919C91F70120817B
:101F4000422F50E0281719060CF46ACF8417950722
:101F500021F4BE01C5010E94660ED5019A96AD908E
:101F6000BC90D7CFFE01E556FF4F81E0213479F1D7
:101F700080E02DC0BE01605F7F4F0E94A00AC4CFE9
:101F800081E0233509F080E08E8BBECFBE01695E13
:101F90007F4FF3CF81E0273509F080E08D8FB4CFFC
:101FA000BC01CE01CE960E94220EAECFBC01CE0166
:101FB000845B9F4FF8CFBC01CE0182960E94090D31
:101FC000A3CFFE01E556FF4F81E021338CF28083E1
:101FD0009BCFBC01CE0188599F4F0E94460E94CFE3
:101FE000BC01CE018A589F4FDECFBC01CE01865A7C
:101FF0009F4FD9CF892B09F413CFD8011D921C9282
:102000000FCFCF92DF92EF92FF921F93CF93DF9388
:10201000EC01162FFC01E056FF4F80819181A281D7
:10202000B3810196A11DB11D80839183A283B383E7
:10203000CE0186569F4F6C01DE01A857BF4F7D0130
:10204000643209F449C0DCF46A3019F16D3009F1E9
:10205000D601EC91EE3048F481E08E0F8C93EC0FBA
:10206000FD2FF11DE757FF4F1083F701808181118C
:1020700042C0C957DF4F68811627188325C06A32CE
:1020800041F06C3229F7FE01E957FF4F8081862726
:102090008083D601EC9180E0EF3048F4EC0FFD2F07
:1020A000F11DE757FF4F1082CE010E946A0EC756FE
:1020B000DF4F98819F5F9883F601108291E01A327A
:1020C00009F090E0D7019C93DF91CF911F91FF9091
:1020D000EF90DF90CF900895FC011082FE01E7564B
:1020E000FF4F108272971082719682E080831C925B
:1020F000C556DF4F188280E0E7CFAF92BF92CF92F4
:10210000DF92EF92FF920F931F93CF93DF937B01A8
:10211000B42EA52E69018C0104561F4FF801C08111
:10212000D1812097B1F06EA17FA18B2D9A2D0E94B5
:10213000A73097FD0EC0892B29F488A599A5C8164C
:10214000D9063CF08E01065D1F4F0AA4DBA5C02D09
:10215000E8CFF701D3A7C2A7F801F182E082DF91AF
:10216000CF911F910F91FF90EF90DF90CF90BF9094
:10217000AF900895CF93DF93FC01DB0110A211A271
:1021800012A213A214A215A246A357A320A731A7F7
:1021900090E1EF01892F19928A95E9F7BF01605FFD
:1021A0007F4FEB0119929A95E9F7BF01CD01DF91BD
:1021B000CF910C947D100C94BA101F93CF93DF93A2
:1021C000EC01CC54DF4F8CED95E0A0E0B0E08883CB
:1021D0009983AA83BB8386E891E00E947B3110E05B
:1021E00088819981AA81BB81892B8A2B8B2B79F0DD
:1021F0000E94A5018823A1F30E949101882381F305
:10220000082E000C990B0E9474311F5FE9CF86E8FD
:1022100091E00E947B31812F110F990BDF91CF91BB
:102220001F91089540E064E084E40C94220841E0AA
:1022300064E084E40C9422080E9472010E948A01E6
:10224000789408951F93CF93DF93EC01162F0E948B
:102250001C1164E084E40E94D70764E084E40E94D7
:10226000B307CA57DF4F1883DF91CF911F910895AD
:102270000F931F93CF93DF93EC018C010C541F4FEE
:102280008CED95E0A0E0B0E0F80180839183A2831B
:10229000B383F80180819181A281B381892B8A2B3C
:1022A0008B2B59F00E94A501882399F30E9491017C
:1022B000682FCE010E940110ECCFDF91CF911F91CA
:1022C0000F9108950F931F93CF93DF93EC018C012F
:1022D0000C571F4FF80180818130A1F08230E9F165
:1022E000811136C0CE010E9412111882FE01E259FE
:1022F000FF4F10821182128213823697108281E082
:10230000F8018083CE010E9438118881882301F171
:10231000FE01E859FF4F80818823D1F01182868128
:102320009781A085B1850397A105B10588F088EC58
:1023300091E00E947B31C055DF4F80E395E7A0E03C
:10234000B0E088839983AA83BB8382E0F80180830D
:10235000DF91CF911F910F910895CE010E94381106
:10236000FE01E055FF4F80819181A281B381892BCD
:102370008A2B8B2B69F7CE010E941711F80110826E
:10238000FE01EB57FF4F81E08083CE01DF91CF91BB
:102390001F910F910C945024EF92FF920F931F9373
:1023A000CF93DF9300D000D000D0CDB7DEB78D83C0
:1023B0009E8386ED91E09F938F930E9460310F90F2
:1023C0000F90AD81BE818C91882309F41FC1CD018E
:1023D0000E94260C162F072FF82EE92E8D819E8144
:1023E0000E94BC0BEF92FF920F931F939F938F93CA
:1023F0007F936F9381EE91E09F938F930E94603162
:102400000FB6F894DEBF0FBECDBF85EF91E09F936E
:102410008F930E9460310F900F90AD81BE81929694
:102420008C919297882309F4F6C07D01B2E2EB0EFD
:10243000F11CC7010E94160D182F092FC7010E9419
:10244000390DED81FE8113A20F931F931F928F937D
:10245000AD81BE8194968D919D910D90BC91A02DE2
:1024600089839A83AB83BC83BC01CD0120E137E231
:1024700040E050E00E94362C1F922F9381E092E0C2
:102480009F938F930E9460310FB6F894DEBF0FBE0A
:10249000CDBFAD81BE81D0968C91D097882309F4B1
:1024A000BFC08D01005D1F4FD1961C92D197D2966F
:1024B0008D919D910D90BC91A02D89839A83AB83C2
:1024C000BC83BC01CD0120E432E44FE050E00E9427
:1024D000362C2A3020F480E390E00E947431ED81A4
:1024E000FE8111AA82A993A9A4A9B5A989839A8377
:1024F000AB83BC83BC01CD0120E432E44FE050E06B
:102500000E94362C1F922F938EE192E09F938F931F
:102510000E946031C8010E949E0D0F900F900F9095
:102520000F908A3020F480E390E00E947431C8015B
:102530000E949E0D1F928F938EE192E09F938F9346
:102540000E946031C8010E94C20D0F900F900F9041
:102550000F908A3020F480E390E00E947431C8012B
:102560000E94C20D1F928F938BE593E09F938F93F0
:102570000E946031ED81FE8111AA82A993A9A4A9CC
:10258000B5A989839A83AB83BC83BC01CD0124E6C2
:1025900030E040E050E00E94362C0F900F900F90FA
:1025A0000F906A3020F480E390E00E947431ED8156
:1025B000FE8111AA82A993A9A4A9B5A989839A83A6
:1025C000AB83BC83BC01CD0124E630E040E050E0A9
:1025D0000E94362C7F936F9389EC92E09F938F93A8
:1025E0000E9460310F900F900F900F9086E891E05D
:1025F00026960FB6F894DEBF0FBECDBFDF91CF9108
:102600001F910F91FF90EF900C947B318CEE91E035
:102610000E947B31FACE84E192E00E947B3139CF77
:102620008CEE91E00E947B31E1CF9C01FC01E055F2
:10263000FF4F80819181A281B381892B8A2B8B2BC3
:1026400059F080819181A281B3810197A109B109DB
:1026500080839183A283B383F901EC54FF4F80817F
:102660009181A281B381892B8A2B8B2B59F0808198
:102670009181A281B3810197A109B10980839183DE
:10268000A283B3830895CF93DF93EB01FC01EA5853
:10269000FF4F118266817781808591850E94A42EEB
:1026A0009F938F937F936F9384E292E09F938F9396
:1026B000DF93CF930E94A7312DB73EB7285F3F4FDE
:1026C0000FB6F8943EBF0FBE2DBF8C0F9D1FDF913C
:1026D000CF9108956AE00E94022C8295807F890F35
:1026E0000895982F92959F708F702AE0929F800D89
:1026F00011240895CF93C82F88E60E94EF1A8C2FDB
:102700000E94091B0E94F91A61E088E60E94E21A01
:10271000CF910C945E1BCF93DF93C82FD62F88E602
:102720000E94EF1A8D2F0E94091B8C2F0E94091BFB
:10273000DF91CF910C94F91ACF93DF9381E10E943E
:102740007A13D82F82E10E947A13C82F61E18EEEAE
:102750000E948B1362E18DED0E948B1381E10E9438
:102760007A138E3E91F482E10E947A138D3D69F4D2
:1027700081E08093AB0661E18D2F0E948B1362E1B3
:102780008C2FDF91CF910C948B1381E08093AA065C
:10279000DF91CF91089562E084E40E948C0762E0AB
:1027A00084E40E94D707E9E6F0E0808182608083BC
:1027B000E89A789408958091AB0608958091AA06CE
:1027C000089581E08093AB061092AA0608951092B6
:1027D000AB0681E08093AA060895EF92FF920F93D3
:1027E0001F93CF93DF93CDB7DEB729970FB6F89439
:1027F000DEBF0FBECDBF88E60E94EF1A80E00E94C8
:10280000091B0E94F91A67E088E60E94E21A8E010D
:102810000F5F1F4F7E0188E0E80EF11C0E945E1BD7
:10282000F80181938F01EE15FF05C1F70E94F91A97
:1028300089818F770E94711390E090939A0680931C
:1028400099068A810E94711390E090939C06809370
:102850009B068B810E947113082F10E010939E0637
:1028600000939D068D810E94711390E09093A006C5
:1028700080939F06FE808F2D8F710E94711390E0D0
:102880009093A2068093A1068F810E94711390E01D
:10289000F7FE27C08053984F9093A4068093A30619
:1028A0008C810E94711390E09093A6068093A506F8
:1028B00001151105C9F41092A9061092A80681E02D
:1028C0008093A70689E996E029960FB6F894DEBFB3
:1028D0000FBECDBFDF91CF911F910F91FF90EF9071
:1028E00008958459984FD8CF0C3011052CF41093CB
:1028F000A9060093A806E3CF0C5011091093A9066E
:102900000093A8061092A706DDCF8F929F92AF92F8
:10291000BF92CF92DF92EF92FF920F931F93CF93CC
:10292000DF93CDB7DEB729970FB6F894DEBF0FBEA1
:10293000CDBF8C017B016A0188E60E94EF1A80E01E
:102940000E94091B0E94F91A67E088E60E94E21AB9
:10295000CE0101965C014E0198E0890E911C0E9407
:102960005E1BF50181935F018E169F06C1F70E94E1
:10297000F91AC114D10429F089810E947113F6015A
:102980008083E114F10429F08A810E947113F70118
:1029900080830115110529F08B810E947113F801C4
:1029A000808329960FB6F894DEBF0FBECDBFDF91AE
:1029B000CF911F910F91FF90EF90DF90CF90BF903C
:1029C000AF909F908F9008951F93CF93DF93EC016A
:1029D00088E60E94EF1A80E00E94091B8A859B8589
:1029E000813D27E0920774F1805D97409B878A873D
:1029F00010E888810E946A130E94091B8A810E9444
:102A00006A130E94091B8C810E946A130E94091B91
:102A10008C850E946A130E94091B8E810E946A1392
:102A20000E94091B88850E946A13810F0E94091B5E
:102A30008A850E946A130E94091BDF91CF911F9122
:102A40000C94F91A8C5697409B878A8710E0D1CF57
:102A50001F93CF93DF93C82FD62F142F88E60E94A1
:102A6000EF1A80E00E94091B812F0E946A130E94C6
:102A7000091B8D2F0E946A130E94091B8C2F0E9434
:102A80006A130E94091BDF91CF911F910C94F91AD0
:102A9000CF93C82F8091AA0681110BC00E947A1390
:102AA000CC2329F08F7760E0CF910C948B13806852
:102AB000FACFCF9108958091AA06811106C00E9495
:102AC0007A138095881F8827881F0895FF920F9397
:102AD0001F93CF93DF938C01EB01FC0110821882CE
:102AE0008091AB06811120C088E60E94EF1A81E137
:102AF0000E94091B0E94F91A62E088E60E94E21A0D
:102B00000E94581B882381F00E945E1BF82E0E94B1
:102B10005E1BF801F082829586958695837099E117
:102B2000899F802D11248883DF91CF911F910F9170
:102B3000FF900895CF93DF93C82F8091AB0681114A
:102B40002DC088E60E94EF1A8EE00E94091B0E94A9
:102B5000F91A61E088E60E94E21A0E945E1BD82FF3
:102B600088E60E94EF1A8EE00E94091B8D2F80627A
:102B70000E94091B0E94F91ACC2381F088E60E946A
:102B8000EF1A8EE00E94091B0E94F91A61E088E6A4
:102B90000E94E21A0E945E1B85FDF0CFDF91CF916B
:102BA0000895CF93C82F88E60E94EF1A88E08C0F13
:102BB0000E94091B0E94F91A61E088E60E94E21A4D
:102BC000CF910C945E1B0F931F93CF938C01C0E0A9
:102BD0008C2F0E94D115F80181938F01CF5FC833EC
:102BE000B9F7CF911F910F910895CF93DF93C82F1D
:102BF000D62F88E60E94EF1A88E08D0F0E94091BED
:102C00008C2F0E94091BDF91CF910C94F91A0F931E
:102C10001F93CF938C01C0E06C2FF80181918F013D
:102C20000E94F515CF5FC833B9F7CF911F910F916F
:102C30000895CF93DF93D82F8091AB06882309F1B5
:102C400088E60E94EF1A87E00E94091B0E94F91A89
:102C500061E088E60E94E21A0E945E1BC82FDD2315
:102C600071F0C06188E60E94EF1A87E00E94091B9C
:102C70008C2F0E94091BDF91CF910C94F91ACF7E03
:102C8000F1CF88E60E94EF1A8EE00E94091B0E9495
:102C9000F91A61E088E60E94E21A0E945E1BC82FC2
:102CA000DD2339F0CB7FC06488E60E94EF1A8EE006
:102CB000DDCFCF7BF9CFCF93DF93EC018091AB06D3
:102CC0008823E9F088E60E94EF1A87E00E94091B3A
:102CD0000E94F91A61E088E60E94E21A0E945E1BD7
:102CE0008C7FC82B88E60E94EF1A87E00E94091BA0
:102CF0008C2F0E94091BDF91CF910C94F91A88E662
:102D00000E94EF1A8EE00E94091B0E94F91A61E0EE
:102D100088E60E94E21A0E945E1B94E0CC0FDD1F41
:102D20009A95E1F7877EC82B88E60E94EF1A8EE01D
:102D3000DDCFCF93DF93D82F8091AA06882309F1A6
:102D400088E60E94EF1A8FE00E94091B0E94F91A80
:102D500061E088E60E94E21A0E945E1BC82FDD2314
:102D600071F0C86088E60E94EF1A8FE00E94091B8C
:102D70008C2F0E94091BDF91CF910C94F91AC77F09
:102D8000F1CFDF91CF9108958091AB06882361F058
:102D900060E080E00E94F51561E080E00E94F5159A
:102DA00062E080E00C94F51567E080E00E948B13F0
:102DB00068E080E00E948B1369E080E00E948B1342
:102DC0006AE080E00C948B131F93CF93DF93C82F9E
:102DD000D62F142F883108F054C06C3308F051C03E
:102DE0004C3308F04EC08091AB06882379F060E048
:102DF0008C2F0E94F51561E08D2F0E94F51562E081
:102E0000812FDF91CF911F910C94F515842F0E9493
:102E10006A1367E00E948B138D2F0E946A1368E08B
:102E20000E948B138C2F0E946A1369E00E948B13FF
:102E30006AE081E80E948B138FE00E947A136FE0B2
:102E40008E7F0E948B1388E60E94EF1A8EE00E940C
:102E5000091B0E94F91A61E088E60E94E21A0E94AA
:102E60005E1BC82F88E60E94EF1A8EE00E94091BA5
:102E70008C2F81600E94091BDF91CF911F910C94D0
:102E8000F91ADF91CF911F910895FC01892B29F048
:102E90004081628184810C94E4160895EF92FF9240
:102EA0000F931F93CF93DF93EC018B017A018091F5
:102EB000AB068823E9F0209721F080E00E94D1152D
:102EC00088830115110529F081E00E94D115F801D0
:102ED0008083E114F10429F082E00E94D115F7010A
:102EE0008083DF91CF911F910F91FF90EF90089514
:102EF00087E00E947A138F770E947113F701808315
:102F000088E00E947A138F770E947113F801808302
:102F100089E00E947A138F770E9471138883E1CF32
:102F2000CF93DF9300D00F92CDB7DEB7AE014F5FE6
:102F30005F4FBE016E5F7F4FCE0103960E944E171A
:102F4000E9E9F6E08B8190E0958384838A8190E0C3
:102F500093838283898190E091838083CF010F9056
:102F60000F900F90DF91CF910895FF920F931F93D1
:102F7000CF93DF9300D00F92CDB7DEB78091AB0631
:102F8000882349F180E00E94D115F82E81E00E944B
:102F9000D115082F82E00E94D115182FAE014F5F86
:102FA0005F4FBE016E5F7F4FCE0103960E94851476
:102FB0008B818F1106C08A81801303C081E09981C3
:102FC000911380E00F900F900F90DF91CF911F91A0
:102FD0000F91FF9008958FE00E947A13182F1170BF
:102FE00080FF04C06FE08E7F0E948B13812FEACF99
:102FF000CF93DF93FC01DB0146A157A127A930AD98
:1030000014968D919C911597421753070CF1241734
:10301000350754F042175307D9F4C4A1D5A165A9C7
:1030200076A96C177D07A4F484179507A4F088315E
:103030009105A4F02817390749F481E012964D91C3
:103040005C9125A936A9421753074CF080E007C0D0
:10305000841795077CF38217930764F781E0DF916B
:10306000CF910895EF92FF920F931F93CF93DF9329
:10307000FC01EB01DC01A85BBF4F8C819D812D9190
:103080003C91820F931F28E1E22EF12CB7010E94A0
:10309000222C9C0195838483DF01AA5BBF4F0D9195
:1030A0001C918A819B81800F911F6CE370E00E94CC
:1030B000222C938382838A819B81080F191F0C33F2
:1030C00011053CF0C9010196B7010E94222C95839D
:1030D0008483DF91CF911F910F91FF90EF9008951E
:1030E000CF93DF93EC01BC016F5E7F4F0E943218DB
:1030F0008B818F938A818F938D818F938C818F9316
:103100008FE492E09F938F930E946031BE01CE01C5
:103110000E94F8170F900F900F900F900F900F9044
:1031200040E08823D9F06A818C810E94E4168B816B
:103130008F938A818F938D818F938C818F9383E777
:1031400092E09F938F930E9460310F900F900F90A9
:103150000F900F900F90DF91CF9108956CA18EA1E9
:103160000E94E4168DA18F938CA18F938FA18F93D2
:103170008EA18F9380EA92E0E4CF10921707449AD1
:10318000459AE9EBF0E080818E7F808380818D7F9E
:1031900080838CE08093B80085E48093BC007894B1
:1031A0000895880F8093BA000895982F842F413294
:1031B00058F5209117072111FCCF21E02093170724
:1031C0002FEF2093AC061092F106280F2093F00603
:1031D000990F91609093160795EE9093BC00909193
:1031E00017079130E1F39091F106981710F4809150
:1031F000F10622EF36E0FB01D9019A2F921B9817B6
:1032000020F49D919193F9CF80E00895982F413259
:10321000B0F5809117078111FCCF32E0309317078A
:103220003FEF3093AC061092F1064093F006562F14
:10323000A2EFB6E0FB013E2F351B341718F4319195
:103240003D93F9CF492F50E0440F551F4093160787
:1032500095EE9093BC00222321F0909117079230B5
:10326000D1F39091AC069F3F79F08091AC0680320B
:1032700041F08091AC06803331F084E0089581E024
:10328000089582E0089583E00895613288F42091E2
:103290001707243079F46093CE06282FA0EDB6E00E
:1032A000FC018E2F821B861738F481918D93F9CF04
:1032B00081E0089582E0089580E0089590931307D7
:1032C000809312070895909315078093140708952B
:1032D000882321F085EC8093BC00089585E8FBCF1E
:1032E00085ED8093BC008091BC0084FDFCCF1092E2
:1032F0001707089585EC8093BC0010921707089576
:103300001F920F920FB60F9211242F933F934F935A
:103310005F936F937F938F939F93AF93BF93EF933D
:10332000FF939091B900892F887F803509F4BCC044
:1033300008F045C0803309F4B2C0A0F5883101F12E
:10334000D0F4883009F4A3C0803109F4A0C08823E8
:1033500009F4E9C0FF91EF91BF91AF919F918F91D7
:103360007F916F915F914F913F912F910F900FBE81
:103370000F901F901895803209F491C0883251F750
:103380009091F1068091F006981708F08AC0E091BC
:10339000F10681E08E0F8093F106F0E0EE50F94FD8
:1033A000808177C0803409F48BC0883409F479C0F7
:1033B000883381F68093AC060E947A19CBCF803A8D
:1033C00009F498C060F5803809F482C0F8F48036BA
:1033D000B9F080F4883509F0BDCFE091F10681E0C5
:1033E0008E0F8093F1068091BB00F0E0EE50F94F14
:1033F000808357C0803721F0987E983609F0AACF95
:1034000083E0809317071092AD0645C0803909F418
:103410005FC0987E983809F09DCF85E83DC0883B15
:10342000D9F058F5883A19F0803B09F093CF84E041
:10343000809317071092CF061092CE06E0911407E2
:10344000F091150709958091CE06811105C081E0A4
:103450008093CE061092D006E091CF0681E08E0FC9
:103460008093CF06F0E0E053F94F80818093BB005A
:103470009091CF068091CE0627C0907F903C09F0B6
:1034800069CF85EC8093BC001092170763CF8091C1
:1034900016078093BB0085EC8093BC005BCF8093C4
:1034A000AC060E94701956CFE091F10681E08E0FB4
:1034B0008093F1068091BB00F0E0EE50F94F8083DD
:1034C0009091F1068091F006981708F0A6CFE3CF0F
:1034D0008091AD06803208F0A0CFE091AD0681E08A
:1034E0008E0F8093AD068091BB00F0E0E255F94F5E
:1034F0008083D1CF8091AD06803230F4E091AD066B
:10350000F0E0E255F94F10820E9470196091AD060B
:1035100070E0E0911207F09113078EEA96E00995AA
:103520001092AD0649CF1092AC06BBCFCF93DF937C
:10353000DC01CB01E0911807F09119073097E9F011
:1035400030914107209140073217B8F040E0242F16
:1035500030E02817390754F4ED01C20FD31F58810A
:103560002E5B384FE90158834F5FF1CF109241072E
:1035700080934007DF91CF910994DF91CF91089517
:10358000E0911A07F0911B07309729F010921E075F
:1035900010921D0709940895109241071092400758
:1035A00010921E0710921D070C94BD180E94D1188E
:1035B00080EC9AE10E94631986E99AE10E945E1903
:1035C0000C94CC1A462F613208F040E262E477E0B6
:1035D0000E94D5181092410780934007089591E00A
:1035E00090931C0780933F0710921E0710921D07AF
:1035F000089521E040911D076FE177E080913F073A
:103600000E94061910921E0710921D0710921C07A7
:103610000895CF93DF930F92CDB7DEB78983809162
:103620001C078823A9F080911D07803268F48091DF
:103630001E07E82FF0E0E15EF84F998190838F5FDD
:1036400080931E0780931D070F90DF91CF910895FF
:1036500061E0CE0101960E944519F6CF0F931F93AA
:10366000CF93DF9320911C07222369F08C01EC019A
:10367000C60FD11D0C171D0761F0F80181918F0154
:103680000E94091BF7CFDF91CF911F910F910C94EE
:103690004519DF91CF911F910F910895DC010D9095
:1036A0000020E9F71197BD01681B790B0C942E1BC4
:1036B0008091400790914107891B0895909141079F
:1036C00080914007981748F4E92FF0E0EE5BF84F3F
:1036D00080819F5F90934107089580E008959093C3
:1036E000190780931807089590931B0780931A0772
:1036F00008950895FF920F931F93CF93DF93CDB753
:10370000DEB761970FB6F894DEBF0FBECDBF8C0158
:10371000F62EDC01D5961C921E92D4978C91282F00
:10372000082E000C330B3F938F938EEC92E09F9307
:103730008F930E946031F80184A995A9E80FF91FC1
:1037400020810F900F900F900F90293409F4CBC374
:103750004CF4213409F41EC4243409F40FC48DE858
:1037600093E0BEC3223509F490C22335C1F79C0112
:103770002E5F3F4F223331050CF07BC2D801D59626
:103780003C932E93D497200F311FF9016081062EB0
:10379000000C770B605371094AE0469FF001479F88
:1037A000F00D1124F093FA04E093F904BC016D5F6D
:1037B0007F4F8F32910509F45CC2D5967C936E934E
:1037C000D497600F711FDB012C91022E000C330B7C
:1037D000205331092E0F3F1F3093FA042093F90430
:1037E0009C012B5F3F4F223331050CF042C2F801A0
:1037F00035AB24AB200F311FD9016C91062E000C84
:10380000770B60537109469FF001479FF00D11241B
:10381000F093F804E093F704BC016A5F7F4F8C32A9
:10382000910509F426C2D801D5967C936E93D4975E
:10383000600F711FDB012C91022E000C330B205303
:1038400031092E0F3F1F3093F8042093F7049C0199
:10385000285F3F4F223331050CF00BC2F80135AB26
:1038600024AB200F311FD9012C91022E000C330BF9
:1038700020533109429FB001439F700D1124709372
:10388000F6046093F5049C01275F3F4F899709F484
:10389000F0C135AB24AB200F311FF9018081082E18
:1038A000000C990BC097860F971F9093F604809396
:1038B000F50464E170E085EF94E00E94282364E160
:1038C00070E085EF94E00E9443238091F6048F938B
:1038D0008091F5048F938091F8048F938091F70481
:1038E0008F938091FA048F938091F9048F9381EFE5
:1038F00092E09F938F930E946031D801D4968D916E
:103900009C91D59702960FB6F894DEBF0FBECDBF3F
:10391000823391050CF0ADC1D5969C938E93D497CC
:10392000800F911FDC018C91082E000C990BC09721
:103930002AE0F22EF89E9001F99E300D112430936A
:103940000B0520930A05F80184A995A901968233F5
:1039500091050CF08EC195AB84AB800F911FDC01FB
:103960008C91082E000C990BC09720910A0530917C
:103970000B05820F931F90930B0580930A0584A972
:1039800095A90296823391050CF073C195AB84AB77
:10399000800F911FFC018081082E000C990BC097AD
:1039A000F89E9001F99E300D112430930905209363
:1039B0000805D801D4968D919C91D59701968233B4
:1039C00091050CF056C1D5969C938E93D497800F99
:1039D000911FFC018081082E000C990BC09720914B
:1039E000080530910905820F931F90930905809374
:1039F0000805D4968D919C91D597029682339105B6
:103A00000CF037C1D5969C938E93D497800F911F5D
:103A1000DC018C91082E000C990BC097F89E900148
:103A2000F99E300D11243093070520930605F80107
:103A300084A995A90196823391050CF01AC195AB22
:103A400084AB800F911FDC018C91082E000C990B28
:103A5000C0972091060530910705820F931F909320
:103A600007058093060567E170E086E095E00E9417
:103A7000282367E170E086E095E00E94432380916F
:103A800007058F93809106058F93809109058F9389
:103A9000809108058F9380910B058F9380910A0583
:103AA0008F938CE093E09F938F930E946031F80195
:103AB00084A995A902960FB6F894DEBF0FBECDBFBC
:103AC000823391050CF0D5C095AB84AB800F911F6C
:103AD000DC018C91082E000C990BC097F89E900188
:103AE000F99E300D112430931C0520931B0584A9E9
:103AF00095A90196823391050CF0BBC095AB84ABC0
:103B0000800F911FFC018081082E000C990BC0973B
:103B100020911B0530911C05820F931F90931C056B
:103B200080931B05D801D4968D919C91D5970296D0
:103B3000823391050CF09DC0D5969C938E93D497BB
:103B4000800F911FFC018081082E000C990BC097FB
:103B5000F89E9001F99E300D112430931A052093A0
:103B60001905D4968D919C91D59701968233910534
:103B70000CF07FC0D5969C938E93D497800F911FA5
:103B8000DC018C91082E000C990BC097209119052F
:103B900030911A05820F931F90931A05809319058F
:103BA000F80184A995A90296823391050CF061C0B1
:103BB00095AB84AB800F911FDC018C91082E000C1B
:103BC000990BC0974AE0489F9001499F300D1124FE
:103BD000309318052093170584A995A9019682337F
:103BE00091050CF046C095AB84AB080F191FF80186
:103BF0008081082E000C990BC097209117053091F9
:103C00001805820F931F90931805809317056AE19A
:103C100070E087E195E00E9428236AE170E087E187
:103C200095E00E944323809118058F93809117059A
:103C30008F9380911A058F93809119058F938091AE
:103C40001C058F9380911B058F9385E293E09F93D2
:103C50008F930E94603162E08CE090E00E949B2292
:103C60000FB6F894DEBF0FBECDBF83EA93E00E948B
:103C70007B3161960FB6F894DEBF0FBECDBFDF91EA
:103C8000CF911F910F91FF9008959C012E5F3F4FA0
:103C90002233310574F7D801D5963C932E93D497EF
:103CA000200F311FF9014081042E000C550B4053A9
:103CB00051096AE0649FF001659FF00D1124AC0189
:103CC0004D5F5F4F8F329105A1F2D5965C934E9375
:103CD000D497400F511FDA012C91022E000C330BA8
:103CE000205331092E0F3F1F3E832D839C012B5FF4
:103CF0003F4F223331050CF0BCCFF80135AB24AB7C
:103D0000200F311FD9014C91042E000C550B40534C
:103D10005109649FF001659FF00D1124AC014A5FC9
:103D20005F4F8C32910509F4A4CFD801D5965C93EE
:103D30004E93D497400F511FDA012C91022E000CA4
:103D4000330B205331092E0F3F1F3C832B839C01E3
:103D5000285F3F4F223331050CF08BCFF80135AB94
:103D600024AB200F311FD9014C91042E000C550BB0
:103D700040535109649FF001659FF00D1124AC017F
:103D8000475F5F4F8932910509F473CFD801D5960B
:103D90005C934E93D497400F511FDA012C91022E61
:103DA000000C330B205331092E0F3F1F3A83298318
:103DB0009C01255F3F4F223331050CF05ACFF801AB
:103DC00035AB24AB200F311FD9016C91062E000CAE
:103DD000770B605371094AE0469FF001479FF00D51
:103DE0001124BC01645F7F4F8632910509F441CFF5
:103DF000D801D5967C936E93D497600F711FDB0129
:103E00002C91022E000C330B205331092E0F3F1F33
:103E100038872F839C01225F3F4F223331050CF0FE
:103E200028CFF80135AB24AB200F311FD9016C919D
:103E3000062E000C770B60537109469FF001479FD7
:103E4000F00D1124BC01615F7F4F8332910509F4AD
:103E500010CFD801D5967C936E93D497600F711FC5
:103E6000DB012C91022E000C330B205331092E0F55
:103E70003F1F3A8729879C012F5E3F4F2233310530
:103E80000CF0F7CEF80135AB24AB200F311FD90170
:103E90002C91022E000C330B20533109429FB001AC
:103EA000439F700D11249C012E5E3F4F809709F4B3
:103EB000E0CE35AB24AB020F131FF8018081082E32
:103EC000000C990BC097860F971F9C878B87CE019C
:103ED00001960E94E41481E08093D2048DED92E07B
:103EE0000E947B31C2CE9C012E5F3F4F22333105B1
:103EF0000CF0BFCED801D5963C932E93D497AC014D
:103F00004D5F5F4F8F9709F4B4CE200F311FF90139
:103F10009081D5965C934E93D4979053040F151FC0
:103F2000D8018C91BAE09B9F800D112460ED680F41
:103F300081538236F0F48AE090E00E949B2260ED8B
:103F400074E08AE090E00E94882262E08BE090E0DA
:103F50000E949B228091D0041F928F9380E493E073
:103F60009F938F930E9460310F900F900F900F904E
:103F70007CCE1F926F938FE493E0F2CFE1E087E76E
:103F800093E0FE12ADCF8EE593E00E947B310E945C
:103F90006C246BCE9C012E5F3F4F223331050CF019
:103FA00068CED801D5963C932E93D497200F311F1D
:103FB000F9012081243409F0D2CB9C012D5F3F4FC1
:103FC0008F32910509F455CED5963C932E93D49714
:103FD000AC014C5F5F4F8E9709F44BCE200F311F21
:103FE000D9019C91F80155AB44AB9053040F151FB8
:103FF000D8018C918053BAE09B9F800D1124909141
:10400000D0049813ACCB0E94972381E08093D10415
:10401000A6CBFC0182A993A9813391052CF40196CA
:1040200093AB82AB80E0089581E00895FC01A2A9E2
:10403000B3A9A80FB91F6C930C940920FC0113AA13
:1040400012AA0C941620FC0184A995A9680F791F67
:104050006233710524F475AB64AB80E0089581E0B0
:104060000895CF93DF938EE480937C0086E880935D
:104070007A008FEC97E00197F1F700C00000809183
:104080007A00806480937A0080917A0086FDFCCF6C
:104090008FEC97E00197F1F700C0000080917A0063
:1040A000806480937A0080917A0086FDFCCF8FE156
:1040B0009EE40197F1F700C00000609178008091C4
:1040C0007900782F80E09CE20E940E2CEB01CB015E
:1040D00099279F938F9388EB93E09F938F930E94F0
:1040E000603180917A008F7780937A000F900F90E3
:1040F0000F900F908C2FDF91CF910895CF93DF9386
:1041000000D000D0CDB7DEB70E9431206AE00E9417
:10411000022C282F30E050E040E029833A834B8383
:104120005C83CA01B9010E94A42E69837A838B83C0
:104130009C8369817A818B819C810F900F900F9075
:104140000F90DF91CF9108959F92AF92BF92CF923F
:10415000DF92EF92FF920F931F93CF93DF938C0127
:10416000F42EE52ED62EC72E59018BE7F801808359
:10417000E801229684E481838091D0041F928F937A
:1041800082ED93E09F938F93DF93CF930E94A731AB
:10419000C80FD91F8CE2982EFE019192CF0165ECD9
:1041A00073E00E94B0302596F50181818F93808164
:1041B0008F9383818F9382818F9385818F93848165
:1041C0008F938AEC93E09F938F93DF93CF930E941A
:1041D000A731C80FD91F9992CF92DF92EF92FF9229
:1041E00086ED93E09F938F93DF93CF930E94A73147
:1041F000C80FD91F8DE788831982F801019000202C
:10420000E9F7CF0101972DB73EB7285E3F4F0FB6B4
:10421000F8943EBF0FBE2DBF801B910BDF91CF9155
:104220001F910F91FF90EF90DF90CF90BF90AF90D4
:104230009F9008958BED93E00E947B3167E084E4CA
:104240000E94B30767E084E40E94D70765E084E436
:104250000E94B30765E084E40E94FB0766E084E403
:104260000E94B30766E084E40E94FB0767E084E4F1
:104270000E94FB0765E084E40E94D70766E084E4BF
:104280000E94FB072FEF82E795E521508040904088
:10429000E1F700C0000065E084E40E94FB0766E0EF
:1042A00084E40E94FB072FEF84E39CE021508040D0
:1042B0009040E1F700C0000065E084E40E94FB0745
:1042C00066E084E40E94D7072FEF82E795E521504E
:1042D00080409040E1F700C0000065E084E40E9467
:1042E000FB0766E084E40E94FB0767E084E40C942B
:1042F000D70767E084E40E94FB0765E084E40E943E
:10430000D70766E084E40E94FB072FEF82E795E57C
:10431000215080409040E1F700C0000065E084E457
:104320000E94FB0766E084E40E94FB0767E084E4E8
:104330000C94D707E3E6F7E087E090E09583848369
:104340008EE190E09383828311821082978386832B
:1043500081E090E09187808786E190E09387828773
:104360000895FC012085318580916B0790916C0741
:1043700082179307B4F12817390789F52681378109
:104380008091690790916A078217930754F1281763
:10439000390729F524813581809167079091680755
:1043A00082179307F4F028173907C9F42281338163
:1043B00080916507909166078217930794F02817FC
:1043C000390769F440815181209163073091640776
:1043D00081E0241735073CF04217530721F080E0B5
:1043E000089581E008950895CF92DF92EF92FF92B1
:1043F0000F931F93CF93DF93CDB7DEB768970FB6B8
:10440000F894DEBF0FBECDBF182F0E949A21809175
:10441000620781116EC00E94ED13F82E092F103231
:1044200088F581EF93E00E947B310E947921812FF2
:1044300090E0B0E0A0E08D8B9E8BAF8BB88FBC017D
:10444000CD010E94A22E2F2D302F462F572FBC01B9
:10445000DE0111966D01CD010E94A420E82EDF92AD
:10446000CF928BE094E09F938F930E9460316E2DEA
:10447000C6010E94AD0581E0809362070F900F9006
:104480000F900F908F2D902F0E94B121882389F1DA
:1044900089E194E00E947B310E947921812F90E094
:1044A000B0E0A0E08D8B9E8BAF8BB88FBC01CD01AF
:1044B0000E94A22E2F2D302F462F572FBC018E0188
:1044C0000F5F1F4FC8010E94A420F82E1F930F9367
:1044D0008BE094E09F938F930E9460316F2DC80111
:1044E0000E94AD0581E0809362070F900F900F90BE
:1044F0000F9068960FB6F894DEBF0FBECDBFDF9168
:10450000CF911F910F91FF90EF90DF90CF90089582
:104510009C01FB01211584E0380758F49FB3892FD3
:10452000827091FDFBCF32BD21BDF89A90B590838A
:10453000089582E008959C01211584E0380758F41D
:104540009FB3892F827091FDFBCF32BD21BD60BD2D
:10455000FA9AF99A089582E00895FF920F931F93B3
:10456000CF93DF930F92CDB7DEB78C01F62E0115F6
:1045700084E0180730F51982BE016F5F7F4FC801D4
:104580000E948822811116C09981F91699F06F2D29
:10459000C8010E949B2281110DC0BE016F5F7F4F39
:1045A000C8010E948822811105C081E099819F1174
:1045B00001C080E00F90DF91CF911F910F91FF908C
:1045C000089582E0F7CFEF92FF920F931F93CF935E
:1045D000DF938C01EB017B01E40EF51ECE15DF05A8
:1045E00079F06991C8010E94AD220F5F1F4F8823A7
:1045F000A9F3DF91CF911F910F91FF90EF90089554
:1046000080E0F7CFCF92DF92EF92FF920F931F934C
:10461000CF93DF938C017B016A01D0E0C0E0CC1521
:10462000DD0561F0B7016C0F7D1FCE01800F911F7A
:104630000E948822811103C02196F1CF80E0DF9192
:10464000CF911F910F91FF90EF90DF90CF90089541
:104650000F931F93CF93DF938C01EB01FC016481D7
:10466000CE010E949B22F8016281CE0101960E9438
:104670009B22F8016081CE010296DF91CF911F91BC
:104680000F910C949B220F931F93CF93DF938C0178
:10469000EB01BC016C5F7F4FCE010E948822B80104
:1046A0006E5F7F4FCE0101960E948822B801CE0135
:1046B0000296DF91CF911F910F910C948822CF9396
:1046C000DF9389E190E00E94BB25C82FD0E08AE10A
:1046D00090E00E94BB25D82B2CE22C9FC0012D9F7F
:1046E000900D1124C296DF91CF910895CF93DF935F
:1046F00089E190E00E94BB25C82FD0E08AE190E0DC
:104700000E94BB259E01382BC901019662EC71E025
:104710000E940E2CC92F682F89E190E00E94652528
:104720006C2F8AE190E0DF91CF910C9465250F9377
:104730001F93CF93DF9389E190E00E94BB25082F60
:1047400010E08AE190E00E94BB25182B8BE190E0FD
:104750000E94BB25C82FD0E08CE190E00E94BB25D1
:10476000D82BC017D107A8F4CE01019662EC71E0F6
:104770000E940E2CEC016C2F8BE190E00E946525CD
:104780006D2F8CE190E0DF91CF911F910F910C94F0
:1047900065250C171D0778F72196EDCFCF93DF9392
:1047A000D82FC92F0E945F234CE26D2F7C2F0E94CF
:1047B0002726DF91CF910C947623AF92BF92CF92B0
:1047C000DF92EF92FF920F931F93CF93DF935C01E1
:1047D000E62ED72E0E943120C82E6E2D7D2DC501CC
:1047E0000E94900CFC018CE2F82EF192BF01C501F1
:1047F0000E94AF0CFC01F192BF01C5010E9443135E
:10480000EC01F99280E3A80EB11CC5010E94C20D13
:10481000082FC5010E949E0D182FC5010E94820D10
:104820001F920F931F921F931F928F9387E394E021
:104830009F938F93DF93CF930E94A731C80FD91F07
:10484000F9921F92CF9282ED93E09F938F93DF9323
:10485000CF930E94A731C80FD91FFE01F192CF015B
:1048600066E474E00E94B0301C82DF92EF928AE42A
:1048700094E09F938F930E9460318DB79EB74496CA
:104880000FB6F8949EBF0FBE8DBFDF91CF911F91E1
:104890000F91FF90EF90DF90CF90BF90AF90089571
:1048A000CF93DF93CDB7DEB7E2970FB6F894DEBFB4
:1048B0000FBECDBFBE016F5F7F4F0E94DD23CE01D3
:1048C00001960E94CE23E2960FB6F894DEBF0FBE8B
:1048D000CDBFDF91CF9108950F931F93CF930E9487
:1048E0005F23C82F192F8AE594E09F938F930E942E
:1048F00060311F93CF9389EC92E09F938F930E9436
:1049000060310F900F900F900F900F900F9002E377
:1049100010E0C8010E94BB25C82F90E00E947431AE
:10492000CB3359F486E891E00E947B310F5F1F4F33
:104930000F3F8FE3180769F702C0CF3FB9F7CF9158
:104940001F910F9108956F927F928F929F92AF92D5
:10495000BF92CF92DF92EF92FF920F931F93CF936C
:10496000DF938C0189E190E00E94BB25682E712CB9
:104970008AE190E00E94BB25782A8BE190E00E94BA
:10498000BB25E82EF12C8CE190E00E94BB25F82A93
:1049900080E06E147F0409F460C08BE7F801808327
:1049A00084E481838091D0041F928F9382ED93E001
:1049B0009F938F93E8012296DF93CF930E94A731B4
:1049C000C80FD91F8CE2FE0181936F018E9D4001BB
:1049D0008F9D900C1124F2E38F0E911C5E018DE2ED
:1049E000A80EB11C0F900F900F900F900F900F908A
:1049F000C4010E94BB25F6019FEFC91AD90A808322
:104A0000EFEF8E1A9E0ACA14DB0491F78DE78DA78B
:104A10001EA6E80109900020E9F72197C01BD10BE1
:104A2000FF92EF927F926F9289E694E09F938F932B
:104A30000E946031DF93CF931F930F9387E894E038
:104A40009F938F930E946031EDB7FEB73C960FB6EF
:104A5000F894FEBF0FBEEDBF81E0DF91CF911F91B3
:104A60000F91FF90EF90DF90CF90BF90AF909F900D
:104A70008F907F906F90089584E190E00E94BB2515
:104A80008A32C9F060E08BE190E00E94652560E029
:104A90008CE190E00E94652560E089E190E00E9451
:104AA000652560E08AE190E00E9465256AE284E184
:104AB00090E00C946525089585E08093B800E9EBBB
:104AC000F0E080818C7F8083089534EA40EA54E8E6
:104AD0003093BC002091BC0027FFFCCF2091B9008F
:104AE000287F283011F080E008954093BB00509358
:104AF000BC002091BC0027FFFCCF2091B900287F8B
:104B0000283131F79093BB0094E89093BC009091CA
:104B1000BC0097FFFCCF9091B900987F983219F7AD
:104B20008093BB0084E88093BC008091BC0087FF29
:104B3000FCCF8091B900887F8832A9F66093BB00D2
:104B400084E88093BC008091BC0087FFFCCF8091FB
:104B5000B900887F883239F684E98093BC0080915F
:104B6000BC0084FDFCCF8FEB9DE50197F1F700C001
:104B7000000081E0089534EA40EA54E83093BC0034
:104B80002091BC0027FFFCCF2091B900287F28305E
:104B900009F05BC04093BB005093BC002091BC0067
:104BA00027FFFCCF2091B900287F283139F7909357
:104BB000BB0094E89093BC009091BC0097FFFCCFA1
:104BC0009091B900987F983209F03FC08093BB0064
:104BD00084E88093BC008091BC0087FFFCCF80916B
:104BE000B900887F883289F584EA8093BC0080917F
:104BF000BC0087FFFCCF8091B900887F803129F508
:104C000081EA8093BB0084E88093BC008091BC0063
:104C100087FFFCCF8091B900887F8034B1F484E8AD
:104C20008093BC008091BC0087FFFCCF8091B900CD
:104C3000887F883551F48091BB0094E99093BC0043
:104C40009091BC0094FDFCCF089580E00895EF9210
:104C5000FF920F931F93CF93DF938C01EB017B01A6
:104C6000E40EF11CCE15DF0579F06991C8010E94B0
:104C700065250F5F1F4F8111F5CFDF91CF911F91F8
:104C80000F91FF90EF90089581E0F7CFA5E1B0E09C
:104C9000ECE4F6E20C94112D7C011B015A01DC01BD
:104CA00017961C921E92169713968C9181FF68C3DB
:104CB000FE0131964F01D70113969C91F10193FDAE
:104CC000859193FF81911F01882309F4EDC28532FC
:104CD00039F493FD859193FF81911F01853239F459
:104CE000B70190E00E94303165015601E4CF10E039
:104CF000512C00E0003238F48B3209F190F480320C
:104D0000F9F0833209F107FD34C020ED280F2A3075
:104D100020F506FF1BC0BAE01B9F200D1124122FA7
:104D200005C08D3279F0803371F70160F10193FD98
:104D3000859193FF81911F018111DCCF1AC0026020
:104D40000460F4CF0860F2CF0061F0CFEAE05E9E2D
:104D5000200D1124522E0062E9CF8E3221F406FD7F
:104D6000A3C20064E3CF8C3611F40068DFCF88362D
:104D7000E9F29BEB980F933008F073C00061805EFE
:104D800006FF16E00F73702E853609F071C0689427
:104D900076F877FE77C0812F1C3308F08BE344242C
:104DA0004394480E27E0D5014D915D916D917D9121
:104DB0006D014C875D876E877F87042DA4016C850C
:104DC0007D858E859F850E94C42F5C01B981BC873B
:104DD000B0FF04C06DE2662EB3FF0BC05BE2652E30
:104DE00071FC07C0E72DE4706E2E72FE02C070E207
:104DF000672E0C850C7009F456C06110C4C2F3E034
:104E000000E0F51598F483E0052D081B73FC07C03E
:104E1000B70180E290E00E9430310150C9F766206E
:104E200029F0B701862D90E00E943031FC8548E6DC
:104E3000A42E40E0B42EF3FD04C03CE6A32E30E0E7
:104E4000B32E172D1071F5018491811122C000231A
:104E500009F44BCFB70180E290E00E94303101505D
:104E6000F6CF9BE9980F933008F041C10F7E88CFB1
:104E7000863619F4689477F88CCF112309F489CF1A
:104E8000115087CF212F183010F027E017E0412C68
:104E90008ACF11118052B70190E00E9430312FEF7C
:104EA000A21AB20AD0CF77FE78C04A0CFC85F4FF74
:104EB00004C08A81813309F44A9414140CF090C020
:104EC00028E0241510F428E0422E85E090E077FEDB
:104ED00006C0C501B7FE02C090E080E001966110F7
:104EE0000196112331F0212F30E02F5F3F4F820FC9
:104EF000931F5816190619F014F0052D081B872D5D
:104F0000897011F4011171C0662029F0B701862D56
:104F100090E00E94303173FC02C001116DC077FE39
:104F200098C0B98AA88AB7FE02C0198A188A688808
:104F30007988A501441951095D8B4C8B412E512C68
:104F400066277727641975097B8B6A8BA614B704CB
:104F50000CF459C08C899D89861597050CF053C0B7
:104F6000F501E619F709E80DF91D818191E0691A4B
:104F70007108AA89BB896A167B060CF446C0B70182
:104F800090E00E943031BFEF6B167B06F9F6B70157
:104F90008EE290E00E943031D9CF76FC96CFE12F9F
:104FA000F0E0EA15FB053CF03CEFA3163FEFB3063B
:104FB00014F0689477F83296E80DF91D01C011508D
:104FC000112319F082918033D1F377FE7ECF4424F0
:104FD0004394410E1A151B0431F02CF01A1975CFA9
:104FE0004424439472CF10E070CFB70180E290E088
:104FF0000E943031015086CFB70180E390E00E94DB
:10500000303101508ACF80E3B1CF6889798961500E
:10501000710940945094E889F9894E165F06A4F40A
:10502000461A570A460E571EA414B50441F49A8135
:10503000963368F4953319F4FC85F4FF08C0B70182
:1050400090E00E94303103CF512C412CEBCF81E313
:10505000F6CF8A81813319F02C852F7E2C87B701FA
:1050600090E00E9430311123A9F0B7018EE290E068
:105070000E94303192E0692E610E12E0E12F1F5F35
:10508000E80DF92DF11D8081B70190E00E943031CB
:105090006112F4CF85E690E074FE02C085E490E0F2
:1050A000B7010E943031B7FC06C0A114B104C1F4AD
:1050B0003C8534FF15C0B194A194B1088DE2B701CD
:1050C00090E00E94303180E35AE0A516B10454F418
:1050D000B70190E00E943031B701C501C096B1CF51
:1050E0008BE2EDCF8F5F4AE0A41AB108EDCF833693
:1050F000B9F0833709F43CC0833509F04FC0D501BE
:10510000AD90BD906D01612F70E006FD02C06FEFA4
:105110007FEFC5010E949C303C01102F10680DC02C
:10512000650162E0C60ED11CD5018C91898366248D
:105130006394712C5401102F1F7713FD04C0561473
:10514000170409F020F5052D6114710409F47FCED0
:10515000F50117FD859117FF81915F01B70190E07F
:105160000E94303101110150B1E06B1A7108ECCF8F
:10517000F501A190B1906F01612F70E006FD02C0B2
:105180006FEF7FEFC5010E94C6303C01D4CFB7015D
:1051900080E290E00E9430315A94D1CF843619F0E9
:1051A000893609F070C007FF65C0F5016191719102
:1051B000819191916F010F7697FF08C0909580952E
:1051C000709561957F4F8F4F9F4F00682AE030E0C8
:1051D000A4010E94CA31A82EA818BA2C602E06FF7E
:1051E0000BC0E89460F8A11638F404FF04C002FD77
:1051F00002C00E7E602EB12E64FE9AC0FE01EA0D42
:10520000F11D8081803309F08CC0562D597E652EAA
:10521000062D087063FC9BC060FE95C01A2DB51466
:1052200010F4150D1B1964FE98C0B70180E390E0DF
:105230000E94303162FE09C088E790E061FE02C042
:1052400088E590E0B7010E943031A11608F491C0C2
:10525000AA94B12C6FEFA61AB60AA80CB91CD501F6
:105260008E915D01B70190E00E943031A814B9041D
:10527000B1F7EDCDD5016D917D916D01072E000C3B
:10528000880B990B98CF702EE89474F82AE030E0E0
:10529000853739F1B02FB97F7B2E8037A9F058F4CC
:1052A0008835A9F08F36D9F0F70186819781659608
:1052B000E2E10C942D2D8837B9F774FE02C0689492
:1052C00072F820E130E00DC0689474F8F6CF04FF66
:1052D00003C0EB2FE6607E2E20E132E002C028E022
:1052E00030E077FE16C0D5014D915D916D917D91B5
:1052F0006D014C875D876E877F87A4016C857D85F6
:105300008E859F850E94CA31A82EA818072D0F7779
:1053100064CFF501819191916F01AC0170E060E083
:10532000E8CF62FC02C0B39473CFB394B39470CF50
:10533000862D867809F46CCFF6CFB70180E290E035
:105340000E943031B394B514C0F300E06CCF052D4A
:105350000B19B51408F467CFF8CF862D867809F4B9
:1053600074CF8BE261FE80E267FC8DE2B70190E0D2
:105370006ACFB70180E390E00E943031115065CFD1
:105380008FEF9FEF94CF24E000E0251508F049CD82
:1053900084E03ACDCDB7DEB761970FB6F894DEBFA3
:1053A0000FBECDBF0E94EF080E94CC1A0E949C1332
:1053B00061E088E295E00E9422110E943120D82EFF
:1053C0000E945A080E94CC1A86E591E00E947B3127
:1053D0000E94CB130E94D20680E791E00E947B31AD
:1053E0000E94B20680E00E944C070E94D20660ED47
:1053F00074E08AE090E00E94882264E170E085EF2A
:1054000094E00E94432367E170E086E095E00E940B
:1054100043236AE170E087E195E00E944323809195
:10542000F6048F938091F5048F938091F8048F9305
:105430008091F7048F938091FA048F938091F904FF
:105440008F9306E113E01F930F930E9460318091C8
:1054500007058F93809106058F93809109058F939F
:10546000809108058F9380910B058F9380910A0599
:105470008F931F930F930E946031809118058F9333
:10548000809117058F9380911A058F93809119054C
:105490008F9380911C058F9380911B058F931F9391
:1054A0000F930E9460310FB6F894DEBF0FBECDBFE0
:1054B0008091F9049091FA0448976CF48091F70474
:1054C0009091F804CC973CF48091F5049091F60407
:1054D000CC970CF44BC00E9491068091F6048F93F8
:1054E0008091F5048F938091F8048F938091F70455
:1054F0008F938091FA048F938091F9048F9306E142
:1055000013E01F930F930E946031809107058F93E2
:10551000809106058F93809109058F9380910805EE
:105520008F9380910B058F9380910A058F931F9322
:105530000F930E946031809118058F938091170519
:105540008F9380911A058F93809119058F93809185
:105550001C058F9380911B058F931F930F930E94BF
:1055600060310FB6F894DEBF0FBECDBF8091D0047E
:1055700063E60E94022C9093D0041F929F9388E8C8
:1055800091E09F938F930E9460318BE780931A067E
:1055900084E480931B068091D0041F928F9387E947
:1055A00091E09F938F938CE196E09F938F930E945D
:1055B000A7318C01045E194F8091F6048F9380917E
:1055C000F5048F938091F8048F938091F7048F9363
:1055D0008091FA048F938091F9048F938EE9E82EDD
:1055E00081E0F82EFF92EF921F930F930E94A73154
:1055F000080F191F809118058F93809117058F93BD
:1056000080911A058F93809119058F9380911C05C5
:105610008F9380911B058F93FF92EF921F930F93AF
:105620000E94A731080F191F1F92DF928BE593E0AC
:105630009F938F931F930F930E94A731F801E80F58
:10564000F91F8DE7808311826AE176E0FB0101900A
:105650000020E9F7BF016B517640162F0FB6F89482
:10566000DEBF0FBECDBF8AE196E00E94AD050E946D
:105670003C2590E6C92E9AEED92EE12CF12C0E9401
:105680005A080E94CC1A0E94CB130E94D2060E9494
:105690003120C0925106D0925206E0925306F09209
:1056A00054061092AD058091AD05811104C088E2C9
:1056B00095E00E9462118AE196E00E94A32488236B
:1056C00009F46BC00E948D0580E00E94710463E3C1
:1056D0008AE196E00E941C030E94060381E00E947A
:1056E0004C078091510690915206A0915306B091BB
:1056F0005406892B8A2B8B2BB1F6809128058823A1
:1057000009F442C088E595E00E94820D90E09E83F6
:105710008D8388E595E00E949E0D90E09C838B83AD
:1057200088E595E00E94C20D90E09A8389838AE41F
:1057300095E00E94660D90E098878F838AE495E05B
:105740000E94390D90E09A8789878AE495E00E944B
:10575000160D9C878B87CE0101960E94E4140E944F
:10576000D20681E08093D204612F8AE196E00E9404
:10577000AD0583ED94E00E9470180E94D2060E944D
:1057800070080E9434097BCF8091D2048111ECCF44
:105790000E945D060E94D206E7CF8091AD05882366
:1057A00009F49FCFAACFE5E5F6E014AA13AA16AA3A
:1057B00015AA81E087AB10AE11AE12AE13AE1092F7
:1057C00019061092180688E295E00C94740970E0AE
:1057D00060E08AE099E00E94E6309093980680931A
:1057E00097060895DB018F939F930E945E2CBF91D3
:1057F000AF91A29F800D911DA39F900DB29F900D20
:1058000011240895991B79E004C0991F961708F098
:10581000961B881F7A95C9F780950895AA1BBB1B14
:1058200051E107C0AA1FBB1FA617B70710F0A61BA0
:10583000B70B881F991F5A95A9F780959095BC01C1
:10584000CD01089597FB072E16F4009407D077FD3D
:1058500009D00E940E2C07FC05D03EF4909581954E
:105860009F4F0895709561957F4F0895A1E21A2E7C
:10587000AA1BBB1BFD010DC0AA1FBB1FEE1FFF1FF4
:10588000A217B307E407F50720F0A21BB30BE40B44
:10589000F50B661F771F881F991F1A9469F760958B
:1058A0007095809590959B01AC01BD01CF01089545
:1058B000EE0FFF1F0590F491E02D09940E947E2DBC
:1058C000A59F900DB49F900DA49F800D911D112454
:1058D0000895B7FF0C945E2C0E945E2C821B930BE4
:1058E0000895689401C0E894F92FF12B12F00C94FC
:1058F000A52CA0E0B0E0EFE7FCE20C94172D092EF8
:10590000059422F40E94012D112392F4F0E80F2651
:10591000FFEFE094F09400951095B094C094D0946B
:10592000A194BF0ACF0ADF0AEF0AFF0A0F0B1F0B71
:105930000E94B02C07FC0E94012DCDB7DEB7ECE031
:105940000C94332D689401C0E8948F929F92CF936A
:10595000DF930E94B02CDF91CF919F908F9008959C
:1059600088249924F401E401B0E49F93AA279A15AE
:105970008B049C04ED05FE05CF05D007A10798F424
:10598000AD2FDC2FCF2FFE2FE92D982C892E982FAD
:10599000872F762F652F542F432F322F2227B85071
:1059A00031F7BF9127C01B2EBF91BB27220F331F9A
:1059B000441F551F661F771F881F991F881C991C3D
:1059C000EE1FFF1FCC1FDD1FAA1FBB1F8A149B04E5
:1059D000EC05FD05CE05DF05A007B10748F08A18E4
:1059E0009B08EC09FD09CE09DF09A00BB10B216072
:1059F0001A94E1F62EF49401AF01BE01CD01000C22
:105A00000895609570958095909530954095509546
:105A100021953F4F4F4F5F4F6F4F7F4F8F4F9F4F9E
:105A200008952F923F924F925F926F927F928F9242
:105A30009F92AF92BF92CF92DF92EF92FF920F931D
:105A40001F93CF93DF93CDB7DEB7CA1BDB0B0FB627
:105A5000F894DEBF0FBECDBF09942A8839884888E4
:105A60005F846E847D848C849B84AA84B984C8847A
:105A7000DF80EE80FD800C811B81AA81B981CE0F71
:105A8000D11D0FB6F894DEBF0FBECDBFED01089556
:105A9000002E083090F0982F872F762F652F542FE7
:105AA000432F322F22270850F4CF220F331F441FD9
:105AB000551F661F771F881F991F0A95B2F7002D83
:105AC000089597FD1094002E083098F00850232F69
:105AD000342F452F562F672F782F892F912DF4CFF4
