:100000000C94B7000C94230A0C94DF000C94DF00CE
:100010000C94DF000C94DF000C94DF000C94550965
:100020000C94DF000C94DF000C94DF000C94DF00D4
:100030000C94DF000C94DF000C94E1000C94DF00C2
:100040000C94DF000C94DF000C94A4090C94DF00E6
:100050000C94DF000C94DF000C94DF000C94DF00A4
:100060000C94DD1A0C94DF006E616E00696E660000
:1000700000407A10F35A00A0724E18090010A5D45F
:10008000E80000E87648170000E40B54020000CABC
:100090009A3B000000E1F505000080969800000002
:1000A00040420F000000A086010000001027000061
:1000B0000000E803000000006400000000000A00E7
:1000C000000000000100000000002C76D888DC67EA
:1000D0004F0823DFC1DFAE59E1B1B796E5E3E45342
:1000E000C63AE651997696E8E6C28426EB898C9B5F
:1000F00062ED407C6FFCEFBC9C9F40F2BAA56FA5FF
:10010000F490055A2AF75C936B6CF9676DC11BFC80
:10011000E0E40D47FEF520E6B500D0ED902E03009B
:10012000943577050080841E080000204E0A0000E8
:1001300000C80C333333330F986E12831141EF8DA7
:100140002114893BE65516CFFEE6DB18D1844B38E7
:100150001BF77C1D901DA4BBE424203284725E2218
:100160008100C9F124ECA1E53D2758296C2911240F
:100170001FBECFEFD8E0DEBFCDBF14E0A0E0B1E0FE
:10018000E6E4F2E602C005900D92A83AB107D9F76D
:1001900027E0A8EAB4E001C01D92AE37B207E1F74C
:1001A00010E0C7EBD0E004C02197FE010E94DD29DA
:1001B000C53BD107C9F70E9470270C94F8300C9406
:1001C00000001F921FB61F9211248F939F93EF93ED
:1001D000FF938091B104813019F59091B0048FEFB5
:1001E000890F9130D9F48091AD049091AE0480FFD5
:1001F00043C05E9A8091AD049091AE049695879528
:100200009093AE048093AD048091AF0481508093AD
:10021000AF04811102C01092B10483E08093B00456
:100220008091B304811120C08091AC04882331F106
:100230008091AA0481508093AA04811115C0109264
:10024000AC041092B204E091B504F0E08091A804EF
:10025000EA54FB4F80838091B5048F5F8093B5048F
:10026000803210F01092B504FF91EF919F918F9121
:100270001F901FBE1F9018955E98BCCF8091B2044E
:10028000811110C04C99F0CF81E08093B20410929C
:10029000A80494E09093AA0498E09093A904809312
:1002A000AB04E2CF9091AA048FEF890F9130B9F49B
:1002B0008091AB044C9B05C09091A804982B90931F
:1002C000A804880F8093AB048091A9048150809387
:1002D000A904811103C081E08093AC0483E0809382
:1002E000AA04C2CF1092B1041092B2041092B304C7
:1002F0005E9A569A54989FB7F89481E287BD82E03F
:1003000084BD85BDEEE6F0E080818260808316BC0E
:100310009FBF08951092B304089581E08093B304C1
:1003200008959091B4048091B5049817E1F3E92FF2
:10033000F0E0EA54FB4F80819F5F903218F4909375
:10034000B40408951092B40408959091B50481E026
:100350002091B404291301C080E008951092B504DF
:100360001092B40408959091B10481E0913009F0A5
:1003700080E008959091B1049130E1F393E090937F
:10038000B0049AE09093AF04880F990B9260909319
:10039000AE048093AD0481E08093B1040895CF93BF
:1003A000DF93EC018991882319F00E94BA01FACFFA
:1003B000DF91CF910895CF93DF93EC01FE018491FB
:1003C0002196882319F00E94BA01F8CFDF91CF91CE
:1003D0000895CF93DF93D82FC62F67E084E40E945F
:1003E000DD088D2F0E94DF058C2F0E94DF05C82FAE
:1003F00067E084E40E94B9088C2FDF91CF910895C3
:1004000060E08F770C94E9018AE10E94000240913C
:10041000D8045091D9046091DA047091DB0441153D
:10042000514A6C4B734318F09DE9891B089594EA77
:10043000FCCF89E10E94000285958595089583E1AE
:100440000E9400029091D704891B08950E941F0208
:10045000882341F08091D7048F5F8093D70480E098
:100460000C9400028FEF08958EE10E9400028295A5
:100470008F700895CF93DF9300D000D0CDB7DEB753
:100480008DE10E94000290E09C0144E035952795A3
:100490004A95E1F7803A9105E0F4F901EE0FFF1F6C
:1004A000E20FF31FE85FFE4F80819181A2819C01E2
:1004B0004A2F50E029833A834B835C8369817A8198
:1004C0008B819C810F900F900F900F90DF91CF91B7
:1004D000089580E291EAA7E0B0E089839A83AB8334
:1004E000BC83ECCFCF92DF92EF92FF920F931F93DA
:1004F000CF93DF9300D000D000D0CDB7DEB788E235
:100500000E940002877090E0B0E0A0E0CC24D82EDA
:10051000E92EFA2E89E20E940002C80ED11CE11CCD
:10052000F11CFE2CED2CDC2CCC248AE20E94000273
:10053000C80ED11CE11CF11C88E20E94000283FF5E
:1005400003C088E0E81AF1080E943A028B018E830A
:100550009D83C701B6010E94292C20E030E040E8CD
:100560005BE469837A838B839C8369817A818B8145
:100570009C810E94B52C20E034E244EF5BE4698367
:100580007A838B839C8369817A818B819C810E9491
:100590007F2B6B017C01B8018E819D810E94272CED
:1005A00020E034E244EF58E469837A838B839C83B0
:1005B00069817A818B819C810E947F2B9B01AC0198
:1005C000C982DA82EB82FC8269817A818B819C818B
:1005D0000E94B52C69837A838B839C8369817A819D
:1005E0008B819C810E94F12B26960FB6F894DEBF7A
:1005F0000FBECDBFDF91CF911F910F91FF90EF9074
:10060000DF90CF90089580680C94E90163E881E859
:100610000E94E90182E10E94000283FD07C08FE091
:1006200097E20197F1F700C00000F4CF68E082E99B
:100630000E94E90181E00895DF92EF92FF920F930B
:100640001F93CF93DF93F82EE92EC62F82E20E94EC
:100650000002D82F2C2F280F3327331F2F3F3105AF
:1006600019F010F0CD2FC095DF2C0F2D1E2D802FEF
:100670008D198C1738F4F80161918F0180E80E9480
:10068000E901F5CF6D2F6C0F82EA0E94E9018C2FF2
:10069000DF91CF911F910F91FF90EF90DF90089520
:1006A000CF93DF930E941F02882381F08DE00E9488
:1006B0000002D82F80E00E940002C82F6D2F8DE825
:1006C0000E94E9018C2FDF91CF9108958FEFFBCF2E
:1006D00061E881E80C94E90160E881E80C94E901A3
:1006E0000C946C03682F823108F061E1623008F4E9
:1006F00062E06250606889E80C94E901AF92BF92B1
:10070000CF92DF92EF92FF920F931F93CF93DF93DD
:10071000382F292FCB01A32FB22F8093D804909389
:10072000D904A093DA04B093DB049B01AD0160E02F
:1007300070E080E090E003E10E94CD2AA12CE8E483
:10074000BE2EF8EECF2EDD24D394E12CF12C00E068
:1007500010E00E94292AC22FB32E6A017B01182FB4
:10076000D92F00E10E94E82A622F86E80E94E90161
:100770002C2F3B2DA601B701812F9D2F08E00E9451
:10078000E82A622F87E80E94E9016C2F88E8DF9150
:10079000CF911F910F91FF90EF90DF90CF90BF907E
:1007A000AF900C94E9010F931F93CF93DF938B01CC
:1007B000D82FC92F67E084E40E94950867E084E49D
:1007C0000E94B90862E082E40E94950862E082E437
:1007D0000E94DD088FE097E20197F1F700C000006A
:1007E00062E082E40E94B9088FE097E20197F1F796
:1007F00000C0000082E40E940002823131F50E94B4
:100800006C03B8018D2F9C2F0E947E0360E08EE860
:100810000E94E90160E08FE80E94E9018CE00E94FB
:100820000002682F63608CE80E94E90164E086EAB8
:100830000E94E90184E10E9472030E94680381E042
:10084000DF91CF911F910F91089580E0F9CFCF9361
:10085000C82F893008F0C8E08DE10E9400026C2F9B
:10086000C53008F465E06450770B660F771F817F11
:10087000682B8DE9CF910C94E901CF93C82F692F94
:1008800080EA0E94E9016C2F81EACF910C94E90182
:10089000682F89EB0C94E9018EE10E940002682F19
:1008A00064608EE90C94E9018EE10E940002682FD9
:1008B0006B7F8EE90C94E9011092D6048DE10E94C1
:1008C0000002682F6E7F8DE90C94E90181E080932E
:1008D000D6048DE10E940002682F61608DE90C94BE
:1008E000E901CF93C82F0E946803CC2369F00E94CE
:1008F000660460E08DE80E94E90160E082EA0E94FF
:10090000E90181E0CF9108950E945C04F2CFCF937A
:10091000DF93D82F82E10E940002C82FDD2329F146
:100920000E9466046D2F82EA0E94E9016C2F82E921
:100930000E94E901C6FF1EC0C5FD1CC01092D7046D
:100940008091D6048823A1F082E20E940002C82F81
:1009500080E10E940002682F8DE80E94E9010E9458
:1009600068038C2FDF91CF9108950E945C04DECF45
:1009700083E1EBCF81E00E940002863841F060E025
:100980008DE80E94E90166E881E80E94E901C0E083
:10099000E8CFCF93DF93EC011816190664F40E9498
:1009A00066046C2F82EA0E94E90165E881E8DF9124
:1009B000CF910C94E9010E945C04F7CFCF92DF92B3
:1009C000EF92FF92CF93DF930E943A026B017C017A
:1009D0000E943402D82F86E20E940002C82FA7018D
:1009E000960104C05695479537952795DA95D2F725
:1009F00068EE73E080E090E00E94BB296C2F21310B
:100A000031054105510550F0686086EADF91CF91CC
:100A1000FF90EF90DF90CF900C94E901677FF5CFC6
:100A2000CF93C82F863020F08D30D0F48630C9F4B3
:100A300065EC81EB0E94E9016CE087EB0E94E90123
:100A4000C6E08EE10E9400028F7090E1C99FB00164
:100A50001124682B8EE90E94E901CF910C94DE04E9
:100A6000CCE063EC81EB0E94E9016AE087EB0E9435
:100A7000E901E7CFCF93462F572FBC01C0E049379C
:100A80008EE1580761057105C8F1C1E0413A98E26D
:100A900059076105710590F1C2E0413F8CE35807A9
:100AA0006105710558F1C3E0413491E559076105CD
:100AB000710520F1C4E043318AE7580761057105EB
:100AC000E8F0C5E0453E92EA590761057105B0F0CE
:100AD000C6E0453284EF58076105710578F0C7E03C
:100AE000493498EE590791E06907710538F0C9E07B
:100AF0004139504D6340710508F4C8E08DE10E9412
:100B000000028F7090E1C99FB0011124682B8DE91C
:100B10000E94E901CF910C94DE040F9300E020E0E5
:100B200040E061E080E00E94C00560EC7AEC89E87A
:100B300096E30E94D303811105C086E491E00E94F0
:100B4000002FFFCF62E17AE780E090E00F910C94F4
:100B50003A051F93CF93DF93D82FC92F162F0E94EA
:100B60008D0580E00E947104612F8D2F9C2F0E94C3
:100B70001C030E940603DF91CF911F910C946C031C
:100B80000F9394B1986294B924982C9A30E2839F81
:100B9000C001112480722370822B94E0499FA00130
:100BA00011244C70842B30E1639FB00111246071DB
:100BB000862B80648CBD01700DBD0F9108958EBD94
:100BC0000DB407FEFDCF8EB50895AF92BF92CF92C0
:100BD000DF92EF92FF920F931F93CF93DF93EC017D
:100BE000B62EAA24A39488E8C82E83E1D82EE12C3F
:100BF000F12C02E310E08DA99EA92BA93CA928178E
:100C00003907C1F12CAD222321F02130B1F01CAE07
:100C10000BC08C0F9D1FFC0181818B3729F4ACAE7A
:100C2000C8AED9AEEAAEFBAE8DA99EA90196B801B9
:100C30000E94A7299EAB8DABDECF8C0F9D1FFC01C0
:100C4000618189EE95E06D3741F40E9422216B2D80
:100C500089EE95E00E94D71CDACF0E9422218111F3
:100C6000D6CF88AD99ADAAADBBAD892B8A2B8B2B86
:100C700071F2DACFDF91CF911F910F91FF90EF903A
:100C8000DF90CF90BF90AF900895FC0187A9882393
:100C900079F080AD91ADA2ADB3AD0097A105B105DE
:100CA00039F00197A109B10980AF91AFA2AFB3AFFD
:100CB00008959F92AF92BF92CF92DF92EF92FF92F0
:100CC0000F931F93CF93DF938C01F62E0E943D214B
:100CD000E82EE801229680913305882309F483C029
:100CE0008BE7F801808383E481838091DC041F9289
:100CF0008F9327E0A22E24E0B22EBF92AF92DF9313
:100D0000CF930E942C2FC80FD91F3CE2D32ED9922B
:100D1000BE0183E395E00E94680DFC01D192BF0102
:100D200083E395E00E94870DFC01D192BF0183E32C
:100D300095E00E94A014EC01D99210929C0580913C
:100D4000A4058F938091A3058F938091A2058F9323
:100D50008091A1058F938DE591E09F938F93DF9311
:100D6000CF930E942C2FC80FD91FD9928091F004E5
:100D70008F938091EF048F938091F2048F938091F1
:100D8000F1048F938091F4048F938091F3048F93F7
:100D900081E691E09F938F93DF93CF930E942C2F56
:100DA000C80FD91FD9921F92EF92BF92AF92DF93D3
:100DB000CF930E942C2FC80FD91FFE01D192CF01D3
:100DC0002DB73EB7225E3F4F0FB6F8943EBF0FBE21
:100DD0002DBF249632E06AE671E0F31609F44BC0A9
:100DE0006EE671E048C08BE7F801808383E481837D
:100DF0008091DC041F928F9387E0A82E84E0B82EA8
:100E0000BF92AF92DF93CF930E942C2FC80FD91FB0
:100E10009CE2992EFE019192CF0162E771E00E945F
:100E2000352E9F828DE2888799868A879B868C875C
:100E30006E01FEE0CF0ED11C9D861F92EF92BF92F5
:100E4000AF92DF92CF920E942C2FE601C80FD91FDC
:100E50009882CE01029699822DB73EB7245F3F4F0C
:100E60000FB6F8943EBF0FBE2DBF259631E069E75F
:100E700071E0F312B5CF0E94352E8DE78883198279
:100E8000E80109900020E9F72197C01BD10BDF93FF
:100E9000CF931F930F938DE791E09F938F930E94C1
:100EA000E52E0F900F900F900F900F900F90CE01A6
:100EB000DF91CF911F910F91FF90EF90DF90CF9036
:100EC000BF90AF909F900895CF93DF93CDB7DEB7DB
:100ED00061970FB6F894DEBF0FBECDBFEEEDF4E024
:100EE00086A197A19E838D8384A195A19C838B83EA
:100EF00082A193A19A8389838EE090E098878F8363
:100F000081E090E09A87898786E190E09C878B87D3
:100F1000CE0101960E94411681E08093DD04619626
:100F20000FB6F894DEBF0FBECDBFDF91CF9108950D
:100F3000EEEDF4E089E090E097A386A315A214A259
:100F400013A212A210922705109226058AE090E0C3
:100F50009093250580932405109223051092220575
:100F600082E190E090AF87AB16AA15AA14AA13AA43
:100F700008950E948D0580E197E2A0E0B0E08093A3
:100F8000510690935206A0935306B093540661E025
:100F900085E596E00E94E505809151069091520604
:100FA000A0915306B0915406892B8A2B8B2B79F78D
:100FB00008954FEE54E061EF74E083EF94E00E94F7
:100FC000E21581E991E09F938F930E94E52EEEED6B
:100FD000F4E082898F9381898F9384898F938389A9
:100FE0008F9386898F9385898F9382EC93E09F936B
:100FF0008F930E94E52E8DB79EB70A960FB6F89490
:101000009EBF0FBE8DBF089585E596E00E94450600
:101010008091510690915206A0915306B0915406CA
:101020000097A105B10559F00197A109B109809375
:10103000510690935206A0935306B093540683E34F
:1010400095E00C948914282F80935506809188068A
:1010500090918906FC01EB5AF94F21830196823366
:1010600091052CF490938906809388060895109238
:1010700089061092880608950E948D0580E395E701
:10108000A0E0B0E08093510690935206A0935306DF
:10109000B09354068091510690915206A091530648
:1010A000B0915406892B8A2B8B2BB9F080E00E94DB
:1010B0008704882379F30E941F02882329F00E9465
:1010C00026020E942308F7CF60E085E596E00E94A3
:1010D000E5058091DD048823E9F20895833479F0F1
:1010E0008434C1F0823401F524B181E090E001C084
:1010F000880F6A95EAF78095822384B9089527B10D
:1011000081E090E001C0880F6A95EAF7809582231C
:1011100087B908952AB181E090E001C0880F6A95EF
:10112000EAF7809582238AB90895833471F0843474
:10113000B1F08234E9F484B121E030E001C0220F43
:101140006A95EAF7822B84B9089587B121E030E0EF
:1011500001C0220F6A95EAF7822B87B908958AB1F8
:1011600021E030E001C0220F6A95EAF7822B8AB9AC
:101170000895833471F08434B1F08234E9F485B198
:1011800021E030E001C0220F6A95EAF7822B85B991
:10119000089588B121E030E001C0220F6A95EAF796
:1011A000822B88B908958BB121E030E001C0220F75
:1011B0006A95EAF7822B8BB90895833479F08434E9
:1011C000C1F0823401F525B181E090E001C0880FC3
:1011D0006A95EAF78095822385B9089528B181E060
:1011E00090E001C0880F6A95EAF78095822388B95C
:1011F00008952BB181E090E001C0880F6A95EAF76D
:10120000809582238BB90895442319F0413019F059
:1012100008950C94DD080C94B9088334B1F084343B
:10122000B1F08234B1F423B181E090E0062E02C027
:10123000880F991F0A94E2F730E08223932302C0BB
:10124000959587956A95E2F7089526B1EDCF29B176
:10125000EBCF81E008950895E1E8F0E080818260BD
:101260008083089510928100089580918400909168
:1012700085009695879508951092B200E0EBF0E016
:101280008081826080838FE18093B30017BAE0E7AA
:10129000F0E0808182608083E1EBF0E08081856016
:1012A000808308951092B10008951F920F920FB697
:1012B0000F9211242F933F934F935F936F937F93DC
:1012C0008F939F93AF93BF93EF93FF930E94040874
:1012D00017BA8091930690919406A0919506B091CB
:1012E00096060196A11DB11D8093930690939406D6
:1012F000A0939506B0939606FF91EF91BF91AF91A1
:101300009F918F917F916F915F914F913F912F911D
:101310000F900FBE0F901F901895CF93DF9300D0C2
:1013200000D0CDB7DEB78091930690919406A0913E
:101330009506B0919606BC01CD010F900F900F90CD
:101340000F90DF91CF9108951F920F920FB60F92D9
:1013500011242F933F934F935F936F937F938F93BA
:101360009F93AF93BF93EF93FF938091C6008093B9
:101370009206809192060E94230882E08093C0002A
:10138000FF91EF91BF91AF919F918F917F916F915D
:101390005F914F913F912F910F900FBE0F901F9033
:1013A000189580919706909198069093770780936F
:1013B000760789E18093C4001092C50088E9809384
:1013C000C10082E08093C00008959091C00095FF15
:1013D000FCCF8093C600089590910001992329F0D5
:1013E0000E94E50990E080E0089581E090E0089592
:1013F000EF92FF920F931F93CF93DF93EB018C013A
:10140000F12CE12CEC16FD064CF4F80181918F01D2
:101410000E94E509FFEFEF1AFF0AF4CFCE01DF913A
:10142000CF911F910F91FF90EF90089583B7816046
:1014300083BF83B7817F846083BF7894889583B7A7
:101440008E7F83BF0895E09A18950F931F93CF93D3
:10145000DF93EC018B010E943509998388830A830D
:101460001B83DF91CF911F910F910895CF93DF934D
:10147000EC010E9435099C014A815B8181E04115A4
:10148000510561F0888199818217930750F4281BD8
:10149000390B81E02417350708F480E0DF91CF9104
:1014A0000895281B390B21503048F3CFFC011082DE
:1014B000118213821282148215821682178210867C
:1014C0001286118613861486158616861786118A4B
:1014D000108A128A138A148A158A168A108E178A1D
:1014E000118E128E138E148E158E12A213A214A2B8
:1014F00015A216A217A210AA11AA12AA13AA14AA18
:1015000015AA16AE17AEDC01DE9616961D921D9238
:101510001D921C9219971E961C9211961C9211975F
:1015200016961D921D921D921C9219971E961C9242
:1015300011961C92119716961D921D921D921C9247
:1015400019971E961C9211961C92119716961D9231
:101550001D921D921C9219971E961C9211961C9218
:10156000119716961D921D921D921C9219971E9608
:101570001C9211961C9211961C92509682E08C93AC
:1015800011961C9211961C9211961C92119611960E
:101590001C921E92129611961C921E9212961D92E9
:1015A0001D921D921C92139714961D921D921D92CE
:1015B0001C92139714961D921D921D921C921397C4
:1015C00014961D921D921D921C92139714961D92B3
:1015D0001D921D921C92139714961D921D921D929E
:1015E0001C921397E957FF4F10820895862F062EFD
:1015F000000C990B2FEB260F263010F4C797089597
:101600006156663018F4875591090895C09708957A
:101610001F93CF93DF9300D000D000D0CDB7DEB7BB
:101620008D839E83AD81BE811C911D3219F411966C
:10163000BE83AD838D819E810E94222D69837A8332
:101640008B839C83A4E6B0E09B01AC010E94E3295C
:10165000AB01BC01ED81FE81FA83E983E981FA8166
:10166000DF012D91BA83A983822F022E000C990BE2
:10167000C0970A9798F32E3231F58181082E000C1D
:10168000990BC0978A309105F0F4AAE0A89F9001C9
:10169000A99F300D1124C901330FAA0BBB0B480FB2
:1016A000591F6A1F7B1F8281082E000C990BC0975F
:1016B0008A30910540F4092E000CAA0BBB0B480F91
:1016C000591F6A1F7B1F1D3239F470956095509524
:1016D00041955F4F6F4F7F4FCB01BA0126960FB6F2
:1016E000F894DEBF0FBECDBFDF91CF911F9108955B
:1016F0008F929F92AF92BF92EF92FF920F931F93A0
:10170000CF93DF93CDB7DEB72D970FB6F894DEBF3A
:101710000FBECDBF8D8799878B010E94222D24E6B5
:1017200030E040E050E00E94BB29490169837A83A0
:101730008B839C839B01AC0160E876E988E990E0AB
:101740000E9477296D837E838F839887D8018D923D
:101750009C92ED85F9852191822F022E000C990B28
:10176000C0970A97C0F32E32E9F57F0120E836E9E9
:1017700048E950E029833A834B835C838AE0882ED2
:10178000912CA12CB12CD701ED917D012E2F022E91
:10179000000C330B205331093A8729872A30310551
:1017A00008F569817A818B819C81A50194010E9451
:1017B000BB2929833A834B835C83A985BA850E9420
:1017C000EE2969877A878B879C872D813E814F819F
:1017D0005885260F371F481F591F2D833E834F837F
:1017E0005887D1CFA5E0B0E02D813E814F8158854B
:1017F0000E94E329DC01CB010196A11DB11DBC01B2
:10180000CD0123E030E040E050E00E94BB29D80148
:1018100012962D933D934D935C93159716961C92BB
:101820002D960FB6F894DEBF0FBECDBFDF91CF91DE
:101830001F910F91FF90EF90BF90AF909F908F906E
:101840000895CF93DF9300D000D0CDB7DEB720E06E
:1018500030E044E351E469837A838B839C8369811C
:101860007A818B819C810E94132B20E030E044EB35
:1018700051E469837A838B839C8369817A818B812C
:101880009C810E947F2B69837A838B839C836981EF
:101890007A818B819C810E94F12B69837A838B836F
:1018A0009C8389819A8160E170E00E94A729FC01F4
:1018B000EE0FFF1FEA5DFE4F808191810F900F9028
:1018C0000F900F90DF91CF910895CF93DF93EC01AC
:1018D00087E0FE017096DE01129601900D928A95C6
:1018E000E1F787E0FE017796DE01199601900D92EF
:1018F0008A95E1F70E948D096E8F7F8F88A399A347
:1019000081E089838883DF91CF9108959B01BC0199
:10191000605F7F4FC9010C94780B9B01BC01695E2D
:101920007F4FC9010C94780BEF92FF920F931F9396
:10193000CF93DF9300D000D000D0CDB7DEB78D833A
:101940009E83AD81BE8111961C92119714966D9164
:101950007D918D919C9117970E94272C28E23BE660
:101960004EE65EE469837A838B839C8369817A8106
:101970008B819C810E947F2B7B018C01ED81FE81FC
:10198000828193819C0150E040E029833A834B831C
:101990005C83CA01B9010E94272C9B01AC01E9823A
:1019A000FA820B831C8369817A818B819C810E94DE
:1019B000132B462F572FBC0149835A836B837C839B
:1019C000AD81BE8118968C91882339F09A01AB01C4
:1019D000505829833A834B835C8369817A818B8158
:1019E0009C8126960FB6F894DEBF0FBECDBFDF9167
:1019F000CF911F910F91FF90EF900895EF92FF927A
:101A00000F931F93CF93DF9300D000D000D0CDB7BA
:101A1000DEB78D839E83AD81BE8111961C92119796
:101A20001B966D917D918D919C911E970E94272C04
:101A300028E23BE64EE65EE469837A838B839C83EF
:101A400069817A818B819C810E947F2B7B018C0133
:101A5000ED81FE81818592859C0150E040E02983E3
:101A60003A834B835C83CA01B9010E94272C9B01F6
:101A7000AC01E982FA820B831C8369817A818B81B4
:101A80009C810E94132B462F572FBC0149835A83F8
:101A90006B837C83AD81BE811F968C91882339F046
:101AA0009A01AB01505829833A834B835C83698147
:101AB0007A818B819C8126960FB6F894DEBF0FBE8B
:101AC000CDBFDF91CF911F910F91FF90EF900895BF
:101AD000CF93DF93EB010E94940C9F938F937F939E
:101AE0006F9386E592E09F938F93DF93CF930E944D
:101AF0002C2F2DB73EB7285F3F4F0FB6F8943EBF4F
:101B00000FBE2DBF8C0F9D1FDF91CF910895CF93F6
:101B1000DF93EB010E94FE0C9F938F937F936F9353
:101B200086E592E09F938F93DF93CF930E942C2FB3
:101B30002DB73EB7285F3F4F0FB6F8943EBF0FBE9C
:101B40002DBF8C0F9D1FDF91CF910895CF93DF9311
:101B5000EC018E819F81A885B9858A839B83AC83A4
:101B6000BD830E948D096A877B878C879D8781E072
:101B700089838883DF91CF910895CF93DF93EC0120
:101B80008E819F81A885B9858A839B83AC83BD8321
:101B90000E948D096A877B878C879D8781E0898376
:101BA0008883DF91CF910895CF93DF93EC01CB0130
:101BB0000E94080B6E837F8388879987DF91CF917E
:101BC0000895CF93DF93EC01CB010E94222D6E8309
:101BD0007F8388879987DF91CF910895CF93DF9393
:101BE00000D000D0CDB7DEB7FC0111828281938195
:101BF000A481B581BC01CD0124E630E040E050E095
:101C00000E94BB2969837A838B839C8389819A8113
:101C10008053984F0F900F900F900F90DF91CF91BE
:101C20000895CF92DF92EF92FF92CF93DF9300D08F
:101C300000D0CDB7DEB7FC01118282819381A481EF
:101C4000B58124E6C22ED12CE12CF12CBC01CD01B2
:101C5000A70196010E94BB29CA01B901A7019601FB
:101C60000E94BB29862F0F900F900F900F90DF914D
:101C7000CF91FF90EF90DF90CF900895CF93DF93B7
:101C800000D000D0CDB7DEB7FC01118282819381F4
:101C9000A481B581BC01CD0120E137E240E050E0F4
:101CA0000E94BB29822F0F900F900F900F90DF9111
:101CB000CF910895CF93DF9300D000D0CDB7DEB79A
:101CC000FC01118282819381A481B581BC01CD0187
:101CD00020E432E44FE050E00E94BB29822F0F90B5
:101CE0000F900F900F90DF91CF910895CF93DF93D6
:101CF00000D000D0CDB7DEB7FC0111828281938184
:101D0000A481B581BC01CD0120E137E240E050E083
:101D10000E94BB29CA01B90124E630E040E050E04E
:101D20000E94BB29862F0F900F900F900F90DF918C
:101D3000CF910895CF92DF92EF92FF92CF93DF93EE
:101D400000D000D0CDB7DEB7FC0111828281938133
:101D5000A481B58124E6C22ED12CE12CF12CBC014A
:101D6000CD01A70196010E94BB29CA01B901A701B3
:101D700096010E94BB29862F0F900F900F900F9015
:101D8000DF91CF91FF90EF90DF90CF900895CF93A8
:101D9000DF9300D000D0CDB7DEB7FC011182828185
:101DA0009381A481B581BC01CD0124E630E040E0FF
:101DB00050E00E94BB29862F0F900F900F900F903C
:101DC000DF91CF910895CF93DF93EC018A859B85B6
:101DD000AC85BD858E839F83A887B9870E948D09B6
:101DE0006A837B838C839D8381E089838883DF91F1
:101DF000CF910895CF93DF93EC01CB010E94080BA4
:101E00006A877B878C879D87DF91CF910895CF93D9
:101E1000DF93EC018A859B85AC85BD858E839F838E
:101E2000A887B9870E948D096A837B838C839D83F1
:101E300081E089838883DF91CF910895CF93DF93E9
:101E4000EC01CB010E94222D6A877B878C879D87BE
:101E5000DF91CF910895CF93DF93EC01BC014096C1
:101E60000E94352E0E948D0968A379A38AA39BA3A3
:101E700081E08DA38CA3DF91CF91089540E150E0E4
:101E80000C943C2EAF92BF92DF92EF92FF920F9391
:101E90001F93CF93DF93EC01FC01EA57FF4FD080F3
:101EA000DD2009F4A0C0319660810E94F60A182F47
:101EB000FE01E857FF4F6081CE010E94F60A12959D
:101EC000107F180FFE01EB57FF4F8081811372C006
:101ED000B59680819181A281B3810196A11DB11D2A
:101EE00080839183A283B3838E0107561F4FD8014D
:101EF0008C91882361F0389780819181A281B38190
:101F00000196A11DB11D80839183A283B383FE013D
:101F1000EA56FF4F80818823A1F18130C1F4CE01C0
:101F200082960E94A60DCE01C0960E94BD0DF801BA
:101F30008081882361F0CE010E94650CCE01CE968F
:101F40000E94E30ECE01845B9F4F0E94E30E8E0140
:101F500004561F4FF801C081D1812097C9F1D801E3
:101F6000ED91FC9166A177A18EA19FA10E942C2EDC
:101F7000892B71F5CE010E942B0F0AA4DBA5C02D81
:101F8000ECCFCE01C0960E94BD0DD8018C91882364
:101F900041F0CE010E94650CCE01865A9F4F0E94EF
:101FA000E30ECE0188599F4F0E94070FCE018A5839
:101FB0009F4FCBCFCA55DF4F88819981AA81BB81C2
:101FC0000196A11DB11D88839983AA83BB83D12C5F
:101FD0008D2DDF91CF911F910F91FF90EF90DF90AA
:101FE000BF90AF9008957C01B7E9EB0EF11CF701AB
:101FF00030818A569F4F5C018E0104561F4F31116C
:102000003EC07E0197E8E90EF11C6BE572E0C70166
:102010000E942C2E892B39F061E672E0C7010E94E4
:102020002C2E892B21F481E0D5018C9310C067E61A
:1020300072E0C7010E942C2E892B39F06DE672E008
:10204000C7010E942C2E892BC1F4F5011082C656BF
:10205000DF4F88819981F80191838083C081D1818C
:10206000209709F4B5CFB7018EA19FA10E942C2E15
:1020700097FF98C08AA59BA5EECF82E0D5CFDC0163
:10208000EC91E230C9F0CE0189579F4FDC012C91D1
:10209000222391F0B0E2EB9FF0011124E32B319762
:1020A000E932F10548F4E650FF4C0C94DD29BC01FF
:1020B000CE01C0960E94D40DF801A080B180C9570E
:1020C000DF4FA114B10409F483CFD801ED91FC9145
:1020D00066A177A1F50186A197A10E942C2E892BDC
:1020E00009F076CFD50198968D919C91F7012081CA
:1020F000422F50E0281719060CF46ACF8417950771
:1021000021F4BE01C5010E943E0FD5019A96AD9003
:10211000BC90D7CFFE01E756FF4F81E0213479F123
:1021200080E02DC0BE01605F7F4F0E94780BC4CF5E
:1021300081E0233509F080E08E8BBECFBE01695E61
:102140007F4FF3CF81E0273509F080E08D8FB4CF4A
:10215000BC01CE01CE960E94FA0EAECFBC01CE01DC
:10216000845B9F4FF8CFBC01CE0182960E94E10DA7
:10217000A3CFFE01E756FF4F81E021338CF280832D
:102180009BCFBC01CE0188599F4F0E941E0F94CF58
:10219000BC01CE018A589F4FDECFBC01CE01865ACA
:1021A0009F4FD9CF892B09F413CFD8011D921C92D0
:1021B0000FCFCF92DF92EF92FF921F93CF93DF93D7
:1021C000EC01162FFC01E256FF4F80819181A28124
:1021D000B3810196A11DB11D80839183A283B38336
:1021E000CE0188569F4F6C01DE01AA57BF4F7D017B
:1021F000643209F449C0DCF46A3019F16D3009F138
:10220000D601EC91EE3048F481E08E0F8C93EC0F08
:10221000FD2FF11DE957FF4F1083F70180818111D8
:1022200042C0CB57DF4F68811627188325C06A321A
:1022300041F06C3229F7FE01EB57FF4F8081862772
:102240008083D601EC9180E0EF3048F4EC0FFD2F55
:10225000F11DE957FF4F1082CE010E94420FC9566F
:10226000DF4F98819F5F9883F601108291E01A32C8
:1022700009F090E0D7019C93DF91CF911F91FF90DF
:10228000EF90DF90CF900895FC011082FE01E95697
:10229000FF4F108272971082719682E080831C92A9
:1022A000C756DF4F188280E0E7CFAF92BF92CF9240
:1022B000DF92EF92FF920F931F93CF93DF937B01F7
:1022C000B42EA52E69018C0106561F4FF801C0815E
:1022D000D1812097B1F06EA17FA18B2D9A2D0E9404
:1022E0002C2E97FD0EC0892B29F488A599A5C81618
:1022F000D9063CF08E01065D1F4F0AA4DBA5C02D58
:10230000E8CFF701D3A7C2A7F801F182E082DF91FD
:10231000CF911F910F91FF90EF90DF90CF90BF90E2
:10232000AF900895CF93DF93FC01DB0110A211A2BF
:1023300012A213A214A215A246A357A320A731A745
:1023400090E1EF01892F19928A95E9F7BF01605F4B
:102350007F4FEB0119929A95E9F7BF01CD01DF910B
:10236000CF910C9455110C9492112FE789EA93E0C8
:10237000215080409040E1F700C0000040E063E061
:1023800084E40E94040987EB98E80197F1F700C004
:10239000000041E063E084E40E94040987EB98E8D0
:1023A0000197F1F700C0000040E063E084E40E9480
:1023B000040987EB98E80197F1F700C00000089541
:1023C0001F93CF93DF93EC01C255DF4F8CED95E067
:1023D000A0E0B0E088839983AA83BB838FEE91E06D
:1023E0000E94002F10E088819981AA81BB81892BEE
:1023F0008A2B8B2B79F00E94A5018823A1F30E94E0
:102400009101882381F3082E000C990B0E94F92E6C
:102410001F5FE9CF8FEE91E00E94002F812F110FF7
:10242000990BDF91CF911F9108950F931F93CF9335
:10243000DF93EC0106E010E0CE010E94B511CE0161
:102440000E94E011892B51F083E792E00E94002F57
:1024500081E0DF91CF911F910F91089501501109F3
:1024600059F780E0F6CF0F931F93CF93DF93EC01E2
:1024700006E010E0CE010E94B511CE010E94E011ED
:10248000892B51F48BE792E00E94002F81E0DF91CD
:10249000CF911F910F9108950150110959F780E0D4
:1024A000F6CF40E063E084E40C94040941E063E08B
:1024B00084E40C9404090E9472010E948A017894B9
:1024C00008951F93CF93DF93EC01162F0E945B12A8
:1024D00063E084E40E94B90863E084E40E94950804
:1024E000CC57DF4F1883DF91CF911F910895EF9262
:1024F000FF920F931F93CF93DF9300D000D000D0B3
:10250000CDB7DEB78D839E8386E892E09F938F934D
:102510000E94E52E0F900F90AD81BE818C91882393
:1025200009F41FC1CD010E94FE0C162F072FF82EB3
:10253000E92E8D819E810E94940CEF92FF920F9361
:102540001F939F938F937F936F9381E992E09F9363
:102550008F930E94E52E0FB6F894DEBF0FBECDBF5D
:1025600085EA92E09F938F930E94E52E0F900F9043
:10257000AD81BE8192968C919297882309F4F6C022
:102580007D01B2E2EB0EF11CC7010E94EE0D182F87
:10259000092FC7010E94110EED81FE8113A20F9336
:1025A0001F931F928F93AD81BE8194968D919D91C3
:1025B0000D90BC91A02D89839A83AB83BC83BC0111
:1025C000CD0120E137E240E050E00E94BB291F929C
:1025D0002F9381EB92E09F938F930E94E52E0FB68D
:1025E000F894DEBF0FBECDBFAD81BE81D0968C9179
:1025F000D097882309F4BFC08D01005D1F4FD1968D
:102600001C92D197D2968D919D910D90BC91A02D49
:1026100089839A83AB83BC83BC01CD0120E432E47F
:102620004FE050E00E94BB292A3020F480E390E084
:102630000E94F92EED81FE8111AA82A993A9A4A975
:10264000B5A989839A83AB83BC83BC01CD0120E407
:1026500032E44FE050E00E94BB291F922F938EEC92
:1026600092E09F938F930E94E52EC8010E94760E00
:102670000F900F900F900F908A3020F480E390E03D
:102680000E94F92EC8010E94760E1F928F938EEC45
:1026900092E09F938F930E94E52EC8010E949A0EAC
:1026A0000F900F900F900F908A3020F480E390E00D
:1026B0000E94F92EC8010E949A0E1F928F9387E004
:1026C00094E09F938F930E94E52EED81FE8111AAE5
:1026D00082A993A9A4A9B5A989839A83AB83BC8352
:1026E000BC01CD0124E630E040E050E00E94BB296F
:1026F0000F900F900F900F906A3020F480E390E0DD
:102700000E94F92EED81FE8111AA82A993A9A4A9A4
:10271000B5A989839A83AB83BC83BC01CD0124E630
:1027200030E040E050E00E94BB297F936F9385E743
:1027300093E09F938F930E94E52E0F900F900F9040
:102740000F908FEE91E026960FB6F894DEBF0FBE85
:10275000CDBFDF91CF911F910F91FF90EF900C941F
:10276000002F8CE992E00E94002FFACE84EC92E0D8
:102770000E94002F39CF8CE992E00E94002FE1CF18
:10278000EF92FF920F931F93CF93DF93EC010E9480
:10279000A501882331F00E949101682FCE010E948B
:1027A000D9107E018EEAE80EF11CF70140815181BB
:1027B000628173818E010E541F4FF80180819181D7
:1027C000A281B381481759076A077B07B0F480914B
:1027D0000101882391F0CE010E947712109201012D
:1027E000F80180819181A281B381805D9740A10928
:1027F000B10980839183A283B383F7014081518122
:1028000062817381F80180819181A281B3818417F3
:102810009507A607B70738F480910101811103C01D
:1028200081E080930101DF91CF911F910F91FF9083
:10283000EF900895EF92FF920F931F93CF93DF9342
:10284000EC010E941512882309F461C01882FE0170
:10285000E259FF4F10821182128213827E0188E6B4
:10286000E80EF11CF70110828E0102551F4F80E81F
:1028700099EAA3E0B0E0F80180839183A283B38357
:10288000349680839183A283B383F8018081918100
:10289000A281B381892B8A2B8B2B49F1CE010E9417
:1028A000C0138881882389F3F7018081882369F325
:1028B000118286819781A085B1850397A105B10515
:1028C00020F380E395E7A0E0B0E0F80180839183F6
:1028D000A283B383F80180819181A281B381892B86
:1028E0008A2B8B2B29F0CE010E94C013F3CF1882C4
:1028F000CE010E943312882341F080E0DF91CF9116
:102900001F910F91FF90EF90089582E0F7CF81E043
:10291000F5CFFC01E255FF4F80819181A281B38107
:10292000892B8A2B8B2B59F080819181A281B381D5
:102930000197A109B10980839183A283B38308958C
:10294000CF93DF93EB01FC01EA58FF4F11826681C0
:102950007781808591850E94292C9F938F937F9307
:102960006F9384ED92E09F938F93DF93CF930E94B8
:102970002C2F2DB73EB7285F3F4F0FB6F8943EBFC0
:102980000FBE2DBF8C0F9D1FDF91CF9108956AE080
:102990000E9487298295807F890F0895982F9295AC
:1029A0009F708F702AE0929F800D11240895CF931D
:1029B000C82F88E60E944C1C8C2F0E94661C0E9427
:1029C000561C61E088E60E943F1CCF910C94BB1C12
:1029D000CF93DF93C82FD62F88E60E944C1C8D2FF3
:1029E0000E94661C8C2F0E94661CDF91CF910C9474
:1029F000561CCF93DF9381E10E94D714D82F82E138
:102A00000E94D714C82F61E18EEE0E94E81462E1A3
:102A10008DED0E94E81481E10E94D7148E3E91F45E
:102A200082E10E94D7148D3D69F481E08093AB066A
:102A300061E18D2F0E94E81462E18C2FDF91CF912C
:102A40000C94E81481E08093AA06DF91CF91089559
:102A500062E084E40E946E0862E084E40E94B908A7
:102A6000E9E6F0E0808182608083E89A78940895B6
:102A70008091AB0608958091AA06089581E0809325
:102A8000AB061092AA0608951092AB0681E08093DF
:102A9000AA060895EF92FF920F931F93CF93DF93AF
:102AA000CDB7DEB729970FB6F894DEBF0FBECDBF06
:102AB00088E60E944C1C80E00E94661C0E94561C06
:102AC00067E088E60E943F1C8E010F5F1F4F7E016A
:102AD00088E0E80EF11C0E94BB1CF80181938F0175
:102AE000EE15FF05C1F70E94561C89818F770E9461
:102AF000CE1490E090939A06809399068A810E9462
:102B0000CE1490E090939C0680939B068B810E944C
:102B1000CE14082F10E010939E0600939D068D8121
:102B20000E94CE1490E09093A00680939F06FE80B2
:102B30008F2D8F710E94CE1490E09093A206809307
:102B4000A1068F810E94CE1490E0F7FE27C080532B
:102B5000984F9093A4068093A3068C810E94CE1474
:102B600090E09093A6068093A50601151105C9F47F
:102B70001092A9061092A80681E08093A70689E921
:102B800096E029960FB6F894DEBF0FBECDBFDF9159
:102B9000CF911F910F91FF90EF9008958459984F16
:102BA000D8CF0C3011052CF41093A9060093A80679
:102BB000E3CF0C5011091093A9060093A8061092B8
:102BC000A706DDCF8F929F92AF92BF92CF92DF92F6
:102BD000EF92FF920F931F93CF93DF93CDB7DEB7A2
:102BE00029970FB6F894DEBF0FBECDBF8C017B01D5
:102BF0006A0188E60E944C1C80E00E94661C0E94CC
:102C0000561C67E088E60E943F1CCE0101965C01DD
:102C10004E0198E0890E911C0E94BB1CF501819326
:102C20005F018E169F06C1F70E94561CC114D10485
:102C300029F089810E94CE14F6018083E114F10409
:102C400029F08A810E94CE14F701808301151105B5
:102C500029F08B810E94CE14F801808329960FB64B
:102C6000F894DEBF0FBECDBFDF91CF911F910F91C2
:102C7000FF90EF90DF90CF90BF90AF909F908F909C
:102C800008951F93CF93DF93EC0188E60E944C1CBC
:102C900080E00E94661C8A859B85813D27E0920723
:102CA00074F1805D97409B878A8710E888810E9435
:102CB000C7140E94661C8A810E94C7140E94661C69
:102CC0008C810E94C7140E94661C8C850E94C714C8
:102CD0000E94661C8E810E94C7140E94661C888513
:102CE0000E94C714810F0E94661C8A850E94C71427
:102CF0000E94661CDF91CF911F910C94561C8C563C
:102D000097409B878A8710E0D1CF1F93CF93DF93A3
:102D1000C82FD62F142F88E60E944C1C80E00E94FA
:102D2000661C812F0E94C7140E94661C8D2F0E9472
:102D3000C7140E94661C8C2F0E94C7140E94661C38
:102D4000DF91CF911F910C94561CCF93C82F809187
:102D5000AA0681110BC00E94D714CC2329F08F77CB
:102D600060E0CF910C94E8148068FACFCF91089579
:102D70008091AA06811106C00E94D7148095881FF1
:102D80008827881F0895FF920F931F93CF93DF9397
:102D90008C01EB01FC01108218828091AB0681113D
:102DA00020C088E60E944C1C81E10E94661C0E94A3
:102DB000561C62E088E60E943F1C0E94B51C8823D6
:102DC00081F00E94BB1CF82E0E94BB1CF801F0820F
:102DD000829586958695837099E1899F802D11242F
:102DE0008883DF91CF911F910F91FF900895CF932A
:102DF000DF93C82F8091AB0681112DC088E60E9419
:102E00004C1C8EE00E94661C0E94561C61E088E605
:102E10000E943F1C0E94BB1CD82F88E60E944C1CBD
:102E20008EE00E94661C8D2F80620E94661C0E94AC
:102E3000561CCC2381F088E60E944C1C8EE00E9438
:102E4000661C0E94561C61E088E60E943F1C0E949E
:102E5000BB1C85FDF0CFDF91CF910895CF93C82F94
:102E600088E60E944C1C88E08C0F0E94661C0E9421
:102E7000561C61E088E60E943F1CCF910C94BB1C5D
:102E80000F931F93CF938C01C0E08C2F0E942E17BD
:102E9000F80181938F01CF5FC833B9F7CF911F91AC
:102EA0000F910895CF93DF93C82FD62F88E60E9405
:102EB0004C1C88E08D0F0E94661C8C2F0E94661CA3
:102EC000DF91CF910C94561C0F931F93CF938C01DD
:102ED000C0E06C2FF80181918F010E945217CF5FE3
:102EE000C833B9F7CF911F910F910895CF93DF9316
:102EF000D82F8091AB06882309F188E60E944C1CEC
:102F000087E00E94661C0E94561C61E088E60E94D1
:102F10003F1C0E94BB1CC82FDD2371F0C06188E6F6
:102F20000E944C1C87E00E94661C8C2F0E94661C2D
:102F3000DF91CF910C94561CCF7EF1CF88E60E9492
:102F40004C1C8EE00E94661C0E94561C61E088E6C4
:102F50000E943F1C0E94BB1CC82FDD2339F0CB7F91
:102F6000C06488E60E944C1C8EE0DDCFCF7BF9CF99
:102F7000CF93DF93EC018091AB068823E9F088E6DC
:102F80000E944C1C87E00E94661C0E94561C61E057
:102F900088E60E943F1C0E94BB1C8C7FC82B88E6E1
:102FA0000E944C1C87E00E94661C8C2F0E94661CAD
:102FB000DF91CF910C94561C88E60E944C1C8EE049
:102FC0000E94661C0E94561C61E088E60E943F1C1D
:102FD0000E94BB1C94E0CC0FDD1F9A95E1F7877E21
:102FE000C82B88E60E944C1C8EE0DDCFCF93DF9388
:102FF000D82F8091AA06882309F188E60E944C1CEC
:103000008FE00E94661C0E94561C61E088E60E94C8
:103010003F1C0E94BB1CC82FDD2371F0C86088E6EE
:103020000E944C1C8FE00E94661C8C2F0E94661C24
:10303000DF91CF910C94561CC77FF1CFDF91CF91D8
:1030400008958091AB06882361F060E080E00E94E3
:10305000521761E080E00E94521762E080E00C9419
:10306000521767E080E00E94E81468E080E00E9468
:10307000E81469E080E00E94E8146AE080E00C94C3
:10308000E8141F93CF93DF93C82FD62F142F8831C6
:1030900008F054C06C3308F051C04C3308F04EC0F7
:1030A0008091AB06882379F060E08C2F0E94521744
:1030B00061E08D2F0E94521762E0812FDF91CF9146
:1030C0001F910C945217842F0E94C71467E00E942E
:1030D000E8148D2F0E94C71468E00E94E8148C2F1A
:1030E0000E94C71469E00E94E8146AE081E80E9427
:1030F000E8148FE00E94D7146FE08E7F0E94E814DE
:1031000088E60E944C1C8EE00E94661C0E94561CA1
:1031100061E088E60E943F1C0E94BB1CC82F88E625
:103120000E944C1C8EE00E94661C8C2F81600E94C5
:10313000661CDF91CF911F910C94561CDF91CF91AB
:103140001F910895FC01892B29F0408162818481BF
:103150000C9441180895EF92FF920F931F93CF9311
:10316000DF93EC018B017A018091AB068823E9F0B3
:10317000209721F080E00E942E1788830115110509
:1031800029F081E00E942E17F8018083E114F104F8
:1031900029F082E00E942E17F7018083DF91CF9102
:1031A0001F910F91FF90EF90089587E00E94D71430
:1031B0008F770E94CE14F701808388E00E94D71495
:1031C0008F770E94CE14F801808389E00E94D71483
:1031D0008F770E94CE148883E1CFCF93DF9300D006
:1031E0000F92CDB7DEB7AE014F5F5F4FBE016E5F8E
:1031F0007F4FCE0103960E94AB18E9E9F6E08B8180
:1032000090E0958384838A8190E09383828389818F
:1032100090E091838083CF010F900F900F90DF910A
:10322000CF910895FF920F931F93CF93DF9300D018
:103230000F92CDB7DEB78091AB06882349F180E0CD
:103240000E942E17F82E81E00E942E17082F82E090
:103250000E942E17182FAE014F5F5F4FBE016E5FA9
:103260007F4FCE0103960E94E2158B818F1106C01D
:103270008A81801303C081E09981911380E00F90CF
:103280000F900F90DF91CF911F910F91FF900895B4
:103290008FE00E94D714182F117080FF04C06FE0D8
:1032A0008E7F0E94E814812FEACFCF93DF93FC0139
:1032B000DB0146A157A127A930AD14968D919C91B1
:1032C0001597421753070CF12417350754F042178E
:1032D0005307D9F4C4A1D5A165A976A96C177D07B8
:1032E000A4F484179507A4F088319105A4F0281759
:1032F000390749F481E012964D915C9125A936A9D0
:10330000421753074CF080E007C0841795077CF301
:103310008217930764F781E0DF91CF910895EF92D0
:10332000FF920F931F93CF93DF93FC01EB01DC011E
:10333000A85BBF4F8C819D812D913C91820F931F83
:1033400028E1E22EF12CB7010E94A7299C01958368
:103350008483DF01AA5BBF4F0D911C918A819B8101
:10336000800F911F6CE370E00E94A72993838283F2
:103370008A819B81080F191F0C3311053CF0C9018C
:103380000196B7010E94A72995838483DF91CF918D
:103390001F910F91FF90EF900895CF93DF93EC0171
:1033A000BC016F5E7F4F0E948F198B818F938A8142
:1033B0008F938D818F938C818F938BEF92E09F936E
:1033C0008F930E94E52EBE01CE010E9455190F90E9
:1033D0000F900F900F900F900F9040E08823D9F03E
:1033E0006A818C810E9441188B818F938A818F938F
:1033F0008D818F938C818F938FE193E09F938F9337
:103400000E94E52E0F900F900F900F900F900F904D
:10341000DF91CF9108956CA18EA10E9441188DA1DA
:103420008F938CA18F938FA18F938EA18F938CE418
:1034300093E0E4CF10921707449A459AE9EBF0E045
:1034400080818E7F808380818D7F80838CE08093DC
:10345000B80085E48093BC0078940895880F809329
:10346000BA000895982F842F413258F520911707FC
:103470002111FCCF21E0209317072FEF2093AC06FA
:103480001092F106280F2093F006990F9160909307
:10349000160795EE9093BC00909117079130E1F3D9
:1034A0009091F106981710F48091F10622EF36E022
:1034B000FB01D9019A2F921B981720F49D919193AB
:1034C000F9CF80E00895982F4132B0F58091170729
:1034D0008111FCCF32E0309317073FEF3093AC06F9
:1034E0001092F1064093F006562FA2EFB6E0FB01D2
:1034F0003E2F351B341718F431913D93F9CF492FE6
:1035000050E0440F551F4093160795EE9093BC0072
:10351000222321F0909117079230D1F39091AC06BD
:103520009F3F79F08091AC06803241F08091AC06EB
:10353000803331F084E0089581E0089582E00895B9
:1035400083E00895613288F420911707243079F4DC
:103550006093CE06282FA0EDB6E0FC018E2F821BD3
:10356000861738F481918D93F9CF81E0089582E038
:10357000089580E0089590931307809312070895AB
:1035800090931507809314070895882321F085EC04
:103590008093BC00089585E8FBCF85ED8093BC0047
:1035A0008091BC0084FDFCCF10921707089585EC34
:1035B0008093BC001092170708951F920F920FB6C8
:1035C0000F9211242F933F934F935F936F937F93A9
:1035D0008F939F93AF93BF93EF93FF939091B90015
:1035E000892F887F803509F4BCC008F045C080333E
:1035F00009F4B2C0A0F5883101F1D0F4883009F4A3
:10360000A3C0803109F4A0C0882309F4E9C0FF9168
:10361000EF91BF91AF919F918F917F916F915F914A
:103620004F913F912F910F900FBE0F901F901895C3
:10363000803209F491C0883251F79091F10680915F
:10364000F006981708F08AC0E091F10681E08E0F2D
:103650008093F106F0E0EE50F94F808177C080341E
:1036600009F48BC0883409F479C0883381F68093DB
:10367000AC060E94D71ACBCF803A09F498C060F507
:10368000803809F482C0F8F48036B9F080F48835C7
:1036900009F0BDCFE091F10681E08E0F8093F10635
:1036A0008091BB00F0E0EE50F94F808357C0803727
:1036B00021F0987E983609F0AACF83E0809317070F
:1036C0001092AD0645C0803909F45FC0987E9838E5
:1036D00009F09DCF85E83DC0883BD9F058F5883A80
:1036E00019F0803B09F093CF84E080931707109284
:1036F000CF061092CE06E0911407F09115070995B8
:103700008091CE06811105C081E08093CE06109293
:10371000D006E091CF0681E08E0F8093CF06F0E0D7
:10372000E053F94F80818093BB009091CF06809148
:10373000CE0627C0907F903C09F069CF85EC80933E
:10374000BC001092170763CF809116078093BB00CF
:1037500085EC8093BC005BCF8093AC060E94CD1AB1
:1037600056CFE091F10681E08E0F8093F1068091B3
:10377000BB00F0E0EE50F94F80839091F10680910C
:10378000F006981708F0A6CFE3CF8091AD068032FF
:1037900008F0A0CFE091AD0681E08E0F8093AD06DA
:1037A0008091BB00F0E0E255F94F8083D1CF80914A
:1037B000AD06803230F4E091AD06F0E0E255F94F0D
:1037C00010820E94CD1A6091AD0670E0E091120760
:1037D000F09113078EEA96E009951092AD0649CF55
:1037E0001092AC06BBCFCF93DF93DC01CB01E0910D
:1037F0001807F09119073097E9F0309141072091AF
:1038000040073217B8F040E0242F30E0281739077E
:1038100054F4ED01C20FD31F58812E5B384FE901DC
:1038200058834F5FF1CF1092410780934007DF919B
:10383000CF910994DF91CF910895E0911A07F0910B
:103840001B07309729F010921E0710921D0709944C
:103850000895109241071092400710921E0710928F
:103860001D070C941A1A0E942E1A8DE19CE10E94E9
:10387000C01A83EF9BE10E94BB1A0C94291C462FAF
:10388000613208F040E262E477E00E94321A10925E
:10389000410780934007089591E090931C0780931F
:1038A0003F0710921E0710921D07089521E04091D6
:1038B0001D076FE177E080913F070E94631A109225
:1038C0001E0710921D0710921C070895CF93DF93D7
:1038D0000F92CDB7DEB7898380911C078823A9F0AA
:1038E00080911D07803268F480911E07E82FF0E078
:1038F000E15EF84F998190838F5F80931E078093DC
:103900001D070F90DF91CF91089561E0CE010196E0
:103910000E94A21AF6CF0F931F93CF93DF932091AB
:103920001C07222369F08C01EC01C60FD11D0C1776
:103930001D0761F0F80181918F010E94661CF7CF8D
:10394000DF91CF911F910F910C94A21ADF91CF912B
:103950001F910F910895DC010D900020E9F7119758
:10396000BD01681B790B0C948B1C809140079091D2
:103970004107891B0895909141078091400798174E
:1039800048F4E92FF0E0EE5BF84F80819F5F909361
:103990004107089580E008959093190780931807D0
:1039A000089590931B0780931A0708950895FF9236
:1039B0000F931F93CF93DF93CDB7DEB761970FB609
:1039C000F894DEBF0FBECDBF8C01DC01D5961C92F2
:1039D0001E92D4978C91282F082E000C330B3F9306
:1039E0008F938AE793E09F938F930E94E52EF801CF
:1039F00084A995A9E80FF91F20810F900F900F90CF
:103A00000F90223509F44DC0233509F479C12934CA
:103A100009F008C49C012E5F3F4F223331050CF0A2
:103A2000F0C3D801D5963C932E93D497AC014D5F4B
:103A30005F4F8F9709F4E5C3200F311FF901908183
:103A4000D5965C934E93D4979053040F151FD801CD
:103A50008C91BAE09B9F800D112460ED680F81531B
:103A6000823608F0DAC38AE090E00E9428236CEDE9
:103A700074E08AE090E00E94152362E08BE090E021
:103A80000E9428238091DC041F928F938CEE93E098
:103A90009F938F930E94E52E0F900F900F900F90A1
:103AA000ACC39C012E5F3F4F223331050CF0A9C3FC
:103AB000D801D5963C932E93D497200F311FF9014E
:103AC0004081042E000C550B405351096AE0649F5D
:103AD000F001659FF00D1124AC014D5F5F4F8F32F7
:103AE000910509F48EC3D5965C934E93D497400FFD
:103AF000511FDA012C91022E000C330B2053310997
:103B00002E0F3F1F3E832D839C012B5F3F4F22339F
:103B100031050CF076C3F80135AB24AB200F311F13
:103B2000D9014C91042E000C550B40535109649F50
:103B3000F001659FF00D1124AC014A5F5F4F8C329C
:103B4000910509F45EC3D801D5965C934E93D49742
:103B5000400F511FDA012C91022E000C330B205321
:103B600031092E0F3F1F3C832B839C01285F3F4F61
:103B7000223331050CF045C3F80135AB24AB200FDF
:103B8000311FD9014C91042E000C550B40535109A3
:103B9000649FF001659FF00D1124AC01475F5F4FFA
:103BA0008932910509F42DC3D801D5965C934E93C3
:103BB000D497400F511FDA012C91022E000C330BC9
:103BC000205331092E0F3F1F3A8329839C01255F23
:103BD0003F4F223331050CF014C3F80135AB24AB51
:103BE000200F311FD9014C91042E000C550B40536E
:103BF0005109649FF001659FF00D1124AC01445FF1
:103C00005F4F8632910509F4FCC2D801D5965C93CA
:103C10004E93D497400F511FDA012C91022E000CC5
:103C2000330B205331092E0F3F1F38872F839C0100
:103C3000225F3F4F223331050CF0E3C2F80135AB70
:103C400024AB200F311FD9014C91042E000C550BD1
:103C500040535109649FF001659FF00D1124AC01A0
:103C6000415F5F4F8332910509F4CBC2D801D596ED
:103C70005C934E93D497400F511FDA012C91022E82
:103C8000000C330B205331092E0F3F1F3A87298731
:103C90009C012F5E3F4F223331050CF0B2C2F80178
:103CA00035AB24AB200F311FD9012C91022E000C13
:103CB000330B20533109629FA001639F500D1124E3
:103CC0009C012E5E3F4F809709F49BC235AB24AB1D
:103CD000020F131FF8018081082E000C990BC0976A
:103CE000840F951F9C878B87CE0101960E944116F9
:103CF00081E08093DD0489E893E00E94002F7DC27B
:103D00009C012E5F3F4F223331050CF07AC2D8015F
:103D1000D5963C932E93D497200F311FF901408103
:103D2000042E000C550B405351092AE0F22EF49E4C
:103D3000B001F59E700D1124709305056093040584
:103D4000AC014D5F5F4F8F32910509F45AC2D59691
:103D50005C934E93D497400F511FDA012C91022EA1
:103D6000000C330B20533109260F371F3093050504
:103D7000209304059C012B5F3F4F223331050CF04B
:103D800040C2F80135AB24AB200F311FD9014C9153
:103D9000042E000C550B40535109F49EB001F59EC2
:103DA000700D11247093030560930205AC014A5F06
:103DB0005F4F8C32910509F424C255AB44AB400FE0
:103DC000511FFA012081022E000C330B20533109C0
:103DD000260F371F30930305209302059C01285FAF
:103DE0003F4F223331050CF00CC2D801D5963C93DD
:103DF0002E93D497200F311FF9012081022E000C41
:103E0000330B20533109F29EA001F39E500D112473
:103E100050930105409300059C01275F3F4F899710
:103E200009F4EFC1D5963C932E93D497200F311F00
:103E3000D9018C91082E000C990BC097840F951F07
:103E4000909301058093000564E170E080E095E0C7
:103E50000E94B52364E170E080E095E00E94D023E9
:103E6000809101058F93809100058F9380910305C8
:103E70008F93809102058F93809105058F93809198
:103E800004058F938DE993E09F938F930E94E52E15
:103E9000F80184A995A902960FB6F894DEBF0FBE6B
:103EA000CDBF823391050CF0ACC195AB84AB800FD4
:103EB000911FDC018C91082E000C990BC097F89E85
:103EC0009001F99E300D11243093160520931505AD
:103ED00084A995A90196823391050CF092C195AB06
:103EE00084AB800F911FFC018081082E000C990B80
:103EF000C0972091150530911605820F931F90935E
:103F0000160580931505D801D4968D919C91D5976F
:103F10000296823391050CF074C1D5969C938E93D2
:103F2000D497800F911FFC018081082E000C990B03
:103F3000C097F89E9001F99E300D1124309314051E
:103F400020931305D4968D919C91D5970196823339
:103F500091050CF056C1D5969C938E93D497800F03
:103F6000911FDC018C91082E000C990BC0972091B9
:103F7000130530911405820F931F909314058093BD
:103F80001305F80184A995A90296823391050CF0D6
:103F900038C195AB84AB800F911FDC018C91082E4A
:103FA000000C990BC097F89E9001F99E300D1124DA
:103FB000309312052093110584A995A901968233A7
:103FC00091050CF01EC195AB84AB800F911FFC01D5
:103FD0008081082E000C990BC0972091110530911B
:103FE0001205820F931F909312058093110567E1CC
:103FF00070E081E195E00E94B52367E170E081E126
:1040000095E00E94D023809112058F938091110535
:104010008F93809114058F93809113058F938091D6
:1040200016058F93809115058F9388EB93E09F93EE
:104030008F930E94E52ED801D4968D919C91D597AF
:1040400002960FB6F894DEBF0FBECDBF8233910546
:104050000CF0D7C0D5969C938E93D497800F911F68
:10406000DC018C91082E000C990BC097F89E9001F2
:10407000F99E300D11243093270520932605F80171
:1040800084A995A90196823391050CF0BAC095AB2D
:1040900084AB800F911FDC018C91082E000C990BD2
:1040A000C0972091260530912705820F931F90938A
:1040B00027058093260584A995A902968233910548
:1040C0000CF09FC095AB84AB800F911FFC018081E9
:1040D000082E000C990BC097F89E9001F99E300DA8
:1040E00011243093250520932405D801D4968D9171
:1040F0009C91D5970196823391050CF082C0D5969C
:104100009C938E93D497800F911FFC018081082E81
:10411000000C990BC0972091240530912505820F42
:10412000931F9093250580932405D4968D919C919F
:10413000D5970296823391050CF063C0D5969C9377
:104140008E93D497800F911FDC018C91082E000C68
:10415000990BC097F89E9001F99E300D1124309371
:10416000230520932205F80184A995A9019682339D
:1041700091050CF046C095AB84AB080F191FD80110
:104180008C91082E000C990BC0972091220530913C
:104190002305820F931F90932305809322056AE1E4
:1041A00070E082E295E00E94B5236AE170E082E26D
:1041B00095E00E94D023809123058F938091220562
:1041C0008F93809125058F93809124058F93809103
:1041D00027058F93809126058F9381ED93E09F9320
:1041E0008F930E94E52E62E08CE090E00E942823ED
:1041F0000FB6F894DEBF0FBECDBF80E294E00E9400
:10420000002F61960FB6F894DEBF0FBECDBFDF91D1
:10421000CF911F910F91FF9008951F926F938BEF95
:1042200093E036CC8AE094E068CDFC0182A993A9A2
:10423000813391052CF4019693AB82AB80E0089515
:1042400081E00895FC01A2A9B3A9A80FB91F6C933E
:104250000C941521FC0113AA12AA0C942221FC0132
:1042600084A995A9680F791F6233710524F475AB91
:1042700064AB80E0089581E00895CF93DF938EE4EE
:1042800080937C0086E880937A0087EE93E0019724
:10429000F1F700C0000080917A00806480937A007A
:1042A00080917A0086FDFCCF87EE93E00197F1F7CD
:1042B00000C0000080917A00806480937A00809131
:1042C0007A0086FDFCCF8FE097E20197F1F700C0FE
:1042D00000006091780080917900782F80E09CE266
:1042E0000E949329EB01CB0199279F938F9385E33C
:1042F00094E09F938F930E94E52E80917A008F77B0
:1043000080937A000F900F900F900F908C2FDF9179
:10431000CF910895CF93DF9300D000D0CDB7DEB713
:104320000E943D216AE00E948729282F30E050E05A
:1043300040E029833A834B835C83CA01B9010E9420
:10434000292C69837A838B839C8369817A818B8111
:104350009C810F900F900F900F90DF91CF91089557
:104360009F92AF92BF92CF92DF92EF92FF920F9304
:104370001F93CF93DF938C01F42EE52ED62EC72EFC
:1043800059018BE7F8018083E801229683E4818359
:104390008091DC041F928F9387E094E09F938F932A
:1043A000DF93CF930E942C2FC80FD91F8CE2982E39
:1043B000FE019192CF0162E474E00E94352E2596B1
:1043C000F50181818F9380818F9383818F93828187
:1043D0008F9385818F9384818F9381E691E09F9362
:1043E0008F93DF93CF930E942C2FC80FD91F9992E0
:1043F000CF92DF92EF92FF9287E494E09F938F93A6
:10440000DF93CF930E942C2FC80FD91F8DE788838D
:104410001982F80101900020E9F7CF0101972DB72B
:104420003EB7285E3F4F0FB6F8943EBF0FBE2DBF7C
:10443000801B910BDF91CF911F910F91FF90EF9017
:10444000DF90CF90BF90AF909F9008958CE494E060
:104450000C94002F0895E3E6F7E087E090E0958361
:1044600084838EE190E0938382831182108297830C
:10447000868381E090E09187808786E190E0938752
:1044800082870895FC012085318580916B0790918A
:104490006C0782179307B4F12817390789F526812D
:1044A00037818091690790916A078217930754F1C9
:1044B0002817390729F52481358180916707909164
:1044C000680782179307F4F028173907C9F4228187
:1044D000338180916507909166078217930794F066
:1044E0002817390769F44081518120916307309181
:1044F000640781E0241735073CF04217530721F089
:1045000080E0089581E008950895CF92DF92EF92C0
:10451000FF920F931F93CF93DF93CDB7DEB76897CA
:104520000FB6F894DEBF0FBECDBF182F0E942B220E
:104530008091620781116AC00E944A15F82E092FE6
:10454000103278F582E694E00E94002F812F90E0EF
:10455000B0E0A0E08D8B9E8BAF8BB88FBC01CD01FE
:104560000E94272C2F2D302F462F572FBC01DE0104
:1045700011966D01CD010E94B021E82EDF92CF92FD
:104580008CE794E09F938F930E94E52E6E2DC601D9
:104590000E94A90581E0809362070F900F900F9011
:1045A0000F908F2D902F0E944222882379F18AE864
:1045B00094E00E94002F812F90E0B0E0A0E08D8B6E
:1045C0009E8BAF8BB88FBC01CD010E94272C2F2D65
:1045D000302F462F572FBC018E010F5F1F4FC80190
:1045E0000E94B021F82E1F930F938CE794E09F93C5
:1045F0008F930E94E52E6F2DC8010E94A90581E0CE
:10460000809362070F900F900F900F9068960FB6EF
:10461000F894DEBF0FBECDBFDF91CF911F910F91F8
:10462000FF90EF90DF90CF9008959C01FB01211542
:1046300084E0380758F49FB3892F827091FDFBCF37
:1046400032BD21BDF89A90B59083089582E0089517
:104650009C01211584E0380758F49FB3892F82709C
:1046600091FDFBCF32BD21BD60BDFA9AF99A089544
:1046700082E00895FF920F931F93CF93DF930F92E1
:10468000CDB7DEB78C01F62E011584E0180730F5A2
:104690001982BE016F5F7F4FC8010E9415238111EF
:1046A00016C09981F91699F06F2DC8010E94282330
:1046B00081110DC0BE016F5F7F4FC8010E9415239D
:1046C000811105C081E099819F1101C080E00F90A8
:1046D000DF91CF911F910F91FF90089582E0F7CF66
:1046E000EF92FF920F931F93CF93DF938C01EB0117
:1046F0007B01E40EF51ECE15DF0579F06991C80146
:104700000E943A230F5F1F4F8823A9F3DF91CF91B7
:104710001F910F91FF90EF90089580E0F7CFCF9217
:10472000DF92EF92FF920F931F93CF93DF938C0151
:104730007B016A01D0E0C0E0CC15DD0561F0B70176
:104740006C0F7D1FCE01800F911F0E9415238111D8
:1047500003C02196F1CF80E0DF91CF911F910F919F
:10476000FF90EF90DF90CF9008950F931F93CF931A
:10477000DF938C01EB01FC016481CE010E942823B0
:10478000F8016281CE0101960E942823F801608120
:10479000CE010296DF91CF911F910F910C942823A7
:1047A0000F931F93CF93DF938C01EB01BC016C5FE0
:1047B0007F4FCE010E941523B8016E5F7F4FCE015F
:1047C00001960E941523B801CE010296DF91CF9188
:1047D0001F910F910C941523A5E1B0E0E2EFF3E2F5
:1047E0000C94962A7C011B015A01DC0117961C923D
:1047F0001E92169713968C9181FF68C3FE01319625
:104800004F01D70113969C91F10193FD859193FF80
:1048100081911F01882309F4EDC2853239F493FD9B
:10482000859193FF81911F01853239F4B70190E0A2
:104830000E94B52E65015601E4CF10E0512C00E036
:10484000003238F48B3209F190F48032F9F083327F
:1048500009F107FD34C020ED280F2A3020F506FFAE
:104860001BC0BAE01B9F200D1124122F05C08D32F2
:1048700079F0803371F70160F10193FD859193FF29
:1048800081911F018111DCCF1AC002600460F4CF56
:104890000860F2CF0061F0CFEAE05E9E200D1124A7
:1048A000522E0062E9CF8E3221F406FDA3C20064CD
:1048B000E3CF8C3611F40068DFCF8836E9F29BEB4A
:1048C000980F933008F073C00061805E06FF16E019
:1048D0000F73702E853609F071C0689476F877FEF4
:1048E00077C0812F1C3308F08BE344244394480E97
:1048F00027E0D5014D915D916D917D916D014C87C2
:104900005D876E877F87042DA4016C857D858E85EC
:104910009F850E94492D5C01B981BC87B0FF04C00E
:104920006DE2662EB3FF0BC05BE2652E71FC07C023
:10493000E72DE4706E2E72FE02C070E2672E0C85C9
:104940000C7009F456C06110C4C2F3E000E0F51524
:1049500098F483E0052D081B73FC07C0B70180E2C3
:1049600090E00E94B52E0150C9F7662029F0B701EA
:10497000862D90E00E94B52EFC8548E6A42E40E0EE
:10498000B42EF3FD04C03CE6A32E30E0B32E172D69
:104990001071F5018491811122C0002309F44BCFDD
:1049A000B70180E290E00E94B52E0150F6CF9BE95E
:1049B000980F933008F041C10F7E88CF863619F4E6
:1049C000689477F88CCF112309F489CF115087CFE1
:1049D000212F183010F027E017E0412C8ACF111159
:1049E0008052B70190E00E94B52E2FEFA21AB20AB2
:1049F000D0CF77FE78C04A0CFC85F4FF04C08A81D2
:104A0000813309F44A9414140CF090C028E0241562
:104A100010F428E0422E85E090E077FE06C0C50144
:104A2000B7FE02C090E080E001966110019611236C
:104A300031F0212F30E02F5F3F4F820F931F581628
:104A4000190619F014F0052D081B872D897011F433
:104A5000011171C0662029F0B701862D90E00E94F7
:104A6000B52E73FC02C001116DC077FE98C0B98AE3
:104A7000A88AB7FE02C0198A188A68887988A501B1
:104A8000441951095D8B4C8B412E512C6627772799
:104A9000641975097B8B6A8BA614B7040CF459C092
:104AA0008C899D89861597050CF053C0F501E61990
:104AB000F709E80DF91D818191E0691A7108AA8949
:104AC000BB896A167B060CF446C0B70190E00E94D1
:104AD000B52EBFEF6B167B06F9F6B7018EE290E0BC
:104AE0000E94B52ED9CF76FC96CFE12FF0E0EA15E3
:104AF000FB053CF03CEFA3163FEFB30614F06894BF
:104B000077F83296E80DF91D01C01150112319F004
:104B100082918033D1F377FE7ECF44244394410EBB
:104B20001A151B0431F02CF01A1975CF4424439444
:104B300072CF10E070CFB70180E290E00E94B52EF6
:104B4000015086CFB70180E390E00E94B52E01505E
:104B50008ACF80E3B1CF6889798961507109409427
:104B60005094E889F9894E165F06A4F4461A570A4C
:104B7000460E571EA414B50441F49A81963368F486
:104B8000953319F4FC85F4FF08C0B70190E00E944A
:104B9000B52E03CF512C412CEBCF81E3F6CF8A8188
:104BA000813319F02C852F7E2C87B70190E00E946D
:104BB000B52E1123A9F0B7018EE290E00E94B52E28
:104BC00092E0692E610E12E0E12F1F5FE80DF92DD2
:104BD000F11D8081B70190E00E94B52E6112F4CFE3
:104BE00085E690E074FE02C085E490E0B7010E9483
:104BF000B52EB7FC06C0A114B104C1F43C8534FF46
:104C000015C0B194A194B1088DE2B70190E00E9463
:104C1000B52E80E35AE0A516B10454F4B70190E034
:104C20000E94B52EB701C501C096B1CF8BE2EDCF82
:104C30008F5F4AE0A41AB108EDCF8336B9F083370D
:104C400009F43CC0833509F04FC0D501AD90BD904B
:104C50006D01612F70E006FD02C06FEF7FEFC501AF
:104C60000E94212E3C01102F10680DC0650162E0EA
:104C7000C60ED11CD5018C91898366246394712C56
:104C80005401102F1F7713FD04C05614170409F0A8
:104C900020F5052D6114710409F47FCEF50117FD8F
:104CA000859117FF81915F01B70190E00E94B52EB9
:104CB00001110150B1E06B1A7108ECCFF501A19020
:104CC000B1906F01612F70E006FD02C06FEF7FEFC2
:104CD000C5010E944B2E3C01D4CFB70180E290E089
:104CE0000E94B52E5A94D1CF843619F0893609F036
:104CF00070C007FF65C0F50161917191819191913B
:104D00006F010F7697FF08C090958095709561951B
:104D10007F4F8F4F9F4F00682AE030E0A4010E9430
:104D20004F2FA82EA818BA2C602E06FF0BC0E894AF
:104D300060F8A11638F404FF04C002FD02C00E7E24
:104D4000602EB12E64FE9AC0FE01EA0DF11D808135
:104D5000803309F08CC0562D597E652E062D0870C3
:104D600063FC9BC060FE95C01A2DB51410F4150DA0
:104D70001B1964FE98C0B70180E390E00E94B52E35
:104D800062FE09C088E790E061FE02C088E590E01D
:104D9000B7010E94B52EA11608F491C0AA94B12CB7
:104DA0006FEFA61AB60AA80CB91CD5018E915D0149
:104DB000B70190E00E94B52EA814B904B1F7EDCD6B
:104DC000D5016D917D916D01072E000C880B990B1B
:104DD00098CF702EE89474F82AE030E0853739F1E6
:104DE000B02FB97F7B2E8037A9F058F48835A9F011
:104DF0008F36D9F0F701868197816596E2E10C94B0
:104E0000B22A8837B9F774FE02C0689472F820E1BC
:104E100030E00DC0689474F8F6CF04FF03C0EB2FA8
:104E2000E6607E2E20E132E002C028E030E077FE2E
:104E300016C0D5014D915D916D917D916D014C87AD
:104E40005D876E877F87A4016C857D858E859F85B4
:104E50000E944F2FA82EA818072D0F7764CFF501B9
:104E6000819191916F01AC0170E060E0E8CF62FC4C
:104E700002C0B39473CFB394B39470CF862D867869
:104E800009F46CCFF6CFB70180E290E00E94B52E16
:104E9000B394B514C0F300E06CCF052D0B19B51415
:104EA00008F467CFF8CF862D867809F474CF8BE2AB
:104EB00061FE80E267FC8DE2B70190E06ACFB70146
:104EC00080E390E00E94B52E115065CF8FEF9FEFE9
:104ED00094CF24E000E0251508F049CD84E03ACDD8
:104EE000CDB7DEB761970FB6F894DEBF0FBECDBF6A
:104EF0000E94D10982EA91E00E94002F0E94291CA1
:104F00000E94F91460E083E395E00E9461120E9420
:104F10003D21B82E0E943C090E94291C8FEB91E094
:104F20000E94002F0E9428150E94D90789ED91E068
:104F30000E94002F0E94B9070E943C080E94D907D6
:104F40006CED74E08AE090E00E94152364E170E06B
:104F500080E095E00E94D02367E170E081E195E078
:104F60000E94D0236AE170E082E295E00E94D023A3
:104F700081EF91E00E94002F809101058F93809135
:104F800000058F93809103058F93809102058F9385
:104F9000809105058F93809104058F9302EC13E0B7
:104FA0001F930F930E94E52E809112058F9380919D
:104FB00011058F93809114058F93809113058F9322
:104FC000809116058F93809115058F931F930F93F2
:104FD0000E94E52E809123058F93809122058F9367
:104FE000809125058F93809124058F9380912705CB
:104FF0008F93809126058F931F930F930E94E52E28
:105000000FB6F894DEBF0FBECDBF8091040590911E
:10501000050548976CF48091020590910305CC97A3
:105020003CF48091000590910105CC970CF44FC0A1
:105030008EE092E00E94002F0E9498078091010567
:105040008F93809100058F93809103058F938091BA
:1050500002058F93809105058F93809104058F93AE
:1050600002EC13E01F930F930E94E52E809112052E
:105070008F93809111058F93809114058F93809168
:1050800013058F93809116058F93809115058F934B
:105090001F930F930E94E52E809123058F9380919B
:1050A00022058F93809125058F93809124058F93FE
:1050B000809127058F93809126058F931F930F93DF
:1050C0000E94E52E0FB6F894DEBF0FBECDBF8091D3
:1050D000DC041F928F938DE192E09F938F930E9447
:1050E000E52E8FE1E82E86E0F82E8BE780931F06F1
:1050F00083E4809320068091DC041F928F938CE2DE
:1051000092E09F938F9381E296E09F938F930E940A
:105110002C2F8C010F5D194F809101058F93809189
:1051200000058F93809103058F93809102058F93E3
:10513000809105058F93809104058F9393E3C92E89
:1051400092E0D92EDF92CF921F930F930E942C2FC3
:10515000080F191F809123058F93809122058F934B
:10516000809125058F93809124058F938091270549
:105170008F93809126058F93DF92CF921F930F9389
:105180000E942C2F080F191F1F92BF9287E094E0F6
:105190009F938F931F930F930E942C2FF801E80F7A
:1051A000F91F8DE780831182F70101900020E9F754
:1051B0008F01005216400FB6F894DEBF0FBECDBF70
:1051C000FF92EF928DE392E09F938F930E94E52EE2
:1051D000602FC7010E94A9050F900F900F900F90AC
:1051E00001E00E943C090E94291C0E9428150E948F
:1051F000D9070E943D2183E395E00E941A14682F8D
:105200008FE196E00E945906182F83E395E00E94F3
:10521000771280913305882309F441C083E695E035
:105220000E945A0E90E09E838D8383E695E00E9453
:10523000760E90E09C838B8383E695E00E949A0E25
:1052400090E09A83898385E595E00E943E0E90E088
:1052500098878F8385E595E00E94110E90E09A87EC
:10526000898785E595E00E94EE0D9C878B87CE01AE
:1052700001960E9441160E94D9070093DD04612F18
:105280008FE196E00E94A9058EED94E00E94CD1971
:105290000E94D9070E9452090E94160AA2CF80914B
:1052A000DD048111ECCF0E9464070E94D907E7CF8B
:1052B000E5E5F6E014AA13AA16AA15AA81E087ABC1
:1052C00010AE11AE12AE13AE10921E0610921D0655
:1052D00083E395E00C94560A70E060E08CEE99E070
:1052E0000E946B2E90939806809397060895DB0199
:1052F0008F939F930E94E329BF91AF91A29F800D4E
:10530000911DA39F900DB29F900D11240895991B9C
:1053100079E004C0991F961708F0961B881F7A95AC
:10532000C9F780950895AA1BBB1B51E107C0AA1FAE
:10533000BB1FA617B70710F0A61BB70B881F991F36
:105340005A95A9F780959095BC01CD01089597FBDA
:10535000072E16F4009407D077FD09D00E949329F8
:1053600007FC05D03EF4909581959F4F0895709568
:1053700061957F4F0895A1E21A2EAA1BBB1BFD0168
:105380000DC0AA1FBB1FEE1FFF1FA217B307E40724
:10539000F50720F0A21BB30BE40BF50B661F771F7C
:1053A000881F991F1A9469F760957095809590955C
:1053B0009B01AC01BD01CF010895EE0FFF1F0590C9
:1053C000F491E02D09940E94032BA59F900DB49FAA
:1053D000900DA49F800D911D11240895B7FF0C948A
:1053E000E3290E94E329821B930B0895689401C06E
:1053F000E894F92FF12B12F00C942A2AA0E0B0E0E7
:10540000E4E0FAE20C949C2A092E059422F40E940E
:10541000862A112392F4F0E80F26FFEFE094F0942F
:1054200000951095B094C094D094A194BF0ACF0A6F
:10543000DF0AEF0AFF0A0F0B1F0B0E94352A07FC39
:105440000E94862ACDB7DEB7ECE00C94B82A6894A7
:1054500001C0E8948F929F92CF93DF930E94352AE8
:10546000DF91CF919F908F90089588249924F40123
:10547000E401B0E49F93AA279A158B049C04ED05E0
:10548000FE05CF05D007A10798F4AD2FDC2FCF2F55
:10549000FE2FE92D982C892E982F872F762F652F98
:1054A000542F432F322F2227B85031F7BF9127C0F6
:1054B0001B2EBF91BB27220F331F441F551F661F92
:1054C000771F881F991F881C991CEE1FFF1FCC1F78
:1054D000DD1FAA1FBB1F8A149B04EC05FD05CE052A
:1054E000DF05A007B10748F08A189B08EC09FD0901
:1054F000CE09DF09A00BB10B21601A94E1F62EF45E
:105500009401AF01BE01CD01000C08956095709526
:105510008095909530954095509521953F4F4F4FF0
:105520005F4F6F4F7F4F8F4F9F4F08952F923F9246
:105530004F925F926F927F928F929F92AF92BF92A3
:10554000CF92DF92EF92FF920F931F93CF93DF934F
:10555000CDB7DEB7CA1BDB0B0FB6F894DEBF0FBEAC
:10556000CDBF09942A88398848885F846E847D84F9
:105570008C849B84AA84B984C884DF80EE80FD80FB
:105580000C811B81AA81B981CE0FD11D0FB6F89471
:10559000DEBF0FBECDBFED010895002E083090F0A4
:1055A000982F872F762F652F542F432F322F2227A6
:1055B0000850F4CF220F331F441F551F661F771F5B
:1055C000881F991F0A95B2F7002D089597FD109432
:1055D000002E083098F00850232F342F452F562FD7
:1055E000672F782F892F912DF4CF15949795879554
:1055F0007795679557954795379527950A95AAF713
:105600001124002D0895A29FB001B39FC001A39F54
:10561000700D811D1124911DB29F700D811D1124EB
:10562000911D08955058BB27AA270E942A2B0C943D
:105630007B2C0E946D2C38F00E94742C20F039F4E1
:105640009F3F19F426F40C946A2C0EF4E095E7FBC6
:105650000C94642CE92F0E948C2C58F3BA17620723
:1056600073078407950720F079F4A6F50C94AE2C07
:105670000EF4E0950B2EBA2FA02D0B01B90190016D
:105680000C01CA01A0011124FF27591B99F0593FB1
:1056900050F4503E68F11A16F040A22F232F342FF9
:1056A0004427585FF3CF469537952795A795F04047
:1056B0005395C9F77EF41F16BA0B620B730B840B5C
:1056C000BAF09150A1F0FF0FBB1F661F771F881F14
:1056D000C2F70EC0BA0F621F731F841F48F487956C
:1056E00077956795B795F7959E3F08F0B0CF93955E
:1056F000880F08F09927EE0F9795879508950E94D7
:10570000932B0C947B2C0E94742C58F00E946D2CCF
:1057100040F029F45F3F29F00C94642C51110C9453
:10572000AF2C0C946A2C0E948C2C68F39923B1F353
:10573000552391F3951B550BBB27AA2762177307B7
:10574000840738F09F5F5F4F220F331F441FAA1F4B
:10575000A9F335D00E2E3AF0E0E832D09150504007
:10576000E695001CCAF72BD0FE2F29D0660F771FB5
:10577000881FBB1F261737074807AB07B0E809F09B
:10578000BB0B802DBF01FF2793585F4F3AF09E3F20
:10579000510578F00C94642C0C94AF2C5F3FE4F32B
:1057A000983ED4F3869577956795B795F7959F5F63
:1057B000C9F7880F911D9695879597F90895E1E0AF
:1057C000660F771F881FBB1F621773078407BA070E
:1057D00020F0621B730B840BBA0BEE1F88F7E09569
:1057E00008950E94F82B6894B1110C94AF2C089581
:1057F0000E94942C88F09F5798F0B92F9927B751A1
:10580000B0F0E1F0660F771F881F991F1AF0BA9564
:10581000C9F714C0B13091F00E94AE2CB1E00895E8
:105820000C94AE2C672F782F8827B85F39F0B93FDA
:10583000CCF3869577956795B395D9F73EF4909517
:105840008095709561957F4F8F4F9F4F0895E89495
:1058500009C097FB3EF490958095709561957F4FB8
:105860008F4F9F4F9923A9F0F92F96E9BB27939566
:10587000F695879577956795B795F111F8CFFAF476
:10588000BB0F11F460FF1BC06F5F7F4F8F4F9F4FA7
:1058900016C0882311F096E911C0772321F09EE805
:1058A000872F762F05C0662371F096E8862F70E06B
:1058B00060E02AF09A95660F771F881FDAF7880F45
:1058C0009695879597F9089597F99F6780E870E016
:1058D00060E008959FEF80EC089500240A94161666
:1058E000170618060906089500240A9412161306CE
:1058F000140605060895092E0394000C11F488235C
:1059000052F0BB0F40F4BF2B11F460FF04C06F5F77
:105910007F4F8F4F9F4F089557FD9058440F551F4D
:1059200059F05F3F71F04795880F97FB991F61F021
:105930009F3F79F087950895121613061406551F98
:10594000F2CF4695F1DF08C0161617061806991F04
:10595000F1CF86957105610508940895E894BB27F9
:1059600066277727CB0197F908950E94C82C0C94DD
:105970007B2C0E946D2C38F00E94742C20F0952313
:1059800011F00C94642C0C946A2C11240C94AF2C00
:105990000E948C2C70F3959FC1F3950F50E0551F1A
:1059A000629FF001729FBB27F00DB11D639FAA2774
:1059B000F00DB11DAA1F649F6627B00DA11D661FC3
:1059C000829F2227B00DA11D621F739FB00DA11DE4
:1059D000621F839FA00D611D221F749F3327A00D9E
:1059E000611D231F849F600D211D822F762F6A2F3A
:1059F00011249F5750409AF0F1F088234AF0EE0F9F
:105A0000FF1FBB1F661F771F881F91505040A9F7CB
:105A10009E3F510580F00C94642C0C94AF2C5F3F9A
:105A2000E4F3983ED4F3869577956795B795F79507
:105A3000E7959F5FC1F7FE2B880F911D969587957F
:105A400097F908951F93FC0199278827BC01E894D2
:105A500011911032E9F3193010F01E30C8F31B32E7
:105A600051F01D3249F4689406C00E94562E610F11
:105A7000711D811D911D119110531A30B0F33EF428
:105A800090958095709561957F4F8F4F9F4F1F9197
:105A90000895283008F027E03327DA01990F311DE7
:105AA00087FD916000966105710539F432602E5FC3
:105AB0003D9330E32A95E1F708959F3F30F0803819
:105AC0007105610509F03C5F3C5F3D93913008F042
:105AD0008068911DDF93CF931F930F93FF92EF92F6
