:100000000C94B7000C9446090C94DF000C94DF00AC
:100010000C94DF000C94DF000C94DF000C94780843
:100020000C94DF000C94DF000C94DF000C94DF00D4
:100030000C94DF000C94DF000C94E1000C94DF00C2
:100040000C94DF000C94DF000C94C7080C94DF00C4
:100050000C94DF000C94DF000C94DF000C94DF00A4
:100060000C9485190C94DF006E616E00696E660059
:1000700000407A10F35A00A0724E18090010A5D45F
:10008000E80000E87648170000E40B54020000CABC
:100090009A3B000000E1F505000080969800000002
:1000A00040420F000000A086010000001027000061
:1000B0000000E803000000006400000000000A00E7
:1000C000000000000100000000002C76D888DC67EA
:1000D0004F0823DFC1DFAE59E1B1B796E5E3E45342
:1000E000C63AE651997696E8E6C28426EB898C9B5F
:1000F00062ED407C6FFCEFBC9C9F40F2BAA56FA5FF
:10010000F490055A2AF75C936B6CF9676DC11BFC80
:10011000E0E40D47FEF520E6B500D0ED902E03009B
:10012000943577050080841E080000204E0A0000E8
:1001300000C80C333333330F986E12831141EF8DA7
:100140002114893BE65516CFFEE6DB18D1844B38E7
:100150001BF77C1D901DA4BBE424203284725E2218
:100160008100C9F124ECA1E53D270E2C222C11249D
:100170001FBECFEFD8E0DEBFCDBF14E0A0E0B1E0FE
:10018000E2EBF7E602C005900D92A43BB107D9F768
:1001900027E0A4EBB4E001C01D92AB3AB207E1F74F
:1001A00010E0C7EBD0E004C02197FE010E94932C21
:1001B000C53BD107C9F70E94052A0C94AE330C94B5
:1001C00000001F921FB61F9211248F939F93EF93ED
:1001D000FF938091BD04813019F59091BC048FEF9D
:1001E000890F9130D9F48091B9049091BA0480FFBD
:1001F00043C0289A8091B9049091BA049695879546
:100200009093BA048093B9048091BB048150809389
:10021000BB04811102C01092BD0483E08093BC0432
:100220008091BF04811120C08091B804882331F1EE
:100230008091B60481508093B604811115C010924C
:10024000B8041092BE04E091C104F0E08091B404BF
:10025000EE53FB4F80838091C1048F5F8093C10474
:10026000803210F01092C104FF91EF919F918F9115
:100270001F901FBE1F9018952898BCCF8091BE0478
:10028000811110C01999F0CF81E08093BE041092C3
:10029000B40494E09093B60498E09093B5048093EE
:1002A000B704E2CF9091B6048FEF890F9130B9F483
:1002B0008091B704199B05C09091B404982B90933A
:1002C000B404880F8093B7048091B5048150809363
:1002D000B504811103C081E08093B80483E080936A
:1002E000B604C2CF1092BD041092BE041092BF0497
:1002F000289A209A21989FB7F89481E287BD82E0DE
:1003000084BD85BDEEE6F0E080818260808316BC0E
:100310009FBF08951092BF04089581E08093BF04A9
:1003200008959091C0048091C1049817E1F3E92FDA
:10033000F0E0EE53FB4F80819F5F903218F4909372
:10034000C00408951092C00408959091C10481E002
:100350002091C004291301C080E008951092C104C7
:100360001092C00408959091BD0481E0913009F08D
:1003700080E008959091BD049130E1F393E0909373
:10038000BC049AE09093BB04880F990B9260909301
:10039000BA048093B90481E08093BD040895CF939B
:1003A000DF93EC018991882319F00E94BA01FACFFA
:1003B000DF91CF910895CF93DF93EC01FE018491FB
:1003C0002196882319F00E94BA01F8CFDF91CF91CE
:1003D0000895CF93DF93D82FC62F60E083E40E9467
:1003E00000088D2F0E94E3058C2F0E94E305C82F83
:1003F00060E083E40E94DC078C2FDF91CF910895A9
:1004000060E08F770C94E9018AE10E94000240913C
:10041000E4045091E5046091E6047091E70441150D
:10042000514A6C4B734318F09DE9891B089594EA77
:10043000FCCF89E10E94000285958595089583E1AE
:100440000E9400029091E304891B08950E941F02FC
:10045000882341F08091E3048F5F8093E30480E080
:100460000C9400028FEF08958EE10E9400028295A5
:100470008F700895CF93DF9300D000D0CDB7DEB753
:100480008DE10E94000290E09C0144E035952795A3
:100490004A95E1F7803A9105E0F4F901EE0FFF1F6C
:1004A000E20FF31FE95FFE4F80819181A2819C01E1
:1004B0004A2F50E029833A834B835C8369817A8198
:1004C0008B819C810F900F900F900F90DF91CF91B7
:1004D000089580E291EAA7E0B0E089839A83AB8334
:1004E000BC83ECCFCF92DF92EF92FF920F931F93DA
:1004F000CF93DF9300D000D000D0CDB7DEB788E235
:100500000E940002877090E0B0E0A0E0CC24D82EDA
:10051000E92EFA2E89E20E940002C80ED11CE11CCD
:10052000F11CFE2CED2CDC2CCC248AE20E94000273
:10053000C80ED11CE11CF11C88E20E94000283FF5E
:1005400003C088E0E81AF1080E943A028B018E830A
:100550009D83C701B6010E94DF2E20E030E040E815
:100560005BE469837A838B839C8369817A818B8145
:100570009C810E946B2F20E034E244EF5BE46983AE
:100580007A838B839C8369817A818B819C810E9491
:10059000352E6B017C01B8018E819D810E94DD2E7C
:1005A00020E034E244EF58E469837A838B839C83B0
:1005B00069817A818B819C810E94352E9B01AC01DF
:1005C000C982DA82EB82FC8269817A818B819C818B
:1005D0000E946B2F69837A838B839C8369817A81E4
:1005E0008B819C810E94A72E26960FB6F894DEBFC1
:1005F0000FBECDBFDF91CF911F910F91FF90EF9074
:10060000DF90CF90089580680C94E90163E881E859
:100610000E94E90182E10E94000283FD07C08FE190
:100620009EE40197F1F700C00000F4CF68E082E992
:100630000E94E90181E00895DF92EF92FF920F930B
:100640001F93CF93DF93F82EE92EC62F82E20E94EC
:100650000002D82F2C2F280F3327331F2F3F3105AF
:1006600019F010F0CD2FC095DF2C0F2D1E2D802FEF
:100670008D198C1738F4F80161918F0180E80E9480
:10068000E901F5CF6D2F6C0F82EA0E94E9018C2FF2
:10069000DF91CF911F910F91FF90EF90DF90089520
:1006A000CF93DF930E941F02882381F08DE00E9488
:1006B0000002D82F80E00E940002C82F6D2F8DE825
:1006C0000E94E9018C2FDF91CF9108958FEFFBCF2E
:1006D00061E881E80C94E90160E881E80C94E901A3
:1006E0000C946C03682F823108F061E1623008F4E9
:1006F00062E06250606889E80C94E901AF92BF92B1
:10070000CF92DF92EF92FF920F931F93CF93DF93DD
:10071000382F292FCB01A32FB22F8093E40490937D
:10072000E504A093E604B093E7049B01AD0160E00B
:1007300070E080E090E003E10E94832DA12CE8E4CA
:10074000BE2EF8EECF2EDD24D394E12CF12C00E068
:1007500010E00E94DF2CC22FB32E6A017B01182FFC
:10076000D92F00E10E949E2D622F86E80E94E901A8
:100770002C2F3B2DA601B701812F9D2F08E00E9451
:100780009E2D622F87E80E94E9016C2F88E8DF9197
:10079000CF911F910F91FF90EF90DF90CF90BF907E
:1007A000AF900C94E9010F931F93CF93DF938B01CC
:1007B000D82FC92F60E083E40E94B80760E083E48B
:1007C0000E94DC0761E083E40E94B80761E083E4F3
:1007D0000E9400088FE19EE40197F1F700C000003D
:1007E00061E083E40E94DC078FE19EE40197F1F76A
:1007F00000C0000082E40E940002823131F50E94B4
:100800006C03B8018D2F9C2F0E947E0360E08EE860
:100810000E94E90160E08FE80E94E9018CE00E94FB
:100820000002682F63608CE80E94E90164E086EAB8
:100830000E94E90184E10E9472030E94680381E042
:10084000DF91CF911F910F91089580E0F9CFCF9361
:10085000C82F893008F0C8E08DE10E9400026C2F9B
:10086000C53008F465E06450770B660F771F817F11
:10087000682B8DE9CF910C94E901CF93C82F692F94
:1008800080EA0E94E9016C2F81EACF910C94E90182
:10089000682F89EB0C94E9018EE10E940002682F19
:1008A00064608EE90C94E9018EE10E940002682FD9
:1008B0006B7F8EE90C94E9011092E2048DE10E94B5
:1008C0000002682F6E7F8DE90C94E90181E080932E
:1008D000E2048DE10E940002682F61608DE90C94B2
:1008E000E901CF93C82F0E946803CC2369F00E94CE
:1008F000660460E08DE80E94E90160E082EA0E94FF
:10090000E90181E0CF9108950E945C04F2CFCF937A
:10091000DF93D82F82E10E940002C82FDD2329F146
:100920000E9466046D2F82EA0E94E9016C2F82E921
:100930000E94E901C6FF1EC0C5FD1CC01092E30461
:100940008091E2048823A1F082E20E940002C82F75
:1009500080E10E940002682F8DE80E94E9010E9458
:1009600068038C2FDF91CF9108950E945C04DECF45
:1009700083E1EBCF81E00E940002863841F060E025
:100980008DE80E94E90166E881E80E94E901C0E083
:10099000E8CFCF93DF93EC011816190664F40E9498
:1009A00066046C2F82EA0E94E90165E881E8DF9124
:1009B000CF910C94E9010E945C04F7CFCF92DF92B3
:1009C000EF92FF92CF93DF930E943A026B017C017A
:1009D0000E943402D82F86E20E940002C82FA7018D
:1009E000960104C05695479537952795DA95D2F725
:1009F00068EE73E080E090E00E94712C6C2F213152
:100A000031054105510550F0686086EADF91CF91CC
:100A1000FF90EF90DF90CF900C94E901677FF5CFC6
:100A2000CF93C82F863020F08D30D0F48630C9F4B3
:100A300065EC81EB0E94E9016CE087EB0E94E90123
:100A4000C6E08EE10E9400028F7090E1C99FB00164
:100A50001124682B8EE90E94E901CF910C94DE04E9
:100A6000CCE063EC81EB0E94E9016AE087EB0E9435
:100A7000E901E7CFCF93462F572FBC01C0E049379C
:100A80008EE1580761057105C8F1C1E0413A98E26D
:100A900059076105710590F1C2E0413F8CE35807A9
:100AA0006105710558F1C3E0413491E559076105CD
:100AB000710520F1C4E043318AE7580761057105EB
:100AC000E8F0C5E0453E92EA590761057105B0F0CE
:100AD000C6E0453284EF58076105710578F0C7E03C
:100AE000493498EE590791E06907710538F0C9E07B
:100AF0004139504D6340710508F4C8E08DE10E9412
:100B000000028F7090E1C99FB0011124682B8DE91C
:100B10000E94E901CF910C94DE040F9362E082E41D
:100B20000E94B80762E082E40E94000800E020E032
:100B300040E061E080E00E94C40560EC7AEC89E866
:100B400096E30E94D303811101C0FFCF62E17AE7EF
:100B500080E090E00F910C943A051F93CF93DF93C0
:100B6000D82FC92F162F0E948D0580E00E94710496
:100B7000612F8D2F9C2F0E941C030E940603DF9182
:100B8000CF911F910C946C030F9394B1986294B918
:100B900024982C9A30E2839FC00111248072237024
:100BA000822B94E0499FA00111244C70842B30E1EA
:100BB000639FB00111246071862B80648CBD01702D
:100BC0000DBD0F9108958EBD0DB407FEFDCF8EB5FE
:100BD0000895AF92BF92CF92DF92EF92FF920F9360
:100BE0001F93CF93DF93EC01B62EAA24A39488E839
:100BF000C82E83E1D82EE12CF12C02E310E08DA960
:100C00009EA92BA93CA928173907E9F12CAD22236D
:100C100021F02130D9F01CAE10C08C0F9D1FFC01BB
:100C200081818B3751F4ACAE6BE78CEF95E00E947D
:100C30001E20C8AED9AEEAAEFBAE8DA99EA9019624
:100C4000B8010E945D2C9EAB8DABD9CF8C0F9D1F40
:100C5000FC0161818CEF95E06D3741F40E94162014
:100C60006B2D8CEF95E00E947F1BD5CF0E94162044
:100C70008111D1CF88AD99ADAAADBBAD892B8A2B9F
:100C80008B2B49F2DACFDF91CF911F910F91FF901B
:100C9000EF90DF90CF90BF90AF900895FC0187A9AF
:100CA000882379F080AD91ADA2ADB3AD0097A105D9
:100CB000B10539F00197A109B10980AF91AFA2AF99
:100CC000B3AF0895CF93DF93CDB7DEB761970FB67B
:100CD000F894DEBF0FBECDBFEBEEF4E086A197A186
:100CE0009E838D8384A195A19C838B8382A193A1F4
:100CF0009A8389838EE090E098878F8381E090E0EB
:100D00009A87898786E190E09C878B87CE01019640
:100D10000E94E91481E08093EA0461960FB6F8948A
:100D2000DEBF0FBECDBFDF91CF910895EBEEF4E0B3
:100D300089E090E097A386A315A214A213A212A2A1
:100D400010923405109233058AE090E090933205BA
:100D5000809331051092300510922F0582E190E0CA
:100D600090AF87AB16AA15AA14AA13AA08950E94D9
:100D70008D0580E197E2A0E0B0E080937A06909341
:100D80007B06A0937C06B0937D0661E082E896E046
:100D90000E94E90580917A0690917B06A0917C06DD
:100DA000B0917D06892B8A2B8B2B79F708954CEF18
:100DB00054E06EEF74E080E095E00E948A1485E4D0
:100DC00091E09F938F930E949B31EBEEF4E0828938
:100DD0008F9381898F9384898F9383898F93868959
:100DE0008F9385898F9386E193E09F938F930E94E1
:100DF0009B318DB79EB70A960FB6F8949EBF0FBE73
:100E00008DBF089582E896E00E944E0680917E068E
:100E100090917F06A0918006B09181060097A10570
:100E2000B10559F00197A109B10980937E0690930D
:100E30007F06A0938006B093810680917A069091F8
:100E40007B06A0917C06B0917D060097A105B105B7
:100E500059F00197A109B10980937A0690937B0616
:100E6000A0937C06B0937D0680E495E00C941A1361
:100E7000282F809382068091B5069091B606FC01DA
:100E8000EE57F94F21830196823391052CF490930C
:100E9000B6068093B50608951092B6061092B50670
:100EA0000895CF93C82F0E948D0580E197E2A0E0BE
:100EB000B0E080937A0690937B06A0937C06B09373
:100EC0007D0680917A0690917B06A0917C06B09178
:100ED0007D06892B8A2B8B2BC9F080E00E9487042A
:100EE000882379F30E941F02882329F00E9426029A
:100EF0000E943807F7CF60E082E896E00E94E9059B
:100F0000C23031F48091EA048823D9F2CF91089558
:100F1000C130B9F68091E904882399F21092E9046E
:100F2000F5CF833479F08434C1F0823401F524B1F3
:100F300081E090E001C0880F6A95EAF780958223EE
:100F400084B9089527B181E090E001C0880F6A95C7
:100F5000EAF78095822387B908952AB181E090E06D
:100F600001C0880F6A95EAF7809582238AB90895AF
:100F7000833471F08434B1F08234E9F484B121E037
:100F800030E001C0220F6A95EAF7822B84B90895F8
:100F900087B121E030E001C0220F6A95EAF7822B89
:100FA00087B908958AB121E030E001C0220F6A9527
:100FB000EAF7822B8AB90895833471F08434B1F052
:100FC0008234E9F485B121E030E001C0220F6A9556
:100FD000EAF7822B85B9089588B121E030E001C09D
:100FE000220F6A95EAF7822B88B908958BB121E028
:100FF00030E001C0220F6A95EAF7822B8BB9089581
:10100000833479F08434C1F0823401F525B181E074
:1010100090E001C0880F6A95EAF78095822385B930
:10102000089528B181E090E001C0880F6A95EAF741
:101030008095822388B908952BB181E090E001C0AA
:10104000880F6A95EAF7809582238BB90895442327
:1010500019F0413019F008950C9400080C94DC0745
:101060008334B1F08434B1F08234B1F423B181E03F
:1010700090E0062E02C0880F991F0A94E2F730E034
:101080008223932302C0959587956A95E2F7089588
:1010900026B1EDCF29B1EBCF81E008950895E1E8C5
:1010A000F0E080818260808308951092810008952D
:1010B000809184009091850096958795089510926F
:1010C000B200E0EBF0E08081826080838EE3809369
:1010D000B30017BAE0E7F0E0808182608083E1EB43
:1010E000F0E080818560808308951092B1000895BA
:1010F0001F920F920FB60F9211242F933F934F938D
:101100005F936F937F938F939F93AF93BF93EF936F
:10111000FF930E94020717BA8091C0069091C10602
:10112000A091C206B091C3060196A11DB11D809386
:10113000C0069093C106A093C206B093C306FF9168
:10114000EF91BF91AF919F918F917F916F915F913F
:101150004F913F912F910F900FBE0F901F901895B8
:10116000CF93DF9300D000D0CDB7DEB78091C0061B
:101170009091C106A091C206B091C306BC01CD01F9
:101180000F900F900F900F90DF91CF9108951F92C5
:101190000F920FB60F9211242F933F934F935F93AB
:1011A0006F937F938F939F93AF93BF93EF93FF932F
:1011B0008091C6008093BF068091BF060E943807C9
:1011C00082E08093C000FF91EF91BF91AF919F911A
:1011D0008F917F916F915F914F913F912F910F90E0
:1011E0000FBE0F901F9018958091C4069091C50670
:1011F0009093A4078093A30783E38093C400109285
:10120000C50088E98093C10082E08093C000089502
:101210009091C00095FFFCCF8093C60008959091F7
:101220000001992329F00E94080990E080E00895C8
:1012300081E090E00895EF92FF920F931F93CF9378
:10124000DF93EB018C01F12CE12CEC16FD064CF444
:10125000F80181918F010E940809FFEFEF1AFF0A40
:10126000F4CFCE01DF91CF911F910F91FF90EF90BE
:10127000089583B7816083BF83B7817F846083BF14
:101280007894889583B78E7F83BF0895E09A1895E8
:101290000F931F93CF93DF93EC018B010E945808AB
:1012A000998388830A831B83DF91CF911F910F91CC
:1012B0000895CF93DF93EC010E9458089C014A8166
:1012C0005B8181E04115510561F088819981821728
:1012D000930750F4281B390B81E02417350708F4D5
:1012E00080E0DF91CF910895281B390B21503048C1
:1012F000F3CFFC01108211821382128214821582B4
:101300001682178210861286118613861486158619
:1013100016861786118A108A128A138A148A158AE9
:10132000168A108E178A118E128E138E148E158EB9
:1013300012A213A214A215A216A217A210AA11AAF1
:1013400012AA13AA14AA15AA16AE17AEDC01DE96CD
:1013500016961D921D921D921C9219971E961C9214
:1013600011961C92119716961D921D921D921C9219
:1013700019971E961C9211961C92119716961D9203
:101380001D921D921C9219971E961C9211961C92EA
:10139000119716961D921D921D921C9219971E96DA
:1013A0001C9211961C92119716961D921D921D92D9
:1013B0001C9219971E961C9211961C9211961C92C3
:1013C00011961C9211961C92509682E08C93119665
:1013D0001C9211961C9211961C92119611961C92B9
:1013E0001E92129611961C921E9212961D921D929A
:1013F0001D921C92139714961D921D921D921C9281
:10140000139714961D921D921D921C921397149679
:101410001D921D921D921C92139714961D921D925F
:101420001D921C92139714961D921D921D921C9250
:10143000139714961D921D921D921C921397E757B5
:10144000FF4F10820895862F062E000C990B2FEB6C
:10145000260F263010F4C79708956156663018F4A9
:10146000875591090895C09708951F93CF93DF93EF
:1014700000D000D000D0CDB7DEB78D839E83AD8184
:10148000BE811C911D3219F41196BE83AD838D81EE
:101490009E810E94D82F69837A838B839C83A4E6E4
:1014A000B0E09B01AC010E94992CAB01BC01ED8125
:1014B000FE81FA83E983E981FA81DF012D91BA8304
:1014C000A983822F022E000C990BC0970A9798F3DC
:1014D0002E3231F58181082E000C990BC0978A308D
:1014E0009105F0F4AAE0A89F9001A99F300D112466
:1014F000C901330FAA0BBB0B480F591F6A1F7B1F73
:101500008281082E000C990BC0978A30910540F417
:10151000092E000CAA0BBB0B480F591F6A1F7B1F1B
:101520001D3239F470956095509541955F4F6F4F1E
:101530007F4FCB01BA0126960FB6F894DEBF0FBEDF
:10154000CDBFDF91CF911F9108958F929F92AF925F
:10155000BF92EF92FF920F931F93CF93DF93CDB77C
:10156000DEB72D970FB6F894DEBF0FBECDBF8D87C7
:1015700099878B010E94D82F24E630E040E050E0AC
:101580000E94712C490169837A838B839C839B0120
:10159000AC0160E876E988E990E00E942D2C6D832B
:1015A0007E838F839887D8018D929C92ED85F985F3
:1015B0002191822F022E000C990BC0970A97C0F33D
:1015C0002E32E9F57F0120E836E948E950E0298329
:1015D0003A834B835C838AE0882E912CA12CB12C1A
:1015E000D701ED917D012E2F022E000C330B2053DD
:1015F00031093A8729872A30310508F569817A81CE
:101600008B819C81A50194010E94712C29833A83CE
:101610004B835C83A985BA850E94A42C69877A874D
:101620008B879C872D813E814F815885260F371FE0
:10163000481F591F2D833E834F835887D1CFA5E084
:10164000B0E02D813E814F8158850E94992CDC01AC
:10165000CB010196A11DB11DBC01CD0123E030E0FD
:1016600040E050E00E94712CD80112962D933D93DA
:101670004D935C93159716961C922D960FB6F89481
:10168000DEBF0FBECDBFDF91CF911F910F91FF90B5
:10169000EF90BF90AF909F908F900895CF93DF937E
:1016A00000D000D0CDB7DEB720E030E044E351E415
:1016B00069837A838B839C8369817A818B819C8106
:1016C0000E94C92D20E030E044EB51E469837A8325
:1016D0008B839C8369817A818B819C810E94352ECA
:1016E00069837A838B839C8369817A818B819C81D6
:1016F0000E94A72E69837A838B839C8389819A8138
:1017000060E170E00E945D2CFC01EE0FFF1FEB5DBD
:10171000FE4F808191810F900F900F900F90DF917D
:10172000CF910895CF93DF93EC0187E0FE0170968F
:10173000DE01129601900D928A95E1F787E0FE0195
:101740007796DE01199601900D928A95E1F70E9435
:10175000B0086E8F7F8F88A399A381E089838883E7
:10176000DF91CF9108959B01BC01605F7F4FC9015C
:101770000C94A50A9B01BC01695E7F4FC9010C94C2
:10178000A50AEF92FF920F931F93CF93DF9300D0A0
:1017900000D000D0CDB7DEB78D839E83AD81BE81F2
:1017A00011961C92119714966D917D918D919C913B
:1017B00017970E94DD2E28E23BE64EE65EE4698341
:1017C0007A838B839C8369817A818B819C810E943F
:1017D000352E7B018C01ED81FE81828193819C01FC
:1017E00050E040E029833A834B835C83CA01B9010E
:1017F0000E94DD2E9B01AC01E982FA820B831C83DF
:1018000069817A818B819C810E94C92D462F572F37
:10181000BC0149835A836B837C83AD81BE8118965A
:101820008C91882339F09A01AB01505829833A836F
:101830004B835C8369817A818B819C8126960FB66C
:10184000F894DEBF0FBECDBFDF91CF911F910F91F6
:10185000FF90EF900895EF92FF920F931F93CF9315
:10186000DF9300D000D000D0CDB7DEB78D839E834C
:10187000AD81BE8111961C9211971B966D917D9141
:101880008D919C911E970E94DD2E28E23BE64EE64C
:101890005EE469837A838B839C8369817A818B81FF
:1018A0009C810E94352E7B018C01ED81FE8181851A
:1018B00092859C0150E040E029833A834B835C830E
:1018C000CA01B9010E94DD2E9B01AC01E982FA82B6
:1018D0000B831C8369817A818B819C810E94C92D35
:1018E000462F572FBC0149835A836B837C83AD817C
:1018F000BE811F968C91882339F09A01AB01505814
:1019000029833A834B835C8369817A818B819C81B3
:1019100026960FB6F894DEBF0FBECDBFDF91CF91F4
:101920001F910F91FF90EF900895CF93DF93EB01FC
:101930000E94C10B9F938F937F936F9388EA91E0EE
:101940009F938F93DF93CF930E94E2312DB73EB7E1
:10195000285F3F4F0FB6F8943EBF0FBE2DBF8C0FD0
:101960009D1FDF91CF910895CF93DF93EB010E94EC
:101970002B0C9F938F937F936F9388EA91E09F93B3
:101980008F93DF93CF930E94E2312DB73EB7285F4C
:101990003F4F0FB6F8943EBF0FBE2DBF8C0F9D1F5B
:1019A000DF91CF910895CF93DF93EC018E819F81DA
:1019B000A885B9858A839B83AC83BD830E94B008C8
:1019C0006A877B878C879D8781E089838883DF9105
:1019D000CF910895CF93DF93EC018E819F81A885ED
:1019E000B9858A839B83AC83BD830E94B0086A87D4
:1019F0007B878C879D8781E089838883DF91CF9166
:101A00000895CF93DF93EC01CB010E94350A6E83DA
:101A10007F8388879987DF91CF910895CF93DF9354
:101A2000EC01CB010E94D82F6E837F838887998732
:101A3000DF91CF910895CF93DF9300D000D0CDB741
:101A4000DEB7FC01118282819381A481B581BC0142
:101A5000CD0124E630E040E050E00E94712C698323
:101A60007A838B839C8389819A818053984F0F90CE
:101A70000F900F900F90DF91CF910895CF92DF924A
:101A8000EF92FF92CF93DF9300D000D0CDB7DEB7B7
:101A9000FC01118282819381A481B58124E6C22E4A
:101AA000D12CE12CF12CBC01CD01A70196010E94A3
:101AB000712CCA01B901A70196010E94712C862FD1
:101AC0000F900F900F900F90DF91CF91FF90EF90BC
:101AD000DF90CF900895CF93DF9300D000D0CDB7A3
:101AE000DEB7FC01118282819381A481B581BC01A2
:101AF000CD0120E137E240E050E00E94712C822FBE
:101B00000F900F900F900F90DF91CF910895CF938A
:101B1000DF9300D000D0CDB7DEB7FC011182828107
:101B20009381A481B581BC01CD0120E432E44FE072
:101B300050E00E94712C822F0F900F900F900F9009
:101B4000DF91CF910895CF93DF9300D000D0CDB730
:101B5000DEB7FC01118282819381A481B581BC0131
:101B6000CD0120E137E240E050E00E94712CCA0133
:101B7000B90124E630E040E050E00E94712C862F4D
:101B80000F900F900F900F90DF91CF910895CF920B
:101B9000DF92EF92FF92CF93DF9300D000D0CDB7CA
:101BA000DEB7FC01118282819381A481B58124E694
:101BB000C22ED12CE12CF12CBC01CD01A701960144
:101BC0000E94712CCA01B901A70196010E94712CD3
:101BD000862F0F900F900F900F90DF91CF91FF9075
:101BE000EF90DF90CF900895CF93DF9300D000D097
:101BF000CDB7DEB7FC01118282819381A481B581CA
:101C0000BC01CD0124E630E040E050E00E94712CA0
:101C1000862F0F900F900F900F90DF91CF91089526
:101C2000CF93DF93EC018A859B85AC85BD858E8340
:101C30009F83A887B9870E94B0086A837B838C83BF
:101C40009D8381E089838883DF91CF910895CF932D
:101C5000DF93EC01CB010E94350A6A877B878C8772
:101C60009D87DF91CF910895CF93DF93EC018A8513
:101C70009B85AC85BD858E839F83A887B9870E948D
:101C8000B0086A837B838C839D8381E0898388830A
:101C9000DF91CF910895CF93DF93EC01CB010E94A8
:101CA000D82F6A877B878C879D87DF91CF91089596
:101CB000CF93DF93EC01BC0140960E94EB300E9471
:101CC000B00868A379A38AA39BA381E08DA38CA30A
:101CD000DF91CF91089540E150E00C94F230AF9243
:101CE000BF92DF92EF92FF920F931F93CF93DF93F8
:101CF000EC01FC01E857FF4FD080DD2009F4A0C0C3
:101D0000319660810E94230A182FFE01E657FF4F8B
:101D10006081CE010E94230A1295107F180FFE01E8
:101D2000E957FF4F8081811372C0B5968081918100
:101D3000A281B3810196A11DB11D80839183A283ED
:101D4000B3838E0105561F4FD8018C91882361F013
:101D5000389780819181A281B3810196A11DB11D27
:101D600080839183A283B383FE01E856FF4F808175
:101D70008823A1F18130C1F4CE0182960E94D30C58
:101D8000CE01C0960E94EA0CF8018081882361F0A0
:101D9000CE010E94920BCE01CE960E94100ECE0173
:101DA000845B9F4F0E94100E8E0102561F4FF80158
:101DB000C081D1812097C9F1D801ED91FC9166A134
:101DC00077A18EA19FA10E94E230892B71F5CE01EF
:101DD0000E94580E0AA4DBA5C02DECCFCE01C09600
:101DE0000E94EA0CD8018C91882341F0CE010E9418
:101DF000920BCE01865A9F4F0E94100ECE01885939
:101E00009F4F0E94340ECE018A589F4FCBCFC855AA
:101E1000DF4F88819981AA81BB810196A11DB11DE7
:101E200088839983AA83BB83D12C8D2DDF91CF9199
:101E30001F910F91FF90EF90DF90BF90AF900895AA
:101E40007C01B9E9EB0EF11CF701308188569F4FF8
:101E50005C018E0102561F4F31113EC07E0199E890
:101E6000E90EF11C60EB71E0C7010E94E230892BA2
:101E700039F066EB71E0C7010E94E230892B21F452
:101E800081E0D5018C9310C06CEB71E0C7010E941A
:101E9000E230892B39F062EC71E0C7010E94E23038
:101EA000892BC1F4F5011082C456DF4F88819981D6
:101EB000F80191838083C081D181209709F4B5CF47
:101EC000B7018EA19FA10E94E23097FF98C08AA51A
:101ED0009BA5EECF82E0D5CFDC01EC91E230C9F0DA
:101EE000CE0187579F4FDC012C91222391F0B0E265
:101EF000EB9FF0011124E32B3197E932F10548F40F
:101F0000E055FC4C0C94932CBC01CE01C0960E9471
:101F1000010DF801A080B180C757DF4FA114B104B3
:101F200009F483CFD801ED91FC9166A177A1F50169
:101F300086A197A10E94E230892B09F076CFD501C6
:101F400098968D919C91F7012081422F50E028179F
:101F500019060CF46ACF8417950721F4BE01C50158
:101F60000E946B0ED5019A96AD90BC90D7CFFE0122
:101F7000E556FF4F81E0213479F180E02DC0BE01AC
:101F8000605F7F4F0E94A50AC4CF81E0233509F02E
:101F900080E08E8BBECFBE01695E7F4FF3CF81E0C4
:101FA000273509F080E08D8FB4CFBC01CE01CE96ED
:101FB0000E94270EAECFBC01CE01845B9F4FF8CFAD
:101FC000BC01CE0182960E940E0DA3CFFE01E55604
:101FD000FF4F81E021338CF280839BCFBC01CE0187
:101FE00088599F4F0E944B0E94CFBC01CE018A5856
:101FF0009F4FDECFBC01CE01865A9F4FD9CF892B90
:1020000009F413CFD8011D921C920FCFCF92DF920B
:10201000EF92FF921F93CF93DF93EC01162FFC01F9
:10202000E056FF4F80819181A281B3810196A11D6D
:10203000B11D80839183A283B383CE0186569F4FC7
:102040006C01DE01A857BF4F7D01643209F449C01D
:10205000DCF46A3019F16D3009F1D601EC91EE3003
:1020600048F481E08E0F8C93EC0FFD2FF11DE757A4
:10207000FF4F1083F7018081811142C0C957DF4FA4
:1020800068811627188325C06A3241F06C3229F71F
:10209000FE01E957FF4F808186278083D601EC91AE
:1020A00080E0EF3048F4EC0FFD2FF11DE757FF4FB4
:1020B0001082CE010E946F0EC756DF4F98819F5F3E
:1020C0009883F601108291E01A3209F090E0D7016E
:1020D0009C93DF91CF911F91FF90EF90DF90CF9075
:1020E0000895FC011082FE01E756FF4F108272979F
:1020F0001082719682E080831C92C556DF4F188251
:1021000080E0E7CFAF92BF92CF92DF92EF92FF9243
:102110000F931F93CF93DF937B01B42EA52E6901FC
:102120008C0104561F4FF801C081D1812097B1F076
:102130006EA17FA18B2D9A2D0E94E23097FD0EC0DB
:10214000892B29F488A599A5C816D9063CF08E01DB
:10215000065D1F4F0AA4DBA5C02DE8CFF701D3A76A
:10216000C2A7F801F182E082DF91CF911F910F9118
:10217000FF90EF90DF90CF90BF90AF900895CF93F6
:10218000DF93FC01DB0110A211A212A213A214A280
:1021900015A246A357A320A731A790E1EF01892FED
:1021A00019928A95E9F7BF01605F7F4FEB011992A1
:1021B0009A95E9F7BF01CD01DF91CF910C94821080
:1021C0000C94BF101F93CF93DF93EC01CC54DF4FDF
:1021D0008CED95E0A0E0B0E088839983AA83BB836F
:1021E00086E891E00E94B63110E088819981AA8149
:1021F000BB81892B8A2B8B2B79F00E94A501882328
:10220000A1F30E949101882381F3082E000C990B01
:102210000E94AF311F5FE9CF86E891E00E94B6319E
:10222000812F110F990BDF91CF911F91089540E0FD
:1022300064E084E40C94270841E064E084E40C94B6
:1022400027080E9472010E948A01789408951F93C2
:10225000CF93DF93EC01162F0E94211164E084E4F8
:102260000E94DC0764E084E40E94B807CA57DF4F8D
:102270001883DF91CF911F9108950F931F93CF93F0
:10228000DF93EC018C010C541F4F8CED95E0A0E026
:10229000B0E0F80180839183A283B383F801808149
:1022A0009181A281B381892B8A2B8B2B59F00E94BB
:1022B000A501882399F30E949101682FCE010E9405
:1022C0000610ECCFDF91CF911F910F9108950F93DE
:1022D0001F93CF93DF93EC018C010C571F4FF80134
:1022E00080818130A1F08230E9F1811136C0CE01C8
:1022F0000E9417111882FE01E259FF4F10821182CD
:10230000128213823697108281E0F8018083CE0119
:102310000E943D118881882301F1FE01E859FF4F99
:1023200080818823D1F0118286819781A085B18533
:102330000397A105B10588F088EC91E00E94B631C1
:10234000C055DF4F80E395E7A0E0B0E08883998334
:10235000AA83BB8382E0F8018083DF91CF911F9134
:102360000F910895CE010E943D11FE01E055FF4FEF
:1023700080819181A281B381892B8A2B8B2B69F774
:10238000CE010E941C11F8011082FE01EB57FF4F95
:1023900081E08083CE01DF91CF911F910F910C944A
:1023A0007624EF92FF920F931F93CF93DF9300D089
:1023B00000D000D0CDB7DEB78D839E8386ED91E04F
:1023C0009F938F930E949B310F900F90AD81BE81A0
:1023D0008C91882309F41FC1CD010E942B0C162F6C
:1023E000072FF82EE92E8D819E810E94C10BEF925E
:1023F000FF920F931F939F938F937F936F9381EE21
:1024000091E09F938F930E949B310FB6F894DEBFAB
:102410000FBECDBF85EF91E09F938F930E949B31BC
:102420000F900F90AD81BE8192968C9192978823E8
:1024300009F4F6C07D01B2E2EB0EF11CC7010E9467
:102440001B0D182F092FC7010E943E0DED81FE8143
:1024500013A20F931F931F928F93AD81BE81949609
:102460008D919D910D90BC91A02D89839A83AB8312
:10247000BC83BC01CD0120E137E240E050E00E9486
:10248000712C1F922F9381E092E09F938F930E9473
:102490009B310FB6F894DEBF0FBECDBFAD81BE81BC
:1024A000D0968C91D097882309F4BFC08D01005D30
:1024B0001F4FD1961C92D197D2968D919D910D90E0
:1024C000BC91A02D89839A83AB83BC83BC01CD01D1
:1024D00020E432E44FE050E00E94712C2A3020F4D6
:1024E00080E390E00E94AF31ED81FE8111AA82A9C4
:1024F00093A9A4A9B5A989839A83AB83BC83BC01A2
:10250000CD0120E432E44FE050E00E94712C1F9294
:102510002F938EE192E09F938F930E949B31C8018D
:102520000E94A30D0F900F900F900F908A3020F40F
:1025300080E390E00E94AF31C8010E94A30D1F927A
:102540008F938EE192E09F938F930E949B31C801FD
:102550000E94C70D0F900F900F900F908A3020F4BB
:1025600080E390E00E94AF31C8010E94C70D1F9226
:102570008F938BE593E09F938F930E949B31ED8126
:10258000FE8111AA82A993A9A4A9B5A989839A83D6
:10259000AB83BC83BC01CD0124E630E040E050E0D9
:1025A0000E94712C0F900F900F900F906A3020F4C2
:1025B00080E390E00E94AF31ED81FE8111AA82A9F3
:1025C00093A9A4A9B5A989839A83AB83BC83BC01D1
:1025D000CD0124E630E040E050E00E94712C7F9372
:1025E0006F9389EC92E09F938F930E949B310F90A1
:1025F0000F900F900F9086E891E026960FB6F89412
:10260000DEBF0FBECDBFDF91CF911F910F91FF9025
:10261000EF900C94B6318CEE91E00E94B631FACE78
:1026200084E192E00E94B63139CF8CEE91E00E94B5
:10263000B631E1CF9C01FC01E055FF4F80819181D3
:10264000A281B381892B8A2B8B2B59F080819181B8
:10265000A281B3810197A109B10980839183A283EB
:10266000B383F901EC54FF4F80819181A281B38142
:10267000892B8A2B8B2B59F080819181A281B38188
:102680000197A109B10980839183A283B38308953F
:10269000CF93DF93EB01FC01EA58FF4F1182668173
:1026A0007781808591850E94DF2E9F938F937F9302
:1026B0006F9384E292E09F938F93DF93CF930E9476
:1026C000E2312DB73EB7285F3F4F0FB6F8943EBFBB
:1026D0000FBE2DBF8C0F9D1FDF91CF9108956AE033
:1026E0000E943D2C8295807F890F0895982F9295A6
:1026F0009F708F702AE0929F800D11240895CF93D0
:10270000C82F88E60E94F41A8C2F0E940E1B0E948C
:10271000FE1A61E088E60E94E71ACF910C94631BD1
:10272000CF93DF93C82FD62F88E60E94F41A8D2FFF
:102730000E940E1B8C2F0E940E1BDF91CF910C94D8
:10274000FE1ACF93DF9381E10E947F13D82F82E19D
:102750000E947F13C82F61E18EEE0E94901362E108
:102760008DED0E94901381E10E947F138E3E91F4C3
:1027700082E10E947F138D3D69F481E08093D80649
:1027800061E18D2F0E94901362E18C2FDF91CF9138
:102790000C94901381E08093D706DF91CF91089538
:1027A00062E084E40E94910762E084E40E94DC0716
:1027B000E9E6F0E0808182608083E89A7894089569
:1027C0008091D80608958091D706089581E080937E
:1027D000D8061092D70608951092D80681E080930B
:1027E000D7060895EF92FF920F931F93CF93DF9335
:1027F000CDB7DEB729970FB6F894DEBF0FBECDBFB9
:1028000088E60E94F41A80E00E940E1B0E94FE1AC5
:1028100067E088E60E94E71A8E010F5F1F4F7E0176
:1028200088E0E80EF11C0E94631BF80181938F0180
:10283000EE15FF05C1F70E94FE1A89818F770E946D
:10284000761390E09093C7068093C6068A810E9413
:10285000761390E09093C9068093C8068B810E94FE
:102860007613082F10E01093CB060093CA068D81D3
:102870000E94761390E09093CD068093CC06FE8064
:102880008F2D8F710E94761390E09093CF068093E6
:10289000CE068F810E94761390E0F7FE27C080530A
:1028A000984F9093D1068093D0068C810E94761326
:1028B00090E09093D3068093D20601151105C9F4D8
:1028C0001092D6061092D50681E08093D40686EC4D
:1028D00096E029960FB6F894DEBF0FBECDBFDF910C
:1028E000CF911F910F91FF90EF9008958459984FC9
:1028F000D8CF0C3011052CF41093D6060093D506D2
:10290000E3CF0C5011091093D6060093D506109210
:10291000D406DDCF8F929F92AF92BF92CF92DF927B
:10292000EF92FF920F931F93CF93DF93CDB7DEB754
:1029300029970FB6F894DEBF0FBECDBF8C017B0187
:102940006A0188E60E94F41A80E00E940E1B0E9431
:10295000FE1A67E088E60E94E71ACE0101965C0144
:102960004E0198E0890E911C0E94631BF501819332
:102970005F018E169F06C1F70E94FE1AC114D10492
:1029800029F089810E947613F6018083E114F10415
:1029900029F08A810E947613F701808301151105C1
:1029A00029F08B810E947613F801808329960FB657
:1029B000F894DEBF0FBECDBFDF91CF911F910F9175
:1029C000FF90EF90DF90CF90BF90AF909F908F904F
:1029D00008951F93CF93DF93EC0188E60E94F41AC9
:1029E00080E00E940E1B8A859B85813D27E092072F
:1029F00074F1805D97409B878A8710E888810E94E8
:102A00006F130E940E1B8A810E946F130E940E1B7F
:102A10008C810E946F130E940E1B8C850E946F1385
:102A20000E940E1B8E810E946F130E940E1B8885D0
:102A30000E946F13810F0E940E1B8A850E946F13E4
:102A40000E940E1BDF91CF911F910C94FE1A8C56A1
:102A500097409B878A8710E0D1CF1F93CF93DF9356
:102A6000C82FD62F142F88E60E94F41A80E00E9407
:102A70000E1B812F0E946F130E940E1B8D2F0E9430
:102A80006F130E940E1B8C2F0E946F130E940E1B4F
:102A9000DF91CF911F910C94FE1ACF93C82F809194
:102AA000D70681110BC00E947F13CC2329F08F77AA
:102AB00060E0CF910C9490138068FACFCF91089585
:102AC0008091D706811106C00E947F138095881FD0
:102AD0008827881F0895FF920F931F93CF93DF934A
:102AE0008C01EB01FC01108218828091D8068111C3
:102AF00020C088E60E94F41A81E10E940E1B0E9409
:102B0000FE1A62E088E60E94E71A0E945D1B882395
:102B100081F00E94631BF82E0E94631BF801F08273
:102B2000829586958695837099E1899F802D1124E1
:102B30008883DF91CF911F910F91FF900895CF93DC
:102B4000DF93C82F8091D80681112DC088E60E949E
:102B5000F41A8EE00E940E1B0E94FE1A61E088E6C5
:102B60000E94E71A0E94631BD82F88E60E94F41A7D
:102B70008EE00E940E1B8D2F80620E940E1B0E9411
:102B8000FE1ACC2381F088E60E94F41A8EE00E949F
:102B90000E1B0E94FE1A61E088E60E94E71A0E945E
:102BA000631B85FDF0CFDF91CF910895CF93C82FA0
:102BB00088E60E94F41A88E08C0F0E940E1B0E9487
:102BC000FE1A61E088E60E94E71ACF910C94631B1D
:102BD0000F931F93CF938C01C0E08C2F0E94D615CA
:102BE000F80181938F01CF5FC833B9F7CF911F915F
:102BF0000F910895CF93DF93C82FD62F88E60E94B8
:102C0000F41A88E08D0F0E940E1B8C2F0E940E1B61
:102C1000DF91CF910C94FE1A0F931F93CF938C01E9
:102C2000C0E06C2FF80181918F010E94FA15CF5FEF
:102C3000C833B9F7CF911F910F910895CF93DF93C8
:102C4000D82F8091D806882309F188E60E94F41ACB
:102C500087E00E940E1B0E94FE1A61E088E60E9437
:102C6000E71A0E94631BC82FDD2371F0C06188E65C
:102C70000E94F41A87E00E940E1B8C2F0E940E1BEC
:102C8000DF91CF910C94FE1ACF7EF1CF88E60E949F
:102C9000F41A8EE00E940E1B0E94FE1A61E088E684
:102CA0000E94E71A0E94631BC82FDD2339F0CB7FF7
:102CB000C06488E60E94F41A8EE0DDCFCF7BF9CFA6
:102CC000CF93DF93EC018091D8068823E9F088E662
:102CD0000E94F41A87E00E940E1B0E94FE1A61E017
:102CE00088E60E94E71A0E94631B8C7FC82B88E647
:102CF0000E94F41A87E00E940E1B8C2F0E940E1B6C
:102D0000DF91CF910C94FE1A88E60E94F41A8EE0AF
:102D10000E940E1B0E94FE1A61E088E60E94E71ADC
:102D20000E94631B94E0CC0FDD1F9A95E1F7877E2C
:102D3000C82B88E60E94F41A8EE0DDCFCF93DF9394
:102D4000D82F8091D706882309F188E60E94F41ACB
:102D50008FE00E940E1B0E94FE1A61E088E60E942E
:102D6000E71A0E94631BC82FDD2371F0C86088E654
:102D70000E94F41A8FE00E940E1B8C2F0E940E1BE3
:102D8000DF91CF910C94FE1AC77FF1CFDF91CF91E5
:102D900008958091D806882361F060E080E00E9469
:102DA000FA1561E080E00E94FA1562E080E00C9480
:102DB000FA1567E080E00E94901368E080E00E94CE
:102DC000901369E080E00E9490136AE080E00C9428
:102DD00090131F93CF93DF93C82FD62F142F8831D2
:102DE00008F054C06C3308F051C04C3308F04EC0AA
:102DF0008091D806882379F060E08C2F0E94FA1524
:102E000061E08D2F0E94FA1562E0812FDF91CF9152
:102E10001F910C94FA15842F0E946F1367E00E9493
:102E200090138D2F0E946F1368E00E9490138C2FD7
:102E30000E946F1369E00E9490136AE081E80E948B
:102E400090138FE00E947F136FE08E7F0E9490139B
:102E500088E60E94F41A8EE00E940E1B0E94FE1A61
:102E600061E088E60E94E71A0E94631BC82F88E68B
:102E70000E94F41A8EE00E940E1B8C2F81600E942B
:102E80000E1BDF91CF911F910C94FE1ADF91CF9111
:102E90001F910895FC01892B29F040816281848172
:102EA0000C94E9160895EF92FF920F931F93CF931E
:102EB000DF93EC018B017A018091D8068823E9F039
:102EC000209721F080E00E94D61588830115110516
:102ED00029F081E00E94D615F8018083E114F10405
:102EE00029F082E00E94D615F7018083DF91CF910F
:102EF0001F910F91FF90EF90089587E00E947F133C
:102F00008F770E947613F701808388E00E947F13F9
:102F10008F770E947613F801808389E00E947F13E7
:102F20008F770E9476138883E1CFCF93DF9300D011
:102F30000F92CDB7DEB7AE014F5F5F4FBE016E5F40
:102F40007F4FCE0103960E945317E6ECF6E08B818B
:102F500090E0958384838A8190E093838283898142
:102F600090E091838083CF010F900F900F90DF91BD
:102F7000CF910895FF920F931F93CF93DF9300D0CB
:102F80000F92CDB7DEB78091D806882349F180E053
:102F90000E94D615F82E81E00E94D615082F82E0F7
:102FA0000E94D615182FAE014F5F5F4FBE016E5FB6
:102FB0007F4FCE0103960E948A148B818F1106C029
:102FC0008A81801303C081E09981911380E00F9082
:102FD0000F900F90DF91CF911F910F91FF90089567
:102FE0008FE00E947F13182F117080FF04C06FE0E4
:102FF0008E7F0E949013812FEACFCF93DF93FC0145
:10300000DB0146A157A127A930AD14968D919C9163
:103010001597421753070CF12417350754F0421740
:103020005307D9F4C4A1D5A165A976A96C177D076A
:10303000A4F484179507A4F088319105A4F028170B
:10304000390749F481E012964D915C9125A936A982
:10305000421753074CF080E007C0841795077CF3B4
:103060008217930764F781E0DF91CF910895EF9283
:10307000FF920F931F93CF93DF93FC01EB01DC01D1
:10308000A85BBF4F8C819D812D913C91820F931F36
:1030900028E1E22EF12CB7010E945D2C9C01958362
:1030A0008483DF01AA5BBF4F0D911C918A819B81B4
:1030B000800F911F6CE370E00E945D2C93838283EC
:1030C0008A819B81080F191F0C3311053CF0C9013F
:1030D0000196B7010E945D2C95838483DF91CF9187
:1030E0001F910F91FF90EF900895CF93DF93EC0124
:1030F000BC016F5E7F4F0E9437188B818F938A814E
:103100008F938D818F938C818F938FE492E09F9327
:103110008F930E949B31BE01CE010E94FD170F903C
:103120000F900F900F900F900F9040E08823D9F0F0
:103130006A818C810E94E9168B818F938A818F939B
:103140008D818F938C818F9383E792E09F938F93F0
:103150000E949B310F900F900F900F900F900F9047
:10316000DF91CF9108956CA18EA10E94E9168DA1E7
:103170008F938CA18F938FA18F938EA18F9380EAD1
:1031800092E0E4CF10924407449A459AE9EBF0E0CC
:1031900080818E7F808380818D7F80838CE080938F
:1031A000B80085E48093BC0078940895880F8093DC
:1031B000BA000895982F842F413258F52091440782
:1031C0002111FCCF21E0209344072FEF2093D90653
:1031D00010921E07280F20931D07990F916090935E
:1031E000430795EE9093BC00909144079130E1F332
:1031F00090911E07981710F480911E072FE137E079
:10320000FB01D9019A2F921B981720F49D9191935D
:10321000F9CF80E00895982F4132B0F580914407AE
:103220008111FCCF32E0309344073FEF3093D90651
:1032300010921E0740931D07562FAFE1B7E0FB0128
:103240003E2F351B341718F431913D93F9CF492F98
:1032500050E0440F551F4093430795EE9093BC00F8
:10326000222321F0909144079230D1F39091D90616
:103270009F3F79F08091D906803241F08091D90644
:10328000803331F084E0089581E0089582E008956C
:1032900083E00895613288F420914407243079F462
:1032A0006093FB06282FADEFB6E0FC018E2F821B4A
:1032B000861738F481918D93F9CF81E0089582E0EB
:1032C000089580E008959093400780933F07089504
:1032D00090934207809341070895882321F085EC5D
:1032E0008093BC00089585E8FBCF85ED8093BC00FA
:1032F0008091BC0084FDFCCF10924407089585ECBA
:103300008093BC001092440708951F920F920FB64D
:103310000F9211242F933F934F935F936F937F935B
:103320008F939F93AF93BF93EF93FF939091B900C7
:10333000892F887F803509F4BCC008F045C08033F0
:1033400009F4B2C0A0F5883101F1D0F4883009F455
:10335000A3C0803109F4A0C0882309F4E9C0FF911B
:10336000EF91BF91AF919F918F917F916F915F91FD
:103370004F913F912F910F900FBE0F901F90189576
:10338000803209F491C0883251F790911E078091E4
:103390001D07981708F08AC0E0911E0781E08E0F84
:1033A00080931E07F0E0E15EF84F808177C08034A3
:1033B00009F48BC0883409F479C0883381F680938E
:1033C000D9060E947F19CBCF803A09F498C060F5E6
:1033D000803809F482C0F8F48036B9F080F488357A
:1033E00009F0BDCFE0911E0781E08E0F80931E078C
:1033F0008091BB00F0E0E15EF84F808357C08037DA
:1034000021F0987E983609F0AACF83E08093440794
:103410001092DA0645C0803909F45FC0987E98386A
:1034200009F09DCF85E83DC0883BD9F058F5883A32
:1034300019F0803B09F093CF84E080934407109209
:10344000FC061092FB06E0914107F09142070995B6
:103450008091FB06811105C081E08093FB061092EC
:10346000FD06E091FC0681E08E0F8093FC06F0E003
:10347000E350F94F80818093BB009091FC068091CE
:10348000FB0627C0907F903C09F069CF85EC8093C4
:10349000BC001092440763CF809143078093BB0028
:1034A00085EC8093BC005BCF8093D9060E94751990
:1034B00056CFE0911E0781E08E0F80931E0780910A
:1034C000BB00F0E0E15EF84F808390911E07809191
:1034D0001D07981708F0A6CFE3CF8091DA06803257
:1034E00008F0A0CFE091DA0681E08E0F8093DA0633
:1034F0008091BB00F0E0E552F94F8083D1CF8091FD
:10350000DA06803230F4E091DA06F0E0E552F94F65
:1035100010820E9475196091DA0670E0E0913F0711
:10352000F09140078BED96E009951092DA0649CFAD
:103530001092D906BBCFCF93DF93DC01CB01E09192
:103540004507F09146073097E9F030916E072091DA
:103550006D073217B8F040E0242F30E02817390704
:1035600054F4ED01C20FD31F58812159384FE9019E
:1035700058834F5FF1CF10926E0780936D07DF91F4
:10358000CF910994DF91CF910895E0914707F09191
:103590004807309729F010924B0710924A07099478
:1035A000089510926E0710926D0710924B071092BB
:1035B0004A070C94C2180E94D61885EC9AE10E9422
:1035C00068198BE99AE10E9463190C94D11A462F6D
:1035D000613208F040E26FE677E00E94DA1810925C
:1035E0006E0780936D07089591E09093490780934B
:1035F0006C0710924B0710924A07089521E0409102
:103600004A076CE477E080916C070E940B191092D6
:103610004B0710924A07109249070895CF93DF9302
:103620000F92CDB7DEB78983809149078823A9F02F
:1036300080914A07803268F480914B07E82FF0E0D0
:10364000E45BF84F998190838F5F80934B07809361
:103650004A070F90DF91CF91089561E0CE01019666
:103660000E944A19F6CF0F931F93CF93DF932091B7
:103670004907222369F08C01EC01C60FD11D0C17FC
:103680001D0761F0F80181918F010E940E1BF7CF99
:10369000DF91CF911F910F910C944A19DF91CF9137
:1036A0001F910F910895DC010D900020E9F711970B
:1036B000BD01681B790B0C94331B80916D079091B1
:1036C0006E07891B089590916E0780916D0798177A
:1036D00048F4E92FF0E0E159F84F80819F5F909323
:1036E0006E07089580E008959093460780934507FC
:1036F0000895909348078093470708950895FF928F
:103700000F931F93CF93DF93CDB7DEB761970FB6BB
:10371000F894DEBF0FBECDBF8C01F62E81E090E0A5
:10372000D801DF969C938E93DE9711968C91282F6B
:10373000082E000C330B3F938F938EEC92E09F93F7
:103740008F930E949B31F80186AD97ADE80FF91F6A
:1037500020810F900F900F900F90293409F4BBC374
:1037600094F4213409F40EC4243409F4FFC361969F
:103770000FB6F894DEBF0FBECDBFDF91CF911F9182
:103780000F91FF900895223509F475C2233579F71A
:103790009C012E5F3F4F2C3331054CF7D801DF964B
:1037A0003C932E93DE97200F311FF9016081062E86
:1037B000000C770B605371094AE0469FF001479F68
:1037C000F00D1124F0931205E0931105BC016D5F1B
:1037D0007F4F8933910559F2DF967C936E93DE9784
:1037E000600F711FDB012C91022E000C330B205354
:1037F00031092E0F3F1F30931205209311059C01B4
:103800002B5F3F4F2C3331050CF0B1CFF80137AFB0
:1038100026AF200F311FD9016C91062E000C770BBB
:1038200060537109469FF001479FF00D1124F093FA
:103830001005E0930F05BC016A5F7F4F8633910549
:1038400009F495CFD801DF967C936E93DE97600FD5
:10385000711FDB012C91022E000C330B2053310918
:103860002E0F3F1F3093100520930F059C01285FFA
:103870003F4F2C3331050CF07ACFF80137AF26AF2C
:10388000200F311FD9012C91022E000C330B205335
:103890003109429FB001439F700D112470930E05B2
:1038A00060930D059C01275F3F4FC39709F45FCFDD
:1038B00037AF26AF200F311FF9018081082E000C91
:1038C000990BC097860F971F90930E0580930D0557
:1038D00064E170E08DE095E00E94282364E170E0EF
:1038E0008DE095E00E94432380910E058F93809197
:1038F0000D058F93809110058F9380910F058F9305
:10390000809112058F93809111058F9381EF92E042
:103910009F938F930E949B31D801DE968D919C914D
:10392000DF979C012E5F3F4F0FB6F894DEBF0FBEAE
:10393000CDBF2C3331050CF01ACFDF963C932E937C
:10394000DE97200F311FD9014C91042E000C550B2E
:10395000405351092AE0F22EF49EB001F59E700DFD
:1039600011247093230560932205AC014D5F5F4FD6
:103970008933910509F4FBCEF80157AF46AF400FEC
:10398000511FDA012C91022E000C330B2053310908
:10399000260F371F30932305209322059C012B5FB0
:1039A0003F4F2C3331050CF0E2CE37AF26AF200F5E
:1039B000311FF9014081042E000C550B4053510971
:1039C000F49EB001F59E700D112470932105609353
:1039D0002005AC014A5F5F4F8633910509F4C7CEDD
:1039E000D801DF965C934E93DE97400F511FFA018A
:1039F0002081022E000C330B20533109260F371F74
:103A000030932105209320059C01285F3F4F2C33E4
:103A100031050CF0ACCEDF963C932E93DE97200F51
:103A2000311FD9012C91022E000C330B2053310988
:103A3000F29EA001F39E500D112450931F05409358
:103A40001E059C01275F3F4FC39709F490CEF801F4
:103A500037AF26AF200F311FD9018C91082E000CF3
:103A6000990BC097840F951F90931F0580931E0597
:103A700067E170E08EE195E00E94282367E170E045
:103A80008EE195E00E94432380911F058F938091E2
:103A90001E058F93809121058F93809120058F9330
:103AA000809123058F93809122058F938CE093E082
:103AB0009F938F930E949B31F80186AD97AD02963C
:103AC0000FB6F894DEBF0FBECDBF8C3391050CF05E
:103AD0004ECE97AF86AF800F911FDC018C91082EE0
:103AE000000C990BC097F89E9001F99E300D11249F
:103AF000309334052093330586AD97AD01968C3312
:103B000091050CF034CE97AF86AF800F911FFC016A
:103B10008081082E000C990BC097209133053091BD
:103B20003405820F931F9093340580933305D80199
:103B3000DE968D919C91DF9702968C3391050CF067
:103B400016CEDF969C938E93DE97800F911FFC011B
:103B50008081082E000C990BC097F89E9001F99E69
:103B6000300D11243093320520933105DE968D916E
:103B70009C91DF9701968C3391050CF0F8CDDF9680
:103B80009C938E93DE97800F911FDC018C91082E01
:103B9000000C990BC0972091310530913205820FAE
:103BA000931F9093320580933105F80186AD97AD50
:103BB00002968C3391050CF0DACD97AF86AF800F6B
:103BC000911FDC018C91082E000C990BC0974AE0E4
:103BD000489F9001499F300D112430933005209368
:103BE0002F0586AD97AD01968C3391050CF0BFCDB6
:103BF00097AF86AF080F191FF8018081082E000CBF
:103C0000990BC09720912F0530913005820F931F9B
:103C10009093300580932F056AE170E08FE295E084
:103C20000E9428236AE170E08FE295E00E9443231E
:103C3000809130058F9380912F058F93809132056D
:103C40008F93809131058F93809134058F9380916C
:103C500033058F9385E293E09F938F930E949B316E
:103C600062E08CE090E00E949B220FB6F894DEBFE9
:103C70000FBECDBF7CCD9C012E5F3F4F2C33310555
:103C80000CF075CDD801DF963C932E93DE97200F74
:103C9000311FF9014081042E000C550B405351098E
:103CA0006AE0649FF001659FF00D1124AC014D5F47
:103CB0005F4F8933910509F45ACDDF965C934E939B
:103CC000DE97400F511FDA012C91022E000C330BAE
:103CD000205331092E0F3F1F3E832D839C012B5F04
:103CE0003F4F2C3331050CF042CDF80137AF26AFF2
:103CF000200F311FD9014C91042E000C550B40535D
:103D00005109649FF001659FF00D1124AC014A5FD9
:103D10005F4F8633910509F42ACDD801DF965C9375
:103D20004E93DE97400F511FDA012C91022E000CAA
:103D3000330B205331092E0F3F1F3C832B839C01F3
:103D4000285F3F4F2C3331050CF011CDF80137AF10
:103D500026AF200F311FD9014C91042E000C550BBA
:103D600040535109649FF001659FF00D1124AC018F
:103D7000475F5F4F8333910509F4F9CCD801DF9693
:103D80005C934E93DE97400F511FDA012C91022E67
:103D9000000C330B205331092E0F3F1F3A83298328
:103DA0009C01255F3F4F2C3331050CF0E0CCF8012E
:103DB00037AF26AF200F311FD9016C91062E000CB2
:103DC000770B605371094AE0469FF001479FF00D61
:103DD0001124BC01645F7F4F8033910509F4C7CC87
:103DE000D801DF967C936E93DE97600F711FDB0125
:103DF0002C91022E000C330B205331092E0F3F1F44
:103E000038872F839C01225F3F4F2C3331050CF004
:103E1000AECCF80137AF26AF200F311FD9016C911E
:103E2000062E000C770B60537109469FF001479FE7
:103E3000F00D1124BC01615F7F4F8D32910509F4B3
:103E400096CCD801DF967C936E93DE97600F711F3E
:103E5000DB012C91022E000C330B205331092E0F65
:103E60003F1F3A8729879C012F5E3F4F2C33310536
:103E70000CF07DCCF80137AF26AF200F311FD901F0
:103E80002C91022E000C330B20533109429FB001BC
:103E9000439F700D11249C012E5E3F4F8A9709F4B9
:103EA00066CC37AF26AF020F131FF8018081082EB2
:103EB000000C990BC097860F971F9C878B87CE01AC
:103EC00001960E94E91481E08093EA048DED92E06E
:103ED0000E94B6314CCC9C012E5F3F4F2C333105F4
:103EE0000CF045CCD801DF963C932E93DE97AC01C5
:103EF0004D5F5F4FC99709F43ACC200F311FF9018C
:103F00009081DF965C934E93DE979053040F151FBC
:103F1000D8018C91BAE09B9F800D112460ED680F51
:103F200081538236F0F48AE090E00E949B2268EE92
:103F300074E08AE090E00E94882262E08BE090E0EA
:103F40000E949B228091E8041F928F9380E493E06B
:103F50009F938F930E949B310F900F900F900F9023
:103F600006CC1F926F938FE493E0F2CFE1E087E7F6
:103F700093E0FE12ADCF8EE593E00E94B6310E9431
:103F80009224F5CB9C012E5F3F4F2C3331050CF072
:103F9000EECBD801DF963C932E93DE97F801E20F2B
:103FA000F31F4081443481F52F5F3F4F89339105E2
:103FB00009F4DDCBF80137AF26AFAC014C5F5F4FA2
:103FC000C89709F4D4CB200F311FD9019C9157AF6A
:103FD00046AF9053040F151FF80180818053FAE01B
:103FE0009F9F800D11249091E804981308C00E94AF
:103FF000972381E08093E9048DE893E069CF1F92D5
:104000008F9384E993E0A4CF3F932F9383EA93E0C7
:104010009FCFFC0184AD95AD8B3391052CF40196B7
:1040200095AF84AF80E0089581E00895FC01A4ADD0
:10403000B5ADA80FB91F6C930C940920FC0115AE07
:1040400014AE0C941620FC0186AD97AD680F791F55
:104050006C33710524F477AF66AF80E0089581E09A
:104060000895CF93DF938EE480937C0086E880935D
:104070007A008FEC97E00197F1F700C00000809183
:104080007A00806480937A0080917A0086FDFCCF6C
:104090008FEC97E00197F1F700C0000080917A0063
:1040A000806480937A0080917A0086FDFCCF8FE156
:1040B0009EE40197F1F700C00000609178008091C4
:1040C0007900782F80E09CE20E94492CEB01CB0123
:1040D00099279F938F9388EB93E09F938F930E94F0
:1040E0009B3180917A008F7780937A000F900F90A8
:1040F0000F900F908C2FDF91CF910895CF93DF9386
:1041000000D000D0CDB7DEB70E9431206AE00E9417
:104110003D2C282F30E050E040E029833A834B8348
:104120005C83CA01B9010E94DF2E69837A838B8385
:104130009C8369817A818B819C810F900F900F9075
:104140000F90DF91CF9108959F92AF92BF92CF923F
:10415000DF92EF92FF920F931F93CF93DF938C0127
:10416000F42EE52ED62EC72E59018BE7F801808359
:10417000E801229684E481838091E8041F928F9362
:1041800082ED93E09F938F93DF93CF930E94E23170
:10419000C80FD91F8CE2982EFE019192CF0165ECD9
:1041A00073E00E94EB302596F50181818F93808129
:1041B0008F9383818F9382818F9385818F93848165
:1041C0008F938AEC93E09F938F93DF93CF930E941A
:1041D000E231C80FD91F9992CF92DF92EF92FF92EE
:1041E00086ED93E09F938F93DF93CF930E94E2310C
:1041F000C80FD91F8DE788831982F801019000202C
:10420000E9F7CF0101972DB73EB7285E3F4F0FB6B4
:10421000F8943EBF0FBE2DBF801B910BDF91CF9155
:104220001F910F91FF90EF90DF90CF90BF90AF90D4
:104230009F9008958BED93E00E94B63167E084E48F
:104240000E94B80767E084E40E94DC0765E084E42C
:104250000E94B80765E084E40E94000866E084E4F8
:104260000E94B80766E084E40E94000867E084E4E6
:104270000E94000865E084E40E94DC0766E084E4B4
:104280000E9400082FEF82E795E521508040904082
:10429000E1F700C0000065E084E40E94000866E0E9
:1042A00084E40E9400082FEF84E39CE021508040CA
:1042B0009040E1F700C0000065E084E40E9400083F
:1042C00066E084E40E94DC072FEF82E795E5215049
:1042D00080409040E1F700C0000065E084E40E9467
:1042E000000866E084E40E94000867E084E40C941F
:1042F000DC0767E084E40E94000865E084E40E9433
:10430000DC0766E084E40E9400082FEF82E795E571
:10431000215080409040E1F700C0000065E084E457
:104320000E94000866E084E40E94000867E084E4DC
:104330000C94DC07E0E9F7E087E090E09583848364
:104340008EE190E09383828311821082978386832B
:1043500081E090E09187808786E190E09387828773
:104360000895FC01208531858091980790919907E7
:1043700082179307B4F12817390789F52681378109
:1043800080919607909197078217930754F1281709
:10439000390729F5248135818091940790919507FB
:1043A00082179307F4F028173907C9F42281338163
:1043B00080919207909193078217930794F02817A2
:1043C000390769F44081518120919007309191071C
:1043D00081E0241735073CF04217530721F080E0B5
:1043E000089581E008950895CF92DF92EF92FF92B1
:1043F0000F931F93CF93DF93CDB7DEB768970FB6B8
:10440000F894DEBF0FBECDBF182F0E949A21809175
:104410008F0781116EC00E94F213F82E092F1032FF
:1044200088F581EF93E00E94B6310E947921812FB7
:1044300090E0B0E0A0E08D8B9E8BAF8BB88FBC017D
:10444000CD010E94DD2E2F2D302F462F572FBC017E
:10445000DE0111966D01CD010E94A420E82EDF92AD
:10446000CF928BE094E09F938F930E949B316E2DAF
:10447000C6010E94AD0581E080938F070F900F90D9
:104480000F900F908F2D902F0E94B121882389F1DA
:1044900089E194E00E94B6310E947921812F90E059
:1044A000B0E0A0E08D8B9E8BAF8BB88FBC01CD01AF
:1044B0000E94DD2E2F2D302F462F572FBC018E014D
:1044C0000F5F1F4FC8010E94A420F82E1F930F9367
:1044D0008BE094E09F938F930E949B316F2DC801D6
:1044E0000E94AD0581E080938F070F900F900F9091
:1044F0000F9068960FB6F894DEBF0FBECDBFDF9168
:10450000CF911F910F91FF90EF90DF90CF90089582
:104510009C01FB01211584E0380758F49FB3892FD3
:10452000827091FDFBCF32BD21BDF89A90B590838A
:10453000089582E008959C01211584E0380758F41D
:104540009FB3892F827091FDFBCF32BD21BD60BD2D
:10455000FA9AF99A089582E00895FF920F931F93B3
:10456000CF93DF930F92CDB7DEB78C01F62E0115F6
:1045700084E0180730F51982BE016F5F7F4FC801D4
:104580000E948822811116C09981F91699F06F2D29
:10459000C8010E949B2281110DC0BE016F5F7F4F39
:1045A000C8010E948822811105C081E099819F1174
:1045B00001C080E00F90DF91CF911F910F91FF908C
:1045C000089582E0F7CFEF92FF920F931F93CF935E
:1045D000DF938C01EB017B01E40EF51ECE15DF05A8
:1045E00079F06991C8010E94AD220F5F1F4F8823A7
:1045F000A9F3DF91CF911F910F91FF90EF90089554
:1046000080E0F7CFCF92DF92EF92FF920F931F934C
:10461000CF93DF938C017B016A01D0E0C0E0CC1521
:10462000DD0561F0B7016C0F7D1FCE01800F911F7A
:104630000E948822811103C02196F1CF80E0DF9192
:10464000CF911F910F91FF90EF90DF90CF90089541
:104650000F931F93CF93DF938C01EB01FC016481D7
:10466000CE010E949B22F8016281CE0101960E9438
:104670009B22F8016081CE010296DF91CF911F91BC
:104680000F910C949B220F931F93CF93DF938C0178
:10469000EB01BC016C5F7F4FCE010E948822B80104
:1046A0006E5F7F4FCE0101960E948822B801CE0135
:1046B0000296DF91CF911F910F910C948822CF9396
:1046C000DF9389E190E00E94F625C82FD0E08AE1CF
:1046D00090E00E94F625D82B27E32C9FC0012D9F48
:1046E000900D1124C296DF91CF910895CF93DF935F
:1046F00089E190E00E94F625C82FD0E08AE190E0A1
:104700000E94F6259E01382BC901019662E271E0F4
:104710000E94492CC92F682F89E190E00E94A025B2
:104720006C2F8AE190E0DF91CF910C94A0250F933C
:104730001F93CF93DF9389E190E00E94F625082F25
:1047400010E08AE190E00E94F625182B8BE190E0C2
:104750000E94F625C82FD0E08CE190E00E94F6255B
:10476000D82BC017D107A8F4CE01019662E271E000
:104770000E94492CEC016C2F8BE190E00E94A02557
:104780006D2F8CE190E0DF91CF911F910F910C94F0
:10479000A0250C171D0778F72196EDCFCF93DF9357
:1047A000D82FC92F0E945F2347E36D2F7C2F0E94D3
:1047B0006226DF91CF910C9476238F929F92AF92D5
:1047C000BF92CF92DF92EF92FF920F931F93CF93FE
:1047D000DF938C01E62ED72E0E943120C82E6E2D3D
:1047E0007D2DC8010E94950CFC018CE2F82EF192FF
:1047F000BF01C8010E94B40CFC01F192BF01C801C5
:104800000E944813EC01F992480180E3880E911C44
:10481000C4010E94C70DA82EC4010E94A30DB82E8A
:10482000C4010E94870D1F92AF921F92BF921F92E8
:104830008F9387E394E09F938F93DF93CF930E94AE
:10484000E231C80FD91FF9925801F2E2AF0EB11C44
:10485000C5010E941B0D082F992EC5010E943E0D17
:10486000182FC5010E946B0D9F920F931F921F93EB
:104870001F928F9386E494E09F938F93DF93CF935F
:104880000E94E231C80FD91FF9921F92CF9281E4A2
:1048900094E09F938F93DF93CF930E94E231C80FF0
:1048A000D91FFE01F192CF0165E574E00E94EB3063
:1048B0001C82DF92EF9289E594E09F938F930E9490
:1048C0009B318DB79EB74E960FB6F8949EBF0FBE24
:1048D0008DBFDF91CF911F910F91FF90EF90DF90EF
:1048E000CF90BF90AF909F908F900895CF93DF931C
:1048F000CDB7DEB7E8970FB6F894DEBF0FBECDBFD9
:10490000BE016F5F7F4F0E94DD23CE0101960E94A2
:10491000CE23E8960FB6F894DEBF0FBECDBFDF9171
:10492000CF9108950F931F93CF930E945F23C82FB9
:10493000192F8EE694E09F938F930E949B311F93D3
:10494000CF9389EC92E09F938F930E949B310F90BD
:104950000F900F900F900F900F9002E310E0C8019E
:104960000E94F625C82F90E00E94AF31CB3359F456
:1049700086E891E00E94B6310F5F1F4F0F3F8FE333
:10498000180769F702C0CF3FB9F7CF911F910F9178
:1049900008956F927F928F929F92AF92BF92CF9223
:1049A000DF92EF92FF920F931F93CF93DF938C01CF
:1049B00089E190E00E94F625682E712C8AE190E052
:1049C0000E94F625782A8BE190E00E94F625E82ED9
:1049D000F12C8CE190E00E94F625F82A80E06E141C
:1049E0007F0409F461C08BE7F801808384E481834C
:1049F0008091E8041F928F9381E494E09F938F93BA
:104A0000E8012296DF93CF930E94E231C80FD91FAD
:104A10008CE2FE0181936F0187E38E9D40018F9DA3
:104A2000900C1124F2E38F0E911C5E0188E3A80E16
:104A3000B11C0F900F900F900F900F900F90C4012A
:104A40000E94F625F6019FEFC91AD90A8083EFEF7D
:104A50008E1A9E0ACA14DB0491F78DE788AF19AE4F
:104A6000E80109900020E9F72197C01BD10BFF92C4
:104A7000EF927F926F928DE794E09F938F930E94C5
:104A80009B31DF93CF931F930F938BE994E09F9318
:104A90008F930E949B31EDB7FEB73C960FB6F8940A
:104AA000FEBF0FBEEDBF81E0DF91CF911F910F914F
:104AB000FF90EF90DF90CF90BF90AF909F908F903E
:104AC0007F906F90089584E190E00E94F6258A32ED
:104AD000C9F060E08BE190E00E94A02560E08CE1ED
:104AE00090E00E94A02560E089E190E00E94A0256E
:104AF00060E08AE190E00E94A0256AE284E190E013
:104B00000C94A025089560E08BE190E00E94A02520
:104B100060E08CE190E00E94A02560E089E190E0F7
:104B20000E94A02560E08AE190E00C94A02585E039
:104B30008093B800E9EBF0E080818C7F808308955A
:104B400034EA40EA54E83093BC002091BC0027FFCF
:104B5000FCCF2091B900287F283011F080E0089523
:104B60004093BB005093BC002091BC0027FFFCCFBA
:104B70002091B900287F283131F79093BB0094E849
:104B80009093BC009091BC0097FFFCCF9091B9002E
:104B9000987F983219F78093BB0084E88093BC001B
:104BA0008091BC0087FFFCCF8091B900887F88325C
:104BB000A9F66093BB0084E88093BC008091BC00A0
:104BC00087FFFCCF8091B900887F883239F684E96D
:104BD0008093BC008091BC0084FDFCCF8FEB9DE5F1
:104BE0000197F1F700C0000081E0089534EA40EA3F
:104BF00054E83093BC002091BC0027FFFCCF2091EB
:104C0000B900287F283009F05BC04093BB00509367
:104C1000BC002091BC0027FFFCCF2091B900287F69
:104C2000283139F79093BB0094E89093BC009091A1
:104C3000BC0097FFFCCF9091B900987F983209F0A3
:104C40003FC08093BB0084E88093BC008091BC008F
:104C500087FFFCCF8091B900887F883289F584EA8C
:104C60008093BC008091BC0087FFFCCF8091B9008D
:104C7000887F803129F581EA8093BB0084E88093A6
:104C8000BC008091BC0087FFFCCF8091B900887F79
:104C90008034B1F484E88093BC008091BC0087FF2D
:104CA000FCCF8091B900887F883551F48091BB009A
:104CB00094E99093BC009091BC0094FDFCCF0895C2
:104CC00080E00895EF92FF920F931F93CF93DF93AD
:104CD0008C01EB017B01E40EF11CCE15DF0579F0B0
:104CE0006991C8010E94A0250F5F1F4F8111F5CF68
:104CF000DF91CF911F910F91FF90EF90089581E088
:104D0000F7CFA5E1B0E0E7E8F6E20C944C2D7C018A
:104D10001B015A01DC0117961C921E9216971396DE
:104D20008C9181FF68C3FE0131964F01D701139624
:104D30009C91F10193FD859193FF81911F0188233F
:104D400009F4EDC2853239F493FD859193FF819189
:104D50001F01853239F4B70190E00E946B31650183
:104D60005601E4CF10E0512C00E0003238F48B32D1
:104D700009F190F48032F9F0833209F107FD34C073
:104D800020ED280F2A3020F506FF1BC0BAE01B9F3C
:104D9000200D1124122F05C08D3279F0803371F768
:104DA0000160F10193FD859193FF81911F018111B4
:104DB000DCCF1AC002600460F4CF0860F2CF00615B
:104DC000F0CFEAE05E9E200D1124522E0062E9CF62
:104DD0008E3221F406FDA3C20064E3CF8C3611F4B9
:104DE0000068DFCF8836E9F29BEB980F933008F02C
:104DF00073C00061805E06FF16E00F73702E85366B
:104E000009F071C0689476F877FE77C0812F1C3363
:104E100008F08BE344244394480E27E0D5014D91DC
:104E20005D916D917D916D014C875D876E877F8768
:104E3000042DA4016C857D858E859F850E94FF2FA2
:104E40005C01B981BC87B0FF04C06DE2662EB3FF80
:104E50000BC05BE2652E71FC07C0E72DE4706E2E7F
:104E600072FE02C070E2672E0C850C7009F456C009
:104E70006110C4C2F3E000E0F51598F483E0052D5D
:104E8000081B73FC07C0B70180E290E00E946B3101
:104E90000150C9F7662029F0B701862D90E00E94E5
:104EA0006B31FC8548E6A42E40E0B42EF3FD04C02F
:104EB0003CE6A32E30E0B32E172D1071F50184913E
:104EC000811122C0002309F44BCFB70180E290E0AA
:104ED0000E946B310150F6CF9BE9980F933008F098
:104EE00041C10F7E88CF863619F4689477F88CCF4D
:104EF000112309F489CF115087CF212F183010F0DA
:104F000027E017E0412C8ACF11118052B70190E0C1
:104F10000E946B312FEFA21AB20AD0CF77FE78C071
:104F20004A0CFC85F4FF04C08A81813309F44A9459
:104F300014140CF090C028E0241510F428E0422E40
:104F400085E090E077FE06C0C501B7FE02C090E0A4
:104F500080E0019661100196112331F0212F30E09D
:104F60002F5F3F4F820F931F5816190619F014F048
:104F7000052D081B872D897011F4011171C0662061
:104F800029F0B701862D90E00E946B3173FC02C0BE
:104F900001116DC077FE98C0B98AA88AB7FE02C019
:104FA000198A188A68887988A501441951095D8B86
:104FB0004C8B412E512C66277727641975097B8B02
:104FC0006A8BA614B7040CF459C08C899D89861588
:104FD00097050CF053C0F501E619F709E80DF91D26
:104FE000818191E0691A7108AA89BB896A167B06DA
:104FF0000CF446C0B70190E00E946B31BFEF6B1616
:105000007B06F9F6B7018EE290E00E946B31D9CFB2
:1050100076FC96CFE12FF0E0EA15FB053CF03CEF83
:10502000A3163FEFB30614F0689477F83296E80DB4
:10503000F91D01C01150112319F082918033D1F371
:1050400077FE7ECF44244394410E1A151B0431F0A1
:105050002CF01A1975CF4424439472CF10E070CF0E
:10506000B70180E290E00E946B31015086CFB7011A
:1050700080E390E00E946B3101508ACF80E3B1CF92
:10508000688979896150710940945094E889F98957
:105090004E165F06A4F4461A570A460E571EA4146D
:1050A000B50441F49A81963368F4953319F4FC857C
:1050B000F4FF08C0B70190E00E946B3103CF512C80
:1050C000412CEBCF81E3F6CF8A81813319F02C8517
:1050D0002F7E2C87B70190E00E946B311123A9F03D
:1050E000B7018EE290E00E946B3192E0692E610E72
:1050F00012E0E12F1F5FE80DF92DF11D8081B7014E
:1051000090E00E946B316112F4CF85E690E074FE6E
:1051100002C085E490E0B7010E946B31B7FC06C085
:10512000A114B104C1F43C8534FF15C0B194A1941D
:10513000B1088DE2B70190E00E946B3180E35AE044
:10514000A516B10454F4B70190E00E946B31B70189
:10515000C501C096B1CF8BE2EDCF8F5F4AE0A41AB4
:10516000B108EDCF8336B9F0833709F43CC08335FD
:1051700009F04FC0D501AD90BD906D01612F70E079
:1051800006FD02C06FEF7FEFC5010E94D7303C01E2
:10519000102F10680DC0650162E0C60ED11CD5014C
:1051A0008C91898366246394712C5401102F1F778E
:1051B00013FD04C05614170409F020F5052D6114E1
:1051C000710409F47FCEF50117FD859117FF8191D8
:1051D0005F01B70190E00E946B3101110150B1E015
:1051E0006B1A7108ECCFF501A190B1906F01612F9E
:1051F00070E006FD02C06FEF7FEFC5010E94013134
:105200003C01D4CFB70180E290E00E946B315A9408
:10521000D1CF843619F0893609F070C007FF65C018
:10522000F50161917191819191916F010F7697FFD5
:1052300008C090958095709561957F4F8F4F9F4FD7
:1052400000682AE030E0A4010E940532A82EA818C8
:10525000BA2C602E06FF0BC0E89460F8A11638F453
:1052600004FF04C002FD02C00E7E602EB12E64FE5B
:105270009AC0FE01EA0DF11D8081803309F08CC0D7
:10528000562D597E652E062D087063FC9BC060FE6E
:1052900095C01A2DB51410F4150D1B1964FE98C095
:1052A000B70180E390E00E946B3162FE09C088E79D
:1052B00090E061FE02C088E590E0B7010E946B318A
:1052C000A11608F491C0AA94B12C6FEFA61AB60AE1
:1052D000A80CB91CD5018E915D01B70190E00E9428
:1052E0006B31A814B904B1F7EDCDD5016D917D9165
:1052F0006D01072E000C880B990B98CF702EE89447
:1053000074F82AE030E0853739F1B02FB97F7B2E71
:105310008037A9F058F48835A9F08F36D9F0F70115
:10532000868197816596E2E10C94682D8837B9F7FC
:1053300074FE02C0689472F820E130E00DC06894F9
:1053400074F8F6CF04FF03C0EB2FE6607E2E20E159
:1053500032E002C028E030E077FE16C0D5014D9162
:105360005D916D917D916D014C875D876E877F8723
:10537000A4016C857D858E859F850E940532A82EAF
:10538000A818072D0F7764CFF501819191916F01D6
:10539000AC0170E060E0E8CF62FC02C0B39473CF70
:1053A000B394B39470CF862D867809F46CCFF6CF82
:1053B000B70180E290E00E946B31B394B514C0F362
:1053C00000E06CCF052D0B19B51408F467CFF8CFAA
:1053D000862D867809F474CF8BE261FE80E267FC4B
:1053E0008DE2B70190E06ACFB70180E390E00E94C0
:1053F0006B31115065CF8FEF9FEF94CF24E000E029
:10540000251508F049CD84E03ACDCDB7DEB76197D8
:105410000FB6F894DEBF0FBECDBF0E94F4080E9405
:10542000D11A0E94A11361E080E495E00E94271147
:105430000E943120D82E0E945F080E94D11A86E572
:1054400091E00E94B6310E94D0130E94D70680E7F7
:1054500091E00E94B6310E94B70680E00E94510799
:105460000E94D70668EE74E08AE090E00E948822ED
:1054700064E170E08DE095E00E94432367E170E015
:105480008EE195E00E9443236AE170E08FE295E0AF
:105490000E94432380910E058F9380910D058F9379
:1054A000809110058F9380910F058F938091120545
:1054B0008F93809111058F9306E113E01F930F9353
:1054C0000E949B3180911F058F9380911E058F93C1
:1054D000809121058F93809120058F9380912305E2
:1054E0008F93809122058F931F930F930E949B317E
:1054F000809130058F9380912F058F938091320595
:105500008F93809131058F93809134058F93809193
:1055100033058F931F930F930E949B310FB6F8941E
:10552000DEBF0FBECDBF8091110590911205489747
:105530006CF480910F0590911005CC973CF480910C
:105540000D0590910E05CC970CF44BC00E94960669
:1055500080910E058F9380910D058F93809110059A
:105560008F9380910F058F93809112058F93809177
:1055700011058F9306E113E01F930F930E949B3157
:1055800080911F058F9380911E058F938091210537
:105590008F93809120058F93809123058F93809125
:1055A00022058F931F930F930E949B3180913005AA
:1055B0008F9380912F058F93809132058F938091E7
:1055C00031058F93809134058F93809133058F93AC
:1055D0001F930F930E949B310FB6F894DEBF0FBE4E
:1055E000CDBF8091E80463E60E943D2C9093E804CF
:1055F0001F929F9388E891E09F938F930E949B3125
:105600008BE780933C0684E480933D068091E80418
:105610001F928F9387E991E09F938F938EE396E09B
:105620009F938F930E94E2318C01025C194F80910D
:105630000E058F9380910D058F93809110058F93A8
:1056400080910F058F93809112058F9380911105A2
:105650008F938EE9E82E81E0F82EFF92EF921F9350
:105660000F930E94E231080F191F809130058F932C
:1056700080912F058F93809132058F938091310512
:105680008F93809134058F93809133058F93FF9290
:10569000EF921F930F930E94E231080F191F1F9280
:1056A000DF928BE593E09F938F931F930F930E945C
:1056B000E231F801E80FF91F8DE7808311826CE376
:1056C00076E0FB0101900020E9F7BF016D537640C1
:1056D000162F0FB6F894DEBF0FBECDBF8CE396E059
:1056E0000E94AD050E94632590E6C92E9AEED92E40
:1056F000E12CF12C0E945F080E94D11A0E94D01365
:105700000E94D7060E943120C0927E06D0927F066A
:10571000E0928006F09281061092C5058091C50541
:10572000811104C080E495E00E9467118CE396E04B
:105730000E94C924882309F46BC00E948D0580E073
:105740000E9471046EE38CE396E00E941C030E94A9
:10575000060381E00E94510780917E0690917F06AA
:10576000A0918006B0918106892B8A2B8B2BB1F6F4
:1057700080914005882309F442C080E795E00E94AB
:10578000870D90E09E838D8380E795E00E94A30DB6
:1057900090E09C838B8380E795E00E94C70D90E0AA
:1057A0009A83898382E695E00E946B0D90E098874A
:1057B0008F8382E695E00E943E0D90E09A8789876C
:1057C00082E695E00E941B0D9C878B87CE01019697
:1057D0000E94E9140E94D70681E08093EA04612FB9
:1057E0008CE396E00E94AD058BEE94E00E94751864
:1057F0000E94D7060E9475080E9439097BCF8091CC
:10580000EA048111ECCF0E9462060E94D706E7CF1E
:105810008091C505882309F49FCFAACFE2E8F6E07E
:1058200014AA13AA16AA15AA81E087AB10AE11AE6E
:1058300012AE13AE10923B0610923A0680E495E049
:105840000C94790970E060E08FE099E00E942131CA
:105850009093C5068093C4060895DB018F939F93B0
:105860000E94992CBF91AF91A29F800D911DA39F83
:10587000900DB29F900D11240895991B79E004C0FA
:10588000991F961708F0961B881F7A95C9F780957F
:105890000895AA1BBB1B51E107C0AA1FBB1FA61777
:1058A000B70710F0A61BB70B881F991F5A95A9F7C9
:1058B00080959095BC01CD01089597FB072E16F4B5
:1058C000009407D077FD09D00E94492C07FC05D031
:1058D0003EF4909581959F4F0895709561957F4F07
:1058E0000895A1E21A2EAA1BBB1BFD010DC0AA1F21
:1058F000BB1FEE1FFF1FA217B307E407F50720F039
:10590000A21BB30BE40BF50B661F771F881F991FB3
:105910001A9469F760957095809590959B01AC01FC
:10592000BD01CF010895EE0FFF1F0590F491E02D0A
:1059300009940E94B92DA59F900DB49F900DA49F2E
:10594000800D911D11240895B7FF0C94992C0E948D
:10595000992C821B930B0895689401C0E894F92F49
:10596000F12B12F00C94E02CA0E0B0E0EAEBFCE2AA
:105970000C94522D092E059422F40E943C2D1123E3
:1059800092F4F0E80F26FFEFE094F0940095109564
:10599000B094C094D094A194BF0ACF0ADF0AEF0A52
:1059A000FF0A0F0B1F0B0E94EB2C07FC0E943C2DE3
:1059B000CDB7DEB7ECE00C946E2D689401C0E8948E
:1059C0008F929F92CF93DF930E94EB2CDF91CF9128
:1059D0009F908F90089588249924F401E401B0E405
:1059E0009F93AA279A158B049C04ED05FE05CF050D
:1059F000D007A10798F4AD2FDC2FCF2FFE2FE92D74
:105A0000982C892E982F872F762F652F542F432F70
:105A1000322F2227B85031F7BF9127C01B2EBF91DC
:105A2000BB27220F331F441F551F661F771F881F78
:105A3000991F881C991CEE1FFF1FCC1FDD1FAA1F7A
:105A4000BB1F8A149B04EC05FD05CE05DF05A007EE
:105A5000B10748F08A189B08EC09FD09CE09DF0957
:105A6000A00BB10B21601A94E1F62EF49401AF0162
:105A7000BE01CD01000C08956095709580959095BC
:105A800030954095509521953F4F4F4F5F4F6F4F49
:105A90007F4F8F4F9F4F08952F923F924F925F926B
:105AA0006F927F928F929F92AF92BF92CF92DF922E
:105AB000EF92FF920F931F93CF93DF93CDB7DEB793
:105AC000CA1BDB0B0FB6F894DEBF0FBECDBF099427
:105AD0002A88398848885F846E847D848C849B847E
