:100000000C94B7000C942B0A0C94DF000C94DF00C6
:100010000C94DF000C94DF000C94DF000C945D095D
:100020000C94DF000C94DF000C94DF000C94DF00D4
:100030000C94DF000C94DF000C94E1000C94DF00C2
:100040000C94DF000C94DF000C94AC090C94DF00DE
:100050000C94DF000C94DF000C94DF000C94DF00A4
:100060000C94A81A0C94DF006E616E00696E660035
:1000700000407A10F35A00A0724E18090010A5D45F
:10008000E80000E87648170000E40B54020000CABC
:100090009A3B000000E1F505000080969800000002
:1000A00040420F000000A086010000001027000061
:1000B0000000E803000000006400000000000A00E7
:1000C000000000000100000000002C76D888DC67EA
:1000D0004F0823DFC1DFAE59E1B1B796E5E3E45342
:1000E000C63AE651997696E8E6C28426EB898C9B5F
:1000F00062ED407C6FFCEFBC9C9F40F2BAA56FA5FF
:10010000F490055A2AF75C936B6CF9676DC11BFC80
:10011000E0E40D47FEF520E6B500D0ED902E03009B
:10012000943577050080841E080000204E0A0000E8
:1001300000C80C333333330F986E12831141EF8DA7
:100140002114893BE65516CFFEE6DB18D1844B38E7
:100150001BF77C1D901DA4BBE424203284725E2218
:100160008100C9F124ECA1E53D279D2BB12B112481
:100170001FBECFEFD8E0DEBFCDBF14E0A0E0B1E0FE
:10018000E0EDF6E602C005900D92A83FB107D9F761
:1001900027E0A8EFB4E001C01D92AA3CB207E1F746
:1001A00010E0C7EBD0E004C02197FE010E94222C92
:1001B000C53BD107C9F70E94AF290C943D330C947D
:1001C00000001F921FB61F9211248F939F93EF93ED
:1001D000FF9380910105813019F5909100058FEF13
:1001E000890F9130D9F48091FD049091FE0480FF35
:1001F00043C0289A8091FD049091FE0496958795BE
:100200009093FE048093FD048091FF0481508093BD
:10021000FF04811102C01092010583E08093000564
:1002200080910305811120C08091FC04882331F165
:100230008091FA0481508093FA04811115C01092C4
:10024000FC0410920205E0910505F0E08091F804AD
:10025000EA5FFA4F8083809105058F5F80930505E3
:10026000803210F010920505FF91EF919F918F91D0
:100270001F901FBE1F9018952898BCCF8091020533
:10028000811110C01999F0CF81E08093020510927E
:10029000F80494E09093FA0498E09093F904809322
:1002A000FB04E2CF9091FA048FEF890F9130B9F4FB
:1002B0008091FB04199B05C09091F804982B9093B2
:1002C000F804880F8093FB048091F9048150809397
:1002D000F904811103C081E08093FC0483E08093E2
:1002E000FA04C2CF10920105109202051092030584
:1002F000289A209A21989FB7F89481E287BD82E0DE
:1003000084BD85BDEEE6F0E080818260808316BC0E
:100310009FBF089510920305089581E0809303051F
:10032000089590910405809105059817E1F3E92F50
:10033000F0E0EA5FFA4F80819F5F903218F490936B
:10034000040508951092040508959091050581E033
:1003500020910405291301C080E00895109205053D
:100360001092040508959091010581E0913009F003
:1003700080E00895909101059130E1F393E090932E
:1003800000059AE09093FF04880F990B9260909378
:10039000FE048093FD0481E0809301050895CF93CE
:1003A000DF93EC018991882319F00E94BA01FACFFA
:1003B000DF91CF910895CF93DF93EC01FE018491FB
:1003C0002196882319F00E94BA01F8CFDF91CF91CE
:1003D0000895CF93DF93D82FC62F60E083E40E9467
:1003E000E5088D2F0E94E7058C2F0E94E705C82F96
:1003F00060E083E40E94C1088C2FDF91CF910895C3
:1004000060E08F770C94E9018AE10E94000240913C
:1004100028055091290560912A0570912B054115F9
:10042000514A6C4B734318F09DE9891B089594EA77
:10043000FCCF89E10E94000285958595089583E1AE
:100440000E94000290912705891B08950E941F02B7
:10045000882341F0809127058F5F8093270580E0F6
:100460000C9400028FEF08958EE10E9400028295A5
:100470008F700895CF93DF9300D000D0CDB7DEB753
:100480008DE10E94000290E09C0144E035952795A3
:100490004A95E1F7803A9105E0F4F901EE0FFF1F6C
:1004A000E20FF31FE95FFE4F80819181A2819C01E1
:1004B0004A2F50E029833A834B835C8369817A8198
:1004C0008B819C810F900F900F900F90DF91CF91B7
:1004D000089580E291EAA7E0B0E089839A83AB8334
:1004E000BC83ECCFCF92DF92EF92FF920F931F93DA
:1004F000CF93DF9300D000D000D0CDB7DEB788E235
:100500000E940002877090E0B0E0A0E0CC24D82EDA
:10051000E92EFA2E89E20E940002C80ED11CE11CCD
:10052000F11CFE2CED2CDC2CCC248AE20E94000273
:10053000C80ED11CE11CF11C88E20E94000283FF5E
:1005400003C088E0E81AF1080E943A028B018E830A
:100550009D83C701B6010E946E2E20E030E040E886
:100560005BE469837A838B839C8369817A818B8145
:100570009C810E94FA2E20E034E244EF5BE4698320
:100580007A838B839C8369817A818B819C810E9491
:10059000C42D6B017C01B8018E819D810E946C2E5F
:1005A00020E034E244EF58E469837A838B839C83B0
:1005B00069817A818B819C810E94C42D9B01AC0151
:1005C000C982DA82EB82FC8269817A818B819C818B
:1005D0000E94FA2E69837A838B839C8369817A8156
:1005E0008B819C810E94362E26960FB6F894DEBF32
:1005F0000FBECDBFDF91CF911F910F91FF90EF9074
:10060000DF90CF90089580680C94E90163E881E859
:100610000E94E90182E10E94000283FD07C08FE190
:100620009EE40197F1F700C00000F4CF68E082E992
:100630000E94E90181E00895DF92EF92FF920F930B
:100640001F93CF93DF93F82EE92EC62F82E20E94EC
:100650000002D82F2C2F280F3327331F2F3F3105AF
:1006600019F010F0CD2FC095DF2C0F2D1E2D802FEF
:100670008D198C1738F4F80161918F0180E80E9480
:10068000E901F5CF6D2F6C0F82EA0E94E9018C2FF2
:10069000DF91CF911F910F91FF90EF90DF90089520
:1006A000CF93DF930E941F02882381F08DE00E9488
:1006B0000002D82F80E00E940002C82F6D2F8DE825
:1006C0000E94E9018C2FDF91CF9108958FEFFBCF2E
:1006D00061E881E80C94E90160E881E80C94E901A3
:1006E0000C946C03682F823108F061E1623008F4E9
:1006F00062E06250606889E80C94E901AF92BF92B1
:10070000CF92DF92EF92FF920F931F93CF93DF93DD
:10071000382F292FCB01A32FB22F80932805909338
:100720002905A0932A05B0932B059B01AD0160E03C
:1007300070E080E090E003E10E94122DA12CE8E43B
:10074000BE2EF8EECF2EDD24D394E12CF12C00E068
:1007500010E00E946E2CC22FB32E6A017B01182F6D
:10076000D92F00E10E942D2D622F86E80E94E90119
:100770002C2F3B2DA601B701812F9D2F08E00E9451
:100780002D2D622F87E80E94E9016C2F88E8DF9108
:10079000CF911F910F91FF90EF90DF90CF90BF907E
:1007A000AF900C94E9010F931F93CF93DF938B01CC
:1007B000D82FC92F60E083E40E949D0860E083E4A5
:1007C0000E94C10861E083E40E949D0861E083E427
:1007D0000E94E5088FE19EE40197F1F700C0000058
:1007E00061E083E40E94C1088FE19EE40197F1F784
:1007F00000C0000082E40E940002823131F50E94B4
:100800006C03B8018D2F9C2F0E947E0360E08EE860
:100810000E94E90160E08FE80E94E9018CE00E94FB
:100820000002682F63608CE80E94E90164E086EAB8
:100830000E94E90184E10E9472030E94680381E042
:10084000DF91CF911F910F91089580E0F9CFCF9361
:10085000C82F893008F0C8E08DE10E9400026C2F9B
:10086000C53008F465E06450770B660F771F817F11
:10087000682B8DE9CF910C94E901CF93C82F692F94
:1008800080EA0E94E9016C2F81EACF910C94E90182
:10089000682F89EB0C94E9018EE10E940002682F19
:1008A00064608EE90C94E9018EE10E940002682FD9
:1008B0006B7F8EE90C94E901109226058DE10E9470
:1008C0000002682F6E7F8DE90C94E90181E080932E
:1008D00026058DE10E940002682F61608DE90C946D
:1008E000E901CF93C82F0E946803CC2369F00E94CE
:1008F000660460E08DE80E94E90160E082EA0E94FF
:10090000E90181E0CF9108950E945C04F2CFCF937A
:10091000DF93D82F82E10E940002C82FDD2329F146
:100920000E9466046D2F82EA0E94E9016C2F82E921
:100930000E94E901C6FF1EC0C5FD1CC0109227051C
:10094000809126058823A1F082E20E940002C82F30
:1009500080E10E940002682F8DE80E94E9010E9458
:1009600068038C2FDF91CF9108950E945C04DECF45
:1009700083E1EBCF81E00E940002863841F060E025
:100980008DE80E94E90166E881E80E94E901C0E083
:10099000E8CFCF93DF93EC011816190664F40E9498
:1009A00066046C2F82EA0E94E90165E881E8DF9124
:1009B000CF910C94E9010E945C04F7CFCF92DF92B3
:1009C000EF92FF92CF93DF930E943A026B017C017A
:1009D0000E943402D82F86E20E940002C82FA7018D
:1009E000960104C05695479537952795DA95D2F725
:1009F00068EE73E080E090E00E94002C6C2F2131C3
:100A000031054105510550F0686086EADF91CF91CC
:100A1000FF90EF90DF90CF900C94E901677FF5CFC6
:100A2000CF93C82F863020F08D30D0F48630C9F4B3
:100A300065EC81EB0E94E9016CE087EB0E94E90123
:100A4000C6E08EE10E9400028F7090E1C99FB00164
:100A50001124682B8EE90E94E901CF910C94DE04E9
:100A6000CCE063EC81EB0E94E9016AE087EB0E9435
:100A7000E901E7CFCF93462F572FBC01C0E049379C
:100A80008EE1580761057105C8F1C1E0413A98E26D
:100A900059076105710590F1C2E0413F8CE35807A9
:100AA0006105710558F1C3E0413491E559076105CD
:100AB000710520F1C4E043318AE7580761057105EB
:100AC000E8F0C5E0453E92EA590761057105B0F0CE
:100AD000C6E0453284EF58076105710578F0C7E03C
:100AE000493498EE590791E06907710538F0C9E07B
:100AF0004139504D6340710508F4C8E08DE10E9412
:100B000000028F7090E1C99FB0011124682B8DE91C
:100B10000E94E901CF910C94DE040F9362E082E41D
:100B20000E949D0862E082E40E94E50800E020E067
:100B300040E061E080E00E94C80560EC7AEC89E862
:100B400096E30E94D303811105C085E491E00E94E1
:100B50004531FFCF62E17AE780E090E00F910C949D
:100B60003A051F93CF93DF93D82FC92F162F0E94DA
:100B70008D0580E00E947104612F8D2F9C2F0E94B3
:100B80001C030E940603DF91CF911F910C946C030C
:100B90000F9394B1986294B924982C9A30E2839F71
:100BA000C001112480722370822B94E0499FA00120
:100BB00011244C70842B30E1639FB00111246071CB
:100BC000862B80648CBD01700DBD0F9108958EBD84
:100BD0000DB407FEFDCF8EB50895AF92BF92CF92B0
:100BE000DF92EF92FF920F931F93CF93DF93EC016D
:100BF000B62EAA24A39488E8C82E83E1D82EE12C2F
:100C0000F12C02E310E08DA99EA92BA93CA928177D
:100C10003907C1F12CAD222321F02130B1F01CAEF7
:100C20000BC08C0F9D1FFC0181818B3729F4ACAE6A
:100C3000C8AED9AEEAAEFBAE8DA99EA90196B801A9
:100C40000E94EC2B9EAB8DABDECF8C0F9D1FFC0169
:100C5000618185E396E06D3741F40E94FB206B2DA6
:100C600085E396E00E94A21CDACF0E94FB2081114E
:100C7000D6CF88AD99ADAAADBBAD892B8A2B8B2B76
:100C800071F2DACFDF91CF911F910F91FF90EF902A
:100C9000DF90CF90BF90AF900895FC0187A9882383
:100CA00079F080AD91ADA2ADB3AD0097A105B105CE
:100CB00039F00197A109B10980AF91AFA2AFB3AFED
:100CC00008959F92AF92BF92CF92DF92EF92FF92E0
:100CD0000F931F93CF93DF938C01F62E0E94162162
:100CE000E82EE801229680918305882309F483C0C9
:100CF0008BE7F801808384E4818380912C051F9227
:100D00008F9328E0A22E24E0B22EBF92AF92DF9301
:100D1000CF930E947131C80FD91F3CE2D32ED992D4
:100D2000BE0183E895E00E946A0DFC01D192BF01EB
:100D300083E895E00E94890DFC01D192BF0183E810
:100D400095E00E946B14EC01D9921092EC05809111
:100D5000F4058F938091F3058F938091F2058F9323
:100D60008091F1058F938CE591E09F938F93DF93B2
:100D7000CF930E947131C80FD91FD992809140053D
:100D80008F9380913F058F93809142058F9380913F
:100D900041058F93809144058F93809143058F93F4
:100DA00080E691E09F938F93DF93CF930E94713100
:100DB000C80FD91FD9921F92EF92BF92AF92DF93C3
:100DC000CF930E947131C80FD91FFE01D192CF017C
:100DD0002DB73EB7225E3F4F0FB6F8943EBF0FBE11
:100DE0002DBF249632E069E671E0F31609F44BC09A
:100DF0006DE671E048C08BE7F801808384E481836D
:100E000080912C051F928F9388E0A82E84E0B82E45
:100E1000BF92AF92DF93CF930E947131C80FD91F59
:100E20009CE2992EFE019192CF0161E771E00E9450
:100E30007A309F828DE2888799868A879B868C8705
:100E40006E01FEE0CF0ED11C9D861F92EF92BF92E5
:100E5000AF92DF92CF920E947131E601C80FD91F85
:100E60009882CE01029699822DB73EB7245F3F4FFC
:100E70000FB6F8943EBF0FBE2DBF259631E068E750
:100E800071E0F312B5CF0E947A308DE78883198222
:100E9000E80109900020E9F72197C01BD10BDF93EF
:100EA000CF931F930F938CE791E09F938F930E94B2
:100EB0002A310F900F900F900F900F900F90CE014E
:100EC000DF91CF911F910F91FF90EF90DF90CF9026
:100ED000BF90AF909F900895CF93DF93CDB7DEB7CB
:100EE00061970FB6F894DEBF0FBECDBFEEE2F5E01E
:100EF00086A197A19E838D8384A195A19C838B83DA
:100F000082A193A19A8389838EE090E098878F8352
:100F100081E090E09A87898786E190E09C878B87C3
:100F2000CE0101960E940C1681E080932D056196FA
:100F30000FB6F894DEBF0FBECDBFDF91CF910895FD
:100F4000EEE2F5E089E090E097A386A315A214A253
:100F500013A212A210927705109276058AE090E013
:100F60009093750580937405109273051092720525
:100F700082E190E090AF87AB16AA15AA14AA13AA33
:100F800008950E948D0580E197E2A0E0B0E0809393
:100F90009D0690939E06A0939F06B093A00661E0E5
:100FA00081EA96E00E94ED0580919D0690919E0653
:100FB000A0919F06B091A006892B8A2B8B2B79F7E5
:100FC00008954FE355E061E475E083E495E00E9405
:100FD000AD1580E991E09F938F930E942A31EEE254
:100FE000F5E082898F9381898F9384898F93838998
:100FF0008F9386898F9385898F9383EC93E09F935A
:101000008F930E942A318DB79EB70A960FB6F89437
:101010009EBF0FBE8DBF089581EA96E00E944D06E7
:1010200080919D0690919E06A0919F06B091A0068A
:101030000097A105B10559F00197A109B109809365
:101040009D0690939E06A0939F06B093A00683E80A
:1010500095E00C945414282F8093A1068091D40617
:101060009091D506FC01EF55F94F2183019682330B
:1010700091052CF49093D5068093D4060895109290
:10108000D5061092D40608950E948D0580E395E759
:10109000A0E0B0E080939D0690939E06A0939F06EB
:1010A000B093A00680919D0690919E06A0919F0608
:1010B000B091A006892B8A2B8B2BB9F080E00E947F
:1010C0008704882379F30E941F02882329F00E9455
:1010D00026020E942B08F7CF60E081EA96E00E948A
:1010E000ED0580912D058823E9F20895833479F088
:1010F0008434C1F0823401F524B181E090E001C074
:10110000880F6A95EAF78095822384B9089527B1FC
:1011100081E090E001C0880F6A95EAF7809582230C
:1011200087B908952AB181E090E001C0880F6A95DF
:10113000EAF7809582238AB90895833471F0843464
:10114000B1F08234E9F484B121E030E001C0220F33
:101150006A95EAF7822B84B9089587B121E030E0DF
:1011600001C0220F6A95EAF7822B87B908958AB1E8
:1011700021E030E001C0220F6A95EAF7822B8AB99C
:101180000895833471F08434B1F08234E9F485B188
:1011900021E030E001C0220F6A95EAF7822B85B981
:1011A000089588B121E030E001C0220F6A95EAF786
:1011B000822B88B908958BB121E030E001C0220F65
:1011C0006A95EAF7822B8BB90895833479F08434D9
:1011D000C1F0823401F525B181E090E001C0880FB3
:1011E0006A95EAF78095822385B9089528B181E050
:1011F00090E001C0880F6A95EAF78095822388B94C
:1012000008952BB181E090E001C0880F6A95EAF75C
:10121000809582238BB90895442319F0413019F049
:1012200008950C94E5080C94C1088334B1F084341B
:10123000B1F08234B1F423B181E090E0062E02C017
:10124000880F991F0A94E2F730E08223932302C0AB
:10125000959587956A95E2F7089526B1EDCF29B166
:10126000EBCF81E008950895E1E8F0E080818260AD
:101270008083089510928100089580918400909158
:1012800085009695879508951092B200E0EBF0E006
:101290008081826080838EE38093B30017BAE0E799
:1012A000F0E0808182608083E1EBF0E08081856006
:1012B000808308951092B10008951F920F920FB687
:1012C0000F9211242F933F934F935F936F937F93CC
:1012D0008F939F93AF93BF93EF93FF930E940C085C
:1012E00017BA8091DF069091E006A091E106B091D7
:1012F000E2060196A11DB11D8093DF069093E006E2
:10130000A093E106B093E206FF91EF91BF91AF91F8
:101310009F918F917F916F915F914F913F912F910D
:101320000F900FBE0F901F901895CF93DF9300D0B2
:1013300000D0CDB7DEB78091DF069091E006A09196
:10134000E106B091E206BC01CD010F900F900F9025
:101350000F90DF91CF9108951F920F920FB60F92C9
:1013600011242F933F934F935F936F937F938F93AA
:101370009F93AF93BF93EF93FF938091C6008093A9
:10138000DE068091DE060E942B0882E08093C0007A
:10139000FF91EF91BF91AF919F918F917F916F914D
:1013A0005F914F913F912F910F900FBE0F901F9023
:1013B00018958091E3069091E4069093C30780937B
:1013C000C20783E38093C4001092C50088E980932C
:1013D000C10082E08093C00008959091C00095FF05
:1013E000FCCF8093C600089590910001992329F0C5
:1013F0000E94ED0990E080E0089581E090E008957A
:10140000EF92FF920F931F93CF93DF93EB018C0129
:10141000F12CE12CEC16FD064CF4F80181918F01C2
:101420000E94ED09FFEFEF1AFF0AF4CFCE01DF9122
:10143000CF911F910F91FF90EF90089583B7816036
:1014400083BF83B7817F846083BF7894889583B797
:101450008E7F83BF0895E09A18950F931F93CF93C3
:10146000DF93EC018B010E943D09998388830A83F5
:101470001B83DF91CF911F910F910895CF93DF933D
:10148000EC010E943D099C014A815B8181E041158C
:10149000510561F0888199818217930750F4281BC8
:1014A000390B81E02417350708F480E0DF91CF91F4
:1014B0000895281B390B21503048F3CFFC011082CE
:1014C000118213821282148215821682178210866C
:1014D0001286118613861486158616861786118A3B
:1014E000108A128A138A148A158A168A108E178A0D
:1014F000118E128E138E148E158E12A213A214A2A8
:1015000015A216A217A210AA11AA12AA13AA14AA07
:1015100015AA16AE17AEDC01DE9616961D921D9228
:101520001D921C9219971E961C9211961C9211974F
:1015300016961D921D921D921C9219971E961C9232
:1015400011961C92119716961D921D921D921C9237
:1015500019971E961C9211961C92119716961D9221
:101560001D921D921C9219971E961C9211961C9208
:10157000119716961D921D921D921C9219971E96F8
:101580001C9211961C9211961C92509682E08C939C
:1015900011961C9211961C9211961C9211961196FE
:1015A0001C921E92129611961C921E9212961D92D9
:1015B0001D921D921C92139714961D921D921D92BE
:1015C0001C92139714961D921D921D921C921397B4
:1015D00014961D921D921D921C92139714961D92A3
:1015E0001D921D921C921397E957FF4F1082089588
:1015F000862F062E000C990B2FEB260F263010F4A9
:10160000C79708956156663018F487559109089573
:10161000C09708951F93CF93DF9300D000D000D0E0
:10162000CDB7DEB78D839E83AD81BE811C911D3207
:1016300019F41196BE83AD838D819E810E94672F20
:1016400069837A838B839C83A4E6B0E09B01AC0121
:101650000E94282CAB01BC01ED81FE81FA83E98355
:10166000E981FA81DF012D91BA83A983822F022EAD
:10167000000C990BC0970A9798F32E3231F58181AF
:10168000082E000C990BC0978A309105F0F4AAE05F
:10169000A89F9001A99F300D1124C901330FAA0BF7
:1016A000BB0B480F591F6A1F7B1F8281082E000C3D
:1016B000990BC0978A30910540F4092E000CAA0BB3
:1016C000BB0B480F591F6A1F7B1F1D3239F47095E1
:1016D0006095509541955F4F6F4F7F4FCB01BA0199
:1016E00026960FB6F894DEBF0FBECDBFDF91CF9127
:1016F0001F9108958F929F92AF92BF92EF92FF92A7
:101700000F931F93CF93DF93CDB7DEB72D970FB60F
:10171000F894DEBF0FBECDBF8D8799878B010E94E5
:10172000672F24E630E040E050E00E94002C4901A1
:1017300069837A838B839C839B01AC0160E876E9A3
:1017400088E990E00E94BC2B6D837E838F8398870D
:10175000D8018D929C92ED85F9852191822F022EE0
:10176000000C990BC0970A97C0F32E32E9F57F0160
:1017700020E836E948E950E029833A834B835C83CB
:101780008AE0882E912CA12CB12CD701ED917D01FE
:101790002E2F022E000C330B205331093A87298754
:1017A0002A30310508F569817A818B819C81A501F8
:1017B00094010E94002C29833A834B835C83A98582
:1017C000BA850E94332C69877A878B879C872D8105
:1017D0003E814F815885260F371F481F591F2D8383
:1017E0003E834F835887D1CFA5E0B0E02D813E8165
:1017F0004F8158850E94282CDC01CB010196A11D48
:10180000B11DBC01CD0123E030E040E050E00E947A
:10181000002CD80112962D933D934D935C93159710
:1018200016961C922D960FB6F894DEBF0FBECDBF54
:10183000DF91CF911F910F91FF90EF90BF90AF90EC
:101840009F908F900895CF93DF9300D000D0CDB7B5
:10185000DEB720E030E044E351E469837A838B8390
:101860009C8369817A818B819C810E94582D20E024
:1018700030E044EB51E469837A838B839C836981F4
:101880007A818B819C810E94C42D69837A838B83AA
:101890009C8369817A818B819C810E94362E698329
:1018A0007A838B839C8389819A8160E170E00E94B6
:1018B000EC2BFC01EE0FFF1FEB5DFE4F8081918151
:1018C0000F900F900F900F90DF91CF910895CF93CD
:1018D000DF93EC0187E0FE017096DE011296019025
:1018E0000D928A95E1F787E0FE017796DE01199661
:1018F00001900D928A95E1F70E9495096E8F7F8F76
:1019000088A399A381E089838883DF91CF9108958B
:101910009B01BC01605F7F4FC9010C947A0B9B0156
:10192000BC01695E7F4FC9010C947A0BEF92FF9264
:101930000F931F93CF93DF9300D000D000D0CDB78B
:10194000DEB78D839E83AD81BE8111961C92119767
:1019500014966D917D918D919C9117970E946C2E9C
:1019600028E23BE64EE65EE469837A838B839C83C0
:1019700069817A818B819C810E94C42D7B018C01BD
:10198000ED81FE81828193819C0150E040E02983BA
:101990003A834B835C83CA01B9010E946C2E9B0180
:1019A000AC01E982FA820B831C8369817A818B8185
:1019B0009C810E94582D462F572FBC0149835A8382
:1019C0006B837C83AD81BE8118968C91882339F01E
:1019D0009A01AB01505829833A834B835C83698118
:1019E0007A818B819C8126960FB6F894DEBF0FBE5C
:1019F000CDBFDF91CF911F910F91FF90EF90089590
:101A0000EF92FF920F931F93CF93DF9300D000D0FC
:101A100000D0CDB7DEB78D839E83AD81BE81119698
:101A20001C9211971B966D917D918D919C911E97A3
:101A30000E946C2E28E23BE64EE65EE469837A83E0
:101A40008B839C8369817A818B819C810E94C42DC8
:101A50007B018C01ED81FE81818592859C0150E0A6
:101A600040E029833A834B835C83CA01B9010E9419
:101A70006C2E9B01AC01E982FA820B831C83698185
:101A80007A818B819C810E94582D462F572FBC0153
:101A900049835A836B837C83AD81BE811F968C9171
:101AA000882339F09A01AB01505829833A834B833C
:101AB0005C8369817A818B819C8126960FB6F8942C
:101AC000DEBF0FBECDBFDF91CF911F910F91FF9071
:101AD000EF900895CF93DF93EB010E94960C9F93B4
:101AE0008F937F936F9387E592E09F938F93DF931C
:101AF000CF930E9471312DB73EB7285F3F4F0FB68D
:101B0000F8943EBF0FBE2DBF8C0F9D1FDF91CF916C
:101B10000895CF93DF93EB010E94000D9F938F9365
:101B20007F936F9387E592E09F938F93DF93CF939B
:101B30000E9471312DB73EB7285F3F4F0FB6F89422
:101B40003EBF0FBE2DBF8C0F9D1FDF91CF9108951B
:101B5000CF93DF93EC018E819F81A885B9858A831D
:101B60009B83AC83BD830E9495096A877B878C87A2
:101B70009D8781E089838883DF91CF910895CF93FA
:101B8000DF93EC018E819F81A885B9858A839B8331
:101B9000AC83BD830E9495096A877B878C879D876C
:101BA00081E089838883DF91CF910895CF93DF937C
:101BB000EC01CB010E940A0B6E837F838887998793
:101BC000DF91CF910895CF93DF93EC01CB010E9479
:101BD000672F6E837F8388879987DF91CF910895E0
:101BE000CF93DF9300D000D0CDB7DEB7FC011182D8
:101BF00082819381A481B581BC01CD0124E630E0CE
:101C000040E050E00E94002C69837A838B839C83A0
:101C100089819A818053984F0F900F900F900F9069
:101C2000DF91CF910895CF92DF92EF92FF92CF9301
:101C3000DF9300D000D0CDB7DEB7FC0111828281E6
:101C40009381A481B58124E6C22ED12CE12CF12C04
:101C5000BC01CD01A70196010E94002CCA01B90167
:101C6000A70196010E94002C862F0F900F900F90D5
:101C70000F90DF91CF91FF90EF90DF90CF9008957C
:101C8000CF93DF9300D000D0CDB7DEB7FC01118237
:101C900082819381A481B581BC01CD0120E137E22D
:101CA00040E050E00E94002C822F0F900F900F9088
:101CB0000F90DF91CF910895CF93DF9300D000D0A4
:101CC000CDB7DEB7FC01118282819381A481B581F9
:101CD000BC01CD0120E432E44FE050E00E94002C32
:101CE000822F0F900F900F900F90DF91CF9108955A
:101CF000CF93DF9300D000D0CDB7DEB7FC011182C7
:101D000082819381A481B581BC01CD0120E137E2BC
:101D100040E050E00E94002CCA01B90124E630E006
:101D200040E050E00E94002C862F0F900F900F9003
:101D30000F90DF91CF910895CF92DF92EF92FF92B3
:101D4000CF93DF9300D000D0CDB7DEB7FC01118276
:101D500082819381A481B58124E6C22ED12CE12C0D
:101D6000F12CBC01CD01A70196010E94002CCA01F3
:101D7000B901A70196010E94002C862F0F900F90A9
:101D80000F900F90DF91CF91FF90EF90DF90CF9069
:101D90000895CF93DF9300D000D0CDB7DEB7FC011C
:101DA000118282819381A481B581BC01CD0124E699
:101DB00030E040E050E00E94002C862F0F900F9002
:101DC0000F900F90DF91CF910895CF93DF93EC01A7
:101DD0008A859B85AC85BD858E839F83A887B987BF
:101DE0000E9495096A837B838C839D8381E089832C
:101DF0008883DF91CF910895CF93DF93EC01CB01DE
:101E00000E940A0B6A877B878C879D87DF91CF9121
:101E10000895CF93DF93EC018A859B85AC85BD85C2
:101E20008E839F83A887B9870E9495096A837B83E5
:101E30008C839D8381E089838883DF91CF9108958E
:101E4000CF93DF93EC01CB010E94672F6A877B87DA
:101E50008C879D87DF91CF910895CF93DF93EC011D
:101E6000BC0140960E947A300E94950968A379A32C
:101E70008AA39BA381E08DA38CA3DF91CF910895CA
:101E800040E150E00C948130AF92BF92DF92EF922C
:101E9000FF920F931F93CF93DF93EC01FC01EA575E
:101EA000FF4FD080DD2009F4A0C0319660810E94F0
:101EB000F80A182FFE01E857FF4F6081CE010E94FB
:101EC000F80A1295107F180FFE01EB57FF4F808123
:101ED000811372C0B59680819181A281B3810196F0
:101EE000A11DB11D80839183A283B3838E01075608
:101EF0001F4FD8018C91882361F0389780819181A0
:101F0000A281B3810196A11DB11D80839183A2831B
:101F1000B383FE01EA56FF4F80818823A1F181300F
:101F2000C1F4CE0182960E94A80DCE01C0960E94F7
:101F3000BF0DF8018081882361F0CE010E94670CFB
:101F4000CE01CE960E94E50ECE01845B9F4F0E948B
:101F5000E50E8E0104561F4FF801C081D1812097F4
:101F6000C9F1D801ED91FC9166A177A18EA19FA145
:101F70000E947130892B71F5CE010E942D0F0AA4A9
:101F8000DBA5C02DECCFCE01C0960E94BF0DD801BD
:101F90008C91882341F0CE010E94670CCE01865AB5
:101FA0009F4F0E94E50ECE0188599F4F0E94090F56
:101FB000CE018A589F4FCBCFCA55DF4F8881998178
:101FC000AA81BB810196A11DB11D88839983AA8333
:101FD000BB83D12C8D2DDF91CF911F910F91FF905D
:101FE000EF90DF90BF90AF9008957C01B7E9EB0EC2
:101FF000F11CF70130818A569F4F5C018E01045617
:102000001F4F31113EC07E0197E8E90EF11C6CE5CF
:1020100072E0C7010E947130892B39F062E672E0EC
:10202000C7010E947130892B21F481E0D5018C9386
:1020300010C068E672E0C7010E947130892B39F048
:102040006EE672E0C7010E947130892BC1F4F50180
:102050001082C656DF4F88819981F8019183808371
:10206000C081D181209709F4B5CFB7018EA19FA17E
:102070000E94713097FF98C08AA59BA5EECF82E0A1
:10208000D5CFDC01EC91E230C9F0CE0189579F4FEA
:10209000DC012C91222391F0B0E2EB9FF00111249E
:1020A000E32B3197E932F10548F4E15CFC4C0C94E8
:1020B000222CBC01CE01C0960E94D60DF801A08052
:1020C000B180C957DF4FA114B10409F483CFD801FF
:1020D000ED91FC9166A177A1F50186A197A10E94DF
:1020E0007130892B09F076CFD50198968D919C910E
:1020F000F7012081422F50E0281719060CF46ACF0F
:102100008417950721F4BE01C5010E94400FD50137
:102110009A96AD90BC90D7CFFE01E756FF4F81E075
:10212000213479F180E02DC0BE01605F7F4F0E94B5
:102130007A0BC4CF81E0233509F080E08E8BBECFCF
:10214000BE01695E7F4FF3CF81E0273509F080E063
:102150008D8FB4CFBC01CE01CE960E94FC0EAECFC7
:10216000BC01CE01845B9F4FF8CFBC01CE018296AB
:102170000E94E30DA3CFFE01E756FF4F81E021331C
:102180008CF280839BCFBC01CE0188599F4F0E9467
:10219000200F94CFBC01CE018A589F4FDECFBC01E7
:1021A000CE01865A9F4FD9CF892B09F413CFD8017E
:1021B0001D921C920FCFCF92DF92EF92FF921F934E
:1021C000CF93DF93EC01162FFC01E256FF4F808185
:1021D0009181A281B3810196A11DB11D808391835C
:1021E000A283B383CE0188569F4F6C01DE01AA57AC
:1021F000BF4F7D01643209F449C0DCF46A3019F143
:102200006D3009F1D601EC91EE3048F481E08E0F8B
:102210008C93EC0FFD2FF11DE957FF4F1083F70151
:102220008081811142C0CB57DF4F68811627188308
:1022300025C06A3241F06C3229F7FE01EB57FF4F9F
:10224000808186278083D601EC9180E0EF3048F4CE
:10225000EC0FFD2FF11DE957FF4F1082CE010E94B8
:10226000440FC956DF4F98819F5F9883F601108213
:1022700091E01A3209F090E0D7019C93DF91CF9161
:102280001F91FF90EF90DF90CF900895FC01108296
:10229000FE01E956FF4F108272971082719682E01C
:1022A00080831C92C756DF4F188280E0E7CFAF9241
:1022B000BF92CF92DF92EF92FF920F931F93CF9333
:1022C000DF937B01B42EA52E69018C0106561F4FAA
:1022D000F801C081D1812097B1F06EA17FA18B2D33
:1022E0009A2D0E94713097FD0EC0892B29F488A584
:1022F00099A5C816D9063CF08E01065D1F4F0AA4A9
:10230000DBA5C02DE8CFF701D3A7C2A7F801F18262
:10231000E082DF91CF911F910F91FF90EF90DF90BE
:10232000CF90BF90AF900895CF93DF93FC01DB0176
:1023300010A211A212A213A214A215A246A357A37F
:1023400020A731A790E1EF01892F19928A95E9F72B
:10235000BF01605F7F4FEB0119929A95E9F7BF01CA
:10236000CD01DF91CF910C9457110C9494112FEF64
:1023700082E597E0215080409040E1F700C00000E6
:1023800040E064E084E40E940C092FEB8AED90E0C9
:10239000215080409040E1F700C0000041E064E03F
:1023A00084E40E940C092FEB8AED90E021508040DC
:1023B0009040E1F700C0000040E064E084E40E9447
:1023C0000C092FEB8AED90E0215080409040E1F71E
:1023D00000C0000008951F93CF93DF93EC01C25516
:1023E000DF4F8CED95E0A0E0B0E088839983AA836D
:1023F000BB8380EF91E00E94453110E08881998194
:10240000AA81BB81892B8A2B8B2B79F00E94A50195
:102410008823A1F30E949101882381F3082E000CE8
:10242000990B0E943E311F5FE9CF80EF91E00E943F
:102430004531812F110F990BDF91CF911F91089595
:102440000F931F93CF93DF93EC0106E010E0CE01D2
:102450000E94B711CE010E94EB11892B51F084E745
:1024600092E00E94453181E0DF91CF911F910F9161
:1024700008950150110959F780E0F6CF0F931F938B
:10248000CF93DF93EC0106E010E0CE010E94B7117C
:10249000CE010E94EB11892B51F48CE792E00E944F
:1024A000453181E0DF91CF911F910F910895015047
:1024B000110959F780E0F6CF40E064E084E40C9421
:1024C0000C0941E064E084E40C940C090E94720160
:1024D0000E948A01789408951F93CF93DF93EC01B3
:1024E000162F0E94661264E084E40E94C10864E032
:1024F00084E40E949D08CC57DF4F1883DF91CF9171
:102500001F910895EF92FF920F931F93CF93DF9344
:1025100000D000D000D0CDB7DEB78D839E8387E892
:1025200092E09F938F930E942A310F900F90AD817C
:10253000BE818C91882309F41FC1CD010E94000D3A
:10254000162F072FF82EE92E8D819E810E94960C62
:10255000EF92FF920F931F939F938F937F936F93AD
:1025600082E992E09F938F930E942A310FB6F894EC
:10257000DEBF0FBECDBF86EA92E09F938F930E948D
:102580002A310F900F90AD81BE8192968C919297D7
:10259000882309F4F6C07D01B2E2EB0EF11CC701FD
:1025A0000E94F00D182F092FC7010E94130EED8114
:1025B000FE8113A20F931F931F928F93AD81BE8153
:1025C00094968D919D910D90BC91A02D89839A83B5
:1025D000AB83BC83BC01CD0120E137E240E050E099
:1025E0000E94002C1F922F9382EB92E09F938F9377
:1025F0000E942A310FB6F894DEBF0FBECDBFAD8169
:10260000BE81D0968C91D097882309F4BFC08D01EC
:10261000005D1F4FD1961C92D197D2968D919D91BE
:102620000D90BC91A02D89839A83AB83BC83BC01A0
:10263000CD0120E432E44FE050E00E94002C2A302B
:1026400020F480E390E00E943E31ED81FE8111AAEA
:1026500082A993A9A4A9B5A989839A83AB83BC83D2
:10266000BC01CD0120E432E44FE050E00E94002C98
:102670001F922F938FEC92E09F938F930E942A31A9
:10268000C8010E94780E0F900F900F900F908A3023
:1026900020F480E390E00E943E31C8010E94780E51
:1026A0001F928F938FEC92E09F938F930E942A3119
:1026B000C8010E949C0E0F900F900F900F908A30CF
:1026C00020F480E390E00E943E31C8010E949C0EFD
:1026D0001F928F9388E094E09F938F930E942A31FA
:1026E000ED81FE8111AA82A993A9A4A9B5A9898324
:1026F0009A83AB83BC83BC01CD0124E630E040E08B
:1027000050E00E94002C0F900F900F900F906A30B5
:1027100020F480E390E00E943E31ED81FE8111AA19
:1027200082A993A9A4A9B5A989839A83AB83BC8301
:10273000BC01CD0124E630E040E050E00E94002CD6
:102740007F936F9386E793E09F938F930E942A3144
:102750000F900F900F900F9080EF91E026960FB69C
:10276000F894DEBF0FBECDBFDF91CF911F910F91C7
:10277000FF90EF900C9445318DE992E00E94453135
:10278000FACE85EC92E00E94453139CF8DE992E096
:102790000E944531E1CF9F92AF92BF92CF92DF92DC
:1027A000EF92FF920F931F93CF93DF93EC010E9460
:1027B0005C121882FE01E259FF4F108211821282D0
:1027C00013828E0108591F4FF80110825E01FEEA44
:1027D000AF0EB11C80E69AEEA0E0B0E0F501808378
:1027E0009183A283B38380E6C82E8AEED82EE12C93
:1027F000F12C99249394F50180819181A281B38178
:10280000892B8A2B8B2B09F44DC00E94A5018823AC
:1028100031F00E949101682FCE010E94DB10F5017A
:1028200080819181A281B3818C159D05AE05BF0584
:1028300060F4992051F0CE010E948212F0EDCF1A7F
:10284000F7E0DF0AE108F108912CF5018081918120
:10285000A281B381C816D906EA06FB0610F49924B2
:1028600093948881882339F2F8018081882319F2B2
:10287000118286819781A085B1850397A105B10555
:1028800008F4B9CFCE010E94611280E0DF91CF91B0
:102890001F910F91FF90EF90DF90CF90BF90AF907E
:1028A0009F9008951882EECFFC01E255FF4F808182
:1028B0009181A281B381892B8A2B8B2B59F0808146
:1028C0009181A281B3810197A109B109808391838C
:1028D000A283B3830895CF93DF93EB01FC01EA5801
:1028E000FF4F118266817781808591850E946E2ECF
:1028F0009F938F937F936F9385ED92E09F938F9338
:10290000DF93CF930E9471312DB73EB7285F3F4FC1
:102910000FB6F8943EBF0FBE2DBF8C0F9D1FDF91E9
:10292000CF9108956AE00E94CC2B8295807F890F19
:102930000895982F92959F708F702AE0929F800D36
:1029400011240895CF93C82F88E60E94171C8C2F5E
:102950000E94311C0E94211C61E088E60E940A1C32
:10296000CF910C94861CCF93DF93C82FD62F88E687
:102970000E94171C8D2F0E94311C8C2F0E94311C2D
:10298000DF91CF910C94211CCF93DF9381E10E94C2
:10299000A214D82F82E10E94A214C82F61E18EEE0A
:1029A0000E94B31462E18DED0E94B31481E10E9494
:1029B000A2148E3E91F482E10E94A2148D3D69F42E
:1029C00081E08093F70661E18D2F0E94B31462E1EC
:1029D0008C2FDF91CF910C94B31481E08093F60695
:1029E000DF91CF91089562E084E40E94760862E06E
:1029F00084E40E94C108E9E6F0E08081826080837F
:102A0000E89A789408958091F70608958091F606E3
:102A1000089581E08093F7061092F60608951092CB
:102A2000F70681E08093F6060895EF92FF920F93E8
:102A30001F93CF93DF93CDB7DEB729970FB6F894E6
:102A4000DEBF0FBECDBF88E60E94171C80E00E944B
:102A5000311C0E94211C67E088E60E940A1C8E013E
:102A60000F5F1F4F7E0188E0E80EF11C0E94861C5C
:102A7000F80181938F01EE15FF05C1F70E94211C1B
:102A800089818F770E94991490E09093E606809355
:102A9000E5068A810E94991490E09093E80680935D
:102AA000E7068B810E949914082F10E01093EA0624
:102AB0000093E9068D810E94991490E09093EC06B2
:102AC0008093EB06FE808F2D8F710E94991490E009
:102AD0009093EE068093ED068F810E94991490E00A
:102AE000F7FE27C08053984F9093F0068093EF062F
:102AF0008C810E94991490E09093F2068093F106E5
:102B000001151105C9F41092F5061092F40681E042
:102B10008093F30685EE96E029960FB6F894DEBF13
:102B20000FBECDBFDF91CF911F910F91FF90EF901E
:102B300008958459984FD8CF0C3011052CF4109378
:102B4000F5060093F406E3CF0C5011091093F50637
:102B50000093F4061092F306DDCF8F929F92AF920E
:102B6000BF92CF92DF92EF92FF920F931F93CF937A
:102B7000DF93CDB7DEB729970FB6F894DEBF0FBE4F
:102B8000CDBF8C017B016A0188E60E94171C80E0A2
:102B90000E94311C0E94211C67E088E60E940A1CEA
:102BA000CE0101965C014E0198E0890E911C0E94B5
:102BB000861CF50181935F018E169F06C1F70E9466
:102BC000211CC114D10429F089810E949914F601B5
:102BD0008083E114F10429F08A810E949914F7019D
:102BE00080830115110529F08B810E949914F80149
:102BF000808329960FB6F894DEBF0FBECDBFDF915C
:102C0000CF911F910F91FF90EF90DF90CF90BF90E9
:102C1000AF909F908F9008951F93CF93DF93EC0117
:102C200088E60E94171C80E00E94311C8A859B85E3
:102C3000813D27E0920774F1805D97409B878A87EA
:102C400010E888810E9492140E94311C8A810E949F
:102C500092140E94311C8C810E9492140E94311C9B
:102C60008C850E9492140E94311C8E810E949214C5
:102C70000E94311C88850E949214810F0E94311C91
:102C80008A850E9492140E94311CDF91CF911F917E
:102C90000C94211C8C5697409B878A8710E0D1CFDB
:102CA0001F93CF93DF93C82FD62F142F88E60E944F
:102CB000171C80E00E94311C812F0E9492140E94F8
:102CC000311C8D2F0E9492140E94311C8C2F0E9467
:102CD00092140E94311CDF91CF911F910C94211C02
:102CE000CF93C82F8091F60681110BC00E94A214C9
:102CF000CC2329F08F7760E0CF910C94B3148068D7
:102D0000FACFCF9108958091F606811106C00E94F6
:102D1000A2148095881F8827881F0895FF920F931B
:102D20001F93CF93DF938C01EB01FC01108218827B
:102D30008091F706811120C088E60E94171C81E16E
:102D40000E94311C0E94211C62E088E60E940A1C3D
:102D50000E94801C882381F00E94861CF82E0E940D
:102D6000861CF801F082829586958695837099E19C
:102D7000899F802D11248883DF91CF911F910F911E
:102D8000FF900895CF93DF93C82F8091F7068111AC
:102D90002DC088E60E94171C8EE00E94311C0E9404
:102DA000211C61E088E60E940A1C0E94861CD82F24
:102DB00088E60E94171C8EE00E94311C8D2F8062D5
:102DC0000E94311C0E94211CCC2381F088E60E94C5
:102DD000171C8EE00E94311C0E94211C61E088E6D5
:102DE0000E940A1C0E94861C85FDF0CFDF91CF91C6
:102DF0000895CF93C82F88E60E94171C88E08C0F97
:102E00000E94311C0E94211C61E088E60E940A1C7D
:102E1000CF910C94861C0F931F93CF938C01C0E02D
:102E20008C2F0E94F916F80181938F01CF5FC83370
:102E3000B9F7CF911F910F910895CF93DF93C82FCA
:102E4000D62F88E60E94171C88E08D0F0E94311C47
:102E50008C2F0E94311CDF91CF910C94211C0F9379
:102E60001F93CF938C01C0E06C2FF80181918F01EB
:102E70000E941D17CF5FC833B9F7CF911F910F91F3
:102E80000895CF93DF93D82F8091F706882309F117
:102E900088E60E94171C87E00E94311C0E94211CBA
:102EA00061E088E60E940A1C0E94861CC82FDD2370
:102EB00071F0C06188E60E94171C87E00E94311CF7
:102EC0008C2F0E94311CDF91CF910C94211CCF7E5E
:102ED000F1CF88E60E94171C8EE00E94311C0E94F0
:102EE000211C61E088E60E940A1C0E94861CC82FF3
:102EF000DD2339F0CB7FC06488E60E94171C8EE08A
:102F0000DDCFCF7BF9CFCF93DF93EC018091F70634
:102F10008823E9F088E60E94171C87E00E94311C94
:102F20000E94211C61E088E60E940A1C0E94861C07
:102F30008C7FC82B88E60E94171C87E00E94311CFA
:102F40008C2F0E94311CDF91CF910C94211C88E6BC
:102F50000E94171C8EE00E94311C0E94211C61E01F
:102F600088E60E940A1C0E94861C94E0CC0FDD1F9C
:102F70009A95E1F7877EC82B88E60E94171C8EE0A1
:102F8000DDCFCF93DF93D82F8091F606882309F108
:102F900088E60E94171C8FE00E94311C0E94211CB1
:102FA00061E088E60E940A1C0E94861CC82FDD236F
:102FB00071F0C86088E60E94171C8FE00E94311CE7
:102FC0008C2F0E94311CDF91CF910C94211CC77F64
:102FD000F1CFDF91CF9108958091F706882361F0BA
:102FE00060E080E00E941D1761E080E00E941D17F4
:102FF00062E080E00C941D1767E080E00E94B3144B
:1030000068E080E00E94B31469E080E00E94B3149D
:103010006AE080E00C94B3141F93CF93DF93C82F22
:10302000D62F142F883108F054C06C3308F051C0EB
:103030004C3308F04EC08091F706882379F060E0A9
:103040008C2F0E941D1761E08D2F0E941D1762E0DA
:10305000812FDF91CF911F910C941D17842F0E9417
:10306000921467E00E94B3148D2F0E94921468E0BE
:103070000E94B3148C2F0E94921469E00E94B31432
:103080006AE081E80E94B3148FE00E94A2146FE00E
:103090008E7F0E94B31488E60E94171C8EE00E9467
:1030A000311C0E94211C61E088E60E940A1C0E94DB
:1030B000861CC82F88E60E94171C8EE00E94311CD7
:1030C0008C2F81600E94311CDF91CF911F910C9455
:1030D000211CDF91CF911F910895FC01892B29F0CC
:1030E0004081628184810C940C180895EF92FF92C4
:1030F0000F931F93CF93DF93EC018B017A018091A3
:10310000F7068823E9F0209721F080E00E94F91665
:1031100088830115110529F081E00E94F916F80154
:103120008083E114F10429F082E00E94F916F7018E
:103130008083DF91CF911F910F91FF90EF900895C1
:1031400087E00E94A2148F770E949914F701808370
:1031500088E00E94A2148F770E949914F80180835E
:1031600089E00E94A2148F770E9499148883E1CF8E
:10317000CF93DF9300D00F92CDB7DEB7AE014F5F94
:103180005F4FBE016E5F7F4FCE0103960E9476189F
:10319000E5EEF6E08B8190E0958384838A8190E070
:1031A00093838283898190E091838083CF010F9004
:1031B0000F900F90DF91CF910895FF920F931F937F
:1031C000CF93DF9300D00F92CDB7DEB78091F70693
:1031D000882349F180E00E94F916F82E81E00E94D0
:1031E000F916082F82E00E94F916182FAE014F5FE2
:1031F0005F4FBE016E5F7F4FCE0103960E94AD15FB
:103200008B818F1106C08A81801303C081E0998170
:10321000911380E00F900F900F90DF91CF911F914D
:103220000F91FF9008958FE00E94A214182F117043
:1032300080FF04C06FE08E7F0E94B314812FEACF1D
:10324000CF93DF93FC01DB0146A157A127A930AD45
:1032500014968D919C911597421753070CF12417E2
:10326000350754F042175307D9F4C4A1D5A165A975
:1032700076A96C177D07A4F484179507A4F088310C
:103280009105A4F02817390749F481E012964D9171
:103290005C9125A936A9421753074CF080E007C07E
:1032A000841795077CF38217930764F781E0DF9119
:1032B000CF910895EF92FF920F931F93CF93DF93D7
:1032C000FC01EB01DC01A85BBF4F8C819D812D913E
:1032D0003C91820F931F28E1E22EF12CB7010E944E
:1032E000EC2B9C0195838483DF01AA5BBF4F0D917A
:1032F0001C918A819B81800F911F6CE370E00E947A
:10330000EC2B938382838A819B81080F191F0C33D6
:1033100011053CF0C9010196B7010E94EC2B958381
:103320008483DF91CF911F910F91FF90EF900895CB
:10333000CF93DF93EC01BC016F5E7F4F0E945A195F
:103340008B818F938A818F938D818F938C818F93C3
:103350008CEF92E09F938F930E942A31BE01CE01A1
:103360000E9420190F900F900F900F900F900F90C8
:1033700040E08823D9F06A818C810E940C188B81EF
:103380008F938A818F938D818F938C818F9380E22D
:1033900093E09F938F930E942A310F900F900F908C
:1033A0000F900F900F90DF91CF9108956CA18EA197
:1033B0000E940C188DA18F938CA18F938FA18F9356
:1033C0008EA18F938DE493E0E4CF10926307449A2B
:1033D000459AE9EBF0E080818E7F808380818D7F4C
:1033E00080838CE08093B80085E48093BC0078945F
:1033F0000895880F8093BA000895982F842F413242
:1034000058F5209163072111FCCF21E02093630739
:103410002FEF2093F80610923D07280F20933C07CA
:10342000990F91609093620795EE9093BC009091F4
:1034300063079130E1F390913D07981710F4809164
:103440003D072EE337E0FB01D9019A2F921B981715
:1034500020F49D919193F9CF80E00895982F413207
:10346000B0F5809163078111FCCF32E030936307A0
:103470003FEF3093F80610923D0740933C07562FDC
:10348000AEE3B7E0FB013E2F351B341718F4319142
:103490003D93F9CF492F50E0440F551F40936207E9
:1034A00095EE9093BC00222321F090916307923017
:1034B000D1F39091F8069F3F79F08091F806803221
:1034C00041F08091F806803331F084E0089581E086
:1034D000089582E0089583E00895613288F4209190
:1034E0006307243079F460931A07282FACE1B7E022
:1034F000FC018E2F821B861738F481918D93F9CFB2
:1035000081E0089582E0089580E0089590935F0738
:1035100080935E07089590936107809360070895F4
:10352000882321F085EC8093BC00089585E8FBCFCB
:1035300085ED8093BC008091BC0084FDFCCF10928F
:103540006307089585EC8093BC001092630708958B
:103550001F920F920FB60F9211242F933F934F9308
:103560005F936F937F938F939F93AF93BF93EF93EB
:10357000FF939091B900892F887F803509F4BCC0F2
:1035800008F045C0803309F4B2C0A0F5883101F1DC
:10359000D0F4883009F4A3C0803109F4A0C0882396
:1035A00009F4E9C0FF91EF91BF91AF919F918F9185
:1035B0007F916F915F914F913F912F910F900FBE2F
:1035C0000F901F901895803209F491C0883251F7FE
:1035D00090913D0780913C07981708F08AC0E091D0
:1035E0003D0781E08E0F80933D07F0E0E25CF84FED
:1035F000808177C0803409F48BC0883409F479C0A5
:10360000883381F68093F8060E94A21ACBCF803AC5
:1036100009F498C060F5803809F482C0F8F4803667
:10362000B9F080F4883509F0BDCFE0913D0781E025
:103630008E0F80933D078091BB00F0E0E25CF84F75
:10364000808357C0803721F0987E983609F0AACF42
:1036500083E0809363071092F90645C0803909F42E
:103660005FC0987E983809F09DCF85E83DC0883BC3
:10367000D9F058F5883A19F0803B09F093CF84E0EF
:103680008093630710921B0710921A07E09160075E
:10369000F0916107099580911A07811105C081E0B9
:1036A00080931A0710921C07E0911B0781E08E0F90
:1036B00080931B07F0E0E45EF84F80818093BB00AD
:1036C00090911B0780911A0727C0907F903C09F0CA
:1036D00069CF85EC8093BC001092630763CF809123
:1036E00062078093BB0085EC8093BC005BCF809326
:1036F000F8060E94981A56CFE0913D0781E08E0FA0
:1037000080933D078091BB00F0E0E25CF84F80833E
:1037100090913D0780913C07981708F0A6CFE3CF22
:103720008091F906803208F0A0CFE091F90681E09F
:103730008E0F8093F9068091BB00F0E0E650F94FC0
:103740008083D1CF8091F906803230F4E091F90680
:10375000F0E0E650F94F10820E94981A6091F90645
:1037600070E0E0915E07F0915F078AEF96E00995BF
:103770001092F90649CF1092F806BBCFCF93DF9392
:10378000DC01CB01E0916407F09165073097E9F027
:1037900030918D0720918C073217B8F040E0242F2C
:1037A00030E02817390754F4ED01C20FD31F5881B8
:1037B0002257384FE90158834F5FF1CF10928D07A0
:1037C00080938C07DF91CF910994DF91CF91089579
:1037D000E0916607F0916707309729F010926A0729
:1037E000109269070994089510928D0710928C0722
:1037F00010926A07109269070C94E5190E94F91952
:1038000088EE9BE10E948B1A8EEB9BE10E94861A48
:103810000C94F41B462F613208F040E26EE877E02A
:103820000E94FD1910928D0780938C07089591E0F6
:103830009093680780938B0710926A07109269072C
:10384000089521E0409169076BE677E080918B074E
:103850000E942E1A10926A07109269071092680748
:103860000895CF93DF930F92CDB7DEB78983809110
:1038700068078823A9F080916907803268F48091F5
:103880006A07E82FF0E0E559F84F998190838F5F40
:1038900080936A07809369070F90DF91CF91089515
:1038A00061E0CE0101960E946D1AF6CF0F931F932F
:1038B000CF93DF9320916807222369F08C01EC01FC
:1038C000C60FD11D0C171D0761F0F80181918F0102
:1038D0000E94311CF7CFDF91CF911F910F910C9473
:1038E0006D1ADF91CF911F910F910895DC010D901A
:1038F0000020E9F71197BD01681B790B0C94561C49
:1039000080918C0790918D07891B089590918D0768
:1039100080918C07981748F4E92FF0E0E257F84FB0
:1039200080819F5F90938D07089580E00895909324
:1039300065078093640708959093670780936607EF
:1039400008950895FF920F931F93CF93DF93CDB700
:10395000DEB761970FB6F894DEBF0FBECDBF8C0106
:10396000F62EDC01D5961C921E92D4978C91282FAE
:10397000082E000C330B3F938F938BE793E09F93BC
:103980008F930E942A31F80184A995A9E80FF91FA5
:1039900020810F900F900F900F90223509F49AC25A
:1039A0004CF4243409F40EC4293409F4C0C38AE366
:1039B00094E0BAC32335D9F79C012E5F3F4F2233E1
:1039C00031050CF07BC2D801D5963C932E93D49749
:1039D000200F311FF9016081062E000C770B605318
:1039E00071094AE0469FF001479FF00D1124F093C2
:1039F0005505E0935405BC016D5F7F4F8F329105F3
:103A000009F45CC2D5967C936E93D497600F711FB6
:103A1000DB012C91022E000C330B205331092E0FA9
:103A20003F1F30935505209354059C012B5F3F4F5A
:103A3000223331050CF042C2F80135AB24AB200F24
:103A4000311FD9016C91062E000C770B6053710960
:103A5000469FF001479FF00D1124F0935305E0932A
:103A60005205BC016A5F7F4F8C32910509F426C272
:103A7000D801D5967C936E93D497600F711FDB01AC
:103A80002C91022E000C330B205331092E0F3F1FB7
:103A900030935305209352059C01285F3F4F2233FA
:103AA00031050CF00BC2F80135AB24AB200F311FF0
:103AB000D9012C91022E000C330B20533109429F67
:103AC000B001439F700D1124709351056093500510
:103AD0009C01275F3F4F899709F4F0C135AB24ABB8
:103AE000200F311FF9018081082E000C990BC0971F
:103AF000860F971F909351058093500564E170E005
:103B000080E595E00E940D2464E170E080E595E099
:103B10000E942824809151058F93809150058F93A6
:103B2000809153058F93809152058F938091550515
:103B30008F93809154058F938EE993E09F938F9399
:103B40000E942A31D801D4968D919C91D5970296E6
:103B50000FB6F894DEBF0FBECDBF823391050CF0D7
:103B6000ADC1D5969C938E93D497800F911FDC01A5
:103B70008C91082E000C990BC0972AE0F22EF89E2B
:103B80009001F99E300D1124309366052093650550
:103B9000F80184A995A90196823391050CF08EC194
:103BA00095AB84AB800F911FDC018C91082E000C2B
:103BB000990BC0972091650530916605820F931F80
:103BC000909366058093650584A995A90296823332
:103BD00091050CF073C195AB84AB800F911FFC0174
:103BE0008081082E000C990BC097F89E9001F99ED9
:103BF000300D11243093640520936305D801D496C9
:103C00008D919C91D5970196823391050CF056C108
:103C1000D5969C938E93D497800F911FFC01808141
:103C2000082E000C990BC097209163053091640514
:103C3000820F931F9093640580936305D4968D91B2
:103C40009C91D5970296823391050CF037C1D59699
:103C50009C938E93D497800F911FDC018C91082E3A
:103C6000000C990BC097F89E9001F99E300D11241D
:103C70003093620520936105F80184A995A9019606
:103C8000823391050CF01AC195AB84AB800F911F64
:103C9000DC018C91082E000C990BC09720916105D6
:103CA00030916205820F931F9093620580936105A6
:103CB00067E170E081E695E00E940D2467E170E025
:103CC00081E695E00E942824809162058F9380917F
:103CD00061058F93809164058F93809163058F9325
:103CE000809166058F93809165058F9389EB93E0B2
:103CF0009F938F930E942A31F80184A995A9029677
:103D00000FB6F894DEBF0FBECDBF823391050CF025
:103D1000D5C095AB84AB800F911FDC018C91082E30
:103D2000000C990BC097F89E9001F99E300D11245C
:103D3000309377052093760584A995A9019682335F
:103D400091050CF0BBC095AB84AB800F911FFC01BB
:103D50008081082E000C990BC09720917605309138
:103D60007705820F931F9093770580937605D8018E
:103D7000D4968D919C91D5970296823391050CF043
:103D80009DC0D5969C938E93D497800F911FFC0174
:103D90008081082E000C990BC097F89E9001F99E27
:103DA000300D11243093750520937405D4968D91B0
:103DB0009C91D5970196823391050CF07FC0D596E2
:103DC0009C938E93D497800F911FDC018C91082EC9
:103DD000000C990BC0972091740530917505820FE6
:103DE000931F9093750580937405F80184A995A994
:103DF0000296823391050CF061C095AB84AB800FC5
:103E0000911FDC018C91082E000C990BC0974AE0A1
:103E1000489F9001499F300D1124309373052093E2
:103E2000720584A995A90196823391050CF046C0CC
:103E300095AB84AB080F191FF8018081082E000C88
:103E4000990BC0972091720530917305820F931FD3
:103E500090937305809372056AE170E082E795E0C4
:103E60000E940D246AE170E082E795E00E94282418
:103E7000809173058F93809172058F938091750562
:103E80008F93809174058F93809177058F938091A4
:103E900076058F9382ED93E09F938F930E942A3152
:103EA00062E08CE090E00E9480230FB6F894DEBFC1
:103EB0000FBECDBF80E594E00E94453161960FB6FC
:103EC000F894DEBF0FBECDBFDF91CF911F910F9150
:103ED000FF9008959C012E5F3F4F2233310574F708
:103EE000D801D5963C932E93D497200F311FF9011A
:103EF0004081042E000C550B405351096AE0649F29
:103F0000F001659FF00D1124AC014D5F5F4F8F32C2
:103F10009105A1F2D5965C934E93D497400F511F13
:103F2000DA012C91022E000C330B205331092E0F95
:103F30003F1F3E832D839C012B5F3F4F2233310572
:103F40000CF0BCCFF80135AB24AB200F311FD901E9
:103F50004C91042E000C550B40535109649FF00105
:103F6000659FF00D1124AC014A5F5F4F8C329105C3
:103F700009F4A4CFD801D5965C934E93D497400F03
:103F8000511FDA012C91022E000C330B2053310902
:103F90002E0F3F1F3C832B839C01285F3F4F223312
:103FA00031050CF08BCFF80135AB24AB200F311F5E
:103FB000D9014C91042E000C550B40535109649FBC
:103FC000F001659FF00D1124AC01475F5F4F89320E
:103FD000910509F473CFD801D5965C934E93D4978D
:103FE000400F511FDA012C91022E000C330B20538D
:103FF00031092E0F3F1F3A8329839C01255F3F4FD4
:10400000223331050CF05ACFF80135AB24AB200F29
:10401000311FD9014C91042E000C550B405351090E
:10402000649FF001659FF00D1124AC01445F5F4F68
:104030008632910509F442CFD801D5965C934E9310
:10404000D497400F511FDA012C91022E000C330B34
:10405000205331092E0F3F1F38872F839C01225F89
:104060003F4F223331050CF029CFF80135AB24AB9B
:10407000200F311FD9014C91042E000C550B4053D9
:104080005109649FF001659FF00D1124AC01415F5F
:104090005F4F8332910509F411CFD801D5965C9317
:1040A0004E93D497400F511FDA012C91022E000C31
:1040B000330B205331092E0F3F1F3A8729879C016C
:1040C0002F5E3F4F223331050CF0F8CEF80135ABAF
:1040D00024AB200F311FD9012C91022E000C330B81
:1040E00020533109629FA001639F500D11249C0150
:1040F0002E5E3F4F809709F4E1CE35AB24AB020F23
:10410000131FF8018081082E000C990BC097840FB3
:10411000951F9C878B87CE0101960E940C1681E02B
:1041200080932D058AE893E00E944531C3CE9C011F
:104130002E5F3F4F223331050CF0C0CED801D5960B
:104140003C932E93D497AC014D5F5F4F8F9709F44A
:10415000B5CE200F311FF9019081D5965C934E9317
:10416000D4979053040F151FD8018C91BAE09B9FF0
:10417000800D112460ED680F81538236F0F48AE0DF
:1041800090E00E9480236CE275E08AE090E00E945B
:104190006D2362E08BE090E00E94802380912C05EB
:1041A0001F928F938DEE93E09F938F930E942A31FD
:1041B0000F900F900F900F907DCE1F926F938CEF0A
:1041C00093E0F2CFE1E084E294E0FE12ADCF8BE029
:1041D00094E00E9445310E940A256CCEFC0182A920
:1041E00093A9813391052CF4019693AB82AB80E0C7
:1041F000089581E00895FC01A2A9B3A9A80FB91FF1
:104200006C930C94EE20FC0113AA12AA0C94FB20D0
:10421000FC0184A995A9680F791F6233710524F404
:1042200075AB64AB80E0089581E00895CF93DF9390
:104230008EE480937C0086E880937A008FEC97E090
:104240000197F1F700C0000080917A0080648093AC
:104250007A0080917A0086FDFCCF8FEC97E0019781
:10426000F1F700C0000080917A00806480937A00AA
:1042700080917A0086FDFCCF8FE19EE40197F1F7F3
:1042800000C000006091780080917900782F80E074
:104290009CE20E94D82BEB01CB0199279F938F932F
:1042A00085E694E09F938F930E942A3180917A0053
:1042B0008F7780937A000F900F900F900F908C2F34
:1042C000DF91CF910895CF93DF9300D000D0CDB789
:1042D000DEB70E9416216AE00E94CC2B282F30E026
:1042E00050E040E029833A834B835C83CA01B901E3
:1042F0000E946E2E69837A838B839C8369817A8185
:104300008B819C810F900F900F900F90DF91CF9138
:1043100008959F92AF92BF92CF92DF92EF92FF9259
:104320000F931F93CF93DF938C01F42EE52ED62E9F
:10433000C72E59018BE7F8018083E801229684E4B7
:10434000818380912C051F928F9388E094E09F9346
:104350008F93DF93CF930E947131C80FD91F8CE2E6
:10436000982EFE019192CF0162E774E00E947A30AC
:104370002596F50181818F9380818F9383818F931F
:1043800082818F9385818F9384818F9380E691E0E2
:104390009F938F93DF93CF930E947131C80FD91FE2
:1043A0009992CF92DF92EF92FF9287E794E09F93EA
:1043B0008F93DF93CF930E947131C80FD91F8DE780
:1043C00088831982F80101900020E9F7CF01019755
:1043D0002DB73EB7285E3F4F0FB6F8943EBF0FBED5
:1043E0002DBF801B910BDF91CF911F910F91FF90FB
:1043F000EF90DF90CF90BF90AF909F9008958CE7A3
:1044000094E00E94453167E084E40E949D0867E0E3
:1044100084E40E94C10865E084E40E949D0865E090
:1044200084E40E94E50866E084E40E949D0866E05A
:1044300084E40E94E50867E084E40E94E50865E002
:1044400084E40E94C10866E084E40E94E5082FEF3E
:1044500082E795E5215080409040E1F700C00000E0
:1044600065E084E40E94E50866E084E40E94E508D3
:104470002FEF84E39CE0215080409040E1F700C0A2
:10448000000065E084E40E94E50866E084E40E94A0
:10449000C1082FEF82E795E5215080409040E1F779
:1044A00000C0000065E084E40E94E50866E084E462
:1044B0000E94E50867E084E40C94C10867E084E4A6
:1044C0000E94E50865E084E40E94C10866E084E497
:1044D0000E94E5082FEF82E795E52150804090404B
:1044E000E1F700C0000065E084E40E94E50866E0B2
:1044F00084E40E94E50867E084E40C94C108EFEAD4
:10450000F7E087E090E0958384838EE190E09383E9
:104510008283118210829783868381E090E0918765
:10452000808786E190E0938782870895FC0120854B
:1045300031858091B7079091B80782179307B4F13E
:104540002817390789F5268137818091B507909121
:10455000B6078217930754F12817390729F52481E4
:1045600035818091B3079091B40782179307F4F0D7
:1045700028173907C9F4228133818091B1079091BE
:10458000B2078217930794F02817390769F440811E
:1045900051812091AF073091B00781E02417350792
:1045A0003CF04217530721F080E0089581E0089520
:1045B0000895CF92DF92EF92FF920F931F93CF93C4
:1045C000DF93CDB7DEB768970FB6F894DEBF0FBEA6
:1045D000CDBF182F0E947F228091AE0781116EC03F
:1045E0000E941515F82E092F103288F582E994E003
:1045F0000E9445310E945E22812F90E0B0E0A0E051
:104600008D8B9E8BAF8BB88FBC01CD010E946C2E21
:104610002F2D302F462F572FBC01DE0111966D0133
:10462000CD010E948921E82EDF92CF928CEA94E09E
:104630009F938F930E942A316E2DC6010E94B1056F
:1046400081E08093AE070F900F900F900F908F2D09
:10465000902F0E949622882389F18AEB94E00E9491
:1046600045310E945E22812F90E0B0E0A0E08D8B6A
:104670009E8BAF8BB88FBC01CD010E946C2E2F2D6D
:10468000302F462F572FBC018E010F5F1F4FC801DF
:104690000E948921F82E1F930F938CEA94E09F9338
:1046A0008F930E942A316F2DC8010E94B10581E0CD
:1046B0008093AE070F900F900F900F9068960FB6F3
:1046C000F894DEBF0FBECDBFDF91CF911F910F9148
:1046D000FF90EF90DF90CF9008959C01FB01211592
:1046E00084E0380758F49FB3892F827091FDFBCF87
:1046F00032BD21BDF89A90B59083089582E0089567
:104700009C01211584E0380758F49FB3892F8270EB
:1047100091FDFBCF32BD21BD60BDFA9AF99A089593
:1047200082E00895FF920F931F93CF93DF930F9230
:10473000CDB7DEB78C01F62E011584E0180730F5F1
:104740001982BE016F5F7F4FC8010E946D238111E6
:1047500016C09981F91699F06F2DC8010E94802327
:1047600081110DC0BE016F5F7F4FC8010E946D2394
:10477000811105C081E099819F1101C080E00F90F7
:10478000DF91CF911F910F91FF90089582E0F7CFB5
:10479000EF92FF920F931F93CF93DF938C01EB0166
:1047A0007B01E40EF51ECE15DF0579F06991C80195
:1047B0000E9492230F5F1F4F8823A9F3DF91CF91AF
:1047C0001F910F91FF90EF90089580E0F7CFCF9267
:1047D000DF92EF92FF920F931F93CF93DF938C01A1
:1047E0007B016A01D0E0C0E0CC15DD0561F0B701C6
:1047F0006C0F7D1FCE01800F911F0E946D238111D0
:1048000003C02196F1CF80E0DF91CF911F910F91EE
:10481000FF90EF90DF90CF9008950F931F93CF9369
:10482000DF938C01EB01FC016481CE010E948023A7
:10483000F8016281CE0101960E948023F801608117
:10484000CE010296DF91CF911F910F910C9480239E
:104850000F931F93CF93DF938C01EB01BC016C5F2F
:104860007F4FCE010E946D23B8016E5F7F4FCE0156
:1048700001960E946D23B801CE010296DF91CF917F
:104880001F910F910C946D23CF93DF9389E190E0FA
:104890000E94A025C82FD0E08AE190E00E94A025C8
:1048A0009E01382BC901DF91CF910895CF93682FD6
:1048B000C92F89E190E00E944A256C2F8AE190E09F
:1048C000CF910C944A25EF92FF920F931F93CF93B1
:1048D000DF938C010E944424EC01F8010190002038
:1048E000E9F7AF0141505109401B510B4333DCF450
:1048F000E42E042E000CFF08C7018C0F9D1F8F3F74
:104900009F4310F0C2E3D0E0B801CE010E940C2614
:10491000C7018C0F9D1FDF91CF911F910F91FF90C9
:10492000EF900C945624DF91CF911F910F91FF903F
:10493000EF900895DF92EF92FF920F931F93CF9322
:10494000DF93D82FC92F8B01F42EE52E642F752FFE
:104950000E946A0DFC018CE2D82ED192BF018D2FEE
:104960009C2F0E94890DFC01D192BF018D2F9C2F9D
:104970000E946B14EC01D992F80181818F938081A0
:104980008F9383818F9382818F9385818F9384818D
:104990008F9380E691E09F938F93DF93CF930E9454
:1049A0007131C80FD91F8BE388831982EF92FF9270
:1049B00088ED94E09F938F930E942A31EDB7FEB764
:1049C0003E960FB6F894FEBF0FBEEDBFDF91CF91BC
:1049D0001F910F91FF90EF90DF900895CF93DF9399
:1049E000CDB7DEB7E2970FB6F894DEBF0FBECDBFEE
:1049F000AE014F5F5F4F0E949A24CE0101960E9444
:104A00006324E2960FB6F894DEBF0FBECDBFDF91F0
:104A1000CF9108950F931F93CF930E944424C82FE2
:104A2000192F88EE94E09F938F930E942A311F9351
:104A3000CF9386E793E09F938F930E942A310F9044
:104A40000F900F900F900F900F9002E310E0C801AD
:104A50000E94A025C82F90E00E943E31CB3359F42C
:104A600080EF91E00E9445310F5F1F4F0F3F8FE3B2
:104A7000180769F702C0CF3FB9F7CF911F910F9187
:104A8000089585E08093B800E9EBF0E080818C7FA9
:104A90008083089534EA40EA54E83093BC002091C2
:104AA000BC0027FFFCCF2091B900287F283011F0EF
:104AB00080E008954093BB005093BC002091BC005F
:104AC00027FFFCCF2091B900287F283131F7909340
:104AD000BB0094E89093BC009091BC0097FFFCCF82
:104AE0009091B900987F983219F78093BB0084E8C1
:104AF0008093BC008091BC0087FFFCCF8091B900FF
:104B0000887F8832A9F66093BB0084E88093BC005C
:104B10008091BC0087FFFCCF8091B900887F8832EC
:104B200039F684E98093BC008091BC0084FDFCCF01
:104B30008FEB9DE50197F1F700C0000081E008953B
:104B400034EA40EA54E83093BC002091BC0027FFCF
:104B5000FCCF2091B900287F283009F05BC040933A
:104B6000BB005093BC002091BC0027FFFCCF2091DC
:104B7000B900287F283139F79093BB0094E89093CF
:104B8000BC009091BC0097FFFCCF9091B900987F3A
:104B9000983209F03FC08093BB0084E88093BC004A
:104BA0008091BC0087FFFCCF8091B900887F88325C
:104BB00089F584EA8093BC008091BC0087FFFCCF1C
:104BC0008091B900887F803129F581EA8093BB000C
:104BD00084E88093BC008091BC0087FFFCCF80916B
:104BE000B900887F8034B1F484E88093BC00809160
:104BF000BC0087FFFCCF8091B900887F883551F4D5
:104C00008091BB0094E99093BC009091BC0094FD0E
:104C1000FCCF089580E00895EF92FF920F931F93C9
:104C2000CF93DF938C01EB017B01E40EF11CCE15D9
:104C3000DF0579F06991C8010E944A250F5F1F4F77
:104C40008111F5CFDF91CF911F910F91FF90EF90E0
:104C5000089581E0F7CFA5E1B0E0E1E3F6E20C943E
:104C6000DB2C7C011B015A01DC0117961C921E9261
:104C7000169713968C9181FF68C3FE0131964F0100
:104C8000D70113969C91F10193FD859193FF81913A
:104C90001F01882309F4EDC2853239F493FD859113
:104CA00093FF81911F01853239F4B70190E00E9492
:104CB000FA3065015601E4CF10E0512C00E00032DB
:104CC00038F48B3209F190F48032F9F0833209F133
:104CD00007FD34C020ED280F2A3020F506FF1BC049
:104CE000BAE01B9F200D1124122F05C08D3279F0E0
:104CF000803371F70160F10193FD859193FF8191FC
:104D00001F018111DCCF1AC002600460F4CF08607B
:104D1000F2CF0061F0CFEAE05E9E200D1124522E0A
:104D20000062E9CF8E3221F406FDA3C20064E3CF16
:104D30008C3611F40068DFCF8836E9F29BEB980FD0
:104D4000933008F073C00061805E06FF16E00F73B9
:104D5000702E853609F071C0689476F877FE77C0BA
:104D6000812F1C3308F08BE344244394480E27E042
:104D7000D5014D915D916D917D916D014C875D8760
:104D80006E877F87042DA4016C857D858E859F8528
:104D90000E948E2F5C01B981BC87B0FF04C06DE218
:104DA000662EB3FF0BC05BE2652E71FC07C0E72DDA
:104DB000E4706E2E72FE02C070E2672E0C850C70DD
:104DC00009F456C06110C4C2F3E000E0F51598F490
:104DD00083E0052D081B73FC07C0B70180E290E05B
:104DE0000E94FA300150C9F7662029F0B701862DDC
:104DF00090E00E94FA30FC8548E6A42E40E0B42EF4
:104E0000F3FD04C03CE6A32E30E0B32E172D107145
:104E1000F5018491811122C0002309F44BCFB70121
:104E200080E290E00E94FA300150F6CF9BE9980FA3
:104E3000933008F041C10F7E88CF863619F468940C
:104E400077F88CCF112309F489CF115087CF212F08
:104E5000183010F027E017E0412C8ACF1111805252
:104E6000B70190E00E94FA302FEFA21AB20AD0CF19
:104E700077FE78C04A0CFC85F4FF04C08A81813338
:104E800009F44A9414140CF090C028E0241510F48E
:104E900028E0422E85E090E077FE06C0C501B7FE0F
:104EA00002C090E080E0019661100196112331F07C
:104EB000212F30E02F5F3F4F820F931F58161906A6
:104EC00019F014F0052D081B872D897011F40111BC
:104ED00071C0662029F0B701862D90E00E94FA305B
:104EE00073FC02C001116DC077FE98C0B98AA88A10
:104EF000B7FE02C0198A188A68887988A501441902
:104F000051095D8B4C8B412E512C662777276419F4
:104F100075097B8B6A8BA614B7040CF459C08C8975
:104F20009D89861597050CF053C0F501E619F70920
:104F3000E80DF91D818191E0691A7108AA89BB8980
:104F40006A167B060CF446C0B70190E00E94FA3066
:104F5000BFEF6B167B06F9F6B7018EE290E00E9478
:104F6000FA30D9CF76FC96CFE12FF0E0EA15FB05B9
:104F70003CF03CEFA3163FEFB30614F0689477F8CB
:104F80003296E80DF91D01C01150112319F08291DC
:104F90008033D1F377FE7ECF44244394410E1A151B
:104FA0001B0431F02CF01A1975CF4424439472CFAE
:104FB00010E070CFB70180E290E00E94FA3001501B
:104FC00086CFB70180E390E00E94FA3001508ACF8B
:104FD00080E3B1CF68897989615071094094509418
:104FE000E889F9894E165F06A4F4461A570A460E58
:104FF000571EA414B50441F49A81963368F495338E
:1050000019F4FC85F4FF08C0B70190E00E94FA3063
:1050100003CF512C412CEBCF81E3F6CF8A81813332
:1050200019F02C852F7E2C87B70190E00E94FA3072
:105030001123A9F0B7018EE290E00E94FA3092E0CD
:10504000692E610E12E0E12F1F5FE80DF92DF11DB1
:105050008081B70190E00E94FA306112F4CF85E6BA
:1050600090E074FE02C085E490E0B7010E94FA303F
:10507000B7FC06C0A114B104C1F43C8534FF15C0CF
:10508000B194A194B1088DE2B70190E00E94FA308A
:1050900080E35AE0A516B10454F4B70190E00E94F1
:1050A000FA30B701C501C096B1CF8BE2EDCF8F5F6B
:1050B0004AE0A41AB108EDCF8336B9F0833709F47A
:1050C0003CC0833509F04FC0D501AD90BD906D0156
:1050D000612F70E006FD02C06FEF7FEFC5010E94F7
:1050E00066303C01102F10680DC0650162E0C60EED
:1050F000D11CD5018C91898366246394712C540151
:10510000102F1F7713FD04C05614170409F020F563
:10511000052D6114710409F47FCEF50117FD859109
:1051200017FF81915F01B70190E00E94FA300111F1
:105130000150B1E06B1A7108ECCFF501A190B1906C
:105140006F01612F70E006FD02C06FEF7FEFC501B8
:105150000E9490303C01D4CFB70180E290E00E94E1
:10516000FA305A94D1CF843619F0893609F070C0DC
:1051700007FF65C0F50161917191819191916F0176
:105180000F7697FF08C090958095709561957F4F39
:105190008F4F9F4F00682AE030E0A4010E949431B5
:1051A000A82EA818BA2C602E06FF0BC0E89460F851
:1051B000A11638F404FF04C002FD02C00E7E602E6A
:1051C000B12E64FE9AC0FE01EA0DF11D808180338C
:1051D00009F08CC0562D597E652E062D087063FC93
:1051E0009BC060FE95C01A2DB51410F4150D1B1947
:1051F00064FE98C0B70180E390E00E94FA3062FE3E
:1052000009C088E790E061FE02C088E590E0B70140
:105210000E94FA30A11608F491C0AA94B12C6FEF45
:10522000A61AB60AA80CB91CD5018E915D01B7016A
:1052300090E00E94FA30A814B904B1F7EDCDD50181
:105240006D917D916D01072E000C880B990B98CF05
:10525000702EE89474F82AE030E0853739F1B02FE9
:10526000B97F7B2E8037A9F058F48835A9F08F36A6
:10527000D9F0F701868197816596E2E10C94F72CCD
:105280008837B9F774FE02C0689472F820E130E004
:105290000DC0689474F8F6CF04FF03C0EB2FE660EE
:1052A0007E2E20E132E002C028E030E077FE16C01A
:1052B000D5014D915D916D917D916D014C875D871B
:1052C0006E877F87A4016C857D858E859F850E9472
:1052D0009431A82EA818072D0F7764CFF50181917E
:1052E00091916F01AC0170E060E0E8CF62FC02C018
:1052F000B39473CFB394B39470CF862D867809F4AA
:105300006CCFF6CFB70180E290E00E94FA30B39400
:10531000B514C0F300E06CCF052D0B19B51408F4DB
:1053200067CFF8CF862D867809F474CF8BE261FEC3
:1053300080E267FC8DE2B70190E06ACFB70180E3BD
:1053400090E00E94FA30115065CF8FEF9FEF94CF1D
:1053500024E000E0251508F049CD84E03ACDCDB732
:10536000DEB761970FB6F894DEBF0FBECDBF0E94C7
:10537000D90981EA91E00E9445310E94F41B0E9404
:10538000C41461E083E895E00E946C120E9416212B
:10539000B82E0E9444090E94F41B80EC91E00E9408
:1053A00045310E94F3140E94E1078AED91E00E94CA
:1053B00045310E94C1070E9444080E94E1076CE247
:1053C00075E08AE090E00E946D2364E170E080E582
:1053D00095E00E94282467E170E081E695E00E9454
:1053E00028246AE170E082E795E00E94282482EF99
:1053F00091E00E944531809151058F938091500535
:105400008F93809153058F93809152058F93809154
:1054100055058F93809154058F9303EC13E01F93F0
:105420000F930E942A31809162058F9380916105CC
:105430008F93809164058F93809163058F93809102
:1054400066058F93809165058F931F930F930E943C
:105450002A31809173058F93809172058F9380918B
:1054600075058F93809174058F93809177058F9345
:10547000809176058F931F930F930E942A310FB668
:10548000F894DEBF0FBECDBF8091540590915505B5
:1054900048976CF48091520590915305CC973CF459
:1054A0008091500590915105CC970CF44FC08FE03E
:1054B00092E00E9445310E94A007809151058F9390
:1054C000809150058F93809153058F938091520561
:1054D0008F93809155058F93809154058F9303ECA2
:1054E00013E01F930F930E942A31809162058F93DE
:1054F000809161058F93809164058F9380916305FE
:105500008F93809166058F93809165058F931F938C
:105510000F930E942A31809173058F9380917205B9
:105520008F93809175058F93809174058F938091EF
:1055300077058F93809176058F931F930F930E9429
:105540002A310FB6F894DEBF0FBECDBF80912C0577
:105550001F928F938EE192E09F938F930E942A3146
:105560008BE6E82E86E0F82E8BE780936B0684E4CA
:1055700080936C0680912C051F928F938DE292E0B0
:105580009F938F938DE696E09F938F930E94713146
:105590008C010359194F809151058F9380915005CB
:1055A0008F93809153058F93809152058F938091B3
:1055B00055058F93809154058F9394E3C92E92E003
:1055C000D92EDF92CF921F930F930E947131080F53
:1055D000191F809173058F93809172058F9380912D
:1055E00075058F93809174058F93809177058F93C4
:1055F000809176058F93DF92CF921F930F930E9435
:105600007131080F191F1F92BF9288E094E09F9399
:105610008F931F930F930E947131F801E80FF91FC8
:105620008DE780831182F70101900020E9F78F0157
:105630000C5616400FB6F894DEBF0FBECDBFFF92DA
:10564000EF928EE392E09F938F930E942A31602F16
:10565000C7010E94B1050F900F900F900F9001E0CD
:105660000E9444090E94F41B0E94F3140E94E10767
:105670000E94162183E895E00E94CB13682F8BE6E9
:1056800096E00E946106182F83E895E00E9482123E
:1056900080918305882309F447C083EB95E00E943D
:1056A0005C0E90E09E838D8383EB95E00E94780EE4
:1056B00090E09C838B8383EB95E00E949C0E90E0AE
:1056C0009A83898385EA95E00E94400E90E098874E
:1056D0008F8385EA95E00E94130E90E09A87898770
:1056E00085EA95E00E94F00D9C878B87CE0101969C
:1056F0000E940C160E94E10700932D056FE375E0F0
:1057000083E895E00E94EE24612F8BE696E00E94EC
:10571000B1058EE295E00E9498190E94E1070E946F
:105720005A090E941E0A9CCF80912D058111ECCF51
:105730000E946C070E94E107E7CFE1EAF6E014AAB5
:1057400013AA16AA15AA81E087AB10AE11AE12AE4D
:1057500013AE10926A061092690683E895E00C94E5
:105760005E0A70E060E084EF99E00E94B0309093B0
:10577000E4068093E3060895DB018F939F930E94D4
:10578000282CBF91AF91A29F800D911DA39F900DDA
:10579000B29F900D11240895991B79E004C0991FC0
:1057A000961708F0961B881F7A95C9F7809508957B
:1057B000AA1BBB1B51E107C0AA1FBB1FA617B70737
:1057C00010F0A61BB70B881F991F5A95A9F7809553
:1057D0009095BC01CD01089597FB072E16F4009417
:1057E00007D077FD09D00E94D82B07FC05D03EF4E6
:1057F000909581959F4F0895709561957F4F08957D
:10580000A1E21A2EAA1BBB1BFD010DC0AA1FBB1FC4
:10581000EE1FFF1FA217B307E407F50720F0A21B36
:10582000B30BE40BF50B661F771F881F991F1A94A3
:1058300069F760957095809590959B01AC01BD01CD
:10584000CF010895EE0FFF1F0590F491E02D09940C
:105850000E94482DA59F900DB49F900DA49F800D90
:10586000911D11240895B7FF0C94282C0E94282C18
:10587000821B930B0895689401C0E894F92FF12BD3
:1058800012F00C946F2CA0E0B0E0E9E4FCE20C9480
:10589000E12C092E059422F40E94CB2C112392F4C2
:1058A000F0E80F26FFEFE094F09400951095B09487
:1058B000C094D094A194BF0ACF0ADF0AEF0AFF0A6E
:1058C0000F0B1F0B0E947A2C07FC0E94CB2CCDB72C
:1058D000DEB7ECE00C94FD2C689401C0E8948F9244
:1058E0009F92CF93DF930E947A2CDF91CF919F906C
:1058F0008F90089588249924F401E401B0E49F93E3
:10590000AA279A158B049C04ED05FE05CF05D00748
:10591000A10798F4AD2FDC2FCF2FFE2FE92D982C67
:10592000892E982F872F762F652F542F432F322FB4
:105930002227B85031F7BF9127C01B2EBF91BB273C
:10594000220F331F441F551F661F771F881F991F83
:10595000881C991CEE1FFF1FCC1FDD1FAA1FBB1F39
:105960008A149B04EC05FD05CE05DF05A007B107F1
:1059700048F08A189B08EC09FD09CE09DF09A00B45
:10598000B10B21601A94E1F62EF49401AF01BE012F
:10599000CD01000C08956095709580959095309597
:1059A0004095509521953F4F4F4F5F4F6F4F7F4F21
:1059B0008F4F9F4F08952F923F924F925F926F9219
:1059C0007F928F929F92AF92BF92CF92DF92EF928F
:1059D000FF920F931F93CF93DF93CDB7DEB7CA1B10
:1059E000DB0B0FB6F894DEBF0FBECDBF09942A883B
:1059F000398848885F846E847D848C849B84AA84E3
:105A0000B984C884DF80EE80FD800C811B81AA816F
:105A1000B981CE0FD11D0FB6F894DEBF0FBECDBF3A
:105A2000ED010895002E083090F0982F872F762FE3
:105A3000652F542F432F322F22270850F4CF220FE7
:105A4000331F441F551F661F771F881F991F0A9514
:105A5000B2F7002D089597FD1094002E083098F0AD
:105A60000850232F342F452F562F672F782F892F3B
:105A7000912DF4CF159497958795779567955795C0
:105A80004795379527950A95AAF71124002D089573
:105A9000A29FB001B39FC001A39F700D811D11246F
:105AA000911DB29F700D811D1124911D08955058B4
:105AB000BB27AA270E946F2D0C94C02E0E94B22EE5
:105AC00038F00E94B92E20F039F49F3F19F426F4E3
:105AD0000C94AF2E0EF4E095E7FB0C94A92EE92F61
