:100000000C9413010C94610A0C943B010C943B0179
:100010000C943B010C943B010C943B010C94930910
:100020000C943B010C943B010C943B010C943B0160
:100030000C943B010C943B010C943D010C943B014E
:100040000C943B010C943B010C94E2090C943B0191
:100050000C943B010C943B010C943B010C943B0130
:100060000C94DE1A0C943B016E616E00696E6600A2
:1000700000407A10F35A00A0724E18090010A5D45F
:10008000E80000E87648170000E40B54020000CABC
:100090009A3B000000E1F505000080969800000002
:1000A00040420F000000A086010000001027000061
:1000B0000000E803000000006400000000000A00E7
:1000C000000000000100000000002C76D888DC67EA
:1000D0004F0823DFC1DFAE59E1B1B796E5E3E45342
:1000E000C63AE651997696E8E6C28426EB898C9B5F
:1000F00062ED407C6FFCEFBC9C9F40F2BAA56FA5FF
:10010000F490055A2AF75C936B6CF9676DC11BFC80
:10011000E0E40D47FEF520E6B500D0ED902E03009B
:10012000943577050080841E080000204E0A0000E8
:1001300000C80C333333330F986E12831141EF8DA7
:100140002114893BE65516CFFEE6DB18D1844B38E7
:100150001BF77C1D901DA4BBE424203284725E2218
:100160008100C9F124ECA1E53D274D61696E20496C
:100170006E74766C2054696D653A20004D61696E2D
:1001800020456E642054696D653A20004D61696EAA
:100190002053746172742054696D653A20004D617A
:1001A000696E20496E74766C2054696D653A200042
:1001B0004D61696E20456E642054696D653A20007A
:1001C0004D61696E2053746172742054696D653A93
:1001D00020004D61696E3A205254432054696D6588
:1001E0003A2000506B742067656E3A2025732020FA
:1001F000202564200D0A00446174652F54696D65E3
:100200003A20004C6F636174696F6E3A20004E654E
:10021000787420416464726573733A2025640D0A12
:100220000000EA2BFE2B11241FBECFEFD8E0DEBF6B
:10023000CDBF15E0A0E0B1E0EAE6F7E602C0059028
:100240000D92AC30B107D9F727E0ACE0B5E001C0C2
:100250001D92AE3DB207E1F711E0C3E1D1E004C069
:100260002197FE010E946F2CC131D107C9F70E946E
:10027000482A0C948A330C9400001F921FB61F92D8
:1002800011248F939F93EF93FF93809115058130F5
:1002900019F5909114058FEF890F9130D9F4809161
:1002A00011059091120580FF43C0289A8091110595
:1002B000909112059695879590931205809311055C
:1002C00080911305815080931305811102C0109213
:1002D000150583E08093140580911705811120C0D6
:1002E00080911005882331F180910E058150809313
:1002F0000E05811115C01092100510921605E0919F
:100300001905F0E080910C05E65EFA4F808380913C
:1003100019058F5F80931905803210F0109219052E
:10032000FF91EF919F918F911F901FBE1F90189585
:100330002898BCCF80911605811110C01999F0CF73
:1003400081E08093160510920C0594E090930E05C1
:1003500098E090930D0580930F05E2CF90910E05E4
:100360008FEF890F9130B9F480910F05199B05C06B
:1003700090910C05982B90930C05880F80930F0596
:1003800080910D05815080930D05811103C081E09E
:100390008093100583E080930E05C2CF109215055F
:1003A0001092160510921705289A209A21989FB747
:1003B000F89481E287BD82E084BD85BDEEE6F0E081
:1003C00080818260808316BC9FBF089510921705BC
:1003D000089581E080931705089590911805809104
:1003E00019059817E1F3E92FF0E0E65EFA4F8081F6
:1003F0009F5F903218F49093180508951092180595
:1004000008959091190581E020911805291301C0E4
:1004100080E00895109219051092180508959091A2
:10042000150581E0913009F080E00895909115055F
:100430009130E1F393E0909314059AE090931305C3
:10044000880F990B9260909312058093110581E0BB
:10045000809315050895CF93DF93EC01899188234C
:1004600019F00E941602FACFDF91CF910895CF9331
:10047000DF93EC01FE0184912196882319F00E94FC
:100480001602F8CFDF91CF910895CF93DF93D82F45
:10049000C62F60E083E40E941B098D2F0E94430653
:1004A0008C2F0E944306C82F60E083E40E94F70867
:1004B0008C2FDF91CF91089560E08F770C944502E7
:1004C0008AE10E945C0240913C0550913D0560919B
:1004D0003E0570913F054115514A6C4B734318F02E
:1004E0009DE9891B089594EAFCCF89E10E945C0292
:1004F00085958595089583E10E945C0290913B0566
:10050000891B08950E947B02882341F080913B055E
:100510008F5F80933B0580E00C945C028FEF089521
:100520008EE10E945C0282958F700895CF93DF93D5
:1005300000D000D0CDB7DEB78DE10E945C0290E024
:100540009C0144E0359527954A95E1F7803A91055D
:10055000E0F4F901EE0FFF1FE20FF31FE95FFE4F1A
:1005600080819181A2819C014A2F50E029833A83A6
:100570004B835C8369817A818B819C810F900F9082
:100580000F900F90DF91CF91089580E291EAA7E05C
:10059000B0E089839A83AB83BC83ECCFCF92DF92A8
:1005A000EF92FF920F931F93CF93DF9300D000D071
:1005B00000D0CDB7DEB788E20E945C02877090E081
:1005C000B0E0A0E0CC24D82EE92EFA2E89E20E94D9
:1005D0005C02C80ED11CE11CF11CFE2CED2CDC2CA5
:1005E000CC248AE20E945C02C80ED11CE11CF11CE2
:1005F00088E20E945C0283FF03C088E0E81AF108E9
:100600000E9496028B018E839D83C701B6010E94D2
:10061000BB2E20E030E040E85BE469837A838B8383
:100620009C8369817A818B819C810E94472F20E085
:1006300034E244EF5BE469837A838B839C83698132
:100640007A818B819C810E94112E6B017C01B80103
:100650008E819D810E94B92E20E034E244EF58E45F
:1006600069837A838B839C8369817A818B819C8166
:100670000E94112E9B01AC01C982DA82EB82FC82BE
:1006800069817A818B819C810E94472F69837A835B
:100690008B839C8369817A818B819C810E94832ECC
:1006A00026960FB6F894DEBF0FBECDBFDF91CF9177
:1006B0001F910F91FF90EF90DF90CF900895806889
:1006C0000C94450263E881E80E94450282E10E94A1
:1006D0005C0283FD07C08FE19EE40197F1F700C043
:1006E0000000F4CF68E082E90E94450281E00895AD
:1006F000DF92EF92FF920F931F93CF93DF93F82E29
:10070000E92EC62F82E20E945C02D82F2C2F280FE0
:100710003327331F2F3F310519F010F0CD2FC0952F
:10072000DF2C0F2D1E2D802F8D198C1738F4F8011A
:1007300061918F0180E80E944502F5CF6D2F6C0F0B
:1007400082EA0E9445028C2FDF91CF911F910F9179
:10075000FF90EF90DF900895CF93DF930E947B028C
:10076000882381F08DE00E945C02D82F80E00E94F7
:100770005C02C82F6D2F8DE80E9445028C2FDF91FF
:10078000CF9108958FEFFBCF61E881E80C9445028B
:1007900060E881E80C9445020C94C803682F82310C
:1007A00008F061E1623008F462E06250606889E854
:1007B0000C944502AF92BF92CF92DF92EF92FF92DC
:1007C0000F931F93CF93DF93382F292FCB01A32FA4
:1007D000B22F80933C0590933D05A0933E05B093C6
:1007E0003F059B01AD0160E070E080E090E003E137
:1007F0000E945F2DA12CE8E4BE2EF8EECF2EDD2462
:10080000D394E12CF12C00E010E00E94BB2CC22F0D
:10081000B32E6A017B01182FD92F00E10E947A2D97
:10082000622F86E80E9445022C2F3B2DA601B701BE
:10083000812F9D2F08E00E947A2D622F87E80E9469
:1008400045026C2F88E8DF91CF911F910F91FF90A7
:10085000EF90DF90CF90BF90AF900C9445020F9334
:100860001F93CF93DF938B01D82FC92F60E083E4D0
:100870000E94D30860E083E40E94F70861E083E40B
:100880000E94D30861E083E40E941B098FE19EE48B
:100890000197F1F700C0000061E083E40E94F708CF
:1008A0008FE19EE40197F1F700C0000082E40E940E
:1008B0005C02823131F50E94C803B8018D2F9C2F54
:1008C0000E94DA0360E08EE80E94450260E08FE853
:1008D0000E9445028CE00E945C02682F63608CE8F5
:1008E0000E94450264E086EA0E94450284E10E947B
:1008F000CE030E94C40381E0DF91CF911F910F913D
:10090000089580E0F9CFCF93C82F893008F0C8E070
:100910008DE10E945C026C2FC53008F465E06450E4
:10092000770B660F771F817F682B8DE9CF910C9431
:100930004502CF93C82F692F80EA0E9445026C2F91
:1009400081EACF910C944502682F89EB0C94450203
:100950008EE10E945C02682F64608EE90C9445026F
:100960008EE10E945C02682F6B7F8EE90C94450239
:1009700010923A058DE10E945C02682F6E7F8DE92E
:100980000C94450281E080933A058DE10E945C025F
:10099000682F61608DE90C944502CF93C82F0E94A7
:1009A000C403CC2369F00E94C20460E08DE80E9479
:1009B000450260E082EA0E94450281E0CF910895FD
:1009C0000E94B804F2CFCF93DF93D82F82E10E9428
:1009D0005C02C82FDD2329F10E94C2046D2F82EA38
:1009E0000E9445026C2F82E90E944502C6FF1EC08C
:1009F000C5FD1CC010923B0580913A058823A1F0EB
:100A000082E20E945C02C82F80E10E945C02682F93
:100A10008DE80E9445020E94C4038C2FDF91CF9184
:100A200008950E94B804DECF83E1EBCF81E00E94FD
:100A30005C02863841F060E08DE80E94450266E87D
:100A400081E80E944502C0E0E8CFCF93DF93EC013C
:100A50001816190664F40E94C2046C2F82EA0E94E0
:100A6000450265E881E8DF91CF910C9445020E9430
:100A7000B804F7CFCF92DF92EF92FF92CF93DF933C
:100A80000E9496026B017C010E949002D82F86E2A0
:100A90000E945C02C82FA701960104C05695479595
:100AA00037952795DA95D2F768EE73E080E090E00D
:100AB0000E944D2C6C2F213131054105510550F01C
:100AC000686086EADF91CF91FF90EF90DF90CF9042
:100AD0000C944502677FF5CFCF93C82F863020F066
:100AE0008D30D0F48630C9F465EC81EB0E9445026C
:100AF0006CE087EB0E944502C6E08EE10E945C023A
:100B00008F7090E1C99FB0011124682B8EE90E947B
:100B10004502CF910C943A05CCE063EC81EB0E9446
:100B200045026AE087EB0E944502E7CFCF93462F4C
:100B3000572FBC01C0E049378EE1580761057105A8
:100B4000C8F1C1E0413A98E259076105710590F199
:100B5000C2E0413F8CE358076105710558F1C3E0DD
:100B6000413491E559076105710520F1C4E0433135
:100B70008AE7580761057105E8F0C5E0453E92EA4D
:100B8000590761057105B0F0C6E0453284EF58079A
:100B90006105710578F0C7E0493498EE590791E096
:100BA0006907710538F0C9E04139504D634071055E
:100BB00008F4C8E08DE10E945C028F7090E1C99F4B
:100BC000B0011124682B8DE90E944502CF910C944D
:100BD0003A050F9362E082E40E94D30862E082E467
:100BE0000E941B0900E020E040E061E080E00E94FC
:100BF000240660EC7AEC89E896E30E942F048111C8
:100C000005C085E491E00E949231FFCF62E17AE76E
:100C100080E090E00F910C9496051F93CF93DF93A3
:100C2000D82FC92F162F0E94E90580E00E94CD041D
:100C3000612F8D2F9C2F0E9478030E946203DF9109
:100C4000CF911F910C94C8030F9394B1986294B9FB
:100C500024982C9A30E2839FC00111248072237063
:100C6000822B94E0499FA00111244C70842B30E129
:100C7000639FB00111246071862B80648CBD01706C
:100C80000DBD0F9108958EBD0DB407FEFDCF8EB53D
:100C90000895BF92CF92DF92EF92FF920F931F932E
:100CA000CF93DF93EC01BB24B39488E8C82E83E193
:100CB000D82EE12CF12C02E310E08DA99EA92BA9DE
:100CC0003CA928173907B9F12CAD222321F0213096
:100CD000B1F01CAE0BC08C0F9D1FFC0181818B37C6
:100CE00029F4BCAEC8AED9AEEAAEFBAE8DA99EA9C2
:100CF0000196B8010E94392C9EAB8DABDECF8C0FD4
:100D00009D1FFC01618189E496E06D3739F40E94F2
:100D1000552189E496E00E94D81CDBCF0E94552122
:100D20008111D7CF88AD99ADAAADBBAD892B8A2BE8
:100D30008B2B79F2DBCFDF91CF911F910F91FF9039
:100D4000EF90DF90CF90BF900895FC0187A9882392
:100D500079F080AD91ADA2ADB3AD0097A105B1051D
:100D600039F00197A109B10980AF91AFA2AFB3AF3C
:100D700008958F929F92BF92CF92DF92EF92FF924F
:100D80000F931F93CF93DF938C01F62E0E94702157
:100D9000B82EE801229680919705882309F483C034
:100DA0008BE7F801808383E48183809140051F9263
:100DB0008F9327E3C22E24E0D22EDF92CF92DF93CF
:100DC000CF930E94BE31C80FD91F3CE2E32EE992B7
:100DD000BE0187E995E00E94A00DFC01E192BF01F0
:100DE00087E995E00E94BF0DFC01E192BF0187E910
:100DF00095E00E94A114EC01E99210920006809106
:100E000008068F93809107068F93809106068F9333
:100E1000809105068F938CE591E09F938F93DF93EC
:100E2000CF930E94BE31C80FD91FE992809154051B
:100E30008F93809153058F93809156058F93809166
:100E400055058F93809158058F93809157058F9307
:100E500080E691E09F938F93DF93CF930E94BE3102
:100E6000C80FD91FE9921F92BF92DF92CF92DF93F2
:100E7000CF930E94BE31C80FD91FFE01E192CF016E
:100E80002DB73EB7225E3F4F0FB6F8943EBF0FBE60
:100E90002DBF249632E069E671E0F31609F44AC0EA
:100EA0006DE671E047C08BE7F801808383E48183BE
:100EB000809140051F928F9387E3882E84E0982EBF
:100EC0009F928F92DF93CF930E94BE31C80FD91F9C
:100ED0009CE2E92EFE01E192CF0161E771E00E9400
:100EE000C730EF828DE28887E9868A87EB868C8718
:100EF0006E01FEE0CF0ED11CED861F92BF929F9235
:100F00008F92DF92CF920E94BE31E601C80FD91FA7
:100F1000FE01E192CF012DB73EB7245F3F4F0FB6E0
:100F2000F8943EBF0FBE2DBF249631E068E771E014
:100F3000F312B6CF0E94C7308DE788831982E8018B
:100F400009900020E9F72197C01BD10BDF93CF93C5
:100F50001F930F9383EE91E09F938F930E947731BD
:100F60000F900F900F900F900F900F90CE01DF9188
:100F7000CF911F910F91FF90EF90DF90CF90BF9096
:100F80009F908F900895CF93DF93CDB7DEB7619791
:100F90000FB6F894DEBF0FBECDBFE2E4F5E086A148
:100FA00097A19E838D8384A195A19C838B8382A12D
:100FB00093A19A8389838EE090E098878F8381E064
:100FC00090E09A87898786E190E09C878B87CE01A5
:100FD00001960E94421681E08093410561960FB60A
:100FE000F894DEBF0FBECDBFDF91CF910895E2E44C
:100FF000F5E089E090E097A386A315A214A213A2BE
:1010000012A210928B0510928A058AE090E09093CC
:10101000890580938805109287051092860582E1E4
:1010200090E090AF87AB16AA15AA14AA13AA089548
:1010300043E555E065E575E087E595E00E94E31539
:1010400082ED91E09F938F930E947731E2E4F5E087
:1010500082898F9381898F9384898F9383898F93DA
:1010600086898F9385898F9384ED94E09F938F93E6
:101070000E9477318DB79EB70A960FB6F8949EBF3F
:101080000FBE8DBF089585EB96E00E94A506809166
:10109000B1069091B206A091B306B091B406009744
:1010A000A105B10559F00197A109B1098093B106D5
:1010B0009093B206A093B306B093B40687E995E087
:1010C0000C948A14282F8093B5068091E80690919D
:1010D000E906FC01EB54F94F218301968233910517
:1010E0002CF49093E9068093E80608951092E9069F
:1010F0001092E80608950E94E90580E395E7A0E0D4
:10110000B0E08093B1069093B206A093B306B0937B
:10111000B4068091B1069091B206A091B306B09149
:10112000B406892B8A2B8B2BB1F080E00E94E3045C
:10113000882379F30E947B02882329F00E9482028F
:101140000E946208F7CF85EB96E00E9449068091E5
:1011500041058823F1F20895833479F08434C1F095
:10116000823401F524B181E090E001C0880F6A95D6
:10117000EAF78095822384B9089527B181E090E051
:1011800001C0880F6A95EAF78095822387B9089590
:101190002AB181E090E001C0880F6A95EAF7809556
:1011A00082238AB90895833471F08434B1F0823493
:1011B000E9F484B121E030E001C0220F6A95EAF73A
:1011C000822B84B9089587B121E030E001C0220F5D
:1011D0006A95EAF7822B87B908958AB121E030E059
:1011E00001C0220F6A95EAF7822B8AB908958334E9
:1011F00071F08434B1F08234E9F485B121E030E05B
:1012000001C0220F6A95EAF7822B85B9089588B14B
:1012100021E030E001C0220F6A95EAF7822B88B9FD
:1012200008958BB121E030E001C0220F6A95EAF702
:10123000822B8BB90895833479F08434C1F08234E1
:1012400001F525B181E090E001C0880F6A95EAF7C9
:101250008095822385B9089528B181E090E001C08E
:10126000880F6A95EAF78095822388B908952BB193
:1012700081E090E001C0880F6A95EAF780958223AB
:101280008BB90895442319F0413019F008950C9456
:101290001B090C94F7088334B1F08434B1F0823424
:1012A000B1F423B181E090E0062E02C0880F991FAF
:1012B0000A94E2F730E08223932302C09595879544
:1012C0006A95E2F7089526B1EDCF29B1EBCF81E021
:1012D00008950895E1E8F0E08081826080830895B8
:1012E00010928100089580918400909185009695D8
:1012F000879508951092B200E0EBF0E08081826063
:1013000080838EE38093B30017BAE0E7F0E080813A
:1013100082608083E1EBF0E08081856080830895C6
:101320001092B10008951F920F920FB60F921124E0
:101330002F933F934F935F936F937F938F939F93DD
:10134000AF93BF93EF93FF930E94430817BA809126
:10135000F3069091F406A091F506B091F606019679
:10136000A11DB11D8093F3069093F406A093F5069A
:10137000B093F606FF91EF91BF91AF919F918F913E
:101380007F916F915F914F913F912F910F900FBE81
:101390000F901F901895CF93DF9300D000D0CDB75A
:1013A000DEB78091F3069091F406A091F506B09116
:1013B000F606BC01CD010F900F900F900F90DF91BA
:1013C000CF9108951F920F920FB60F9211242F9371
:1013D0003F934F935F936F937F938F939F93AF93BD
:1013E000BF93EF93FF938091C6008093F2068091A4
:1013F000F2060E94620882E08093C000FF91EF91A4
:10140000BF91AF919F918F917F916F915F914F911C
:101410003F912F910F900FBE0F901F9018958091C4
:10142000F7069091F8069093D7078093D60783E349
:101430008093C4001092C50088E98093C10082E0C7
:101440008093C00008959091C00095FFFCCF8093D9
:10145000C600089590910001992329F00E94230A63
:1014600090E080E0089581E090E00895EF92FF928F
:101470000F931F93CF93DF93EB018C01F12CE12CA1
:10148000EC16FD064CF4F80181918F010E94230AAD
:10149000FFEFEF1AFF0AF4CFCE01DF91CF911F913A
:1014A0000F91FF90EF90089583B7816083BF83B75A
:1014B000817F846083BF7894889583B78E7F83BF54
:1014C0000895E09A18950F931F93CF93DF93EC0143
:1014D0008B010E947309998388830A831B83DF91A0
:1014E000CF911F910F910895CF93DF93EC010E944C
:1014F00073099C014A815B8181E04115510561F0CE
:10150000888199818217930750F4281B390B81E059
:101510002417350708F480E0DF91CF910895281B48
:10152000390B21503048F3CFFC0110821182138215
:1015300012821482158216821782108612861186F4
:1015400013861486158616861786118A108A128AC3
:10155000138A148A158A168A108E178A118E128E93
:10156000138E148E158E12A213A214A215A216A207
:1015700017A210AA11AA12AA13AA14AA15AA16AE83
:1015800017AEDC01DE9616961D921D921D921C92DE
:1015900019971E961C9211961C92119716961D92E1
:1015A0001D921D921C9219971E961C9211961C92C8
:1015B000119716961D921D921D921C9219971E96B8
:1015C0001C9211961C92119716961D921D921D92B7
:1015D0001C9219971E961C9211961C9211971696A2
:1015E0001D921D921D921C9219971E961C92119687
:1015F0001C9211961C92509682E08C9311961C922C
:1016000011961C9211961C92119611961C921E9284
:10161000129611961C921E9212961D921D921D9268
:101620001C92139714961D921D921D921C92139753
:1016300014961D921D921D921C92139714961D9242
:101640001D921D921C92139714961D921D921D922D
:101650001C921397E957FF4F10820895862F062E8C
:10166000000C990B2FEB260F263010F4C797089526
:101670006156663018F4875591090895C09708950A
:101680001F93CF93DF9300D000D000D0CDB7DEB74B
:101690008D839E83AD81BE811C911D3219F41196FC
:1016A000BE83AD838D819E810E94B42F69837A832E
:1016B0008B839C83A4E6B0E09B01AC010E94752C57
:1016C000AB01BC01ED81FE81FA83E983E981FA81F6
:1016D000DF012D91BA83A983822F022E000C990B72
:1016E000C0970A9798F32E3231F58181082E000CAD
:1016F000990BC0978A309105F0F4AAE0A89F900159
:10170000A99F300D1124C901330FAA0BBB0B480F41
:10171000591F6A1F7B1F8281082E000C990BC097EE
:101720008A30910540F4092E000CAA0BBB0B480F20
:10173000591F6A1F7B1F1D3239F4709560955095B3
:1017400041955F4F6F4F7F4FCB01BA0126960FB681
:10175000F894DEBF0FBECDBFDF91CF911F910895EA
:101760008F929F92AF92BF92EF92FF920F931F932F
:10177000CF93DF93CDB7DEB72D970FB6F894DEBFCA
:101780000FBECDBF8D8799878B010E94B42F24E6B1
:1017900030E040E050E00E944D2C490169837A839B
:1017A0008B839C839B01AC0160E876E988E990E03B
:1017B0000E94092C6D837E838F839887D8018D9238
:1017C0009C92ED85F9852191822F022E000C990BB8
:1017D000C0970A97C0F32E32E9F57F0120E836E979
:1017E00048E950E029833A834B835C838AE0882E62
:1017F000912CA12CB12CD701ED917D012E2F022E21
:10180000000C330B205331093A8729872A303105E0
:1018100008F569817A818B819C81A50194010E94E0
:101820004D2C29833A834B835C83A985BA850E941A
:10183000802C69877A878B879C872D813E814F8199
:101840005885260F371F481F591F2D833E834F830E
:101850005887D1CFA5E0B0E02D813E814F815885DA
:101860000E94752CDC01CB010196A11DB11DBC01AC
:10187000CD0123E030E040E050E00E944D2CD80143
:1018800012962D933D934D935C93159716961C924B
:101890002D960FB6F894DEBF0FBECDBFDF91CF916E
:1018A0001F910F91FF90EF90BF90AF909F908F90FE
:1018B0000895CF93DF9300D000D0CDB7DEB720E0FE
:1018C00030E044E351E469837A838B839C836981AC
:1018D0007A818B819C810E94A52D20E030E044EB31
:1018E00051E469837A838B839C8369817A818B81BC
:1018F0009C810E94112E69837A838B839C836981EA
:101900007A818B819C810E94832E69837A838B8369
:101910009C8389819A8160E170E00E94392CFC01EE
:10192000EE0FFF1FEB5DFE4F808191810F900F90B6
:101930000F900F90DF91CF910895CF93DF93EC013B
:1019400087E0FE017096DE01129601900D928A9555
:10195000E1F787E0FE017796DE01199601900D927E
:101960008A95E1F70E94CB096E8F7F8F88A399A398
:1019700081E089838883DF91CF9108959B01BC0129
:10198000605F7F4FC9010C94B00B9B01BC01695E85
:101990007F4FC9010C94B00BEF92FF920F931F93EE
:1019A000CF93DF9300D000D000D0CDB7DEB78D83CA
:1019B0009E83AD81BE8111961C92119714966D91F4
:1019C0007D918D919C9117970E94B92E28E23BE65C
:1019D0004EE65EE469837A838B839C8369817A8196
:1019E0008B819C810E94112E7B018C01ED81FE81F7
:1019F000828193819C0150E040E029833A834B83AC
:101A00005C83CA01B9010E94B92E9B01AC01E98235
:101A1000FA820B831C8369817A818B819C810E946D
:101A2000A52D462F572FBC0149835A836B837C8396
:101A3000AD81BE8118968C91882339F09A01AB0153
:101A4000505829833A834B835C8369817A818B81E7
:101A50009C8126960FB6F894DEBF0FBECDBFDF91F6
:101A6000CF911F910F91FF90EF900895EF92FF9209
:101A70000F931F93CF93DF9300D000D000D0CDB74A
:101A8000DEB78D839E83AD81BE8111961C92119726
:101A90001B966D917D918D919C911E970E94B92E00
:101AA00028E23BE64EE65EE469837A838B839C837F
:101AB00069817A818B819C810E94112E7B018C012E
:101AC000ED81FE81818592859C0150E040E0298373
:101AD0003A834B835C83CA01B9010E94B92E9B01F2
:101AE000AC01E982FA820B831C8369817A818B8144
:101AF0009C810E94A52D462F572FBC0149835A83F4
:101B00006B837C83AD81BE811F968C91882339F0D5
:101B10009A01AB01505829833A834B835C836981D6
:101B20007A818B819C8126960FB6F894DEBF0FBE1A
:101B3000CDBFDF91CF911F910F91FF90EF9008954E
:101B4000CF93DF93EB010E94CC0C9F938F937F93F5
:101B50006F9383E292E09F938F93DF93CF930E94E2
:101B6000BE312DB73EB7285F3F4F0FB6F8943EBF4A
:101B70000FBE2DBF8C0F9D1FDF91CF910895CF9386
:101B8000DF93EB010E94360D9F938F937F936F93AA
:101B900083E292E09F938F93DF93CF930E94BE31B5
:101BA0002DB73EB7285F3F4F0FB6F8943EBF0FBE2C
:101BB0002DBF8C0F9D1FDF91CF910895CF93DF93A1
:101BC000EC018E819F81A885B9858A839B83AC8334
:101BD000BD830E94CB096A877B878C879D8781E0C4
:101BE00089838883DF91CF910895CF93DF93EC01B0
:101BF0008E819F81A885B9858A839B83AC83BD83B1
:101C00000E94CB096A877B878C879D8781E08983C7
:101C10008883DF91CF910895CF93DF93EC01CB01BF
:101C20000E94400B6E837F8388879987DF91CF91D5
:101C30000895CF93DF93EC01CB010E94B42F6E8304
:101C40007F8388879987DF91CF910895CF93DF9322
:101C500000D000D0CDB7DEB7FC0111828281938124
:101C6000A481B581BC01CD0124E630E040E050E024
:101C70000E944D2C69837A838B839C8389819A810E
:101C80008053984F0F900F900F900F90DF91CF914E
:101C90000895CF92DF92EF92FF92CF93DF9300D01F
:101CA00000D0CDB7DEB7FC01118282819381A4817F
:101CB000B58124E6C22ED12CE12CF12CBC01CD0142
:101CC000A70196010E944D2CCA01B901A7019601F6
:101CD0000E944D2C862F0F900F900F900F90DF9148
:101CE000CF91FF90EF90DF90CF900895CF93DF9347
:101CF00000D000D0CDB7DEB7FC0111828281938184
:101D0000A481B581BC01CD0120E137E240E050E083
:101D10000E944D2C822F0F900F900F900F90DF910B
:101D2000CF910895CF93DF9300D000D0CDB7DEB729
:101D3000FC01118282819381A481B581BC01CD0116
:101D400020E432E44FE050E00E944D2C822F0F90AF
:101D50000F900F900F90DF91CF910895CF93DF9365
:101D600000D000D0CDB7DEB7FC0111828281938113
:101D7000A481B581BC01CD0120E137E240E050E013
:101D80000E944D2CCA01B90124E630E040E050E049
:101D90000E944D2C862F0F900F900F900F90DF9187
:101DA000CF910895CF92DF92EF92FF92CF93DF937E
:101DB00000D000D0CDB7DEB7FC01118282819381C3
:101DC000A481B58124E6C22ED12CE12CF12CBC01DA
:101DD000CD01A70196010E944D2CCA01B901A701AE
:101DE00096010E944D2C862F0F900F900F900F9010
:101DF000DF91CF91FF90EF90DF90CF900895CF9338
:101E0000DF9300D000D0CDB7DEB7FC011182828114
:101E10009381A481B581BC01CD0124E630E040E08E
:101E200050E00E944D2C862F0F900F900F900F9036
:101E3000DF91CF910895CF93DF93EC018A859B8545
:101E4000AC85BD858E839F83A887B9870E94CB0907
:101E50006A837B838C839D8381E089838883DF9180
:101E6000CF910895CF93DF93EC01CB010E94400BFB
:101E70006A877B878C879D87DF91CF910895CF9369
:101E8000DF93EC018A859B85AC85BD858E839F831E
:101E9000A887B9870E94CB096A837B838C839D8343
:101EA00081E089838883DF91CF910895CF93DF9379
:101EB000EC01CB010E94B42F6A877B878C879D87BA
:101EC000DF91CF910895CF93DF93EC01BC01409651
:101ED0000E94C7300E94CB0968A379A38AA39BA361
:101EE00081E08DA38CA3DF91CF91089540E150E074
:101EF0000C94CE30AF92BF92DF92EF92FF920F938D
:101F00001F93CF93DF93EC01FC01EA57FF4FD08082
:101F1000DD2009F4A0C0319660810E942E0B182F9D
:101F2000FE01E857FF4F6081CE010E942E0B1295F3
:101F3000107F180FFE01EB57FF4F8081811372C095
:101F4000B59680819181A281B3810196A11DB11DB9
:101F500080839183A283B3838E0107561F4FD801DC
:101F60008C91882361F0389780819181A281B3811F
:101F70000196A11DB11D80839183A283B383FE01CD
:101F8000EA56FF4F80818823A1F18130C1F4CE0150
:101F900082960E94DE0DCE01C0960E94F50DF801DA
:101FA0008081882361F0CE010E949D0CCE01CE96E7
:101FB0000E941B0FCE01845B9F4F0E941B0F8E015E
:101FC00004561F4FF801C081D1812097C9F1D80173
:101FD000ED91FC9166A177A18EA19FA10E94BE30D8
:101FE000892B71F5CE010E94630F0AA4DBA5C02DD9
:101FF000ECCFCE01C0960E94F50DD8018C918823BC
:1020000041F0CE010E949D0CCE01865A9F4F0E9446
:102010001B0FCE0188599F4F0E943F0FCE018A5857
:102020009F4FCBCFCA55DF4F88819981AA81BB8151
:102030000196A11DB11D88839983AA83BB83D12CEE
:102040008D2DDF91CF911F910F91FF90EF90DF9039
:10205000BF90AF9008957C01B7E9EB0EF11CF7013A
:1020600030818A569F4F5C018E0104561F4F3111FB
:102070003EC07E0197E8E90EF11C68E272E0C701FC
:102080000E94BE30892B39F06EE272E0C7010E94D7
:10209000BE30892B21F481E0D5018C9310C064E31C
:1020A00072E0C7010E94BE30892B39F06AE372E00A
:1020B000C7010E94BE30892BC1F4F5011082C656BB
:1020C000DF4F88819981F80191838083C081D1811C
:1020D000209709F4B5CFB7018EA19FA10E94BE3011
:1020E00097FF98C08AA59BA5EECF82E0D5CFDC01F3
:1020F000EC91E230C9F0CE0189579F4FDC012C9161
:10210000222391F0B0E2EB9FF0011124E32B3197F1
:10211000E932F10548F4E457FC4C0C946F2CBC01F7
:10212000CE01C0960E940C0EF801A080B180C95764
:10213000DF4FA114B10409F483CFD801ED91FC91D4
:1021400066A177A1F50186A197A10E94BE30892BD7
:1021500009F076CFD50198968D919C91F701208159
:10216000422F50E0281719060CF46ACF8417950700
:1021700021F4BE01C5010E94760FD5019A96AD905B
:10218000BC90D7CFFE01E756FF4F81E0213479F1B3
:1021900080E02DC0BE01605F7F4F0E94B00BC4CFB6
:1021A00081E0233509F080E08E8BBECFBE01695EF1
:1021B0007F4FF3CF81E0273509F080E08D8FB4CFDA
:1021C000BC01CE01CE960E94320FAECFBC01CE0133
:1021D000845B9F4FF8CFBC01CE0182960E94190EFE
:1021E000A3CFFE01E756FF4F81E021338CF28083BD
:1021F0009BCFBC01CE0188599F4F0E94560F94CFB0
:10220000BC01CE018A589F4FDECFBC01CE01865A59
:102210009F4FD9CF892B09F413CFD8011D921C925F
:102220000FCFCF92DF92EF92FF921F93CF93DF9366
:10223000EC01162FFC01E256FF4F80819181A281B3
:10224000B3810196A11DB11D80839183A283B383C5
:10225000CE0188569F4F6C01DE01AA57BF4F7D010A
:10226000643209F449C0DCF46A3019F16D3009F1C7
:10227000D601EC91EE3048F481E08E0F8C93EC0F98
:10228000FD2FF11DE957FF4F1083F7018081811168
:1022900042C0CB57DF4F68811627188325C06A32AA
:1022A00041F06C3229F7FE01EB57FF4F8081862702
:1022B0008083D601EC9180E0EF3048F4EC0FFD2FE5
:1022C000F11DE957FF4F1082CE010E947A0FC956C7
:1022D000DF4F98819F5F9883F601108291E01A3258
:1022E00009F090E0D7019C93DF91CF911F91FF906F
:1022F000EF90DF90CF900895FC011082FE01E95627
:10230000FF4F108272971082719682E080831C9238
:10231000C756DF4F188280E0E7CFAF92BF92CF92CF
:10232000DF92EF92FF920F931F93CF93DF937B0186
:10233000B42EA52E69018C0106561F4FF801C081ED
:10234000D1812097B1F06EA17FA18B2D9A2D0E9493
:10235000BE3097FD0EC0892B29F488A599A5C81613
:10236000D9063CF08E01065D1F4F0AA4DBA5C02DE7
:10237000E8CFF701D3A7C2A7F801F182E082DF918D
:10238000CF911F910F91FF90EF90DF90CF90BF9072
:10239000AF900895CF93DF93FC01DB0110A211A24F
:1023A00012A213A214A215A246A357A320A731A7D5
:1023B00090E1EF01892F19928A95E9F7BF01605FDB
:1023C0007F4FEB0119929A95E9F7BF01CD01DF919B
:1023D000CF910C948D110C94CA112FEF82E597E0E8
:1023E000215080409040E1F700C0000040E064E0F0
:1023F00084E40E9442092FEB8AED90E02150804056
:102400009040E1F700C0000041E064E084E40E94F5
:1024100042092FEB8AED90E0215080409040E1F797
:1024200000C0000040E064E084E40E9442092FEB19
:102430008AED90E0215080409040E1F700C000001C
:1024400008951F93CF93DF93EC01C255DF4F8CEDBE
:1024500095E0A0E0B0E088839983AA83BB8389EDEF
:1024600091E00E94923110E088819981AA81BB811C
:10247000892B8A2B8B2B79F00E9401028823A1F3F0
:102480000E94ED01882381F3082E000C990B0E9415
:102490008B311F5FE9CF89ED91E00E949231812F4E
:1024A000110F990BDF91CF911F9108950F931F93F7
:1024B000CF93DF93EC0106E010E0CE010E94ED1116
:1024C000CE010E942112892B51F080E492E00E94FB
:1024D000923181E0DF91CF911F910F9108950150CA
:1024E000110959F780E0F6CF0F931F93CF93DF9335
:1024F000EC0106E010E0CE010E94ED11CE010E9439
:102500002112892B51F488E492E00E94923181E0FB
:10251000DF91CF911F910F9108950150110959F743
:1025200080E0F6CF40E064E084E40C94420941E0AE
:1025300064E084E40C9442090E94CE010E94E6010A
:10254000789408951F93CF93DF93EC01162F0E9488
:102550009C1264E084E40E94F70864E084E40E9432
:10256000D308CC57DF4F1883DF91CF911F91089587
:10257000EF92FF920F931F93CF93DF9300D000D081
:1025800000D0CDB7DEB78D839E8383E092E09F932A
:102590008F930E9477310F900F90AD81BE818C9107
:1025A000882309F41FC1CD010E94360D162F072F75
:1025B000F82EE92E8D819E810E94CC0CEF92FF9225
:1025C0000F931F939F938F937F936F9383E592E075
:1025D0009F938F930E9477310FB6F894DEBF0FBEA2
:1025E000CDBF87EF91E09F938F930E9477310F903B
:1025F0000F90AD81BE8192968C919297882309F4B9
:10260000F6C07D01B2E2EB0EF11CC7010E94260E5E
:10261000182F092FC7010E94490EED81FE8113A2D8
:102620000F931F931F928F93AD81BE8194968D91CE
:102630009D910D90BC91A02D89839A83AB83BC831F
:10264000BC01CD0120E137E240E050E00E944D2C7A
:102650001F922F9387E692E09F938F930E9477318A
:102660000FB6F894DEBF0FBECDBFAD81BE81D09650
:102670008C91D097882309F4BFC08D01005D1F4F56
:10268000D1961C92D197D2968D919D910D90BC912F
:10269000A02D89839A83AB83BC83BC01CD0120E448
:1026A00032E44FE050E00E944D2C2A3020F480E3C9
:1026B00090E00E948B31ED81FE8111AA82A993A93D
:1026C000A4A9B5A989839A83AB83BC83BC01CD013E
:1026D00020E432E44FE050E00E944D2C1F922F93F3
:1026E00084E892E09F938F930E947731C8010E9403
:1026F000AE0E0F900F900F900F908A3020F480E371
:1027000090E00E948B31C8010E94AE0E1F928F9301
:1027100084E892E09F938F930E947731C8010E94D2
:10272000D20E0F900F900F900F908A3020F480E31C
:1027300090E00E948B31C8010E94D20E1F928F93AD
:1027400087E394E09F938F930E947731ED81FE8120
:1027500011AA82A993A9A4A9B5A989839A83AB8355
:10276000BC83BC01CD0124E630E040E050E00E9493
:102770004D2C0F900F900F900F906A3020F480E353
:1027800090E00E948B31ED81FE8111AA82A993A96C
:10279000A4A9B5A989839A83AB83BC83BC01CD016D
:1027A00024E630E040E050E00E944D2C7F936F9390
:1027B0008BE293E09F938F930E9477310F900F905D
:1027C0000F900F9089ED91E026960FB6F894DEBF3A
:1027D0000FBECDBFDF91CF911F910F91FF90EF9072
:1027E0000C9492318EE592E00E949231FACE8AE703
:1027F00092E00E94923139CF8EE592E00E949231B0
:10280000E1CF9F92AF92BF92CF92DF92EF92FF9271
:102810000F931F93CF93DF93EC010E9492121882C3
:10282000FE01E259FF4F10821182128213828E0143
:1028300008591F4FF80110825E01FEEAAF0EB11C6D
:1028400080E69AEEA0E0B0E0F50180839183A28358
:10285000B38380E6C82E8AEED82EE12CF12C992481
:102860009394F50180819181A281B381892B8A2B78
:102870008B2B09F44DC00E940102882331F00E9485
:10288000ED01682FCE010E941111F5018081918127
:10289000A281B3818C159D05AE05BF0560F499201A
:1028A00051F0CE010E94B812F0EDCF1AF7E0DF0A26
:1028B000E108F108912CF50180819181A281B38119
:1028C000C816D906EA06FB0610F499249394888169
:1028D000882339F2F8018081882319F211828681D8
:1028E0009781A085B1850397A105B10508F4B9CFFB
:1028F000CE010E94971280E0DF91CF911F910F913E
:10290000FF90EF90DF90CF90BF90AF909F90089591
:102910001882EECFFC01E255FF4F80819181A281A8
:10292000B381892B8A2B8B2B59F080819181A281D5
:10293000B3810197A109B10980839183A283B383F5
:102940000895CF93DF93EB01FC01EA58FF4F11820A
:1029500066817781808591850E94BB2E9F938F939E
:102960007F936F938AE892E09F938F93DF93CF9347
:102970000E94BE312DB73EB7285F3F4F0FB6F89487
:102980003EBF0FBE2DBF8C0F9D1FDF91CF910895CD
:102990006AE00E94192C8295807F890F0895982FF4
:1029A00092959F708F702AE0929F800D1124089558
:1029B000CF93C82F88E60E944D1C8C2F0E94671C65
:1029C0000E94571C61E088E60E94401CCF910C9445
:1029D000BC1CCF93DF93C82FD62F88E60E944D1CD6
:1029E0008D2F0E94671C8C2F0E94671CDF91CF9156
:1029F0000C94571CCF93DF9381E10E94D814D82FF9
:102A000082E10E94D814C82F61E18EEE0E94E91481
:102A100062E18DED0E94E91481E10E94D8148E3E9E
:102A200091F482E10E94D8148D3D69F481E0809395
:102A30000B0761E18D2F0E94E91462E18C2FDF9179
:102A4000CF910C94E91481E080930A07DF91CF9134
:102A5000089562E084E40E94AC0862E084E40E948D
:102A6000F708E9E6F0E0808182608083E89A789454
:102A7000089580910B07089580910A07089581E0D9
:102A800080930B0710920A07089510920B0781E0BC
:102A900080930A070895EF92FF920F931F93CF93AD
:102AA000DF93CDB7DEB729970FB6F894DEBF0FBE20
:102AB000CDBF88E60E944D1C80E00E94671C0E94EA
:102AC000571C67E088E60E94401C8E010F5F1F4F75
:102AD0007E0188E0E80EF11C0E94BC1CF801819385
:102AE0008F01EE15FF05C1F70E94571C89818F7772
:102AF0000E94CF1490E09093FA068093F9068A81A1
:102B00000E94CF1490E09093FC068093FB068B818B
:102B10000E94CF14082F10E01093FE060093FD06CC
:102B20008D810E94CF1490E0909300078093FF0660
:102B3000FE808F2D8F710E94CF1490E0909302073A
:102B4000809301078F810E94CF1490E0F7FE27C089
:102B50008053984F90930407809303078C810E94C1
:102B6000CF1490E090930607809305070115110597
:102B7000C9F4109209071092080781E080930707B3
:102B800089EF96E029960FB6F894DEBF0FBECDBF51
:102B9000DF91CF911F910F91FF90EF90089584598D
:102BA000984FD8CF0C3011052CF4109309070093DF
:102BB0000807E3CF0C501109109309070093080789
:102BC00010920707DDCF8F929F92AF92BF92CF9264
:102BD000DF92EF92FF920F931F93CF93DF93CDB7C6
:102BE000DEB729970FB6F894DEBF0FBECDBF8C01BC
:102BF0007B016A0188E60E944D1C80E00E94671CF0
:102C00000E94571C67E088E60E94401CCE01019696
:102C10005C014E0198E0890E911C0E94BC1CF501DC
:102C200081935F018E169F06C1F70E94571CC11445
:102C3000D10429F089810E94CF14F6018083E11428
:102C4000F10429F08A810E94CF14F70180830115D5
:102C5000110529F08B810E94CF14F80180832996F9
:102C60000FB6F894DEBF0FBECDBFDF91CF911F919D
:102C70000F91FF90EF90DF90CF90BF90AF909F901B
:102C80008F9008951F93CF93DF93EC0188E60E9405
:102C90004D1C80E00E94671C8A859B85813D27E052
:102CA000920774F1805D97409B878A8710E888813E
:102CB0000E94C8140E94671C8A810E94C8140E9446
:102CC000671C8C810E94C8140E94671C8C850E941E
:102CD000C8140E94671C8E810E94C8140E94671C41
:102CE00088850E94C814810F0E94671C8A850E94F3
:102CF000C8140E94671CDF91CF911F910C94571C40
:102D00008C5697409B878A8710E0D1CF1F93CF9333
:102D1000DF93C82FD62F142F88E60E944D1C80E029
:102D20000E94671C812F0E94C8140E94671C8D2F6F
:102D30000E94C8140E94671C8C2F0E94C8140E9415
:102D4000671CDF91CF911F910C94571CCF93C82F14
:102D500080910A0781110BC00E94D814CC2329F05E
:102D60008F7760E0CF910C94E9148068FACFCF910F
:102D7000089580910A07811106C00E94D814809599
:102D8000881F8827881F0895FF920F931F93CF9362
:102D9000DF938C01EB01FC011082188280910B07FC
:102DA000811120C088E60E944D1C81E10E94671CB1
:102DB0000E94571C62E088E60E94401C0E94B61CDC
:102DC000882381F00E94BC1CF82E0E94BC1CF801D4
:102DD000F082829586958695837099E1899F802DF2
:102DE00011248883DF91CF911F910F91FF90089557
:102DF000CF93DF93C82F80910B0781112DC088E6F8
:102E00000E944D1C8EE00E94671C0E94571C61E0CE
:102E100088E60E94401C0E94BC1CD82F88E60E94B5
:102E20004D1C8EE00E94671C8D2F80620E94671CE3
:102E30000E94571CCC2381F088E60E944D1C8EE036
:102E40000E94671C0E94571C61E088E60E94401C9B
:102E50000E94BC1C85FDF0CFDF91CF910895CF93E8
:102E6000C82F88E60E944D1C88E08C0F0E94671CCA
:102E70000E94571C61E088E60E94401CCF910C9490
:102E8000BC1C0F931F93CF938C01C0E08C2F0E942A
:102E90002F17F80181938F01CF5FC833B9F7CF9116
:102EA0001F910F910895CF93DF93C82FD62F88E6F7
:102EB0000E944D1C88E08D0F0E94671C8C2F0E9481
:102EC000671CDF91CF910C94571C0F931F93CF93E6
:102ED0008C01C0E06C2FF80181918F010E94531783
:102EE000CF5FC833B9F7CF911F910F910895CF935A
:102EF000DF93D82F80910B07882309F188E60E9481
:102F00004D1C87E00E94671C0E94571C61E088E608
:102F10000E94401C0E94BC1CC82FDD2371F0C061C0
:102F200088E60E944D1C87E00E94671C8C2F0E943F
:102F3000671CDF91CF910C94571CCF7EF1CF88E6B0
:102F40000E944D1C8EE00E94671C0E94571C61E08D
:102F500088E60E94401C0E94BC1CC82FDD2339F06B
:102F6000CB7FC06488E60E944D1C8EE0DDCFCF7B16
:102F7000F9CFCF93DF93EC0180910B078823E9F021
:102F800088E60E944D1C87E00E94671C0E94571C27
:102F900061E088E60E94401C0E94BC1C8C7FC82B0C
:102FA00088E60E944D1C87E00E94671C8C2F0E94BF
:102FB000671CDF91CF910C94571C88E60E944D1C32
:102FC0008EE00E94671C0E94571C61E088E60E9408
:102FD000401C0E94BC1C94E0CC0FDD1F9A95E1F7C9
:102FE000877EC82B88E60E944D1C8EE0DDCFCF93F4
:102FF000DF93D82F80910A07882309F188E60E9481
:103000004D1C8FE00E94671C0E94571C61E088E6FF
:103010000E94401C0E94BC1CC82FDD2371F0C860B8
:1030200088E60E944D1C8FE00E94671C8C2F0E9436
:10303000671CDF91CF910C94571CC77FF1CFDF91B4
:10304000CF91089580910B07882361F060E080E0C4
:103050000E94531761E080E00E94531762E080E015
:103060000C94531767E080E00E94E91468E080E068
:103070000E94E91469E080E00E94E9146AE080E0BF
:103080000C94E9141F93CF93DF93C82FD62F142FDE
:10309000883108F054C06C3308F051C04C3308F04C
:1030A0004EC080910B07882379F060E08C2F0E943E
:1030B000531761E08D2F0E94531762E0812FDF913B
:1030C000CF911F910C945317842F0E94C81467E06E
:1030D0000E94E9148D2F0E94C81468E00E94E91430
:1030E0008C2F0E94C81469E00E94E9146AE081E80C
:1030F0000E94E9148FE00E94D8146FE08E7F0E9436
:10310000E91488E60E944D1C8EE00E94671C0E9414
:10311000571C61E088E60E94401C0E94BC1CC82F1E
:1031200088E60E944D1C8EE00E94671C8C2F8160F7
:103130000E94671CDF91CF911F910C94571CDF9167
:10314000CF911F910895FC01892B29F04081628164
:1031500084810C9442180895EF92FF920F931F936D
:10316000CF93DF93EC018B017A0180910B078823C9
:10317000E9F0209721F080E00E942F178883011545
:10318000110529F081E00E942F17F8018083E114D6
:10319000F10429F082E00E942F17F7018083DF916C
:1031A000CF911F910F91FF90EF90089587E00E94BB
:1031B000D8148F770E94CF14F701808388E00E9493
:1031C000D8148F770E94CF14F801808389E00E9481
:1031D000D8148F770E94CF148883E1CFCF93DF93E9
:1031E00000D00F92CDB7DEB7AE014F5F5F4FBE018B
:1031F0006E5F7F4FCE0103960E94AC18E9EFF6E0B8
:103200008B8190E0958384838A8190E0938382838D
:10321000898190E091838083CF010F900F900F9070
:10322000DF91CF910895FF920F931F93CF93DF9378
:1032300000D00F92CDB7DEB780910B07882349F1FC
:1032400080E00E942F17F82E81E00E942F17082F90
:1032500082E00E942F17182FAE014F5F5F4FBE0113
:103260006E5F7F4FCE0103960E94E3158B818F1115
:1032700006C08A81801303C081E09981911380E0A8
:103280000F900F900F90DF91CF911F910F91FF90B2
:1032900008958FE00E94D814182F117080FF04C089
:1032A0006FE08E7F0E94E914812FEACFCF93DF93E6
:1032B000FC01DB0146A157A127A930AD14968D91E1
:1032C0009C911597421753070CF12417350754F0BA
:1032D00042175307D9F4C4A1D5A165A976A96C17E3
:1032E0007D07A4F484179507A4F088319105A4F014
:1032F0002817390749F481E012964D915C9125A970
:1033000036A9421753074CF080E007C08417950791
:103310007CF38217930764F781E0DF91CF910895E2
:10332000EF92FF920F931F93CF93DF93FC01EB017A
:10333000DC01A85BBF4F8C819D812D913C91820F58
:10334000931F28E1E22EF12CB7010E94392C9C0139
:1033500095838483DF01AA5BBF4F0D911C918A8105
:103360009B81800F911F6CE370E00E94392C938346
:1033700082838A819B81080F191F0C3311053CF051
:10338000C9010196B7010E94392C95838483DF918E
:10339000CF911F910F91FF90EF900895CF93DF93FE
:1033A000EC01BC016F5E7F4F0E9490198B818F935F
:1033B0008A818F938D818F938C818F9381EB92E0A3
:1033C0009F938F930E947731BE01CE010E945619C0
:1033D0000F900F900F900F900F900F9040E0882368
:1033E000D9F06A818C810E9442188B818F938A81E7
:1033F0008F938D818F938C818F9385ED92E09F9336
:103400008F930E9477310F900F900F900F900F9035
:103410000F90DF91CF9108956CA18EA10E94421868
:103420008DA18F938CA18F938FA18F938EA18F935A
:1034300082E093E0E4CF10927707449A459AE9EB53
:10344000F0E080818E7F808380818D7F80838CE01F
:103450008093B80085E48093BC0078940895880F29
:103460008093BA000895982F842F413258F5209107
:1034700077072111FCCF21E0209377072FEF2093CE
:103480000C0710925107280F20935007990F916055
:103490009093760795EE9093BC00909177079130CA
:1034A000E1F390915107981710F48091510722E5AC
:1034B00037E0FB01D9019A2F921B981720F49D91B8
:1034C0009193F9CF80E00895982F4132B0F5809123
:1034D00077078111FCCF32E0309377073FEF3093CD
:1034E0000C071092510740935007562FA2E5B7E002
:1034F000FB013E2F351B341718F431913D93F9CF62
:10350000492F50E0440F551F4093760795EE909356
:10351000BC00222321F0909177079230D1F3909153
:103520000C079F3F79F080910C07803241F0809129
:103530000C07803331F084E0089581E0089582E043
:10354000089583E00895613288F42091770724304C
:1035500079F460932E07282FA0E3B7E0FC018E2FAB
:10356000821B861738F481918D93F9CF81E00895FD
:1035700082E0089580E00895909373078093720726
:10358000089590937507809374070895882321F018
:1035900085EC8093BC00089585E8FBCF85ED809392
:1035A000BC008091BC0084FDFCCF10927707089589
:1035B00085EC8093BC001092770708951F920F92BC
:1035C0000FB60F9211242F933F934F935F936F93F6
:1035D0007F938F939F93AF93BF93EF93FF939091BC
:1035E000B900892F887F803509F4BCC008F045C038
:1035F000803309F4B2C0A0F5883101F1D0F48830ED
:1036000009F4A3C0803109F4A0C0882309F4E9C0FB
:10361000FF91EF91BF91AF919F918F917F916F91AA
:103620005F914F913F912F910F900FBE0F901F9080
:103630001895803209F491C0883251F79091510762
:1036400080915007981708F08AC0E091510781E0F7
:103650008E0F80935107F0E0EE5AF84F808177C0CB
:10366000803409F48BC0883409F479C0883381F63A
:1036700080930C070E94D81ACBCF803A09F498C0E7
:1036800060F5803809F482C0F8F48036B9F080F42F
:10369000883509F0BDCFE091510781E08E0F80930E
:1036A00051078091BB00F0E0EE5AF84F808357C07D
:1036B000803721F0987E983609F0AACF83E0809376
:1036C000770710920D0745C0803909F45FC0987ED6
:1036D000983809F09DCF85E83DC0883BD9F058F572
:1036E000883A19F0803B09F093CF84E08093770704
:1036F00010922F0710922E07E0917407F091750732
:10370000099580912E07811105C081E080932E07D5
:1037100010923007E0912F0781E08E0F80932F07E2
:10372000F0E0E05DF84F80818093BB0090912F071F
:1037300080912E0727C0907F903C09F069CF85ECDF
:103740008093BC001092770763CF809176078093B7
:10375000BB0085EC8093BC005BCF80930C070E947C
:10376000CE1A56CFE091510781E08E0F809351071A
:103770008091BB00F0E0EE5AF84F808390915107A2
:1037800080915007981708F0A6CFE3CF80910D07DE
:10379000803208F0A0CFE0910D0781E08E0F80937A
:1037A0000D078091BB00F0E0E25FF84F8083D1CF3E
:1037B00080910D07803230F4E0910D07F0E0E25F78
:1037C000F84F10820E94CE1A60910D0770E0E091D0
:1037D0007207F09173078EE097E0099510920D073C
:1037E00049CF10920C07BBCFCF93DF93DC01CB0105
:1037F000E0917807F09179073097E9F03091A107CF
:103800002091A0073217B8F040E0242F30E02817AD
:10381000390754F4ED01C20FD31F58812E55384F8C
:10382000E90158834F5FF1CF1092A1078093A00761
:10383000DF91CF910994DF91CF910895E0917A07BC
:10384000F0917B07309729F010927E0710927D0748
:10385000099408951092A1071092A00710927E0774
:1038600010927D070C941B1A0E942F1A8EE19CE186
:103870000E94C11A84EF9BE10E94BC1A0C942A1C7E
:10388000462F613208F040E262EA77E00E94331A84
:103890001092A1078093A007089591E090937C0770
:1038A00080939F0710927E0710927D07089521E074
:1038B00040917D076FE777E080919F070E94641A2F
:1038C00010927E0710927D0710927C070895CF9387
:1038D000DF930F92CDB7DEB7898380917C07882371
:1038E000A9F080917D07803268F480917E07E82FEF
:1038F000F0E0E158F84F998190838F5F80937E07C5
:1039000080937D070F90DF91CF91089561E0CE0104
:1039100001960E94A31AF6CF0F931F93CF93DF93C4
:1039200020917C07222369F08C01EC01C60FD11D88
:103930000C171D0761F0F80181918F010E94671C2F
:10394000F7CFDF91CF911F910F910C94A31ADF91C4
:10395000CF911F910F910895DC010D900020E9F7A0
:103960001197BD01681B790B0C948C1C8091A007EA
:103970009091A107891B08959091A1078091A007BC
:10398000981748F4E92FF0E0EE55F84F80819F5FDB
:103990009093A107089580E008959093790780930C
:1039A0007807089590937B0780937A070895089588
:1039B000DF92EF92FF920F931F93CF93DF93CDB7D8
:1039C000DEB761970FB6F894DEBF0FBECDBF8C0196
:1039D000DC01D5961C921E92D4978C91282F082E2C
:1039E000000C330B3F938F9380E393E09F938F936F
:1039F0000E947731F80184A995A9E80FF91F208169
:103A00000F900F900F900F90223509F44DC0233581
:103A100009F4A7C1293409F038C49C012E5F3F4F37
:103A2000223331050CF01EC4D801D5963C932E9359
:103A3000D497AC014D5F5F4F8F9709F413C4200FEB
:103A4000311FF9019081D5965C934E93D497905392
:103A5000040F151FD8018C91BAE09B9F800D112493
:103A600060ED680F8153823608F00AC48AE090E066
:103A70000E94FF2360E475E08AE090E00E94EC235E
:103A800062E08BE090E00E94FF23809140051F924E
:103A90008F938CEC93E09F938F930E9477310F90DC
:103AA0000F900F900F90DAC39C012E5F3F4F22338F
:103AB00031050CF0D7C3D801D5963C932E93D497FB
:103AC000200F311FF9014081042E000C550B40538B
:103AD00051096AE0D62ED49EB001D59E700D1124F6
:103AE000AC014D5F5F4F8F32910509F4BBC3D59692
:103AF0005C934E93D497400F511FDA012C91022E04
:103B0000000C330B20533109260F371F3E832D83C2
:103B10000596823391050CF0A5C3F80195AB84ABF3
:103B2000800F911FDC018C91282F082E000C330B85
:103B30003F938F933FE3E32E33E0F32EFF92EF9218
:103B40000E947731F80184A995A9E80FF91F208117
:103B5000022E000C330B20533109D29EA001D39EBC
:103B6000500D11245C834B8301960F900F900F90A2
:103B70000F90823391050CF075C3D801D5969C93B4
:103B80008E93D497800F911FFC018081282F082EDF
:103B9000000C330B3F938F93FF92EF920E9477318B
:103BA000D801D4968D919C91F801E80FF91F2081DE
:103BB000022E000C330B205331094B815C81240F02
:103BC000351F3C832B839C012E5F3F4F0F900F903E
:103BD0000F900F90223331050CF044C3F80135AB40
:103BE00024AB200F311FD9014C91042E000C550B32
:103BF00040535109D49EB001D59E700D1124AC01E3
:103C00004D5F5F4F8F32910509F42CC355AB44AB28
:103C1000400F511FFA012081022E000C330B20535C
:103C20003109260F371F3A8329839C012B5F3F4FB1
:103C3000223331050CF016C3D801D5963C932E9350
:103C4000D497200F311FF9014081042E000C550B31
:103C500040535109D49EB001D59E700D1124AC0182
:103C60004A5F5F4F8C32910509F4FCC2D5965C9394
:103C70004E93D497400F511FDA012C91022E000C65
:103C8000330B20533109260F371F38872F839C01B0
:103C9000285F3F4F223331050CF0E4C2F80135AB09
:103CA00024AB200F311FD9014C91042E000C550B71
:103CB000405351096AE0649FF001659FF00D1124A3
:103CC000AC01475F5F4F8932910509F4CBC2D8013F
:103CD000D5965C934E93D497400F511FDA012C91E7
:103CE000022E000C330B205331092E0F3F1F3A8751
:103CF00029879C01255F3F4F223331050CF0B2C26A
:103D0000F80135AB24AB200F311FD9012C91022EC5
:103D1000000C330B20533109629FA001639F500DAB
:103D200011249C01245F3F4F869709F49BC235AB59
:103D300024AB020F131FF8018081082E000C990B91
:103D4000C097840F951F9C878B87CE0101960E9498
:103D5000421681E08093410588E493E00E9492310D
:103D60007DC29C012E5F3F4F223331050CF07AC299
:103D7000D801D5963C932E93D497200F311FF9018B
:103D80004081042E000C550B405351092AE0F22EBD
:103D9000F49EB001F59E700D112470936905609337
:103DA0006805AC014D5F5F4F8F32910509F45AC22F
:103DB000D5965C934E93D497400F511FDA012C9106
:103DC000022E000C330B20533109260F371F30937E
:103DD0006905209368059C012B5F3F4F2233310515
:103DE0000CF040C2F80135AB24AB200F311FD901D4
:103DF0004C91042E000C550B40535109F49EB00118
:103E0000F59E700D11247093670560936605AC01F3
:103E10004A5F5F4F8C32910509F424C255AB44AB25
:103E2000400F511FFA012081022E000C330B20534A
:103E30003109260F371F30936705209366059C01D3
:103E4000285F3F4F223331050CF00CC2D801D596C4
:103E50003C932E93D497200F311FF9012081022E1D
:103E6000000C330B20533109F29EA001F39E500D3C
:103E7000112450936505409364059C01275F3F4FD3
:103E8000899709F4EFC1D5963C932E93D497200FD0
:103E9000311FD9018C91082E000C990BC097840F0B
:103EA000951F909365058093640564E170E084E656
:103EB00095E00E948C2464E170E084E695E00E9425
:103EC000BF24809165058F93809164058F938091C5
:103ED00067058F93809166058F93809169058F9315
:103EE000809168058F938CE593E09F938F930E9458
:103EF0007731F80184A995A902960FB6F894DEBF30
:103F00000FBECDBF823391050CF0ACC195AB84AB35
:103F1000800F911FDC018C91082E000C990BC0972B
:103F2000F89E9001F99E300D112430937A0520936C
:103F3000790584A995A90196823391050CF092C167
:103F400095AB84AB800F911FFC018081082E000C83
:103F5000990BC0972091790530917A05820F931FB4
:103F600090937A0580937905D801D4968D919C9190
:103F7000D5970296823391050CF074C1D5969C9327
:103F80008E93D497800F911FFC018081082E000C26
:103F9000990BC097F89E9001F99E300D1124309333
:103FA000780520937705D4968D919C91D5970196AD
:103FB000823391050CF056C1D5969C938E93D4977D
:103FC000800F911FDC018C91082E000C990BC0977B
:103FD0002091770530917805820F931F9093780593
:103FE00080937705F80184A995A9029682339105FB
:103FF0000CF038C195AB84AB800F911FDC018C9124
:10400000082E000C990BC097F89E9001F99E300D78
:104010001124309376052093750584A995A90196FE
:10402000823391050CF01EC195AB84AB800F911FBC
:10403000FC018081082E000C990BC097209175051A
:1040400030917605820F931F9093760580937505C6
:1040500067E170E085E795E00E948C2467E170E0FD
:1040600085E795E00E94BF24809176058F9380912B
:1040700075058F93809178058F93809177058F9345
:1040800080917A058F93809179058F9382E893E0F0
:104090009F938F930E947731D801D4968D919C91F4
:1040A000D59702960FB6F894DEBF0FBECDBF823310
:1040B00091050CF0D7C0D5969C938E93D497800F22
:1040C000911FDC018C91082E000C990BC097F89E73
:1040D0009001F99E300D112430938B0520938A05B1
:1040E000F80184A995A90196823391050CF0BAC014
:1040F00095AB84AB800F911FDC018C91082E000CD6
:10410000990BC09720918A0530918B05820F931FE0
:1041100090938B0580938A0584A995A90296823392
:1041200091050CF09FC095AB84AB800F911FFC01F3
:104130008081082E000C990BC097F89E9001F99E83
:10414000300D11243093890520938805D801D49629
:104150008D919C91D5970196823391050CF082C088
:10416000D5969C938E93D497800F911FFC018081EC
:10417000082E000C990BC097209188053091890575
:10418000820F931F9093890580938805D4968D9113
:104190009C91D5970296823391050CF063C0D59619
:1041A0009C938E93D497800F911FDC018C91082EE5
:1041B000000C990BC097F89E9001F99E300D1124C8
:1041C0003093870520938605F80184A995A9019667
:1041D000823391050CF046C095AB84AB080F191FD4
:1041E000D8018C91082E000C990BC0972091860560
:1041F00030918705820F931F9093870580938605E2
:104200006AE170E086E895E00E948C246AE170E043
:1042100086E895E00E94BF24809187058F93809166
:1042200086058F93809189058F93809188058F9360
:1042300080918B058F9380918A058F9386EA93E016
:104240009F938F930E94773162E08CE090E00E9410
:10425000FF230FB6F894DEBF0FBECDBF82E194E01E
:104260000E94923161960FB6F894DEBF0FBECDBFAB
:10427000DF91CF911F910F91FF90EF90DF90089504
:104280001F926F9386EE93E006CC8CEF93E066CDA1
:10429000FC0182A993A9813391052CF4019693AB7B
:1042A00082AB80E0089581E00895FC01A2A9B3A942
:1042B000A80FB91F6C930C944821FC0113AA12AAF1
:1042C0000C945521FC0184A995A9680F791F6233CC
:1042D000710524F475AB64AB80E0089581E0089526
:1042E0000F931F93CF93DF938EE480937C0086E837
:1042F00080937A008FEC97E00197F1F700C00000FF
:1043000080917A00806480937A0080917A0086FDA3
:10431000FCCF8FEC97E00197F1F700C0000080918F
:104320007A00806480937A0080917A0086FDFCCFC9
:104330008FE19EE40197F1F700C0000080917800C2
:1043400090917900C92FD0E0082F10E01F929F9321
:104350001F928F9387E294E09F938F930E9477310F
:10436000DC2FCC27C02BD12BCE011F921F929F9305
:104370008F938AE394E09F938F930E94773180E03C
:104380009CE2BE010E94252CEB01CB0199279F9353
:104390008F9385E494E09F938F930E94773180916F
:1043A0007A008F7780937A008DB79EB740960FB6CC
:1043B000F8949EBF0FBE8DBF8C2FDF91CF911F91C0
:1043C0000F910895CF93DF9300D000D0CDB7DEB723
:1043D0000E9470216AE00E94192C282F30E050E0E2
:1043E00040E029833A834B835C83CA01B9010E9470
:1043F000BB2E69837A838B839C8369817A818B81CD
:104400009C810F900F900F900F90DF91CF910895A6
:104410009F92AF92BF92CF92DF92EF92FF920F9353
:104420001F93CF93DF938C01F42EE52ED62EC72E4B
:1044300059018BE7F8018083E801229683E48183A8
:10444000809140051F928F9387E394E09F938F9311
:10445000DF93CF930E94BE31C80FD91F8CE2982EF4
:10446000FE019192CF0162E574E00E94C73025966B
:10447000F50181818F9380818F9383818F938281D6
:104480008F9385818F9384818F9380E691E09F93B2
:104490008F93DF93CF930E94BE31C80FD91F99929B
:1044A000CF92DF92EF92FF9287E594E09F938F93F4
:1044B000DF93CF930E94BE31C80FD91F8DE7888349
:1044C0001982F80101900020E9F7CF0101972DB77B
:1044D0003EB7285E3F4F0FB6F8943EBF0FBE2DBFCC
:1044E000801B910BDF91CF911F910F91FF90EF9067
:1044F000DF90CF90BF90AF909F9008958CE594E0AF
:104500000E94923167E084E40E94D30867E084E46B
:104510000E94F70865E084E40E94D30865E084E423
:104520000E941B0966E084E40E94D30866E084E4EC
:104530000E941B0967E084E40E941B0965E084E493
:104540000E94F70866E084E40E941B092FEF82E7CF
:1045500095E5215080409040E1F700C0000065E003
:1045600084E40E941B0966E084E40E941B092FEF8B
:1045700084E39CE0215080409040E1F700C00000BF
:1045800065E084E40E941B0966E084E40E94F70869
:104590002FEF82E795E5215080409040E1F700C081
:1045A000000065E084E40E941B0966E084E40E9448
:1045B0001B0967E084E40C94F70867E084E40E9438
:1045C0001B0965E084E40E94F70866E084E40E9429
:1045D0001B092FEF82E795E5215080409040E1F7DD
:1045E00000C0000065E084E40E941B0966E084E4EA
:1045F0000E941B0967E084E40C94F708E3ECF7E001
:1046000087E090E0958384838EE190E093838283BA
:10461000118210829783868381E090E09187808762
:1046200086E190E0938782870895FC01208531859B
:104630008091CB079091CC0782179307B4F128178C
:10464000390789F5268137818091C9079091CA077A
:104650008217930754F12817390729F524813581EA
:104660008091C7079091C80782179307F4F0281725
:104670003907C9F4228133818091C5079091C6071B
:104680008217930794F02817390769F44081518104
:104690002091C3073091C40781E0241735073CF00F
:1046A0004217530721F080E0089581E008950895AE
:1046B000CF92DF92EF92FF920F931F93CF93DF93EE
:1046C000CDB7DEB768970FB6F894DEBF0FBECDBF8B
:1046D000182F0E94FE228091C20781116EC00E9495
:1046E0004B15F82E092F103288F582E794E00E94CE
:1046F00092310E94DD22812F90E0B0E0A0E08D8B0E
:104700009E8BAF8BB88FBC01CD010E94B92E2F2D8F
:10471000302F462F572FBC01DE0111966D01CD01C0
:104720000E940822E82EDF92CF928CE894E09F93BB
:104730008F930E9477316E2DC6010E940D0681E095
:104740008093C2070F900F900F900F908F2D902F96
:104750000E941523882389F18AE994E00E9492310E
:104760000E94DD22812F90E0B0E0A0E08D8B9E8B37
:10477000AF8BB88FBC01CD010E94B92E2F2D302FE9
:10478000462F572FBC018E010F5F1F4FC8010E949B
:104790000822F82E1F930F938CE894E09F938F9339
:1047A0000E9477316F2DC8010E940D0681E0809331
:1047B000C2070F900F900F900F9068960FB6F89465
:1047C000DEBF0FBECDBFDF91CF911F910F91FF9044
:1047D000EF90DF90CF9008959C01FB01211584E0BC
:1047E000380758F49FB3892F827091FDFBCF32BDFB
:1047F00021BDF89A90B59083089582E008959C01B8
:10480000211584E0380758F49FB3892F827091FDF9
:10481000FBCF32BD21BD60BDFA9AF99A089582E0BE
:104820000895FF920F931F93CF93DF930F92CDB70D
:10483000DEB78C01F62E011584E0180730F51982D9
:10484000BE016F5F7F4FC8010E94EC23811116C02B
:104850009981F91699F06F2DC8010E94FF238111EB
:104860000DC0BE016F5F7F4FC8010E94EC23811114
:1048700005C081E099819F1101C080E00F90DF9118
:10488000CF911F910F91FF90089582E0F7CFEF92A3
:10489000FF920F931F93CF93DF938C01EB017B016A
:1048A000E40EF51ECE15DF0579F06991C8010E946E
:1048B00011240F5F1F4F8823A9F3DF91CF911F9120
:1048C0000F91FF90EF90089580E0F7CFCF92DF92A5
:1048D000EF92FF920F931F93CF93DF938C017B0195
:1048E0006A01D0E0C0E0CC15DD0561F0B7016C0FC6
:1048F0007D1FCE01800F911F0E94EC23811103C008
:104900002196F1CF80E0DF91CF911F910F91FF9021
:10491000EF90DF90CF9008950F931F93CF93DF9385
:10492000EC018B016C81C8010E94FF236A81C801E0
:1049300001960E94FF236881C80102960E94FF230E
:1049400089818F9388818F938B818F938A818F93B5
:104950008D818F938C818F9388EB94E09F938F93BD
:104960000E9477318DB79EB708960FB6F8949EBF18
:104970000FBE8DBFDF91CF911F910F9108950F93BF
:104980001F93CF93DF93EC018B01BC016C5F7F4FD2
:10499000C8010E94EC23BE016E5F7F4FC8010196E3
:1049A0000E94EC23BE01C80102960E94EC2389817B
:1049B0008F9388818F938B818F938A818F938D8141
:1049C0008F938C818F9383EE94E09F938F930E94BB
:1049D00077318DB79EB708960FB6F8949EBF0FBE7D
:1049E0008DBFDF91CF911F910F910895CF93DF93EA
:1049F00089E190E00E943926C82FD0E08AE190E05A
:104A00000E9439269E01382BC901DF91CF9108956C
:104A1000CF93682FC92F89E190E00E94E3256C2F86
:104A20008AE190E0CF910C94E325EF92FF920F93EF
:104A30001F93CF93DF938C010E94F624EC01F801C1
:104A400001900020E9F7AF0141505109401B510B83
:104A50004333DCF4E42E042E000CFF08C7018C0F56
:104A60009D1F8F3F9F4310F0C2E3D0E0B801CE01FD
:104A70000E94A526C7018C0F9D1FDF91CF911F912A
:104A80000F91FF90EF900C940825DF91CF911F912B
:104A90000F91FF90EF900895FF920F931F93CF9384
:104AA000DF93D82FC92F8B01BA010E94A00DFC0102
:104AB0008CE2F82EF192BF018D2F9C2F0E94BF0D2A
:104AC000FC01F192BF018D2F9C2F0E94A114EC01DB
:104AD000F992F80181818F9380818F9383818F93E5
:104AE00082818F9385818F9384818F9380E691E07B
:104AF0009F938F93DF93CF930E94BE31C80FD91F2E
:104B00008BE388831982EDB7FEB73A960FB6F89417
:104B1000FEBF0FBEEDBFDF91CF911F910F91FF90B0
:104B20000895CF93DF93CDB7DEB7E2970FB6F89431
:104B3000DEBF0FBECDBFAE014F5F5F4F0E944C2561
:104B4000CE0101960E941525E2960FB6F894DEBFBD
:104B50000FBECDBFDF91CF9108950F931F93CF93D9
:104B60000E94F6249F938F938EE092E09F938F9301
:104B70000E9477310F900F900F900F9002E310E09A
:104B8000C8010E943926C82F90E00E948B31CB3398
:104B900059F489ED91E00E9492310F5F1F4F0F3F52
:104BA0008FE3180769F702C0CF3FB9F7CF911F9184
:104BB0000F91089585E08093B800E9EBF0E08081E3
:104BC0008C7F8083089534EA40EA54E83093BC0037
:104BD0002091BC0027FFFCCF2091B900287F28300E
:104BE00011F080E008954093BB005093BC002091E9
:104BF000BC0027FFFCCF2091B900287F283131F776
:104C00009093BB0094E89093BC009091BC0097FFF8
:104C1000FCCF9091B900987F983219F78093BB0030
:104C200084E88093BC008091BC0087FFFCCF80911A
:104C3000B900887F8832A9F66093BB0084E880932E
:104C4000BC008091BC0087FFFCCF8091B900887FB9
:104C5000883239F684E98093BC008091BC0084FDE1
:104C6000FCCF8FEB9DE50197F1F700C0000081E0DC
:104C7000089534EA40EA54E83093BC002091BC0027
:104C800027FFFCCF2091B900287F283009F05BC0B6
:104C90004093BB005093BC002091BC0027FFFCCF89
:104CA0002091B900287F283139F79093BB0094E810
:104CB0009093BC009091BC0097FFFCCF9091B900FD
:104CC000987F983209F03FC08093BB0084E88093BE
:104CD000BC008091BC0087FFFCCF8091B900887F29
:104CE000883289F584EA8093BC008091BC0087FFFC
:104CF000FCCF8091B900887F803129F581EA8093CB
:104D0000BB0084E88093BC008091BC0087FFFCCF8F
:104D10008091B900887F8034B1F484E88093BC002E
:104D20008091BC0087FFFCCF8091B900887F8835D7
:104D300051F48091BB0094E99093BC009091BC0029
:104D400094FDFCCF089580E00895EF92FF920F93B9
:104D50001F93CF93DF938C01EB017B01E40EF11CD9
:104D6000CE15DF0579F06991C8010E94E3250F5F38
:104D70001F4F8111F5CFDF91CF911F910F91FF90C0
:104D8000EF90089581E0F7CFA5E1B0E0EAECF6E21C
:104D90000C94282D7C011B015A01DC0117961C92F2
:104DA0001E92169713968C9181FF68C3FE0131966F
:104DB0004F01D70113969C91F10193FD859193FFCB
:104DC00081911F01882309F4EDC2853239F493FDE6
:104DD000859193FF81911F01853239F4B70190E0ED
:104DE0000E94473165015601E4CF10E0512C00E0EC
:104DF000003238F48B3209F190F48032F9F08332CA
:104E000009F107FD34C020ED280F2A3020F506FFF8
:104E10001BC0BAE01B9F200D1124122F05C08D323C
:104E200079F0803371F70160F10193FD859193FF73
:104E300081911F018111DCCF1AC002600460F4CFA0
:104E40000860F2CF0061F0CFEAE05E9E200D1124F1
:104E5000522E0062E9CF8E3221F406FDA3C2006417
:104E6000E3CF8C3611F40068DFCF8836E9F29BEB94
:104E7000980F933008F073C00061805E06FF16E063
:104E80000F73702E853609F071C0689476F877FE3E
:104E900077C0812F1C3308F08BE344244394480EE1
:104EA00027E0D5014D915D916D917D916D014C870C
:104EB0005D876E877F87042DA4016C857D858E8537
:104EC0009F850E94DB2F5C01B981BC87B0FF04C0C5
:104ED0006DE2662EB3FF0BC05BE2652E71FC07C06E
:104EE000E72DE4706E2E72FE02C070E2672E0C8514
:104EF0000C7009F456C06110C4C2F3E000E0F5156F
:104F000098F483E0052D081B73FC07C0B70180E20D
:104F100090E00E9447310150C9F7662029F0B7019F
:104F2000862D90E00E944731FC8548E6A42E40E0A3
:104F3000B42EF3FD04C03CE6A32E30E0B32E172DB3
:104F40001071F5018491811122C0002309F44BCF27
:104F5000B70180E290E00E9447310150F6CF9BE913
:104F6000980F933008F041C10F7E88CF863619F430
:104F7000689477F88CCF112309F489CF115087CF2B
:104F8000212F183010F027E017E0412C8ACF1111A3
:104F90008052B70190E00E9447312FEFA21AB20A67
:104FA000D0CF77FE78C04A0CFC85F4FF04C08A811C
:104FB000813309F44A9414140CF090C028E02415AD
:104FC00010F428E0422E85E090E077FE06C0C5018F
:104FD000B7FE02C090E080E00196611001961123B7
:104FE00031F0212F30E02F5F3F4F820F931F581673
:104FF000190619F014F0052D081B872D897011F47E
:10500000011171C0662029F0B701862D90E00E9441
:10501000473173FC02C001116DC077FE98C0B98A98
:10502000A88AB7FE02C0198A188A68887988A501FB
:10503000441951095D8B4C8B412E512C66277727E3
:10504000641975097B8B6A8BA614B7040CF459C0DC
:105050008C899D89861597050CF053C0F501E619DA
:10506000F709E80DF91D818191E0691A7108AA8993
:10507000BB896A167B060CF446C0B70190E00E941B
:105080004731BFEF6B167B06F9F6B7018EE290E071
:105090000E944731D9CF76FC96CFE12FF0E0EA1598
:1050A000FB053CF03CEFA3163FEFB30614F0689409
:1050B00077F83296E80DF91D01C01150112319F04F
:1050C00082918033D1F377FE7ECF44244394410E06
:1050D0001A151B0431F02CF01A1975CF442443948F
:1050E00072CF10E070CFB70180E290E00E944731AC
:1050F000015086CFB70180E390E00E944731015014
:105100008ACF80E3B1CF6889798961507109409471
:105110005094E889F9894E165F06A4F4461A570A96
:10512000460E571EA414B50441F49A81963368F4D0
:10513000953319F4FC85F4FF08C0B70190E00E9494
:10514000473103CF512C412CEBCF81E3F6CF8A813D
:10515000813319F02C852F7E2C87B70190E00E94B7
:1051600047311123A9F0B7018EE290E00E94473148
:1051700092E0692E610E12E0E12F1F5FE80DF92D1C
:10518000F11D8081B70190E00E9447316112F4CF98
:1051900085E690E074FE02C085E490E0B7010E94CD
:1051A0004731B7FC06C0A114B104C1F43C8534FFFB
:1051B00015C0B194A194B1088DE2B70190E00E94AE
:1051C000473180E35AE0A516B10454F4B70190E0EA
:1051D0000E944731B701C501C096B1CF8BE2EDCF38
:1051E0008F5F4AE0A41AB108EDCF8336B9F0833758
:1051F00009F43CC0833509F04FC0D501AD90BD9096
:105200006D01612F70E006FD02C06FEF7FEFC501F9
:105210000E94B3303C01102F10680DC0650162E0A0
:10522000C60ED11CD5018C91898366246394712CA0
:105230005401102F1F7713FD04C05614170409F0F2
:1052400020F5052D6114710409F47FCEF50117FDD9
:10525000859117FF81915F01B70190E00E9447316E
:1052600001110150B1E06B1A7108ECCFF501A1906A
:10527000B1906F01612F70E006FD02C06FEF7FEF0C
:10528000C5010E94DD303C01D4CFB70180E290E03F
:105290000E9447315A94D1CF843619F0893609F0EB
:1052A00070C007FF65C0F501619171918191919185
:1052B0006F010F7697FF08C0909580957095619566
:1052C0007F4F8F4F9F4F00682AE030E0A4010E947B
:1052D000E131A82EA818BA2C602E06FF0BC0E89466
:1052E00060F8A11638F404FF04C002FD02C00E7E6F
:1052F000602EB12E64FE9AC0FE01EA0DF11D808180
:10530000803309F08CC0562D597E652E062D08700D
:1053100063FC9BC060FE95C01A2DB51410F4150DEA
:105320001B1964FE98C0B70180E390E00E944731EA
:1053300062FE09C088E790E061FE02C088E590E067
:10534000B7010E944731A11608F491C0AA94B12C6C
:105350006FEFA61AB60AA80CB91CD5018E915D0193
:10536000B70190E00E944731A814B904B1F7EDCD20
:10537000D5016D917D916D01072E000C880B990B65
:1053800098CF702EE89474F82AE030E0853739F130
:10539000B02FB97F7B2E8037A9F058F48835A9F05B
:1053A0008F36D9F0F701868197816596E2E10C94FA
:1053B000442D8837B9F774FE02C0689472F820E172
:1053C00030E00DC0689474F8F6CF04FF03C0EB2FF3
:1053D000E6607E2E20E132E002C028E030E077FE79
:1053E00016C0D5014D915D916D917D916D014C87F8
:1053F0005D876E877F87A4016C857D858E859F85FF
:105400000E94E131A82EA818072D0F7764CFF5016F
:10541000819191916F01AC0170E060E0E8CF62FC96
:1054200002C0B39473CFB394B39470CF862D8678B3
:1054300009F46CCFF6CFB70180E290E00E944731CB
:10544000B394B514C0F300E06CCF052D0B19B5145F
:1054500008F467CFF8CF862D867809F474CF8BE2F5
:1054600061FE80E267FC8DE2B70190E06ACFB70190
:1054700080E390E00E944731115065CF8FEF9FEF9E
:1054800094CF24E000E0251508F049CD84E03ACD22
:10549000CDB7DEB761970FB6F894DEBF0FBECDBFB4
:1054A0000E940F0A8CE791E00E9492310E942A1C10
:1054B0000E94FA1461E087E995E00E94A2120E941E
:1054C0007021182F0E947E221F921F938091400509
:1054D0001F928F938BE991E09F938F938FE796E0D4
:1054E0009F938F930E94BE3160E08FE796E00E9409
:1054F0000D060E947A090E942A1C89EA91E00E9406
:1055000092310E9429150E94180883EC91E00E94B4
:1055100092310E947B080E94180860E475E08AE0DE
:1055200090E00E94EC2364E170E084E695E00E9444
:10553000BF2467E170E085E795E00E94BF246AE13F
:1055400070E086E895E00E94BF2480EC91E09F9394
:105550008F930E947731809165058F9380916405C8
:105560008F93809167058F93809166058F938091CB
:1055700069058F93809168058F9304ED14E01F9364
:105580000F930E94773180EB91E09F938F930E945D
:105590007731809176058F93809175058F938091F7
:1055A00078058F93809177058F9380917A058F93FB
:1055B000809179058F931F930F930E9477318EE925
:1055C00091E09F938F930E947731809187058F930D
:1055D000809186058F93809189058F9380918805AE
:1055E0008F9380918B058F9380918A058F931F9362
:1055F0000F930E9477310FB6F894DEBF0FBECDBF78
:10560000809168059091690548976CF480916605D2
:1056100090916705CC973CF4809164059091650565
:10562000CC970CF461C08BED91E00E9492310E9406
:10563000F7078CE891E09F938F930E9477318091D8
:1056400065058F93809164058F93809167058F9393
:10565000809166058F93809169058F93809168058D
:105660008F9304ED14E01F930F930E9477318CE722
:1056700091E09F938F930E947731809176058F936D
:10568000809175058F93809178058F938091770530
:105690008F9380917A058F93809179058F931F93D3
:1056A0000F930E9477318AE691E09F938F930E9437
:1056B0007731809187058F93809186058F938091B4
:1056C00089058F93809188058F9380918B058F93A7
:1056D00080918A058F931F930F930E9477310FB6A5
:1056E000F894DEBF0FBECDBF809140051F928F930F
:1056F00084E192E09F938F930E9477310F900F90F7
:105700000F900F9001E00E947A090E942A1C0E94CB
:1057100029150E9418080E94702187E995E00E94CF
:105720000114682F8FE796E00E94B906182F87E9C9
:1057300095E00E94B81280919705882309F441C032
:1057400087EC95E00E94920E90E09E838D8387EC1B
:1057500095E00E94AE0E90E09C838B8387EC95E0F1
:105760000E94D20E90E09A83898389EB95E00E9493
:10577000760E90E098878F8389EB95E00E94490E22
:1057800090E09A87898789EB95E00E94260E9C8796
:105790008B87CE0101960E9442160E941808009342
:1057A0004105612F8FE796E00E940D0682E495E0A7
:1057B0000E94CE190E9418080E9490090E94540A63
:1057C000A2CF809141058111ECCF0E94C3070E94B6
:1057D0001808E7CFE5EBF6E014AA13AA16AA15AA53
:1057E00081E087AB10AE11AE12AE13AE10927E0602
:1057F00010927D0687E995E00C94940A70E060E0D1
:105800008AE29AE00E94FD309093F8068093F706B2
:105810000895DB018F939F930E94752CBF91AF91E8
:10582000A29F800D911DA39F900DB29F900D1124FA
:105830000895991B79E004C0991F961708F0961BEC
:10584000881F7A95C9F780950895AA1BBB1B51E163
:1058500007C0AA1FBB1FA617B70710F0A61BB70BE0
:10586000881F991F5A95A9F780959095BC01CD0185
:10587000089597FB072E16F4009407D077FD09D002
:105880000E94252C07FC05D03EF4909581959F4FF2
:105890000895709561957F4F0895A1E21A2EAA1B75
:1058A000BB1BFD010DC0AA1FBB1FEE1FFF1FA217D0
:1058B000B307E407F50720F0A21BB30BE40BF50BCD
:1058C000661F771F881F991F1A9469F76095709556
:1058D000809590959B01AC01BD01CF010895EE0F1D
:1058E000FF1F0590F491E02D09940E94952DA59F2E
:1058F000900DB49F900DA49F800D911D11240895CB
:10590000B7FF0C94752C0E94752C821B930B089585
:10591000689401C0E894F92FF12B12F00C94BC2C80
:10592000A0E0B0E0E6E9FCE20C942E2D092E0594EF
:1059300022F40E94182D112392F4F0E80F26FFEFB5
:10594000E094F09400951095B094C094D094A194F4
:10595000BF0ACF0ADF0AEF0AFF0A0F0B1F0B0E94D4
:10596000C72C07FC0E94182DCDB7DEB7ECE00C94D5
:105970004A2D689401C0E8948F929F92CF93DF9351
:105980000E94C72CDF91CF919F908F90089588241B
:105990009924F401E401B0E49F93AA279A158B049B
:1059A0009C04ED05FE05CF05D007A10798F4AD2FA7
:1059B000DC2FCF2FFE2FE92D982C892E982F872FA3
:1059C000762F652F542F432F322F2227B85031F7CF
:1059D000BF9127C01B2EBF91BB27220F331F441F2F
:1059E000551F661F771F881F991F881C991CEE1F63
:1059F000FF1FCC1FDD1FAA1FBB1F8A149B04EC05D1
:105A0000FD05CE05DF05A007B10748F08A189B0801
:105A1000EC09FD09CE09DF09A00BB10B21601A9436
:105A2000E1F62EF49401AF01BE01CD01000C089502
:105A300060957095809590953095409550952195FD
:105A40003F4F4F4F5F4F6F4F7F4F8F4F9F4F089587
:105A50002F923F924F925F926F927F928F929F927E
:105A6000AF92BF92CF92DF92EF92FF920F931F936C
:105A7000CF93DF93CDB7DEB7CA1BDB0B0FB6F8941D
:105A8000DEBF0FBECDBF09942A88398848885F845D
:105A90006E847D848C849B84AA84B984C884DF80CE
:105AA000EE80FD800C811B81AA81B981CE0FD11DB2
:105AB0000FB6F894DEBF0FBECDBFED010895002EE6
:105AC000083090F0982F872F762F652F542F432F73
:105AD000322F22270850F4CF220F331F441F551FA7
