:100000000C94E0000C9479090C9408010C940801FC
:100010000C9408010C9408010C9408010C94BC0881
:100020000C9408010C9408010C9408010C9408012C
:100030000C9408010C9408010C940A010C9408011A
:100040000C9408010C9408010C94FD080C94080110
:100050000C9408010C9408010C9408010C940801FC
:100060000C941F180C9408016B0E780E7C0E820EF7
:10007000880E9D0EA60EAD0EB20EB80EB80EB80EBE
:10008000B80EB80EB80EB80EB80EB80EB80EB80E40
:10009000B80EB80EB80EB80EB80EB80EB80EB80E30
:1000A000B80EB80EB80EB80E6B0E710E780E7C0E30
:1000B000820E880E8E0E920E970E6E616E00696E25
:1000C000660000407A10F35A00A0724E1809001022
:1000D000A5D4E80000E87648170000E40B540200BD
:1000E00000CA9A3B000000E1F505000080969800E8
:1000F000000040420F000000A08601000000102711
:1001000000000000E80300000000640000000000A0
:100110000A00000000000100000000002C76D888D2
:10012000DC674F0823DFC1DFAE59E1B1B796E5E3E5
:10013000E453C63AE651997696E8E6C28426EB89FE
:100140008C9B62ED407C6FFCEFBC9C9F40F2BAA59B
:100150006FA5F490055A2AF75C936B6CF9676DC133
:100160001BFCE0E40D47FEF520E6B500D0ED902E37
:100170000300943577050080841E080000204E0A95
:10018000000000C80C333333330F986E12831141D3
:10019000EF8D2114893BE65516CFFEE6DB18D1849E
:1001A0004B381BF77C1D901DA4BBE42420328472C5
:1001B0005E228100C9F124ECA1E53D278E20A2201A
:1001C00011241FBECFEFD8E0DEBFCDBF14E0A0E00A
:1001D000B1E0E6EFFFE402C005900D92A43CB10748
:1001E000D9F727E0A4ECB4E001C01D92A637B2070E
:1001F000E1F710E0C0EED0E004C02197FE010E94BC
:100200001321CE3DD107C9F70E94BF1F0C94F927D7
:100210000C9400001F920F920FB60F9211248F932F
:100220009F93EF93FF938091CD04813019F58091D6
:10023000CC048150E9F48091C9049091CA0480FFF4
:1002400002C0289A01C028988091C9049091CA04DC
:10025000969587959093CA048093C9048091CB04A6
:1002600081508093CB04811102C01092CD0483E0B1
:100270008093CC048091CF04811152C08091C80436
:100280008823E9F08091C70481508093C7048111CD
:1002900047C01092C8041092CE04E091D104F0E05F
:1002A0008091C604EE52FB4F80838091D1048F5F12
:1002B0008093D1048032A0F11092D10431C080919A
:1002C000CE04811110C019992BC081E08093CE0417
:1002D0001092C60494E09093C70498E09093C504EC
:1002E0008093C4041DC08091C7048150B9F48091EB
:1002F000C404199B05C09091C604982B9093C60422
:10030000880F8093C4048091C50481508093C504F4
:10031000811103C081E08093C80483E08093C70407
:10032000FF91EF919F918F910F900FBE0F901F90B3
:1003300018951092CD041092CE041092CF04289AF2
:10034000209A21989FB7F89481E287BD82E084BD0E
:1003500085BDEEE6F0E080818260808316BC9FBFA1
:1003600008951092CF04089581E08093CF040895FA
:100370009091D0048091D1049817E1F3E92FF0E037
:10038000EE52FB4F80819F5F903218F49093D0041F
:1003900008951092D00408959091D10481E02091A5
:1003A000D004291301C080E008951092D104109266
:1003B000D00408959091CD0481E0913009F080E05F
:1003C00008959091CD049130E1F393E09093CC04A3
:1003D0009AE09093CB04880F990B92609093CA0493
:1003E0008093C90481E08093CD040895CF93DF9377
:1003F000EC018991882319F00E94E101FACFDF9185
:10040000CF910895CF93DF93FC018491EF01219662
:10041000882321F00E94E101FE01F7CFDF91CF9107
:100420000895CF93DF93D82FC62F60E083E40E9416
:1004300042088D2F0E94CB058C2F0E94CB05C82F20
:1004400060E083E40E941E088C2FDF91CF91089515
:1004500060E08F770C9411028AE10E94280240919B
:10046000F4045091F5046091F6047091F70441157D
:10047000514A6C4B734310F09DE901C094EA891B0B
:10048000089589E10E94280285958595089583E164
:100490000E9428029091F304891B08950E9447024C
:1004A000882341F08091F3048F5F8093F30480E010
:1004B0000C9428028FEF08958EE10E942802829505
:1004C0008F7008958DE10E94280290E034E09595A8
:1004D00087953A95E1F78A3091057CF4FC01EE0F9F
:1004E000FF1F8E0F9F1FFC01E95FFE4F80819181EE
:1004F000A281BC018A2F90E0089560E271EA87E052
:1005000090E008958F929F92AF92BF92CF92DF9228
:10051000EF92FF9288E20E9428028770C82ED12CA9
:10052000E12CF12CFE2CED2CDC2CCC2489E20E9459
:100530002802C80ED11CE11CF11CFE2CED2CDC2C79
:10054000CC248AE20E942802C80ED11CE11CF11CB6
:1005500088E20E94280283FF03C088E0E81AF108BD
:100560000E9462024B015C01C701B6010E941F2379
:1005700020E030E040E85BE40E94AB2320E034E27E
:1005800044EF5BE40E9475226B017C01C501B4015C
:100590000E941D2320E034E244EF58E40E947522BB
:1005A0009B01AC01C701B6010E94AB230E94E72268
:1005B000FF90EF90DF90CF90BF90AF909F908F9083
:1005C000089580680C94110263E881E80E9411028A
:1005D00082E10E94280283FD07C08FE19EE401971B
:1005E000F1F700C00000F4CF68E082E90E94110238
:1005F00081E00895DF92EF92FF920F931F93CF93C4
:10060000DF93F82ED92EC62F82E20E942802D82F1F
:100610008C2F90E08D0F911D8F3F910519F010F0F8
:10062000CD2FC095EF2C0F2D1D2D802F8E198C17DF
:1006300038F4F80161918F0180E80E941102F5CF32
:100640006C2F6D0F82EA0E9411028C2FDF91CF91E7
:100650001F910F91FF90EF90DF900895CF93DF935C
:100660000E944702882371F08DE00E942802D82F53
:1006700080E00E942802C82F6D2F8DE80E94110291
:100680008C2F01C08FEFDF91CF91089561E881E851
:100690000C94110260E881E80C9411020C944A0356
:1006A000823020F0823118F081E101C082E0825076
:1006B000682F606889E80C941102AF92BF92CF92C4
:1006C000DF92EF92FF920F931F93CF93DF9360938C
:1006D000F4047093F5048093F6049093F704DC011E
:1006E000CB019C01AD0160E070E080E090E003E1AF
:1006F0000E94C221A12CE8E4BE2EF8EECF2EDD240C
:10070000D394E12CF12C00E010E00E942E21C22FA6
:10071000B32E6A017B01182FD92F00E10E94DD2141
:10072000622F86E80E9411022C2F3B2DA601B701F3
:10073000812F9D2F08E00E94DD21622F87E80E9413
:1007400011026C2F88E8DF91CF911F910F91FF90DC
:10075000EF90DF90CF90BF90AF900C941102CF92AA
:10076000DF92EF92FF926B017C0160E083E40E94D4
:10077000FA0760E083E40E941E0861E083E40E94BF
:10078000FA0761E083E40E9442088FE19EE401974A
:10079000F1F700C0000061E083E40E941E088FE1D1
:1007A0009EE40197F1F700C0000082E40E94280255
:1007B000823109F50E944A03C701B6010E945D0318
:1007C00060E08EE80E94110260E08FE80E94110252
:1007D0008CE00E942802682F63608CE80E9411025E
:1007E00064E086EA0E94110284E10E9450030E94A4
:1007F000460381E001C080E0FF90EF90DF90CF9052
:1008000008950F9362E082E40E94FA0762E082E4B6
:100810000E94420800E020E040E061E080E00E94A9
:10082000A60560EC7AEC89E896E30E94AF0381119B
:1008300005C085E491E00E940526FFCF0F91089541
:10084000CF93853028F0C82F893018F0C8E001C058
:10085000C5E08DE10E9428026C2F70E064507109A0
:10086000660F771F817F682B8DE9CF910C94110261
:10087000CF93C82F692F80EA0E9411026C2F81EA62
:10088000CF910C941102682F89EB0C9411028EE128
:100890000E942802682F64608EE90C9411028EE198
:1008A0000E942802682F6B7F8EE90C94110210922F
:1008B000F2048DE10E942802682F6E7F8DE90C946E
:1008C000110281E08093F2048DE10E942802682FDA
:1008D00061608DE90C941102CF93C82F0E944603EA
:1008E000CC2319F00E94610402C00E94570460E00A
:1008F0008DE80E94110260E082EA0E94110281E00C
:10090000CF9108951F93CF93DF93EC01162F0E9490
:10091000010480E00E946C04612FCE010E94FA0263
:100920000E94E402DF91CF911F910C944A03CF9370
:10093000DF93D82F82E10E942802C82FDD2339F0EF
:100940000E9461046D2F82EA0E94110202C00E947F
:1009500057046C2F82E90E941102C6FF18C0C5FD22
:1009600016C01092F3048091F204882311F082E201
:1009700001C083E10E942802C82F80E10E94280262
:10098000682F8DE80E9411020E9446030FC081E08B
:100990000E942802863841F060E08DE80E94110232
:1009A00066E881E80E941102C0E0D0E08C2FDF9160
:1009B000CF910895CF93DF93EC01181619063CF4FC
:1009C0000E9461046C2F82EA0E94110202C00E9400
:1009D000570465E881E8DF91CF910C941102CF9222
:1009E000DF92EF92FF92CF93DF930E9462026B013E
:1009F0007C010E945C02D82F86E20E942802C82F48
:100A0000A701960104C05695479537952795DA9525
:100A1000D2F768EE73E080E090E00E94F1206C2F46
:100A2000213131054105510510F0686001C0677F33
:100A300086EADF91CF91FF90EF90DF90CF900C94FA
:100A40001102CF93C82F863020F08D3060F48630AD
:100A500059F465EC81EB0E9411026CE087EB0E9477
:100A60001102C6E009C0CCE063EC81EB0E941102E8
:100A70006AE087EB0E9411028EE10E9428028F70CB
:100A800090E1C99F90011124682F622B8EE90E948A
:100A90001102CF910C94EF04CF9369372EE17207C6
:100AA0008105910590F1613A28E27207810591056F
:100AB00070F1613F2CE372078105910550F16134BB
:100AC00021E572078105910530F163312AE772074C
:100AD0008105910510F1653E22EA720781059105B5
:100AE000F0F0653224EF720781059105D0F069348A
:100AF00028EE720721E082079105A8F06139704D58
:100B00008340910590F0C9E011C0C0E00FC0C1E082
:100B10000DC0C2E00BC0C3E009C0C4E007C0C5E01F
:100B200005C0C6E003C0C7E001C0C8E08DE10E9477
:100B300028028F7090E1C99F90011124682F622BC9
:100B40008DE90E941102CF910C94EF040F9394B1A0
:100B5000986294B924982C9A437094E0499FA0011C
:100B6000112423702064422BA62FA170B0E094E0E2
:100B7000AA0FBB1F9A95E1F74A2BE82FE170F0E02E
:100B800025E0EE0FFF1F2A95E1F7E42BECBD017085
:100B90000DBD0F9108958EBD0DB407FEFDCF8EB52E
:100BA0000895BF92CF92DF92EF92FF920F931F931F
:100BB000CF93DF93EC01BB24B39488E8C82E83E184
:100BC000D82EE12CF12C02E310E08DA99EA92BA9CF
:100BD0003CA928173907B9F12CAD222319F021308F
:100BE00069F027C0FE01E80FF91F81818B3711F5ED
:100BF000BCAEC8AED9AEEAAEFBAE1CC0FE01E80F7B
:100C0000F91F61818BEA95E06D3739F40E94921AE1
:100C10008BEA95E00E94271A0CC00E94921A81115B
:100C200008C088AD99ADAAADBBAD892B8A2B8B2BA3
:100C300009F41CAE8DA99EA90196B8010E94DD2081
:100C40009EAB8DABC2CFDF91CF911F910F91FF90E3
:100C5000EF90DF90CF90BF900895FC0187A9882383
:100C600089F040AD51AD62AD73AD411551056105DF
:100C7000710541F0415051096109710940AF51AF0F
:100C800062AF73AF0895CF92DF92FF920F931F93DD
:100C9000CF93DF93EC018091F9048E010E5F1F4F1B
:100CA000882309F47EC08BE7888383E489831F92BD
:100CB00082E08F9386E691E09F938F931F930F932B
:100CC0000E943526BC016F5F7F4F600F711FF801D6
:100CD000E80FF91F3CE2F32EF08289EF94E00E94C6
:100CE000E70BBC016F5F7F4FFC01F08289EF94E05E
:100CF0000E94060CBC016F5F7F4FFC01F08289EF00
:100D000094E00E94E8116C01FFEFCF1ADF0AFC01AA
:100D1000F0821092620580916A058F938091690537
:100D20008F93809168058F93809167058F938CE5F1
:100D300091E09F938F93DF92CF920E9435268C0192
:100D40000F5F1F4F0C0D1D1DF601E80FF91FF082FC
:100D5000809107068F93809106068F9380910906F4
:100D60008F93809108068F9380910B068F938091CB
:100D70000A068F9380E691E09F938F931F930F93C2
:100D80000E943526F801E80FF91F8DE78083118254
:100D90008DB79EB748960FB6F8949EBF0FBE8DBF15
:100DA0004AC08BE7888383E489831F9282E08F9314
:100DB00086E691E09F938F931F930F930E943526B1
:100DC0006801C80ED91E2CE2F22EF601F0820196BF
:100DD00069E671E0800F911F0E942B258601085F54
:100DE0001F4FF601F782809107068F9380910606C8
:100DF0008F93809109068F93809108068F9380913D
:100E00000B068F9380910A068F9380E691E09F9363
:100E10008F931F930F930E943526F801E80FF91F57
:100E20008DE7808311828DB79EB740960FB6F894F8
:100E30009EBF0FBE8DBFDF93CF9380E791E09F935E
:100E40008F930E94E825FE0101900020E9F7319779
:100E5000CF018C1B9D0BEC019F938F9388E891E051
:100E60009F938F930E94E825EDB7FEB738960FB693
:100E7000F894FEBF0FBEEDBFCE01DF91CF911F9161
:100E80000F91FF90DF90CF900895E5EFF5E083E1BB
:100E900090E097A386A315A214A213A212A2109207
:100EA0003E0610923D0683E090E090933C068093CE
:100EB0003B0610923A061092390684E190E090AF1A
:100EC00087AB16AA15AA14AA13AA08958EE496E071
:100ED0000E942D0680914A0690914B06A0914C06E7
:100EE000B0914D060097A105B10559F00197A109F0
:100EF000B10980934A0690934B06A0934C06B09399
:100F00004D0689EF94E00C94D31180934E06209106
:100F1000810630918206F901E25BF94F8183C901B4
:100F20000196823391052CF490938206809381067A
:100F30000895109282061092810608950E9401047D
:100F400080E395E7A0E0B0E080934A0690934B06DB
:100F5000A0934C06B0934D0680914A0690914B06A3
:100F6000A0914C06B0914D06892B8A2B8B2BD1F08A
:100F700080E00E949704882379F389E991E00E9438
:100F800005260E944702882329F00E944E020E94F3
:100F90008507F7CF8EE496E00E94D1058091F80492
:100FA0008823D1F20895833479F08434C1F08234F7
:100FB00001F524B181E090E001C0880F6A95EAF75D
:100FC0008095822384B9089527B181E090E001C023
:100FD000880F6A95EAF78095822387B908952AB128
:100FE00081E090E001C0880F6A95EAF7809582233E
:100FF0008AB90895833471F08434B1F08234E9F40D
:1010000024B181E090E001C0880F6A95EAF7822B55
:1010100084B9089527B181E090E001C0880F6A95F6
:10102000EAF7822B87B908952AB181E090E001C0E8
:10103000880F6A95EAF7822B8AB90895833471F094
:101040008434B1F08234E9F425B181E090E001C04C
:10105000880F6A95EAF7822B85B9089528B181E057
:1010600090E001C0880F6A95EAF7822B88B908954D
:101070002BB181E090E001C0880F6A95EAF7822BDE
:101080008BB90895833479F08434C1F0823401F54A
:1010900025B181E090E001C0880F6A95EAF780955C
:1010A000822385B9089528B181E090E001C0880FBE
:1010B0006A95EAF78095822388B908952BB181E07B
:1010C00090E001C0880F6A95EAF7809582238BB97A
:1010D0000895442319F0413019F008950C94420802
:1010E0000C941E08833431F0843431F08234B1F42E
:1010F00023B103C026B101C029B181E090E0062EE2
:1011000002C0880F991F0A94E2F730E082239323EC
:1011100002C0959587956A95E2F7089581E0089554
:101120000895E1E8F0E08081826080830895109264
:1011300081000895809184002091850090E0922B99
:101140009695879508951092B200E0EBF0E08081CB
:10115000826080838EE38093B30017BAE0E7F0E00B
:10116000808182608083E1EBF0E080818560808314
:1011700008951092B10008951F920F920FB60F922A
:1011800011242F933F934F935F936F937F938F938C
:101190009F93AF93BF93EF93FF930E94660717BA95
:1011A00080918C0690918D06A0918E06B0918F064D
:1011B0000196A11DB11D80938C0690938D06A0937E
:1011C0008E06B0938F06FF91EF91BF91AF919F91E3
:1011D0008F917F916F915F914F913F912F910F90E0
:1011E0000FBE0F901F90189560918C0670918D0620
:1011F00080918E0690918F0608951F920F920FB6E0
:101200000F9211242F933F934F935F936F937F938C
:101210008F939F93AF93BF93EF93FF938091C600FB
:1012200080938B0680918B060E94850782E08093D5
:10123000C000FF91EF91BF91AF919F918F917F91EE
:101240006F915F914F913F912F910F900FBE0F9033
:101250001F901895809190069091910690936F073A
:1012600080936E0783E38093C4001092C50088E9E1
:101270008093C10082E08093C00008959091C000E7
:1012800095FFFCCF8093C6000895909100019923AB
:1012900029F00E943E0980E090E0089581E090E00E
:1012A0000895EF92FF920F931F93CF93DF937C01EA
:1012B0008B01EC01CE018E199F098017910724F450
:1012C00089910E943E09F6CFC801DF91CF911F910D
:1012D0000F91FF90EF90089583B7816083BF83B72C
:1012E000817F846083BF7894889583B78E7F83BF26
:1012F00008951F920F920FB60F921124E09A0F904B
:101300000FBE0F901F9018950F931F93CF93DF93ED
:10131000EC018B010E949A08998388831B830A83BE
:10132000DF91CF911F910F910895CF93DF93EC013F
:101330000E949A084A815B8141155105A9F02881D4
:1013400039812817390728F4BC01621B730B9B01F4
:1013500005C0821B930B9C012150304881E024176B
:10136000350718F480E001C081E0DF91CF91089546
:10137000FC0110821182138212821482158216825D
:101380001782108612861186138614861586168695
:101390001786118A108A128A138A148A158A168A65
:1013A000108E178A118E128E138E148E158E12A225
:1013B00013A214A215A216A217A210AA11AA12AA69
:1013C00013AA14AA15AA16AE17AEDC01DE9616965D
:1013D0001D921D921D921C9219971E961C92119699
:1013E0001C92119716961D921D921D921C92199790
:1013F0001E961C9211961C92119716961D921D9284
:101400001D921C9219971E961C9211961C92119770
:1014100016961D921D921D921C9219971E961C9253
:1014200011961C92119716961D921D921D921C9258
:1014300019971E961C9211961C9211961C9250960A
:1014400082E08C9311961C9211961C9211961C921C
:10145000119611961C921E92129611961C921E9233
:1014600012961D921D921D921C92139714961D9216
:101470001D921D921C92139714961D921D921D92FF
:101480001C92139714961D921D921D921C921397F5
:1014900014961D921D921D921C921397E957FF4FAF
:1014A000108208952FEB260F862F062E000C990B25
:1014B000263010F4C79708956156663018F48755A2
:1014C00091090895C0970895FF920F931F93CF93AA
:1014D000DF93EC01F8802DE2F21201C02196CE01DB
:1014E0000E9418249B01AC01A4E6B0E00E941921DF
:1014F000FE014991242F042E000C330B2053310997
:101500002A303105A8F34E3241F52181022E000C1C
:10151000330B205331092A303105F8F44AE0429F59
:101520008001439F100D1124012E000C220B330B60
:10153000600F711F821F931F0281002E000C110B80
:10154000005311090A30110540F4012E000C220B42
:10155000330B600F711F821F931F2DE2F21207C021
:1015600090958095709561957F4F8F4F9F4FDF913C
:10157000CF911F910F91FF9008952F923F924F921C
:101580005F926F927F928F929F92AF92BF92CF9213
:10159000DF92EF92FF920F931F93CF93DF93D82F99
:1015A000C92F8B010E94182424E630E040E050E06F
:1015B0000E94F12049015A019B01AC0160E876E9E3
:1015C00088E990E00E94AD206B017C01F8019182D6
:1015D0008082ED2FFC2F2191822F022E000C990B7F
:1015E000C0970A97C0F32E3239F51F0180E8882E84
:1015F00086E9982E88E9A82EB12C9AE0492E512C24
:10160000612C712CF101C1911F010C2E000CDD0B1E
:10161000E097CA30D10580F4C501B401A30192015D
:101620000E94F12049015A01DE010E942421C60EC8
:10163000D71EE81EF91EE6CFA5E0B0E0A70196018F
:101640000E9419216F5F7F4F8F4F9F4F23E030E043
:1016500040E050E00E94F120F8012283338344836C
:1016600055831682DF91CF911F910F91FF90EF90DC
:10167000DF90CF90BF90AF909F908F907F906F90B2
:101680005F904F903F902F90089520E030E044E32A
:1016900051E40E94092220E030E044EB51E40E9432
:1016A00075220E94E722CB0160E170E00E94DD20FC
:1016B000FC01EE0FFF1FEB5DFE4F808191810895CD
:1016C000CF93DF93EC0187E0FE017096DE01129666
:1016D00001900D928A95E1F787E0FE017796DE0191
:1016E000199601900D928A95E1F70E94F4086E8F89
:1016F0007F8F88A399A381E089838883DF91CF912D
:1017000008959B01BC01605F7F4FC9010C94BD0A25
:101710009B01BC01695E7F4FC9010C94BD0ACF9249
:10172000DF92EF92FF92CF93DF93EC0119826C81ED
:101730007D818E819F810E941D2328E23BE64EE63B
:101740005EE40E9475226B017C016A817B8180E0EE
:1017500090E00E941D239B01AC01C701B6010E94CD
:101760000922288521119058DF91CF91FF90EF90A9
:10177000DF90CF900895CF92DF92EF92FF92CF93B8
:10178000DF93EC0119826B857C858D859E850E9497
:101790001D2328E23BE64EE65EE40E9475226B01C3
:1017A0007C0169857A8580E090E00E941D239B0181
:1017B000AC01C701B6010E9409222F852111905862
:1017C000DF91CF91FF90EF90DF90CF900895CF936E
:1017D000DF93EB010E948F0B9F938F937F936F9307
:1017E00085EC92E09F938F93DF93CF930E943526F1
:1017F0002DB73EB7285F3F4F0FB6F8943EBF0FBEE0
:101800002DBF8C0F9D1FDF91CF910895CF93DF9354
:10181000EB010E94BB0B9F938F937F936F9385EC9B
:1018200092E09F938F93DF93CF930E9435262DB73D
:101830003EB7285F3F4F0FB6F8943EBF0FBE2DBF97
:101840008C0F9D1FDF91CF910895CF93DF93EC0113
:101850008E819F81A885B9858A839B83AC83BD8354
:101860000E94F4086A877B878C879D8781E0898343
:101870008883DF91CF910895CF93DF93EC018E8120
:101880009F81A885B9858A839B83AC83BD830E9491
:10189000F4086A877B878C879D8781E089838883AA
:1018A000DF91CF910895CF93DF93EC01CB010E949C
:1018B000640A6E837F8388879987DF91CF9108952B
:1018C000CF93DF93EC01CB010E9418246E837F83BA
:1018D00088879987DF91CF910895FC0111826281F9
:1018E00073818481958124E630E040E050E00E94DD
:1018F000F120CB018053984F0895CF92DF92EF9261
:10190000FF92FC011182628173818481958124E6BA
:10191000C22ED12CE12CF12CA70196010E94F120BE
:10192000CA01B901A70196010E94F120862FFF90FC
:10193000EF90DF90CF900895FC0111826281738156
:101940008481958120E137E240E050E00E94F1205F
:10195000822F0895FC0111826281738184819581B7
:1019600020E432E44FE050E00E94F120822F0895FD
:10197000FC011182628173818481958120E137E2CB
:1019800040E050E00E94F120CA01B90124E630E0B5
:1019900040E050E00E94F120862F0895CF92DF9220
:1019A000EF92FF92FC0111826281738184819581A3
:1019B00024E6C22ED12CE12CF12CA70196010E9425
:1019C000F120CA01B901A70196010E94F120862FDA
:1019D000FF90EF90DF90CF900895FC01118262811B
:1019E00073818481958124E630E040E050E00E94DC
:1019F000F120862F0895CF93DF93EC018A859B8594
:101A0000AC85BD858E839F83A887B9870E94F40823
:101A10006A837B838C839D8381E089838883DF91C4
:101A2000CF910895CF93DF93EC01CB010E94640A1C
:101A30006A877B878C879D87DF91CF910895CF93AD
:101A4000DF93EC018A859B85AC85BD858E839F8362
:101A5000A887B9870E94F4086A837B838C839D835F
:101A600081E089838883DF91CF910895CF93DF93BD
:101A7000EC01CB010E9418246A877B878C879D87A5
:101A8000DF91CF910895CF93DF93EC01BC01409695
:101A90000E942B250E94F40868A379A38AA39BA324
:101AA00081E08DA38CA3DF91CF91089540E150E0B8
:101AB0000C943225BF92CF92DF92EF92FF920F9358
:101AC0001F93CF93DF93EC01FC01EA57FF4FB080E7
:101AD000BB2009F499C0319660810E94520A182FE8
:101AE000FE01E857FF4F6081CE010E94520A40E19B
:101AF000149F800D1124FE01EB57FF4F9081891335
:101B000074C0B59680819181A281B3810196A11D97
:101B1000B11D80839183A283B3838E0107561F4F2B
:101B2000D8018C91882361F0389780819181A281BE
:101B3000B3810196A11DB11D80839183A283B383DC
:101B4000FE01EA56FF4F80818823C9F0813089F574
:101B5000CE0182960E94250CCE01C0960E943C0CBC
:101B6000F8018081882329F1CE010E94600BCE010B
:101B7000CE960E94FB0CCE01845B9F4F18C0CE0115
:101B8000C0960E943C0CD8018C91882341F0CE0174
:101B90000E94600BCE01865A9F4F0E94FB0CCE0123
:101BA00088599F4F0E941F0DCE018A589F4F0E9457
:101BB000FB0C8E0104561F4FF801C081D181209784
:101BC00009F407C1D801ED91FC9166A177A18EA11E
:101BD0009FA10E942225892B09F0FBC0CE010E9403
:101BE000430D0AA4DBA5C02DEACFCA55DF4F88817B
:101BF0009981AA81BB810196A11DB11D888399831A
:101C0000AA83BB83B12CE5C07C01B7E9EB0EF11CC4
:101C1000F70130818A569F4F6C018E0104561F4F89
:101C200031113EC07E0197E8E90EF11C6AEC72E0CA
:101C3000C7010E942225892B39F060ED72E0C701AF
:101C40000E942225892B11F481E012C066ED72E01A
:101C5000C7010E942225892B39F06CED72E0C70183
:101C60000E942225892B19F4F601108203C082E01C
:101C7000D6018C93C656DF4F88819981F8019183F4
:101C80008083C081D181209709F4A3C0B7018EA1C0
:101C90009FA10E94222597FF97C08AA59BA5EECF02
:101CA000DC01EC91E23009F463C0CE0189579F4F0B
:101CB000DC012C91222309F45BC0B0E2EB9FF00120
:101CC0001124E32B3197E932F10508F051C0EC5CA7
:101CD000FF4F0C941321BC01CE01C0960E94530CFF
:101CE00047C0FE01E756FF4F81E0213461F52CC06B
:101CF000BE01605F7F4F09C081E0233509F080E0BD
:101D00008E8B36C0BE01695E7F4F0E94BD0A30C017
:101D100081E0273509F080E08D8F2AC0BC01CE011B
:101D2000CE9624C0BC01CE01845B9F4F1FC0BC0176
:101D3000CE0182960E94600C1BC0FE01E756FF4F49
:101D400081E021330CF480E0808312C0BC01CE011D
:101D500088599F4F0E94360D0BC0BC01CE018A5896
:101D60009F4F04C0BC01CE01865A9F4F0E94120DA6
:101D7000F801C080D180C957DF4FC114D10449F1A7
:101D8000D801ED91FC9166A177A1F60186A197A1FA
:101D90000E942225892BE9F4D60198962D913C9139
:101DA0009997F701808190E08217930794F02817A4
:101DB000390721F4BE01C6010E94560DD6019A963C
:101DC000CD90DC909B97D9CF892B19F0D8011D922B
:101DD0001C928B2DDF91CF911F910F91FF90EF906F
:101DE000DF90CF90BF900895DF92EF92FF920F9314
:101DF0001F93CF93DF939C01FC01E256FF4F80813C
:101E00009181A281B3810196A11DB11D808391832F
:101E1000A283B383C90188569F4F7C01E901CA5749
:101E2000DF4F643279F12CF46A3069F06D30C9F516
:101E30000AC06A3241F06C32A1F5F901EB57FF4F4D
:101E4000808186278083D62E8901F70180818F309B
:101E500050F4F901E80FF11DE957FF4F1082C90155
:101E60000E945A0D01C080E0F801E956FF4F9081B1
:101E70009F5F9083F701108291E0FAE2DF1290E019
:101E8000988327C0FC011082F901E956FF4F1082A8
:101E900072971082719682E0808318823396108246
:101EA00017C0F70180818E3048F491E0980F90833D
:101EB000F901E80FF11DE957FF4F60838881811117
:101EC00007C0F901EB57FF4F90816927608301C07C
:101ED00080E0DF91CF911F910F91FF90EF90DF9005
:101EE0000895AF92BF92CF92DF92EF92FF920F933D
:101EF0001F93CF93DF937B015A0169018C01065632
:101F00001F4FF801C081D1812097A9F06EA17FA158
:101F1000C5010E94222597FD0EC0892B29F488A5B2
:101F200099A5C816D9063CF08E01065D1F4F0AA47C
:101F3000DBA5C02DE9CFF701D3A7C2A7F801F18235
:101F4000E082DF91CF911F910F91FF90EF90DF9092
:101F5000CF90BF90AF900895CF93DF93FC01DB014A
:101F600010A211A212A213A214A215A257A346A353
:101F700031A720A790E1EF01892F19928A95E9F7FF
:101F8000BF01605F7F4FEB0119929A95E9F7BF019E
:101F9000CD01DF91CF910C94710F0C94AC0F2FEF0A
:101FA00082E597E0215080409040E1F700C00000BA
:101FB00040E064E084E40E9469082FEB8AED90E041
:101FC000215080409040E1F700C0000041E064E013
:101FD00084E40E9469082FEB8AED90E02150804054
:101FE0009040E1F700C0000040E064E084E40E941B
:101FF00069082FEB8AED90E0215080409040E1F796
:1020000000C0000082EE92E00C94052640E064E0FF
:1020100084E40C94690841E064E084E40C94690869
:102020000E9499010E94B101789408951F93CF9363
:10203000DF93EC01162F0E94101064E084E40E94EC
:102040001E0864E084E40E94FA07CC57DF4F18832F
:10205000DF91CF911F910895EF92FF920F931F93FD
:10206000CF93DF93EC0184EF92E09F938F930E94D4
:10207000E8250F900F908881882309F1CE010E94F6
:10208000BB0B162F072FF82EE92ECE010E948F0BC7
:10209000EF92FF920F931F939F938F937F936F9372
:1020A0008FEF92E09F938F930E94E8258DB79EB7A4
:1020B0000A960FB6F8949EBF0FBE8DBF04C08AE08B
:1020C00093E00E94052683E193E09F938F930E9403
:1020D000E8250F900F908AA1882359F18E010E5D9B
:1020E0001F4FC8010E946D0CF82EE92EC8010E94F6
:1020F0007D0C1BA2EF92FF921F928F936CA17DA18A
:102100008EA19FA120E137E240E050E00E94F12043
:102110001F922F938FE193E09F938F930E94E82566
:102120008DB79EB708960FB6F8949EBF0FBE8DBFB1
:1021300004C082E393E00E94052688A9882309F45D
:1021400084C019AA6AA97BA98CA99DA920E432E4BC
:102150004FE050E00E94F1202A3020F480E390E02C
:102160000E94FE2519AA6AA97BA98CA99DA920E431
:1021700032E44FE050E00E94F1201F922F938CE355
:1021800093E09F938F930E94E8258E01005D1F4F7F
:10219000C8010E94B80C0F900F900F900F908A30DA
:1021A00020F480E390E00E94FE25C8010E94B80C54
:1021B0001F928F938CE393E09F938F930E94E82567
:1021C000C8010E94CE0C0F900F900F900F908A3094
:1021D00020F480E390E00E94FE25C8010E94CE0C0E
:1021E0001F928F9386E691E09F938F930E94E8253C
:1021F00019AA6AA97BA98CA99DA924E630E040E030
:1022000050E00E94F1200F900F900F900F906A30D5
:1022100020F480E390E00E94FE2519AA6AA97BA918
:102220008CA99DA924E630E040E050E00E94F12016
:102230007F936F9385E594E09F938F930E94E825A9
:102240000F900F900F900F9004C08AE093E00E94CF
:10225000052683EC92E0DF91CF911F910F91FF90C3
:10226000EF900C940526BF92CF92DF92EF92FF92EF
:102270000F931F93CF93DF93EC018C0102551F4FF7
:1022800080E197E2A0E0B0E0F80180839183A2832F
:10229000B3831F921F9287E28F9380E18F9382E432
:1022A00093E09F938F930E94E825CE010E94061031
:1022B00018820F900F900F900F900F900F9080E169
:1022C000C82E87E2D82EE12CF12CBB24B394F80160
:1022D00080819181A281B381892B8A2B8B2B09F478
:1022E00044C00E94CC01882331F00E94B801682FBD
:1022F000CE010E94F40EF80180819181A281B38108
:102300008C159D05AE05BF0560F4BB2051F0CE01D4
:102310000E942C10F0EDCF1AF7E0DF0AE108F10877
:10232000B12CF80180819181A281B381C816D906B0
:10233000EA06FB0610F4BB24B3942881222339F269
:10234000BF93AF939F938F938BE593E09F938F936E
:102350000E94E825CE010E940B100F900F900F9065
:102360000F900F900F9081E014C01F921F921F9248
:102370001F928BE893E09F938F930E94E825CE01F4
:102380000E940B100F900F900F900F900F900F90D6
:1023900080E0DF91CF911F910F91FF90EF90DF9040
:1023A000CF90BF900895FC01E255FF4F40815181CD
:1023B00062817381411551056105710541F04150FC
:1023C00051096109710940835183628373830895C0
:1023D000CF93DF93EB01FC01EA58FF4F1182668136
:1023E0007781808591850E941F239F938F937F9390
:1023F0006F938CEB93E09F938F93DF93CF930E9427
:1024000035262DB73EB7285F3F4F0FB6F8943EBF35
:102410000FBE2DBF8C0F9D1FDF91CF9108956AE0F5
:102420000E94BD2020E1829F900D1124892F0895E4
:10243000982F92959F708F702AE0929F800D1124A3
:102440000895CF93C82F88E60E949E198C2F0E9472
:10245000B8190E94A81961E088E60E949119CF91ED
:102460000C940B1ACF93DF93C82FD62F88E60E94C7
:102470009E198D2F0E94B8198C2F0E94B819DF91D8
:10248000CF910C94A819CF93DF9381E10E94211280
:10249000D82F82E10E942112C82F61E18EEE0E94A6
:1024A000321262E18DED0E94321281E10E9421120E
:1024B0008E3E29F482E10E9421128D3D31F081E0AF
:1024C0008093A306DF91CF91089581E08093A406C5
:1024D00061E18D2F0E94321262E18C2FDF91CF914A
:1024E0000C94321262E084E40E94D30762E084E438
:1024F0000E941E08E9E6F0E0808182608083E89A0D
:10250000789408958091A40608958091A306089573
:1025100081E08093A4061092A30608951092A40669
:1025200081E08093A3060895EF92FF920F931F938B
:10253000CF93DF93CDB7DEB729970FB6F894DEBF00
:102540000FBECDBF88E60E949E1980E00E94B81998
:102550000E94A81967E088E60E9491198E010F5F1A
:102560001F4F7E0188E0E80EF11C0E940B1AF80153
:1025700081938F01EE15FF05C1F70E94A81989818B
:102580008F770E94181290E09093930680939206A2
:102590008A810E94181290E0909395068093940689
:1025A0008B810E941812082F10E010939706009359
:1025B00096068D810E94181290E090939906809360
:1025C0009806FE808F2D8F710E94181290E09093D4
:1025D0009B0680939A068F81F7FE06C00E94181210
:1025E00090E08053984F05C00E94181290E08459E3
:1025F000984F90939D0680939C068C810E941812A0
:1026000090E090939F0680939E060115110529F492
:102610001092A2061092A10607C00C30110544F4D6
:102620001093A2060093A10681E08093A00608C043
:102630000C5011091093A2060093A1061092A00657
:1026400082E996E029960FB6F894DEBF0FBECDBFA3
:10265000DF91CF911F910F91FF90EF9008958F928E
:102660009F92AF92BF92CF92DF92EF92FF920F9321
:102670001F93CF93DF93CDB7DEB729970FB6F894AA
:10268000DEBF0FBECDBF7C016B015A0188E60E9400
:102690009E1980E00E94B8190E94A81967E088E698
:1026A0000E9491198E010F5F1F4F4E0188E0880E26
:1026B000911C0E940B1AF80181938F01E815F9050E
:1026C000C1F70E94A819A114B10429F089810E94C0
:1026D0001812F5018083C114D10429F08A810E9467
:1026E0001812F6018083E114F10429F08B810E9415
:1026F0001812F701808329960FB6F894DEBF0FBE3B
:10270000CDBFDF91CF911F910F91FF90EF90DF90A0
:10271000CF90BF90AF909F908F9008951F93CF93CD
:10272000DF93EC0188E60E949E1980E00E94B819B0
:102730008A859B85813D27E0920734F0805D974034
:102740009B878A8710E805C08C5697409B878A87AD
:1027500010E088810E940F120E94B8198A810E949D
:102760000F120E94B8198C810E940F120E94B81992
:102770008C850E940F120E94B8198E810E940F1240
:102780000E94B81988850E940F12810F0E94B81903
:102790008A850E940F120E94B819DF91CF911F9174
:1027A0000C94A8191F93CF93DF93C82FD62F142F03
:1027B00088E60E949E1980E00E94B819812F0E942D
:1027C0000F120E94B8198D2F0E940F120E94B81983
:1027D0008C2F0E940F120E94B819DF91CF911F9188
:1027E0000C94A819CF939091A30691110DC0C82FF6
:1027F00080E00E942112CC2311F08F7701C0806805
:1028000060E0CF910C943212CF9108958091A3068D
:10281000811106C00E9421128095881F8827881F79
:102820000895FF920F931F93CF93DF93FC011082C3
:10283000FB0110822091A406211122C0EB018C0122
:1028400088E60E949E1981E10E94B8190E94A81989
:1028500062E088E60E9491190E94051A882381F09F
:102860000E940B1AF82E0E940B1AF801F082829532
:1028700086958695837099E1899F802D11248883A0
:10288000DF91CF911F910F91FF900895CF93DF9328
:102890009091A40691112EC0C82F88E60E949E191F
:1028A0008EE00E94B8190E94A81961E088E60E9493
:1028B00091190E940B1AD82F88E60E949E198EE06B
:1028C0000E94B8198D2F80620E94B8190E94A81921
:1028D000CC2381F088E60E949E198EE00E94B819F0
:1028E0000E94A81961E088E60E9491190E940B1AC3
:1028F00085FDF0CFDF91CF910895CF93C82F88E663
:102900000E949E1988E08C0F0E94B8190E94A81995
:1029100061E088E60E949119CF910C940B1A0F93F5
:102920001F93CF938C01C0E08C2F0E947D14F8017F
:1029300081938F01CF5FC833B9F7CF911F910F916A
:102940000895CF93DF93C82FD62F88E60E949E1953
:1029500088E08D0F0E94B8198C2F0E94B819DF9162
:10296000CF910C94A8190F931F93CF938C01C0E0C3
:102970006C2FF80181918F010E94A114CF5FC833A1
:10298000B9F7CF911F910F910895CF93C82F8091E0
:10299000A4068823D1F088E60E949E1987E00E9451
:1029A000B8190E94A81961E088E60E9491190E9456
:1029B0000B1ACC2319F0C82FC06102C0C82FCF7EDC
:1029C00088E60E949E1987E01AC088E60E949E1938
:1029D0008EE00E94B8190E94A81961E088E60E9462
:1029E00091190E940B1ACC2321F0C82FCB7FC06411
:1029F00002C0C82FCF7B88E60E949E198EE00E94FD
:102A0000B8198C2F0E94B819CF910C94A819CF93A4
:102A1000DF93EC018091A4068823A9F088E60E9448
:102A20009E1987E00E94B8190E94A81961E088E603
:102A30000E9491190E940B1A8C7FC82B88E60E9475
:102A40009E1987E019C088E60E949E198EE00E94B8
:102A5000B8190E94A81961E088E60E9491190E94A5
:102A60000B1A94E0CC0FDD1F9A95E1F7877EC82BF7
:102A700088E60E949E198EE00E94B8198C2F0E9451
:102A8000B819DF91CF910C94A819CF939091A30618
:102A9000992311F1C82F88E60E949E198FE00E94A9
:102AA000B8190E94A81961E088E60E9491190E9455
:102AB0000B1ACC2319F0C82FC86002C0C82FC77FDB
:102AC00088E60E949E198FE00E94B8198C2F0E9400
:102AD000B819CF910C94A819CF9108958091A406AC
:102AE000882361F060E080E00E94A11461E080E052
:102AF0000E94A11462E080E00C94A11467E080E0E1
:102B00000E94321268E080E00E94321269E080E0A8
:102B10000E9432126AE080E00C9432121F93CF932D
:102B2000DF93883108F057C06C3308F054C04C3341
:102B300008F051C0142FD62FC82F8091A4068823E7
:102B400079F060E08C2F0E94A11461E08D2F0E942B
:102B5000A11462E0812FDF91CF911F910C94A114F9
:102B6000842F0E940F1267E00E9432128D2F0E9464
:102B70000F1268E00E9432128C2F0E940F1269E03F
:102B80000E9432126AE081E80E9432128FE00E94B5
:102B900021126FE08E7F0E94321288E60E949E19F9
:102BA0008EE00E94B8190E94A81961E088E60E9490
:102BB00091190E940B1AC82F88E60E949E198EE078
:102BC0000E94B8198C2F81600E94B819DF91CF91B3
:102BD0001F910C94A819DF91CF911F910895FC01CA
:102BE000892B29F04081628184810C948E1508958F
:102BF000EF92FF920F931F93CF93DF93EC018B0122
:102C00007A018091A4068823B9F0209721F080E012
:102C10000E947D1488830115110529F081E00E942E
:102C20007D14F8018083E114F104E9F082E00E9450
:102C30007D14F701808317C087E00E9421128F77EF
:102C40000E941812F701808388E00E9421128F777A
:102C50000E941812F801808389E00E9421128F7768
:102C60000E9418128883DF91CF911F910F91FF90DE
:102C7000EF900895CF93DF9300D01F92CDB7DEB7CA
:102C8000AE014F5F5F4FBE016E5F7F4FCE01039677
:102C90000E94F815E2E9F6E08B8190E09583848349
:102CA0008A8190E093838283898190E091838083FD
:102CB000CF010F900F900F90DF91CF910895FF9269
:102CC0000F931F93CF93DF9300D01F92CDB7DEB742
:102CD0008091A406882311F180E00E947D14F82ED3
:102CE00081E00E947D14082F82E00E947D14182F3D
:102CF000AE014F5F5F4FBE016E5F7F4FCE01039607
:102D00000E942F138B81F81207C08A81081304C018
:102D100081E09981911771F080E00CC08FE00E94F2
:102D20002112182F117080FF04C06FE08E7F0E9467
:102D30003212812F0F900F900F90DF91CF911F9142
:102D40000F91FF900895CF93DF93FC01DB0186A1E3
:102D500097A127A930AD14964D915C9115978217D4
:102D600093076CF028173907F4F08217930739F4AA
:102D7000C4A1D5A165A976A96C177D07A4F0481751
:102D800059071CF0421753079CF02417350791F49C
:102D900081E012964D915C91139725A936A94217AF
:102DA00053074CF007C04817590764F357FFEDCF9E
:102DB00081E001C080E0DF91CF9108950F931F93D0
:102DC000CF93DF93FC01EB01DC01A85BBF4F2C81AB
:102DD0003D818D919C91820F931F68E170E00E946C
:102DE000DD209C0195838483DF01AA5BBF4F0D9199
:102DF0001C918A819B81800F911F6CE370E00E947F
:102E0000DD20938382834A815B81400F511F4D33C4
:102E100051059CF001968C33910519F093838283C0
:102E20000CC0138212822F5F3F4F2831310519F0F9
:102E30003583248302C015821482DF91CF911F91C4
:102E40000F910895CF93DF93EC01BC016F5E7F4F2C
:102E50000E94DE16BE01CE010E94A31640E0882328
:102E600079F06A818C810E948E158B818F938A8183
:102E70008F938D818F938C818F9385EE93E00EC01D
:102E80006CA18EA10E948E158DA18F938CA18F9322
:102E90008FA18F938EA18F938FE194E09F938F9357
:102EA0000E94E8250F900F900F900F900F900F90B9
:102EB000DF91CF91089510921007449A459AE9EB5B
:102EC000F0E080818E7F808380818D7F80838CE0A5
:102ED0008093B80085E48093BC0078940895880FAF
:102EE0008093BA000895413258F5909110079111DE
:102EF000FCCF91E0909310079FEF9093A50610925E
:102F0000EA06940F9093E906880F816080930F077B
:102F100085EE8093BC00809110078130E1F38091B1
:102F2000EA06841710F44091EA06ABEEB6E0962F5D
:102F3000FB018E2F891B841728F48D918193F9CF83
:102F400080E00895842F0895413248F5909110074C
:102F50009111FCCF32E0309310073FEF3093A5067C
:102F60001092EA064093E906562FABEEB6E0FB015D
:102F70003E2F351B341718F431913D93F9CF482F6C
:102F800050E0440F551F40930F0785EE8093BC001F
:102F9000222339F080911007823019F4F9CF91E0A3
:102FA00011C08091A5068F3F69F08091A5068032FF
:102FB00031F08091A506803321F094E003C092E0C7
:102FC00001C093E0892F0895613288F420911007A1
:102FD000243079F46093C706282FA9ECB6E0FC01F1
:102FE0008E2F821B861738F481918D93F9CF81E063
:102FF000089582E0089580E0089590930C078093EF
:103000000B07089590930E0780930D07089588236A
:1030100011F085EC01C085E88093BC00089585ED32
:103020008093BC008091BC0084FDFCCF10921007FF
:10303000089585EC8093BC001092100708951F92AC
:103040000F920FB60F9211242F933F934F935F93DC
:103050006F937F938F939F93AF93BF93EF93FF9360
:103060008091B900887F803609F495C068F5883270
:1030700009F45BC090F4803109F454C038F488231B
:1030800009F4EEC0883009F44DC0EEC0883109F46F
:103090004CC0803209F45EC0E7C0803409F469C0D6
:1030A00048F4803309F456C0883309F0DDC08093BA
:1030B000A506A1C0803509F450C0883509F45EC06A
:1030C000883409F0D1C0CEC0883909F4BFC0A8F453
:1030D000883709F460C038F4883609F45CC080375A
:1030E00009F459C0C1C0883809F4B0C0803909F466
:1030F00058C0803809F0B8C054C0803B09F47EC085
:1031000038F4803A09F45FC0883A09F477C0ACC05B
:10311000803C09F49FC0883C09F49CC0883B09F4BA
:1031200082C0A2C080910F0711C09091EA068091E1
:10313000E906981708F096C0E091EA0681E08E0F44
:103140008093EA06F0E0E551F94F80818093BB005F
:1031500085EC7DC08093A50685C0E091EA0681E0FC
:103160008E0F8093EA068091BB00F0E0E551F94FA5
:1031700080839091EA068091E90665C0E091EA06B5
:1031800081E08E0F8093EA068091BB00F0E0E5516C
:10319000F94F808367C083E0809310071092A606E2
:1031A000D7CF8091A606803208F050C0E091A606E5
:1031B00081E08E0F8093A6068091BB00F0E0E95578
:1031C000F94F8083C5CF8091A606803230F4E0911C
:1031D000A606F0E0E955F94F10820E940F186091A1
:1031E000A60670E0E0910B07F0910C0787EA96E0E5
:1031F00009951092A6060E94191836C084E08093A3
:1032000010071092C8061092C706E0910D07F091C2
:103210000E0709958091C706811105C081E0809352
:10322000C7061092C906E091C80681E08E0F809310
:10323000C806F0E0E753F94F80818093BB0090917E
:10324000C8068091C706981708F482CF85E8809356
:10325000BC000AC085EC8093BC001092100704C02B
:103260001092A5060E940F18FF91EF91BF91AF91A8
:103270009F918F917F916F915F914F913F912F918E
:103280000F900FBE0F901F901895CF93DF93EC0116
:10329000E0911107F09112073097F1F090913A0701
:1032A000809139079817C0F090E0292F30E0261759
:1032B000370754F4DE01A20FB31F4C91D901A55C6E
:1032C000B84F4C939F5FF1CF10923A076093390744
:1032D000CB01DF91CF910994DF91CF910895E091D7
:1032E0001307F0911407309729F0109217071092E6
:1032F00016070994089510923A0710923907109210
:103300001707109216070C945B170E946F178FE631
:1033100099E10E94021885E499E10E94FD170C943E
:103320007B19462F613208F040E26BE377E00E94A0
:10333000731710923A0780933907089591E090939C
:1033400015078093380710921707109216070895F3
:1033500021E04091160768E177E0809138070E94EC
:10336000A4171092170710921607109215070895C8
:10337000CF93DF931F92CDB7DEB789838091150776
:10338000882391F080911607803298F48091170776
:10339000E82FF0E0E85EF84F998190838F5F80938B
:1033A00017078093160705C061E0CE0101960E94C1
:1033B000E4170F90DF91CF9108950F931F93CF9350
:1033C000DF9320911507222359F0EC018C01060FA1
:1033D000111DC017D10751F089910E94B819F9CF7A
:1033E000DF91CF911F910F910C94E417DF91CF9152
:1033F0001F910F910895FC0101900020E9F731978A
:10340000BF01681B790B0C94DD19809139079091ED
:103410003A07891B089590913A07809139079817C8
:1034200048F4E92FF0E0E55CF84F80819F5F9093CE
:103430003A07089580E0089590931207809311074A
:103440000895909314078093130708950895CF93D8
:10345000DF93CDB7DEB761970FB6F894DEBF0FBE2E
:10346000CDBFFC0181E090E0978B868B84899589A4
:10347000419709F040C081818235C9F58481082EC9
:10348000000C990BC0979E838D838781082E000CBA
:10349000990BC0979C838B838285082E000C990B17
:1034A000C0979A8389838585082E000C990BC09755
:1034B00098878F838089082E000C990BC0979A8774
:1034C000898783E190E0978B868B8389082E000C97
:1034D000990BC0979C878B87CE0101960E948E1313
:1034E00081E08093F8048AE594E00E94052683E752
:1034F00094E00E94052661960FB6F894DEBF0FBED9
:10350000CDBFDF91CF910895FC0124893589233106
:10351000310534F42F5F3F4F358B248B80E00895C5
:1035200081E00895DC015496ED91FC915597E80FE8
:10353000F91F60830C94841AFC01158A148A0C9478
:10354000921AFC0126893789620F731F6431710555
:1035500024F4778B668B80E0089581E00895CF9303
:10356000DF9381E280937C0086E880937A008FEC81
:1035700097E00197F1F700C0000080917A00806425
:1035800080937A0080917A0086FDFCCF8FEC97E0E3
:103590000197F1F700C0000080917A008064809369
:1035A0007A0080917A0086FDFCCFC09178008091EE
:1035B0007900D0E0D82BCE011F921F929F938F935A
:1035C00088E894E09F938F930E94E82580917A0089
:1035D0008F7780937A0080E09CE2BE010E94C92030
:1035E000862F6AE00E94BD20682F70E080E090E0A6
:1035F0000E941F230F900F900F900F900F900F902D
:10360000DF91CF910895AF92BF92CF92DF92EF9268
:10361000FF920F931F93CF93DF93D42EC52EB62E18
:10362000A72EE9012BE7FC0120837C01F2E0EF0EDD
:10363000F11C23E4FC0121831F9282E08F9386E634
:1036400091E09F938F93FF92EF920E9435268C0119
:103650000F5F1F4F0E0D1F1DF701E80FF91F8CE2C2
:10366000F82EF08289818F9388818F938B818F933D
:103670008A818F938D818F938C818F9380E691E0E7
:103680009F938F931F930F930E943526EC012196F1
:10369000C00FD11FF801E80FF91FF082AF92BF925F
:1036A000CF92DF9283E994E09F938F93DF93CF9340
:1036B0000E943526C80FD91F8DE7888319828DB7E0
:1036C0009EB748960FB6F8949EBF0FBE8DBFDF9190
:1036D000CF911F910F91FF90EF90DF90CF90BF900F
:1036E000AF90089567E084E40E94FA0767E084E4FD
:1036F0000E941E082FEF83ED90E321508040904000
:10370000E1F700C0000067E084E40C944208EBE5B8
:10371000F7E083E190E09583848383E090E09383F6
:103720008283118210828BE190E0978386838CE004
:1037300090E09187808785E190E093878287089564
:10374000FC01208531858091630790916407821781
:1037500093070CF446C0281739070CF440C028170B
:103760003907E1F5268137818091610790916207E1
:1037700082179307B4F1281739078CF128173907F6
:1037800069F52481358180915F07909160078217E8
:1037900093073CF12817390714F128173907F1F47A
:1037A0002281338180915D0790915E078217930794
:1037B000C4F0281739079CF02817390779F42081BD
:1037C000318180915B0790915C07821793074CF0E1
:1037D0002817390724F02817390719F0089580E0D1
:1037E000089581E00895CF92DF92EF92FF920F93B8
:1037F0001F93CF93DF93CDB7DEB764970FB6F894DE
:10380000DEBF0FBECDBF0E94AF1A6B017C010E94CC
:10381000871B0E9494128C010E94A01B882319F11F
:1038200088E994E00E9405260E94721B9801B70166
:10383000A6018E010F5F1F4FC8010E94031BF82EC7
:103840001F930F9386EB94E09F938F930E94E8253C
:103850006F2DC8010E9482040F900F900F900F905F
:103860000E946C09FDCF64960FB6F894DEBF0FBEC0
:10387000CDBFDF91CF911F910F91FF90EF90DF901F
:10388000CF900895A0E1B0E0E8E4FCE10C948B2136
:103890007C011B016A01FC0117821682838181FF72
:1038A00044C39E012F5F3F4F3901F7019381F1011E
:1038B00093FD859193FF81911F01882309F431C302
:1038C000853239F493FD859193FF81911F018532F3
:1038D00039F4B70190E00E94AC2556016501E5CFAF
:1038E00010E0512C912CFFE1F915D8F08B3279F0D2
:1038F00038F4803279F08332A1F4F92DF0612EC0D2
:103900008D3261F0803369F4292D21602DC0392D6D
:103910003260932E892D8460982E2AC0E92DE860AC
:1039200015C097FC2DC020ED280F2A3088F496FE94
:1039300006C03AE0139F200D1124122F19C08AE00F
:10394000589E200D1124522EE92DE0629E2E10C0AB
:103950008E3231F496FCE5C2F92DF0649F2E08C03A
:103960008C3621F4292D2068922E02C0883641F42D
:10397000F10193FD859193FF81911F018111B3CFD7
:103980009BEB980F933020F4992D9061805E07C0D7
:103990009BE9980F933008F066C1992D9F7E96FFA2
:1039A00016E09F73992E853619F49064992E08C0FD
:1039B000863621F4392F3068932E02C01111115030
:1039C00097FE07C01C3350F444244394410E27E073
:1039D0000BC0183038F027E017E005C027E09CE363
:1039E000492E02C0212F412C560184E0A80EB11CA3
:1039F000F6016081718182819381042DA3010E946F
:103A00003F246C01F981FC87F0FF02C0F3FF06C080
:103A100091FC06C092FE06C000E205C00DE203C0A4
:103A20000BE201C000E08C858C7019F001115AC2C4
:103A30009BC297FE10C04C0CFC85F4FF04C08A8129
:103A4000813309F44A94141474F528E0241578F5A8
:103A500088E0482E2CC096FC2AC0812F90E08C155F
:103A60009D059CF03CEFC3163FEFD30674F0892D03
:103A70008068982E0AC0E2E0F0E0EC0FFD1FE10F35
:103A8000F11D8081803319F411501111F4CF97FE8C
:103A90000EC044244394410E812F90E0C816D906ED
:103AA0002CF41C1904C04424439401C010E097FE78
:103AB00006C01C141D0434F4C601019605C085E03F
:103AC00090E002C081E090E001110196112331F0F5
:103AD000212F30E02F5F3F4F820F931F252D30E0C5
:103AE0008217930714F4581A01C0512C892D89703C
:103AF00049F4552039F0B70180E290E00E94AC25EE
:103B00005A94F7CF002329F0B701802F90E00E944C
:103B1000AC2593FC09C0552039F0B70180E390E053
:103B20000E94AC255A94F7CF97FE4CC04601D7FEB1
:103B300002C0812C912CC60188199909F301E80F64
:103B4000F91FFE87ED87960124193109388B2F87DD
:103B5000012F10E01195019511093FEF831693068F
:103B600029F4B7018EE290E00E94AC25C814D90474
:103B70004CF08F8598898815990524F4ED85FE858C
:103B8000818101C080E3F1E08F1A91082D853E8587
:103B90002F5F3F4F3E872D87801691062CF0B7018F
:103BA00090E00E94AC25D9CFC814D90441F49A8181
:103BB000963320F4953319F43C8534FF81E3B70143
:103BC00090E04EC08A81813319F09C859F7E9C874E
:103BD000B70190E00E94AC25111105C094FC18C0FB
:103BE00085E690E017C0B7018EE290E00E94AC2518
:103BF0001E5F82E001E0080FF301E80FF11D8081F4
:103C0000B70190E00E94AC25802F0113F3CFE6CFDF
:103C100085E490E0B7010E94AC25D7FC06C0C11432
:103C2000D10441F4EC85E4FF05C0D194C194D108DE
:103C30008DE201C08BE2B70190E00E94AC2580E3E9
:103C40002AE0C216D1042CF08F5FFAE0CF1AD10817
:103C5000F7CFB70190E00E94AC25B701C601C0962E
:103C60000E94AC2554C1833631F0833779F0833517
:103C700009F056C020C0560132E0A30EB11CF60177
:103C80008081898301E010E0630112C05601F2E0F7
:103C9000AF0EB11CF601C080D18096FE03C0612F2B
:103CA00070E002C06FEF7FEFC6010E9441258C01DA
:103CB000F92DFF7714C0560122E0A20EB11CF601C7
:103CC000C080D18096FE03C0612F70E002C06FEF0C
:103CD0007FEFC6010E9417258C01F92DF0689F2EF9
:103CE000F3FD1AC0852D90E008171907A8F4B70155
:103CF00080E290E00E94AC255A94F4CFF60197FC44
:103D0000859197FE81916F01B70190E00E94AC25EB
:103D100051105A94015011090115110579F7F7C096
:103D2000843611F0893661F5560197FE09C024E00A
:103D3000A20EB11CF60160817181828193810AC05B
:103D4000F2E0AF0EB11CF60160817181072E000C0C
:103D5000880B990BF92DFF769F2E97FF09C0909540
:103D60008095709561957F4F8F4F9F4FF0689F2E84
:103D70002AE030E0A3010E945726C82EC6183FC093
:103D8000092D853721F40F7E2AE030E01DC0097F20
:103D90008F3691F018F4883559F0C3C0803719F088
:103DA000883711F0BEC0006104FF09C0046007C07D
:103DB00094FE08C0066006C028E030E005C020E19F
:103DC00030E002C020E132E0560107FF09C084E084
:103DD000A80EB11CF601608171818281938108C0B7
:103DE000F2E0AF0EB11CF6016081718180E090E0DD
:103DF000A3010E945726C82EC6180F77902E96FE54
:103E00000BC0092D0E7FC11650F494FE0AC092FC1F
:103E100008C0092D0E7E05C0DC2C092D03C0DC2C4A
:103E200001C0D12E04FF0DC0FE01EC0DF11D8081FB
:103E3000803311F4097E09C002FF06C0D394D394E5
:103E400004C0802F867809F0D39403FD11C000FFD1
:103E500006C01C2DD51480F4150D1D190DC0D514E8
:103E600058F4B70180E290E00E94AC25D394F7CFDC
:103E7000D51410F45D1801C0512C04FF10C0B70117
:103E800080E390E00E94AC2502FF17C001FD03C053
:103E900088E790E002C088E590E0B7010CC0802F71
:103EA000867859F001FF02C08BE201C080E207FD75
:103EB0008DE2B70190E00E94AC25C11638F4B7013D
:103EC00080E390E00E94AC251150F7CFCA94F30133
:103ED000EC0DF11D8081B70190E00E94AC25C1106E
:103EE000F5CF15C0F4E0F51560F584E0581A93FE9F
:103EF0001FC0011127C02C8523FF2AC00AEB10E048
:103F0000392D3071932EF8018491811124C05520F0
:103F100009F4E4CCB70180E290E00E94AC255A9409
:103F2000F6CFF7018681978126C08FEF9FEF23C0E0
:103F3000B70180E290E00E94AC255A945110F8CF6E
:103F4000D8CF512CB701802F90E00E94AC25D3CF61
:103F50000EEB10E0D5CF91108052B70190E00E9497
:103F6000AC250F5F1F4FCFCF23E0251510F483E062
:103F7000BDCF512CC0CF6096E2E10C94A7210E94E6
:103F80002A098AEA91E00E9405260E947B190E9474
:103F9000431261E089EF94E00E94161089EC91E0F1
:103FA0000E9405260E94450701EE11E0FF24F394CC
:103FB000C1E8D2E00E94A3080E947B190E947212FD
:103FC00046E056E068E076E08AE096E00E942F1333
:103FD000809107068F93809106068F938091090642
:103FE0008F93809108068F9380910B068F93809119
:103FF0000A068F931F930F930E94E8258DB79EB7F3
:1040000008960FB6F8949EBF0FBE8DBF80910A062A
:1040100090910B06892B71F4809108069091090606
:10402000892B41F48091060690910706892B11F4A3
:104030001092F8048091F804811106C083E092E0A8
:104040000E9405260E949E0789EF94E00E9433118A
:1040500089EF94E00E942C108091F804811120C017
:1040600087E392E00E9405268091F9048823C1F03D
:1040700087E692E00E94052689E295E00E94CE0C38
:10408000D82E89E295E00E94B80CE82E89E295E0EE
:104090000E94AA0C4D2D6E2D0E94D213F092F804AE
:1040A00083EC95E00E944306682F83EC95E00E9424
:1040B00082040E94F31B85EF95E00E94221746E0E0
:1040C00056E068E076E08AE096E00E942F13809147
:1040D00007068F93809106068F93809109068F9330
:1040E000809108068F9380910B068F9380910A062A
:1040F0008F93DF93CF930E94E8250E94B90888EA46
:1041000092E00E9405260E946C098DB79EB7089622
:104110000FB6F8949EBF0FBE8DBF4CCFEEE4F6E015
:1041200014AA13AA16AA15AA81E087AB10AE11AE85
:1041300012AE13AE1092C2051092C10589EF94E041
:104140000C94B80960E070E085E499E00E94612574
:1041500090939106809390060895DB018F939F932F
:104160000E941921BF91AF91A29F800D911DA39F25
:10417000900DB29F900D11240895991B79E004C011
:10418000991F961708F0961B881F7A95C9F7809596
:104190000895AA1BBB1B51E107C0AA1FBB1FA6178E
:1041A000B70710F0A61BB70B881F991F5A95A9F7E0
:1041B00080959095BC01CD01089597FB072E16F4CC
:1041C000009407D077FD09D00E94C92007FC05D0D4
:1041D0003EF4909581959F4F0895709561957F4F1E
:1041E0000895A1E21A2EAA1BBB1BFD010DC0AA1F38
:1041F000BB1FEE1FFF1FA217B307E407F50720F050
:10420000A21BB30BE40BF50B661F771F881F991FCA
:104210001A9469F760957095809590959B01AC0113
:10422000BD01CF010895EE0FFF1F0590F491E02D21
:1042300009940E94F921A59F900DB49F900DA49F11
:10424000800D911D11240895B7FF0C9419210E942F
:104250001921821B930B0895689401C0E8948F92F2
:104260009F92CF93DF930E943A21DF91CF919F904D
:104270008F90089588249924F401E401B0E49F9379
:10428000AA279A158B049C04ED05FE05CF05D007DF
:10429000A10798F4AD2FDC2FCF2FFE2FE92D982CFE
:1042A000892E982F872F762F652F542F432F322F4B
:1042B0002227B85031F7BF9127C01B2EBF91BB27D3
:1042C000220F331F441F551F661F771F881F991F1A
:1042D000881C991CEE1FFF1FCC1FDD1FAA1FBB1FD0
:1042E0008A149B04EC05FD05CE05DF05A007B10788
:1042F00048F08A189B08EC09FD09CE09DF09A00BDC
:10430000B10B21601A94E1F62EF49401AF01BE01C5
:10431000CD01000C08952F923F924F925F926F92C1
:104320007F928F929F92AF92BF92CF92DF92EF9245
:10433000FF920F931F93CF93DF93CDB7DEB7CA1BC6
:10434000DB0B0FB6F894DEBF0FBECDBF09942A88F1
:10435000398848885F846E847D848C849B84AA8499
:10436000B984C884DF80EE80FD800C811B81AA8126
:10437000B981CE0FD11D0FB6F894DEBF0FBECDBFF1
:10438000ED0108950F93083090F0982F872F762F26
:10439000652F542F432F322F22270850F4CF220F9E
:1043A000331F441F551F661F771F881F991F0A95CB
:1043B000B2F70F91089597FB10F8169400080F9329
:1043C000083098F00850232F342F452F562F672F91
:1043D000782F892F902DF4CF059497958795779511
:1043E000679557954795379527950A95AAF70F91A1
:1043F0000895A29FB001B39FC001A39F700D811DBE
:104400001124911DB29F700D811D1124911D0895DD
:104410005058BB27AA270E9420220C9471230E9487
:10442000632338F00E946A2320F039F49F3F19F487
:1044300026F40C9460230EF4E095E7FB0C945A23C9
:10444000E92F0E94822358F3BA1762077307840783
:10445000950720F079F4A6F50C94A4230EF4E095CA
:104460000B2EBA2FA02D0B01B90190010C01CA012E
:10447000A0011124FF27591B99F0593F50F4503ED9
:1044800068F11A16F040A22F232F342F4427585FCB
:10449000F3CF469537952795A795F0405395C9F7E3
:1044A0007EF41F16BA0B620B730B840BBAF091509B
:1044B000A1F0FF0FBB1F661F771F881FC2F70EC03A
:1044C000BA0F621F731F841F48F48795779567950D
:1044D000B795F7959E3F08F0B0CF9395880F08F0F9
:1044E0009927EE0F9795879508950E9489220C943D
:1044F00071230E946A2358F00E94632340F029F43C
:104500005F3F29F00C945A2351110C94A5230C946D
:1045100060230E94822368F39923B1F3552391F31A
:10452000951B550BBB27AA2762177307840738F022
:104530009F5F5F4F220F331F441FAA1FA9F335D07F
:104540000E2E3AF0E0E832D091505040E695001C33
:10455000CAF72BD0FE2F29D0660F771F881FBB1FED
:10456000261737074807AB07B0E809F0BB0B802DCB
:10457000BF01FF2793585F4F3AF09E3F510578F0F7
:104580000C945A230C94A5235F3FE4F3983ED4F394
:10459000869577956795B795F7959F5FC9F7880FCB
:1045A000911D9695879597F90895E1E0660F771F1D
:1045B000881FBB1F621773078407BA0720F0621BAE
:1045C000730B840BBA0BEE1F88F7E09508950E94D9
:1045D000EE226894B1110C94A52308950E948A23B9
:1045E00088F09F5798F0B92F9927B751B0F0E1F0B4
:1045F000660F771F881F991F1AF0BA95C9F714C064
:10460000B13091F00E94A423B1E008950C94A4234A
:10461000672F782F8827B85F39F0B93FCCF386959C
:1046200077956795B395D9F73EF4909580957095F9
:1046300061957F4F8F4F9F4F0895E89409C097FB76
:104640003EF490958095709561957F4F8F4F9F4F69
:104650009923A9F0F92F96E9BB279395F6958795AD
:1046600077956795B795F111F8CFFAF4BB0F11F470
:1046700060FF1BC06F5F7F4F8F4F9F4F16C0882317
:1046800011F096E911C0772321F09EE8872F762F4D
:1046900005C0662371F096E8862F70E060E02AF08E
:1046A0009A95660F771F881FDAF7880F969587957A
:1046B00097F9089597F99F6780E870E060E00895A2
:1046C0009FEF80EC089500240A941616170618062A
:1046D0000906089500240A94121613061406050606
:1046E0000895092E0394000C11F4882352F0BB0F97
:1046F00040F4BF2B11F460FF04C06F5F7F4F8F4FFA
:104700009F4F089557FD9058440F551F59F05F3F34
:1047100071F04795880F97FB991F61F09F3F79F0E3
:1047200087950895121613061406551FF2CF469565
:10473000F1DF08C0161617061806991FF1CF8695E7
:104740007105610508940895E894BB2766277727CB
:10475000CB0197F908950E94BE230C9471230E9407
:10476000632338F00E946A2320F0952311F00C9403
:104770005A230C94602311240C94A5230E948223B5
:1047800070F3959FC1F3950F50E0551F629FF001A4
:10479000729FBB27F00DB11D639FAA27F00DB11DBD
:1047A000AA1F649F6627B00DA11D661F829F222746
:1047B000B00DA11D621F739FB00DA11D621F839FCD
:1047C000A00D611D221F749F3327A00D611D231FA3
:1047D000849F600D211D822F762F6A2F11249F57F1
:1047E00050409AF0F1F088234AF0EE0FFF1FBB1FF4
:1047F000661F771F881F91505040A9F79E3F5105B3
:1048000080F00C945A230C94A5235F3FE4F3983E68
:10481000D4F3869577956795B795F795E7959F5F5C
:10482000C1F7FE2B880F911D9695879597F90895EE
:104830001F93FC0199278827BC01E894119110323D
:10484000E9F3193010F01E30C8F31B3251F01D325D
:1048500049F4689406C00E944C25610F711D811DAA
:10486000911D119110531A30B0F33EF4909580953C
:10487000709561957F4F8F4F9F4F1F9108952830FE
:1048800008F027E03327DA01990F311D87FD916089
:1048900000966105710539F432602E5F3D9330E377
:1048A0002A95E1F708959F3F30F080387105610542
:1048B00009F03C5F3C5F3D93913008F08068911DAA
:1048C000DF93CF931F930F93FF92EF92192F987F4F
:1048D0009695E92F96959695E90FFF27E45EFE4F92
:1048E00099273327EE24FF24A701E70105900894B8
:1048F000079428F4360FE71EF81E491F511D660F56
:10490000771F881F991F0694A1F70590079428F434
:10491000E70EF81E491F561FC11D770F881F991FEC
:10492000661F0694A1F70590079428F4F80E491F16
:10493000561FC71FD11D880F991F661F771F06942A
:10494000A1F70590079420F4490F561FC71FD81FE1
:10495000990F661F771F881F0694A9F784911095F9
:10496000177041F0D695C79557954795F794E794FA
:104970001A95C1F7E2ECF0E0689415901591359125
:104980006591959105907FE27395E118F10A430BCB
:10499000560BC90BD009C0F7E10CF11E431F561F7F
:1049A000C91FD01D7EF4703311F48A95E6CFE894C8
:1049B000015030F0080F0AF40027021708F4202FE6
:1049C0002395022F7A3328F079E37D932A95E9F72E
:1049D00010C07D932A9589F606949795679537952B
:1049E00017951794E118F10A430B560BC90BD00920
:1049F00098F023957E9173957A3308F070E37C9359
:104A00002013B8F77E9170617D9330F0839571E348
:104A10007D9370E32A95E1F71124EF90FF900F91B9
:104A20001F91CF91DF91992787FD90950895FC0103
:104A30000590615070400110D8F7809590958E0FC9
:104A40009F1F0895FB01DC018D91019080190110D9
:104A5000D9F3990B0895FB01DC0101900D92002020
:104A6000E1F70895FB01DC014150504048F001900E
:104A70000D920020C9F701C01D9241505040E0F74F
:104A80000895FC016150704001900110D8F78095A5
:104A900090958E0F9F1F0895592F482F372F262F3F
:104AA000660F771F881F991F660F771F881F991F32
:104AB000620F731F841F951F660F771F881F991F32
:104AC00008950F931F93CF93DF93009731F46115EF
:104AD000710519F480E090E03AC08B01EC016EE0C2
:104AE00070E081E090E00E94B526FC01892B91F3F3
:104AF00080E883830115110571F01387028781E82F
:104B0000838380916C0790916D07892B21F4F0933A
:104B10006D07E0936C072097C9F0D187C087838128
:104B20008260838380916E0790916F07892B71F467
:104B3000F0936F07E0936E07809170079091710773
:104B4000892B21F4F0937107E0937007CF01DF9177
:104B5000CF911F910F9108950F931F93CF93DF93E0
:104B6000FB01238121FD03C08FEF9FEF2CC022FFAB
:104B700016C046815781248135814217530744F47A
:104B8000A081B1819D012F5F3F4F318320838C93A2
:104B9000268137812F5F3F4F3783268314C08B01D7
:104BA000EC01FB010084F185E02D0995892BE1F6EC
:104BB000D80116968D919C911797019617969C9304
:104BC0008E931697CE01DF91CF911F910F9108958B
:104BD000A0E0B0E0EEEEF5E20C949B21AE014B5F5D
:104BE0005F4FFA0161917191AF0180916E079091D1
:104BF0006F070E94421CE2E00C94B72160916E079F
:104C000070916F070E94AC2508950F931F93CF9367
:104C1000DF93E0916E07F0916F07238121FF1BC0A6
:104C20008C01D0E0C0E0F80181918F0160916E07A6
:104C300070916F07DB011896ED91FC91199788230D
:104C400031F00995892B79F3DFEFCFEFECCF8AE0D4
:104C50000995892B19F08FEF9FEF02C08D2F9C2FA4
:104C6000DF91CF911F910F910895AEE0B0E0EBE39B
:104C7000F6E20C9499210D891E8986E08C831A83B3
:104C800009838FEF9FE79E838D83AE01475E5F4F61
:104C90006F89788DCE0101960E94421CEF81F885C4
:104CA000E00FF11F10822E96E4E00C94B521FA017A
:104CB000AA27283051F1203181F1E8946F936E7F5B
:104CC0006E5F7F4F8F4F9F4FAF4FB1E03ED0B4E04C
:104CD0003CD0670F781F891F9A1FA11D680F791F8D
:104CE0008A1F911DA11D6A0F711D811D911DA11D9E
:104CF00020D009F468943F912AE0269F11243019AE
:104D0000305D3193DEF6CF010895462F4770405D48
:104D10004193B3E00FD0C9F7F6CF462F4F70405DF7
:104D20004A3318F0495D31FD4052419302D0A9F752
:104D3000EACFB4E0A6959795879577956795BA954C
:104D4000C9F700976105710508959B01AC010A2E12
:104D500006945795479537952795BA95C9F7620FE9
:104D6000731F841F951FA01D08950F931F93CF934A
:104D7000DF93869F8001879F100D969F100D112451
:104D8000C8010E94D126EC01009729F0A80160E03B
:104D900070E00E94F227CE01DF91CF911F910F9119
:104DA00008950F931F93CF93DF938230910510F4F2
:104DB00082E090E0E0917407F091750720E030E028
:104DC000A0E0B0E0309719F1408151810281138158
:104DD00048175907C8F08417950769F4109731F000
:104DE00012960C93129713961C9327C00093740786
:104DF0001093750722C02115310519F0421753078A
:104E000018F49A01BD01EF01DF01F801DBCF211594
:104E10003105F9F0281B390B2430310580F48A81E3
:104E20009B816115710521F0FB019383828304C08E
:104E30009093750780937407FE01329644C0FE017B
:104E4000E20FF31F81939193225031093983288314
:104E50003AC02091720730917307232B41F42091BF
:104E6000030130910401309373072093720720915E
:104E70000101309102012115310541F42DB73EB7F2
:104E80004091050150910601241B350BE0917207FA
:104E9000F0917307E217F307A0F42E1B3F0B2817BE
:104EA000390778F0AC014E5F5F4F2417350748F0A3
:104EB0004E0F5F1F50937307409372078193919336
:104EC00002C0E0E0F0E0CF01DF91CF911F910F91A0
:104ED0000895CF93DF93009709F481C0FC013297C6
:104EE00013821282A0917407B0917507109781F414
:104EF00020813181820F931F2091720730917307B7
:104F00002817390751F5F0937307E093720767C0CC
:104F1000ED0120E030E0CE17DF0740F44A815B81ED
:104F20009E0141155105F1F0EA01F5CFD383C2830B
:104F300040815181840F951FC817D90759F4888182
:104F40009981840F951F0296918380838A819B812A
:104F5000938382832115310529F4F0937507E0933B
:104F600074073DC0E901FB83EA8349915991C40F5D
:104F7000D51FEC17FD0761F480819181840F951F87
:104F80000296E90199838883828193819B838A8336
:104F9000E0E0F0E012968D919C911397009719F044
:104FA000FD01DC01F7CF8D919C9111979D012E5F42
:104FB0003F4F820F931F209172073091730728177C
:104FC000390769F4309729F4109275071092740725
:104FD00002C013821282B0937307A0937207DF910D
:104FE000CF910895DC0101C06D9341505040E0F72E
:064FF0000895F894FFCFC4
:104FF60001000076072000781E00A02800F03C0083
:10500600405100127A00E4A20024F40048E801901E
:10501600D00320A107C103C303C803C703C903CB39
:1050260003CC03CF03D303D503D603D903E303DDB0
:1050360003E203E1035374617274696E67204C6F77
:105046005261206661696C6564210D00256C7500EE
:1050560025643A25643A2564004E4F5F4C4F430061
:105066005061636B65742067656E65726174656413
:105076003A202573200D0A00506B74204C656E672C
:1050860074683A2025640D0A005265636965766581
:1050960064205061636B65740D002D2D2D2D2D2D13
:1050A6002D204D656469756D20436F6C6C617220AF
:1050B6002D2D2D2D2D2D2D0D0052544320616E6466
:1050C6002047505320496E697420446F6E65200D49
:1050D600004D61696E3A2057616B657570205469A1
:1050E6006D653A202564203A202564203A202564FF
:1050F6000D0A004D61696E3A2054696D65206E6F28
:1051060074207365742C2057616974696E67206614
:105116006F722074696D652066726F6D204C6F52D8
:105126006120506B740D004D61696E3A2054696DB3
:10513600652066726F6D204C6F5261206661696CE6
:1051460065642E20436865636B696E67204750531C
:105156002054696D650D004D61696E3A2056616C8B
:1051660069642074696D65206F6E20475053200D69
:10517600004D61696E3A20536C6565702054696D07
:10518600653A202564203A202564203A2025640DBE
:105196000A0D0A0D0A0D0A004D61696E3A20476F25
:1051A600696E6720746F20736C656570206E6F770B
:1051B600200D0A0D00252E3666004750524D43003D
:1051C600474E524D4300475047474100474E4747D9
:1051D60041004750532050756C73652047697665CA
:1051E6006E200D004C6F636174696F6E3A20002566
:1051F60066202C202566200D0A00494E56414C4952
:10520600440D00446174652F54696D653A2000258C
:1052160064202F202564202F2025642020202D2087
:105226002000494E56414C4944200D002564203A41
:10523600200048616E64656C696E67204750532094
:105246004E6F773A20256C750D0A004750532D3E58
:1052560048616E646C65723A2052657475726E2090
:105266005472756520696E206D532054696D6572A0
:105276002061743A20256C750D0A004750532D3E67
:1052860048616E646C65723A2052657475726E2060
:10529600466C61736520696E206D532054696D6597
:1052A600722061743A20256C750D0A00252E32662F
:1052B600004E004E4E4500454E45004553450053B1
:1052C60053450053005353570057535700574E57F3
:1052D600004E4E57007363686564756C652D3E61BC
:1052E6006C61726D48616E646C65723A20547275B9
:1052F600652053657474696E6720616C61726D20F8
:10530600666F723A202564202F2025640D0A0073EB
:1053160063686564756C652D3E616C61726D48618C
:105326006E646C65723A2046616C736520536574D1
:1053360074696E6720616C61726D20666F723A20C7
:105346002564202F2025640D0A00636D642E646594
:10535600746563742D5254432054696D65207365DA
:10536600740D00636D642E6465746563742D3E452B
:10537600786974696E670D004144433A20256C755F
:105386000D0A00252E31660072656C6561736548ED
:10539600616E646C65722D3E52656C656173652045
:1053A60074696D650D0053656E64696E673A2025F4
:0453B600730D0A0069
:00000001FF
