:100000000C94E0000C94AA090C9408010C940801CB
:100010000C9408010C9408010C9408010C94ED0850
:100020000C9408010C9408010C9408010C9408012C
:100030000C9408010C9408010C940A010C9408011A
:100040000C9408010C9408010C942E090C940801DE
:100050000C9408010C9408010C9408010C940801FC
:100060000C9450180C9408019C0EA90EAD0EB30E02
:10007000B90ECE0ED70EDE0EE30EE90EE90EE90E36
:10008000E90EE90EE90EE90EE90EE90EE90EE90EB8
:10009000E90EE90EE90EE90EE90EE90EE90EE90EA8
:1000A000E90EE90EE90EE90E9C0EA20EA90EAD0EA8
:1000B000B30EB90EBF0EC30EC80E6E616E00696E30
:1000C000660000407A10F35A00A0724E1809001022
:1000D000A5D4E80000E87648170000E40B540200BD
:1000E00000CA9A3B000000E1F505000080969800E8
:1000F000000040420F000000A08601000000102711
:1001000000000000E80300000000640000000000A0
:100110000A00000000000100000000002C76D888D2
:10012000DC674F0823DFC1DFAE59E1B1B796E5E3E5
:10013000E453C63AE651997696E8E6C28426EB89FE
:100140008C9B62ED407C6FFCEFBC9C9F40F2BAA59B
:100150006FA5F490055A2AF75C936B6CF9676DC133
:100160001BFCE0E40D47FEF520E6B500D0ED902E37
:100170000300943577050080841E080000204E0A95
:10018000000000C80C333333330F986E12831141D3
:10019000EF8D2114893BE65516CFFEE6DB18D1849E
:1001A0004B381BF77C1D901DA4BBE42420328472C5
:1001B0005E228100C9F124ECA1E53D278E20A2201A
:1001C00011241FBECFEFD8E0DEBFCDBF14E0A0E00A
:1001D000B1E0E6EFFFE402C005900D92AC34B10748
:1001E000D9F726E0ACE4B4E001C01D92AE3FB207FF
:1001F000E1F710E0C0EED0E004C02197FE010E94BC
:100200001321CE3DD107C9F70E94E71F0C94F927AF
:100210000C9400001F920F920FB60F9211248F932F
:100220009F93EF93FF9380915504813019F580914E
:1002300054048150E9F4809151049091520480FF5C
:1002400002C0289A01C028988091510490915204CC
:10025000969587959093520480935104809153040E
:10026000815080935304811102C01092550483E0A1
:100270008093540480915704811152C0809150049E
:100280008823E9F080914F04815080934F048111BD
:1002900047C01092500410925604E0915904F0E0C7
:1002A00080914E04E65AFB4F8083809159048F5F02
:1002B000809359048032A0F11092590431C080918A
:1002C0005604811110C019992BC081E08093560407
:1002D00010924E0494E090934F0498E090934D0454
:1002E00080934C041DC080914F048150B9F48091DB
:1002F0004C04199B05C090914E04982B90934E048A
:10030000880F80934C0480914D04815080934D045C
:10031000811103C081E08093500483E080934F04F7
:10032000FF91EF919F918F910F900FBE0F901F90B3
:100330001895109255041092560410925704289A5A
:10034000209A21989FB7F89481E287BD82E084BD0E
:1003500085BDEEE6F0E080818260808316BC9FBFA1
:10036000089510925704089581E0809357040895EA
:1003700090915804809159049817E1F3E92FF0E027
:10038000E65AFB4F80819F5F903218F49093580497
:1003900008951092580408959091590481E0209195
:1003A0005804291301C080E0089510925904109256
:1003B000580408959091550481E0913009F080E04F
:1003C0000895909155049130E1F393E09093540493
:1003D0009AE090935304880F990B92609093520483
:1003E0008093510481E0809355040895CF93DF9367
:1003F000EC018991882319F00E94E101FACFDF9185
:10040000CF910895CF93DF93FC018491EF01219662
:10041000882321F00E94E101FE01F7CFDF91CF9107
:100420000895CF93DF93D82FC62F60E083E40E9416
:1004300073088D2F0E94CB058C2F0E94CB05C82FEF
:1004400060E083E40E944F088C2FDF91CF910895E4
:1004500060E08F770C9411028AE10E94280240919B
:100460007C0450917D0460917E0470917F0441155D
:10047000514A6C4B734310F09DE901C094EA891B0B
:10048000089589E10E94280285958595089583E164
:100490000E94280290917B04891B08950E944702C4
:1004A000882341F080917B048F5F80937B0480E000
:1004B0000C9428028FEF08958EE10E942802829505
:1004C0008F7008958DE10E94280290E034E09595A8
:1004D00087953A95E1F78A3091057CF4FC01EE0F9F
:1004E000FF1F8E0F9F1FFC01E95FFE4F80819181EE
:1004F000A281BC018A2F90E0089560E271EA87E052
:1005000090E008958F929F92AF92BF92CF92DF9228
:10051000EF92FF9288E20E9428028770C82ED12CA9
:10052000E12CF12CFE2CED2CDC2CCC2489E20E9459
:100530002802C80ED11CE11CF11CFE2CED2CDC2C79
:10054000CC248AE20E942802C80ED11CE11CF11CB6
:1005500088E20E94280283FF03C088E0E81AF108BD
:100560000E9462024B015C01C701B6010E941F2379
:1005700020E030E040E85BE40E94AB2320E034E27E
:1005800044EF5BE40E9475226B017C01C501B4015C
:100590000E941D2320E034E244EF58E40E947522BB
:1005A0009B01AC01C701B6010E94AB230E94E72268
:1005B000FF90EF90DF90CF90BF90AF909F908F9083
:1005C000089580680C94110263E881E80E9411028A
:1005D00082E10E94280283FD07C08FE19EE401971B
:1005E000F1F700C00000F4CF68E082E90E94110238
:1005F00081E00895DF92EF92FF920F931F93CF93C4
:10060000DF93F82ED92EC62F82E20E942802D82F1F
:100610008C2F90E08D0F911D8F3F910519F010F0F8
:10062000CD2FC095EF2C0F2D1D2D802F8E198C17DF
:1006300038F4F80161918F0180E80E941102F5CF32
:100640006C2F6D0F82EA0E9411028C2FDF91CF91E7
:100650001F910F91FF90EF90DF900895CF93DF935C
:100660000E944702882371F08DE00E942802D82F53
:1006700080E00E942802C82F6D2F8DE80E94110291
:100680008C2F01C08FEFDF91CF91089561E881E851
:100690000C94110260E881E80C9411020C944A0356
:1006A000823020F0823118F081E101C082E0825076
:1006B000682F606889E80C941102AF92BF92CF92C4
:1006C000DF92EF92FF920F931F93CF93DF9360938C
:1006D0007C0470937D0480937E0490937F04DC01FE
:1006E000CB019C01AD0160E070E080E090E003E1AF
:1006F0000E94C221A12CE8E4BE2EF8EECF2EDD240C
:10070000D394E12CF12C00E010E00E942E21C22FA6
:10071000B32E6A017B01182FD92F00E10E94DD2141
:10072000622F86E80E9411022C2F3B2DA601B701F3
:10073000812F9D2F08E00E94DD21622F87E80E9413
:1007400011026C2F88E8DF91CF911F910F91FF90DC
:10075000EF90DF90CF90BF90AF900C941102CF92AA
:10076000DF92EF92FF926B017C0160E083E40E94D4
:100770002B0860E083E40E944F0861E083E40E945C
:100780002B0861E083E40E9473088FE19EE40197E7
:10079000F1F700C0000061E083E40E944F088FE1A0
:1007A0009EE40197F1F700C0000082E40E94280255
:1007B000823109F50E944A03C701B6010E945D0318
:1007C00060E08EE80E94110260E08FE80E94110252
:1007D0008CE00E942802682F63608CE80E9411025E
:1007E00064E086EA0E94110284E10E9450030E94A4
:1007F000460381E001C080E0FF90EF90DF90CF9052
:1008000008950F9362E082E40E942B0862E082E484
:100810000E94730800E020E040E061E080E00E9478
:10082000A60560EC7AEC89E896E30E94AF0381119B
:1008300005C085E491E00E940526FFCF0F91089541
:10084000CF93853028F0C82F893018F0C8E001C058
:10085000C5E08DE10E9428026C2F70E064507109A0
:10086000660F771F817F682B8DE9CF910C94110261
:10087000CF93C82F692F80EA0E9411026C2F81EA62
:10088000CF910C941102682F89EB0C9411028EE128
:100890000E942802682F64608EE90C9411028EE198
:1008A0000E942802682F6B7F8EE90C94110210922F
:1008B0007A048DE10E942802682F6E7F8DE90C94E6
:1008C000110281E080937A048DE10E942802682F52
:1008D00061608DE90C941102CF93C82F0E944603EA
:1008E000CC2319F00E94610402C00E94570460E00A
:1008F0008DE80E94110260E082EA0E94110281E00C
:10090000CF9108951F93CF93DF93EC01162F0E9490
:10091000010480E00E946C04612FCE010E94FA0263
:100920000E94E402DF91CF911F910C944A03CF9370
:10093000DF93D82F82E10E942802C82FDD2339F0EF
:100940000E9461046D2F82EA0E94110202C00E947F
:1009500057046C2F82E90E941102C6FF18C0C5FD22
:1009600016C010927B0480917A04882311F082E2F1
:1009700001C083E10E942802C82F80E10E94280262
:10098000682F8DE80E9411020E9446030FC081E08B
:100990000E942802863841F060E08DE80E94110232
:1009A00066E881E80E941102C0E0D0E08C2FDF9160
:1009B000CF910895CF93DF93EC01181619063CF4FC
:1009C0000E9461046C2F82EA0E94110202C00E9400
:1009D000570465E881E8DF91CF910C941102CF9222
:1009E000DF92EF92FF92CF93DF930E9462026B013E
:1009F0007C010E945C02D82F86E20E942802C82F48
:100A0000A701960104C05695479537952795DA9525
:100A1000D2F768EE73E080E090E00E94F1206C2F46
:100A2000213131054105510510F0686001C0677F33
:100A300086EADF91CF91FF90EF90DF90CF900C94FA
:100A40001102CF93C82F863020F08D3060F48630AD
:100A500059F465EC81EB0E9411026CE087EB0E9477
:100A60001102C6E009C0CCE063EC81EB0E941102E8
:100A70006AE087EB0E9411028EE10E9428028F70CB
:100A800090E1C99F90011124682F622B8EE90E948A
:100A90001102CF910C94EF04CF9369372EE17207C6
:100AA0008105910590F1613A28E27207810591056F
:100AB00070F1613F2CE372078105910550F16134BB
:100AC00021E572078105910530F163312AE772074C
:100AD0008105910510F1653E22EA720781059105B5
:100AE000F0F0653224EF720781059105D0F069348A
:100AF00028EE720721E082079105A8F06139704D58
:100B00008340910590F0C9E011C0C0E00FC0C1E082
:100B10000DC0C2E00BC0C3E009C0C4E007C0C5E01F
:100B200005C0C6E003C0C7E001C0C8E08DE10E9477
:100B300028028F7090E1C99F90011124682F622BC9
:100B40008DE90E941102CF910C94EF040F9394B1A0
:100B5000986294B924982C9A437094E0499FA0011C
:100B6000112423702064422BA62FA170B0E094E0E2
:100B7000AA0FBB1F9A95E1F74A2BE82FE170F0E02E
:100B800025E0EE0FFF1F2A95E1F7E42BECBD017085
:100B90000DBD0F9108958EBD0DB407FEFDCF8EB52E
:100BA0000895BF92CF92DF92EF92FF920F931F931F
:100BB000CF93DF93EC01BB24B39488E8C82E83E184
:100BC000D82EE12CF12C02E310E08DA99EA92BA9CF
:100BD0003CA928173907B9F12CAD222319F021308F
:100BE00069F027C0FE01E80FF91F81818B3711F5ED
:100BF000BCAEC8AED9AEEAAEFBAE1CC0FE01E80F7B
:100C0000F91F618183E395E06D3739F40E94BA1AC8
:100C100083E395E00E94581A0CC00E94BA1A811111
:100C200008C088AD99ADAAADBBAD892B8A2B8B2BA3
:100C300009F41CAE8DA99EA90196B8010E94DD2081
:100C40009EAB8DABC2CFDF91CF911F910F91FF90E3
:100C5000EF90DF90CF90BF900895FC0187A9882383
:100C600089F040AD51AD62AD73AD411551056105DF
:100C7000710541F0415051096109710940AF51AF0F
:100C800062AF73AF0895CF92DF92FF920F931F93DD
:100C9000CF93DF93EC01809181048E010E5F1F4F93
:100CA000882309F47EC08BE7888383E489831F92BD
:100CB00082E08F9386E691E09F938F931F930F932B
:100CC0000E943526BC016F5F7F4F600F711FF801D6
:100CD000E80FF91F3CE2F32EF08281E894E00E94D5
:100CE000180CBC016F5F7F4FFC01F08281E894E03B
:100CF0000E94370CBC016F5F7F4FFC01F08281E8DE
:100D000094E00E9419126C01FFEFCF1ADF0AFC0178
:100D1000F0821092EA048091F2048F938091F104A2
:100D20008F938091F0048F938091EF048F938CE5E3
:100D300091E09F938F93DF92CF920E9435268C0192
:100D40000F5F1F4F0C0D1D1DF601E80FF91FF082FC
:100D500080918F058F9380918E058F93809191055F
:100D60008F93809190058F93809193058F938091BD
:100D700092058F9380E691E09F938F931F930F933B
:100D80000E943526F801E80FF91F8DE78083118254
:100D90008DB79EB748960FB6F8949EBF0FBE8DBF15
:100DA0004AC08BE7888383E489831F9282E08F9314
:100DB00086E691E09F938F931F930F930E943526B1
:100DC0006801C80ED91E2CE2F22EF601F0820196BF
:100DD00069E671E0800F911F0E942B258601085F54
:100DE0001F4FF601F78280918F058F9380918E05BA
:100DF0008F93809191058F93809190058F9380912F
:100E000093058F93809192058F9380E691E09F9355
:100E10008F931F930F930E943526F801E80FF91F57
:100E20008DE7808311828DB79EB740960FB6F894F8
:100E30009EBF0FBE8DBFDF93CF9380E791E09F935E
:100E40008F930E94E825FE0101900020E9F7319779
:100E5000CF018C1B9D0BEC019F938F9388E891E051
:100E60009F938F930E94E825EDB7FEB738960FB693
:100E7000F894FEBF0FBEEDBFCE01DF91CF911F9161
:100E80000F91FF90DF90CF9008950F931F93CF9312
:100E9000DF93CDB7DEB761970FB6F894DEBF0FBE14
:100EA000CDBF03E110E01E830D8381E090E09C83C1
:100EB0008B831A8219828BE190E098878F838CE074
:100EC00090E09A87898785E190E09C878B87CE01A7
:100ED00001960E94BF13EDE7F5E017A306A315A244
:100EE00014A213A212A21092C6051092C50583E0A7
:100EF00090E09093C4058093C3051092C2051092B0
:100F0000C10584E190E090AF87AB16AA15AA14AA98
:100F100013AA81E08093800461960FB6F894DEBF37
:100F20000FBECDBFDF91CF911F910F91089586ED38
:100F300095E00E942D068091D2059091D305A09155
:100F4000D405B091D5050097A105B10559F00197D9
:100F5000A109B1098093D2059093D305A093D4053C
:100F6000B093D50581E894E00C9404128093D605E3
:100F70002091090630910A06F901EA52FA4F81835D
:100F8000C9010196823391052CF490930A0680934F
:100F90000906089510920A061092090608950E9403
:100FA000010480E395E7A0E0B0E08093D205909340
:100FB000D305A093D405B093D5058091D205909127
:100FC000D305A091D405B091D505892B8A2B8B2B05
:100FD000D1F080E00E949704882379F38AE692E0BA
:100FE0000E9405260E944702882329F00E944E0293
:100FF0000E94B607F7CF86ED95E00E94D10580915B
:1010000080048823D1F20895833479F08434C1F0C8
:10101000823401F524B181E090E001C0880F6A9527
:10102000EAF78095822384B9089527B181E090E0A2
:1010300001C0880F6A95EAF78095822387B90895E1
:101040002AB181E090E001C0880F6A95EAF78095A7
:1010500082238AB90895833471F08434B1F08234E4
:10106000E9F424B181E090E001C0880F6A95EAF7C5
:10107000822B84B9089527B181E090E001C0880FE8
:101080006A95EAF7822B87B908952AB181E090E04A
:1010900001C0880F6A95EAF7822B8AB908958334D4
:1010A00071F08434B1F08234E9F425B181E090E04C
:1010B00001C0880F6A95EAF7822B85B9089528B197
:1010C00081E090E001C0880F6A95EAF7822B88B929
:1010D00008952BB181E090E001C0880F6A95EAF78E
:1010E000822B8BB90895833479F08434C1F0823433
:1010F00001F525B181E090E001C0880F6A95EAF71B
:101100008095822385B9089528B181E090E001C0DF
:10111000880F6A95EAF78095822388B908952BB1E4
:1011200081E090E001C0880F6A95EAF780958223FC
:101130008BB90895442319F0413019F008950C94A7
:1011400073080C944F08833431F0843431F08234C6
:10115000B1F423B103C026B101C029B181E090E010
:10116000062E02C0880F991F0A94E2F730E082230E
:10117000932302C0959587956A95E2F7089581E0DB
:1011800008950895E1E8F0E0808182608083089509
:10119000109281000895809184002091850090E054
:1011A000922B9695879508951092B200E0EBF0E0AF
:1011B0008081826080838EE38093B30017BAE0E77A
:1011C000F0E0808182608083E1EBF0E080818560E7
:1011D000808308951092B10008951F920F920FB668
:1011E0000F9211242F933F934F935F936F937F93AD
:1011F0008F939F93AF93BF93EF93FF930E949707B3
:1012000017BA8091140690911506A0911606B09118
:1012100017060196A11DB11D809314069093150623
:10122000A0931606B0931706FF91EF91BF91AF916F
:101230009F918F917F916F915F914F913F912F91EE
:101240000F900FBE0F901F9018956091140670912B
:101250001506809116069091170608951F920F9219
:101260000FB60F9211242F933F934F935F936F9379
:101270007F938F939F93AF93BF93EF93FF9380914F
:10128000C60080931306809113060E94B60782E081
:101290008093C000FF91EF91BF91AF919F918F918B
:1012A0007F916F915F914F913F912F910F900FBE62
:1012B0000F901F90189580911806909119069093A1
:1012C000F7068093F60683E38093C4001092C5006E
:1012D00088E98093C10082E08093C00008959091D6
:1012E000C00095FFFCCF8093C60008959091000147
:1012F000992329F00E946F0980E090E0089581E031
:1013000090E00895EF92FF920F931F93CF93DF9396
:101310007C018B01EC01CE018E199F09801791078A
:1013200024F489910E946F09F6CFC801DF91CF9113
:101330001F910F91FF90EF90089583B7816083BF55
:1013400083B7817F846083BF7894889583B78E7FCD
:1013500083BF08951F920F920FB60F921124E09A47
:101360000F900FBE0F901F9018950F931F93CF9360
:10137000DF93EC018B010E94CB08998388831B8348
:101380000A83DF91CF911F910F910895CF93DF933F
:10139000EC010E94CB084A815B8141155105A9F0FF
:1013A000288139812817390728F4BC01621B730B87
:1013B0009B0105C0821B930B9C012150304881E0AA
:1013C0002417350718F480E001C081E0DF91CF9148
:1013D0000895FC01108211821382128214821582F8
:1013E0001682178210861286118613861486158639
:1013F00016861786118A108A128A138A148A158A09
:10140000168A108E178A118E128E138E148E158ED8
:1014100012A213A214A215A216A217A210AA11AA10
:1014200012AA13AA14AA15AA16AE17AEDC01DE96EC
:1014300016961D921D921D921C9219971E961C9233
:1014400011961C92119716961D921D921D921C9238
:1014500019971E961C9211961C92119716961D9222
:101460001D921D921C9219971E961C9211961C9209
:10147000119716961D921D921D921C9219971E96F9
:101480001C9211961C92119716961D921D921D92F8
:101490001C9219971E961C9211961C9211961C92E2
:1014A000509682E08C9311961C9211961C92119684
:1014B0001C92119611961C921E92129611961C92D5
:1014C0001E9212961D921D921D921C9213971496B5
:1014D0001D921D921D921C92139714961D921D929F
:1014E0001D921C92139714961D921D921D921C9290
:1014F000139714961D921D921D921C921397E957F3
:10150000FF4F108208952FEB260F862F062E000C1A
:10151000990B263010F4C79708956156663018F479
:10152000875591090895C0970895FF920F931F93CF
:10153000CF93DF93EC01F8802DE2F21201C02196E7
:10154000CE010E9418249B01AC01A4E6B0E00E94E9
:101550001921FE014991242F042E000C330B205336
:1015600031092A303105A8F34E3241F52181022E8E
:10157000000C330B205331092A303105F8F44AE0CE
:10158000429F8001439F100D1124012E000C220B5D
:10159000330B600F711F821F931F0281002E000CFE
:1015A000110B005311090A30110540F4012E000CF3
:1015B000220B330B600F711F821F931F2DE2F2125B
:1015C00007C090958095709561957F4F8F4F9F4F85
:1015D000DF91CF911F910F91FF9008952F923F922D
:1015E0004F925F926F927F928F929F92AF92BF9233
:1015F000CF92DF92EF92FF920F931F93CF93DF93DF
:10160000D82FC92F8B010E94182424E630E040E037
:1016100050E00E94F12049015A019B01AC0160E8B1
:1016200076E988E990E00E94AD206B017C01F80129
:1016300091828082ED2FFC2F2191822F022E000CAF
:10164000990BC0970A97C0F32E3239F51F0180E835
:10165000882E86E9982E88E9A82EB12C9AE0492E8A
:10166000512C612C712CF101C1911F010C2E000C29
:10167000DD0BE097CA30D10580F4C501B401A301A8
:1016800092010E94F12049015A01DE010E942421A9
:10169000C60ED71EE81EF91EE6CFA5E0B0E0A701F2
:1016A00096010E9419216F5F7F4F8F4F9F4F23E05C
:1016B00030E040E050E00E94F120F80122833383C3
:1016C000448355831682DF91CF911F910F91FF9034
:1016D000EF90DF90CF90BF90AF909F908F907F90D2
:1016E0006F905F904F903F902F90089520E030E0F2
:1016F00044E351E40E94092220E030E044EB51E44D
:101700000E9475220E94E722CB0160E170E00E94F6
:10171000DD20FC01EE0FFF1FEB5DFE4F808191810C
:101720000895CF93DF93EC0187E0FE017096DE0110
:10173000129601900D928A95E1F787E0FE01779667
:10174000DE01199601900D928A95E1F70E94250914
:101750006E8F7F8F88A399A381E089838883DF912F
:10176000CF9108959B01BC01605F7F4FC9010C942C
:10177000EE0A9B01BC01695E7F4FC9010C94EE0A21
:10178000CF92DF92EF92FF92CF93DF93EC01198219
:101790006C817D818E819F810E941D2328E23BE622
:1017A0004EE65EE40E9475226B017C016A817B81BA
:1017B00080E090E00E941D239B01AC01C701B601AF
:1017C0000E940922288521119058DF91CF91FF9026
:1017D000EF90DF90CF900895CF92DF92EF92FF923B
:1017E000CF93DF93EC0119826B857C858D859E8577
:1017F0000E941D2328E23BE64EE65EE40E9475222D
:101800006B017C0169857A8580E090E00E941D2350
:101810009B01AC01C701B6010E9409222F8521114D
:101820009058DF91CF91FF90EF90DF90CF90089587
:10183000CF93DF93EB010E94C00B9F938F937F9315
:101840006F938BE792E09F938F93DF93CF930E94E8
:1018500035262DB73EB7285F3F4F0FB6F8943EBFF1
:101860000FBE2DBF8C0F9D1FDF91CF910895CF9399
:10187000DF93EB010E94EC0B9F938F937F936F9309
:101880008BE792E09F938F93DF93CF930E9435264F
:101890002DB73EB7285F3F4F0FB6F8943EBF0FBE3F
:1018A0002DBF8C0F9D1FDF91CF910895CF93DF93B4
:1018B000EC018E819F81A885B9858A839B83AC8347
:1018C000BD830E9425096A877B878C879D8781E07D
:1018D00089838883DF91CF910895CF93DF93EC01C3
:1018E0008E819F81A885B9858A839B83AC83BD83C4
:1018F0000E9425096A877B878C879D8781E0898381
:101900008883DF91CF910895CF93DF93EC01CB01D2
:101910000E94950A6E837F8388879987DF91CF9194
:101920000895CF93DF93EC01CB010E9418246E83BE
:101930007F8388879987DF91CF910895FC01118279
:10194000628173818481958124E630E040E050E03B
:101950000E94F120CB018053984F0895CF92DF92DF
:10196000EF92FF92FC0111826281738184819581E3
:1019700024E6C22ED12CE12CF12CA70196010E9465
:10198000F120CA01B901A70196010E94F120862F1A
:10199000FF90EF90DF90CF900895FC01118262815B
:1019A00073818481958120E137E240E050E00E941C
:1019B000F120822F0895FC0111826281738184815C
:1019C000958120E432E44FE050E00E94F120822F24
:1019D0000895FC011182628173818481958120E1E7
:1019E00037E240E050E00E94F120CA01B90124E64C
:1019F00030E040E050E00E94F120862F0895CF9221
:101A0000DF92EF92FF92FC011182628173818481E7
:101A1000958124E6C22ED12CE12CF12CA701960150
:101A20000E94F120CA01B901A70196010E94F1208C
:101A3000862FFF90EF90DF90CF900895FC011182E8
:101A4000628173818481958124E630E040E050E03A
:101A50000E94F120862F0895CF93DF93EC018A85B1
:101A60009B85AC85BD858E839F83A887B9870E949F
:101A700025096A837B838C839D8381E089838883A6
:101A8000DF91CF910895CF93DF93EC01CB010E94BA
:101A9000950A6A877B878C879D87DF91CF91089510
:101AA000CF93DF93EC018A859B85AC85BD858E83C2
:101AB0009F83A887B9870E9425096A837B838C83CB
:101AC0009D8381E089838883DF91CF910895CF93AF
:101AD000DF93EC01CB010E9418246A877B878C87F7
:101AE0009D87DF91CF910895CF93DF93EC01BC01E7
:101AF00040960E942B250E94250968A379A38AA3FA
:101B00009BA381E08DA38CA3DF91CF91089540E149
:101B100050E00C943225BF92CF92DF92EF92FF9269
:101B20000F931F93CF93DF93EC01FC01EA57FF4F14
:101B3000B080BB2009F499C0319660810E94830A6D
:101B4000182FFE01E857FF4F6081CE010E94830AE3
:101B500040E1149F800D1124FE01EB57FF4F90814F
:101B6000891374C0B59680819181A281B381019659
:101B7000A11DB11D80839183A283B3838E0107567B
:101B80001F4FD8018C91882361F038978081918113
:101B9000A281B3810196A11DB11D80839183A2838F
:101BA000B383FE01EA56FF4F80818823C9F081305C
:101BB00089F5CE0182960E94560CCE01C0960E94F5
:101BC0006D0CF8018081882329F1CE010E94910BD0
:101BD000CE01CE960E942C0DCE01845B9F4F18C083
:101BE000CE01C0960E946D0CD8018C91882341F0E3
:101BF000CE010E94910BCE01865A9F4F0E942C0D60
:101C0000CE0188599F4F0E94500DCE018A589F4F98
:101C10000E942C0D8E0104561F4FF801C081D18106
:101C2000209709F407C1D801ED91FC9166A177A135
:101C30008EA19FA10E942225892B09F0FBC0CE0115
:101C40000E94740D0AA4DBA5C02DEACFCA55DF4F50
:101C500088819981AA81BB810196A11DB11D8883CC
:101C60009983AA83BB83B12CE5C07C01B7E9EB0E55
:101C7000F11CF70130818A569F4F6C018E0104568A
:101C80001F4F31113EC07E0197E8E90EF11C60E85C
:101C900072E0C7010E942225892B39F066E872E0C4
:101CA000C7010E942225892B11F481E012C06CE843
:101CB00072E0C7010E942225892B39F062E972E0A7
:101CC000C7010E942225892B19F4F601108203C056
:101CD00082E0D6018C93C656DF4F88819981F80146
:101CE00091838083C081D181209709F4A3C0B7017B
:101CF0008EA19FA10E94222597FF97C08AA59BA530
:101D0000EECFDC01EC91E23009F463C0CE018957DB
:101D10009F4FDC012C91222309F45BC0B0E2EB9FC2
:101D2000F0011124E32B3197E932F10508F051C09D
:101D3000EC5CFF4F0C941321BC01CE01C0960E94B5
:101D4000840C47C0FE01E756FF4F81E0213461F566
:101D50002CC0BE01605F7F4F09C081E0233509F0D0
:101D600080E08E8B36C0BE01695E7F4F0E94EE0A16
:101D700030C081E0273509F080E08D8F2AC0BC019A
:101D8000CE01CE9624C0BC01CE01845B9F4F1FC004
:101D9000BC01CE0182960E94910C1BC0FE01E75649
:101DA000FF4F81E021330CF480E0808312C0BC013E
:101DB000CE0188599F4F0E94670D0BC0BC01CE0118
:101DC0008A589F4F04C0BC01CE01865A9F4F0E9483
:101DD000430DF801C080D180C957DF4FC114D10431
:101DE00049F1D801ED91FC9166A177A1F60186A198
:101DF00097A10E942225892BE9F4D60198962D916E
:101E00003C919997F701808190E08217930794F0B5
:101E10002817390721F4BE01C6010E94870DD6019B
:101E20009A96CD90DC909B97D9CF892B19F0D80149
:101E30001D921C928B2DDF91CF911F910F91FF90DE
:101E4000EF90DF90CF90BF900895DF92EF92FF92D6
:101E50000F931F93CF93DF939C01FC01E256FF4F3A
:101E600080819181A281B3810196A11DB11D8083E2
:101E70009183A283B383C90188569F4F7C01E901F6
:101E8000CA57DF4F643279F12CF46A3069F06D3053
:101E9000C9F50AC06A3241F06C32A1F5F901EB577D
:101EA000FF4F808186278083D62E8901F7018081AC
:101EB0008F3050F4F901E80FF11DE957FF4F108200
:101EC000C9010E948B0D01C080E0F801E956FF4F67
:101ED00090819F5F9083F701108291E0FAE2DF1218
:101EE00090E0988327C0FC011082F901E956FF4F6A
:101EF000108272971082719682E0808318823396E6
:101F0000108217C0F70180818E3048F491E0980F5D
:101F10009083F901E80FF11DE957FF4F6083888135
:101F2000811107C0F901EB57FF4F9081692760834A
:101F300001C080E0DF91CF911F910F91FF90EF9052
:101F4000DF900895AF92BF92CF92DF92EF92FF920F
:101F50000F931F93CF93DF937B015A0169018C018B
:101F600006561F4FF801C081D1812097A9F06EA1BC
:101F70007FA1C5010E94222597FD0EC0892B29F45F
:101F800088A599A5C816D9063CF08E01065D1F4F9D
:101F90000AA4DBA5C02DE9CFF701D3A7C2A7F8019A
:101FA000F182E082DF91CF911F910F91FF90EF902E
:101FB000DF90CF90BF90AF900895CF93DF93FC0157
:101FC000DB0110A211A212A213A214A215A257A300
:101FD00046A331A720A790E1EF01892F19928A9596
:101FE000E9F7BF01605F7F4FEB0119929A95E9F71E
:101FF000BF01CD01DF91CF910C94A20F0C94DD0FA6
:102000002FEF82E597E0215080409040E1F700C03B
:10201000000040E064E084E40E949A082FEB8AED1F
:1020200090E0215080409040E1F700C0000041E086
:1020300064E084E40E949A082FEB8AED90E021503E
:1020400080409040E1F700C0000040E064E084E49C
:102050000E949A082FEB8AED90E02150804090403A
:10206000E1F700C0000088E992E00C94052640E00A
:1020700064E084E40C949A0841E064E084E40C9405
:102080009A080E9499010E94B101789408951F93C3
:10209000CF93DF93EC01162F0E94411064E084E49B
:1020A0000E944F0864E084E40E942B08CC57DF4F65
:1020B0001883DF91CF911F910895EF92FF920F93B4
:1020C0001F93CF93DF93EC018AEA92E09F938F9363
:1020D0000E94E8250F900F908881882309F1CE0196
:1020E0000E94EC0B162F072FF82EE92ECE010E942E
:1020F000C00BEF92FF920F931F939F938F937F9349
:102100006F9385EB92E09F938F930E94E8258DB7A4
:102110009EB70A960FB6F8949EBF0FBE8DBF04C03F
:1021200080EC92E00E94052689EC92E09F938F93C9
:102130000E94E8250F900F908AA1882359F18E0103
:102140000E5D1F4FC8010E949E0CF82EE92EC8019B
:102150000E94AE0C1BA2EF92FF921F928F936CA174
:102160007DA18EA19FA120E137E240E050E00E94D6
:10217000F1201F922F9385ED92E09F938F930E9401
:10218000E8258DB79EB708960FB6F8949EBF0FBE90
:102190008DBF04C088EE92E00E94052688A988239E
:1021A00009F484C019AA6AA97BA98CA99DA920E475
:1021B00032E44FE050E00E94F1202A3020F480E326
:1021C00090E00E94FE2519AA6AA97BA98CA99DA965
:1021D00020E432E44FE050E00E94F1201F922F9360
:1021E00082EF92E09F938F930E94E8258E01005D1D
:1021F0001F4FC8010E94E90C0F900F900F900F9095
:102200008A3020F480E390E00E94FE25C8010E94FD
:10221000E90C1F928F9382EF92E09F938F930E941D
:10222000E825C8010E94FF0C0F900F900F900F90AF
:102230008A3020F480E390E00E94FE25C8010E94CD
:10224000FF0C1F928F9386E691E09F938F930E94DD
:10225000E82519AA6AA97BA98CA99DA924E630E0E2
:1022600040E050E00E94F1200F900F900F900F90EF
:102270006A3020F480E390E00E94FE2519AA6AA942
:102280007BA98CA99DA924E630E040E050E00E94A3
:10229000F1207F936F938BE094E09F938F930E9444
:1022A000E8250F900F900F900F9004C080EC92E003
:1022B0000E94052688E692E0DF91CF911F910F9151
:1022C000FF90EF900C940526BF92CF92DF92EF9291
:1022D000FF920F931F93CF93DF93EC018C01025574
:1022E0001F4F80E197E2A0E0B0E0F8018083918386
:1022F000A283B3831F921F9287E28F9380E18F9313
:1023000088EF92E09F938F930E94E825CE010E9470
:10231000371018820F900F900F900F900F900F9022
:1023200080E1C82E87E2D82EE12CF12CBB24B39497
:10233000F80180819181A281B381892B8A2B8B2B1B
:1023400009F444C00E94CC01882331F00E94B801F6
:10235000682FCE010E94250FF80180819181A28112
:10236000B3818C159D05AE05BF0560F4BB2051F00F
:10237000CE010E945D10F0EDCF1AF7E0DF0AE10810
:10238000F108B12CF80180819181A281B381C81636
:10239000D906EA06FB0610F4BB24B3942881222355
:1023A00039F2BF93AF939F938F9381E193E09F9313
:1023B0008F930E94E825CE010E943C100F900F9051
:1023C0000F900F900F900F9081E014C01F921F92FA
:1023D0001F921F9281E493E09F938F930E94E825C0
:1023E000CE010E943C100F900F900F900F900F9015
:1023F0000F9080E0DF91CF911F910F91FF90EF90B0
:10240000DF90CF90BF900895FC01E255FF4F4081CF
:10241000518162817381411551056105710541F05A
:10242000415051096109710940835183628373836B
:102430000895CF93DF93EB01FC01EA58FF4F11821F
:1024400066817781808591850E941F239F938F935A
:102450007F936F9382E793E09F938F93DF93CF9364
:102460000E9435262DB73EB7285F3F4F0FB6F89430
:102470003EBF0FBE2DBF8C0F9D1FDF91CF910895E2
:102480006AE00E94BD2020E1829F900D1124892FD7
:102490000895982F92959F708F702AE0929F800DDB
:1024A00011240895CF93C82F88E60E94CF198C2F4E
:1024B0000E94E9190E94D91961E088E60E94C219B8
:1024C000CF910C943C1ACF93DF93C82FD62F88E678
:1024D0000E94CF198D2F0E94E9198C2F0E94E919B3
:1024E000DF91CF910C94D919CF93DF9381E10E94B2
:1024F0005212D82F82E10E945212C82F61E18EEE53
:102500000E94631262E18DED0E94631281E10E94DC
:1025100052128E3E29F482E10E9452128D3D31F01A
:1025200081E080932B06DF91CF91089581E0809325
:102530002C0661E18D2F0E94631262E18C2FDF91E6
:10254000CF910C94631262E084E40E94040862E07C
:1025500084E40E944F08E9E6F0E080818260808395
:10256000E89A7894089580912C06089580912B061E
:10257000089581E080932C0610922B060895109206
:102580002C0681E080932B060895EF92FF920F9323
:102590001F93CF93DF93CDB7DEB729970FB6F8948B
:1025A000DEBF0FBECDBF88E60E94CF1980E00E943B
:1025B000E9190E94D91967E088E60E94C2198E01C4
:1025C0000F5F1F4F7E0188E0E80EF11C0E943C1A4D
:1025D000F80181938F01EE15FF05C1F70E94D9190B
:1025E00089818F770E94491290E090931B06809317
:1025F0001A068A810E94491290E090931D068093EA
:102600001C068B810E944912082F10E010931F06B0
:1026100000931E068D810E94491290E0909321063E
:1026200080932006FE808F2D8F710E94491290E0CA
:1026300090932306809322068F81F7FE06C00E94A6
:10264000491290E08053984F05C00E94491290E0D3
:102650008459984F90932506809324068C810E947C
:10266000491290E0909327068093260601151105E4
:1026700029F410922A061092290607C00C30110581
:1026800044F410932A060093290681E080932806DB
:1026900008C00C50110910932A06009329061092C5
:1026A00028068AE196E029960FB6F894DEBF0FBEA1
:1026B000CDBFDF91CF911F910F91FF90EF900895C3
:1026C0008F929F92AF92BF92CF92DF92EF92FF9242
:1026D0000F931F93CF93DF93CDB7DEB729970FB634
:1026E000F894DEBF0FBECDBF7C016B015A0188E6B6
:1026F0000E94CF1980E00E94E9190E94D91967E071
:1027000088E60E94C2198E010F5F1F4F4E0188E0BC
:10271000880E911C0E943C1AF80181938F01E815E4
:10272000F905C1F70E94D919A114B10429F08981D2
:102730000E944912F5018083C114D10429F08A81D5
:102740000E944912F6018083E114F10429F08B8183
:102750000E944912F701808329960FB6F894DEBFD4
:102760000FBECDBFDF91CF911F910F91FF90EF90E2
:10277000DF90CF90BF90AF909F908F9008951F9360
:10278000CF93DF93EC0188E60E94CF1980E00E948E
:10279000E9198A859B85813D27E0920734F0805DA9
:1027A00097409B878A8710E805C08C5697409B8787
:1027B0008A8710E088810E9440120E94E9198A816C
:1027C0000E9440120E94E9198C810E9440120E94CE
:1027D000E9198C850E9440120E94E9198E810E949D
:1027E00040120E94E91988850E944012810F0E94C0
:1027F000E9198A850E9440120E94E919DF91CF9160
:102800001F910C94D9191F93CF93DF93C82FD62F04
:10281000142F88E60E94CF1980E00E94E919812FC9
:102820000E9440120E94E9198D2F0E9440120E94BE
:10283000E9198C2F0E9440120E94E919DF91CF9173
:102840001F910C94D919CF9390912B0691110DC023
:10285000C82F80E00E945212CC2311F08F7701C064
:10286000806860E0CF910C946312CF9108958091BD
:102870002B06811106C00E9452128095881F88275E
:10288000881F0895FF920F931F93CF93DF93FC014E
:102890001082FB01108220912C06211122C0EB0135
:1028A0008C0188E60E94CF1981E10E94E9190E94FB
:1028B000D91962E088E60E94C2190E94361A88235C
:1028C00081F00E943C1AF82E0E943C1AF801F08216
:1028D000829586958695837099E1899F802D112434
:1028E0008883DF91CF911F910F91FF900895CF932F
:1028F000DF9390912C0691112EC0C82F88E60E947C
:10290000CF198EE00E94E9190E94D91961E088E68A
:102910000E94C2190E943C1AD82F88E60E94CF1943
:102920008EE00E94E9198D2F80620E94E9190E94B1
:10293000D919CC2381F088E60E94CF198EE00E943D
:10294000E9190E94D91961E088E60E94C2190E9423
:102950003C1A85FDF0CFDF91CF910895CF93C82F1A
:1029600088E60E94CF1988E08C0F0E94E9190E9426
:10297000D91961E088E60E94C219CF910C943C1AE3
:102980000F931F93CF938C01C0E08C2F0E94AE1445
:10299000F80181938F01CF5FC833B9F7CF911F91B1
:1029A0000F910895CF93DF93C82FD62F88E60E940A
:1029B000CF1988E08D0F0E94E9198C2F0E94E91928
:1029C000DF91CF910C94D9190F931F93CF938C0162
:1029D000C0E06C2FF80181918F010E94D214CF5F6B
:1029E000C833B9F7CF911F910F910895CF93C82F96
:1029F00080912C068823D1F088E60E94CF1987E0C9
:102A00000E94E9190E94D91961E088E60E94C21962
:102A10000E943C1ACC2319F0C82FC06102C0C82FF5
:102A2000CF7E88E60E94CF1987E01AC088E60E9410
:102A3000CF198EE00E94E9190E94D91961E088E659
:102A40000E94C2190E943C1ACC2321F0C82FCB7FD0
:102A5000C06402C0C82FCF7B88E60E94CF198EE0E9
:102A60000E94E9198C2F0E94E919CF910C94D91971
:102A7000CF93DF93EC0180912C068823A9F088E6A0
:102A80000E94CF1987E00E94E9190E94D91961E0DC
:102A900088E60E94C2190E943C1A8C7FC82B88E6E7
:102AA0000E94CF1987E019C088E60E94CF198EE0F6
:102AB0000E94E9190E94D91961E088E60E94C219B2
:102AC0000E943C1A94E0CC0FDD1F9A95E1F7877EB7
:102AD000C82B88E60E94CF198EE00E94E9198C2F3E
:102AE0000E94E919DF91CF910C94D919CF9390915D
:102AF0002B06992311F1C82F88E60E94CF198FE089
:102B00000E94E9190E94D91961E088E60E94C21961
:102B10000E943C1ACC2319F0C82FC86002C0C82FED
:102B2000C77F88E60E94CF198FE00E94E9198C2F99
:102B30000E94E919CF910C94D919CF9108958091F1
:102B40002C06882361F060E080E00E94D21461E0EE
:102B500080E00E94D21462E080E00C94D21467E01E
:102B600080E00E94631268E080E00E94631269E0E6
:102B700080E00E9463126AE080E00C9463121F936D
:102B8000CF93DF93883108F057C06C3308F054C0FE
:102B90004C3308F051C0142FD62FC82F80912C062B
:102BA000882379F060E08C2F0E94D21461E08D2F91
:102BB0000E94D21462E0812FDF91CF911F910C947B
:102BC000D214842F0E94401267E00E9463128D2F5E
:102BD0000E94401268E00E9463128C2F0E944012F3
:102BE00069E00E9463126AE081E80E9463128FE04C
:102BF0000E9452126FE08E7F0E94631288E60E944C
:102C0000CF198EE00E94E9190E94D91961E088E687
:102C10000E94C2190E943C1AC82F88E60E94CF1950
:102C20008EE00E94E9198C2F81600E94E919DF91E2
:102C3000CF911F910C94D919DF91CF911F910895D5
:102C4000FC01892B29F04081628184810C94BF159D
:102C50000895EF92FF920F931F93CF93DF93EC01B0
:102C60008B017A0180912C068823B9F0209721F0FE
:102C700080E00E94AE1488830115110529F081E0DF
:102C80000E94AE14F8018083E114F104E9F082E0BF
:102C90000E94AE14F701808317C087E00E94521291
:102CA0008F770E944912F701808388E00E945212B8
:102CB0008F770E944912F801808389E00E945212A6
:102CC0008F770E9449128883DF91CF911F910F91D6
:102CD000FF90EF900895CF93DF9300D01F92CDB770
:102CE000DEB7AE014F5F5F4FBE016E5F7F4FCE011B
:102CF00003960E942916EAE1F6E08B8190E0958325
:102D000084838A8190E093838283898190E0918398
:102D10008083CF010F900F900F90DF91CF91089596
:102D2000FF920F931F93CF93DF9300D01F92CDB7E5
:102D3000DEB780912C06882311F180E00E94AE144A
:102D4000F82E81E00E94AE14082F82E00E94AE149B
:102D5000182FAE014F5F5F4FBE016E5F7F4FCE01F8
:102D600003960E9460138B81F81207C08A810813B2
:102D700004C081E09981911771F080E00CC08FE070
:102D80000E945212182F117080FF04C06FE08E7FD6
:102D90000E946312812F0F900F900F90DF91CF91BF
:102DA0001F910F91FF900895CF93DF93FC01DB01FA
:102DB00086A197A127A930AD14964D915C911597E6
:102DC000821793076CF028173907F4F082179307DE
:102DD00039F4C4A1D5A165A976A96C177D07A4F023
:102DE000481759071CF0421753079CF02417350762
:102DF00091F481E012964D915C91139725A936A923
:102E0000421753074CF007C04817590764F357FFA0
:102E1000EDCF81E001C080E0DF91CF9108950F9365
:102E20001F93CF93DF93FC01EB01DC01A85BBF4F45
:102E30002C813D818D919C91820F931F68E170E000
:102E40000E94DD209C0195838483DF01AA5BBF4F34
:102E50000D911C918A819B81800F911F6CE370E022
:102E60000E94DD20938382834A815B81400F511F42
:102E70004D3351059CF001968C33910519F09383E5
:102E800082830CC0138212822F5F3F4F283131059D
:102E900019F03583248302C015821482DF91CF910B
:102EA0001F910F910895CF93DF93EC01BC016F5EEA
:102EB0007F4F0E940F17BE01CE010E94D41640E042
:102EC000882379F06A818C810E94BF158B818F9352
:102ED0008A818F938D818F938C818F938BE993E07F
:102EE0000EC06CA18EA10E94BF158DA18F938CA1E5
:102EF0008F938FA18F938EA18F9385ED93E09F93F6
:102F00008F930E94E8250F900F900F900F900F90D5
:102F10000F90DF91CF91089510929806449A459AA8
:102F2000E9EBF0E080818E7F808380818D7F8083DC
:102F30008CE08093B80085E48093BC007894089579
:102F4000880F8093BA000895413258F59091980601
:102F50009111FCCF91E0909398069FEF90932D06EE
:102F600010927206940F90937106880F816080937F
:102F7000970685EE8093BC00809198068130E1F33E
:102F800080917206841710F440917206A3E7B6E0B0
:102F9000962FFB018E2F891B841728F48D91819326
:102FA000F9CF80E00895842F0895413248F590913B
:102FB00098069111FCCF32E0309398063FEF3093A2
:102FC0002D061092720640937106562FA3E7B6E0C5
:102FD000FB013E2F351B341718F431913D93F9CF87
:102FE000482F50E0440F551F4093970685EE80937D
:102FF000BC00222339F080919806823019F4F9CF71
:1030000091E011C080912D068F3F69F080912D06CF
:10301000803231F080912D06803321F094E003C09E
:1030200092E001C093E0892F0895613288F42091E5
:103030009806243079F460934F06282FA1E5B6E076
:10304000FC018E2F821B861738F481918D93F9CF66
:1030500081E0089582E0089580E0089590939406B9
:10306000809393060895909396068093950608950D
:10307000882311F085EC01C085E88093BC00089599
:1030800085ED8093BC008091BC0084FDFCCF109244
:103090009806089585EC8093BC00109298060895D8
:1030A0001F920F920FB60F9211242F933F934F93BD
:1030B0005F936F937F938F939F93AF93BF93EF93A0
:1030C000FF938091B900887F803609F495C068F538
:1030D000883209F45BC090F4803109F454C038F4AC
:1030E000882309F4EEC0883009F44DC0EEC0883161
:1030F00009F44CC0803209F45EC0E7C0803409F4A2
:1031000069C048F4803309F456C0883309F0DDC043
:1031100080932D06A1C0803509F450C0883509F48C
:103120005EC0883409F0D1C0CEC0883909F4BFC070
:10313000A8F4883709F460C038F4883609F45CC014
:10314000803709F459C0C1C0883809F4B0C080394B
:1031500009F458C0803809F0B8C054C0803B09F465
:103160007EC038F4803A09F45FC0883A09F477C029
:10317000ACC0803C09F49FC0883C09F49CC0883BEB
:1031800009F482C0A2C08091970611C09091720686
:1031900080917106981708F096C0E091720681E060
:1031A0008E0F80937206F0E0ED58F94F8081809386
:1031B000BB0085EC7DC080932D0685C0E091720632
:1031C00081E08E0F809372068091BB00F0E0ED5895
:1031D000F94F8083909172068091710665C0E091ED
:1031E000720681E08E0F809372068091BB00F0E042
:1031F000ED58F94F808367C083E080939806109262
:103200002E06D7CF80912E06803208F050C0E09174
:103210002E0681E08E0F80932E068091BB00F0E099
:10322000E15DF94F8083C5CF80912E06803230F466
:10323000E0912E06F0E0E15DF94F10820E94401807
:1032400060912E0670E0E0919306F09194068FE273
:1032500096E0099510922E060E944A1836C084E026
:10326000809398061092500610924F06E0919506B2
:10327000F0919606099580914F06811105C081E075
:1032800080934F0610925106E091500681E08E0F18
:1032900080935006F0E0EF5AF94F80818093BB0095
:1032A0009091500680914F06981708F482CF85E8D8
:1032B0008093BC000AC085EC8093BC0010929806F5
:1032C00004C010922D060E944018FF91EF91BF910B
:1032D000AF919F918F917F916F915F914F913F91AE
:1032E0002F910F900FBE0F901F901895CF93DF93E3
:1032F000EC01E0919906F0919A063097F1F09091E7
:10330000C2068091C1069817C0F090E0292F30E0E6
:103310002617370754F4DE01A20FB31F4C91D901D1
:10332000AD53B94F4C939F5FF1CF1092C20660939B
:10333000C106CB01DF91CF910994DF91CF91089520
:10334000E0919B06F0919C06309729F010929F0621
:1033500010929E06099408951092C2061092C1061A
:1033600010929F0610929E060C948C170E94A01734
:1033700080EA99E10E94331886E799E10E942E18AD
:103380000C94AC19462F613208F040E263EC76E011
:103390000E94A4171092C2068093C106089591E07E
:1033A00090939D068093C00610929F0610929E06F1
:1033B000089521E040919E0660EA76E08091C00683
:1033C0000E94D51710929F0610929E0610929D069D
:1033D0000895CF93DF931F92CDB7DEB78983809195
:1033E0009D06882391F080919E06803298F480910A
:1033F0009F06E82FF0E0E056F94F998190838F5FA8
:1034000080939F0680939E0605C061E0CE010196E1
:103410000E9415180F90DF91CF9108950F931F937D
:10342000CF93DF9320919D06222359F0EC018C016C
:10343000060F111DC017D10751F089910E94E9199B
:10344000F9CFDF91CF911F910F910C941518DF9157
:10345000CF911F910F910895FC0101900020E9F791
:103460003197BF01681B790B0C940E1A8091C1062D
:103470009091C206891B08959091C2068091C10661
:10348000981748F4E92FF0E0ED53F94F80819F5FE2
:103490009093C206089580E0089590939A068093D1
:1034A0009906089590939C0680939B06089508952D
:1034B000CF93DF93CDB7DEB761970FB6F894DEBF39
:1034C0000FBECDBFFC0181E090E0978B868B848995
:1034D00095894197C1F581818235A9F58481082EAE
:1034E000000C990BC0979E838D838781082E000C5A
:1034F000990BC0979C838B838285082E000C990BB7
:10350000C0979A8389838585082E000C990BC097F4
:1035100098878F838089082E000C990BC0979A8713
:10352000898783E190E0978B868B8389082E000C36
:10353000990BC0979C878B87CE0101960E94BF1381
:1035400081E08093800461960FB6F894DEBF0FBED1
:10355000CDBFDF91CF910895FC01248935892331B6
:10356000310534F42F5F3F4F358B248B80E0089575
:1035700081E00895DC015496ED91FC915597E80F98
:10358000F91F60830C94AC1AFC01158A148A0C9400
:10359000BA1AFC0126893789620F731F64317105DD
:1035A00024F4778B668B80E0089581E00895CF93B3
:1035B000DF9381E280937C0086E880937A008FEC31
:1035C00097E00197F1F700C0000080917A008064D5
:1035D00080937A0080917A0086FDFCCF8FEC97E093
:1035E0000197F1F700C0000080917A008064809319
:1035F0007A0080917A0086FDFCCFC091780080919E
:103600007900D0E0D82BCE011F921F929F938F9309
:1036100080E194E09F938F930E94E82580917A0047
:103620008F7780937A0080E09CE2BE010E94C920DF
:10363000862F6AE00E94BD20682F70E080E090E055
:103640000E941F230F900F900F900F900F900F90DC
:10365000DF91CF910895AF92BF92CF92DF92EF9218
:10366000FF920F931F93CF93DF93D42EC52EB62EC8
:10367000A72EE9012BE7FC0120837C01F2E0EF0E8D
:10368000F11C23E4FC0121831F9282E08F9386E6E4
:1036900091E09F938F93FF92EF920E9435268C01C9
:1036A0000F5F1F4F0E0D1F1DF701E80FF91F8CE272
:1036B000F82EF08289818F9388818F938B818F93ED
:1036C0008A818F938D818F938C818F9380E691E097
:1036D0009F938F931F930F930E943526EC012196A1
:1036E000C00FD11FF801E80FF91FF082AF92BF920F
:1036F000CF92DF928BE194E09F938F93DF93CF93F0
:103700000E943526C80FD91F8DE7888319828DB78F
:103710009EB748960FB6F8949EBF0FBE8DBFDF913F
:10372000CF911F910F91FF90EF90DF90CF90BF90BE
:10373000AF90089567E084E40E942B0867E084E47A
:103740000E944F082FEF83ED90E32150804090407E
:10375000E1F700C0000067E084E40C947308E3EE36
:10376000F6E083E190E09583848383E090E09383A7
:103770008283118210828BE190E0978386838CE0B4
:1037800090E09187808785E190E093878287089514
:10379000FC01208531858091EB069091EC06821723
:1037A00093070CF446C0281739070CF440C02817BB
:1037B0003907E1F5268137818091E9069091EA0683
:1037C00082179307B4F1281739078CF128173907A6
:1037D00069F5248135818091E7069091E80682178A
:1037E00093073CF12817390714F128173907F1F42A
:1037F000228133818091E5069091E6068217930736
:10380000C4F0281739079CF02817390779F420816C
:1038100031818091E3069091E406821793074CF082
:103820002817390724F02817390719F0089580E080
:10383000089581E00895CF92DF92EF92FF920F9367
:103840001F93CF93DF93CDB7DEB764970FB6F8948D
:10385000DEBF0FBECDBF0E94D71A6B017C010E9454
:10386000AF1B0E94C5128C010E94C81B882319F14E
:1038700080E294E00E9405260E949A1B9801B701FD
:10388000A6018E010F5F1F4FC8010E942B1BF82E4F
:103890001F930F938EE394E09F938F930E94E825EC
:1038A0006F2DC8010E9482040F900F900F900F900F
:1038B0000E949D09FDCF64960FB6F894DEBF0FBE3F
:1038C000CDBFDF91CF911F910F91FF90EF90DF90CF
:1038D000CF900895A0E1B0E0E0E7FCE10C948B21EB
:1038E0007C011B016A01FC0117821682838181FF22
:1038F00044C39E012F5F3F4F3901F7019381F101CE
:1039000093FD859193FF81911F01882309F431C3B1
:10391000853239F493FD859193FF81911F018532A2
:1039200039F4B70190E00E94AC2556016501E5CF5E
:1039300010E0512C912CFFE1F915D8F08B3279F081
:1039400038F4803279F08332A1F4F92DF0612EC081
:103950008D3261F0803369F4292D21602DC0392D1D
:103960003260932E892D8460982E2AC0E92DE8605C
:1039700015C097FC2DC020ED280F2A3088F496FE44
:1039800006C03AE0139F200D1124122F19C08AE0BF
:10399000589E200D1124522EE92DE0629E2E10C05B
:1039A0008E3231F496FCE5C2F92DF0649F2E08C0EA
:1039B0008C3621F4292D2068922E02C0883641F4DD
:1039C000F10193FD859193FF81911F018111B3CF87
:1039D0009BEB980F933020F4992D9061805E07C087
:1039E0009BE9980F933008F066C1992D9F7E96FF52
:1039F00016E09F73992E853619F49064992E08C0AD
:103A0000863621F4392F3068932E02C011111150DF
:103A100097FE07C01C3350F444244394410E27E022
:103A20000BC0183038F027E017E005C027E09CE312
:103A3000492E02C0212F412C560184E0A80EB11C52
:103A4000F6016081718182819381042DA3010E941E
:103A50003F246C01F981FC87F0FF02C0F3FF06C030
:103A600091FC06C092FE06C000E205C00DE203C054
:103A70000BE201C000E08C858C7019F001115AC274
:103A80009BC297FE10C04C0CFC85F4FF04C08A81D9
:103A9000813309F44A94141474F528E0241578F558
:103AA00088E0482E2CC096FC2AC0812F90E08C150F
:103AB0009D059CF03CEFC3163FEFD30674F0892DB3
:103AC0008068982E0AC0E2E0F0E0EC0FFD1FE10FE5
:103AD000F11D8081803319F411501111F4CF97FE3C
:103AE0000EC044244394410E812F90E0C816D9069D
:103AF0002CF41C1904C04424439401C010E097FE28
:103B000006C01C141D0434F4C601019605C085E0EE
:103B100090E002C081E090E001110196112331F0A4
:103B2000212F30E02F5F3F4F820F931F252D30E074
:103B30008217930714F4581A01C0512C892D8970EB
:103B400049F4552039F0B70180E290E00E94AC259D
:103B50005A94F7CF002329F0B701802F90E00E94FC
:103B6000AC2593FC09C0552039F0B70180E390E003
:103B70000E94AC255A94F7CF97FE4CC04601D7FE61
:103B800002C0812C912CC60188199909F301E80F14
:103B9000F91FFE87ED87960124193109388B2F878D
:103BA000012F10E01195019511093FEF831693063F
:103BB00029F4B7018EE290E00E94AC25C814D90424
:103BC0004CF08F8598898815990524F4ED85FE853C
:103BD000818101C080E3F1E08F1A91082D853E8537
:103BE0002F5F3F4F3E872D87801691062CF0B7013F
:103BF00090E00E94AC25D9CFC814D90441F49A8131
:103C0000963320F4953319F43C8534FF81E3B701F2
:103C100090E04EC08A81813319F09C859F7E9C87FD
:103C2000B70190E00E94AC25111105C094FC18C0AA
:103C300085E690E017C0B7018EE290E00E94AC25C7
:103C40001E5F82E001E0080FF301E80FF11D8081A3
:103C5000B70190E00E94AC25802F0113F3CFE6CF8F
:103C600085E490E0B7010E94AC25D7FC06C0C114E2
:103C7000D10441F4EC85E4FF05C0D194C194D1088E
:103C80008DE201C08BE2B70190E00E94AC2580E399
:103C90002AE0C216D1042CF08F5FFAE0CF1AD108C7
:103CA000F7CFB70190E00E94AC25B701C601C096DE
:103CB0000E94AC2554C1833631F0833779F08335C7
:103CC00009F056C020C0560132E0A30EB11CF60127
:103CD0008081898301E010E0630112C05601F2E0A7
:103CE000AF0EB11CF601C080D18096FE03C0612FDB
:103CF00070E002C06FEF7FEFC6010E9441258C018A
:103D0000F92DFF7714C0560122E0A20EB11CF60176
:103D1000C080D18096FE03C0612F70E002C06FEFBB
:103D20007FEFC6010E9417258C01F92DF0689F2EA8
:103D3000F3FD1AC0852D90E008171907A8F4B70104
:103D400080E290E00E94AC255A94F4CFF60197FCF3
:103D5000859197FE81916F01B70190E00E94AC259B
:103D600051105A94015011090115110579F7F7C046
:103D7000843611F0893661F5560197FE09C024E0BA
:103D8000A20EB11CF60160817181828193810AC00B
:103D9000F2E0AF0EB11CF60160817181072E000CBC
:103DA000880B990BF92DFF769F2E97FF09C09095F0
:103DB0008095709561957F4F8F4F9F4FF0689F2E34
:103DC0002AE030E0A3010E945726C82EC6183FC043
:103DD000092D853721F40F7E2AE030E01DC0097FD0
:103DE0008F3691F018F4883559F0C3C0803719F038
:103DF000883711F0BEC0006104FF09C0046007C02D
:103E000094FE08C0066006C028E030E005C020E14E
:103E100030E002C020E132E0560107FF09C084E033
:103E2000A80EB11CF601608171818281938108C066
:103E3000F2E0AF0EB11CF6016081718180E090E08C
:103E4000A3010E945726C82EC6180F77902E96FE03
:103E50000BC0092D0E7FC11650F494FE0AC092FCCF
:103E600008C0092D0E7E05C0DC2C092D03C0DC2CFA
:103E700001C0D12E04FF0DC0FE01EC0DF11D8081AB
:103E8000803311F4097E09C002FF06C0D394D39495
:103E900004C0802F867809F0D39403FD11C000FF81
:103EA00006C01C2DD51480F4150D1D190DC0D51498
:103EB00058F4B70180E290E00E94AC25D394F7CF8C
:103EC000D51410F45D1801C0512C04FF10C0B701C7
:103ED00080E390E00E94AC2502FF17C001FD03C003
:103EE00088E790E002C088E590E0B7010CC0802F21
:103EF000867859F001FF02C08BE201C080E207FD25
:103F00008DE2B70190E00E94AC25C11638F4B701EC
:103F100080E390E00E94AC251150F7CFCA94F301E2
:103F2000EC0DF11D8081B70190E00E94AC25C1101D
:103F3000F5CF15C0F4E0F51560F584E0581A93FE4E
:103F40001FC0011127C02C8523FF2AC00AEB10E0F7
:103F5000392D3071932EF8018491811124C05520A0
:103F600009F4E4CCB70180E290E00E94AC255A94B9
:103F7000F6CFF7018681978126C08FEF9FEF23C090
:103F8000B70180E290E00E94AC255A945110F8CF1E
:103F9000D8CF512CB701802F90E00E94AC25D3CF11
:103FA0000EEB10E0D5CF91108052B70190E00E9447
:103FB000AC250F5F1F4FCFCF23E0251510F483E012
:103FC000BDCF512CC0CF6096E2E10C94A7210E9496
:103FD0005B0989E991E00E9405260E94AC190E94C4
:103FE000741261E081E894E00E94471088EB91E050
:103FF0000E9405260E94450700ED11E0C6E2D2E0CE
:104000000E94D4080E94AC190E94A3124EE855E009
:1040100060E975E082E995E00E94601380918F0568
:104020008F9380918E058F93809191058F938091CE
:1040300090058F93809193058F93809192058F9334
:104040001F930F930E94E8258DB79EB708960FB671
:10405000F8949EBF0FBE8DBF8091920590919305FD
:10406000892B71F48091900590919105892B41F4F1
:1040700080918E0590918F05892B11F41092800408
:1040800080918004811104C082EF91E00E94052696
:1040900081E894E00E94641181E894E00E945D1040
:1040A0008BE495E00E944306682F8BE495E00E9424
:1040B00082040E941B1C8DE795E00E9453174EE876
:1040C00055E060E975E082E995E00E946013809117
:1040D0008F058F9380918E058F93809191058F939B
:1040E000809190058F93809193058F938091920595
:1040F0008F93DF93CF930E94E8250E94EA088DE416
:1041000092E00E9405260E949D098DB79EB70896F1
:104110000FB6F8949EBF0FBE8DBF72CFE6EDF5E0EF
:1041200014AA13AA16AA15AA81E087AB10AE11AE85
:1041300012AE13AE10924A051092490581E894E040
:104140000C94E90960E070E086E799E00E9461253F
:1041500090931906809318060895DB018F939F931F
:104160000E941921BF91AF91A29F800D911DA39F25
:10417000900DB29F900D11240895991B79E004C011
:10418000991F961708F0961B881F7A95C9F7809596
:104190000895AA1BBB1B51E107C0AA1FBB1FA6178E
:1041A000B70710F0A61BB70B881F991F5A95A9F7E0
:1041B00080959095BC01CD01089597FB072E16F4CC
:1041C000009407D077FD09D00E94C92007FC05D0D4
:1041D0003EF4909581959F4F0895709561957F4F1E
:1041E0000895A1E21A2EAA1BBB1BFD010DC0AA1F38
:1041F000BB1FEE1FFF1FA217B307E407F50720F050
:10420000A21BB30BE40BF50B661F771F881F991FCA
:104210001A9469F760957095809590959B01AC0113
:10422000BD01CF010895EE0FFF1F0590F491E02D21
:1042300009940E94F921A59F900DB49F900DA49F11
:10424000800D911D11240895B7FF0C9419210E942F
:104250001921821B930B0895689401C0E8948F92F2
:104260009F92CF93DF930E943A21DF91CF919F904D
:104270008F90089588249924F401E401B0E49F9379
:10428000AA279A158B049C04ED05FE05CF05D007DF
:10429000A10798F4AD2FDC2FCF2FFE2FE92D982CFE
:1042A000892E982F872F762F652F542F432F322F4B
:1042B0002227B85031F7BF9127C01B2EBF91BB27D3
:1042C000220F331F441F551F661F771F881F991F1A
:1042D000881C991CEE1FFF1FCC1FDD1FAA1FBB1FD0
:1042E0008A149B04EC05FD05CE05DF05A007B10788
:1042F00048F08A189B08EC09FD09CE09DF09A00BDC
:10430000B10B21601A94E1F62EF49401AF01BE01C5
:10431000CD01000C08952F923F924F925F926F92C1
:104320007F928F929F92AF92BF92CF92DF92EF9245
:10433000FF920F931F93CF93DF93CDB7DEB7CA1BC6
:10434000DB0B0FB6F894DEBF0FBECDBF09942A88F1
:10435000398848885F846E847D848C849B84AA8499
:10436000B984C884DF80EE80FD800C811B81AA8126
:10437000B981CE0FD11D0FB6F894DEBF0FBECDBFF1
:10438000ED0108950F93083090F0982F872F762F26
:10439000652F542F432F322F22270850F4CF220F9E
:1043A000331F441F551F661F771F881F991F0A95CB
:1043B000B2F70F91089597FB10F8169400080F9329
:1043C000083098F00850232F342F452F562F672F91
:1043D000782F892F902DF4CF059497958795779511
:1043E000679557954795379527950A95AAF70F91A1
:1043F0000895A29FB001B39FC001A39F700D811DBE
:104400001124911DB29F700D811D1124911D0895DD
:104410005058BB27AA270E9420220C9471230E9487
:10442000632338F00E946A2320F039F49F3F19F487
:1044300026F40C9460230EF4E095E7FB0C945A23C9
:10444000E92F0E94822358F3BA1762077307840783
:10445000950720F079F4A6F50C94A4230EF4E095CA
:104460000B2EBA2FA02D0B01B90190010C01CA012E
:10447000A0011124FF27591B99F0593F50F4503ED9
:1044800068F11A16F040A22F232F342F4427585FCB
:10449000F3CF469537952795A795F0405395C9F7E3
:1044A0007EF41F16BA0B620B730B840BBAF091509B
:1044B000A1F0FF0FBB1F661F771F881FC2F70EC03A
:1044C000BA0F621F731F841F48F48795779567950D
:1044D000B795F7959E3F08F0B0CF9395880F08F0F9
:1044E0009927EE0F9795879508950E9489220C943D
:1044F00071230E946A2358F00E94632340F029F43C
:104500005F3F29F00C945A2351110C94A5230C946D
:1045100060230E94822368F39923B1F3552391F31A
:10452000951B550BBB27AA2762177307840738F022
:104530009F5F5F4F220F331F441FAA1FA9F335D07F
:104540000E2E3AF0E0E832D091505040E695001C33
:10455000CAF72BD0FE2F29D0660F771F881FBB1FED
:10456000261737074807AB07B0E809F0BB0B802DCB
:10457000BF01FF2793585F4F3AF09E3F510578F0F7
:104580000C945A230C94A5235F3FE4F3983ED4F394
:10459000869577956795B795F7959F5FC9F7880FCB
:1045A000911D9695879597F90895E1E0660F771F1D
:1045B000881FBB1F621773078407BA0720F0621BAE
:1045C000730B840BBA0BEE1F88F7E09508950E94D9
:1045D000EE226894B1110C94A52308950E948A23B9
:1045E00088F09F5798F0B92F9927B751B0F0E1F0B4
:1045F000660F771F881F991F1AF0BA95C9F714C064
:10460000B13091F00E94A423B1E008950C94A4234A
:10461000672F782F8827B85F39F0B93FCCF386959C
:1046200077956795B395D9F73EF4909580957095F9
:1046300061957F4F8F4F9F4F0895E89409C097FB76
:104640003EF490958095709561957F4F8F4F9F4F69
:104650009923A9F0F92F96E9BB279395F6958795AD
:1046600077956795B795F111F8CFFAF4BB0F11F470
:1046700060FF1BC06F5F7F4F8F4F9F4F16C0882317
:1046800011F096E911C0772321F09EE8872F762F4D
:1046900005C0662371F096E8862F70E060E02AF08E
:1046A0009A95660F771F881FDAF7880F969587957A
:1046B00097F9089597F99F6780E870E060E00895A2
:1046C0009FEF80EC089500240A941616170618062A
:1046D0000906089500240A94121613061406050606
:1046E0000895092E0394000C11F4882352F0BB0F97
:1046F00040F4BF2B11F460FF04C06F5F7F4F8F4FFA
:104700009F4F089557FD9058440F551F59F05F3F34
:1047100071F04795880F97FB991F61F09F3F79F0E3
:1047200087950895121613061406551FF2CF469565
:10473000F1DF08C0161617061806991FF1CF8695E7
:104740007105610508940895E894BB2766277727CB
:10475000CB0197F908950E94BE230C9471230E9407
:10476000632338F00E946A2320F0952311F00C9403
:104770005A230C94602311240C94A5230E948223B5
:1047800070F3959FC1F3950F50E0551F629FF001A4
:10479000729FBB27F00DB11D639FAA27F00DB11DBD
:1047A000AA1F649F6627B00DA11D661F829F222746
:1047B000B00DA11D621F739FB00DA11D621F839FCD
:1047C000A00D611D221F749F3327A00D611D231FA3
:1047D000849F600D211D822F762F6A2F11249F57F1
:1047E00050409AF0F1F088234AF0EE0FFF1FBB1FF4
:1047F000661F771F881F91505040A9F79E3F5105B3
:1048000080F00C945A230C94A5235F3FE4F3983E68
:10481000D4F3869577956795B795F795E7959F5F5C
:10482000C1F7FE2B880F911D9695879597F90895EE
:104830001F93FC0199278827BC01E894119110323D
:10484000E9F3193010F01E30C8F31B3251F01D325D
:1048500049F4689406C00E944C25610F711D811DAA
:10486000911D119110531A30B0F33EF4909580953C
:10487000709561957F4F8F4F9F4F1F9108952830FE
:1048800008F027E03327DA01990F311D87FD916089
:1048900000966105710539F432602E5F3D9330E377
:1048A0002A95E1F708959F3F30F080387105610542
:1048B00009F03C5F3C5F3D93913008F08068911DAA
:1048C000DF93CF931F930F93FF92EF92192F987F4F
:1048D0009695E92F96959695E90FFF27E45EFE4F92
:1048E00099273327EE24FF24A701E70105900894B8
:1048F000079428F4360FE71EF81E491F511D660F56
:10490000771F881F991F0694A1F70590079428F434
:10491000E70EF81E491F561FC11D770F881F991FEC
:10492000661F0694A1F70590079428F4F80E491F16
:10493000561FC71FD11D880F991F661F771F06942A
:10494000A1F70590079420F4490F561FC71FD81FE1
:10495000990F661F771F881F0694A9F784911095F9
:10496000177041F0D695C79557954795F794E794FA
:104970001A95C1F7E2ECF0E0689415901591359125
:104980006591959105907FE27395E118F10A430BCB
:10499000560BC90BD009C0F7E10CF11E431F561F7F
:1049A000C91FD01D7EF4703311F48A95E6CFE894C8
:1049B000015030F0080F0AF40027021708F4202FE6
:1049C0002395022F7A3328F079E37D932A95E9F72E
:1049D00010C07D932A9589F606949795679537952B
:1049E00017951794E118F10A430B560BC90BD00920
:1049F00098F023957E9173957A3308F070E37C9359
:104A00002013B8F77E9170617D9330F0839571E348
:104A10007D9370E32A95E1F71124EF90FF900F91B9
:104A20001F91CF91DF91992787FD90950895FC0103
:104A30000590615070400110D8F7809590958E0FC9
:104A40009F1F0895FB01DC018D91019080190110D9
:104A5000D9F3990B0895FB01DC0101900D92002020
:104A6000E1F70895FB01DC014150504048F001900E
:104A70000D920020C9F701C01D9241505040E0F74F
:104A80000895FC016150704001900110D8F78095A5
:104A900090958E0F9F1F0895592F482F372F262F3F
:104AA000660F771F881F991F660F771F881F991F32
:104AB000620F731F841F951F660F771F881F991F32
:104AC00008950F931F93CF93DF93009731F46115EF
:104AD000710519F480E090E03AC08B01EC016EE0C2
:104AE00070E081E090E00E94B526FC01892B91F3F3
:104AF00080E883830115110571F01387028781E82F
:104B000083838091F4069091F506892B21F4F0932C
:104B1000F506E093F4062097C9F0D187C08783811A
:104B2000826083838091F6069091F706892B71F459
:104B3000F093F706E093F6068091F8069091F90657
:104B4000892B21F4F093F906E093F806CF01DF9169
:104B5000CF911F910F9108950F931F93CF93DF93E0
:104B6000FB01238121FD03C08FEF9FEF2CC022FFAB
:104B700016C046815781248135814217530744F47A
:104B8000A081B1819D012F5F3F4F318320838C93A2
:104B9000268137812F5F3F4F3783268314C08B01D7
:104BA000EC01FB010084F185E02D0995892BE1F6EC
:104BB000D80116968D919C911797019617969C9304
:104BC0008E931697CE01DF91CF911F910F9108958B
:104BD000A0E0B0E0EEEEF5E20C949B21AE014B5F5D
:104BE0005F4FFA0161917191AF018091F60690914A
:104BF000F7060E946A1CE2E00C94B7216091F60669
:104C00007091F7060E94AC2508950F931F93CF93E0
:104C1000DF93E091F606F091F706238121FF1BC098
:104C20008C01D0E0C0E0F80181918F016091F6061F
:104C30007091F706DB011896ED91FC911997882386
:104C400031F00995892B79F3DFEFCFEFECCF8AE0D4
:104C50000995892B19F08FEF9FEF02C08D2F9C2FA4
:104C6000DF91CF911F910F910895AEE0B0E0EBE39B
:104C7000F6E20C9499210D891E8986E08C831A83B3
:104C800009838FEF9FE79E838D83AE01475E5F4F61
:104C90006F89788DCE0101960E946A1CEF81F8859C
:104CA000E00FF11F10822E96E4E00C94B521FA017A
:104CB000AA27283051F1203181F1E8946F936E7F5B
:104CC0006E5F7F4F8F4F9F4FAF4FB1E03ED0B4E04C
:104CD0003CD0670F781F891F9A1FA11D680F791F8D
:104CE0008A1F911DA11D6A0F711D811D911DA11D9E
:104CF00020D009F468943F912AE0269F11243019AE
:104D0000305D3193DEF6CF010895462F4770405D48
:104D10004193B3E00FD0C9F7F6CF462F4F70405DF7
:104D20004A3318F0495D31FD4052419302D0A9F752
:104D3000EACFB4E0A6959795879577956795BA954C
:104D4000C9F700976105710508959B01AC010A2E12
:104D500006945795479537952795BA95C9F7620FE9
:104D6000731F841F951FA01D08950F931F93CF934A
:104D7000DF93869F8001879F100D969F100D112451
:104D8000C8010E94D126EC01009729F0A80160E03B
:104D900070E00E94F227CE01DF91CF911F910F9119
:104DA00008950F931F93CF93DF938230910510F4F2
:104DB00082E090E0E091FC06F091FD0620E030E01A
:104DC000A0E0B0E0309719F1408151810281138158
:104DD00048175907C8F08417950769F4109731F000
:104DE00012960C93129713961C9327C00093FC06FF
:104DF0001093FD0622C02115310519F04217530703
:104E000018F49A01BD01EF01DF01F801DBCF211594
:104E10003105F9F0281B390B2430310580F48A81E3
:104E20009B816115710521F0FB019383828304C08E
:104E30009093FD068093FC06FE01329644C0FE016D
:104E4000E20FF31F81939193225031093983288314
:104E50003AC02091FA063091FB06232B41F42091B1
:104E60000301309104013093FB062093FA06209150
:104E70000101309102012115310541F42DB73EB7F2
:104E80004091050150910601241B350BE091FA0673
:104E9000F091FB06E217F307A0F42E1B3F0B281737
:104EA000390778F0AC014E5F5F4F2417350748F0A3
:104EB0004E0F5F1F5093FB064093FA068193919328
:104EC00002C0E0E0F0E0CF01DF91CF911F910F91A0
:104ED0000895CF93DF93009709F481C0FC013297C6
:104EE00013821282A091FC06B091FD06109781F406
:104EF00020813181820F931F2091FA063091FB06A9
:104F00002817390751F5F093FB06E093FA0667C0BE
:104F1000ED0120E030E0CE17DF0740F44A815B81ED
:104F20009E0141155105F1F0EA01F5CFD383C2830B
:104F300040815181840F951FC817D90759F4888182
:104F40009981840F951F0296918380838A819B812A
:104F5000938382832115310529F4F093FD06E093B4
:104F6000FC063DC0E901FB83EA8349915991C40FD6
:104F7000D51FEC17FD0761F480819181840F951F87
:104F80000296E90199838883828193819B838A8336
:104F9000E0E0F0E012968D919C911397009719F044
:104FA000FD01DC01F7CF8D919C9111979D012E5F42
:104FB0003F4F820F931F2091FA063091FB0628176E
:104FC000390769F4309729F41092FD061092FC0617
:104FD00002C013821282B093FB06A093FA06DF91FF
:104FE000CF910895DC0101C06D9341505040E0F72E
:064FF0000895F894FFCFC4
:104FF600010000FE062000781E00A02800F03C00FC
:10500600405100127A00E4A20024F40048E801901E
:10501600D00320A107770379037E037D037F0381F5
:10502600038203850389038B038C038F0399039300
:1050360003980397035374617274696E67204C6F0B
:105046005261206661696C6564210D00256C7500EE
:1050560025643A25643A2564004E4F5F4C4F430061
:105066005061636B65742067656E65726174656413
:105076003A202573200D0A00506B74204C656E672C
:1050860074683A2025640D0A002D2D2D2D2D2D2D09
:10509600204D656469756D20436F6C6C6172202DBF
:1050A6002D2D2D2D2D2D0D0052544320616E642083
:1050B60047505320496E697420446F6E65200D0079
:1050C6004D61696E3A2057616B6575702054696D44
:1050D600653A202564203A202564203A2025640D6F
:1050E6000A004D61696E3A2054696D65206E6F74D1
:1050F600207365742C2057616974696E6720666F2A
:10510600722074696D652066726F6D204C6F5261F6
:1051160020506B740D004D61696E3A20536C6565C5
:10512600702054696D653A202564203A2025642054
:105136003A2025640D0A0D0A0D0A0D0A004D616913
:105146006E3A20476F696E6720746F20736C6565D1
:1051560070206E6F77200D0A0D00526563696576C3
:105166006564205061636B65740D00252E366600FC
:105176004750524D4300474E524D43004750474714
:105186004100474E474741004750532050756C73C6
:105196006520476976656E200D004C6F6361746902
:1051A6006F6E3A20002566202C202566200D0A0009
:1051B600494E56414C49440D00446174652F54696B
:1051C6006D653A20002564202F202564202F202598
:1051D600642020202D202000494E56414C49442071
:1051E6000D002564203A200048616E64656C696E86
:1051F6006720475053204E6F773A20256C750D0A6D
:10520600004750532D3E48616E646C65723A2052D9
:10521600657475726E205472756520696E206D53C3
:105226002054696D65722061743A20256C750D0AEB
:10523600004750532D3E48616E646C65723A2052A9
:10524600657475726E20466C61736520696E206D9B
:10525600532054696D65722061743A20256C750D72
:105266000A00252E3266004E004E4E4500454E453C
:1052760000455345005353450053005353570057B9
:10528600535700574E57004E4E5700736368656478
:10529600756C652D3E616C61726D48616E646C65FE
:1052A600723A20547275652053657474696E67206E
:1052B600616C61726D20666F723A202564202F2022
:1052C60025640D0A007363686564756C652D3E611F
:1052D6006C61726D48616E646C65723A2046616CF1
:1052E60073652053657474696E6720616C61726DB5
:1052F60020666F723A202564202F2025640D0A004F
:105306004144433A20256C750D0A00252E3166006E
:1053160072656C6561736548616E646C65722D3E7D
:1053260052656C656173652074696D650D00536522
:0C5336006E64696E673A2025730D0A0052
:00000001FF
