:100000000C94E0000C948A090C9408010C940801EB
:100010000C9408010C9408010C9408010C94CD0870
:100020000C9408010C9408010C9408010C9408012C
:100030000C9408010C9408010C940A010C9408011A
:100040000C9408010C9408010C940E090C940801FE
:100050000C9408010C9408010C9408010C940801FC
:100060000C943A180C9408017C0E890E8D0E930E98
:10007000990EAE0EB70EBE0EC30EC90EC90EC90E36
:10008000C90EC90EC90EC90EC90EC90EC90EC90EB8
:10009000C90EC90EC90EC90EC90EC90EC90EC90EA8
:1000A000C90EC90EC90EC90E7C0E820E890E8D0EA8
:1000B000930E990E9F0EA30EA80E6E616E00696ED0
:1000C000660000407A10F35A00A0724E1809001022
:1000D000A5D4E80000E87648170000E40B540200BD
:1000E00000CA9A3B000000E1F505000080969800E8
:1000F000000040420F000000A08601000000102711
:1001000000000000E80300000000640000000000A0
:100110000A00000000000100000000002C76D888D2
:10012000DC674F0823DFC1DFAE59E1B1B796E5E3E5
:10013000E453C63AE651997696E8E6C28426EB89FE
:100140008C9B62ED407C6FFCEFBC9C9F40F2BAA59B
:100150006FA5F490055A2AF75C936B6CF9676DC133
:100160001BFCE0E40D47FEF520E6B500D0ED902E37
:100170000300943577050080841E080000204E0A95
:10018000000000C80C333333330F986E12831141D3
:10019000EF8D2114893BE65516CFFEE6DB18D1849E
:1001A0004B381BF77C1D901DA4BBE42420328472C5
:1001B0005E228100C9F124ECA1E53D279C20B020FE
:1001C00011241FBECFEFD8E0DEBFCDBF14E0A0E00A
:1001D000B1E0E2E1F0E502C005900D92A03DB1076B
:1001E000D9F727E0A0EDB4E001C01D92A035B20719
:1001F000E1F710E0C0EED0E004C02197FE010E94BC
:100200002121CE3DD107C9F70E94FE1F0C9407287B
:100210000C9400001F920F920FB60F9211248F932F
:100220009F93EF93FF938091D904813019F58091CA
:10023000D8048150E9F48091D5049091D60480FFD0
:1002400002C0289A01C028988091D5049091D604C4
:10025000969587959093D6048093D5048091D70482
:1002600081508093D704811102C01092D90483E099
:100270008093D8048091DB04811152C08091D40412
:100280008823E9F08091D30481508093D3048111B5
:1002900047C01092D4041092DA04E091DD04F0E03B
:1002A0008091D204E252FB4F80838091DD048F5F06
:1002B0008093DD048032A0F11092DD0431C0809182
:1002C000DA04811110C019992BC081E08093DA04FF
:1002D0001092D20494E09093D30498E09093D104C8
:1002E0008093D0041DC08091D3048150B9F48091D3
:1002F000D004199B05C09091D204982B9093D204FE
:10030000880F8093D0048091D10481508093D104D0
:10031000811103C081E08093D40483E08093D304EF
:10032000FF91EF919F918F910F900FBE0F901F90B3
:1003300018951092D9041092DA041092DB04289ACE
:10034000209A21989FB7F89481E287BD82E084BD0E
:1003500085BDEEE6F0E080818260808316BC9FBFA1
:1003600008951092DB04089581E08093DB040895E2
:100370009091DC048091DD049817E1F3E92FF0E01F
:10038000E252FB4F80819F5F903218F49093DC041F
:1003900008951092DC0408959091DD0481E020918D
:1003A000DC04291301C080E008951092DD0410924E
:1003B000DC0408959091D90481E0913009F080E047
:1003C00008959091D9049130E1F393E09093D8048B
:1003D0009AE09093D704880F990B92609093D6047B
:1003E0008093D50481E08093D9040895CF93DF935F
:1003F000EC018991882319F00E94E101FACFDF9185
:10040000CF910895CF93DF93FC018491EF01219662
:10041000882321F00E94E101FE01F7CFDF91CF9107
:100420000895CF93DF93D82FC62F60E083E40E9416
:1004300053088D2F0E94C6058C2F0E94C605C82F19
:1004400060E083E40E942F088C2FDF91CF91089504
:1004500060E08F770C9411028AE10E94280240919B
:100460000005509101056091020570910305411549
:10047000514A6C4B734310F09DE901C094EA891B0B
:10048000089589E10E94280285958595089583E164
:100490000E9428029091FF04891B08950E94470240
:1004A000882341F08091FF048F5F8093FF0480E0F8
:1004B0000C9428028FEF08958EE10E942802829505
:1004C0008F7008958DE10E94280290E034E09595A8
:1004D00087953A95E1F78A3091057CF4FC01EE0F9F
:1004E000FF1F8E0F9F1FFC01E95FFE4F80819181EE
:1004F000A281BC018A2F90E0089560E271EA87E052
:1005000090E008958F929F92AF92BF92CF92DF9228
:10051000EF92FF9288E20E9428028770C82ED12CA9
:10052000E12CF12CFE2CED2CDC2CCC2489E20E9459
:100530002802C80ED11CE11CF11CFE2CED2CDC2C79
:10054000CC248AE20E942802C80ED11CE11CF11CB6
:1005500088E20E94280283FF03C088E0E81AF108BD
:100560000E9462024B015C01C701B6010E942D236B
:1005700020E030E040E85BE40E94B92320E034E270
:1005800044EF5BE40E9483226B017C01C501B4014E
:100590000E942B2320E034E244EF58E40E9483229F
:1005A0009B01AC01C701B6010E94B9230E94F5224C
:1005B000FF90EF90DF90CF90BF90AF909F908F9083
:1005C000089580680C94110263E881E80E9411028A
:1005D00082E10E94280283FD07C08FE19EE401971B
:1005E000F1F700C00000F4CF68E082E90E94110238
:1005F00081E00895DF92EF92FF920F931F93CF93C4
:10060000DF93F82ED92EC62F82E20E942802D82F1F
:100610008C2F90E08D0F911D8F3F910519F010F0F8
:10062000CD2FC095EF2C0F2D1D2D802F8E198C17DF
:1006300038F4F80161918F0180E80E941102F5CF32
:100640006C2F6D0F82EA0E9411028C2FDF91CF91E7
:100650001F910F91FF90EF90DF900895CF93DF935C
:100660000E944702882371F08DE00E942802D82F53
:1006700080E00E942802C82F6D2F8DE80E94110291
:100680008C2F01C08FEFDF91CF91089561E881E851
:100690000C94110260E881E80C9411020C944A0356
:1006A000823020F0823118F081E101C082E0825076
:1006B000682F606889E80C941102AF92BF92CF92C4
:1006C000DF92EF92FF920F931F93CF93DF9360938C
:1006D0000005709301058093020590930305DC01EA
:1006E000CB019C01AD0160E070E080E090E003E1AF
:1006F0000E94D021A12CE8E4BE2EF8EECF2EDD24FE
:10070000D394E12CF12C00E010E00E943C21C22F98
:10071000B32E6A017B01182FD92F00E10E94EB2133
:10072000622F86E80E9411022C2F3B2DA601B701F3
:10073000812F9D2F08E00E94EB21622F87E80E9405
:1007400011026C2F88E8DF91CF911F910F91FF90DC
:10075000EF90DF90CF90BF90AF900C941102CF92AA
:10076000DF92EF92FF926B017C0160E083E40E94D4
:100770000B0860E083E40E942F0861E083E40E949C
:100780000B0861E083E40E9453088FE19EE4019727
:10079000F1F700C0000061E083E40E942F088FE1C0
:1007A0009EE40197F1F700C0000082E40E94280255
:1007B000823109F50E944A03C701B6010E945D0318
:1007C00060E08EE80E94110260E08FE80E94110252
:1007D0008CE00E942802682F63608CE80E9411025E
:1007E00064E086EA0E94110284E10E9450030E94A4
:1007F000460381E001C080E0FF90EF90DF90CF9052
:1008000008950F9301E020E040E061E080E00E9465
:10081000A10560EC7AEC89E896E30E94AF038111B0
:1008200005C085E491E00E941326FFCF8CE591E09E
:100830000F910C941326CF93853028F0C82F893060
:1008400018F0C8E001C0C5E08DE10E9428026C2FBD
:1008500070E064507109660F771F817F682B8DE906
:10086000CF910C941102CF93C82F692F80EA0E9478
:1008700011026C2F81EACF910C941102682F89EB41
:100880000C9411028EE10E942802682F64608EE9A8
:100890000C9411028EE10E942802682F6B7F8EE972
:1008A0000C9411021092FE048DE10E942802682F20
:1008B0006E7F8DE90C94110281E08093FE048DE13E
:1008C0000E942802682F61608DE90C941102CF9379
:1008D000C82F0E944603CC2319F00E945C0402C07A
:1008E0000E94520460E08DE80E94110260E082EAFA
:1008F0000E94110281E0CF9108951F93CF93DF935F
:10090000EC01162F0E94010480E00E946704612F11
:10091000CE010E94FA020E94E402DF91CF911F9162
:100920000C944A03CF93DF93D82F82E10E942802D0
:10093000C82FDD2339F00E945C046D2F82EA0E94EB
:10094000110202C00E9452046C2F82E90E9411021F
:10095000C6FF18C0C5FD16C01092FF048091FE04AA
:10096000882311F082E201C083E10E942802C82F8F
:1009700080E10E942802682F8DE80E9411020E94E7
:1009800046030FC081E00E942802863841F060E0F3
:100990008DE80E94110266E881E80E941102C0E021
:1009A000D0E08C2FDF91CF910895CF93DF93EC01AE
:1009B000181619063CF40E945C046C2F82EA0E940F
:1009C000110202C00E94520465E881E8DF91CF91D4
:1009D0000C941102CF92DF92EF92FF92CF93DF93AC
:1009E0000E9462026B017C010E945C02D82F86E2A9
:1009F0000E942802C82FA701960104C0569547956A
:100A000037952795DA95D2F768EE73E080E090E0AD
:100A10000E94FF206C2F213131054105510510F056
:100A2000686001C0677F86EADF91CF91FF90EF9009
:100A3000DF90CF900C941102CF93C82F863020F016
:100A40008D3060F4863059F465EC81EB0E94110220
:100A50006CE087EB0E941102C6E009C0CCE063ECB9
:100A600081EB0E9411026AE087EB0E9411028EE185
:100A70000E9428028F7090E1C99F90011124682F75
:100A8000622B8EE90E941102CF910C94EA04CF935D
:100A900069372EE172078105910590F1613A28E2EC
:100AA00072078105910570F1613F2CE372078105A2
:100AB000910550F1613421E572078105910530F10E
:100AC00063312AE772078105910510F1653E22EA3C
:100AD000720781059105F0F0653224EF72078105F8
:100AE0009105D0F0693428EE720721E08207910564
:100AF000A8F06139704D8340910590F0C9E011C0B4
:100B0000C0E00FC0C1E00DC0C2E00BC0C3E009C02F
:100B1000C4E007C0C5E005C0C6E003C0C7E001C02F
:100B2000C8E08DE10E9428028F7090E1C99F90017A
:100B30001124682F622B8DE90E941102CF910C9431
:100B4000EA040F9394B1986294B924982C9A437054
:100B500094E0499FA001112423702064422BA62F0A
:100B6000A170B0E094E0AA0FBB1F9A95E1F74A2B61
:100B7000E82FE170F0E025E0EE0FFF1F2A95E1F786
:100B8000E42BECBD01700DBD0F9108958EBD0DB429
:100B900007FEFDCF8EB50895BF92CF92DF92EF9200
:100BA000FF920F931F93CF93DF93EC01BB24B39479
:100BB00088E8C82E83E1D82EE12CF12C02E310E066
:100BC0008DA99EA92BA93CA928173907B9F12CADED
:100BD000222319F0213069F027C0FE01E80FF91F28
:100BE00081818B3711F5BCAEC8AED9AEEAAEFBAE93
:100BF0001CC0FE01E80FF91F618187EB95E06D379E
:100C000039F40E94C41A87EB95E00E94421A0CC086
:100C10000E94C41A811108C088AD99ADAAADBBADC0
:100C2000892B8A2B8B2B09F41CAE8DA99EA90196CA
:100C3000B8010E94EB209EAB8DABC2CFDF91CF916C
:100C40001F910F91FF90EF90DF90CF90BF9008958C
:100C5000FC0187A9882389F040AD51AD62AD73AD29
:100C6000411551056105710541F041505109610976
:100C7000710940AF51AF62AF73AF0895CF92DF9269
:100C8000FF920F931F93CF93DF938C018091050503
:100C9000E8012296882309F47CC08BE7F801808361
:100CA00083E481831F9282E08F938DE791E09F938D
:100CB0008F93DF93CF930E944326BC016F5F7F4FDA
:100CC0006C0F7D1FC80FD91F3CE2F32EF88285E020
:100CD00095E00E94F80BBC016F5F7F4FFC01F08232
:100CE00085E095E00E94170CBC016F5F7F4FFC010F
:100CF000F08285E095E00E9403126C01FFEFCF1AAD
:100D0000DF0AFC01F08210926E05809176058F93C8
:100D1000809175058F93809174058F9380917305F1
:100D20008F9383E791E09F938F93DF92CF920E94FE
:100D30004326EC012196CC0DDD1DF601E80FF91FCD
:100D4000F0828091E1058F938091E0058F938091EF
:100D5000E3058F938091E2058F938091E5058F9352
:100D60008091E4058F9387E791E09F938F93DF93C2
:100D7000CF930E944326C80FD91F8DE7888319821D
:100D80008DB79EB748960FB6F8949EBF0FBE8DBF25
:100D900049C08BE7F801808383E481831F9282E05E
:100DA0008F938DE791E09F938F93DF93CF930E9472
:100DB00043266E01C80ED91E2CE2F22EF601F082F7
:100DC000019660E871E08C0F9D1F0E943925E601B5
:100DD0002896F601F7828091E1058F938091E005D6
:100DE0008F938091E3058F938091E2058F9380919B
:100DF000E5058F938091E4058F9387E791E09F93BA
:100E00008F93DF93CF930E944326C80FD91F8DE79E
:100E1000888319828DB79EB740960FB6F8949EBF0F
:100E20000FBE8DBFF80101900020E9F7CF010197B7
:100E3000801B910BDF91CF911F910F91FF90DF905D
:100E4000CF900895EF92FF920F931F93CF93DF936C
:100E5000CDB7DEB761970FB6F894DEBF0FBECDBF3A
:100E600083E1E82EF12CFE82ED8201E010E01C838C
:100E70000B831A8219828BE190E098878F838CE034
:100E800090E09A87898785E190E09C878B87CE01E7
:100E900001960E94A913EFECF5E0F7A2E6A215A2D5
:100EA00014A213A212A21092180610921706109301
:100EB000160600931506109214061092130684E18C
:100EC00090E090AF87AB16AA15AA14AA13AA81E0E6
:100ED0008093040561960FB6F894DEBF0FBECDBFB8
:100EE000DF91CF911F910F91FF90EF90089588E2CD
:100EF00096E00E9428068091240690912506A091F4
:100F00002606B09127060097A105B10559F0019773
:100F1000A109B1098093240690932506A093260683
:100F2000B093270685E095E00C94EE118093280697
:100F300020915B0630915C06F901E85DF94F8183F1
:100F4000C9010196823391052CF490935C0680933D
:100F50005B06089510925C0610925B0608950E944D
:100F6000010480E395E7A0E0B0E08093240690932D
:100F70002506A0932606B09327068091240690911B
:100F80002506A0912606B0912706892B8A2B8B2B4C
:100F9000D1F080E00E949204882379F388E592E002
:100FA0000E9413260E944702882329F00E944E02C5
:100FB0000E949607F7CF88E296E00E94CC058091C8
:100FC00004058823D1F20895833479F08434C1F084
:100FD000823401F524B181E090E001C0880F6A9568
:100FE000EAF78095822384B9089527B181E090E0E3
:100FF00001C0880F6A95EAF78095822387B9089522
:101000002AB181E090E001C0880F6A95EAF78095E7
:1010100082238AB90895833471F08434B1F0823424
:10102000E9F424B181E090E001C0880F6A95EAF705
:10103000822B84B9089527B181E090E001C0880F28
:101040006A95EAF7822B87B908952AB181E090E08A
:1010500001C0880F6A95EAF7822B8AB90895833414
:1010600071F08434B1F08234E9F425B181E090E08C
:1010700001C0880F6A95EAF7822B85B9089528B1D7
:1010800081E090E001C0880F6A95EAF7822B88B969
:1010900008952BB181E090E001C0880F6A95EAF7CE
:1010A000822B8BB90895833479F08434C1F0823473
:1010B00001F525B181E090E001C0880F6A95EAF75B
:1010C0008095822385B9089528B181E090E001C020
:1010D000880F6A95EAF78095822388B908952BB125
:1010E00081E090E001C0880F6A95EAF7809582233D
:1010F0008BB90895442319F0413019F008950C94E8
:1011000053080C942F08833431F0843431F0823446
:10111000B1F423B103C026B101C029B181E090E050
:10112000062E02C0880F991F0A94E2F730E082234E
:10113000932302C0959587956A95E2F7089581E01B
:1011400008950895E1E8F0E0808182608083089549
:10115000109281000895809184002091850090E094
:10116000922B9695879508951092B200E0EBF0E0EF
:101170008081826080838EE38093B30017BAE0E7BA
:10118000F0E0808182608083E1EBF0E08081856027
:10119000808308951092B10008951F920F920FB6A8
:1011A0000F9211242F933F934F935F936F937F93ED
:1011B0008F939F93AF93BF93EF93FF930E94770713
:1011C00017BA8091660690916706A0916806B09163
:1011D00069060196A11DB11D80936606909367066E
:1011E000A0936806B0936906FF91EF91BF91AF910C
:1011F0009F918F917F916F915F914F913F912F912F
:101200000F900FBE0F901F90189560916606709119
:101210006706809168069091690608951F920F9263
:101220000FB60F9211242F933F934F935F936F93B9
:101230007F938F939F93AF93BF93EF93FF9380918F
:10124000C60080936506809165060E94960782E03D
:101250008093C000FF91EF91BF91AF919F918F91CB
:101260007F916F915F914F913F912F910F900FBEA2
:101270000F901F90189580916A0690916B0690933D
:1012800049078093480783E38093C4001092C50008
:1012900088E98093C10082E08093C0000895909116
:1012A000C00095FFFCCF8093C60008959091000187
:1012B000992329F00E944F0980E090E0089581E091
:1012C00090E00895EF92FF920F931F93CF93DF93D7
:1012D0007C018B01EC01CE018E199F0980179107CB
:1012E00024F489910E944F09F6CFC801DF91CF9174
:1012F0001F910F91FF90EF90089583B7816083BF96
:1013000083B7817F846083BF7894889583B78E7F0D
:1013100083BF08951F920F920FB60F921124E09A87
:101320000F900FBE0F901F9018950F931F93CF93A0
:10133000DF93EC018B010E94AB08998388831B83A8
:101340000A83DF91CF911F910F910895CF93DF937F
:10135000EC010E94AB084A815B8141155105A9F05F
:10136000288139812817390728F4BC01621B730BC7
:101370009B0105C0821B930B9C012150304881E0EA
:101380002417350718F480E001C081E0DF91CF9188
:101390000895FC0110821182138212821482158238
:1013A0001682178210861286118613861486158679
:1013B00016861786118A108A128A138A148A158A49
:1013C000168A108E178A118E128E138E148E158E19
:1013D00012A213A214A215A216A217A210AA11AA51
:1013E00012AA13AA14AA15AA16AE17AEDC01DE962D
:1013F00016961D921D921D921C9219971E961C9274
:1014000011961C92119716961D921D921D921C9278
:1014100019971E961C9211961C92119716961D9262
:101420001D921D921C9219971E961C9211961C9249
:10143000119716961D921D921D921C9219971E9639
:101440001C9211961C92119716961D921D921D9238
:101450001C9219971E961C9211961C9211961C9222
:10146000509682E08C9311961C9211961C921196C4
:101470001C92119611961C921E92129611961C9215
:101480001E9212961D921D921D921C9213971496F5
:101490001D921D921D921C92139714961D921D92DF
:1014A0001D921C92139714961D921D921D921C92D0
:1014B000139714961D921D921D921C921397E95733
:1014C000FF4F108208952FEB260F862F062E000C5B
:1014D000990B263010F4C79708956156663018F4BA
:1014E000875591090895C0970895FF920F931F9310
:1014F000CF93DF93EC01F8802DE2F21201C0219628
:10150000CE010E9426249B01AC01A4E6B0E00E941B
:101510002721FE014991242F042E000C330B205368
:1015200031092A303105A8F34E3241F52181022ECE
:10153000000C330B205331092A303105F8F44AE00E
:10154000429F8001439F100D1124012E000C220B9D
:10155000330B600F711F821F931F0281002E000C3E
:10156000110B005311090A30110540F4012E000C33
:10157000220B330B600F711F821F931F2DE2F2129B
:1015800007C090958095709561957F4F8F4F9F4FC5
:10159000DF91CF911F910F91FF9008952F923F926D
:1015A0004F925F926F927F928F929F92AF92BF9273
:1015B000CF92DF92EF92FF920F931F93CF93DF931F
:1015C000D82FC92F8B010E94262424E630E040E06A
:1015D00050E00E94FF2049015A019B01AC0160E8E4
:1015E00076E988E990E00E94BB206B017C01F8015C
:1015F00091828082ED2FFC2F2191822F022E000CF0
:10160000990BC0970A97C0F32E3239F51F0180E875
:10161000882E86E9982E88E9A82EB12C9AE0492ECA
:10162000512C612C712CF101C1911F010C2E000C69
:10163000DD0BE097CA30D10580F4C501B401A301E8
:1016400092010E94FF2049015A01DE010E943221CD
:10165000C60ED71EE81EF91EE6CFA5E0B0E0A70132
:1016600096010E9427216F5F7F4F8F4F9F4F23E08E
:1016700030E040E050E00E94FF20F80122833383F5
:10168000448355831682DF91CF911F910F91FF9074
:10169000EF90DF90CF90BF90AF909F908F907F9012
:1016A0006F905F904F903F902F90089520E030E032
:1016B00044E351E40E94172220E030E044EB51E47F
:1016C0000E9483220E94F522CB0160E170E00E941B
:1016D000EB20FC01EE0FFF1FEB5DFE4F808191813F
:1016E0000895CF93DF93EC0187E0FE017096DE0151
:1016F000129601900D928A95E1F787E0FE017796A8
:10170000DE01199601900D928A95E1F70E94050974
:101710006E8F7F8F88A399A381E089838883DF916F
:10172000CF9108959B01BC01605F7F4FC9010C946C
:10173000CE0A9B01BC01695E7F4FC9010C94CE0AA1
:10174000CF92DF92EF92FF92CF93DF93EC01198259
:101750006C817D818E819F810E942B2328E23BE654
:101760004EE65EE40E9483226B017C016A817B81EC
:1017700080E090E00E942B239B01AC01C701B601E1
:101780000E941722288521119058DF91CF91FF9058
:10179000EF90DF90CF900895CF92DF92EF92FF927B
:1017A000CF93DF93EC0119826B857C858D859E85B7
:1017B0000E942B2328E23BE64EE65EE40E94832251
:1017C0006B017C0169857A8580E090E00E942B2383
:1017D0009B01AC01C701B6010E9417222F85211180
:1017E0009058DF91CF91FF90EF90DF90CF900895C8
:1017F000CF93DF93EB010E94A00B9F938F937F9376
:101800006F9389E692E09F938F93DF93CF930E942B
:1018100043262DB73EB7285F3F4F0FB6F8943EBF23
:101820000FBE2DBF8C0F9D1FDF91CF910895CF93D9
:10183000DF93EB010E94CC0B9F938F937F936F9369
:1018400089E692E09F938F93DF93CF930E94432684
:101850002DB73EB7285F3F4F0FB6F8943EBF0FBE7F
:101860002DBF8C0F9D1FDF91CF910895CF93DF93F4
:10187000EC018E819F81A885B9858A839B83AC8387
:10188000BD830E9405096A877B878C879D8781E0DD
:1018900089838883DF91CF910895CF93DF93EC0103
:1018A0008E819F81A885B9858A839B83AC83BD8304
:1018B0000E9405096A877B878C879D8781E08983E1
:1018C0008883DF91CF910895CF93DF93EC01CB0113
:1018D0000E94750A6E837F8388879987DF91CF91F5
:1018E0000895CF93DF93EC01CB010E9426246E83F1
:1018F0007F8388879987DF91CF910895FC011182BA
:10190000628173818481958124E630E040E050E07B
:101910000E94FF20CB018053984F0895CF92DF9211
:10192000EF92FF92FC011182628173818481958123
:1019300024E6C22ED12CE12CF12CA70196010E94A5
:10194000FF20CA01B901A70196010E94FF20862F3E
:10195000FF90EF90DF90CF900895FC01118262819B
:1019600073818481958120E137E240E050E00E945C
:10197000FF20822F0895FC0111826281738184818E
:10198000958120E432E44FE050E00E94FF20822F56
:101990000895FC011182628173818481958120E127
:1019A00037E240E050E00E94FF20CA01B90124E67E
:1019B00030E040E050E00E94FF20862F0895CF9253
:1019C000DF92EF92FF92FC01118262817381848128
:1019D000958124E6C22ED12CE12CF12CA701960191
:1019E0000E94FF20CA01B901A70196010E94FF20B1
:1019F000862FFF90EF90DF90CF900895FC01118229
:101A0000628173818481958124E630E040E050E07A
:101A10000E94FF20862F0895CF93DF93EC018A85E3
:101A20009B85AC85BD858E839F83A887B9870E94DF
:101A300005096A837B838C839D8381E08983888306
:101A4000DF91CF910895CF93DF93EC01CB010E94FA
:101A5000750A6A877B878C879D87DF91CF91089570
:101A6000CF93DF93EC018A859B85AC85BD858E8302
:101A70009F83A887B9870E9405096A837B838C832B
:101A80009D8381E089838883DF91CF910895CF93EF
:101A9000DF93EC01CB010E9426246A877B878C8729
:101AA0009D87DF91CF910895CF93DF93EC01BC0127
:101AB00040960E9439250E94050968A379A38AA34C
:101AC0009BA381E08DA38CA3DF91CF91089540E18A
:101AD00050E00C944025BF92CF92DF92EF92FF929C
:101AE0000F931F93CF93DF93EC01FC01EA57FF4F55
:101AF000B080BB2009F499C0319660810E94630ACE
:101B0000182FFE01E857FF4F6081CE010E94630A43
:101B100040E1149F800D1124FE01EB57FF4F90818F
:101B2000891374C0B59680819181A281B381019699
:101B3000A11DB11D80839183A283B3838E010756BB
:101B40001F4FD8018C91882361F038978081918153
:101B5000A281B3810196A11DB11D80839183A283CF
:101B6000B383FE01EA56FF4F80818823C9F081309C
:101B700089F5CE0182960E94360CCE01C0960E9455
:101B80004D0CF8018081882329F1CE010E94710B50
:101B9000CE01CE960E940C0DCE01845B9F4F18C0E3
:101BA000CE01C0960E944D0CD8018C91882341F043
:101BB000CE010E94710BCE01865A9F4F0E940C0DE0
:101BC000CE0188599F4F0E94300DCE018A589F4FF9
:101BD0000E940C0D8E0104561F4FF801C081D18167
:101BE000209709F407C1D801ED91FC9166A177A176
:101BF0008EA19FA10E943025892B09F0FBC0CE0148
:101C00000E94540D0AA4DBA5C02DEACFCA55DF4FB0
:101C100088819981AA81BB810196A11DB11D88830C
:101C20009983AA83BB83B12CE5C07C01B7E9EB0E95
:101C3000F11CF70130818A569F4F6C018E010456CA
:101C40001F4F31113EC07E0197E8E90EF11C6EE690
:101C500072E0C7010E943025892B39F064E772E0F9
:101C6000C7010E943025892B11F481E012C06AE778
:101C700072E0C7010E943025892B39F060E872E0DC
:101C8000C7010E943025892B19F4F601108203C088
:101C900082E0D6018C93C656DF4F88819981F80186
:101CA00091838083C081D181209709F4A3C0B701BB
:101CB0008EA19FA10E94302597FF97C08AA59BA562
:101CC000EECFDC01EC91E23009F463C0CE0189571C
:101CD0009F4FDC012C91222309F45BC0B0E2EB9F03
:101CE000F0011124E32B3197E932F10508F051C0DE
:101CF000EC5CFF4F0C942121BC01CE01C0960E94E8
:101D0000640C47C0FE01E756FF4F81E0213461F5C6
:101D10002CC0BE01605F7F4F09C081E0233509F010
:101D200080E08E8B36C0BE01695E7F4F0E94CE0A76
:101D300030C081E0273509F080E08D8F2AC0BC01DA
:101D4000CE01CE9624C0BC01CE01845B9F4F1FC044
:101D5000BC01CE0182960E94710C1BC0FE01E756A9
:101D6000FF4F81E021330CF480E0808312C0BC017E
:101D7000CE0188599F4F0E94470D0BC0BC01CE0178
:101D80008A589F4F04C0BC01CE01865A9F4F0E94C3
:101D9000230DF801C080D180C957DF4FC114D10491
:101DA00049F1D801ED91FC9166A177A1F60186A1D8
:101DB00097A10E943025892BE9F4D60198962D91A0
:101DC0003C919997F701808190E08217930794F0F6
:101DD0002817390721F4BE01C6010E94670DD601FC
:101DE0009A96CD90DC909B97D9CF892B19F0D8018A
:101DF0001D921C928B2DDF91CF911F910F91FF901F
:101E0000EF90DF90CF90BF900895DF92EF92FF9216
:101E10000F931F93CF93DF939C01FC01E256FF4F7A
:101E200080819181A281B3810196A11DB11D808322
:101E30009183A283B383C90188569F4F7C01E90136
:101E4000CA57DF4F643279F12CF46A3069F06D3093
:101E5000C9F50AC06A3241F06C32A1F5F901EB57BD
:101E6000FF4F808186278083D62E8901F7018081EC
:101E70008F3050F4F901E80FF11DE957FF4F108240
:101E8000C9010E946B0D01C080E0F801E956FF4FC7
:101E900090819F5F9083F701108291E0FAE2DF1258
:101EA00090E0988327C0FC011082F901E956FF4FAA
:101EB000108272971082719682E080831882339626
:101EC000108217C0F70180818E3048F491E0980F9E
:101ED0009083F901E80FF11DE957FF4F6083888176
:101EE000811107C0F901EB57FF4F9081692760838B
:101EF00001C080E0DF91CF911F910F91FF90EF9093
:101F0000DF900895AF92BF92CF92DF92EF92FF924F
:101F10000F931F93CF93DF937B015A0169018C01CB
:101F200006561F4FF801C081D1812097A9F06EA1FC
:101F30007FA1C5010E94302597FD0EC0892B29F491
:101F400088A599A5C816D9063CF08E01065D1F4FDD
:101F50000AA4DBA5C02DE9CFF701D3A7C2A7F801DA
:101F6000F182E082DF91CF911F910F91FF90EF906E
:101F7000DF90CF90BF90AF900895CF93DF93FC0197
:101F8000DB0110A211A212A213A214A215A257A340
:101F900046A331A720A790E1EF01892F19928A95D6
:101FA000E9F7BF01605F7F4FEB0119929A95E9F75E
:101FB000BF01CD01DF91CF910C94820F0C94BD0F26
:101FC0002FEF82E597E0215080409040E1F700C07C
:101FD000000040E064E084E40E947A082FEB8AED80
:101FE00090E0215080409040E1F700C0000041E0C7
:101FF00064E084E40E947A082FEB8AED90E021509F
:1020000080409040E1F700C0000040E064E084E4DC
:102010000E947A082FEB8AED90E02150804090409A
:10202000E1F700C0000086E892E00C94132640E03F
:1020300064E084E40C947A0841E064E084E40C9465
:102040007A080E9499010E94B101789408951F9323
:10205000CF93DF93EC01162F0E94211064E084E4FB
:102060000E942F0864E084E40E940B08CC57DF4FE5
:102070001883DF91CF911F910895EF92FF920F93F4
:102080001F93CF93DF93EC0188E992E09F938F93A6
:102090000E94F6250F900F908881882309F1CE01C8
:1020A0000E94CC0B162F072FF82EE92ECE010E948E
:1020B000A00BEF92FF920F931F939F938F937F93A9
:1020C0006F9383EA92E09F938F930E94F6258DB7DA
:1020D0009EB70A960FB6F8949EBF0FBE8DBF04C080
:1020E0008EEA92E00E94132687EB92E09F938F93F3
:1020F0000E94F6250F900F908AA1882359F18E0136
:102100000E5D1F4FC8010E947E0CF82EE92EC801FB
:102110000E948E0C1BA2EF92FF921F928F936CA1D4
:102120007DA18EA19FA120E137E240E050E00E9416
:10213000FF201F922F9383EC92E09F938F930E9436
:10214000F6258DB79EB708960FB6F8949EBF0FBEC2
:102150008DBF04C086ED92E00E94132688A98823D3
:1021600009F484C019AA6AA97BA98CA99DA920E4B5
:1021700032E44FE050E00E94FF202A3020F480E358
:1021800090E00E940C2619AA6AA97BA98CA99DA996
:1021900020E432E44FE050E00E94FF201F922F9392
:1021A00080EE92E09F938F930E94F6258E01005D52
:1021B0001F4FC8010E94C90C0F900F900F900F90F5
:1021C0008A3020F480E390E00E940C26C8010E942F
:1021D000C90C1F928F9380EE92E09F938F930E9481
:1021E000F625C8010E94DF0C0F900F900F900F9002
:1021F0008A3020F480E390E00E940C26C8010E94FF
:10220000DF0C1F928F938DE791E09F938F930E9435
:10221000F62519AA6AA97BA98CA99DA924E630E014
:1022200040E050E00E94FF200F900F900F900F9021
:102230006A3020F480E390E00E940C2619AA6AA973
:102240007BA98CA99DA924E630E040E050E00E94E3
:10225000FF207F936F9383EF93E09F938F930E9470
:10226000F6250F900F900F900F9004C08EEA92E029
:102270000E94132686E592E0DF91CF911F910F9186
:10228000FF90EF900C9413268F929F92AF92BF9283
:10229000FF920F931F93CF93DF93EC018C010255B4
:1022A0001F4F80E29EE4A0E0B0E0F80180839183BC
:1022B000A283B38386EE92E00E941326CE010E9491
:1022C0001710FF24F39480ED882E87E0982EA12C20
:1022D000B12CF80180819181A281B381892B8A2B55
:1022E0008B2B09F453C00E94CC01882341F10E943A
:1022F000B801682FCE010E94050FF801608171813D
:1023000082819381A50194010E94FF20672B682B95
:10231000692B31F4FF2021F0CE010E943D10F12CF9
:10232000F8016081718182819381A50194010E94ED
:10233000FF20672B682B692B11F0FF24F394888111
:10234000882339F2F80183818F9382818F93818171
:102350008F9380818F9389EF92E09F938F930E9458
:10236000F6250F900F900F900F900F900F90FE0199
:10237000EC57FF4F8081811104C0CE010E94E00F15
:1023800003C0CE010E941C1081E01EC01F921F924C
:102390001F921F9289E293E09F938F930E94F625EC
:1023A0000F900F900F900F900F900F90FE01EC5731
:1023B000FF4F8081811104C0CE010E94E00F03C055
:1023C000CE010E941C1080E0DF91CF911F910F91F0
:1023D000FF90BF90AF909F908F900895FC01E255C1
:1023E000FF4F408151816281738141155105610523
:1023F000710541F0415051096109710940835183D0
:10240000628373830895CF93DF93EB01FC01EA5855
:10241000FF4F118266817781808591850E942D23EF
:102420009F938F937F936F938AE593E09F938F930E
:10243000DF93CF930E9443262DB73EB7285F3F4FCF
:102440000FB6F8943EBF0FBE2DBF8C0F9D1FDF91BE
:10245000CF9108956AE00E94CB2020E1829F900DE9
:102460001124892F0895982F92959F708F702AE0DC
:10247000929F800D11240895CF93C82F88E60E9463
:10248000B9198C2F0E94D3190E94C31961E088E604
:102490000E94AC19CF910C94261ACF93DF93C82FCA
:1024A000D62F88E60E94B9198D2F0E94D3198C2F40
:1024B0000E94D319DF91CF910C94C319CF93DF936E
:1024C00081E10E943C12D82F82E10E943C12C82F69
:1024D00061E18EEE0E944D1262E18DED0E944D127F
:1024E00081E10E943C128E3E29F482E10E943C125E
:1024F0008D3D31F081E080937D06DF91CF9108958D
:1025000081E080937E0661E18D2F0E944D1262E191
:102510008C2FDF91CF910C944D1262E084E40E94E5
:10252000E40762E084E40E942F08E9E6F0E080819D
:1025300082608083E89A7894089580917E06089559
:1025400080917D06089581E080937E0610927D063D
:10255000089510927E0681E080937D060895EF92A3
:10256000FF920F931F93CF93DF93CDB7DEB72997D9
:102570000FB6F894DEBF0FBECDBF88E60E94B91932
:1025800080E00E94D3190E94C31967E088E60E9488
:10259000AC198E010F5F1F4F7E0188E0E80EF11C21
:1025A0000E94261AF80181938F01EE15FF05C1F7ED
:1025B0000E94C31989818F770E94331290E0909313
:1025C0006D0680936C068A810E94331290E090938E
:1025D0006F0680936E068B810E943312082F10E0E5
:1025E00010937106009370068D810E94331290E063
:1025F0009093730680937206FE808F2D8F710E94D8
:10260000331290E090937506809374068F81F7FEE5
:1026100006C00E94331290E08053984F05C00E947C
:10262000331290E08459984F909377068093760602
:102630008C810E94331290E0909379068093780603
:102640000115110529F410927C0610927B0607C033
:102650000C30110544F410937C0600937B0681E056
:1026600080937A0608C00C50110910937C060093E1
:102670007B0610927A068CE696E029960FB6F894BF
:10268000DEBF0FBECDBFDF91CF911F910F91FF90A5
:10269000EF9008958F929F92AF92BF92CF92DF9268
:1026A000EF92FF920F931F93CF93DF93CDB7DEB7D7
:1026B00029970FB6F894DEBF0FBECDBF7C016B012A
:1026C0005A0188E60E94B91980E00E94D3190E943D
:1026D000C31967E088E60E94AC198E010F5F1F4F97
:1026E0004E0188E0880E911C0E94261AF801819301
:1026F0008F01E815F905C1F70E94C319A114B104AF
:1027000029F089810E943312F5018083C114D1041C
:1027100029F08A810E943312F6018083E114F104CA
:1027200029F08B810E943312F701808329960FB61E
:10273000F894DEBF0FBECDBFDF91CF911F910F91F7
:10274000FF90EF90DF90CF90BF90AF909F908F90D1
:1027500008951F93CF93DF93EC0188E60E94B91987
:1027600080E00E94D3198A859B85813D27E09207EE
:1027700034F0805D97409B878A8710E805C08C56AF
:1027800097409B878A8710E088810E942A120E94C6
:10279000D3198A810E942A120E94D3198C810E9427
:1027A0002A120E94D3198C850E942A120E94D319E2
:1027B0008E810E942A120E94D31988850E942A12B3
:1027C000810F0E94D3198A850E942A120E94D31970
:1027D000DF91CF911F910C94C3191F93CF93DF9377
:1027E000C82FD62F142F88E60E94B91980E00E94C6
:1027F000D319812F0E942A120E94D3198D2F0E9473
:102800002A120E94D3198C2F0E942A120E94D319D7
:10281000DF91CF911F910C94C319CF9390917D06B6
:1028200091110DC0C82F80E00E943C12CC2311F002
:102830008F7701C0806860E0CF910C944D12CF91EA
:10284000089580917D06811106C00E943C128095FA
:10285000881F8827881F0895FF920F931F93CF9397
:10286000DF93FC011082FB01108220917E06211172
:1028700022C0EB018C0188E60E94B91981E10E9417
:10288000D3190E94C31962E088E60E94AC190E9425
:10289000201A882381F00E94261AF82E0E94261AF8
:1028A000F801F082829586958695837099E1899FDB
:1028B000802D11248883DF91CF911F910F91FF907C
:1028C0000895CF93DF9390917E0691112EC0C82F6B
:1028D00088E60E94B9198EE00E94D3190E94C3199C
:1028E00061E088E60E94AC190E94261AD82F88E67B
:1028F0000E94B9198EE00E94D3198D2F80620E9428
:10290000D3190E94C319CC2381F088E60E94B9191B
:102910008EE00E94D3190E94C31961E088E60E94EC
:10292000AC190E94261A85FDF0CFDF91CF91089552
:10293000CF93C82F88E60E94B91988E08C0F0E94B7
:10294000D3190E94C31961E088E60E94AC19CF91A7
:102950000C94261A0F931F93CF938C01C0E08C2FF9
:102960000E949814F80181938F01CF5FC833B9F7A3
:10297000CF911F910F910895CF93DF93C82FD62F3A
:1029800088E60E94B91988E08D0F0E94D3198C2F18
:102990000E94D319DF91CF910C94C3190F931F9309
:1029A000CF938C01C0E06C2FF80181918F010E94C0
:1029B000BC14CF5FC833B9F7CF911F910F91089521
:1029C000CF93C82F80917E068823D1F088E60E949D
:1029D000B91987E00E94D3190E94C31961E088E603
:1029E0000E94AC190E94261ACC2319F0C82FC0618E
:1029F00002C0C82FCF7E88E60E94B91987E01AC0AE
:102A000088E60E94B9198EE00E94D3190E94C3196A
:102A100061E088E60E94AC190E94261ACC2321F0BE
:102A2000C82FCB7FC06402C0C82FCF7B88E60E942E
:102A3000B9198EE00E94D3198C2F0E94D319CF911F
:102A40000C94C319CF93DF93EC0180917E06882309
:102A5000A9F088E60E94B91987E00E94D3190E9464
:102A6000C31961E088E60E94AC190E94261A8C7F87
:102A7000C82B88E60E94B91987E019C088E60E9431
:102A8000B9198EE00E94D3190E94C31961E088E64B
:102A90000E94AC190E94261A94E0CC0FDD1F9A9573
:102AA000E1F7877EC82B88E60E94B9198EE00E9464
:102AB000D3198C2F0E94D319DF91CF910C94C31995
:102AC000CF9390917D06992311F1C82F88E60E943B
:102AD000B9198FE00E94D3190E94C31961E088E6FA
:102AE0000E94AC190E94261ACC2319F0C82FC86086
:102AF00002C0C82FC77F88E60E94B9198FE00E94E4
:102B0000D3198C2F0E94D319CF910C94C319CF9154
:102B1000089580917E06882361F060E080E00E9445
:102B2000BC1461E080E00E94BC1462E080E00C9480
:102B3000BC1467E080E00E944D1268E080E00E94D3
:102B40004D1269E080E00E944D126AE080E00C9432
:102B50004D121F93CF93DF93883108F057C06C3329
:102B600008F054C04C3308F051C0142FD62FC82F92
:102B700080917E06882379F060E08C2F0E94BC143F
:102B800061E08D2F0E94BC1462E0812FDF91CF9114
:102B90001F910C94BC14842F0E942A1267E00E949B
:102BA0004D128D2F0E942A1268E00E944D128C2F28
:102BB0000E942A1269E00E944D126AE081E80E9498
:102BC0004D128FE00E943C126FE08E7F0E944D12EA
:102BD00088E60E94B9198EE00E94D3190E94C31999
:102BE00061E088E60E94AC190E94261AC82F88E688
:102BF0000E94B9198EE00E94D3198C2F81600E9427
:102C0000D319DF91CF911F910C94C319DF91CF910C
:102C10001F910895FC01892B29F0408162818481F4
:102C20000C94A9150895EF92FF920F931F93CF93E1
:102C3000DF93EC018B017A0180917E068823B9F045
:102C4000209721F080E00E949814888301151105D7
:102C500029F081E00E949814F8018083E114F104C6
:102C6000E9F082E00E949814F701808317C087E0A2
:102C70000E943C128F770E943312F701808388E014
:102C80000E943C128F770E943312F801808389E002
:102C90000E943C128F770E9433128883DF91CF917C
:102CA0001F910F91FF90EF900895CF93DF9300D085
:102CB0001F92CDB7DEB7AE014F5F5F4FBE016E5FB3
:102CC0007F4FCE0103960E941316ECE6F6E08B814F
:102CD00090E0958384838A8190E0938382838981C5
:102CE00090E091838083CF010F900F900F90DF9140
:102CF000CF910895FF920F931F93CF93DF9300D04E
:102D00001F92CDB7DEB780917E06882311F180E057
:102D10000E949814F82E81E00E949814082F82E0F7
:102D20000E949814182FAE014F5F5F4FBE016E5F77
:102D30007F4FCE0103960E944A138B81F81207C081
:102D40008A81081304C081E09981911771F080E0B5
:102D50000CC08FE00E943C12182F117080FF04C03D
:102D60006FE08E7F0E944D12812F0F900F900F9079
:102D7000DF91CF911F910F91FF900895CF93DF9333
:102D8000FC01DB0186A197A127A930AD14964D91D6
:102D90005C911597821793076CF028173907F4F0A8
:102DA0008217930739F4C4A1D5A165A976A96C1738
:102DB0007D07A4F0481759071CF0421753079CF0F1
:102DC0002417350791F481E012964D915C91139789
:102DD00025A936A9421753074CF007C048175907D1
:102DE00064F357FFEDCF81E001C080E0DF91CF9128
:102DF00008950F931F93CF93DF93FC01EB01DC0148
:102E0000A85BBF4F2C813D818D919C91820F931FB8
:102E100068E170E00E94EB209C0195838483DF01D0
:102E2000AA5BBF4F0D911C918A819B81800F911FDE
:102E30006CE370E00E94EB20938382834A815B8184
:102E4000400F511F4D3351059CF001968C33910575
:102E500019F0938382830CC0138212822F5F3F4F3D
:102E60002831310519F03583248302C0158214827C
:102E7000DF91CF911F910F910895CF93DF93EC01D4
:102E8000BC016F5E7F4F0E94F916BE01CE010E9409
:102E9000BE1640E0882379F06A818C810E94A915D2
:102EA0008B818F938A818F938D818F938C818F9368
:102EB00083E893E00EC06CA18EA10E94A9158DA19C
:102EC0008F938CA18F938FA18F938EA18F938DEB76
:102ED00093E09F938F930E94F6250F900F900F9091
:102EE0000F900F900F90DF91CF9108951092EA0606
:102EF000449A459AE9EBF0E080818E7F808380815F
:102F00008D7F80838CE08093B80085E48093BC0043
:102F100078940895880F8093BA000895413258F547
:102F20009091EA069111FCCF91E09093EA069FEF11
:102F300090937F061092C406940F9093C306880F57
:102F400081608093E90685EE8093BC008091EA065B
:102F50008130E1F38091C406841710F44091C406D7
:102F6000A5ECB6E0962FFB018E2F891B841728F461
:102F70008D918193F9CF80E00895842F0895413297
:102F800048F59091EA069111FCCF32E03093EA06C1
:102F90003FEF30937F061092C4064093C306562F2E
:102FA000A5ECB6E0FB013E2F351B341718F4319128
:102FB0003D93F9CF482F50E0440F551F4093E90649
:102FC00085EE8093BC00222339F08091EA0682309E
:102FD00019F4F9CF91E011C080917F068F3F69F01D
:102FE00080917F06803231F080917F06803321F01E
:102FF00094E003C092E001C093E0892F089561320C
:1030000088F42091EA06243079F46093A106282FF1
:10301000A3EAB6E0FC018E2F821B861738F481915B
:103020008D93F9CF81E0089582E0089580E00895BE
:103030009093E6068093E50608959093E8068093C2
:10304000E7060895882311F085EC01C085E8809398
:10305000BC00089585ED8093BC008091BC0084FD88
:10306000FCCF1092EA06089585EC8093BC00109284
:10307000EA0608951F920F920FB60F9211242F9314
:103080003F934F935F936F937F938F939F93AF93F0
:10309000BF93EF93FF938091B900887F803609F446
:1030A00095C068F5883209F45BC090F4803109F46A
:1030B00054C038F4882309F4EEC0883009F44DC0B8
:1030C000EEC0883109F44CC0803209F45EC0E7C01C
:1030D000803409F469C048F4803309F456C0883359
:1030E00009F0DDC080937F06A1C0803509F450C08F
:1030F000883509F45EC0883409F0D1C0CEC0883963
:1031000009F4BFC0A8F4883709F460C038F48836E1
:1031100009F45CC0803709F459C0C1C0883809F48B
:10312000B0C0803909F458C0803809F0B8C054C024
:10313000803B09F47EC038F4803A09F45FC0883AD5
:1031400009F477C0ACC0803C09F49FC0883C09F406
:103150009CC0883B09F482C0A2C08091E90611C0DE
:103160009091C4068091C306981708F096C0E0912C
:10317000C40681E08E0F8093C406F0E0EB53F94F54
:1031800080818093BB0085EC7DC080937F0685C0E5
:10319000E091C40681E08E0F8093C4068091BB004D
:1031A000F0E0EB53F94F80839091C4068091C30601
:1031B00065C0E091C40681E08E0F8093C4068091C3
:1031C000BB00F0E0EB53F94F808367C083E080934E
:1031D000EA0610928006D7CF80918006803208F0F0
:1031E00050C0E091800681E08E0F80938006809130
:1031F000BB00F0E0EF57F94F8083C5CF8091800688
:10320000803230F4E0918006F0E0EF57F94F108201
:103210000E942A186091800670E0E091E506F09126
:10322000E60681E896E00995109280060E9434181F
:1032300036C084E08093EA061092A2061092A1069E
:10324000E091E706F091E80609958091A1068111C9
:1032500005C081E08093A1061092A306E091A2062A
:1032600081E08E0F8093A206F0E0ED55F94F80814A
:103270008093BB009091A2068091A106981708F454
:1032800082CF85E88093BC000AC085EC8093BC00A7
:103290001092EA0604C010927F060E942A18FF913D
:1032A000EF91BF91AF919F918F917F916F915F91BE
:1032B0004F913F912F910F900FBE0F901F90189537
:1032C000CF93DF93EC01E091EB06F091EC063097A1
:1032D000F1F090911407809113079817C0F090E0D7
:1032E000292F30E02617370754F4DE01A20FB31F51
:1032F0004C91D901AB5EB84F4C939F5FF1CF1092C8
:10330000140760931307CB01DF91CF910994DF91EC
:10331000CF910895E091ED06F091EE06309729F0F7
:103320001092F1061092F006099408951092140775
:10333000109213071092F1061092F0060C94761773
:103340000E948A178AE899E10E941D1880E699E197
:103350000E9418180C949619462F613208F040E22A
:1033600065E177E00E948E1710921407809313078F
:10337000089591E09093EF06809312071092F10662
:103380001092F006089521E04091F00662EF76E099
:10339000809112070E94BF171092F1061092F0065A
:1033A0001092EF060895CF93DF931F92CDB7DEB74B
:1033B00089838091EF06882391F08091F006803216
:1033C00098F48091F106E82FF0E0EE50F94F9981E2
:1033D00090838F5F8093F1068093F00605C061E0D3
:1033E000CE0101960E94FF170F90DF91CF910895B3
:1033F0000F931F93CF93DF932091EF06222359F071
:10340000EC018C01060F111DC017D10751F08991F5
:103410000E94D319F9CFDF91CF911F910F910C9496
:10342000FF17DF91CF911F910F910895FC0101903B
:103430000020E9F73197BF01681B790B0C94F8194C
:103440008091130790911407891B08959091140798
:1034500080911307981748F4E92FF0E0EB5EF84FDE
:1034600080819F5F90931407089580E00895909362
:10347000EC068093EB0608959093EE068093ED069C
:10348000089508950F931F93CF93DF93CDB7DEB7C1
:1034900061970FB6F894DEBF0FBECDBF8C0188EFE9
:1034A00093E00E94132681E090E0F801978B868BD1
:1034B000848995898131910569F09F938F9388E183
:1034C00094E09F938F930E94F6250F900F900F909A
:1034D0000F9041C0F80181818235C9F58481082EA1
:1034E000000C990BC0979E838D838781082E000C5A
:1034F000990BC0979C838B838285082E000C990BB7
:10350000C0979A8389838585082E000C990BC097F4
:1035100098878F838089082E000C990BC0979A8713
:10352000898783E190E0978B868B8389082E000C36
:10353000990BC0979C878B87CE0101960E94A91397
:1035400081E0809304058FE394E00E94132688E5D0
:1035500094E00E94132661960FB6F894DEBF0FBE6A
:10356000CDBFDF91CF911F910F910895FC01248968
:1035700035892331310534F42F5F3F4F358B248B50
:1035800080E0089581E00895DC015496ED91FC916E
:103590005597E80FF91F60830C94B61AFC01158A41
:1035A000148A0C94C41AFC0126893789620F731F90
:1035B0006431710524F4778B668B80E0089581E097
:1035C0000895CF93DF9381E280937C0086E8809317
:1035D0007A008FEC97E00197F1F700C0000080912E
:1035E0007A00806480937A0080917A0086FDFCCF17
:1035F0008FEC97E00197F1F700C0000080917A000E
:10360000806480937A0080917A0086FDFCCFC0911F
:10361000780080917900D0E0D82BCE011F921F92C4
:103620009F938F938DE694E09F938F930E94F6254E
:1036300080917A008F7780937A0080E09CE2BE01CF
:103640000E94D720862F6AE00E94CB20682F70E06E
:1036500080E090E00E942D230F900F900F900F902C
:103660000F900F90DF91CF910895AF92BF92CF92BC
:10367000DF92EF92FF920F931F93CF93DF93D42E9D
:10368000C52EB62EA72EE9012BE7FC0120837C0175
:10369000F2E0EF0EF11C23E4FC0121831F9282E093
:1036A0008F938DE791E09F938F93FF92EF920E940B
:1036B00043268C010F5F1F4F0E0D1F1DF701E80FF2
:1036C000F91F8CE2F82EF08289818F9388818F9385
:1036D0008B818F938A818F938D818F938C818F9330
:1036E00088E794E09F938F930E94F62589818F93BA
:1036F00088818F938B818F938A818F938D818F9314
:103700008C818F9387E791E09F938F931F930F9303
:103710000E944326EC012196C00FD11FF801E80F4B
:10372000F91FF082AF92BF92CF92DF928BE994E0C3
:103730009F938F93DF93CF930E944326C80FD91F87
:103740008DE7888319828DB79EB780960FB6F8945F
:103750009EBF0FBE8DBFDF91CF911F910F91FF9044
:10376000EF90DF90CF90BF90AF90089567E084E432
:103770000E940B0867E084E40E942F082FEF83ED7E
:1037800090E3215080409040E1F700C0000067E0E6
:1037900084E40C945308E5E3F7E083E190E095833B
:1037A000848383E090E093838283118210828BE193
:1037B00090E0978386838CE090E09187808785E115
:1037C00090E0938782870895FC0120853185809160
:1037D0003D0790913E07821793070CF446C02817C7
:1037E00039070CF440C028173907E1F526813781E5
:1037F00080913B0790913C0782179307B4F12817FB
:1038000039078CF12817390769F5248135818091B2
:10381000390790913A07821793073CF12817390727
:1038200014F128173907F1F4228133818091370789
:103830009091380782179307C4F0281739079CF036
:103840002817390779F420813181809135079091CB
:103850003607821793074CF02817390724F02817EA
:10386000390719F0089580E0089581E00895CF9216
:10387000DF92EF92FF920F931F93CF93DF93CDB719
:10388000DEB764970FB6F894DEBF0FBECDBF0E94BF
:10389000E11A6B017C010E94CB1B0E94AF128C01CC
:1038A0000E94E41B8823F1F080EA94E00E94132632
:1038B0000E94B61B9801B701A6018E010F5F1F4F32
:1038C000C8010E94351B1F930F9383EC94E09F93D4
:1038D0008F930E94F6250F900F900F900F900E94EB
:1038E0007D09FDCF64960FB6F894DEBF0FBECDBF45
:1038F000DF91CF911F910F91FF90EF90DF90CF90CC
:103900000895A0E1B0E0E7E8FCE10C9499217C0186
:103910001B016A01FC0117821682838181FF44C367
:103920009E012F5F3F4F3901F7019381F10193FD14
:10393000859193FF81911F01882309F431C385325A
:1039400039F493FD859193FF81911F01853239F4FC
:10395000B70190E00E94BA2556016501E5CF10E05D
:10396000512C912CFFE1F915D8F08B3279F038F415
:10397000803279F08332A1F4F92DF0612EC08D32BE
:1039800061F0803369F4292D21602DC0392D32601A
:10399000932E892D8460982E2AC0E92DE86015C0E9
:1039A00097FC2DC020ED280F2A3088F496FE06C023
:1039B0003AE0139F200D1124122F19C08AE0589E5F
:1039C000200D1124522EE92DE0629E2E10C08E3261
:1039D00031F496FCE5C2F92DF0649F2E08C08C36B8
:1039E00021F4292D2068922E02C0883641F4F1017D
:1039F00093FD859193FF81911F018111B3CF9BEBC3
:103A0000980F933020F4992D9061805E07C09BE958
:103A1000980F933008F066C1992D9F7E96FF16E0AF
:103A20009F73992E853619F49064992E08C08636B6
:103A300021F4392F3068932E02C01111115097FED6
:103A400007C01C3350F444244394410E27E00BC0BC
:103A5000183038F027E017E005C027E09CE3492E36
:103A600002C0212F412C560184E0A80EB11CF601A2
:103A70006081718182819381042DA3010E944D2474
:103A80006C01F981FC87F0FF02C0F3FF06C091FCD6
:103A900006C092FE06C000E205C00DE203C00BE2C4
:103AA00001C000E08C858C7019F001115AC29BC2D4
:103AB00097FE10C04C0CFC85F4FF04C08A81813352
:103AC00009F44A94141474F528E0241578F588E074
:103AD000482E2CC096FC2AC0812F90E08C159D05A5
:103AE0009CF03CEFC3163FEFD30674F0892D80683D
:103AF000982E0AC0E2E0F0E0EC0FFD1FE10FF11D8F
:103B00008081803319F411501111F4CF97FE0EC04B
:103B100044244394410E812F90E0C816D9062CF41A
:103B20001C1904C04424439401C010E097FE06C051
:103B30001C141D0434F4C601019605C085E090E014
:103B400002C081E090E001110196112331F0212F94
:103B500030E02F5F3F4F820F931F252D30E08217FB
:103B6000930714F4581A01C0512C892D897049F417
:103B7000552039F0B70180E290E00E94BA255A94AE
:103B8000F7CF002329F0B701802F90E00E94BA25DB
:103B900093FC09C0552039F0B70180E390E00E9402
:103BA000BA255A94F7CF97FE4CC04601D7FE02C003
:103BB000812C912CC60188199909F301E80FF91F8E
:103BC000FE87ED87960124193109388B2F87012F45
:103BD00010E01195019511093FEF8316930629F422
:103BE000B7018EE290E00E94BA25C814D9044CF0C7
:103BF0008F8598898815990524F4ED85FE85818146
:103C000001C080E3F1E08F1A91082D853E852F5F7A
:103C10003F4F3E872D87801691062CF0B70190E02C
:103C20000E94BA25D9CFC814D90441F49A81963399
:103C300020F4953319F43C8534FF81E3B70190E01B
:103C40004EC08A81813319F09C859F7E9C87B70185
:103C500090E00E94BA25111105C094FC18C085E6B9
:103C600090E017C0B7018EE290E00E94BA251E5F77
:103C700082E001E0080FF301E80FF11D8081B70138
:103C800090E00E94BA25802F0113F3CFE6CF85E4A0
:103C900090E0B7010E94BA25D7FC06C0C114D10438
:103CA00041F4EC85E4FF05C0D194C194D1088DE2C4
:103CB00001C08BE2B70190E00E94BA2580E32AE0C0
:103CC000C216D1042CF08F5FFAE0CF1AD108F7CFDB
:103CD000B70190E00E94BA25B701C601C0960E94C4
:103CE000BA2554C1833631F0833779F0833509F032
:103CF00056C020C0560132E0A30EB11CF6018081EF
:103D0000898301E010E0630112C05601F2E0AF0EBA
:103D1000B11CF601C080D18096FE03C0612F70E017
:103D200002C06FEF7FEFC6010E944F258C01F92D75
:103D3000FF7714C0560122E0A20EB11CF601C0802C
:103D4000D18096FE03C0612F70E002C06FEF7FEF5D
:103D5000C6010E9425258C01F92DF0689F2EF3FDE8
:103D60001AC0852D90E008171907A8F4B70180E262
:103D700090E00E94BA255A94F4CFF60197FC859101
:103D800097FE81916F01B70190E00E94BA25511012
:103D90005A94015011090115110579F7F7C08436BD
:103DA00011F0893661F5560197FE09C024E0A20E94
:103DB000B11CF60160817181828193810AC0F2E0B9
:103DC000AF0EB11CF60160817181072E000C880BCB
:103DD000990BF92DFF769F2E97FF09C0909580953E
:103DE000709561957F4F8F4F9F4FF0689F2E2AE00F
:103DF00030E0A3010E946526C82EC6183FC0092DD9
:103E0000853721F40F7E2AE030E01DC0097F8F3610
:103E100091F018F4883559F0C3C0803719F088370D
:103E200011F0BEC0006104FF09C0046007C094FE29
:103E300008C0066006C028E030E005C020E130E0A0
:103E400002C020E132E0560107FF09C084E0A80E5D
:103E5000B11CF601608171818281938108C0F2E01A
:103E6000AF0EB11CF6016081718180E090E0A3018A
:103E70000E946526C82EC6180F77902E96FE0BC09E
:103E8000092D0E7FC11650F494FE0AC092FC08C0A2
:103E9000092D0E7E05C0DC2C092D03C0DC2C01C0D1
:103EA000D12E04FF0DC0FE01EC0DF11D8081803389
:103EB00011F4097E09C002FF06C0D394D39404C054
:103EC000802F867809F0D39403FD11C000FF06C04F
:103ED0001C2DD51480F4150D1D190DC0D51458F4E2
:103EE000B70180E290E00E94BA25D394F7CFD514B1
:103EF00010F45D1801C0512C04FF10C0B70180E31D
:103F000090E00E94BA2502FF17C001FD03C088E7B8
:103F100090E002C088E590E0B7010CC0802F867861
:103F200059F001FF02C08BE201C080E207FD8DE283
:103F3000B70190E00E94BA25C11638F4B70180E3BA
:103F400090E00E94BA251150F7CFCA94F301EC0D0E
:103F5000F11D8081B70190E00E94BA25C110F5CF14
:103F600015C0F4E0F51560F584E0581A93FE1FC003
:103F7000011127C02C8523FF2AC00AEB10E0392D40
:103F80003071932EF8018491811124C0552009F4D9
:103F9000E4CCB70180E290E00E94BA255A94F6CFB3
:103FA000F7018681978126C08FEF9FEF23C0B7016D
:103FB00080E290E00E94BA255A945110F8CFD8CFF1
:103FC000512CB701802F90E00E94BA25D3CF0EEB81
:103FD00010E0D5CF91108052B70190E00E94BA2531
:103FE0000F5F1F4FCFCF23E0251510F483E0BDCF27
:103FF000512CC0CF6096E2E10C94B5210E943B09A0
:1040000087E891E00E9413260E9496190E945E1292
:1040100061E085E095E00E94271086EA91E00E9429
:1040200013260E9422070EEB11E0C4E1D2E00E94A9
:10403000B4080E9496190E948D1240EE55E062EE7F
:1040400075E084EE95E00E944A138091E1058F931C
:104050008091E0058F938091E3058F938091E20535
:104060008F938091E5058F938091E4058F931F9343
:104070000F930E94F6258DB79EB708960FB6F89459
:104080009EBF0FBE8DBF8091E4059091E505892B01
:1040900071F48091E2059091E305892B41F48091C0
:1040A000E0059091E105892B11F4109204058091AF
:1040B0000405811104C080EE91E00E94132685E082
:1040C00095E00E94441185E095E00E943D100E9419
:1040D000371C8FEC95E00E943D1740EE55E062EEF4
:1040E00075E084EE95E00E944A138091E1058F937C
:1040F0008091E0058F938091E3058F938091E20595
:104100008F938091E5058F938091E4058F93DF93E2
:10411000CF930E94F6250E94CA088BE392E00E948A
:1041200013260E947D098DB79EB708960FB6F894A6
:104130009EBF0FBE8DBF7BCFE8E2F6E014AA13AAA4
:1041400016AA15AA81E087AB10AE11AE12AE13AE5F
:104150001092CE051092CD0585E095E00C94C9092A
:1041600060E070E086E599E00E946F2590936B0611
:1041700080936A060895DB018F939F930E94272105
:10418000BF91AF91A29F800D911DA39F900DB29FF3
:10419000900D11240895991B79E004C0991F96177A
:1041A00008F0961B881F7A95C9F780950895AA1B79
:1041B000BB1B51E107C0AA1FBB1FA617B70710F012
:1041C000A61BB70B881F991F5A95A9F78095909544
:1041D000BC01CD01089597FB072E16F4009407D07B
:1041E00077FD09D00E94D72007FC05D03EF49095BA
:1041F00081959F4F0895709561957F4F0895A1E235
:104200001A2EAA1BBB1BFD010DC0AA1FBB1FEE1F50
:10421000FF1FA217B307E407F50720F0A21BB30B9B
:10422000E40BF50B661F771F881F991F1A9469F717
:1042300060957095809590959B01AC01BD01CF0173
:104240000895EE0FFF1F0590F491E02D09940E9450
:104250000722A59F900DB49F900DA49F800D911DE6
:1042600011240895B7FF0C9427210E942721821B57
:10427000930B0895689401C0E8948F929F92CF9316
:10428000DF930E944821DF91CF919F908F900895F6
:1042900088249924F401E401B0E49F93AA279A1595
:1042A0008B049C04ED05FE05CF05D007A10798F40B
:1042B000AD2FDC2FCF2FFE2FE92D982C892E982F94
:1042C000872F762F652F542F432F322F2227B85058
:1042D00031F7BF9127C01B2EBF91BB27220F331F81
:1042E000441F551F661F771F881F991F881C991C24
:1042F000EE1FFF1FCC1FDD1FAA1FBB1F8A149B04CC
:10430000EC05FD05CE05DF05A007B10748F08A18CA
:104310009B08EC09FD09CE09DF09A00BB10B216058
:104320001A94E1F62EF49401AF01BE01CD01000C08
:1043300008952F923F924F925F926F927F928F9249
:104340009F92AF92BF92CF92DF92EF92FF920F9324
:104350001F93CF93DF93CDB7DEB7CA1BDB0B0FB62E
:10436000F894DEBF0FBECDBF09942A8839884888EB
:104370005F846E847D848C849B84AA84B984C88481
:10438000DF80EE80FD800C811B81AA81B981CE0F78
:10439000D11D0FB6F894DEBF0FBECDBFED0108955D
:1043A0000F93083090F0982F872F762F652F542F7A
:1043B000432F322F22270850F4CF220F331F441FE0
:1043C000551F661F771F881F991F0A95B2F70F9117
:1043D000089597FB10F8169400080F93083098F092
:1043E0000850232F342F452F562F672F782F892FD2
:1043F000902DF4CF05949795879577956795579568
:104400004795379527950A95AAF70F910895A29F8A
:10441000B001B39FC001A39F700D811D1124911D98
:10442000B29F700D811D1124911D08955058BB2716
:10443000AA270E942E220C947F230E94712338F019
:104440000E94782320F039F49F3F19F426F40C944D
:104450006E230EF4E095E7FB0C946823E92F0E948D
:10446000902358F3BA17620773078407950720F063
:1044700079F4A6F50C94B2230EF4E0950B2EBA2F26
:10448000A02D0B01B90190010C01CA01A00111245A
:10449000FF27591B99F0593F50F4503E68F11A1606
:1044A000F040A22F232F342F4427585FF3CF469597
:1044B00037952795A795F0405395C9F77EF41F16B9
:1044C000BA0B620B730B840BBAF09150A1F0FF0F83
:1044D000BB1F661F771F881FC2F70EC0BA0F621F6F
:1044E000731F841F48F4879577956795B795F7955F
:1044F0009E3F08F0B0CF9395880F08F09927EE0FF4
:104500009795879508950E9497220C947F230E9487
:10451000782358F00E94712340F029F45F3F29F07E
:104520000C94682351110C94B3230C946E230E94B5
:10453000902368F39923B1F3552391F3951B550B01
:10454000BB27AA2762177307840738F09F5F5F4F66
:10455000220F331F441FAA1FA9F335D00E2E3AF0A5
:10456000E0E832D091505040E695001CCAF72BD0BD
:10457000FE2F29D0660F771F881FBB1F261737070E
:104580004807AB07B0E809F0BB0B802DBF01FF2740
:1045900093585F4F3AF09E3F510578F00C94682392
:1045A0000C94B3235F3FE4F3983ED4F3869577955C
:1045B0006795B795F7959F5FC9F7880F911D9695F9
:1045C000879597F90895E1E0660F771F881FBB1F55
:1045D000621773078407BA0720F0621B730B840B02
:1045E000BA0BEE1F88F7E09508950E94FC226894AC
:1045F000B1110C94B32308950E94982388F09F571B
:1046000098F0B92F9927B751B0F0E1F0660F771FF6
:10461000881F991F1AF0BA95C9F714C0B13091F0EC
:104620000E94B223B1E008950C94B223672F782F33
:104630008827B85F39F0B93FCCF3869577956795B1
:10464000B395D9F73EF490958095709561957F4F1D
:104650008F4F9F4F0895E89409C097FB3EF49095C3
:104660008095709561957F4F8F4F9F4F9923A9F04B
:10467000F92F96E9BB279395F695879577956795DA
:10468000B795F111F8CFFAF4BB0F11F460FF1BC01E
:104690006F5F7F4F8F4F9F4F16C0882311F096E9B1
:1046A00011C0772321F09EE8872F762F05C066235F
:1046B00071F096E8862F70E060E02AF09A95660F18
:1046C000771F881FDAF7880F9695879597F90895D1
:1046D00097F99F6780E870E060E008959FEF80ECB5
:1046E000089500240A941616170618060906089558
:1046F00000240A9412161306140605060895092EBE
:104700000394000C11F4882352F0BB0F40F4BF2B2C
:1047100011F460FF04C06F5F7F4F8F4F9F4F08956C
:1047200057FD9058440F551F59F05F3F71F0479562
:10473000880F97FB991F61F09F3F79F08795089547
:10474000121613061406551FF2CF4695F1DF08C066
:10475000161617061806991FF1CF86957105610583
:1047600008940895E894BB2766277727CB0197F92B
:1047700008950E94CC230C947F230E94712338F06B
:104780000E94782320F0952311F00C9468230C9458
:104790006E2311240C94B3230E94902370F3959FF1
:1047A000C1F3950F50E0551F629FF001729FBB2728
:1047B000F00DB11D639FAA27F00DB11DAA1F649FC4
:1047C0006627B00DA11D661F829F2227B00DA11D77
:1047D000621F739FB00DA11D621F839FA00D611DFD
:1047E000221F749F3327A00D611D231F849F600D1E
:1047F000211D822F762F6A2F11249F5750409AF047
:10480000F1F088234AF0EE0FFF1FBB1F661F771FD2
:10481000881F91505040A9F79E3F510580F00C949D
:1048200068230C94B3235F3FE4F3983ED4F386955A
:1048300077956795B795F795E7959F5FC1F7FE2B3D
:10484000880F911D9695879597F908951F93FC0100
:1048500099278827BC01E89411911032E9F31930A7
:1048600010F01E30C8F31B3251F01D3249F4689429
:1048700006C00E945A25610F711D811D911D119165
:1048800010531A30B0F33EF4909580957095619571
:104890007F4F8F4F9F4F1F910895283008F027E0DA
:1048A0003327DA01990F311D87FD9160009661056C
:1048B000710539F432602E5F3D9330E32A95E1F7BC
:1048C00008959F3F30F080387105610509F03C5F25
:1048D0003C5F3D93913008F08068911DDF93CF934A
:1048E0001F930F93FF92EF92192F987F9695E92FC0
:1048F00096959695E90FFF27E45EFE4F992733279B
:10490000EE24FF24A701E70105900894079428F4FA
:10491000360FE71EF81E491F511D660F771F881FAF
:10492000991F0694A1F70590079428F4E70EF81E46
:10493000491F561FC11D770F881F991F661F0694B8
:10494000A1F70590079428F4F80E491F561FC71FBA
:10495000D11D880F991F661F771F0694A1F7059038
:10496000079420F4490F561FC71FD81F990F661FC1
:10497000771F881F0694A9F784911095177041F04E
:10498000D695C79557954795F794E7941A95C1F72B
:10499000E2ECF0E068941590159135916591959150
:1049A00005907FE27395E118F10A430B560BC90B92
:1049B000D009C0F7E10CF11E431F561FC91FD01DBF
:1049C0007EF4703311F48A95E6CFE894015030F00C
:1049D000080F0AF40027021708F4202F2395022F4E
:1049E0007A3328F079E37D932A95E9F710C07D9317
:1049F0002A9589F606949795679537951795179494
:104A0000E118F10A430B560BC90BD00998F0239516
:104A10007E9173957A3308F070E37C932013B8F796
:104A20007E9170617D9330F0839571E37D9370E3A7
:104A30002A95E1F71124EF90FF900F911F91CF91EC
:104A4000DF91992787FD90950895FC0105906150AD
:104A500070400110D8F7809590958E0F9F1F089594
:104A6000FB01DC018D91019080190110D9F3990BA4
:104A70000895FB01DC0101900D920020E1F70895FB
:104A8000FB01DC014150504048F001900D920020A4
:104A9000C9F701C01D9241505040E0F70895FC0154
:104AA0006150704001900110D8F7809590958E0F5D
:104AB0009F1F0895592F482F372F262F660F771FD6
:104AC000881F991F660F771F881F991F620F731F1A
:104AD000841F951F660F771F881F991F08950F93D6
:104AE0001F93CF93DF93009731F46115710519F48B
:104AF00080E090E03AC08B01EC016EE070E081E074
:104B000090E00E94C326FC01892B91F380E8838307
:104B10000115110571F01387028781E88383809165
:104B2000460790914707892B21F4F0934707E093BC
:104B300046072097C9F0D187C0878381826083832D
:104B40008091480790914907892B71F4F0934907A8
:104B5000E093480780914A0790914B07892B21F4F5
:104B6000F0934B07E0934A07CF01DF91CF911F915C
:104B70000F9108950F931F93CF93DF93FB01238130
:104B800021FD03C08FEF9FEF2CC022FF16C046818E
:104B90005781248135814217530744F4A081B181A4
:104BA0009D012F5F3F4F318320838C932681378176
:104BB0002F5F3F4F3783268314C08B01EC01FB012D
:104BC0000084F185E02D0995892BE1F6D801169630
:104BD0008D919C911797019617969C938E9316979B
:104BE000CE01DF91CF911F910F910895A0E0B0E029
:104BF000ECEFF5E20C94A921AE014B5F5F4FFA0197
:104C000061917191AF0180914807909149070E948D
:104C1000811CE2E00C94C52160914807709149071E
:104C20000E94BA2508950F931F93CF93DF93E091CD
:104C30004807F0914907238121FF1BC08C01D0E078
:104C4000C0E0F80181918F01609148077091490798
:104C5000DB011896ED91FC911997882331F00995A5
:104C6000892B79F3DFEFCFEFECCF8AE00995892B21
:104C700019F08FEF9FEF02C08D2F9C2FDF91CF9106
:104C80001F910F910895AEE0B0E0E9E4F6E20C94D4
:104C9000A7210D891E8986E08C831A8309838FEFF3
:104CA0009FE79E838D83AE01475E5F4F6F89788D4E
:104CB000CE0101960E94811CEF81F885E00FF11F63
:104CC00010822E96E4E00C94C321FA01AA27283022
:104CD00051F1203181F1E8946F936E7F6E5F7F4FC9
:104CE0008F4F9F4FAF4FB1E03ED0B4E03CD0670F45
:104CF000781F891F9A1FA11D680F791F8A1F911D98
:104D0000A11D6A0F711D811D911DA11D20D009F4E7
:104D100068943F912AE0269F11243019305D319329
:104D2000DEF6CF010895462F4770405D4193B3E012
:104D30000FD0C9F7F6CF462F4F70405D4A3318F0B9
:104D4000495D31FD4052419302D0A9F7EACFB4E06A
:104D5000A6959795879577956795BA95C9F7009722
:104D60006105710508959B01AC010A2E06945795C3
:104D7000479537952795BA95C9F7620F731F841F1A
:104D8000951FA01D08950F931F93CF93DF93869FC8
:104D90008001879F100D969F100D1124C8010E945D
:104DA000DF26EC01009729F0A80160E070E00E9486
:104DB0000028CE01DF91CF911F910F9108950F939D
:104DC0001F93CF93DF938230910510F482E090E03F
:104DD000E0914E07F0914F0720E030E0A0E0B0E016
:104DE000309719F140815181028113814817590789
:104DF000C8F08417950769F4109731F012960C9358
:104E0000129713961C9327C000934E0710934F07D9
:104E100022C02115310519F04217530718F49A01E1
:104E2000BD01EF01DF01F801DBCF21153105F9F0FC
:104E3000281B390B2430310580F48A819B81611550
:104E4000710521F0FB019383828304C090934F0787
:104E500080934E07FE01329644C0FE01E20FF31F1D
:104E60008193919322503109398328833AC020914C
:104E70004C0730914D07232B41F4209103013091D1
:104E8000040130934D0720934C072091010130918C
:104E900002012115310541F42DB73EB740910501BE
:104EA00050910601241B350BE0914C07F0914D0702
:104EB000E217F307A0F42E1B3F0B2817390778F0F1
:104EC000AC014E5F5F4F2417350748F04E0F5F1F50
:104ED00050934D0740934C078193919302C0E0E0BB
:104EE000F0E0CF01DF91CF911F910F910895CF9303
:104EF000DF93009709F481C0FC013297138212827C
:104F0000A0914E07B0914F07109781F42081318115
:104F1000820F931F20914C0730914D0728173907B6
:104F200051F5F0934D07E0934C0767C0ED0120E089
:104F300030E0CE17DF0740F44A815B819E014115C6
:104F40005105F1F0EA01F5CFD383C283408151814D
:104F5000840F951FC817D90759F488819981840F48
:104F6000951F0296918380838A819B81938382839C
:104F70002115310529F4F0934F07E0934E073DC00A
:104F8000E901FB83EA8349915991C40FD51FEC17BE
:104F9000FD0761F480819181840F951F0296E901DC
:104FA00099838883828193819B838A83E0E0F0E008
:104FB00012968D919C911397009719F0FD01DC01D9
:104FC000F7CF8D919C9111979D012E5F3F4F820FDE
:104FD000931F20914C0730914D072817390769F42A
:104FE000309729F410924F0710924E0702C0138297
:104FF0001282B0934D07A0934C07DF91CF91089593
:10500000DC0101C06D9341505040E0F70895F894E1
:02501000FFCFD0
:1050120001000050072000781E00A02800F03C008C
:10502200405100127A00E4A20024F40048E8019002
:10503200D00320A1075F0361036603650367036969
:10504200036A036D03710373037403770381037BA4
:105052000380037F035374617274696E67204C6F1F
:105062005261206661696C6564210D004C6F52616A
:1050720020496E6974205375636365737366756C3A
:105082006C0D00256C750025643A25643A25640090
:105092004E4F5F4C4F43002D2D2D2D2D2D2D204D8C
:1050A200656469756D20436F6C6C6172202D2D2DC6
:1050B2002D2D2D2D0D0052544320616E642047503A
:1050C2005320496E697420446F6E65200D004D6156
:1050D200696E3A2057616B6575702054696D653A47
:1050E200202564203A202564203A2025640D0A00F8
:1050F2004D61696E3A2054696D65206E6F7420733C
:1051020065742C2057616974696E6720666F72201E
:1051120074696D652066726F6D204C6F526120500C
:105122006B740D004D61696E3A20536C6565702099
:1051320054696D653A202564203A202564203A207E
:1051420025640D0A0D0A0D0A0D0A004D61696E3AB9
:1051520020476F696E6720746F20736C65657020DD
:105162006E6F77200D0A0D0052656369657665647E
:10517200205061636B65740D00252E366600475022
:10518200524D4300474E524D43004750474741005E
:10519200474E474741004750532050756C73652076
:1051A200476976656E200D004C6F636174696F6E9E
:1051B2003A20002566202C202566200D0A00494E43
:1051C20056414C49440D00446174652F54696D6524
:1051D2003A20002564202F202564202F20256420DA
:1051E20020202D202000494E56414C4944200D00DC
:1051F2002564203A200048616E64656C696E672000
:10520200475053204E6F770D004750532D3E486153
:105212006E646C65723A2052657475726E205472B7
:10522200756520696E206D532054696D6572206129
:10523200743A20256C750D0A004750532D3E486183
:105242006E646C65723A2052657475726E20466C9B
:1052520061736520696E206D532054696D657220FB
:1052620061743A20256C750D0A00252E3266004EB7
:10527200004E4E4500454E450045534500535345AB
:105282000053005353570057535700574E57004E81
:105292004E57007363686564756C652D3E616C6181
:1052A200726D48616E646C65723A20547275652045
:1052B20053657474696E6720616C61726D20666FEC
:1052C200723A202564202F2025640D0A007363683A
:1052D2006564756C652D3E616C61726D48616E64CA
:1052E2006C65723A2046616C73652053657474690B
:1052F2006E6720616C61726D20666F723A20256460
:10530200202F2025640D0A00636D642E6465746588
:1053120063742D3E50726F63657373696E672063A9
:105322006F6D6D616E640D00636D642E64657465EE
:1053320063742D3E57726F6E6720636F6D6D616E81
:1053420064206C656E6774683A2025640D0A0063F8
:105352006D642E6465746563742D525443205469E0
:105362006D65207365740D00636D642E64657465EC
:1053720063742D3E45786974696E670D004144433C
:105382003A20256C750D0A004D61696E3A2052650E
:105392006C656173652054696D653A202564203A15
:1053A200202564203A2025640D0A00252E3166004E
:1053B20072656C6561736548616E646C65722D3EE1
:1053C200497427732072656C656173652074696D19
:1053D200650D0053656E64696E673A20257300009F
:00000001FF
