:100000000C94E0000C94C7090C9408010C940801AE
:100010000C9408010C9408010C9408010C940A0932
:100020000C9408010C9408010C9408010C9408012C
:100030000C9408010C9408010C940A010C9408011A
:100040000C9408010C9408010C944B090C940801C1
:100050000C9408010C9408010C9408010C940801FC
:100060000C94D0180C940801B90EC60ECA0ED00E0E
:10007000D60EEB0EF40EFB0E000F060F060F060F4A
:10008000060F060F060F060F060F060F060F060FC8
:10009000060F060F060F060F060F060F060F060FB8
:1000A000060F060F060F060FB90EBF0EC60ECA0EBC
:1000B000D00ED60EDC0EE00EE50E6E616E00696E9F
:1000C000660000407A10F35A00A0724E1809001022
:1000D000A5D4E80000E87648170000E40B540200BD
:1000E00000CA9A3B000000E1F505000080969800E8
:1000F000000040420F000000A08601000000102711
:1001000000000000E80300000000640000000000A0
:100110000A00000000000100000000002C76D888D2
:10012000DC674F0823DFC1DFAE59E1B1B796E5E3E5
:10013000E453C63AE651997696E8E6C28426EB89FE
:100140008C9B62ED407C6FFCEFBC9C9F40F2BAA59B
:100150006FA5F490055A2AF75C936B6CF9676DC133
:100160001BFCE0E40D47FEF520E6B500D0ED902E37
:100170000300943577050080841E080000204E0A95
:10018000000000C80C333333330F986E12831141D3
:10019000EF8D2114893BE65516CFFEE6DB18D1849E
:1001A0004B381BF77C1D901DA4BBE42420328472C5
:1001B0005E228100C9F124ECA1E53D2741215521B2
:1001C00011241FBECFEFD8E0DEBFCDBF15E0A0E009
:1001D000B1E0ECE5F1E502C005900D92A432B10763
:1001E000D9F727E0A4E2B5E001C01D92A63DB20711
:1001F000E1F710E0C0EED0E004C02197FE010E94BC
:10020000C621CE3DD107C9F70E9470200C94AC28BE
:100210000C9400001F920F920FB60F9211248F932F
:100220009F93EF93FF9380912D05813019F5809175
:100230002C058150E9F48091290590912A0580FFD1
:1002400002C0289A01C028988091290590912A051A
:100250009695879590932A058093290580912B0583
:10026000815080932B05811102C010922D0583E0EF
:1002700080932C0580912F05811152C08091280513
:100280008823E9F08091270581508093270581110B
:1002900047C01092280510922E05E0913105F0E03C
:1002A00080912605EE5CFA4F8083809131058F5F47
:1002B000809331058032A0F11092310531C08091D8
:1002C0002E05811110C019992BC081E080932E0555
:1002D0001092260594E09093270598E090932505C9
:1002E000809324051DC0809127058150B9F4809129
:1002F0002405199B05C090912605982B90932605FF
:10030000880F8093240580912505815080932505D1
:10031000811103C081E08093280583E08093270545
:10032000FF91EF919F918F910F900FBE0F901F90B3
:10033000189510922D0510922E0510922F05289ACF
:10034000209A21989FB7F89481E287BD82E084BD0E
:1003500085BDEEE6F0E080818260808316BC9FBFA1
:10036000089510922F05089581E080932F05089538
:1003700090913005809131059817E1F3E92FF0E075
:10038000EE5CFA4F80819F5F903218F490933005B5
:1003900008951092300508959091310581E02091E3
:1003A0003005291301C080E00895109231051092A4
:1003B0003005089590912D0581E0913009F080E09D
:1003C000089590912D059130E1F393E090932C05E1
:1003D0009AE090932B05880F990B926090932A05D1
:1003E0008093290581E080932D050895CF93DF93B5
:1003F000EC018991882319F00E94E101FACFDF9185
:10040000CF910895CF93DF93FC018491EF01219662
:10041000882321F00E94E101FE01F7CFDF91CF9107
:100420000895CF93DF93D82FC62F60E083E40E9416
:1004300090088D2F0E94CB058C2F0E94CB05C82FD2
:1004400060E083E40E946C088C2FDF91CF910895C7
:1004500060E08F770C9411028AE10E94280240919B
:1004600054055091550560915605709157054115F9
:10047000514A6C4B734310F09DE901C094EA891B0B
:10048000089589E10E94280285958595089583E164
:100490000E94280290915305891B08950E944702EB
:1004A000882341F0809153058F5F8093530580E04E
:1004B0000C9428028FEF08958EE10E942802829505
:1004C0008F7008958DE10E94280290E034E09595A8
:1004D00087953A95E1F78A3091057CF4FC01EE0F9F
:1004E000FF1F8E0F9F1FFC01E95FFE4F80819181EE
:1004F000A281BC018A2F90E0089560E271EA87E052
:1005000090E008958F929F92AF92BF92CF92DF9228
:10051000EF92FF9288E20E9428028770C82ED12CA9
:10052000E12CF12CFE2CED2CDC2CCC2489E20E9459
:100530002802C80ED11CE11CF11CFE2CED2CDC2C79
:10054000CC248AE20E942802C80ED11CE11CF11CB6
:1005500088E20E94280283FF03C088E0E81AF108BD
:100560000E9462024B015C01C701B6010E94D223C6
:1005700020E030E040E85BE40E945E2420E034E2CA
:1005800044EF5BE40E9428236B017C01C501B401A8
:100590000E94D02320E034E244EF58E40E94282354
:1005A0009B01AC01C701B6010E945E240E949A2300
:1005B000FF90EF90DF90CF90BF90AF909F908F9083
:1005C000089580680C94110263E881E80E9411028A
:1005D00082E10E94280283FD07C08FE19EE401971B
:1005E000F1F700C00000F4CF68E082E90E94110238
:1005F00081E00895DF92EF92FF920F931F93CF93C4
:10060000DF93F82ED92EC62F82E20E942802D82F1F
:100610008C2F90E08D0F911D8F3F910519F010F0F8
:10062000CD2FC095EF2C0F2D1D2D802F8E198C17DF
:1006300038F4F80161918F0180E80E941102F5CF32
:100640006C2F6D0F82EA0E9411028C2FDF91CF91E7
:100650001F910F91FF90EF90DF900895CF93DF935C
:100660000E944702882371F08DE00E942802D82F53
:1006700080E00E942802C82F6D2F8DE80E94110291
:100680008C2F01C08FEFDF91CF91089561E881E851
:100690000C94110260E881E80C9411020C944A0356
:1006A000823020F0823118F081E101C082E0825076
:1006B000682F606889E80C941102AF92BF92CF92C4
:1006C000DF92EF92FF920F931F93CF93DF9360938C
:1006D0005405709355058093560590935705DC019A
:1006E000CB019C01AD0160E070E080E090E003E1AF
:1006F0000E947522A12CE8E4BE2EF8EECF2EDD2458
:10070000D394E12CF12C00E010E00E94E121C22FF3
:10071000B32E6A017B01182FD92F00E10E9490228D
:10072000622F86E80E9411022C2F3B2DA601B701F3
:10073000812F9D2F08E00E949022622F87E80E945F
:1007400011026C2F88E8DF91CF911F910F91FF90DC
:10075000EF90DF90CF90BF90AF900C941102CF92AA
:10076000DF92EF92FF926B017C0160E083E40E94D4
:10077000480860E083E40E946C0861E083E40E9422
:10078000480861E083E40E9490088FE19EE40197AD
:10079000F1F700C0000061E083E40E946C088FE183
:1007A0009EE40197F1F700C0000082E40E94280255
:1007B000823109F50E944A03C701B6010E945D0318
:1007C00060E08EE80E94110260E08FE80E94110252
:1007D0008CE00E942802682F63608CE80E9411025E
:1007E00064E086EA0E94110284E10E9450030E94A4
:1007F000460381E001C080E0FF90EF90DF90CF9052
:1008000008950F9362E082E40E94480862E082E467
:100810000E94900800E020E040E061E080E00E945B
:10082000A60560EC7AEC89E896E30E94AF0381119B
:1008300005C085E491E00E94B826FFCF0F9108958E
:10084000CF93853028F0C82F893018F0C8E001C058
:10085000C5E08DE10E9428026C2F70E064507109A0
:10086000660F771F817F682B8DE9CF910C94110261
:10087000CF93C82F692F80EA0E9411026C2F81EA62
:10088000CF910C941102682F89EB0C9411028EE128
:100890000E942802682F64608EE90C9411028EE198
:1008A0000E942802682F6B7F8EE90C94110210922F
:1008B00052058DE10E942802682F6E7F8DE90C940D
:1008C000110281E0809352058DE10E942802682F79
:1008D00061608DE90C941102CF93C82F0E944603EA
:1008E000CC2319F00E94610402C00E94570460E00A
:1008F0008DE80E94110260E082EA0E94110281E00C
:10090000CF9108951F93CF93DF93EC01162F0E9490
:10091000010480E00E946C04612FCE010E94FA0263
:100920000E94E402DF91CF911F910C944A03CF9370
:10093000DF93D82F82E10E942802C82FDD2339F0EF
:100940000E9461046D2F82EA0E94110202C00E947F
:1009500057046C2F82E90E941102C6FF18C0C5FD22
:1009600016C01092530580915205882311F082E23F
:1009700001C083E10E942802C82F80E10E94280262
:10098000682F8DE80E9411020E9446030FC081E08B
:100990000E942802863841F060E08DE80E94110232
:1009A00066E881E80E941102C0E0D0E08C2FDF9160
:1009B000CF910895CF93DF93EC01181619063CF4FC
:1009C0000E9461046C2F82EA0E94110202C00E9400
:1009D000570465E881E8DF91CF910C941102CF9222
:1009E000DF92EF92FF92CF93DF930E9462026B013E
:1009F0007C010E945C02D82F86E20E942802C82F48
:100A0000A701960104C05695479537952795DA9525
:100A1000D2F768EE73E080E090E00E94A4216C2F92
:100A2000213131054105510510F0686001C0677F33
:100A300086EADF91CF91FF90EF90DF90CF900C94FA
:100A40001102CF93C82F863020F08D3060F48630AD
:100A500059F465EC81EB0E9411026CE087EB0E9477
:100A60001102C6E009C0CCE063EC81EB0E941102E8
:100A70006AE087EB0E9411028EE10E9428028F70CB
:100A800090E1C99F90011124682F622B8EE90E948A
:100A90001102CF910C94EF04CF9369372EE17207C6
:100AA0008105910590F1613A28E27207810591056F
:100AB00070F1613F2CE372078105910550F16134BB
:100AC00021E572078105910530F163312AE772074C
:100AD0008105910510F1653E22EA720781059105B5
:100AE000F0F0653224EF720781059105D0F069348A
:100AF00028EE720721E082079105A8F06139704D58
:100B00008340910590F0C9E011C0C0E00FC0C1E082
:100B10000DC0C2E00BC0C3E009C0C4E007C0C5E01F
:100B200005C0C6E003C0C7E001C0C8E08DE10E9477
:100B300028028F7090E1C99F90011124682F622BC9
:100B40008DE90E941102CF910C94EF040F9394B1A0
:100B5000986294B924982C9A437094E0499FA0011C
:100B6000112423702064422BA62FA170B0E094E0E2
:100B7000AA0FBB1F9A95E1F74A2BE82FE170F0E02E
:100B800025E0EE0FFF1F2A95E1F7E42BECBD017085
:100B90000DBD0F9108958EBD0DB407FEFDCF8EB52E
:100BA0000895BF92CF92DF92EF92FF920F931F931F
:100BB000CF93DF93EC01BB24B39488E8C82E83E184
:100BC000D82EE12CF12C02E310E08DA99EA92BA9CF
:100BD0003CA928173907B9F12CAD222319F021308F
:100BE00069F027C0FE01E80FF91F81818B3711F5ED
:100BF000BCAEC8AED9AEEAAEFBAE1CC0FE01E80F7B
:100C0000F91F61818BE096E06D3739F40E94431B38
:100C10008BE096E00E94D81A0CC00E94431B811101
:100C200008C088AD99ADAAADBBAD892B8A2B8B2BA3
:100C300009F41CAE8DA99EA90196B8010E949021CD
:100C40009EAB8DABC2CFDF91CF911F910F91FF90E3
:100C5000EF90DF90CF90BF900895FC0187A9882383
:100C600089F040AD51AD62AD73AD411551056105DF
:100C7000710541F0415051096109710940AF51AF0F
:100C800062AF73AF0895AF92BF92CF92DF92FF929F
:100C90000F931F93CF93DF93EC01F62E80915905AC
:100CA0008E010E5F1F4F882309F488C08BE788836D
:100CB00083E489831F9282E08F9386E691E09F937D
:100CC0008F931F930F930E94E826BC016F5F7F4FA5
:100CD000600F711FF801E80FF91F1CE2108389E50E
:100CE00095E00E94350CBC016F5F7F4FFC011083C3
:100CF00089E595E00E94540CBC016F5F7F4FFC01B9
:100D0000108389E595E00E9499125C01FFEFAF1A0C
:100D1000BF0AFC0110831092C2058091CA058F930F
:100D20008091C9058F938091C8058F938091C705E5
:100D30008F938CE591E09F938F93BF92AF920E9427
:100D4000E8266C01FFEFCF1ADF0ACA0CDB1CF501A5
:100D5000E80FF91F1083809167068F9380916606D4
:100D60008F93809169068F93809168068F9380910D
:100D70006B068F9380916A068F9380E691E09F9334
:100D80008F93DF92CF920E94E826F601E80FF91FB9
:100D900001968C0D9D1D10832DB73EB7285E3F4FE9
:100DA0000FB6F8943EBF0FBE2DBF8F010C5F1F4FD3
:100DB00032E0F31258C069E671E057C08BE78883D0
:100DC00083E489831F9282E08F9386E691E09F936C
:100DD0008F931F930F930E94E8265801A80EB91E07
:100DE0002CE2D22EF501D082019661E771E0800FEE
:100DF000911F0E94DE258501085F1F4FF501D782F4
:100E0000809167068F93809166068F938091690623
:100E10008F93809168068F9380916B068F9380915A
:100E20006A068F9380E691E09F938F931F930F93B1
:100E30000E94E826F801E80FF91F0196800F911F24
:100E4000D0822DB73EB7205F3F4F0FB6F8943EBF1C
:100E50000FBE2DBF8F010C5F1F4F31E0F31203C097
:100E600068E771E002C06DE671E00E94DE258DE763
:100E7000F80180831182DF93CF938CE791E09F93F9
:100E80008F930E949B26FE0101900020E9F7319785
:100E9000CF018C1B9D0BEC019F938F9384E991E014
:100EA0009F938F930E949B26EDB7FEB738960FB69F
:100EB000F894FEBF0FBEEDBFCE01DF91CF911F9121
:100EC0000F91FF90DF90CF90BF90AF9008950F9358
:100ED0001F93CF93DF93CDB7DEB761970FB6F8942A
:100EE000DEBF0FBECDBF03E110E01E830D831C8269
:100EF0001B821A8219828BE190E098878F838CE0A5
:100F000090E09A87898785E190E09C878B87CE0166
:100F100001960E943F14E5E5F6E017A306A315A28B
:100F200014A213A212A210929E0610929D0683E0B4
:100F300090E090939C0680939B0610929A061092E4
:100F4000990684E190E090AF87AB16AA15AA14AA7F
:100F500013AA61960FB6F894DEBF0FBECDBFDF9126
:100F6000CF911F910F9108958EEA96E00E942D0671
:100F70008091AA069091AB06A091AC06B091AD0607
:100F80000097A105B10559F00197A109B109809316
:100F9000AA069093AB06A093AC06B093AD0689E584
:100FA00095E00C9484128093AE062091E106309176
:100FB000E206F901E255F94F8183C90101968233B6
:100FC00091052CF49093E2068093E1060895109227
:100FD000E2061092E10608950E94010480E395E77D
:100FE000A0E0B0E08093AA069093AB06A093AC0675
:100FF000B093AD068091AA069091AB06A091AC0685
:10100000B091AD06892B8A2B8B2BD1F080E00E940A
:101010009704882379F385EA91E00E94B8260E941C
:101020004702882329F00E944E020E94D307F7CF7F
:101030008EEA96E00E94D105809158058823D1F26E
:101040000895833479F08434C1F0823401F524B1F9
:1010500081E090E001C0880F6A95EAF780958223CD
:1010600084B9089527B181E090E001C0880F6A95A6
:10107000EAF78095822387B908952AB181E090E04C
:1010800001C0880F6A95EAF7809582238AB908958E
:10109000833471F08434B1F08234E9F424B181E016
:1010A00090E001C0880F6A95EAF7822B84B9089511
:1010B00027B181E090E001C0880F6A95EAF7822BA2
:1010C00087B908952AB181E090E001C0880F6A9540
:1010D000EAF7822B8AB90895833471F08434B1F031
:1010E0008234E9F425B181E090E001C0880F6A956F
:1010F000EAF7822B85B9089528B181E090E001C01C
:10110000880F6A95EAF7822B88B908952BB181E0A0
:1011100090E001C0880F6A95EAF7822B8BB9089599
:10112000833479F08434C1F0823401F525B181E053
:1011300090E001C0880F6A95EAF78095822385B90F
:10114000089528B181E090E001C0880F6A95EAF720
:101150008095822388B908952BB181E090E001C089
:10116000880F6A95EAF7809582238BB90895442306
:1011700019F0413019F008950C9490080C946C0803
:10118000833431F0843431F08234B1F423B103C0BC
:1011900026B101C029B181E090E0062E02C0880F7F
:1011A000991F0A94E2F730E08223932302C09595B9
:1011B00087956A95E2F7089581E008950895E1E83A
:1011C000F0E080818260808308951092810008950C
:1011D000809184002091850090E0922B96958795D0
:1011E00008951092B200E0EBF0E08081826080838D
:1011F0008EE38093B30017BAE0E7F0E0808182606D
:101200008083E1EBF0E08081856080830895109217
:10121000B10008951F920F920FB60F9211242F93D1
:101220003F934F935F936F937F938F939F93AF936E
:10123000BF93EF93FF930E94B40717BA8091EC0617
:101240009091ED06A091EE06B091EF060196A11DDA
:10125000B11D8093EC069093ED06A093EE06B0933B
:10126000EF06FF91EF91BF91AF919F918F917F9189
:101270006F915F914F913F912F910F900FBE0F9003
:101280001F9018956091EC067091ED068091EE0626
:101290009091EF0608951F920F920FB60F921124AE
:1012A0002F933F934F935F936F937F938F939F936E
:1012B000AF93BF93EF93FF938091C6008093EB06AB
:1012C0008091EB060E94D30782E08093C000FF91DB
:1012D000EF91BF91AF919F918F917F916F915F91AE
:1012E0004F913F912F910F900FBE0F901F90189527
:1012F0008091F0069091F1069093CF078093CE07EE
:1013000083E38093C4001092C50088E98093C100F4
:1013100082E08093C00008959091C00095FFFCCFBB
:101320008093C600089590910001992329F00E94AE
:101330008C0980E090E0089581E090E00895EF92BC
:10134000FF920F931F93CF93DF937C018B01EC01EE
:10135000CE018E199F098017910724F489910E946C
:101360008C09F6CFC801DF91CF911F910F91FF90AB
:10137000EF90089583B7816083BF83B7817F8460D6
:1013800083BF7894889583B78E7F83BF08951F921B
:101390000F920FB60F921124E09A0F900FBE0F908C
:1013A0001F9018950F931F93CF93DF93EC018B0140
:1013B0000E94E808998388831B830A83DF91CF9179
:1013C0001F910F910895CF93DF93EC010E94E808DD
:1013D0004A815B8141155105A9F02881398128177F
:1013E000390728F4BC01621B730B9B0105C0821BEB
:1013F000930B9C012150304881E02417350718F4E5
:1014000080E001C081E0DF91CF910895FC0110825E
:10141000118213821282148215821682178210861C
:101420001286118613861486158616861786118AEB
:10143000108A128A138A148A158A168A108E178ABD
:10144000118E128E138E148E158E12A213A214A258
:1014500015A216A217A210AA11AA12AA13AA14AAB8
:1014600015AA16AE17AEDC01DE9616961D921D92D9
:101470001D921C9219971E961C9211961C92119700
:1014800016961D921D921D921C9219971E961C92E3
:1014900011961C92119716961D921D921D921C92E8
:1014A00019971E961C9211961C92119716961D92D2
:1014B0001D921D921C9219971E961C9211961C92B9
:1014C000119716961D921D921D921C9219971E96A9
:1014D0001C9211961C9211961C92509682E08C934D
:1014E00011961C9211961C9211961C9211961196AF
:1014F0001C921E92129611961C921E9212961D928A
:101500001D921D921C92139714961D921D921D926E
:101510001C92139714961D921D921D921C92139764
:1015200014961D921D921D921C92139714961D9253
:101530001D921D921C921397E957FF4F1082089538
:101540002FEB260F862F062E000C990B263010F459
:10155000C79708956156663018F487559109089524
:10156000C0970895FF920F931F93CF93DF93EC01E1
:10157000F8802DE2F21201C02196CE010E94CB2408
:101580009B01AC01A4E6B0E00E94CC21FE01499190
:10159000242F042E000C330B205331092A3031053F
:1015A000A8F34E3241F52181022E000C330B20535B
:1015B00031092A303105F8F44AE0429F8001439F07
:1015C000100D1124012E000C220B330B600F711F24
:1015D000821F931F0281002E000C110B0053110972
:1015E0000A30110540F4012E000C220B330B600F62
:1015F000711F821F931F2DE2F21207C090958095F4
:10160000709561957F4F8F4F9F4FDF91CF911F91C5
:101610000F91FF9008952F923F924F925F926F9299
:101620007F928F929F92AF92BF92CF92DF92EF9272
:10163000FF920F931F93CF93DF93D82FC92F8B0166
:101640000E94CB2424E630E040E050E00E94A42138
:1016500049015A019B01AC0160E876E988E990E014
:101660000E9460216B017C01F80191828082ED2F44
:10167000FC2F2191822F022E000C990BC0970A9704
:10168000C0F32E3239F51F0180E8882E86E9982EA6
:1016900088E9A82EB12C9AE0492E512C612C712C8E
:1016A000F101C1911F010C2E000CDD0BE097CA3037
:1016B000D10580F4C501B401A30192010E94A421C7
:1016C00049015A01DE010E94D721C60ED71EE81E2D
:1016D000F91EE6CFA5E0B0E0A70196010E94CC215B
:1016E0006F5F7F4F8F4F9F4F23E030E040E050E02F
:1016F0000E94A421F80122833383448355831682F8
:10170000DF91CF911F910F91FF90EF90DF90CF90DD
:10171000BF90AF909F908F907F906F905F904F9011
:101720003F902F90089520E030E044E351E40E9480
:10173000BC2220E030E044EB51E40E9428230E94C8
:101740009A23CB0160E170E00E949021FC01EE0F32
:10175000FF1FEB5DFE4F808191810895CF93DF9352
:10176000EC0187E0FE017096DE01129601900D9269
:101770008A95E1F787E0FE017796DE0119960190E0
:101780000D928A95E1F70E9442096E8F7F8F88A3A0
:1017900099A381E089838883DF91CF9108959B018C
:1017A000BC01605F7F4FC9010C940B0B9B01BC0116
:1017B000695E7F4FC9010C940B0BCF92DF92EF92C1
:1017C000FF92CF93DF93EC0119826C817D818E8132
:1017D0009F810E94D02328E23BE64EE65EE40E9411
:1017E00028236B017C016A817B8180E090E00E946C
:1017F000D0239B01AC01C701B6010E94BC22288501
:1018000021119058DF91CF91FF90EF90DF90CF9012
:101810000895CF92DF92EF92FF92CF93DF93EC0186
:1018200019826B857C858D859E850E94D02328E258
:101830003BE64EE65EE40E9428236B017C0169854D
:101840007A8580E090E00E94D0239B01AC01C70123
:10185000B6010E94BC222F8521119058DF91CF91B3
:10186000FF90EF90DF90CF900895CF93DF93EB013F
:101870000E94DD0B9F938F937F936F9381ED92E096
:101880009F938F93DF93CF930E94E8262DB73EB7A7
:10189000285F3F4F0FB6F8943EBF0FBE2DBF8C0F91
:1018A0009D1FDF91CF910895CF93DF93EB010E94AD
:1018B000090C9F938F937F936F9381ED92E09F9399
:1018C0008F93DF93CF930E94E8262DB73EB7285F12
:1018D0003F4F0FB6F8943EBF0FBE2DBF8C0F9D1F1C
:1018E000DF91CF910895CF93DF93EC018E819F819B
:1018F000A885B9858A839B83AC83BD830E944209F6
:101900006A877B878C879D8781E089838883DF91C5
:10191000CF910895CF93DF93EC018E819F81A885AD
:10192000B9858A839B83AC83BD830E9442096A8701
:101930007B878C879D8781E089838883DF91CF9126
:101940000895CF93DF93EC01CB010E94B20A6E831E
:101950007F8388879987DF91CF910895CF93DF9315
:10196000EC01CB010E94CB246E837F83888799870B
:10197000DF91CF910895FC0111826281738184818E
:10198000958124E630E040E050E00E94A421CB01A4
:101990008053984F0895CF92DF92EF92FF92FC010F
:1019A0001182628173818481958124E6C22ED12CBB
:1019B000E12CF12CA70196010E94A421CA01B901D2
:1019C000A70196010E94A421862FFF90EF90DF903F
:1019D000CF900895FC011182628173818481958189
:1019E00020E137E240E050E00E94A421822F0895D8
:1019F000FC011182628173818481958120E432E44B
:101A00004FE050E00E94A421822F0895FC01118232
:101A1000628173818481958120E137E240E050E06A
:101A20000E94A421CA01B90124E630E040E050E060
:101A30000E94A421862F0895CF92DF92EF92FF9209
:101A4000FC011182628173818481958124E6C22E1A
:101A5000D12CE12CF12CA70196010E94A421CA01EE
:101A6000B901A70196010E94A421862FFF90EF9053
:101A7000DF90CF900895FC0111826281738184818F
:101A8000958124E630E040E050E00E94A421862FBA
:101A90000895CF93DF93EC018A859B85AC85BD8546
:101AA0008E839F83A887B9870E9442096A837B83BC
:101AB0008C839D8381E089838883DF91CF91089512
:101AC000CF93DF93EC01CB010E94B20A6A877B8738
:101AD0008C879D87DF91CF910895CF93DF93EC01A1
:101AE0008A859B85AC85BD858E839F83A887B987B2
:101AF0000E9442096A837B838C839D8381E0898372
:101B00008883DF91CF910895CF93DF93EC01CB01D0
:101B10000E94CB246A877B878C879D87DF91CF913A
:101B20000895CF93DF93EC01BC0140960E94DE251F
:101B30000E94420968A379A38AA39BA381E08DA395
:101B40008CA3DF91CF91089540E150E00C94E525FE
:101B5000BF92CF92DF92EF92FF920F931F93CF939A
:101B6000DF93EC01FC01EA57FF4FB080BB2009F482
:101B700099C0319660810E94A00A182FFE01E85793
:101B8000FF4F6081CE010E94A00A40E1149F800DAA
:101B90001124FE01EB57FF4F9081891374C0B59655
:101BA00080819181A281B3810196A11DB11D8083A5
:101BB0009183A283B3838E0107561F4FD8018C9166
:101BC000882361F0389780819181A281B381019649
:101BD000A11DB11D80839183A283B383FE01EA56C8
:101BE000FF4F80818823C9F0813089F5CE0182962C
:101BF0000E94730CCE01C0960E948A0CF80180816D
:101C0000882329F1CE010E94AE0BCE01CE960E9410
:101C1000490DCE01845B9F4F18C0CE01C0960E9433
:101C20008A0CD8018C91882341F0CE010E94AE0B22
:101C3000CE01865A9F4F0E94490DCE0188599F4F71
:101C40000E946D0DCE018A589F4F0E94490D8E0152
:101C500004561F4FF801C081D181209709F407C1B4
:101C6000D801ED91FC9166A177A18EA19FA10E9460
:101C7000D525892B09F0FBC0CE010E94910D0AA445
:101C8000DBA5C02DEACFCA55DF4F88819981AA8193
:101C9000BB810196A11DB11D88839983AA83BB8353
:101CA000B12CE5C07C01B7E9EB0EF11CF7013081E6
:101CB0008A569F4F6C018E0104561F4F31113EC052
:101CC0007E0197E8E90EF11C66ED72E0C7010E9403
:101CD000D525892B39F06CED72E0C7010E94D5251E
:101CE000892B11F481E012C062EE72E0C7010E94FC
:101CF000D525892B39F068EE72E0C7010E94D52501
:101D0000892B19F4F601108203C082E0D6018C936E
:101D1000C656DF4F88819981F80191838083C08105
:101D2000D181209709F4A3C0B7018EA19FA10E9481
:101D3000D52597FF97C08AA59BA5EECFDC01EC9136
:101D4000E23009F463C0CE0189579F4FDC012C912A
:101D5000222309F45BC0B0E2EB9FF0011124E32BD6
:101D60003197E932F10508F051C0EC5CFF4F0C945B
:101D7000C621BC01CE01C0960E94A10C47C0FE0145
:101D8000E756FF4F81E0213461F52CC0BE01605F52
:101D90007F4F09C081E0233509F080E08E8B36C08B
:101DA000BE01695E7F4F0E940B0B30C081E027357A
:101DB00009F080E08D8F2AC0BC01CE01CE9624C0F0
:101DC000BC01CE01845B9F4F1FC0BC01CE01829637
:101DD0000E94AE0C1BC0FE01E756FF4F81E021338D
:101DE0000CF480E0808312C0BC01CE0188599F4F63
:101DF0000E94840D0BC0BC01CE018A589F4F04C0C5
:101E0000BC01CE01865A9F4F0E94600DF801C08030
:101E1000D180C957DF4FC114D10449F1D801ED91E8
:101E2000FC9166A177A1F60186A197A10E94D52514
:101E3000892BE9F4D60198962D913C919997F70159
:101E4000808190E08217930794F02817390721F4D6
:101E5000BE01C6010E94A40DD6019A96CD90DC90D9
:101E60009B97D9CF892B19F0D8011D921C928B2DED
:101E7000DF91CF911F910F91FF90EF90DF90CF9066
:101E8000BF900895DF92EF92FF920F931F93CF932D
:101E9000DF939C01FC01E256FF4F80819181A2817A
:101EA000B3810196A11DB11D80839183A283B38369
:101EB000C90188569F4F7C01E901CA57DF4F643240
:101EC00079F12CF46A3069F06D30C9F50AC06A32D4
:101ED00041F06C32A1F5F901EB57FF4F8081862765
:101EE0008083D62E8901F70180818F3050F4F9016B
:101EF000E80FF11DE957FF4F1082C9010E94A80D9C
:101F000001C080E0F801E956FF4F90819F5F908308
:101F1000F701108291E0FAE2DF1290E0988327C087
:101F2000FC011082F901E956FF4F1082729710826E
:101F3000719682E0808318823396108217C0F70171
:101F400080818E3048F491E0980F9083F901E80F7A
:101F5000F11DE957FF4F60838881811107C0F901A6
:101F6000EB57FF4F90816927608301C080E0DF91CC
:101F7000CF911F910F91FF90EF90DF900895AF9256
:101F8000BF92CF92DF92EF92FF920F931F93CF9366
:101F9000DF937B015A0169018C0106561F4FF8013E
:101FA000C081D1812097A9F06EA17FA1C5010E94B7
:101FB000D52597FD0EC0892B29F488A599A5C816AB
:101FC000D9063CF08E01065D1F4F0AA4DBA5C02D8B
:101FD000E9CFF701D3A7C2A7F801F182E082DF9130
:101FE000CF911F910F91FF90EF90DF90CF90BF9016
:101FF000AF900895CF93DF93FC01DB0110A211A2F3
:1020000012A213A214A215A257A346A331A720A778
:1020100090E1EF01892F19928A95E9F7BF01605F7E
:102020007F4FEB0119929A95E9F7BF01CD01DF913E
:10203000CF910C94BF0F0C94FA0F2FEF82E597E02D
:10204000215080409040E1F700C0000040E064E093
:1020500084E40E94B7082FEB8AED90E02150804085
:102060009040E1F700C0000041E064E084E40E9499
:10207000B7082FEB8AED90E0215080409040E1F7C7
:1020800000C0000040E064E084E40E94B7082FEB49
:102090008AED90E0215080409040E1F700C00000C0
:1020A0008EEE92E00C94B8260F931F93CF938C0181
:1020B00002551F4F8CED95E0A0E0B0E0F801808361
:1020C0009183A283B383C0E0F80180819181A281D2
:1020D000B381892B8A2B8B2B41F00E94CC01882362
:1020E00099F30E94B801CF5FEFCF8C2FCC0F990BE3
:1020F000CF911F910F9108950F931F93CF93DF936B
:102100008C01C6E0D0E0C8010E941D10C8010E94E9
:102110005410892B31F080E093E00E94B82681E0D2
:102120000BC088E093E00E94B826219761F787E111
:1021300093E00E94B82680E0DF91CF911F910F912C
:1021400008950F931F93CF93DF938C01C6E0D0E0E7
:10215000C8010E941D10C8010E945410892B31F43F
:102160008AE293E00E94B82681E00BC085E393E009
:102170000E94B826219761F785E493E00E94B82673
:1021800080E0DF91CF911F910F91089540E064E0CE
:1021900084E40C94B70841E064E084E40C94B7084C
:1021A0000E9499010E94B101789408951F93CF93E2
:1021B000DF93EC01162F0E94D01064E084E40E94AB
:1021C0006C0864E084E40E944808CC57DF4F188311
:1021D000DF91CF911F910895EF92FF920F931F937C
:1021E000CF93DF93EC018BE593E09F938F930E9455
:1021F0009B260F900F908881882309F1CE010E94C1
:10220000090C162F072FF82EE92ECE010E94DD0BA8
:10221000EF92FF920F931F939F938F937F936F93F0
:1022200086E693E09F938F930E949B268DB79EB77F
:102230000A960FB6F8949EBF0FBE8DBF04C081E70B
:1022400093E00E94B8268AE793E09F938F930E94C1
:102250009B260F900F908AA1882359F18E010E5D65
:102260001F4FC8010E94BB0CF82EE92EC8010E9426
:10227000CB0C1BA2EF92FF921F928F936CA17DA1BA
:102280008EA19FA120E137E240E050E00E94A4210E
:102290001F922F9386E893E09F938F930E949B2633
:1022A0008DB79EB708960FB6F8949EBF0FBE8DBF30
:1022B00004C089E993E00E94B82688A9882309F41C
:1022C00084C019AA6AA97BA98CA99DA920E432E43B
:1022D0004FE050E00E94A4212A3020F480E390E0F7
:1022E0000E94B12619AA6AA97BA98CA99DA920E4FC
:1022F00032E44FE050E00E94A4211F922F9383EA22
:1023000093E09F938F930E949B268E01005D1F4F49
:10231000C8010E94060D0F900F900F900F908A3009
:1023200020F480E390E00E94B126C8010E94060DCF
:102330001F928F9383EA93E09F938F930E949B2633
:10234000C8010E941C0D0F900F900F900F908A30C3
:1023500020F480E390E00E94B126C8010E941C0D89
:102360001F928F9386E691E09F938F930E949B2606
:1023700019AA6AA97BA98CA99DA924E630E040E0AE
:1023800050E00E94A4210F900F900F900F906A30A0
:1023900020F480E390E00E94B12619AA6AA97BA9E3
:1023A0008CA99DA924E630E040E050E00E94A421E1
:1023B0007F936F9384EB94E09F938F930E949B266F
:1023C0000F900F900F900F9004C081E793E00E9450
:1023D000B8268FEC92E0DF91CF911F910F91FF9083
:1023E000EF900C94B826BF92CF92DF92EF92FF92BB
:1023F0000F931F93CF93DF93EC018C0102551F4F76
:1024000080E69AEEA0E0B0E0F80180839183A28399
:10241000B3831F921F928AEE8F9380E68F9389EA8F
:1024200093E09F938F930E949B26CE010E94C6103B
:1024300018820F900F900F900F900F900F9080E6E2
:10244000C82E8AEED82EE12CF12CBB24B394F801CF
:1024500080819181A281B381892B8A2B8B2BB1F151
:102460000E94CC01882331F00E94B801682FCE0170
:102470000E94420FF80180819181A281B3818C1565
:102480009D05AE05BF0560F4BB2051F0CE010E9452
:10249000EC10F0EDCF1AF7E0DF0AE108F108B12CFB
:1024A000F80180819181A281B381C816D906EA061C
:1024B000FB0610F4BB24B3942881222341F2BF937E
:1024C000AF939F938F9382EC93E006C01F921F926D
:1024D0001F921F928EEE93E09F938F930E949B26F4
:1024E000CE010E94CB100F900F900F900F900F9085
:1024F0000F9080E0DF91CF911F910F91FF90EF90AF
:10250000DF90CF90BF900895FC01E255FF4F4081CE
:10251000518162817381411551056105710541F059
:10252000415051096109710940835183628373836A
:102530000895CF93DF93EB01FC01EA58FF4F11821E
:1025400066817781808591850E94D2239F938F93A6
:102550007F936F938DE194E09F938F93DF93CF935D
:102560000E94E8262DB73EB7285F3F4F0FB6F8947C
:102570003EBF0FBE2DBF8C0F9D1FDF91CF910895E1
:102580006AE00E94702120E1829F900D1124892F22
:102590000895982F92959F708F702AE0929F800DDA
:1025A00011240895CF93C82F88E60E944F1A8C2FCC
:1025B0000E94691A0E94591A61E088E60E94421A34
:1025C000CF910C94BC1ACF93DF93C82FD62F88E6F7
:1025D0000E944F1A8D2F0E94691A8C2F0E94691A2F
:1025E000DF91CF910C94591ACF93DF9381E10E9430
:1025F000D212D82F82E10E94D212C82F61E18EEE52
:102600000E94E31262E18DED0E94E31281E10E94DB
:10261000D2128E3E29F482E10E94D2128D3D31F019
:1026200081E080930307DF91CF91089581E080934B
:10263000040761E18D2F0E94E31262E18C2FDF918C
:10264000CF910C94E31262E084E40E94210862E0DE
:1026500084E40E946C08E9E6F0E080818260808377
:10266000E89A78940895809104070895809103076B
:10267000089581E080930407109203070895109253
:10268000040781E0809303070895EF92FF920F9370
:102690001F93CF93DF93CDB7DEB729970FB6F8948A
:1026A000DEBF0FBECDBF88E60E944F1A80E00E94B9
:1026B000691A0E94591A67E088E60E94421A8E0140
:1026C0000F5F1F4F7E0188E0E80EF11C0E94BC1ACC
:1026D000F80181938F01EE15FF05C1F70E94591A89
:1026E00089818F770E94C91290E09093F3068093BE
:1026F000F2068A810E94C91290E09093F5068093B9
:10270000F4068B810E94C912082F10E01093F7067F
:102710000093F6068D810E94C91290E09093F9060D
:102720008093F806FE808F2D8F710E94C91290E071
:102730009093FB068093FA068F81F7FE06C00E94F5
:10274000C91290E08053984F05C00E94C91290E0D2
:102750008459984F9093FD068093FC068C810E94CB
:10276000C91290E09093FF068093FE0601151105B3
:1027700029F4109202071092010707C00C301105CE
:1027800044F4109302070093010781E0809300074F
:1027900008C00C5011091093020700930107109212
:1027A000000782EF96E029960FB6F894DEBF0FBEC1
:1027B000CDBFDF91CF911F910F91FF90EF900895C2
:1027C0008F929F92AF92BF92CF92DF92EF92FF9241
:1027D0000F931F93CF93DF93CDB7DEB729970FB633
:1027E000F894DEBF0FBECDBF7C016B015A0188E6B5
:1027F0000E944F1A80E00E94691A0E94591A67E0ED
:1028000088E60E94421A8E010F5F1F4F4E0188E03A
:10281000880E911C0E94BC1AF80181938F01E81563
:10282000F905C1F70E94591AA114B10429F0898150
:102830000E94C912F5018083C114D10429F08A8154
:102840000E94C912F6018083E114F10429F08B8102
:102850000E94C912F701808329960FB6F894DEBF53
:102860000FBECDBFDF91CF911F910F91FF90EF90E1
:10287000DF90CF90BF90AF909F908F9008951F935F
:10288000CF93DF93EC0188E60E944F1A80E00E940C
:10289000691A8A859B85813D27E0920734F0805D27
:1028A00097409B878A8710E805C08C5697409B8786
:1028B0008A8710E088810E94C0120E94691A8A816A
:1028C0000E94C0120E94691A8C810E94C0120E944C
:1028D000691A8C850E94C0120E94691A8E810E941A
:1028E000C0120E94691A88850E94C012810F0E943E
:1028F000691A8A850E94C0120E94691ADF91CF91DD
:102900001F910C94591A1F93CF93DF93C82FD62F82
:10291000142F88E60E944F1A80E00E94691A812FC6
:102920000E94C0120E94691A8D2F0E94C0120E943C
:10293000691A8C2F0E94C0120E94691ADF91CF91F0
:102940001F910C94591ACF939091030791110DC0C8
:10295000C82F80E00E94D212CC2311F08F7701C0E3
:10296000806860E0CF910C94E312CF91089580913C
:102970000307811106C00E94D2128095881F882704
:10298000881F0895FF920F931F93CF93DF93FC014D
:102990001082FB01108220910407211122C0EB015B
:1029A0008C0188E60E944F1A81E10E94691A0E94F8
:1029B000591A62E088E60E94421A0E94B61A8823D9
:1029C00081F00E94BC1AF82E0E94BC1AF801F08215
:1029D000829586958695837099E1899F802D112433
:1029E0008883DF91CF911F910F91FF900895CF932E
:1029F000DF939091040791112EC0C82F88E60E94A2
:102A00004F1A8EE00E94691A0E94591A61E088E606
:102A10000E94421A0E94BC1AD82F88E60E944F1AC0
:102A20008EE00E94691A8D2F80620E94691A0E94AE
:102A3000591ACC2381F088E60E944F1A8EE00E943A
:102A4000691A0E94591A61E088E60E94421A0E949F
:102A5000BC1A85FDF0CFDF91CF910895CF93C82F99
:102A600088E60E944F1A88E08C0F0E94691A0E9423
:102A7000591A61E088E60E94421ACF910C94BC1A60
:102A80000F931F93CF938C01C0E08C2F0E942E15C3
:102A9000F80181938F01CF5FC833B9F7CF911F91B0
:102AA0000F910895CF93DF93C82FD62F88E60E9409
:102AB0004F1A88E08D0F0E94691A8C2F0E94691AA4
:102AC000DF91CF910C94591A0F931F93CF938C01E0
:102AD000C0E06C2FF80181918F010E945215CF5FE9
:102AE000C833B9F7CF911F910F910895CF93C82F95
:102AF000809104078823D1F088E60E944F1A87E06E
:102B00000E94691A0E94591A61E088E60E94421ADE
:102B10000E94BC1ACC2319F0C82FC06102C0C82F74
:102B2000CF7E88E60E944F1A87E01AC088E60E948E
:102B30004F1A8EE00E94691A0E94591A61E088E6D5
:102B40000E94421A0E94BC1ACC2321F0C82FCB7FCE
:102B5000C06402C0C82FCF7B88E60E944F1A8EE067
:102B60000E94691A8C2F0E94691ACF910C94591AED
:102B7000CF93DF93EC01809104078823A9F088E6C6
:102B80000E944F1A87E00E94691A0E94591A61E058
:102B900088E60E94421A0E94BC1A8C7FC82B88E6E5
:102BA0000E944F1A87E019C088E60E944F1A8EE0F3
:102BB0000E94691A0E94591A61E088E60E94421A2E
:102BC0000E94BC1A94E0CC0FDD1F9A95E1F7877E36
:102BD000C82B88E60E944F1A8EE00E94691A8C2F3B
:102BE0000E94691ADF91CF910C94591ACF9390915A
:102BF0000307992311F1C82F88E60E944F1A8FE02E
:102C00000E94691A0E94591A61E088E60E94421ADD
:102C10000E94BC1ACC2319F0C82FC86002C0C82F6C
:102C2000C77F88E60E944F1A8FE00E94691A8C2F96
:102C30000E94691ACF910C94591ACF9108958091EE
:102C40000407882361F060E080E00E94521561E093
:102C500080E00E94521562E080E00C94521567E01B
:102C600080E00E94E31268E080E00E94E31269E0E5
:102C700080E00E94E3126AE080E00C94E3121F936C
:102C8000CF93DF93883108F057C06C3308F054C0FD
:102C90004C3308F051C0142FD62FC82F8091040751
:102CA000882379F060E08C2F0E94521561E08D2F0F
:102CB0000E94521562E0812FDF91CF911F910C94F9
:102CC0005215842F0E94C01267E00E94E3128D2FDC
:102CD0000E94C01268E00E94E3128C2F0E94C01272
:102CE00069E00E94E3126AE081E80E94E3128FE04B
:102CF0000E94D2126FE08E7F0E94E31288E60E944B
:102D00004F1A8EE00E94691A0E94591A61E088E603
:102D10000E94421A0E94BC1AC82F88E60E944F1ACD
:102D20008EE00E94691A8C2F81600E94691ADF91DF
:102D3000CF911F910C94591ADF91CF911F91089553
:102D4000FC01892B29F04081628184810C943F161B
:102D50000895EF92FF920F931F93CF93DF93EC01AF
:102D60008B017A01809104078823B9F0209721F024
:102D700080E00E942E1588830115110529F081E05D
:102D80000E942E15F8018083E114F104E9F082E03D
:102D90000E942E15F701808317C087E00E94D2128F
:102DA0008F770E94C912F701808388E00E94D212B7
:102DB0008F770E94C912F801808389E00E94D212A5
:102DC0008F770E94C9128883DF91CF911F910F9155
:102DD000FF90EF900895CF93DF9300D01F92CDB76F
:102DE000DEB7AE014F5F5F4FBE016E5F7F4FCE011A
:102DF00003960E94A916E2EFF6E08B8190E095839E
:102E000084838A8190E093838283898190E0918397
:102E10008083CF010F900F900F90DF91CF91089595
:102E2000FF920F931F93CF93DF9300D01F92CDB7E4
:102E3000DEB780910407882311F180E00E942E15EF
:102E4000F82E81E00E942E15082F82E00E942E1598
:102E5000182FAE014F5F5F4FBE016E5F7F4FCE01F7
:102E600003960E94E0138B81F81207C08A81081331
:102E700004C081E09981911771F080E00CC08FE06F
:102E80000E94D212182F117080FF04C06FE08E7F55
:102E90000E94E312812F0F900F900F90DF91CF913E
:102EA0001F910F91FF900895CF93DF93FC01DB01F9
:102EB00086A197A127A930AD14964D915C911597E5
:102EC000821793076CF028173907F4F082179307DD
:102ED00039F4C4A1D5A165A976A96C177D07A4F022
:102EE000481759071CF0421753079CF02417350761
:102EF00091F481E012964D915C91139725A936A922
:102F0000421753074CF007C04817590764F357FF9F
:102F1000EDCF81E001C080E0DF91CF9108950F9364
:102F20001F93CF93DF93FC01EB01DC01A85BBF4F44
:102F30002C813D818D919C91820F931F68E170E0FF
:102F40000E9490219C0195838483DF01AA5BBF4F7F
:102F50000D911C918A819B81800F911F6CE370E021
:102F60000E949021938382834A815B81400F511F8D
:102F70004D3351059CF001968C33910519F09383E4
:102F800082830CC0138212822F5F3F4F283131059C
:102F900019F03583248302C015821482DF91CF910A
:102FA0001F910F910895CF93DF93EC01BC016F5EE9
:102FB0007F4F0E948F17BE01CE010E94541740E040
:102FC000882379F06A818C810E943F168B818F93D0
:102FD0008A818F938D818F938C818F9384E494E089
:102FE0000EC06CA18EA10E943F168DA18F938CA163
:102FF0008F938FA18F938EA18F938EE794E09F93F1
:103000008F930E949B260F900F900F900F900F9020
:103010000F90DF91CF91089510927007449A459ACE
:10302000E9EBF0E080818E7F808380818D7F8083DB
:103030008CE08093B80085E48093BC007894089578
:10304000880F8093BA000895413258F59091700727
:103050009111FCCF91E0909370079FEF909305073B
:1030600010924A07940F90934907880F81608093CC
:103070006F0785EE8093BC00809170078130E1F38B
:1030800080914A07841710F440914A07ABE4B7E0F7
:10309000962FFB018E2F891B841728F48D91819325
:1030A000F9CF80E00895842F0895413248F590913A
:1030B00070079111FCCF32E0309370073FEF3093EF
:1030C000050710924A0740934907562FABE4B7E033
:1030D000FB013E2F351B341718F431913D93F9CF86
:1030E000482F50E0440F551F40936F0785EE8093A3
:1030F000BC00222339F080917007823019F4F9CF97
:1031000091E011C0809105078F3F69F0809105071C
:10311000803231F080910507803321F094E003C0C4
:1031200092E001C093E0892F0895613288F42091E4
:103130007007243079F460932707282FA9E2B7E0BD
:10314000FC018E2F821B861738F481918D93F9CF65
:1031500081E0089582E0089580E0089590936C07DF
:1031600080936B07089590936E0780936D07089581
:10317000882311F085EC01C085E88093BC00089598
:1031800085ED8093BC008091BC0084FDFCCF109243
:103190007007089585EC8093BC0010927007089525
:1031A0001F920F920FB60F9211242F933F934F93BC
:1031B0005F936F937F938F939F93AF93BF93EF939F
:1031C000FF938091B900887F803609F495C068F537
:1031D000883209F45BC090F4803109F454C038F4AB
:1031E000882309F4EEC0883009F44DC0EEC0883160
:1031F00009F44CC0803209F45EC0E7C0803409F4A1
:1032000069C048F4803309F456C0883309F0DDC042
:1032100080930507A1C0803509F450C0883509F4B2
:103220005EC0883409F0D1C0CEC0883909F4BFC06F
:10323000A8F4883709F460C038F4883609F45CC013
:10324000803709F459C0C1C0883809F4B0C080394A
:1032500009F458C0803809F0B8C054C0803B09F464
:103260007EC038F4803A09F45FC0883A09F477C028
:10327000ACC0803C09F49FC0883C09F49CC0883BEA
:1032800009F482C0A2C080916F0711C090914A07D3
:1032900080914907981708F096C0E0914A0781E0AD
:1032A0008E0F80934A07F0E0E55BF84F80818093B2
:1032B000BB0085EC7DC08093050785C0E0914A077F
:1032C00081E08E0F80934A078091BB00F0E0E55BC0
:1032D000F84F808390914A078091490765C0E0913B
:1032E0004A0781E08E0F80934A078091BB00F0E08F
:1032F000E55BF84F808367C083E08093700710928E
:103300000607D7CF80910607803208F050C0E091C1
:10331000060781E08E0F809306078091BB00F0E0E6
:10332000E95FF84F8083C5CF80910607803230F483
:10333000E0910607F0E0E95FF84F10820E94C018A4
:103340006091060770E0E0916B07F0916C0787E0F1
:1033500097E00995109206070E94CA1836C084E0CB
:10336000809370071092280710922707E0916D074D
:10337000F0916E07099580912707811105C081E0C2
:103380008093270710922907E091280781E08E0F8C
:1033900080932807F0E0E75DF84F80818093BB00C1
:1033A0009091280780912707981708F482CF85E825
:1033B0008093BC000AC085EC8093BC00109270071B
:1033C00004C0109205070E94C018FF91EF91BF91B1
:1033D000AF919F918F917F916F915F914F913F91AD
:1033E0002F910F900FBE0F901F901895CF93DF93E2
:1033F000EC01E0917107F09172073097F1F0909134
:103400009A07809199079817C0F090E0292F30E033
:103410002617370754F4DE01A20FB31F4C91D901D0
:10342000A556B84F4C939F5FF1CF10929A076093C7
:103430009907CB01DF91CF910994DF91CF91089546
:10344000E0917307F0917407309729F01092770795
:10345000109276070994089510929A07109299078E
:1034600010927707109276070C940C180E9420187F
:1034700080E29AE10E94B31886EF99E10E94AE18AB
:103480000C942C1A462F613208F040E26BE977E089
:103490000E94241810929A0780939907089591E04A
:1034A000909375078093980710927707109276078C
:1034B000089521E04091760768E777E080919807CA
:1034C0000E94551810927707109276071092750790
:1034D0000895CF93DF931F92CDB7DEB78983809194
:1034E0007507882391F080917607803298F4809157
:1034F0007707E82FF0E0E858F84F998190838F5FC5
:10350000809377078093760705C061E0CE0101962E
:103510000E9495180F90DF91CF9108950F931F93FC
:10352000CF93DF9320917507222359F0EC018C0192
:10353000060F111DC017D10751F089910E94691A19
:10354000F9CFDF91CF911F910F910C949518DF91D6
:10355000CF911F910F910895FC0101900020E9F790
:103560003197BF01681B790B0C948E1A80919907D3
:1035700090919A07891B089590919A0780919907D5
:10358000981748F4E92FF0E0E556F84F80819F5FE7
:1035900090939A07089580E008959093720780931E
:1035A00071070895909374078093730708950895A1
:1035B000CF93DF93CDB7DEB761970FB6F894DEBF38
:1035C0000FBECDBFFC0181E090E0978B868B848994
:1035D0009589419709F040C081818235C9F5848180
:1035E000082E000C990BC0979E838D838781082E2F
:1035F000000C990BC0979C838B838285082E000C4E
:10360000990BC0979A8389838585082E000C990BA6
:10361000C09798878F838089082E000C990BC097DC
:103620009A87898783E190E0978B868B8389082E20
:10363000000C990BC0979C878B87CE0101960E9446
:103640003F1481E08093580589EB94E00E94B826EE
:1036500082ED94E00E94B82661960FB6F894DEBF22
:103660000FBECDBFDF91CF910895FC01248935892C
:103670002331310534F42F5F3F4F358B248B80E0AD
:10368000089581E00895DC015496ED91FC915597E1
:10369000E80FF91F60830C94351BFC01158A148A0E
:1036A0000C94431BFC0126893789620F731F643118
:1036B000710524F4778B668B80E0089581E008958E
:1036C000CF93DF9381E280937C0086E880937A0039
:1036D0008FEC97E00197F1F700C0000080917A002D
:1036E000806480937A0080917A0086FDFCCF8FEC15
:1036F00097E00197F1F700C0000080917A008064A4
:1037000080937A0080917A0086FDFCCFC09178008A
:1037100080917900D0E0D82BCE011F921F929F9309
:103720008F9387EE94E09F938F930E949B268091C6
:103730007A008F7780937A0080E09CE2BE010E943D
:103740007C21862F6AE00E947021682F70E080E063
:1037500090E00E94D2230F900F900F900F900F9047
:103760000F90DF91CF910895AF92BF92CF92DF92E9
:10377000EF92FF920F931F93CF93DF93D42EC52E1A
:10378000B62EA72EE9012BE7FC0120837C01F2E095
:10379000EF0EF11C23E4FC0121831F9282E08F9342
:1037A00086E691E09F938F93FF92EF920E94E82626
:1037B0008C010F5F1F4F0E0D1F1DF701E80FF91F42
:1037C0008CE2F82EF08289818F9388818F938B8190
:1037D0008F938A818F938D818F938C818F9380E6D5
:1037E00091E09F938F931F930F930E94E826EC0123
:1037F0002196C00FD11FF801E80FF91FF082AF9298
:10380000BF92CF92DF9282EF94E09F938F93DF93EA
:10381000CF930E94E826C80FD91F8DE788831982AD
:103820008DB79EB748960FB6F8949EBF0FBE8DBF5A
:10383000DF91CF911F910F91FF90EF90DF90CF908C
:10384000BF90AF90089567E084E40E94480867E065
:1038500084E40E946C082FEF83ED90E321508040B8
:103860009040E1F700C0000067E084E40C94900809
:10387000EBEBF7E083E190E09583848383E090E0D5
:1038800093838283118210828BE190E097838683F9
:103890008CE090E09187808785E190E09387828734
:1038A0000895FC01208531858091C3079091C4075C
:1038B000821793070CF446C0281739070CF440C050
:1038C00028173907E1F5268137818091C10790914A
:1038D000C20782179307B4F1281739078CF128170C
:1038E000390769F5248135818091BF079091C00720
:1038F000821793073CF12817390714F12817390765
:10390000F1F4228133818091BD079091BE07821727
:103910009307C4F0281739079CF02817390779F462
:10392000208131818091BB079091BC07821793075A
:103930004CF02817390724F02817390719F0089593
:1039400080E0089581E00895CF92DF92EF92FF9298
:103950000F931F93CF93DF93CDB7DEB764970FB666
:10396000F894DEBF0FBECDBF0E94601B6B017C01CF
:103970000E94381C0E9445138C010E94511C882310
:1039800019F187EF94E00E94B8260E94231C980149
:10399000B701A6018E010F5F1F4FC8010E94B41B23
:1039A000F82E1F930F9385E195E09F938F930E94CC
:1039B0009B266F2DC8010E9482040F900F900F90DC
:1039C0000F900E94BA09FDCF64960FB6F894DEBF3F
:1039D0000FBECDBFDF91CF911F910F91FF90EF9060
:1039E000DF90CF900895A0E1B0E0E9EFFCE10C9406
:1039F0003E227C011B016A01FC0117821682838131
:103A000081FF44C39E012F5F3F4F3901F70193812E
:103A1000F10193FD859193FF81911F01882309F4A2
:103A200031C3853239F493FD859193FF81911F0154
:103A3000853239F4B70190E00E945F265601650196
:103A4000E5CF10E0512C912CFFE1F915D8F08B3225
:103A500079F038F4803279F08332A1F4F92DF061F5
:103A60002EC08D3261F0803369F4292D21602DC084
:103A7000392D3260932E892D8460982E2AC0E92D2D
:103A8000E86015C097FC2DC020ED280F2A3088F47F
:103A900096FE06C03AE0139F200D1124122F19C084
:103AA0008AE0589E200D1124522EE92DE0629E2EB0
:103AB00010C08E3231F496FCE5C2F92DF0649F2ED1
:103AC00008C08C3621F4292D2068922E02C0883639
:103AD00041F4F10193FD859193FF81911F018111C3
:103AE000B3CF9BEB980F933020F4992D9061805EBB
:103AF00007C09BE9980F933008F066C1992D9F7E0F
:103B000096FF16E09F73992E853619F49064992ECE
:103B100008C0863621F4392F3068932E02C0111167
:103B2000115097FE07C01C3350F444244394410EB7
:103B300027E00BC0183038F027E017E005C027E079
:103B40009CE3492E02C0212F412C560184E0A80E8F
:103B5000B11CF6016081718182819381042DA301E2
:103B60000E94F2246C01F981FC87F0FF02C0F3FF90
:103B700006C091FC06C092FE06C000E205C00DE240
:103B800003C00BE201C000E08C858C7019F00111BC
:103B90005AC29BC297FE10C04C0CFC85F4FF04C0B7
:103BA0008A81813309F44A94141474F528E02415A9
:103BB00078F588E0482E2CC096FC2AC0812F90E032
:103BC0008C159D059CF03CEFC3163FEFD30674F0B7
:103BD000892D8068982E0AC0E2E0F0E0EC0FFD1F0E
:103BE000E10FF11D8081803319F411501111F4CFD0
:103BF00097FE0EC044244394410E812F90E0C816D6
:103C0000D9062CF41C1904C04424439401C010E0CC
:103C100097FE06C01C141D0434F4C601019605C0AD
:103C200085E090E002C081E090E00111019611234F
:103C300031F0212F30E02F5F3F4F820F931F252D52
:103C400030E08217930714F4581A01C0512C892DC3
:103C5000897049F4552039F0B70180E290E00E9464
:103C60005F265A94F7CF002329F0B701802F90E008
:103C70000E945F2693FC09C0552039F0B70180E30C
:103C800090E00E945F265A94F7CF97FE4CC0460101
:103C9000D7FE02C0812C912CC60188199909F30125
:103CA000E80FF91FFE87ED87960124193109388B3B
:103CB0002F87012F10E01195019511093FEF831611
:103CC000930629F4B7018EE290E00E945F26C814A3
:103CD000D9044CF08F8598898815990524F4ED85D1
:103CE000FE85818101C080E3F1E08F1A91082D8566
:103CF0003E852F5F3F4F3E872D87801691062CF023
:103D0000B70190E00E945F26D9CFC814D90441F4CE
:103D10009A81963320F4953319F43C8534FF81E37E
:103D2000B70190E04EC08A81813319F09C859F7E57
:103D30009C87B70190E00E945F26111105C094FC9A
:103D400018C085E690E017C0B7018EE290E00E94AF
:103D50005F261E5F82E001E0080FF301E80FF11D0E
:103D60008081B70190E00E945F26802F0113F3CF7E
:103D7000E6CF85E490E0B7010E945F26D7FC06C03D
:103D8000C114D10441F4EC85E4FF05C0D194C19481
:103D9000D1088DE201C08BE2B70190E00E945F265E
:103DA00080E32AE0C216D1042CF08F5FFAE0CF1A2C
:103DB000D108F7CFB70190E00E945F26B701C60196
:103DC000C0960E945F2654C1833631F0833779F064
:103DD000833509F056C020C0560132E0A30EB11C55
:103DE000F6018081898301E010E0630112C0560171
:103DF000F2E0AF0EB11CF601C080D18096FE03C088
:103E0000612F70E002C06FEF7FEFC6010E94F425C2
:103E10008C01F92DFF7714C0560122E0A20EB11CCF
:103E2000F601C080D18096FE03C0612F70E002C011
:103E30006FEF7FEFC6010E94CA258C01F92DF06853
:103E40009F2EF3FD1AC0852D90E008171907A8F4DE
:103E5000B70180E290E00E945F265A94F4CFF60109
:103E600097FC859197FE81916F01B70190E00E94C8
:103E70005F2651105A94015011090115110579F767
:103E8000F7C0843611F0893661F5560197FE09C0F6
:103E900024E0A20EB11CF6016081718182819381C0
:103EA0000AC0F2E0AF0EB11CF60160817181072EED
:103EB000000C880B990BF92DFF769F2E97FF09C0F8
:103EC00090958095709561957F4F8F4F9F4FF068CB
:103ED0009F2E2AE030E0A3010E940A27C82EC618B0
:103EE0003FC0092D853721F40F7E2AE030E01DC048
:103EF000097F8F3691F018F4883559F0C3C08037A8
:103F000019F0883711F0BEC0006104FF09C00460D9
:103F100007C094FE08C0066006C028E030E005C077
:103F200020E130E002C020E132E0560107FF09C085
:103F300084E0A80EB11CF6016081718182819381B9
:103F400008C0F2E0AF0EB11CF6016081718180E023
:103F500090E0A3010E940A27C82EC6180F77902E62
:103F600096FE0BC0092D0E7FC11650F494FE0AC0B8
:103F700092FC08C0092D0E7E05C0DC2C092D03C063
:103F8000DC2C01C0D12E04FF0DC0FE01EC0DF11D93
:103F90008081803311F4097E09C002FF06C0D394EA
:103FA000D39404C0802F867809F0D39403FD11C008
:103FB00000FF06C01C2DD51480F4150D1D190DC071
:103FC000D51458F4B70180E290E00E945F26D394A4
:103FD000F7CFD51410F45D1801C0512C04FF10C0A8
:103FE000B70180E390E00E945F2602FF17C001FD49
:103FF00003C088E790E002C088E590E0B7010CC0FC
:10400000802F867859F001FF02C08BE201C080E268
:1040100007FD8DE2B70190E00E945F26C11638F4DB
:10402000B70180E390E00E945F261150F7CFCA9459
:10403000F301EC0DF11D8081B70190E00E945F2635
:10404000C110F5CF15C0F4E0F51560F584E0581AFD
:1040500093FE1FC0011127C02C8523FF2AC00AEB45
:1040600010E0392D3071932EF8018491811124C014
:10407000552009F4E4CCB70180E290E00E945F266D
:104080005A94F6CFF7018681978126C08FEF9FEF74
:1040900023C0B70180E290E00E945F265A9451103D
:1040A000F8CFD8CF512CB701802F90E00E945F2627
:1040B000D3CF0EEB10E0D5CF91108052B70190E036
:1040C0000E945F260F5F1F4FCFCF23E0251510F40E
:1040D00083E0BDCF512CC0CF6096E2E10C945A2210
:1040E0000E94780986EB91E00E94B8260E942C1A63
:1040F0000E94F41261E089E595E00E94D61085EDFA
:1041000091E00E94B8260E9467070DEE11E0EE24B0
:10411000E394CDE8D2E00E94F1080E942C1A0E949C
:10412000231346E656E068E676E08AE696E00E94CB
:10413000E013809167068F93809166068F9380913C
:1041400069068F93809168068F9380916B068F9399
:1041500080916A068F931F930F930E949B268DB7C1
:104160009EB708960FB6F8949EBF0FBE8DBF809184
:104170006A0690916B06892B71F480916806909184
:104180006906892B41F48091660690916706892B18
:1041900011F41092580580915805811106C08FE0E6
:1041A00092E00E94B8260E94EC0789E595E00E9403
:1041B000F311682F83E296E00E944306F82E89E50A
:1041C00095E00E94EC1080915805811120C083E495
:1041D00092E00E94B826809159058823C1F083E7B8
:1041E00092E00E94B82689E895E00E941C0DC82E36
:1041F00089E895E00E94060DD82E89E895E00E9496
:10420000F80C4C2D6D2D0E948314E09258056F2DF3
:1042100083E296E00E9482040E94A41C85E596E059
:104220000E94D31746E656E068E676E08AE696E016
:104230000E94E013809167068F93809166068F93AA
:10424000809169068F93809168068F9380916B06A9
:104250008F9380916A068F93DF93CF930E949B2662
:104260000E94070984EB92E00E94B8260E94BA09D6
:104270008DB79EB708960FB6F8949EBF0FBE8DBF40
:104280004ACFEEEAF6E014AA13AA16AA15AA81E00C
:1042900087AB10AE11AE12AE13AE10922206109282
:1042A000210689E595E00C94060A60E070E083E958
:1042B00099E00E9414269093F1068093F0060895E9
:1042C000DB018F939F930E94CC21BF91AF91A29F5E
:1042D000800D911DA39F900DB29F900D1124089504
:1042E000991B79E004C0991F961708F0961B881F48
:1042F0007A95C9F780950895AA1BBB1B51E107C0A9
:10430000AA1FBB1FA617B70710F0A61BB70B881F65
:10431000991F5A95A9F780959095BC01CD010895F4
:1043200097FB072E16F4009407D077FD09D00E9462
:104330007C2107FC05D03EF4909581959F4F089510
:10434000709561957F4F0895A1E21A2EAA1BBB1BA1
:10435000FD010DC0AA1FBB1FEE1FFF1FA217B30751
:10436000E407F50720F0A21BB30BE40BF50B661F67
:10437000771F881F991F1A9469F76095709580952B
:1043800090959B01AC01BD01CF010895EE0FFF1F79
:104390000590F491E02D09940E94AC22A59F900D08
:1043A000B49F900DA49F800D911D11240895B7FF17
:1043B0000C94CC210E94CC21821B930B089568940D
:1043C00001C0E8948F929F92CF93DF930E94ED21DA
:1043D000DF91CF919F908F90089588249924F401C4
:1043E000E401B0E49F93AA279A158B049C04ED0581
:1043F000FE05CF05D007A10798F4AD2FDC2FCF2FF6
:10440000FE2FE92D982C892E982F872F762F652F38
:10441000542F432F322F2227B85031F7BF9127C096
:104420001B2EBF91BB27220F331F441F551F661F32
:10443000771F881F991F881C991CEE1FFF1FCC1F18
:10444000DD1FAA1FBB1F8A149B04EC05FD05CE05CA
:10445000DF05A007B10748F08A189B08EC09FD09A1
:10446000CE09DF09A00BB10B21601A94E1F62EF4FE
:104470009401AF01BE01CD01000C08952F923F922F
:104480004F925F926F927F928F929F92AF92BF9264
:10449000CF92DF92EF92FF920F931F93CF93DF9310
:1044A000CDB7DEB7CA1BDB0B0FB6F894DEBF0FBE6D
:1044B000CDBF09942A88398848885F846E847D84BA
:1044C0008C849B84AA84B984C884DF80EE80FD80BC
:1044D0000C811B81AA81B981CE0FD11D0FB6F89432
:1044E000DEBF0FBECDBFED0108950F93083090F0F1
:1044F000982F872F762F652F542F432F322F222767
:104500000850F4CF220F331F441F551F661F771F1B
:10451000881F991F0A95B2F70F91089597FB10F81D
:10452000169400080F93083098F00850232F342F6A
:10453000452F562F672F782F892F902DF4CF059474
:1045400097958795779567955795479537952795CB
:104550000A95AAF70F910895A29FB001B39FC001D9
:10456000A39F700D811D1124911DB29F700D811D9F
:104570001124911D08955058BB27AA270E94D322C9
:104580000C9424240E94162438F00E941D2420F04C
:1045900039F49F3F19F426F40C9413240EF4E0959B
:1045A000E7FB0C940D24E92F0E94352458F3BA1729
:1045B000620773078407950720F079F4A6F50C9439
:1045C00057240EF4E0950B2EBA2FA02D0B01B90144
:1045D00090010C01CA01A0011124FF27591B99F079
:1045E000593F50F4503E68F11A16F040A22F232F85
:1045F000342F4427585FF3CF469537952795A795D5
:10460000F0405395C9F77EF41F16BA0B620B730B7B
:10461000840BBAF09150A1F0FF0FBB1F661F771FEC
:10462000881FC2F70EC0BA0F621F731F841F48F4A1
:10463000879577956795B795F7959E3F08F0B0CF2A
:104640009395880F08F09927EE0F97958795089511
:104650000E943C230C9424240E941D2458F00E94A4
:10466000162440F029F45F3F29F00C940D245111D9
:104670000C9458240C9413240E94352468F3992335
:10468000B1F3552391F3951B550BBB27AA2762174E
:104690007307840738F09F5F5F4F220F331F441F5B
:1046A000AA1FA9F335D00E2E3AF0E0E832D091508F
:1046B0005040E695001CCAF72BD0FE2F29D0660F7C
:1046C000771F881FBB1F261737074807AB07B0E8BF
:1046D00009F0BB0B802DBF01FF2793585F4F3AF0C5
:1046E0009E3F510578F00C940D240C9458245F3FA4
:1046F000E4F3983ED4F3869577956795B795F7954B
:104700009F5FC9F7880F911D9695879597F9089532
:10471000E1E0660F771F881FBB1F621773078407CE
:10472000BA0720F0621B730B840BBA0BEE1F88F7DD
:10473000E09508950E94A1236894B1110C94582427
:1047400008950E943D2488F09F5798F0B92F99272B
:10475000B751B0F0E1F0660F771F881F991F1AF06C
:10476000BA95C9F714C0B13091F00E945724B1E056
:1047700008950C945724672F782F8827B85F39F055
:10478000B93FCCF3869577956795B395D9F73EF405
:1047900090958095709561957F4F8F4F9F4F0895AD
:1047A000E89409C097FB3EF49095809570956195CB
:1047B0007F4F8F4F9F4F9923A9F0F92F96E9BB2781
:1047C0009395F695879577956795B795F111F8CFFD
:1047D000FAF4BB0F11F460FF1BC06F5F7F4F8F4F68
:1047E0009F4F16C0882311F096E911C0772321F05E
:1047F0009EE8872F762F05C0662371F096E8862FF6
:1048000070E060E02AF09A95660F771F881FDAF74C
:10481000880F9695879597F9089597F99F6780E88F
:1048200070E060E008959FEF80EC089500240A9402
:104830001616170618060906089500240A9412167B
:104840001306140605060895092E0394000C11F4AE
:10485000882352F0BB0F40F4BF2B11F460FF04C05B
:104860006F5F7F4F8F4F9F4F089557FD9058440FB4
:10487000551F59F05F3F71F04795880F97FB991FBF
:1048800061F09F3F79F0879508951216130614067C
:10489000551FF2CF4695F1DF08C016161706180609
:1048A000991FF1CF86957105610508940895E894E4
:1048B000BB2766277727CB0197F908950E947124BB
:1048C0000C9424240E94162438F00E941D2420F009
:1048D000952311F00C940D240C94132411240C94A2
:1048E00058240E94352470F3959FC1F3950F50E032
:1048F000551F629FF001729FBB27F00DB11D639F92
:10490000AA27F00DB11DAA1F649F6627B00DA11D37
:10491000661F829F2227B00DA11D621F739FB00DDD
:10492000A11D621F839FA00D611D221F749F33274D
:10493000A00D611D231F849F600D211D822F762FE6
:104940006A2F11249F5750409AF0F1F088234AF0C3
:10495000EE0FFF1FBB1F661F771F881F915050402F
:10496000A9F79E3F510580F00C940D240C94582417
:104970005F3FE4F3983ED4F3869577956795B795B6
:10498000F795E7959F5FC1F7FE2B880F911D9695D0
:10499000879597F908951F93FC0199278827BC01F3
:1049A000E89411911032E9F3193010F01E30C8F379
:1049B0001B3251F01D3249F4689406C00E94FF2555
:1049C000610F711D811D911D119110531A30B0F3AB
:1049D0003EF490958095709561957F4F8F4F9F4FD6
:1049E0001F910895283008F027E03327DA01990F46
:1049F000311D87FD916000966105710539F43260C3
:104A00002E5F3D9330E32A95E1F708959F3F30F004
:104A100080387105610509F03C5F3C5F3D93913042
:104A200008F08068911DDF93CF931F930F93FF923F
:104A3000EF92192F987F9695E92F96959695E90F05
:104A4000FF27E45EFE4F99273327EE24FF24A701BA
:104A5000E70105900894079428F4360FE71EF81E26
:104A6000491F511D660F771F881F991F0694A1F7D4
:104A70000590079428F4E70EF81E491F561FC11D24
:104A8000770F881F991F661F0694A1F7059007945A
:104A900028F4F80E491F561FC71FD11D880F991FF4
:104AA000661F771F0694A1F70590079420F4490F1D
:104AB000561FC71FD81F990F661F771F881F0694A0
:104AC000A9F784911095177041F0D695C795579521
:104AD0004795F794E7941A95C1F7E2ECF0E06894F3
:104AE0001590159135916591959105907FE273959B
:104AF000E118F10A430B560BC90BD009C0F7E10CC2
:104B0000F11E431F561FC91FD01D7EF4703311F4D0
:104B10008A95E6CFE894015030F0080F0AF4002798
:104B2000021708F4202F2395022F7A3328F079E317
:104B30007D932A95E9F710C07D932A9589F606940E
:104B400097956795379517951794E118F10A430BD8
:104B5000560BC90BD00998F023957E9173957A3343
:104B600008F070E37C932013B8F77E9170617D9319
:104B700030F0839571E37D9370E32A95E1F711247A
:104B8000EF90FF900F911F91CF91DF91992787FDB3
:104B900090950895FC010590615070400110D8F780
:104BA000809590958E0F9F1F0895FB01DC018D91DC
:104BB000019080190110D9F3990B0895FB01DC01D4
:104BC00001900D920020E1F70895FB01DC014150B6
:104BD000504048F001900D920020C9F701C01D928D
:104BE00041505040E0F70895FC0161507040019041
:104BF0000110D8F7809590958E0F9F1F0895592F1B
:104C0000482F372F262F660F771F881F991F660F93
:104C1000771F881F991F620F731F841F951F660FD0
:104C2000771F881F991F08950F931F93CF93DF93CA
:104C3000009731F46115710519F480E090E03AC0F5
:104C40008B01EC016EE070E081E090E00E9468274B
:104C5000FC01892B91F380E883830115110571F024
:104C60001387028781E883838091CC079091CD07D9
:104C7000892B21F4F093CD07E093CC072097C9F05E
:104C8000D187C0878381826083838091CE07909192
:104C9000CF07892B71F4F093CF07E093CE07809173
:104CA000D0079091D107892B21F4F093D107E0939D
:104CB000D007CF01DF91CF911F910F9108950F93EE
:104CC0001F93CF93DF93FB01238121FD03C08FEF5F
:104CD0009FEF2CC022FF16C0468157812481358169
:104CE0004217530744F4A081B1819D012F5F3F4FCC
:104CF000318320838C93268137812F5F3F4F378309
:104D0000268314C08B01EC01FB010084F185E02DAA
:104D10000995892BE1F6D80116968D919C911797EC
:104D2000019617969C938E931697CE01DF91CF91A3
:104D30001F910F910895A0E0B0E0E1EAF6E20C9433
:104D40004E22AE014B5F5F4FFA0161917191AF014D
:104D50008091CE079091CF070E94F31CE2E00C9463
:104D60006A226091CE077091CF070E945F26089556
:104D70000F931F93CF93DF93E091CE07F091CF076E
:104D8000238121FF1BC08C01D0E0C0E0F80181919C
:104D90008F016091CE077091CF07DB011896ED91DE
:104DA000FC911997882331F00995892B79F3DFEF6E
:104DB000CFEFECCF8AE00995892B19F08FEF9FEFA9
:104DC00002C08D2F9C2FDF91CF911F910F910895DD
:104DD000AEE0B0E0EEEEF6E20C944C220D891E89B6
:104DE00086E08C831A8309838FEF9FE79E838D83F0
:104DF000AE01475E5F4F6F89788DCE0101960E94AC
:104E0000F31CEF81F885E00FF11F10822E96E4E08D
:104E10000C946822FA01AA27283051F1203181F13F
:104E2000E8946F936E7F6E5F7F4F8F4F9F4FAF4FB2
:104E3000B1E03ED0B4E03CD0670F781F891F9A1FC5
:104E4000A11D680F791F8A1F911DA11D6A0F711D79
:104E5000811D911DA11D20D009F468943F912AE085
:104E6000269F11243019305D3193DEF6CF0108956D
:104E7000462F4770405D4193B3E00FD0C9F7F6CF9E
:104E8000462F4F70405D4A3318F0495D31FD405266
:104E9000419302D0A9F7EACFB4E0A69597958795FC
:104EA00077956795BA95C9F70097610571050895DB
:104EB0009B01AC010A2E0694579547953795279587
:104EC000BA95C9F7620F731F841F951FA01D08951F
:104ED0000F931F93CF93DF93869F8001879F100DC1
:104EE000969F100D1124C8010E948427EC010097A1
:104EF00029F0A80160E070E00E94A528CE01DF91B2
:104F0000CF911F910F9108950F931F93CF93DF932C
:104F10008230910510F482E090E0E091D407F091A6
:104F2000D50720E030E0A0E0B0E0309719F14081F3
:104F300051810281138148175907C8F084179507DA
:104F400069F4109731F012960C93129713961C93F4
:104F500027C00093D4071093D50722C0211531052F
:104F600019F04217530718F49A01BD01EF01DF0150
:104F7000F801DBCF21153105F9F0281B390B24305E
:104F8000310580F48A819B816115710521F0FB0157
:104F90009383828304C09093D5078093D407FE0146
:104FA000329644C0FE01E20FF31F81939193225089
:104FB0003109398328833AC02091D2073091D30731
:104FC000232B41F420910301309104013093D30746
:104FD0002093D20720910101309102012115310562
:104FE00041F42DB73EB74091050150910601241BB5
:104FF000350BE091D207F091D307E217F307A0F445
:105000002E1B3F0B2817390778F0AC014E5F5F4F1E
:105010002417350748F04E0F5F1F5093D307409376
:10502000D2078193919302C0E0E0F0E0CF01DF91DD
:10503000CF911F910F910895CF93DF93009709F4BB
:1050400081C0FC01329713821282A091D407B091E3
:10505000D507109781F420813181820F931F209111
:10506000D2073091D3072817390751F5F093D307AA
:10507000E093D20767C0ED0120E030E0CE17DF07F4
:1050800040F44A815B819E0141155105F1F0EA012E
:10509000F5CFD383C28340815181840F951FC817F8
:1050A000D90759F488819981840F951F02969183BD
:1050B00080838A819B81938382832115310529F422
:1050C000F093D507E093D4073DC0E901FB83EA8361
:1050D00049915991C40FD51FEC17FD0761F48081E8
:1050E0009181840F951F0296E901998388838281BB
:1050F00093819B838A83E0E0F0E012968D919C91EE
:105100001397009719F0FD01DC01F7CF8D919C9169
:1051100011979D012E5F3F4F820F931F2091D20761
:105120003091D3072817390769F4309729F4109282
:10513000D5071092D40702C013821282B093D3070E
:10514000A093D207DF91CF910895DC0101C06D9348
:0C51500041505040E0F70895F894FFCF64
:10515C00010000D6072000781E00A02800F03C00BB
:10516C00405100127A00E4A20024F40048E80190B7
:10517C00D00320A10722042404290428042A042C87
:10518C00042D0430046B013404350438047A013CDA
:10519C0004410440045374617274696E67204C6F4F
:1051AC005261206661696C6564210D00256C750087
:1051BC0025643A25643A25640047465300474F4B13
:1051CC00004E4F5F4C4F4300474657005061636B96
:1051DC0065742067656E6572617465643A20257329
:1051EC00200D0A00506B74204C656E6774683A2071
:1051FC0025640D0A0052656369657665642050610B
:10520C00636B65740D002D2D2D2D2D2D2D204D65D1
:10521C006469756D20436F6C6C6172202D2D2D2D82
:10522C002D2D2D0D0052544320616E642047505398
:10523C0020496E697420446F6E65200D004D6169C4
:10524C006E3A2057616B6575702054696D653A2014
:10525C002564203A202564203A2025640D0A004D4F
:10526C0061696E3A2054696D65206E6F74207365A8
:10527C00742C2057616974696E6720666F72207494
:10528C00696D652066726F6D204C6F526120506B9A
:10529C00740D004D61696E3A2054696D652066721B
:1052AC006F6D204C6F5261206661696C65642E20B5
:1052BC00436865636B696E67204750532054696D72
:1052CC00650D004D61696E3A2056616C69642074FD
:1052DC00696D65206F6E20475053200D004D61693C
:1052EC006E3A20536C6565702054696D653A2025C3
:1052FC0064203A202564203A2025640D0A0D0A0DFD
:10530C000A0D0A004D61696E3A20476F696E67207D
:10531C00746F20736C656570206E6F77200D0A0DAD
:10532C0000252E3666004750524D4300474E524DD5
:10533C004300475047474100474E474741004750BD
:10534C00532050756C736520476976656E200D008F
:10535C004750532055700D004750532077616B65B3
:10536C00206661696C0D00475053205570204669CA
:10537C006E616C206661696C0D0047505320536C54
:10538C006565700D0047505320736C656570206621
:10539C0061696C0D0047505320536C656570204655
:1053AC00696E616C206661696C0D004C6F63617491
:1053BC00696F6E3A20002566202C202566200D0A88
:1053CC0000494E56414C49440D00446174652F54BC
:1053DC00696D653A20002564202F202564202F203C
:1053EC0025642020202D202000494E56414C494454
:1053FC00200D002564203A200048616E64656C69BC
:10540C006E6720475053204E6F773A20256C750DF0
:10541C000A004750532D3E48616E646C65723A2009
:10542C00526574204C6F6320696E206D5320546953
:10543C006D65722061743A20256C750D0A00475019
:10544C00532D3E48616E646C65723A20526574202F
:10545C004E6F204C6F6320696E206D532054696D24
:10546C0065722061743A20256C750D0A00252E3268
:10547C0066004E004E4E4500454E450045534500D6
:10548C00535345005353570057535700574E57002B
:10549C004E4E57007363686564756C652D3E616C88
:1054AC0061726D48616E646C65723A2054727565F8
:1054BC002053657474696E6720616C61726D20662F
:1054CC006F723A202564202F2025640D0A00736327
:1054DC00686564756C652D3E616C61726D48616EBA
:1054EC00646C65723A2046616C7365205365747404
:1054FC00696E6720616C61726D20666F723A20254F
:10550C0064202F2025640D0A00636D642E6465747D
:10551C006563742D5254432054696D652073657412
:10552C000D00636D642E6465746563742D3E45785F
:10553C006974696E670D004144433A20256C750D02
:10554C000A00252E31660072656C656173654861D1
:10555C006E646C65722D3E52656C6561736520746A
:10556C00696D650D0053656E64696E673A2025732D
:04557C000D0A000014
:00000001FF
