:100000000C94E0000C94140A0C9408010C94080160
:100010000C9408010C9408010C9408010C945709E5
:100020000C9408010C9408010C9408010C9408012C
:100030000C9408010C9408010C940A010C9408011A
:100040000C9408010C9408010C9498090C94080174
:100050000C9408010C9408010C9408010C940801FC
:100060000C945C190C940801060F130F170F1D0F49
:10007000230F380F410F480F4D0F530F530F530FDE
:10008000530F530F530F530F530F530F530F530F60
:10009000530F530F530F530F530F530F530F530F50
:1000A000530F530F530F530F060F0C0F130F170F50
:1000B0001D0F230F290F2D0F320F6E616E00696E19
:1000C000660000407A10F35A00A0724E1809001022
:1000D000A5D4E80000E87648170000E40B540200BD
:1000E00000CA9A3B000000E1F505000080969800E8
:1000F000000040420F000000A08601000000102711
:1001000000000000E80300000000640000000000A0
:100110000A00000000000100000000002C76D888D2
:10012000DC674F0823DFC1DFAE59E1B1B796E5E3E5
:10013000E453C63AE651997696E8E6C28426EB89FE
:100140008C9B62ED407C6FFCEFBC9C9F40F2BAA59B
:100150006FA5F490055A2AF75C936B6CF9676DC133
:100160001BFCE0E40D47FEF520E6B500D0ED902E37
:100170000300943577050080841E080000204E0A95
:10018000000000C80C333333330F986E12831141D3
:10019000EF8D2114893BE65516CFFEE6DB18D1849E
:1001A0004B381BF77C1D901DA4BBE42420328472C5
:1001B0005E228100C9F124ECA1E53D27E522F92268
:1001C00011241FBECFEFD8E0DEBFCDBF15E0A0E009
:1001D000B1E0E6EFF4E502C005900D92AE33B10751
:1001E000D9F727E0AEE3B5E001C01D92A13FB20709
:1001F000E1F710E0C0EED0E004C02197FE010E94BC
:100200006A23CE3DD107C9F70E94D6210C94792AE2
:100210000C9400001F920F920FB60F9211248F932F
:100220009F93EF93FF9380914705813019F580915B
:1002300046058150E9F4809143059091440580FF83
:1002400002C0289A01C028988091430590914405E6
:100250009695879590934405809343058091450535
:10026000815080934505811102C01092470583E0BB
:100270008093460580914905811152C080914205C5
:100280008823E9F0809141058150809341058111D7
:1002900047C01092420510924805E0914B05F0E0EE
:1002A00080914005E45BFA4F808380914B058F5F1E
:1002B00080934B058032A0F110924B0531C08091A4
:1002C0004805811110C019992BC081E08093480521
:1002D0001092400594E09093410598E090933F057B
:1002E00080933E051DC0809141058150B9F48091F5
:1002F0003E05199B05C090914005982B90934005B1
:10030000880F80933E0580913F05815080933F0583
:10031000811103C081E08093420583E08093410511
:10032000FF91EF919F918F910F900FBE0F901F90B3
:100330001895109247051092480510924905289A81
:10034000209A21989FB7F89481E287BD82E084BD0E
:1003500085BDEEE6F0E080818260808316BC9FBFA1
:10036000089510924905089581E080934905089504
:1003700090914A0580914B059817E1F3E92FF0E041
:10038000E45BFA4F80819F5F903218F490934A05A6
:10039000089510924A05089590914B0581E02091AF
:1003A0004A05291301C080E0089510924B05109270
:1003B0004A0508959091470581E0913009F080E069
:1003C0000895909147059130E1F393E090934605AD
:1003D0009AE090934505880F990B9260909344059D
:1003E0008093430581E0809347050895CF93DF9381
:1003F000EC018991882319F00E94E101FACFDF9185
:10040000CF910895CF93DF93FC018491EF01219662
:10041000882321F00E94E101FE01F7CFDF91CF9107
:100420000895CF93DF93D82FC62F60E083E40E9416
:10043000DD088D2F0E94D0058C2F0E94D005C82F7B
:1004400060E083E40E94B9088C2FDF91CF9108957A
:1004500060E08F770C9411028AE10E94280240919B
:100460006E0550916F056091700570917105411591
:10047000514A6C4B734310F09DE901C094EA891B0B
:10048000089589E10E94280285958595089583E164
:100490000E94280290916D05891B08950E944702D1
:1004A000882341F080916D058F5F80936D0580E01A
:1004B0000C9428028FEF08958EE10E942802829505
:1004C0008F7008958DE10E94280290E034E09595A8
:1004D00087953A95E1F78A3091057CF4FC01EE0F9F
:1004E000FF1F8E0F9F1FFC01E95FFE4F80819181EE
:1004F000A281BC018A2F90E0089560E271EA87E052
:1005000090E008958F929F92AF92BF92CF92DF9228
:10051000EF92FF9288E20E9428028770C82ED12CA9
:10052000E12CF12CFE2CED2CDC2CCC2489E20E9459
:100530002802C80ED11CE11CF11CFE2CED2CDC2C79
:10054000CC248AE20E942802C80ED11CE11CF11CB6
:1005500088E20E94280283FF03C088E0E81AF108BD
:100560000E9462024B015C01C701B6010E947B251B
:1005700020E030E040E85BE40E942B2620E034E2FB
:1005800044EF5BE40E94D1246B017C01C501B401FE
:100590000E94792520E034E244EF58E40E94D124FF
:1005A0009B01AC01C701B6010E942B260E94432586
:1005B000FF90EF90DF90CF90BF90AF909F908F9083
:1005C000089580680C94110263E881E80E9411028A
:1005D00082E10E94280283FD07C08FE19EE401971B
:1005E000F1F700C00000F4CF68E082E90E94110238
:1005F00081E00895DF92EF92FF920F931F93CF93C4
:10060000DF93F82ED92EC62F82E20E942802D82F1F
:100610008C2F90E08D0F911D8F3F910519F010F0F8
:10062000CD2FC095EF2C0F2D1D2D802F8E198C17DF
:1006300038F4F80161918F0180E80E941102F5CF32
:100640006C2F6D0F82EA0E9411028C2FDF91CF91E7
:100650001F910F91FF90EF90DF900895CF93DF935C
:100660000E944702882371F08DE00E942802D82F53
:1006700080E00E942802C82F6D2F8DE80E94110291
:100680008C2F01C08FEFDF91CF91089561E881E851
:100690000C94110260E881E80C9411020C944A0356
:1006A000823020F0823118F081E101C082E0825076
:1006B000682F606889E80C941102AF92BF92CF92C4
:1006C000DF92EF92FF920F931F93CF93DF9360938C
:1006D0006E0570936F058093700590937105DC0132
:1006E000CB019C01AD0160E070E080E090E003E1AF
:1006F0000E941924A12CE8E4BE2EF8EECF2EDD24B2
:10070000D394E12CF12C00E010E00E948523C22F4D
:10071000B32E6A017B01182FD92F00E10E943424E7
:10072000622F86E80E9411022C2F3B2DA601B701F3
:10073000812F9D2F08E00E943424622F87E80E94B9
:1007400011026C2F88E8DF91CF911F910F91FF90DC
:10075000EF90DF90CF90BF90AF900C941102CF92AA
:10076000DF92EF92FF926B017C0160E083E40E94D4
:10077000950860E083E40E94B90861E083E40E9488
:10078000950861E083E40E94DD088FE19EE4019713
:10079000F1F700C0000061E083E40E94B9088FE136
:1007A0009EE40197F1F700C0000082E40E94280255
:1007B000823109F50E944A03C701B6010E945D0318
:1007C00060E08EE80E94110260E08FE80E94110252
:1007D0008CE00E942802682F63608CE80E9411025E
:1007E00064E086EA0E94110284E10E9450030E94A4
:1007F000460381E001C080E0FF90EF90DF90CF9052
:100800000895CF93853028F0C82F893018F0C8E0BC
:1008100001C0C5E08DE10E9428026C2F70E0645099
:100820007109660F771F817F682B8DE9CF910C943A
:100830001102CF93C82F692F80EA0E9411026C2FFA
:1008400081EACF910C941102682F89EB0C9411026C
:100850008EE10E942802682F64608EE90C941102D8
:100860008EE10E942802682F6B7F8EE90C941102A2
:1008700010926C058DE10E942802682F6E7F8DE931
:100880000C94110281E080936C058DE10E94280296
:10089000682F61608DE90C941102CF93C82F0E94DC
:1008A0004603CC2319F00E94420402C00E9438047F
:1008B00060E08DE80E94110260E082EA0E9411026D
:1008C00081E0CF910895CF93DF93D82F82E10E94EA
:1008D0002802C82FDD2339F00E9442046D2F82EADE
:1008E0000E94110202C00E9438046C2F82E90E940B
:1008F0001102C6FF18C0C5FD16C010926D0580918B
:100900006C05882311F082E201C083E10E94280275
:10091000C82F80E10E942802682F8DE80E941102F2
:100920000E9446030FC081E00E942802863841F0F1
:1009300060E08DE80E94110266E881E80E941102E1
:10094000C0E0D0E08C2FDF91CF910895CF93DF935B
:10095000EC01181619063CF40E9442046C2F82EA3E
:100960000E94110202C00E94380465E881E8DF910C
:10097000CF910C941102CF92DF92EF92FF92CF931E
:10098000DF930E9462026B017C010E945C02D82FFF
:1009900086E20E942802C82FA701960104C056953E
:1009A000479537952795DA95D2F768EE73E080E0A2
:1009B00090E00E9448236C2F2131310541055105FB
:1009C00010F0686001C0677F86EADF91CF91FF90E9
:1009D000EF90DF90CF900C941102CF93C82F863008
:1009E00020F08D3060F4863059F465EC81EB0E9484
:1009F00011026CE087EB0E941102C6E009C0CCE056
:100A000063EC81EB0E9411026AE087EB0E94110205
:100A10008EE10E9428028F7090E1C99F90011124FD
:100A2000682F622B8EE90E941102CF910C94BB04B7
:100A3000CF9369372EE172078105910590F1613AF4
:100A400028E272078105910570F1613F2CE372077E
:100A50008105910550F1613421E572078105910509
:100A600030F163312AE772078105910510F1653E87
:100A700022EA720781059105F0F0653224EF7207D2
:100A800081059105D0F0693428EE720721E08207D4
:100A90009105A8F06139704D8340910590F0C9E04F
:100AA00011C0C0E00FC0C1E00DC0C2E00BC0C3E088
:100AB00009C0C4E007C0C5E005C0C6E003C0C7E088
:100AC00001C0C8E08DE10E9428028F7090E1C99FAB
:100AD00090011124682F622B8DE90E941102CF91A1
:100AE0000C94BB040F9362E082E40E94950862E0DC
:100AF00082E40E94DD0800E020E040E061E080E068
:100B00000E94AB0560EC7AEC89E896E30E94AF03A3
:100B1000811105C085E491E00E948528FFCF62E144
:100B20007AE780E090E00F910C9418051F93CF9323
:100B3000DF93EC01162F0E94720580E00E944D04A5
:100B4000612FCE010E94FA020E94E402DF91CF9150
:100B50001F910C944A030F9394B1986294B924980E
:100B60002C9A437094E0499FA001112423702064C3
:100B7000422BA62FA170B0E094E0AA0FBB1F9A955C
:100B8000E1F74A2BE82FE170F0E025E0EE0FFF1FC0
:100B90002A95E1F7E42BECBD01700DBD0F9108958E
:100BA0008EBD0DB407FEFDCF8EB50895BF92CF92D6
:100BB000DF92EF92FF920F931F93CF93DF93EC019D
:100BC000BB24B39488E8C82E83E1D82EE12CF12C05
:100BD00002E310E08DA99EA92BA93CA9281739078B
:100BE000B9F12CAD222319F0213069F027C0FE01A4
:100BF000E80FF91F81818B3711F5BCAEC8AED9AEB5
:100C0000EAAEFBAE1CC0FE01E80FF91F618185E270
:100C100096E06D3739F40E94CF1B85E296E00E9482
:100C2000641B0CC00E94CF1B811108C088AD99AD18
:100C3000AAADBBAD892B8A2B8B2B09F41CAE8DA9D9
:100C40009EA90196B8010E9434239EAB8DABC2CF02
:100C5000DF91CF911F910F91FF90EF90DF90CF9098
:100C6000BF900895FC0187A9882389F040AD51AD5C
:100C700062AD73AD411551056105710541F04150FB
:100C800051096109710940AF51AF62AF73AF089567
:100C90008F929F92AF92BF92CF92DF92EF92FF928C
:100CA0000F931F93CF93DF93EC01C62E0E94EC1B92
:100CB000B62EA72E982E892E809173059E012E5F49
:100CC0003F4F7901882309F49DC08BE7888384E432
:100CD00089831F928BE08F938FEB94E09F938F9388
:100CE000FF922F930E94B528BC016F5F7F4F6E0D5E
:100CF0007F1DF701E80FF91F3CE2D32ED08283E776
:100D000095E00E94820CBC016F5F7F4FFC01D08296
:100D100083E795E00E94A10CBC016F5F7F4FFC014F
:100D2000D08283E795E00E9418138C010F5F1F4F5C
:100D3000FC01D0821092DC058091E4058F938091B4
:100D4000E3058F938091E2058F938091E1058F9366
:100D50008CE591E09F938F931F930F930E94B5288A
:100D60007C01FFEFEF1AFF0AE00EF11EF801E80F19
:100D7000F91FD082809181068F93809180068F9396
:100D8000809183068F93809182068F938091850650
:100D90008F93809184068F9380E691E09F938F9349
:100DA000FF92EF920E94B5288C010F5F1F4F0E0D2E
:100DB0001F1DF701E80FF91FD0828F929F92AF920B
:100DC000BF9289E691E09F938F931F930F930E94A8
:100DD000B528F801E80FF91F0196800F911FD08206
:100DE0002DB73EB7205E3F4F0FB6F8943EBF0FBE03
:100DF0002DBF8F010C5F1F4F32E0C31276C06EE62D
:100E000071E075C08BE7888384E489831F928BE04F
:100E10008F938FEB94E09F938F93FF922F930E9479
:100E2000B5288701080F191F2CE2D22EF801D082B5
:100E3000019666E771E08E0D9F1D0E94AB27F801B9
:100E4000D7828DE28087D1868287D3868487780196
:100E5000FEE0EF0EF11CF801D586809181068F939C
:100E6000809180068F93809183068F938091820674
:100E70008F93809185068F93809184068F9380E66F
:100E800091E09F938F93FF92EF920E94B5288C017F
:100E90000F5F1F4F0E0D1F1DF701E80FF91FD082C6
:100EA0008F929F92AF92BF9289E691E09F938F932A
:100EB0001F930F930E94B528F801E80FF91F0196C0
:100EC000800F911FD0822DB73EB7285E3F4F0FB6DF
:100ED000F8943EBF0FBE2DBF8F010C5F1F4F31E056
:100EE000C31203C06DE771E002C062E771E00E94C7
:100EF000AB278DE7F80180831182DF93CF9381E8E0
:100F000091E09F938F930E946828FE01019000203A
:100F1000E9F73197CF018C1B9D0BEC019F938F93C9
:100F200089E991E09F938F930E946828EDB7FEB7FF
:100F300038960FB6F894FEBF0FBEEDBFCE01DF911D
:100F4000CF911F910F91FF90EF90DF90CF90BF90C6
:100F5000AF909F908F900895CF93DF93CDB7DEB77A
:100F600061970FB6F894DEBF0FBECDBFEFE6F6E097
:100F700086A197A19E838D8384A195A19C838B8359
:100F800082A193A19A8389838EE090E098878F83D2
:100F900081E090E09A87898786E190E09C878B8743
:100FA000CE0101960E94BE1481E080937205619685
:100FB0000FB6F894DEBF0FBECDBFDF91CF9108957D
:100FC000EFE6F6E017A216A282E090E095A384A3D4
:100FD00013A212A21092B8061092B7069093B6060A
:100FE0008093B5061092B4061092B30687E190E0A4
:100FF00090AF87AB8AE390E096AB85AB14AA13AAB7
:10100000089588EC96E00E9432068091C406909183
:10101000C506A091C606B091C7060097A105B10507
:1010200059F00197A109B1098093C4069093C506B0
:10103000A093C606B093C70683E795E00C9401130E
:101040008093C8062091FB063091FC06F901E85315
:10105000F94F8183C9010196823391052CF4909355
:10106000FC068093FB0608951092FC061092FB0686
:1010700008950E94720580E395E7A0E0B0E08093B8
:10108000C4069093C506A093C606B093C706809188
:10109000C4069091C506A091C606B091C706892BDB
:1010A0008A2B8B2BD1F080E00E946304882379F394
:1010B0008AE992E00E9485280E944702882329F04D
:1010C0000E944E020E942008F7CF88EC96E00E9412
:1010D000D605809172058823D1F20895833479F082
:1010E0008434C1F0823401F524B181E090E001C084
:1010F000880F6A95EAF78095822384B9089527B10D
:1011000081E090E001C0880F6A95EAF7809582231C
:1011100087B908952AB181E090E001C0880F6A95EF
:10112000EAF7809582238AB90895833471F0843474
:10113000B1F08234E9F424B181E090E001C0880F7D
:101140006A95EAF7822B84B9089527B181E090E08F
:1011500001C0880F6A95EAF7822B87B908952AB1F2
:1011600081E090E001C0880F6A95EAF7822B8AB986
:101170000895833471F08434B1F08234E9F425B1F8
:1011800081E090E001C0880F6A95EAF7822B85B96B
:10119000089528B181E090E001C0880F6A95EAF7D0
:1011A000822B88B908952BB181E090E001C0880FAF
:1011B0006A95EAF7822B8BB90895833479F08434E9
:1011C000C1F0823401F525B181E090E001C0880FC3
:1011D0006A95EAF78095822385B9089528B181E060
:1011E00090E001C0880F6A95EAF78095822388B95C
:1011F00008952BB181E090E001C0880F6A95EAF76D
:10120000809582238BB90895442319F0413019F059
:1012100008950C94DD080C94B908833431F08434BB
:1012200031F08234B1F423B103C026B101C029B139
:1012300081E090E0062E02C0880F991F0A94E2F721
:1012400030E08223932302C0959587956A95E2F753
:10125000089581E008950895E1E8F0E080818260DA
:1012600080830895109281000895809184002091D8
:10127000850090E0922B9695879508951092B20084
:10128000E0EBF0E08081826080838EE38093B300A6
:1012900017BAE0E7F0E0808182608083E1EBF0E064
:1012A00080818560808308951092B10008951F9217
:1012B0000F920FB60F9211242F933F934F935F938A
:1012C0006F937F938F939F93AF93BF93EF93FF930E
:1012D0000E94010817BA8091060790910707A09114
:1012E0000807B09109070196A11DB11D809306075B
:1012F00090930707A0930807B0930907FF91EF9118
:10130000BF91AF919F918F917F916F915F914F911D
:101310003F912F910F900FBE0F901F9018956091E5
:1013200006077091070780910807909109070895B3
:101330001F920F920FB60F9211242F933F934F934A
:101340005F936F937F938F939F93AF93BF93EF932D
:10135000FF938091C60080930507809105070E9446
:10136000200882E08093C000FF91EF91BF91AF9180
:101370009F918F917F916F915F914F913F912F91AD
:101380000F900FBE0F901F90189580910A079091B3
:101390000B079093EA078093E90783E38093C400E7
:1013A0001092C50088E98093C10082E08093C0005C
:1013B00008959091C00095FFFCCF8093C6000895DA
:1013C00090910001992329F00E94D90980E090E0D2
:1013D000089581E090E00895EF92FF920F931F939C
:1013E000CF93DF937C018B01EC01CE018E199F0915
:1013F0008017910724F489910E94D909F6CFC8017A
:10140000DF91CF911F910F91FF90EF90089583B7D7
:10141000816083BF83B7817F846083BF7894889520
:1014200083B78E7F83BF08951F920F920FB60F92DE
:101430001124E09A0F900FBE0F901F9018950F93F4
:101440001F93CF93DF93EC018B010E9435099983A1
:1014500088831B830A83DF91CF911F910F91089599
:10146000CF93DF93EC010E9435094A815B814115DE
:101470005105A9F0288139812817390728F4BC01C2
:10148000621B730B9B0105C0821B930B9C012150B7
:10149000304881E02417350718F480E001C081E06E
:1014A000DF91CF910895FC01108211821382128284
:1014B0001482158216821782108612861186138670
:1014C0001486158616861786118A108A128A138A40
:1014D000148A158A168A108E178A118E128E138E10
:1014E000148E158E12A213A214A215A216A217A270
:1014F00010AA11AA12AA13AA14AA15AA16AE17AEF8
:10150000DC01DE9616961D921D921D921C92199773
:101510001E961C9211961C92119716961D921D9262
:101520001D921C9219971E961C9211961C9211974F
:1015300016961D921D921D921C9219971E961C9232
:1015400011961C92119716961D921D921D921C9237
:1015500019971E961C9211961C92119716961D9221
:101560001D921D921C9219971E961C9211961C9208
:1015700011961C92509682E08C9311961C921196B3
:101580001C9211961C92119611961C921E92129604
:1015900011961C921E9212961D921D921D921C92E3
:1015A000139714961D921D921D921C9213971496D8
:1015B0001D921D921D921C92139714961D921D92BE
:1015C0001D921C92139714961D921D921D921C92AF
:1015D0001397E957FF4F108208952FEB260F862FA0
:1015E000062E000C990B263010F4C797089561560B
:1015F000663018F4875591090895C0970895FF92B1
:101600000F931F93CF93DF93EC01F8802DE2F2123A
:1016100001C02196CE010E9498269B01AC01A4E650
:10162000B0E00E947023FE014991242F042E000C8B
:10163000330B205331092A303105A8F34E3241F5DE
:101640002181022E000C330B205331092A30310541
:10165000F8F44AE0429F8001439F100D1124012EAF
:10166000000C220B330B600F711F821F931F02812E
:10167000002E000C110B005311090A30110540F423
:10168000012E000C220B330B600F711F821F931F62
:101690002DE2F21207C090958095709561957F4F6D
:1016A0008F4F9F4FDF91CF911F910F91FF90089522
:1016B0002F923F924F925F926F927F928F929F9262
:1016C000AF92BF92CF92DF92EF92FF920F931F9350
:1016D000CF93DF93D82FC92F8B010E94982624E641
:1016E00030E040E050E00E94482349015A019B014C
:1016F000AC0160E876E988E990E00E9404236B0180
:101700007C01F80191828082ED2FFC2F2191822FA4
:10171000022E000C990BC0970A97C0F32E3239F5B0
:101720001F0180E8882E86E9982E88E9A82EB12C22
:101730009AE0492E512C612C712CF101C1911F01AD
:101740000C2E000CDD0BE097CA30D10580F4C501EA
:10175000B401A30192010E94482349015A01DE010C
:101760000E947B23C60ED71EE81EF91EE6CFA5E019
:10177000B0E0A70196010E9470236F5F7F4F8F4FEB
:101780009F4F23E030E040E050E00E944823F80102
:1017900022833383448355831682DF91CF911F9137
:1017A0000F91FF90EF90DF90CF90BF90AF909F9000
:1017B0008F907F906F905F904F903F902F90089503
:1017C00020E030E044E351E40E94602420E030E077
:1017D00044EB51E40E94D1240E944325CB0160E1F7
:1017E00070E00E943423FC01EE0FFF1FEB5DFE4F03
:1017F000808191810895CF93DF93EC0187E0FE0112
:101800007096DE01129601900D928A95E1F787E0BD
:10181000FE017796DE01199601900D928A95E1F707
:101820000E948F096E8F7F8F88A399A381E089839F
:101830008883DF91CF9108959B01BC01605F7F4F4A
:10184000C9010C94580B9B01BC01695E7F4FC90113
:101850000C94580BCF92DF92EF92FF92CF93DF93CD
:10186000EC0119826C817D818E819F810E94792596
:1018700028E23BE64EE65EE40E94D1246B017C0147
:101880006A817B8180E090E00E9479259B01AC0118
:10189000C701B6010E946024288521119058DF916C
:1018A000CF91FF90EF90DF90CF900895CF92DF928D
:1018B000EF92FF92CF93DF93EC0119826B857C85C9
:1018C0008D859E850E94792528E23BE64EE65EE402
:1018D0000E94D1246B017C0169857A8580E090E0CB
:1018E0000E9479259B01AC01C701B6010E946024CA
:1018F0002F8521119058DF91CF91FF90EF90DF90CD
:10190000CF900895CF93DF93EB010E942A0C9F9311
:101910008F937F936F938BEA92E09F938F93DF93E4
:10192000CF930E94B5282DB73EB7285F3F4F0FB623
:10193000F8943EBF0FBE2DBF8C0F9D1FDF91CF913E
:101940000895CF93DF93EB010E94560C9F938F93E2
:101950007F936F938BEA92E09F938F93DF93CF9364
:101960000E94B5282DB73EB7285F3F4F0FB6F894B9
:101970003EBF0FBE2DBF8C0F9D1FDF91CF910895ED
:10198000CF93DF93EC018E819F81A885B9858A83EF
:101990009B83AC83BD830E948F096A877B878C877A
:1019A0009D8781E089838883DF91CF910895CF93CC
:1019B000DF93EC018E819F81A885B9858A839B8303
:1019C000AC83BD830E948F096A877B878C879D8744
:1019D00081E089838883DF91CF910895CF93DF934E
:1019E000EC01CB010E94FF0A6E837F838887998771
:1019F000DF91CF910895CF93DF93EC01CB010E944B
:101A000098266E837F8388879987DF91CF91089589
:101A1000FC011182628173818481958124E630E02A
:101A200040E050E00E944823CB018053984F089536
:101A3000CF92DF92EF92FF92FC011182628173815B
:101A40008481958124E6C22ED12CE12CF12CA701B2
:101A500096010E944823CA01B901A70196010E947C
:101A60004823862FFF90EF90DF90CF900895FC01E0
:101A70001182628173818481958120E137E240E0A7
:101A800050E00E944823822F0895FC011182628158
:101A900073818481958120E432E44FE050E00E941C
:101AA0004823822F0895FC01118262817381848111
:101AB000958120E137E240E050E00E944823CA01CE
:101AC000B90124E630E040E050E00E944823862F30
:101AD0000895CF92DF92EF92FF92FC011182628112
:101AE00073818481958124E6C22ED12CE12CF12CC6
:101AF000A70196010E944823CA01B901A7019601D6
:101B00000E944823862FFF90EF90DF90CF9008959A
:101B1000FC011182628173818481958124E630E029
:101B200040E050E00E944823862F0895CF93DF9332
:101B3000EC018A859B85AC85BD858E839F83A887B4
:101B4000B9870E948F096A837B838C839D8381E0A0
:101B500089838883DF91CF910895CF93DF93EC0140
:101B6000CB010E94FF0A6A877B878C879D87DF9164
:101B7000CF910895CF93DF93EC018A859B85AC8547
:101B8000BD858E839F83A887B9870E948F096A834A
:101B90007B838C839D8381E089838883DF91CF91D0
:101BA0000895CF93DF93EC01CB010E9498266A87BA
:101BB0007B878C879D87DF91CF910895CF93DF93AB
:101BC000EC01BC0140960E94AB270E948F0968A3DC
:101BD00079A38AA39BA381E08DA38CA3DF91CF91EE
:101BE000089540E150E00C94B227BF92CF92DF926B
:101BF000EF92FF920F931F93CF93DF93EC01FC01C1
:101C0000EA57FF4FB080BB2009F499C0319660813C
:101C10000E94ED0A182FFE01E857FF4F6081CE01A8
:101C20000E94ED0A40E1149F800D1124FE01EB5744
:101C3000FF4F9081891374C0B59680819181A281F4
:101C4000B3810196A11DB11D80839183A283B383CB
:101C50008E0107561F4FD8018C91882361F0389769
:101C600080819181A281B3810196A11DB11D8083E4
:101C70009183A283B383FE01EA56FF4F80818823BC
:101C8000C9F0813089F5CE0182960E94C00CCE0148
:101C9000C0960E94D70CF8018081882329F1CE01DB
:101CA0000E94FB0BCE01CE960E94960DCE01845B66
:101CB0009F4F18C0CE01C0960E94D70CD8018C91BE
:101CC000882341F0CE010E94FB0BCE01865A9F4F24
:101CD0000E94960DCE0188599F4F0E94BA0DCE01E9
:101CE0008A589F4F0E94960D8E0104561F4FF8018F
:101CF000C081D181209709F407C1D801ED91FC91F1
:101D000066A177A18EA19FA10E94A227892B09F02D
:101D1000FBC0CE010E94DE0D0AA4DBA5C02DEACFD8
:101D2000CA55DF4F88819981AA81BB810196A11D87
:101D3000B11D88839983AA83BB83B12CE5C07C0144
:101D4000B7E9EB0EF11CF70130818A569F4F6C0109
:101D50008E0104561F4F31113EC07E0197E8E90EF7
:101D6000F11C60EB72E0C7010E94A227892B39F0B9
:101D700066EB72E0C7010E94A227892B11F481E073
:101D800012C06CEB72E0C7010E94A227892B39F0C8
:101D900062EC72E0C7010E94A227892B19F4F601B8
:101DA000108203C082E0D6018C93C656DF4F888133
:101DB0009981F80191838083C081D181209709F4B2
:101DC000A3C0B7018EA19FA10E94A22797FF97C031
:101DD0008AA59BA5EECFDC01EC91E23009F463C04B
:101DE000CE0189579F4FDC012C91222309F45BC05F
:101DF000B0E2EB9FF0011124E32B3197E932F105BA
:101E000008F051C0EC5CFF4F0C946A23BC01CE017A
:101E1000C0960E94EE0C47C0FE01E756FF4F81E0DE
:101E2000213461F52CC0BE01605F7F4F09C081E0A5
:101E3000233509F080E08E8B36C0BE01695E7F4F8E
:101E40000E94580B30C081E0273509F080E08D8F6B
:101E50002AC0BC01CE01CE9624C0BC01CE01845B59
:101E60009F4F1FC0BC01CE0182960E94FB0C1BC07D
:101E7000FE01E756FF4F81E021330CF480E08083C0
:101E800012C0BC01CE0188599F4F0E94D10D0BC0DA
:101E9000BC01CE018A589F4F04C0BC01CE01865AB6
:101EA0009F4F0E94AD0DF801C080D180C957DF4F10
:101EB000C114D10449F1D801ED91FC9166A177A13B
:101EC000F60186A197A10E94A227892BE9F4D601E9
:101ED00098962D913C919997F701808190E0821717
:101EE000930794F02817390721F4BE01C6010E9418
:101EF000F10DD6019A96CD90DC909B97D9CF892B86
:101F000019F0D8011D921C928B2DDF91CF911F915A
:101F10000F91FF90EF90DF90CF90BF900895DF92E8
:101F2000EF92FF920F931F93CF93DF939C01FC01DD
:101F3000E256FF4F80819181A281B3810196A11D5C
:101F4000B11D80839183A283B383C90188569F4FBB
:101F50007C01E901CA57DF4F643279F12CF46A3011
:101F600069F06D30C9F50AC06A3241F06C32A1F5F2
:101F7000F901EB57FF4F808186278083D62E890198
:101F8000F70180818F3050F4F901E80FF11DE95716
:101F9000FF4F1082C9010E94F50D01C080E0F801D9
:101FA000E956FF4F90819F5F9083F701108291E087
:101FB000FAE2DF1290E0988327C0FC011082F90159
:101FC000E956FF4F108272971082719682E08083EB
:101FD00018823396108217C0F70180818E3048F442
:101FE00091E0980F9083F901E80FF11DE957FF4F39
:101FF00060838881811107C0F901EB57FF4F908101
:102000006927608301C080E0DF91CF911F910F911C
:10201000FF90EF90DF900895AF92BF92CF92DF9242
:10202000EF92FF920F931F93CF93DF937B015A019F
:1020300069018C0106561F4FF801C081D18120979C
:10204000A9F06EA17FA1C5010E94A22797FD0EC035
:10205000892B29F488A599A5C816D9063CF08E01CC
:10206000065D1F4F0AA4DBA5C02DE9CFF701D3A75A
:10207000C2A7F801F182E082DF91CF911F910F9109
:10208000FF90EF90DF90CF90BF90AF900895CF93E7
:10209000DF93FC01DB0110A211A212A213A214A271
:1020A00015A257A346A331A720A790E1EF01892FDE
:1020B00019928A95E9F7BF01605F7F4FEB01199292
:1020C0009A95E9F7BF01CD01DF91CF910C940C10E7
:1020D0000C9447102FEF82E597E02150804090400C
:1020E000E1F700C0000040E064E084E40E940409DD
:1020F0002FEB8AED90E0215080409040E1F700C046
:10210000000041E064E084E40E9404092FEB8AEDC2
:1021100090E0215080409040E1F700C0000040E096
:1021200064E084E40E9404092FEB8AED90E02150E2
:1021300080409040E1F700C0000088EC92E00C94F1
:1021400085280F931F93CF938C0102551F4F8CED61
:1021500095E0A0E0B0E0F80180839183A283B3838F
:1021600088E992E00E948528C0E0F8018081918191
:10217000A281B381892B8A2B8B2B79F00E94CC0111
:10218000882399F30E94B801882379F3082E000C64
:10219000990B0E947E28CF5FE8CF88E992E00E94E9
:1021A00085288C2FCC0F990BCF911F910F910895FB
:1021B0000F931F93CF93DF938C01C6E0D0E0C8014B
:1021C0000E946A10C8010E94A110892B31F08AED8B
:1021D00092E00E94852881E007C0219781F782EE76
:1021E00092E00E94852880E0DF91CF911F910F91AE
:1021F00008950F931F93CF93DF938C01C6E0D0E037
:10220000C8010E946A10C8010E94A110892B31F4F4
:1022100085EF92E00E94852881E007C0219781F731
:1022200080E093E00E94852880E0DF91CF911F91AC
:102230000F91089540E064E084E40C94040941E0C7
:1022400064E084E40C9404090E9499010E94B101A5
:10225000789408951F93CF93DF93EC01162F0E947B
:10226000241164E084E40E94B90864E084E40E94DC
:102270009508CC57DF4F1883DF91CF911F910895B8
:10228000EF92FF920F931F93CF93DF93EC0186E1C0
:1022900093E09F938F930E9468280F900F908881FE
:1022A000882309F1CE010E94560C162F072FF82E15
:1022B000E92ECE010E942A0CEF92FF920F931F93FA
:1022C0009F938F937F936F9381E293E09F938F937C
:1022D0000E9468288DB79EB70A960FB6F8949EBFE5
:1022E0000FBE8DBF04C08CE293E00E94852885E379
:1022F00093E09F938F930E9468280F900F908AA17C
:10230000882359F18E010E5D1F4FC8010E94080DF0
:10231000F82EE92EC8010E94180D1BA2EF92FF9221
:102320001F928F936CA17DA18EA19FA120E137E226
:1023300040E050E00E9448231F922F9381E493E0F5
:102340009F938F930E9468288DB79EB708960FB60B
:10235000F8949EBF0FBE8DBF04C084E593E00E9439
:10236000852888A9882309F484C019AA6AA97BA9A9
:102370008CA99DA920E432E44FE050E00E9448235C
:102380002A3020F480E390E00E947E2819AA6AA9EE
:102390007BA98CA99DA920E432E44FE050E00E9483
:1023A00048231F922F938EE593E09F938F930E9473
:1023B00068288E01005D1F4FC8010E94530D0F90C9
:1023C0000F900F900F908A3020F480E390E00E94ED
:1023D0007E28C8010E94530D1F928F938EE593E0D3
:1023E0009F938F930E946828C8010E94690D0F90E7
:1023F0000F900F900F908A3020F480E390E00E94BD
:102400007E28C8010E94690D1F928F938FEB94E084
:102410009F938F930E94682819AA6AA97BA98CA907
:102420009DA924E630E040E050E00E9448230F9050
:102430000F900F900F906A3020F480E390E00E949C
:102440007E2819AA6AA97BA98CA99DA924E630E057
:1024500040E050E00E9448237F936F938CE794E024
:102460009F938F930E9468280F900F900F900F906A
:1024700004C08CE293E00E94852888E992E0DF9115
:10248000CF911F910F91FF90EF900C9485288F9220
:102490009F92AF92BF92CF92DF92EF92FF920F93F3
:1024A0001F93CF93DF93EC0184E693E00E9485288D
:1024B000CE010E941A111882FE01E259FF4F1082CC
:1024C0001182128213825E0188E6A80EB11CF5010A
:1024D00010828E0102551F4F80E69AEEA0E0B0E018
:1024E000F80180839183A283B38380E6C82E8AEEAD
:1024F000D82EE12CF12C99249394F80180819181BC
:10250000A281B381892B8A2B8B2B09F447C00E94AF
:10251000CC01882371F00E94B801882E882329F00D
:10252000082E000C990B0E947E28682DCE010E9477
:102530008F0FF80180819181A281B3818C159D0557
:10254000AE05BF0510F4911036C0F801808191816D
:10255000A281B381C816D906EA06FB0610F49924B5
:1025600093948881882349F2F5018081882329F298
:10257000118286819781A085B1850397A105B10558
:1025800008F4BBCFF80180819181A281B381BF9310
:10259000AF939F938F9386EA93E018C01882F80157
:1025A00080819181A281B381BF93AF939F938F93D9
:1025B00087E793E00BC0CE010E944011F0EDCF1AE7
:1025C000F7E0DF0AE108F108912CBFCF9F938F93CA
:1025D0000E946828CE010E941F110F900F900F904B
:1025E0000F900F900F9080E0DF91CF911F910F918E
:1025F000FF90EF90DF90CF90BF90AF909F908F9023
:102600000895FC01E255FF4F80819181A281B38141
:10261000892B8A2B8B2B59F080819181A281B381E8
:102620000197A109B10980839183A283B38308959F
:10263000CF93DF93EB01FC01EA58FF4F11826681D3
:102640007781808591850E947B259F938F937F93CF
:102650006F9382ED93E09F938F93DF93CF930E94CC
:10266000B5282DB73EB7285F3F4F0FB6F8943EBF51
:102670000FBE2DBF8C0F9D1FDF91CF9108956AE093
:102680000E94142320E1829F900D1124892F089528
:10269000982F92959F708F702AE0929F800D112441
:1026A0000895CF93C82F88E60E94DB1A8C2F0E94D2
:1026B000F51A0E94E51A61E088E60E94CE1ACF91D1
:1026C0000C94481BCF93DF93C82FD62F88E60E9427
:1026D000DB1A8D2F0E94F51A8C2F0E94F51ADF91BC
:1026E000CF910C94E51ACF93DF9381E10E945113AF
:1026F000D82F82E10E945113C82F61E18EEE0E9413
:10270000621362E18DED0E94621381E10E94511318
:102710008E3E29F482E10E9451138D3D31F081E01B
:1027200080931D07DF91CF91089581E080931E076C
:1027300061E18D2F0E94621362E18C2FDF91CF91B6
:102740000C94621362E084E40E946E0862E084E408
:102750000E94B908E9E6F0E0808182608083E89A0F
:102760007894089580911E07089580911D0708951B
:1027700081E080931E0710921D07089510921E0796
:1027800081E080931D070895EF92FF920F931F93AE
:10279000CF93DF93CDB7DEB729970FB6F894DEBF9E
:1027A0000FBECDBF88E60E94DB1A80E00E94F51ABA
:1027B0000E94E51A67E088E60E94CE1A8E010F5F3C
:1027C0001F4F7E0188E0E80EF11C0E94481BF801B3
:1027D00081938F01EE15FF05C1F70E94E51A8981EB
:1027E0008F770E94481390E090930D0780930C0719
:1027F0008A810E94481390E090930F0780930E0700
:102800008B810E944813082F10E01093110700934A
:1028100010078D810E94481390E0909313078093D6
:102820001207FE808F2D8F710E94481390E09093C5
:102830001507809314078F81F7FE06C00E94481386
:1028400090E08053984F05C00E94481390E084594F
:10285000984F90931707809316078C810E94481316
:1028600090E090931907809318070115110529F43A
:1028700010921C0710921B0707C00C30110544F47E
:1028800010931C0700931B0781E080931A0708C070
:102890000C50110910931C0700931B0710921A0784
:1028A0008CE097E029960FB6F894DEBF0FBECDBF3F
:1028B000DF91CF911F910F91FF90EF9008958F922C
:1028C0009F92AF92BF92CF92DF92EF92FF920F93BF
:1028D0001F93CF93DF93CDB7DEB729970FB6F89448
:1028E000DEBF0FBECDBF7C016B015A0188E60E949E
:1028F000DB1A80E00E94F51A0E94E51A67E088E67C
:102900000E94CE1A8E010F5F1F4F4E0188E0880E85
:10291000911C0E94481BF80181938F01E815F9056D
:10292000C1F70E94E51AA114B10429F089810E941F
:102930004813F5018083C114D10429F08A810E94D3
:102940004813F6018083E114F10429F08B810E9481
:102950004813F701808329960FB6F894DEBF0FBEA7
:10296000CDBFDF91CF911F910F91FF90EF90DF903E
:10297000CF90BF90AF909F908F9008951F93CF936B
:10298000DF93EC0188E60E94DB1A80E00E94F51AD2
:102990008A859B85813D27E0920734F0805D9740D2
:1029A0009B878A8710E805C08C5697409B878A874B
:1029B00010E088810E943F130E94F51A8A810E94CC
:1029C0003F130E94F51A8C810E943F130E94F51A52
:1029D0008C850E943F130E94F51A8E810E943F133E
:1029E0000E94F51A88850E943F13810F0E94F51AF4
:1029F0008A850E943F130E94F51ADF91CF911F91A3
:102A00000C94E51A1F93CF93DF93C82FD62F142F62
:102A100088E60E94DB1A80E00E94F51A812F0E944E
:102A20003F130E94F51A8D2F0E943F130E94F51A42
:102A30008C2F0E943F130E94F51ADF91CF911F91B6
:102A40000C94E51ACF9390911D0791110DC0C82FDA
:102A500080E00E945113CC2311F08F7701C0806871
:102A600060E0CF910C946213CF91089580911D077F
:102A7000811106C00E9451138095881F8827881FE6
:102A80000895FF920F931F93CF93DF93FC01108261
:102A9000FB01108220911E07211122C0EB018C0145
:102AA00088E60E94DB1A81E10E94F51A0E94E51A6D
:102AB00062E088E60E94CE1A0E94421B882381F0C1
:102AC0000E94481BF82E0E94481BF801F082829554
:102AD00086958695837099E1899F802D112488833E
:102AE000DF91CF911F910F91FF900895CF93DF93C6
:102AF00090911E0791112EC0C82F88E60E94DB1A04
:102B00008EE00E94F51A0E94E51A61E088E60E94B4
:102B1000CE1A0E94481BD82F88E60E94DB1A8EE04E
:102B20000E94F51A8D2F80620E94F51A0E94E51A04
:102B3000CC2381F088E60E94DB1A8EE00E94F51A11
:102B40000E94E51A61E088E60E94CE1A0E94481BA6
:102B500085FDF0CFDF91CF910895CF93C82F88E600
:102B60000E94DB1A88E08C0F0E94F51A0E94E51A79
:102B700061E088E60E94CE1ACF910C94481B0F9317
:102B80001F93CF938C01C0E08C2F0E94AD15F801EC
:102B900081938F01CF5FC833B9F7CF911F910F9108
:102BA0000895CF93DF93C82FD62F88E60E94DB1AB3
:102BB00088E08D0F0E94F51A8C2F0E94F51ADF9184
:102BC000CF910C94E51A0F931F93CF938C01C0E023
:102BD0006C2FF80181918F010E94D115CF5FC8330E
:102BE000B9F7CF911F910F910895CF93C82F80917E
:102BF0001E078823D1F088E60E94DB1A87E00E9436
:102C0000F51A0E94E51A61E088E60E94CE1A0E9439
:102C1000481BCC2319F0C82FC06102C0C82FCF7E3B
:102C200088E60E94DB1A87E01AC088E60E94DB1A59
:102C30008EE00E94F51A0E94E51A61E088E60E9483
:102C4000CE1A0E94481BCC2321F0C82FCB7FC06432
:102C500002C0C82FCF7B88E60E94DB1A8EE00E945C
:102C6000F51A8C2F0E94F51ACF910C94E51ACF9388
:102C7000DF93EC0180911E078823A9F088E60E946B
:102C8000DB1A87E00E94F51A0E94E51A61E088E6E7
:102C90000E94CE1A0E94481B8C7FC82B88E60E9497
:102CA000DB1A87E019C088E60E94DB1A8EE00E94DA
:102CB000F51A0E94E51A61E088E60E94CE1A0E9489
:102CC000481B94E0CC0FDD1F9A95E1F7877EC82B57
:102CD00088E60E94DB1A8EE00E94F51A8C2F0E9473
:102CE000F51ADF91CF910C94E51ACF9390911D07BF
:102CF000992311F1C82F88E60E94DB1A8FE00E9409
:102D0000F51A0E94E51A61E088E60E94CE1A0E9438
:102D1000481BCC2319F0C82FC86002C0C82FC77F3A
:102D200088E60E94DB1A8FE00E94F51A8C2F0E9421
:102D3000F51ACF910C94E51ACF91089580911E0752
:102D4000882361F060E080E00E94D11561E080E0BE
:102D50000E94D11562E080E00C94D11567E080E01C
:102D60000E94621368E080E00E94621369E080E0E4
:102D70000E9462136AE080E00C9462131F93CF9369
:102D8000DF93883108F057C06C3308F054C04C33DF
:102D900008F051C0142FD62FC82F80911E0788230A
:102DA00079F060E08C2F0E94D11561E08D2F0E9498
:102DB000D11562E0812FDF91CF911F910C94D11535
:102DC000842F0E943F1367E00E9462138D2F0E94A0
:102DD0003F1368E00E9462138C2F0E943F1369E04A
:102DE0000E9462136AE081E80E9462138FE00E94F1
:102DF00051136FE08E7F0E94621388E60E94DB1AF7
:102E00008EE00E94F51A0E94E51A61E088E60E94B1
:102E1000CE1A0E94481BC82F88E60E94DB1A8EE05B
:102E20000E94F51A8C2F81600E94F51ADF91CF91D4
:102E30001F910C94E51ADF91CF911F910895FC0129
:102E4000892B29F04081628184810C94BE160895FB
:102E5000EF92FF920F931F93CF93DF93EC018B01BF
:102E60007A0180911E078823B9F0209721F080E035
:102E70000E94AD1588830115110529F081E00E949B
:102E8000AD15F8018083E114F104E9F082E00E94BD
:102E9000AD15F701808317C087E00E9451138F772B
:102EA0000E944813F701808388E00E9451138F77B6
:102EB0000E944813F801808389E00E9451138F77A4
:102EC0000E9448138883DF91CF911F910F91FF904B
:102ED000EF900895CF93DF9300D01F92CDB7DEB768
:102EE000AE014F5F5F4FBE016E5F7F4FCE01039615
:102EF0000E942817ECE0F7E08B8190E095838483B3
:102F00008A8190E093838283898190E0918380839A
:102F1000CF010F900F900F90DF91CF910895FF9206
:102F20000F931F93CF93DF9300D01F92CDB7DEB7DF
:102F300080911E07882311F180E00E94AD15F82EC4
:102F400081E00E94AD15082F82E00E94AD15182F78
:102F5000AE014F5F5F4FBE016E5F7F4FCE010396A4
:102F60000E945F148B81F81207C08A81081304C085
:102F700081E09981911771F080E00CC08FE00E9490
:102F80005113182F117080FF04C06FE08E7F0E94D4
:102F90006213812F0F900F900F90DF91CF911F91AF
:102FA0000F91FF900895CF93DF93FC01DB0186A181
:102FB00097A127A930AD14964D915C911597821772
:102FC00093076CF028173907F4F08217930739F448
:102FD000C4A1D5A165A976A96C177D07A4F04817EF
:102FE00059071CF042175307A4F02417350799F42A
:102FF00081E012964D915C91139725A936A942174D
:10300000530754F008C04817590764F34831510575
:1030100064F781E001C080E0DF91CF910895EF92E5
:10302000FF920F931F93CF93DF93FC01EB01DC0121
:10303000A85BBF4F2C813D818D919C91820F931F86
:1030400008E110E0B8010E9434239C019583848339
:10305000DF01AA5BBF4FED90FC908A819B818E0DB2
:103060009F1D6CE370E00E943423938382838A81E6
:103070009B818E0D9F1DCC973CF0C9010196B80134
:103080000E94342395838483DF91CF911F910F9108
:10309000FF90EF900895CF93DF93EC01BC016F5E3A
:1030A0007F4F0E940F188B818F938A818F938D8120
:1030B0008F938C818F9389EF93E09F938F930E94DE
:1030C0006828BE01CE010E94D3170F900F900F9079
:1030D0000F900F900F9040E0882379F06A818C81E7
:1030E0000E94BE168B818F938A818F938D818F93DF
:1030F0008C818F9380E294E00EC06CA18EA10E941F
:10310000BE168DA18F938CA18F938FA18F938EA1CB
:103110008F9380E594E09F938F930E9468280F908F
:103120000F900F900F900F900F90DF91CF91089517
:1031300010928A07449A459AE9EBF0E080818E7FED
:10314000808380818D7F80838CE08093B80085E4CC
:103150008093BC0078940895880F8093BA000895F6
:10316000413258F590918A079111FCCF91E09093EC
:103170008A079FEF90931F0710926407940F909314
:103180006307880F81608093890785EE8093BC0078
:1031900080918A078130E1F380916407841710F4ED
:1031A00040916407A5E6B7E0962FFB018E2F891B9F
:1031B000841728F48D918193F9CF80E00895842FAE
:1031C0000895413248F590918A079111FCCF32E081
:1031D00030938A073FEF30931F07109264074093A4
:1031E0006307562FA5E6B7E0FB013E2F351B3417CA
:1031F00018F431913D93F9CF482F50E0440F551FFB
:103200004093890785EE8093BC00222339F080919A
:103210008A07823019F4F9CF91E011C080911F071D
:103220008F3F69F080911F07803231F080911F0736
:10323000803321F094E003C092E001C093E0892F35
:103240000895613288F420918A07243079F46093DC
:103250004107282FA3E4B7E0FC018E2F821B8617BD
:1032600038F481918D93F9CF81E0089582E008953B
:1032700080E0089590938607809385070895909342
:103280008807809387070895882311F085EC01C093
:1032900085E88093BC00089585ED8093BC00809103
:1032A000BC0084FDFCCF10928A07089585EC8093C2
:1032B000BC0010928A0708951F920F920FB60F92CA
:1032C00011242F933F934F935F936F937F938F932B
:1032D0009F93AF93BF93EF93FF938091B900887F43
:1032E000803609F495C068F5883209F45BC090F423
:1032F000803109F454C038F4882309F4EEC08830D2
:1033000009F44DC0EEC0883109F44CC0803209F494
:103310005EC0E7C0803409F469C048F4803309F422
:1033200056C0883309F0DDC080931F07A1C08035E7
:1033300009F450C0883509F45EC0883409F0D1C062
:10334000CEC0883909F4BFC0A8F4883709F460C03A
:1033500038F4883609F45CC0803709F459C0C1C01C
:10336000883809F4B0C0803909F458C0803809F0B1
:10337000B8C054C0803B09F47EC038F4803A09F4E8
:103380005FC0883A09F477C0ACC0803C09F49FC0A4
:10339000883C09F49CC0883B09F482C0A2C080919B
:1033A000890711C09091640780916307981708F00E
:1033B00096C0E091640781E08E0F80936407F0E08F
:1033C000EB59F84F80818093BB0085EC7DC08093E2
:1033D0001F0785C0E091640781E08E0F809364072A
:1033E0008091BB00F0E0EB59F84F80839091640727
:1033F0008091630765C0E091640781E08E0F809340
:1034000064078091BB00F0E0EB59F84F808367C000
:1034100083E080938A0710922007D7CF80912007FE
:10342000803208F050C0E091200781E08E0F809339
:1034300020078091BB00F0E0EF5DF84F8083C5CF9F
:1034400080912007803230F4E0912007F0E0EF5DBA
:10345000F84F10820E944C196091200770E0E091B3
:103460008507F091860781E297E009951092200781
:103470000E94561936C084E080938A071092420752
:1034800010924107E0918707F09188070995809194
:103490004107811105C081E08093410710924307E5
:1034A000E091420781E08E0F80934207F0E0ED5BF0
:1034B000F84F80818093BB00909142078091410733
:1034C000981708F482CF85E88093BC000AC085EC89
:1034D0008093BC0010928A0704C010921F070E94BC
:1034E0004C19FF91EF91BF91AF919F918F917F9177
:1034F0006F915F914F913F912F910F900FBE0F9061
:103500001F901895CF93DF93EC01E0918B07F0911A
:103510008C073097F1F09091B4078091B30798171A
:10352000C0F090E0292F30E02617370754F4DE0171
:10353000A20FB31F4C91D901AB54B84F4C939F5F6E
:10354000F1CF1092B4076093B307CB01DF91CF9115
:103550000994DF91CF910895E0918D07F0918E0746
:10356000309729F0109291071092900709940895CE
:103570001092B4071092B30710929107109290071F
:103580000C9498180E94AC188CEA9AE10E943F199A
:1035900082E89AE10E943A190C94B81A462F6132D7
:1035A00008F040E265EB77E00E94B0181092B40793
:1035B0008093B307089591E090938F078093B207AB
:1035C0001092910710929007089521E04091900782
:1035D00062E977E08091B2070E94E11810929107AA
:1035E0001092900710928F070895CF93DF931F9248
:1035F000CDB7DEB7898380918F07882391F08091C2
:103600009007803298F480919107E82FF0E0EE5611
:10361000F84F998190838F5F8093910780939007F3
:1036200005C061E0CE0101960E9421190F90DF9143
:10363000CF9108950F931F93CF93DF9320918F071E
:10364000222359F0EC018C01060F111DC017D10780
:1036500051F089910E94F51AF9CFDF91CF911F9116
:103660000F910C942119DF91CF911F910F91089523
:10367000FC0101900020E9F73197BF01681B790B2D
:103680000C941A1B8091B3079091B407891B08957D
:103690009091B4078091B307981748F4E92FF0E0B0
:1036A000EB54F84F80819F5F9093B407089580E0BA
:1036B000089590938C0780938B07089590938E07BD
:1036C00080938D0708950895CF93DF93CDB7DEB72C
:1036D00061970FB6F894DEBF0FBECDBFFC0181E04D
:1036E00090E0978B868B84899589419709F040C03B
:1036F00081818235C9F58481082E000C990BC09711
:103700009E838D838781082E000C990BC0979C8324
:103710008B838285082E000C990BC0979A8389832E
:103720008585082E000C990BC09798878F83808918
:10373000082E000C990BC0979A87898783E190E047
:10374000978B868B8389082E000C990BC0979C87DA
:103750008B87CE0101960E94BE1481E08093720592
:1037600081E894E00E9485288AE994E00E948528F7
:1037700061960FB6F894DEBF0FBECDBFDF91CF913B
:103780000895FC01248935892331310534F42F5FF4
:103790003F4F358B248B80E0089581E00895DC0154
:1037A0005496ED91FC915597E80FF91F60830C94A6
:1037B000C11BFC01158A148A0C94CF1BFC012689BD
:1037C0003789620F731F6431710524F4778B668B20
:1037D00080E0089581E008950F931F93CF93DF93C6
:1037E0008EE480937C0086E880937A008FEC97E0EB
:1037F0000197F1F700C0000080917A008064809307
:103800007A0080917A0086FDFCCF8FEC97E00197DB
:10381000F1F700C0000080917A00806480937A0004
:1038200080917A0086FDFCCF8FE19EE40197F1F74D
:1038300000C000008091780090917900C92FD0E0FD
:10384000082F10E01F929F931F928F938FEA94E0AE
:103850009F938F930E946828DC2FCC27C02BD12BFD
:10386000CE011F921F929F93CF9382EC94E09F937F
:103870008F930E94682880E09CE2BE010E94202372
:10388000EB01CB0199279F938F938DEC94E09F934D
:103890008F930E94682880917A008F7780937A00B6
:1038A0008C2F6AE00E941423682F70E080E090E083
:1038B0000E947B252DB73EB7205F3F4F0FB6F8948F
:1038C0003EBF0FBE2DBFDF91CF911F910F91089585
:1038D0007F928F929F92AF92BF92CF92DF92EF92A0
:1038E000FF920F931F93CF93DF936C01A42E952E1D
:1038F000862E772E79018BE7F601808386010E5F95
:103900001F4F83E481831F928BE08F938FEB94E0B2
:103910009F938F931F930F930E94B528E801C80FC0
:10392000D91F2CE2B22EB88201966AED74E0800FA6
:10393000911F0E94AB278E010B5F1F4FF701818102
:103940008F9380818F9383818F9382818F938581E1
:103950008F9384818F9380E691E09F938F931F9341
:103960000F930E94B528EC012196C00FD11FF801DA
:10397000E80FF91FB0827F928F929F92AF9289E6F3
:1039800091E09F938F93DF93CF930E94B528C80F48
:10399000D91F8DE788831982F60101900020E9F78D
:1039A000CF0101972DB73EB7285E3F4F0FB6F89471
:1039B0003EBF0FBE2DBF8C199D09DF91CF911F9186
:1039C0000F91FF90EF90DF90CF90BF90AF909F90BE
:1039D0008F907F9008958FED94E00E94852867E096
:1039E00084E40E94950867E084E40E94B90865E0D9
:1039F00084E40E94950865E084E40E94DD0866E0A6
:103A000084E40E94950866E084E40E94DD0867E093
:103A100084E40E94DD0865E084E40E94B90866E061
:103A200084E40E94DD082FEF82E795E52150804075
:103A30009040E1F700C0000065E084E40E94DD08EA
:103A400066E084E40E94DD082FEF84E39CE02150CF
:103A500080409040E1F700C0000065E084E40E94EF
:103A6000DD0866E084E40E94B9082FEF82E795E55F
:103A7000215080409040E1F700C0000065E084E400
:103A80000E94DD0866E084E40E94DD0867E084E4CB
:103A90000C94B90867E084E40E94DD0865E084E4E2
:103AA0000E94B90866E084E40E94DD082FEF82E7F7
:103AB00095E5215080409040E1F700C0000065E0AE
:103AC00084E40E94DD0866E084E40E94DD0867E08B
:103AD00084E40C94B908E6EDF7E087E090E0958384
:103AE00084838EE190E09383828311821082978396
:103AF000868381E090E09187808786E190E09387DC
:103B000082870895FC01208531858091DE079091A0
:103B1000DF07821793070CF446C0281739070CF407
:103B200040C028173907E1F5268137818091DC07ED
:103B30009091DD0782179307B4F1281739078CF1AC
:103B40002817390769F5248135818091DA0790912A
:103B5000DB07821793073CF12817390714F1281760
:103B60003907F1F4228133818091D8079091D907E8
:103B700082179307C4F0281739079CF028173907D4
:103B800079F4208131818091D6079091D7078217EF
:103B900093074CF02817390724F02817390719F034
:103BA000089580E0089581E008959F92AF92BF92BA
:103BB000CF92DF92EF92FF920F931F93CF93DF93F9
:103BC000CDB7DEB764970FB6F894DEBF0FBECDBF9A
:103BD0006B017C010E946B1D8091D507811157C03C
:103BE0000E94C4138C0126E636E646E450E4C70181
:103BF000B6010E94CC24181614F185EF94E00E94BF
:103C000085280E944A1D9801B701A601CE010196A0
:103C10005C010E94681C982EBF92AF9282E195E0F1
:103C20009F938F930E946828692DC5010E94960575
:103C300081E08093D5070F900F900F900F90C801EF
:103C40000E94821D882319F180E295E00E94852858
:103C50000E944A1D9801B701A6018E010F5F1F4FF8
:103C6000C8010E94681CF82E1F930F9382E195E013
:103C70009F938F930E9468286F2DC8010E9496051C
:103C800081E08093D5070F900F900F900F9064966E
:103C90000FB6F894DEBF0FBECDBFDF91CF911F915D
:103CA0000F91FF90EF90DF90CF90BF90AF909F90DB
:103CB0000895A0E1B0E0EFE5FEE10C94E2237C0181
:103CC0001B016A01FC0117821682838181FF44C3B4
:103CD0009E012F5F3F4F3901F7019381F10193FD61
:103CE000859193FF81911F01882309F431C38532A7
:103CF00039F493FD859193FF81911F01853239F449
:103D0000B70190E00E942C2856016501E5CF10E034
:103D1000512C912CFFE1F915D8F08B3279F038F461
:103D2000803279F08332A1F4F92DF0612EC08D320A
:103D300061F0803369F4292D21602DC0392D326066
:103D4000932E892D8460982E2AC0E92DE86015C035
:103D500097FC2DC020ED280F2A3088F496FE06C06F
:103D60003AE0139F200D1124122F19C08AE0589EAB
:103D7000200D1124522EE92DE0629E2E10C08E32AD
:103D800031F496FCE5C2F92DF0649F2E08C08C3604
:103D900021F4292D2068922E02C0883641F4F101C9
:103DA00093FD859193FF81911F018111B3CF9BEB0F
:103DB000980F933020F4992D9061805E07C09BE9A5
:103DC000980F933008F066C1992D9F7E96FF16E0FC
:103DD0009F73992E853619F49064992E08C0863603
:103DE00021F4392F3068932E02C01111115097FE23
:103DF00007C01C3350F444244394410E27E00BC009
:103E0000183038F027E017E005C027E09CE3492E82
:103E100002C0212F412C560184E0A80EB11CF601EE
:103E20006081718182819381042DA3010E94BF264C
:103E30006C01F981FC87F0FF02C0F3FF06C091FC22
:103E400006C092FE06C000E205C00DE203C00BE210
:103E500001C000E08C858C7019F001115AC29BC220
:103E600097FE10C04C0CFC85F4FF04C08A8181339E
:103E700009F44A94141474F528E0241578F588E0C0
:103E8000482E2CC096FC2AC0812F90E08C159D05F1
:103E90009CF03CEFC3163FEFD30674F0892D806889
:103EA000982E0AC0E2E0F0E0EC0FFD1FE10FF11DDB
:103EB0008081803319F411501111F4CF97FE0EC098
:103EC00044244394410E812F90E0C816D9062CF467
:103ED0001C1904C04424439401C010E097FE06C09E
:103EE0001C141D0434F4C601019605C085E090E061
:103EF00002C081E090E001110196112331F0212FE1
:103F000030E02F5F3F4F820F931F252D30E0821747
:103F1000930714F4581A01C0512C892D897049F463
:103F2000552039F0B70180E290E00E942C285A9485
:103F3000F7CF002329F0B701802F90E00E942C28B2
:103F400093FC09C0552039F0B70180E390E00E944E
:103F50002C285A94F7CF97FE4CC04601D7FE02C0DA
:103F6000812C912CC60188199909F301E80FF91FDA
:103F7000FE87ED87960124193109388B2F87012F91
:103F800010E01195019511093FEF8316930629F46E
:103F9000B7018EE290E00E942C28C814D9044CF09E
:103FA0008F8598898815990524F4ED85FE85818192
:103FB00001C080E3F1E08F1A91082D853E852F5FC7
:103FC0003F4F3E872D87801691062CF0B70190E079
:103FD0000E942C28D9CFC814D90441F49A81963371
:103FE00020F4953319F43C8534FF81E3B70190E068
:103FF0004EC08A81813319F09C859F7E9C87B701D2
:1040000090E00E942C28111105C094FC18C085E690
:1040100090E017C0B7018EE290E00E942C281E5F4E
:1040200082E001E0080FF301E80FF11D8081B70184
:1040300090E00E942C28802F0113F3CFE6CF85E477
:1040400090E0B7010E942C28D7FC06C0C114D1040F
:1040500041F4EC85E4FF05C0D194C194D1088DE210
:1040600001C08BE2B70190E00E942C2880E32AE097
:10407000C216D1042CF08F5FFAE0CF1AD108F7CF27
:10408000B70190E00E942C28B701C601C0960E949B
:104090002C2854C1833631F0833779F0833509F009
:1040A00056C020C0560132E0A30EB11CF60180813B
:1040B000898301E010E0630112C05601F2E0AF0E07
:1040C000B11CF601C080D18096FE03C0612F70E064
:1040D00002C06FEF7FEFC6010E94C1278C01F92D4E
:1040E000FF7714C0560122E0A20EB11CF601C08079
:1040F000D18096FE03C0612F70E002C06FEF7FEFAA
:10410000C6010E9497278C01F92DF0689F2EF3FDC0
:104110001AC0852D90E008171907A8F4B70180E2AE
:1041200090E00E942C285A94F4CFF60197FC8591D8
:1041300097FE81916F01B70190E00E942C285110E9
:104140005A94015011090115110579F7F7C0843609
:1041500011F0893661F5560197FE09C024E0A20EE0
:10416000B11CF60160817181828193810AC0F2E005
:10417000AF0EB11CF60160817181072E000C880B17
:10418000990BF92DFF769F2E97FF09C0909580958A
:10419000709561957F4F8F4F9F4FF0689F2E2AE05B
:1041A00030E0A3010E94D728C82EC6183FC0092DB1
:1041B000853721F40F7E2AE030E01DC0097F8F365D
:1041C00091F018F4883559F0C3C0803719F088375A
:1041D00011F0BEC0006104FF09C0046007C094FE76
:1041E00008C0066006C028E030E005C020E130E0ED
:1041F00002C020E132E0560107FF09C084E0A80EAA
:10420000B11CF601608171818281938108C0F2E066
:10421000AF0EB11CF6016081718180E090E0A301D6
:104220000E94D728C82EC6180F77902E96FE0BC076
:10423000092D0E7FC11650F494FE0AC092FC08C0EE
:10424000092D0E7E05C0DC2C092D03C0DC2C01C01D
:10425000D12E04FF0DC0FE01EC0DF11D80818033D5
:1042600011F4097E09C002FF06C0D394D39404C0A0
:10427000802F867809F0D39403FD11C000FF06C09B
:104280001C2DD51480F4150D1D190DC0D51458F42E
:10429000B70180E290E00E942C28D394F7CFD51488
:1042A00010F45D1801C0512C04FF10C0B70180E369
:1042B00090E00E942C2802FF17C001FD03C088E790
:1042C00090E002C088E590E0B7010CC0802F8678AE
:1042D00059F001FF02C08BE201C080E207FD8DE2D0
:1042E000B70190E00E942C28C11638F4B70180E392
:1042F00090E00E942C281150F7CFCA94F301EC0DE6
:10430000F11D8081B70190E00E942C28C110F5CFEB
:1043100015C0F4E0F51560F584E0581A93FE1FC04F
:10432000011127C02C8523FF2AC00AEB10E0392D8C
:104330003071932EF8018491811124C0552009F425
:10434000E4CCB70180E290E00E942C285A94F6CF8A
:10435000F7018681978126C08FEF9FEF23C0B701B9
:1043600080E290E00E942C285A945110F8CFD8CFC8
:10437000512CB701802F90E00E942C28D3CF0EEB58
:1043800010E0D5CF91108052B70190E00E942C2808
:104390000F5F1F4FCFCF23E0251510F483E0BDCF73
:1043A000512CC0CF6096E2E10C94FE23CF93DF93B3
:1043B000CDB7DEB761970FB6F894DEBF0FBECDBFA5
:1043C0000E94C5098AEA91E00E9485280E94B81AD5
:1043D0000E94731361E083E795E00E942A1189EC43
:1043E00091E00E9485280E94E0070E94EC1B0E9439
:1043F000EC1B162F072FF82EE92E0E94EB1CEF92D4
:10440000FF920F931F931F928BE08F9381EE91E0A9
:104410009F938F930DE316E01F930F930E94B5288F
:104420001F930F938FEE91E09F938F930E946828C4
:1044300060E0C8010E9496050FB6F894DEBF0FBE7B
:10444000CDBF88E0E82E82E0F82ECC24C39406E5A8
:1044500012E00E943E090E94B81A0E94A21340E88E
:1044600056E062E876E084E896E00E945F1480916E
:1044700081068F93809180068F93809183068F931E
:10448000809182068F93809185068F938091840618
:104490008F93FF92EF920E9468280E94EC1B83E7A3
:1044A00095E00E944712682F8DE396E00E9448062F
:1044B000D82E83E795E00E9440110FB6F894DEBF36
:1044C0000FBECDBF809173058823E1F18AE292E0AF
:1044D0000E94852883EA95E00E94450D90E09E8326
:1044E0008D8383EA95E00E94530D90E09C838B833B
:1044F00083EA95E00E94690D90E09A83898385E9BB
:1045000095E00E94370D90E098878F8385E995E0CC
:104510000E94180D90E09A87898785E995E00E94AE
:10452000080D9C878B87CE0101960E94BE1440E83F
:1045300056E062E876E084E896E00E945F14C0925C
:1045400072050EC08091720581110AC00E94AC07ED
:1045500040E856E062E876E084E896E00E945F1466
:104560006D2D8DE396E00E9496058FE696E00E9401
:104570004B1840E856E062E876E084E896E00E9456
:104580005F14809181068F93809180068F93809134
:1045900083068F93809182068F93809185068F93F7
:1045A000809184068F931F930F930E9468280E9426
:1045B00054098DE792E00E9485280E94070A0FB6F1
:1045C000F894DEBF0FBECDBF44CFE8ECF6E014AAEE
:1045D00013AA16AA15AA81E087AB10AE11AE12AECF
:1045E00013AE10923C0610923B0683E795E00C94C4
:1045F000530A60E070E080EE99E00E94E12790931A
:104600000B0780930A070895DB018F939F930E9405
:104610007023BF91AF91A29F800D911DA39F900D1C
:10462000B29F900D11240895991B79E004C0991F41
:10463000961708F0961B881F7A95C9F780950895FC
:10464000AA1BBB1B51E107C0AA1FBB1FA617B707B8
:1046500010F0A61BB70B881F991F5A95A9F78095D4
:104660009095BC01CD01089597FB072E16F4009498
:1046700007D077FD09D00E94202307FC05D03EF427
:10468000909581959F4F0895709561957F4F0895FE
:10469000A1E21A2EAA1BBB1BFD010DC0AA1FBB1F46
:1046A000EE1FFF1FA217B307E407F50720F0A21BB8
:1046B000B30BE40BF50B661F771F881F991F1A9425
:1046C00069F760957095809590959B01AC01BD014F
:1046D000CF010895EE0FFF1F0590F491E02D09948E
:1046E0000E945024A59F900DB49F900DA49F800D13
:1046F000911D11240895B7FF0C9470230E9470231C
:10470000821B930B0895689401C0E8948F929F9246
:10471000CF93DF930E949123DF91CF919F908F9051
:10472000089588249924F401E401B0E49F93AA2712
:104730009A158B049C04ED05FE05CF05D007A10753
:1047400098F4AD2FDC2FCF2FFE2FE92D982C892E3A
:10475000982F872F762F652F542F432F322F222704
:10476000B85031F7BF9127C01B2EBF91BB27220F36
:10477000331F441F551F661F771F881F991F881CF2
:10478000991CEE1FFF1FCC1FDD1FAA1FBB1F8A1421
:104790009B04EC05FD05CE05DF05A007B10748F039
:1047A0008A189B08EC09FD09CE09DF09A00BB10BA3
:1047B00021601A94E1F62EF49401AF01BE01CD01FF
:1047C000000C08952F923F924F925F926F927F92CA
:1047D0008F929F92AF92BF92CF92DF92EF92FF9211
:1047E0000F931F93CF93DF93CDB7DEB7CA1BDB0BBD
:1047F0000FB6F894DEBF0FBECDBF09942A88398862
:1048000048885F846E847D848C849B84AA84B98468
:10481000C884DF80EE80FD800C811B81AA81B98174
:10482000CE0FD11D0FB6F894DEBF0FBECDBFED0188
:1048300008950F93083090F0982F872F762F652FCB
:10484000542F432F322F22270850F4CF220F331F2B
:10485000441F551F661F771F881F991F0A95B2F7BF
:104860000F91089597FB10F8169400080F930830E5
:1048700098F00850232F342F452F562F672F782F6D
:10488000892F902DF4CF0594979587957795679507
:1048900057954795379527950A95AAF70F9108954B
:1048A000A29FB001B39FC001A39F700D811D112471
:1048B000911DB29F700D811D1124911D08955058B6
:1048C000BB27AA270E9477240C94F1250E94E32598
:1048D00038F00E94EA2520F039F49F3F19F426F4BD
:1048E0000C94E0250EF4E095E7FB0C94DA25E92F13
:1048F0000E94022658F3BA176207730784079507C8
:1049000020F079F4A6F50C9424260EF4E0950B2EF5
:10491000BA2FA02D0B01B90190010C01CA01A00111
:104920001124FF27591B99F0593F50F4503E68F16C
:104930001A16F040A22F232F342F4427585FF3CFAD
:10494000469537952795A795F0405395C9F77EF47E
:104950001F16BA0B620B730B840BBAF09150A1F0C7
:10496000FF0FBB1F661F771F881FC2F70EC0BA0F4D
:10497000621F731F841F48F4879577956795B795D5
:10498000F7959E3F08F0B0CF9395880F08F09927D0
:10499000EE0F9795879508950E94B62508F481E05B
:1049A00008950E94E5240C94F1250E94EA2558F010
:1049B0000E94E32540F029F45F3F29F00C94DA25AA
:1049C00051110C9425260C94E0250E94022668F3D0
:1049D0009923B1F3552391F3951B550BBB27AA27B8
:1049E00062177307840738F09F5F5F4F220F331FF2
:1049F000441FAA1FA9F335D00E2E3AF0E0E832D0BA
:104A000091505040E695001CCAF72BD0FE2F29D0BC
:104A1000660F771F881FBB1F261737074807AB078E
:104A2000B0E809F0BB0B802DBF01FF2793585F4F03
:104A30003AF09E3F510578F00C94DA250C94252627
:104A40005F3FE4F3983ED4F3869577956795B795E5
:104A5000F7959F5FC9F7880F911D9695879597F9F0
:104A60000895E1E0660F771F881FBB1F6217730769
:104A70008407BA0720F0621B730B840BBA0BEE1F7E
:104A800088F7E09508950E944A256894B1110C9426
:104A9000252608950E940A2688F09F5798F0B92F7E
:104AA0009927B751B0F0E1F0660F771F881F991F63
:104AB0001AF0BA95C9F714C0B13091F00E942426BB
:104AC000B1E008950C942426672F782F8827B85FCB
:104AD00039F0B93FCCF3869577956795B395D9F7BB
:104AE0003EF490958095709561957F4F8F4F9F4FC5
:104AF0000895E89409C097FB3EF4909580957095D1
:104B000061957F4F8F4F9F4F9923A9F0F92F96E919
:104B1000BB279395F695879577956795B795F1118E
:104B2000F8CFFAF4BB0F11F460FF1BC06F5F7F4F2B
:104B30008F4F9F4F16C0882311F096E911C077233D
:104B400021F09EE8872F762F05C0662371F096E846
:104B5000862F70E060E02AF09A95660F771F881F15
:104B6000DAF7880F9695879597F90895990F0008B9
:104B7000550FAA0BE0E8FEEF16161706E807F9072F
:104B8000C0F012161306E407F50798F0621B730BCA
:104B9000840B950B39F40A2661F0232B242B252B4B
:104BA00021F408950A2609F4A140A6958FEF811DEE
:104BB000811D089597F99F6780E870E060E008958F
:104BC0009FEF80EC089500240A9416161706180625
:104BD0000906089500240A94121613061406050601
:104BE0000895092E0394000C11F4882352F0BB0F92
:104BF00040F4BF2B11F460FF04C06F5F7F4F8F4FF5
:104C00009F4F089557FD9058440F551F59F05F3F2F
:104C100071F04795880F97FB991F61F09F3F79F0DE
:104C200087950895121613061406551FF2CF469560
:104C3000F1DF08C0161617061806991FF1CF8695E2
:104C40007105610508940895E894BB2766277727C6
:104C5000CB0197F908950E943E260C94F1250E94FD
:104C6000E32538F00E94EA2520F0952311F00C94FA
:104C7000DA250C94E02511240C9425260E940226A6
:104C800070F3959FC1F3950F50E0551F629FF0019F
:104C9000729FBB27F00DB11D639FAA27F00DB11DB8
:104CA000AA1F649F6627B00DA11D661F829F222741
:104CB000B00DA11D621F739FB00DA11D621F839FC8
:104CC000A00D611D221F749F3327A00D611D231F9E
:104CD000849F600D211D822F762F6A2F11249F57EC
:104CE00050409AF0F1F088234AF0EE0FFF1FBB1FEF
:104CF000661F771F881F91505040A9F79E3F5105AE
:104D000080F00C94DA250C9425265F3FE4F3983E5E
:104D1000D4F3869577956795B795F795E7959F5F57
:104D2000C1F7FE2B880F911D9695879597F90895E9
:104D30001F93FC0199278827BC01E8941191103238
:104D4000E9F3193010F01E30C8F31B3251F01D3258
:104D500049F4689406C00E94CC27610F711D811D23
:104D6000911D119110531A30B0F33EF49095809537
:104D7000709561957F4F8F4F9F4F1F9108952830F9
:104D800008F027E03327DA01990F311D87FD916084
:104D900000966105710539F432602E5F3D9330E372
:104DA0002A95E1F708959F3F30F08038710561053D
:104DB00009F03C5F3C5F3D93913008F08068911DA5
:104DC000DF93CF931F930F93FF92EF92192F987F4A
:104DD0009695E92F96959695E90FFF27E45EFE4F8D
:104DE00099273327EE24FF24A701E70105900894B3
:104DF000079428F4360FE71EF81E491F511D660F51
:104E0000771F881F991F0694A1F70590079428F42F
:104E1000E70EF81E491F561FC11D770F881F991FE7
:104E2000661F0694A1F70590079428F4F80E491F11
:104E3000561FC71FD11D880F991F661F771F069425
:104E4000A1F70590079420F4490F561FC71FD81FDC
:104E5000990F661F771F881F0694A9F784911095F4
:104E6000177041F0D695C79557954795F794E794F5
:104E70001A95C1F7E2ECF0E0689415901591359120
:104E80006591959105907FE27395E118F10A430BC6
:104E9000560BC90BD009C0F7E10CF11E431F561F7A
:104EA000C91FD01D7EF4703311F48A95E6CFE894C3
:104EB000015030F0080F0AF40027021708F4202FE1
:104EC0002395022F7A3328F079E37D932A95E9F729
:104ED00010C07D932A9589F6069497956795379526
:104EE00017951794E118F10A430B560BC90BD0091B
:104EF00098F023957E9173957A3308F070E37C9354
:104F00002013B8F77E9170617D9330F0839571E343
:104F10007D9370E32A95E1F71124EF90FF900F91B4
:104F20001F91CF91DF91992787FD90950895FC01FE
:104F30000590615070400110D8F7809590958E0FC4
:104F40009F1F0895FB01DC018D91019080190110D4
:104F5000D9F3990B0895FB01DC0101900D9200201B
:104F6000E1F70895FB01DC014150504048F0019009
:104F70000D920020C9F701C01D9241505040E0F74A
:104F80000895FC016150704001900110D8F78095A0
:104F900090958E0F9F1F0895592F482F372F262F3A
:104FA000660F771F881F991F660F771F881F991F2D
:104FB000620F731F841F951F660F771F881F991F2D
:104FC00008950F931F93CF93DF93009731F46115EA
:104FD000710519F480E090E03AC08B01EC016EE0BD
:104FE00070E081E090E00E943529FC01892B91F36B
:104FF00080E883830115110571F01387028781E82A
:1050000083838091E7079091E807892B21F4F0933F
:10501000E807E093E7072097C9F0D187C08783812D
:10502000826083838091E9079091EA07892B71F46C
:10503000F093EA07E093E9078091EB079091EC0782
:10504000892B21F4F093EC07E093EB07CF01DF917C
:10505000CF911F910F9108950F931F93CF93DF93DB
:10506000FB01238121FD03C08FEF9FEF2CC022FFA6
:1050700016C046815781248135814217530744F475
:10508000A081B1819D012F5F3F4F318320838C939D
:10509000268137812F5F3F4F3783268314C08B01D2
:1050A000EC01FB010084F185E02D0995892BE1F6E7
:1050B000D80116968D919C911797019617969C93FF
:1050C0008E931697CE01DF91CF911F910F91089586
:1050D000A0E0B0E0EEE6F8E20C94F223AE014B5F04
:1050E0005F4FFA0161917191AF018091E907909151
:1050F000EA070E94591EE2E00C940E246091E90731
:105100007091EA070E942C2808950F931F93CF9364
:10511000DF93E091E907F091EA07238121FF1BC0AB
:105120008C01D0E0C0E0F80181918F016091E90726
:105130007091EA07DB011896ED91FC91199788238D
:1051400031F00995892B79F3DFEFCFEFECCF8AE0CF
:105150000995892B19F08FEF9FEF02C08D2F9C2F9F
:10516000DF91CF911F910F910895AEE0B0E0EBEB8E
:10517000F8E20C94F0230D891E8986E08C831A8353
:1051800009838FEF9FE79E838D83AE01475E5F4F5C
:105190006F89788DCE0101960E94591EEF81F885A6
:1051A000E00FF11F10822E96E4E00C940C24FA011B
:1051B000AA27283051F1203181F1E8946F936E7F56
:1051C0006E5F7F4F8F4F9F4FAF4FB1E03ED0B4E047
:1051D0003CD0670F781F891F9A1FA11D680F791F88
:1051E0008A1F911DA11D6A0F711D811D911DA11D99
:1051F00020D009F468943F912AE0269F11243019A9
:10520000305D3193DEF6CF010895462F4770405D43
:105210004193B3E00FD0C9F7F6CF462F4F70405DF2
:105220004A3318F0495D31FD4052419302D0A9F74D
:10523000EACFB4E0A6959795879577956795BA9547
:10524000C9F700976105710508959B01AC010A2E0D
:1052500006945795479537952795BA95C9F7620FE4
:10526000731F841F951FA01D08950F931F93CF9345
:10527000DF93869F8001879F100D969F100D11244C
:10528000C8010E945129EC01009729F0A80160E0B3
:1052900070E00E94722ACE01DF91CF911F910F9191
:1052A00008950F931F93CF93DF938230910510F4ED
:1052B00082E090E0E091EF07F091F00720E030E02D
:1052C000A0E0B0E0309719F1408151810281138153
:1052D00048175907C8F08417950769F4109731F0FB
:1052E00012960C93129713961C9327C00093EF0706
:1052F0001093F00722C02115310519F0421753070A
:1053000018F49A01BD01EF01DF01F801DBCF21158F
:105310003105F9F0281B390B2430310580F48A81DE
:105320009B816115710521F0FB019383828304C089
:105330009093F0078093EF07FE01329644C0FE0180
:10534000E20FF31F8193919322503109398328830F
:105350003AC02091ED073091EE07232B41F42091C4
:105360000301309104013093EE072093ED07209163
:105370000101309102012115310541F42DB73EB7ED
:105380004091050150910601241B350BE091ED077A
:10539000F091EE07E217F307A0F42E1B3F0B28173E
:1053A000390778F0AC014E5F5F4F2417350748F09E
:1053B0004E0F5F1F5093EE074093ED07819391933B
:1053C00002C0E0E0F0E0CF01DF91CF911F910F919B
:1053D0000895CF93DF93009709F481C0FC013297C1
:1053E00013821282A091EF07B091F007109781F419
:1053F00020813181820F931F2091ED073091EE07BC
:105400002817390751F5F093EE07E093ED0767C0D1
:10541000ED0120E030E0CE17DF0740F44A815B81E8
:105420009E0141155105F1F0EA01F5CFD383C28306
:1054300040815181840F951FC817D90759F488817D
:105440009981840F951F0296918380838A819B8125
:10545000938382832115310529F4F093F007E093BB
:10546000EF073DC0E901FB83EA8349915991C40FDD
:10547000D51FEC17FD0761F480819181840F951F82
:105480000296E90199838883828193819B838A8331
:10549000E0E0F0E012968D919C911397009719F03F
:1054A000FD01DC01F7CF8D919C9111979D012E5F3D
:1054B0003F4F820F931F2091ED073091EE07281781
:1054C000390769F4309729F41092F0071092EF072A
:1054D00002C013821282B093EE07A093ED07DF9112
:1054E000CF910895DC0101C06D9341505040E0F729
:0654F0000895F894FFCFBF
:1054F600010000F1072000781E00A02800F03C0003
:10550600405100127A00E4A20024F40048E8019019
:10551600D00320A107D703D903DE03DD03DF03E1B0
:1055260003E203E5037001E903EA03ED037F01F1FA
:1055360003F603F5035374617274696E67204C6F4A
:105546005261206661696C6564210D00256C7500E9
:1055560025643A25643A256400252E3166004746BF
:105566005300474F4B004E4F5F4C4F430047465743
:10557600005061636B65742067656E657261746562
:10558600643A202573200D0A00506B74204C656E1A
:105596006774683A2025640D0A002D2D2D2D2D2DBA
:1055A6002D204D656469756D20436F6C6C617220AA
:1055B6002D2D2D2D2D2D2D0D0052544320616E6461
:1055C6002047505320496E697420446F6E65200D44
:1055D600007B4325642C4F4E2C252E31667D0053CF
:1055E600656E64696E67204F4E205061636B65740B
:1055F6003A202573200D0A004D61696E3A205761E5
:105606006B6575702054696D653A202564203A20D3
:105616002564203A2025640D0A004D61696E3A2002
:1056260056616C69642074696D65206F6E20475001
:10563600532C2073657474696E672052544320544A
:10564600696D65200D004D61696E3A20536C656584
:10565600702054696D653A202564203A202564201F
:105666003A2025640D0A0D0A0D0A0D0A004D6169DE
:105676006E3A20476F696E6720746F20736C65659C
:1056860070206E6F77200D0A0D005265636965768E
:105696006564205061636B65740D00252E366600C7
:1056A6004750524D4300474E524D430047504747DF
:1056B6004100474E474741004750532050756C7391
:1056C6006520476976656E200D004750532055705A
:1056D6000D004750532055702046696E616C206658
:1056E60061696C0D0047505320536C6565700D0061
:1056F60047505320536C6565702046696E616C2077
:105706006661696C0D004C6F636174696F6E3A2057
:10571600002566202C202566200D0A00494E56419C
:105726004C49440D00446174652F54696D653A20F7
:10573600002564202F202564202F2025642020208A
:105746002D202000494E56414C4944200D00256429
:10575600203A200048616E64656C696E6720475088
:1057660053204E6F770D004750532D3E48616E64AF
:105776006C65723A20526574204E6F204C6F632020
:10578600696E206D532054696D65722061743A20EC
:10579600256C750D0A004750532D3E48616E646CAA
:1057A60065723A20526574204C6F6320696E206DD5
:1057B600532054696D65722061743A20256C750D0D
:1057C6000A00252E3266004E004E4E4500454E45D7
:1057D60000455345005353450053535700575357FD
:1057E60000574E57004E4E5700616C61726D48610E
:1057F6006E646C65723A4E65787420616C61726D88
:1058060020666F723A202564202F2025640D0A0039
:10581600616C61726D48616E646C65723A20547297
:1058260075652053657474696E6720616C61726D6D
:1058360020666F723A202564202F2025640D0A0009
:10584600616C61726D48616E646C65723A20466186
:105856006C73652053657474696E6720616C617240
:105866006D20666F723A202564202F2025640D0A6C
:1058760000636D642E6465746563742D5254432011
:1058860054696D65207365740D00636D642E6465DF
:10589600746563742D3E45786974696E670D0041C1
:1058A60044434C3A2025642C20414443483A202561
:1058B60064004144433A20256C750D0A0076636303
:1058C6007831303A2025640D0A0052454C2C0046AA
:1058D600697273742074696D65206D6F746F7220C0
:1058E60072756E0D0072656C6561736548616E64F4
:1058F6006C65722D3E566F6C74616765204C6F77D0
:105906000D0053656E64696E673A2025730D0A00B3
:1059160072656C6561736548616E646C65722D3E77
:0E59260052656C656173652074696D650D00D6
:00000001FF
