:100000000C94E0000C94D6090C9408010C9408019F
:100010000C9408010C9408010C9408010C94190923
:100020000C9408010C9408010C9408010C9408012C
:100030000C9408010C9408010C940A010C9408011A
:100040000C9408010C9408010C945A090C940801B2
:100050000C9408010C9408010C9408010C940801FC
:100060000C94BE180C940801C80ED50ED90EDF0EE4
:10007000E50EFA0E030F0A0F0F0F150F150F150FD0
:10008000150F150F150F150F150F150F150F150F50
:10009000150F150F150F150F150F150F150F150F40
:1000A000150F150F150F150FC80ECE0ED50ED90E44
:1000B000DF0EE50EEB0EEF0EF40E6E616E00696E54
:1000C000660000407A10F35A00A0724E1809001022
:1000D000A5D4E80000E87648170000E40B540200BD
:1000E00000CA9A3B000000E1F505000080969800E8
:1000F000000040420F000000A08601000000102711
:1001000000000000E80300000000640000000000A0
:100110000A00000000000100000000002C76D888D2
:10012000DC674F0823DFC1DFAE59E1B1B796E5E3E5
:10013000E453C63AE651997696E8E6C28426EB89FE
:100140008C9B62ED407C6FFCEFBC9C9F40F2BAA59B
:100150006FA5F490055A2AF75C936B6CF9676DC133
:100160001BFCE0E40D47FEF520E6B500D0ED902E37
:100170000300943577050080841E080000204E0A95
:10018000000000C80C333333330F986E12831141D3
:10019000EF8D2114893BE65516CFFEE6DB18D1849E
:1001A0004B381BF77C1D901DA4BBE42420328472C5
:1001B0005E228100C9F124ECA1E53D278F21A32116
:1001C00011241FBECFEFD8E0DEBFCDBF15E0A0E009
:1001D000B1E0E8EFF1E502C005900D92A434B1075B
:1001E000D9F727E0A4E4B5E001C01D92A63FB2070D
:1001F000E1F710E0C0EED0E004C02197FE010E94BC
:100200001422CE3DD107C9F70E9486200C94FA280B
:100210000C9400001F920F920FB60F9211248F932F
:100220009F93EF93FF9380914D05813019F5809155
:100230004C058150E9F48091490590914A0580FF71
:1002400002C0289A01C028988091490590914A05DA
:100250009695879590934A058093490580914B0523
:10026000815080934B05811102C010924D0583E0AF
:1002700080934C0580914F05811152C080914805B3
:100280008823E9F0809147058150809347058111CB
:1002900047C01092480510924E05E0915105F0E0DC
:1002A00080914605EE5AFA4F8083809151058F5F09
:1002B000809351058032A0F11092510531C0809198
:1002C0004E05811110C019992BC081E080934E0515
:1002D0001092460594E09093470598E09093450569
:1002E000809344051DC0809147058150B9F48091E9
:1002F0004405199B05C090914605982B909346059F
:10030000880F809344058091450581508093450571
:10031000811103C081E08093480583E08093470505
:10032000FF91EF919F918F910F900FBE0F901F90B3
:10033000189510924D0510924E0510924F05289A6F
:10034000209A21989FB7F89481E287BD82E084BD0E
:1003500085BDEEE6F0E080818260808316BC9FBFA1
:10036000089510924F05089581E080934F050895F8
:1003700090915005809151059817E1F3E92FF0E035
:10038000EE5AFA4F80819F5F903218F49093500597
:1003900008951092500508959091510581E02091A3
:1003A0005005291301C080E0089510925105109264
:1003B0005005089590914D0581E0913009F080E05D
:1003C000089590914D059130E1F393E090934C05A1
:1003D0009AE090934B05880F990B926090934A0591
:1003E0008093490581E080934D050895CF93DF9375
:1003F000EC018991882319F00E94E101FACFDF9185
:10040000CF910895CF93DF93FC018491EF01219662
:10041000882321F00E94E101FE01F7CFDF91CF9107
:100420000895CF93DF93D82FC62F60E083E40E9416
:100430009F088D2F0E94D0058C2F0E94D005C82FB9
:1004400060E083E40E947B088C2FDF91CF910895B8
:1004500060E08F770C9411028AE10E94280240919B
:100460007405509175056091760570917705411579
:10047000514A6C4B734310F09DE901C094EA891B0B
:10048000089589E10E94280285958595089583E164
:100490000E94280290917305891B08950E944702CB
:1004A000882341F0809173058F5F8093730580E00E
:1004B0000C9428028FEF08958EE10E942802829505
:1004C0008F7008958DE10E94280290E034E09595A8
:1004D00087953A95E1F78A3091057CF4FC01EE0F9F
:1004E000FF1F8E0F9F1FFC01E95FFE4F80819181EE
:1004F000A281BC018A2F90E0089560E271EA87E052
:1005000090E008958F929F92AF92BF92CF92DF9228
:10051000EF92FF9288E20E9428028770C82ED12CA9
:10052000E12CF12CFE2CED2CDC2CCC2489E20E9459
:100530002802C80ED11CE11CF11CFE2CED2CDC2C79
:10054000CC248AE20E942802C80ED11CE11CF11CB6
:1005500088E20E94280283FF03C088E0E81AF108BD
:100560000E9462024B015C01C701B6010E94202477
:1005700020E030E040E85BE40E94AC2420E034E27C
:1005800044EF5BE40E9476236B017C01C501B4015A
:100590000E941E2420E034E244EF58E40E947623B7
:1005A0009B01AC01C701B6010E94AC240E94E82364
:1005B000FF90EF90DF90CF90BF90AF909F908F9083
:1005C000089580680C94110263E881E80E9411028A
:1005D00082E10E94280283FD07C08FE19EE401971B
:1005E000F1F700C00000F4CF68E082E90E94110238
:1005F00081E00895DF92EF92FF920F931F93CF93C4
:10060000DF93F82ED92EC62F82E20E942802D82F1F
:100610008C2F90E08D0F911D8F3F910519F010F0F8
:10062000CD2FC095EF2C0F2D1D2D802F8E198C17DF
:1006300038F4F80161918F0180E80E941102F5CF32
:100640006C2F6D0F82EA0E9411028C2FDF91CF91E7
:100650001F910F91FF90EF90DF900895CF93DF935C
:100660000E944702882371F08DE00E942802D82F53
:1006700080E00E942802C82F6D2F8DE80E94110291
:100680008C2F01C08FEFDF91CF91089561E881E851
:100690000C94110260E881E80C9411020C944A0356
:1006A000823020F0823118F081E101C082E0825076
:1006B000682F606889E80C941102AF92BF92CF92C4
:1006C000DF92EF92FF920F931F93CF93DF9360938C
:1006D0007405709375058093760590937705DC011A
:1006E000CB019C01AD0160E070E080E090E003E1AF
:1006F0000E94C322A12CE8E4BE2EF8EECF2EDD240A
:10070000D394E12CF12C00E010E00E942F22C22FA4
:10071000B32E6A017B01182FD92F00E10E94DE223F
:10072000622F86E80E9411022C2F3B2DA601B701F3
:10073000812F9D2F08E00E94DE22622F87E80E9411
:1007400011026C2F88E8DF91CF911F910F91FF90DC
:10075000EF90DF90CF90BF90AF900C941102CF92AA
:10076000DF92EF92FF926B017C0160E083E40E94D4
:10077000570860E083E40E947B0861E083E40E9404
:10078000570861E083E40E949F088FE19EE401978F
:10079000F1F700C0000061E083E40E947B088FE174
:1007A0009EE40197F1F700C0000082E40E94280255
:1007B000823109F50E944A03C701B6010E945D0318
:1007C00060E08EE80E94110260E08FE80E94110252
:1007D0008CE00E942802682F63608CE80E9411025E
:1007E00064E086EA0E94110284E10E9450030E94A4
:1007F000460381E001C080E0FF90EF90DF90CF9052
:100800000895CF93853028F0C82F893018F0C8E0BC
:1008100001C0C5E08DE10E9428026C2F70E0645099
:100820007109660F771F817F682B8DE9CF910C943A
:100830001102CF93C82F692F80EA0E9411026C2FFA
:1008400081EACF910C941102682F89EB0C9411026C
:100850008EE10E942802682F64608EE90C941102D8
:100860008EE10E942802682F6B7F8EE90C941102A2
:10087000109272058DE10E942802682F6E7F8DE92B
:100880000C94110281E0809372058DE10E94280290
:10089000682F61608DE90C941102CF93C82F0E94DC
:1008A0004603CC2319F00E94420402C00E9438047F
:1008B00060E08DE80E94110260E082EA0E9411026D
:1008C00081E0CF910895CF93DF93D82F82E10E94EA
:1008D0002802C82FDD2339F00E9442046D2F82EADE
:1008E0000E94110202C00E9438046C2F82E90E940B
:1008F0001102C6FF18C0C5FD16C010927305809185
:100900007205882311F082E201C083E10E9428026F
:10091000C82F80E10E942802682F8DE80E941102F2
:100920000E9446030FC081E00E942802863841F0F1
:1009300060E08DE80E94110266E881E80E941102E1
:10094000C0E0D0E08C2FDF91CF910895CF93DF935B
:10095000EC01181619063CF40E9442046C2F82EA3E
:100960000E94110202C00E94380465E881E8DF910C
:10097000CF910C941102CF92DF92EF92FF92CF931E
:10098000DF930E9462026B017C010E945C02D82FFF
:1009900086E20E942802C82FA701960104C056953E
:1009A000479537952795DA95D2F768EE73E080E0A2
:1009B00090E00E94F2216C2F213131054105510553
:1009C00010F0686001C0677F86EADF91CF91FF90E9
:1009D000EF90DF90CF900C941102CF93C82F863008
:1009E00020F08D3060F4863059F465EC81EB0E9484
:1009F00011026CE087EB0E941102C6E009C0CCE056
:100A000063EC81EB0E9411026AE087EB0E94110205
:100A10008EE10E9428028F7090E1C99F90011124FD
:100A2000682F622B8EE90E941102CF910C94BB04B7
:100A3000CF9369372EE172078105910590F1613AF4
:100A400028E272078105910570F1613F2CE372077E
:100A50008105910550F1613421E572078105910509
:100A600030F163312AE772078105910510F1653E87
:100A700022EA720781059105F0F0653224EF7207D2
:100A800081059105D0F0693428EE720721E08207D4
:100A90009105A8F06139704D8340910590F0C9E04F
:100AA00011C0C0E00FC0C1E00DC0C2E00BC0C3E088
:100AB00009C0C4E007C0C5E005C0C6E003C0C7E088
:100AC00001C0C8E08DE10E9428028F7090E1C99FAB
:100AD00090011124682F622B8DE90E941102CF91A1
:100AE0000C94BB040F9362E082E40E94570862E01A
:100AF00082E40E949F0800E020E040E061E080E0A6
:100B00000E94AB0560EC7AEC89E896E30E94AF03A3
:100B1000811105C085E491E00E940627FFCF62E1C4
:100B20007AE780E090E00F910C9418051F93CF9323
:100B3000DF93EC01162F0E94720580E00E944D04A5
:100B4000612FCE010E94FA020E94E402DF91CF9150
:100B50001F910C944A030F9394B1986294B924980E
:100B60002C9A437094E0499FA001112423702064C3
:100B7000422BA62FA170B0E094E0AA0FBB1F9A955C
:100B8000E1F74A2BE82FE170F0E025E0EE0FFF1FC0
:100B90002A95E1F7E42BECBD01700DBD0F9108958E
:100BA0008EBD0DB407FEFDCF8EB50895BF92CF92D6
:100BB000DF92EF92FF920F931F93CF93DF93EC019D
:100BC000BB24B39488E8C82E83E1D82EE12CF12C05
:100BD00002E310E08DA99EA92BA93CA9281739078B
:100BE000B9F12CAD222319F0213069F027C0FE01A4
:100BF000E80FF91F81818B3711F5BCAEC8AED9AEB5
:100C0000EAAEFBAE1CC0FE01E80FF91F61818BE26A
:100C100096E06D3739F40E94311B8BE296E00E941A
:100C2000C61A0CC00E94311B811108C088AD99AD55
:100C3000AAADBBAD892B8A2B8B2B09F41CAE8DA9D9
:100C40009EA90196B8010E94DE219EAB8DABC2CF5A
:100C5000DF91CF911F910F91FF90EF90DF90CF9098
:100C6000BF900895FC0187A9882389F040AD51AD5C
:100C700062AD73AD411551056105710541F04150FB
:100C800051096109710940AF51AF62AF73AF089567
:100C9000AF92BF92CF92DF92FF920F931F93CF93A9
:100CA000DF93EC01F62E809179058E010E5F1F4FC8
:100CB000882309F488C08BE7888383E489831F92A3
:100CC00081E08F9387EF94E09F938F931F930F930F
:100CD0000E943627BC016F5F7F4F600F711FF801C4
:100CE000E80FF91F1CE2108389E795E00E94440C8D
:100CF000BC016F5F7F4FFC01108389E795E00E9484
:100D0000630CBC016F5F7F4FFC01108389E795E0A6
:100D10000E947A125C01FFEFAF1ABF0AFC01108338
:100D20001092E2058091EA058F938091E9058F93F7
:100D30008091E8058F938091E7058F938CE591E092
:100D40009F938F93BF92AF920E9436276C01FFEF63
:100D5000CF1ADF0ACA0CDB1CF501E80FF91F10835C
:100D6000809187068F93809186068F938091890664
:100D70008F93809188068F9380918B068F938091BB
:100D80008A068F9380E691E09F938F93DF92CF92B4
:100D90000E943627F601E80FF91F01968C0D9D1D64
:100DA00010832DB73EB7285E3F4F0FB6F8943EBF75
:100DB0000FBE2DBF8F010C5F1F4F32E0F31258C0E2
:100DC00069E671E057C08BE7888383E489831F92CB
:100DD00081E08F9387EF94E09F938F931F930F93FE
:100DE0000E9436275801A80EB91E2CE2D22EF5011A
:100DF000D082019661E771E0800F911F0E942C263E
:100E00008501085F1F4FF501D782809187068F9378
:100E1000809186068F93809189068F9380918806B2
:100E20008F9380918B068F9380918A068F9380E6B3
:100E300091E09F938F931F930F930E943627F801A1
:100E4000E80FF91F0196800F911FD0822DB73EB792
:100E5000205F3F4F0FB6F8943EBF0FBE2DBF8F01EE
:100E60000C5F1F4F31E0F31203C068E771E002C06E
:100E70006DE671E00E942C268DE7F80180831182D7
:100E8000DF93CF938CE791E09F938F930E94E926A5
:100E9000FE0101900020E9F73197CF018C1B9D0BDB
:100EA000EC019F938F9384E991E09F938F930E942D
:100EB000E926EDB7FEB738960FB6F894FEBF0FBE21
:100EC000EDBFCE01DF91CF911F910F91FF90DF9089
:100ED000CF90BF90AF900895CF93DF93CDB7DEB79B
:100EE00061970FB6F894DEBF0FBECDBFE5E7F6E021
:100EF00086A197A19E838D8384A195A19C838B83DA
:100F000082A193A19A8389838EE090E098878F8352
:100F100081E090E09A87898786E190E09C878B87C3
:100F2000CE0101960E94201481E08093780561969D
:100F30000FB6F894DEBF0FBECDBFDF91CF910895FD
:100F4000E5E7F6E083E090E097A386A38EE190E0EA
:100F500095A384A313A212A21092BE061092BD06FE
:100F600021E030E03093BC062093BB061092BA0615
:100F70001092B90621E130E030AF27AB96AB85ABDC
:100F800014AA13AA08958EEC96E00E94320680916E
:100F9000CA069091CB06A091CC06B091CD060097E1
:100FA000A105B10559F00197A109B1098093CA06BD
:100FB0009093CB06A093CC06B093CD0689E795E03D
:100FC0000C9465128093CE062091010730910207A0
:100FD000F901E253F94F8183C901019682339105EA
:100FE0002CF4909302078093010708951092020752
:100FF0001092010708950E94720580E395E7A0E032
:10100000B0E08093CA069093CB06A093CC06B09331
:10101000CD068091CA069091CB06A091CC06B091E6
:10102000CD06892B8A2B8B2BD1F080E00E946304A4
:10103000882379F385E992E00E9406270E944702FF
:10104000882329F00E944E020E94E207F7CF8EEC1F
:1010500096E00E94D605809178058823D1F2089504
:10106000833479F08434C1F0823401F524B181E015
:1010700090E001C0880F6A95EAF78095822384B9D1
:10108000089527B181E090E001C0880F6A95EAF7E2
:101090008095822387B908952AB181E090E001C04C
:1010A000880F6A95EAF7809582238AB90895833478
:1010B00071F08434B1F08234E9F424B181E090E03D
:1010C00001C0880F6A95EAF7822B84B9089527B189
:1010D00081E090E001C0880F6A95EAF7822B87B91A
:1010E00008952AB181E090E001C0880F6A95EAF77F
:1010F000822B8AB90895833471F08434B1F082343C
:10110000E9F425B181E090E001C0880F6A95EAF723
:10111000822B85B9089528B181E090E001C0880F45
:101120006A95EAF7822B88B908952BB181E090E0A7
:1011300001C0880F6A95EAF7822B8BB90895833432
:1011400079F08434C1F0823401F525B181E090E07A
:1011500001C0880F6A95EAF78095822385B90895C2
:1011600028B181E090E001C0880F6A95EAF7809588
:10117000822388B908952BB181E090E001C0880FE7
:101180006A95EAF7809582238BB90895442319F074
:10119000413019F008950C949F080C947B08833417
:1011A00031F0843431F08234B1F423B103C026B17C
:1011B00001C029B181E090E0062E02C0880F991F7E
:1011C0000A94E2F730E08223932302C09595879535
:1011D0006A95E2F7089581E008950895E1E8F0E066
:1011E00080818260808308951092810008958091AB
:1011F00084002091850090E0922B96958795089524
:101200001092B200E0EBF0E08081826080838EE398
:101210008093B30017BAE0E7F0E0808182608083BA
:10122000E1EBF0E080818560808308951092B10049
:1012300008951F920F920FB60F9211242F933F9390
:101240004F935F936F937F938F939F93AF93BF93CE
:10125000EF93FF930E94C30717BA80910C079091F8
:101260000D07A0910E07B0910F070196A11DB11DAA
:1012700080930C0790930D07A0930E07B0930F0770
:10128000FF91EF91BF91AF919F918F917F916F915E
:101290005F914F913F912F910F900FBE0F901F9034
:1012A000189560910C0770910D0780910E07909131
:1012B0000F0708951F920F920FB60F9211242F93CC
:1012C0003F934F935F936F937F938F939F93AF93CE
:1012D000BF93EF93FF938091C60080930B0780919B
:1012E0000B070E94E20782E08093C000FF91EF911C
:1012F000BF91AF919F918F917F916F915F914F912E
:101300003F912F910F900FBE0F901F9018958091D5
:101310001007909111079093EF078093EE0783E3F6
:101320008093C4001092C50088E98093C10082E0D8
:101330008093C00008959091C00095FFFCCF8093EA
:10134000C600089590910001992329F00E949B09FD
:1013500080E090E0089581E090E00895EF92FF92A0
:101360000F931F93CF93DF937C018B01EC01CE0190
:101370008E199F098017910724F489910E949B0977
:10138000F6CFC801DF91CF911F910F91FF90EF90A1
:10139000089583B7816083BF83B7817F846083BFF3
:1013A0007894889583B78E7F83BF08951F920F929C
:1013B0000FB60F921124E09A0F900FBE0F901F905E
:1013C00018950F931F93CF93DF93EC018B010E942D
:1013D000F708998388831B830A83DF91CF911F913C
:1013E0000F910895CF93DF93EC010E94F7084A8193
:1013F0005B8141155105A9F02881398128173907EA
:1014000028F4BC01621B730B9B0105C0821B930B6C
:101410009C012150304881E02417350718F480E002
:1014200001C081E0DF91CF910895FC01108211820B
:1014300013821282148215821682178210861286F7
:10144000118613861486158616861786118A108AC9
:10145000128A138A148A158A168A108E178A118E98
:10146000128E138E148E158E12A213A214A215A220
:1014700016A217A210AA11AA12AA13AA14AA15AA90
:1014800016AE17AEDC01DE9616961D921D921D92C9
:101490001C9219971E961C9211961C9211971696E3
:1014A0001D921D921D921C9219971E961C921196C8
:1014B0001C92119716961D921D921D921C921997BF
:1014C0001E961C9211961C92119716961D921D92B3
:1014D0001D921C9219971E961C9211961C921197A0
:1014E00016961D921D921D921C9219971E961C9283
:1014F00011961C9211961C92509682E08C93119634
:101500001C9211961C9211961C92119611961C9287
:101510001E92129611961C921E9212961D921D9268
:101520001D921C92139714961D921D921D921C924F
:10153000139714961D921D921D921C921397149648
:101540001D921D921D921C92139714961D921D922E
:101550001D921C921397E957FF4F108208952FEBAD
:10156000260F862F062E000C990B263010F4C797F5
:1015700008956156663018F4875591090895C0970B
:101580000895FF920F931F93CF93DF93EC01F880A0
:101590002DE2F21201C02196CE010E9419259B0175
:1015A000AC01A4E6B0E00E941A22FE014991242F6A
:1015B000042E000C330B205331092A303105A8F3D7
:1015C0004E3241F52181022E000C330B205331099C
:1015D0002A303105F8F44AE0429F8001439F100D04
:1015E0001124012E000C220B330B600F711F821F80
:1015F000931F0281002E000C110B005311090A30B9
:10160000110540F4012E000C220B330B600F711FEB
:10161000821F931F2DE2F21207C09095809570955E
:1016200061957F4F8F4F9F4FDF91CF911F910F910A
:10163000FF9008952F923F924F925F926F927F9208
:101640008F929F92AF92BF92CF92DF92EF92FF92D2
:101650000F931F93CF93DF93D82FC92F8B010E9435
:10166000192524E630E040E050E00E94F2214901D3
:101670005A019B01AC0160E876E988E990E00E949C
:10168000AE216B017C01F80191828082ED2FFC2F4D
:101690002191822F022E000C990BC0970A97C0F35C
:1016A0002E3239F51F0180E8882E86E9982E88E9C8
:1016B000A82EB12C9AE0492E512C612C712CF101ED
:1016C000C1911F010C2E000CDD0BE097CA30D10533
:1016D00080F4C501B401A30192010E94F2214901E5
:1016E0005A01DE010E942522C60ED71EE81EF91EF1
:1016F000E6CFA5E0B0E0A70196010E941A226F5F35
:101700007F4F8F4F9F4F23E030E040E050E00E943A
:10171000F221F80122833383448355831682DF91BB
:10172000CF911F910F91FF90EF90DF90CF90BF90DE
:10173000AF909F908F907F906F905F904F903F9071
:101740002F90089520E030E044E351E40E940A2302
:1017500020E030E044EB51E40E9476230E94E8232D
:10176000CB0160E170E00E94DE21FC01EE0FFF1F63
:10177000EB5DFE4F808191810895CF93DF93EC0163
:1017800087E0FE017096DE01129601900D928A9517
:10179000E1F787E0FE017796DE01199601900D9240
:1017A0008A95E1F70E9451096E8F7F8F88A399A3D4
:1017B00081E089838883DF91CF9108959B01BC01EB
:1017C000605F7F4FC9010C941A0B9B01BC01695EDD
:1017D0007F4FC9010C941A0BCF92DF92EF92FF92C8
:1017E000CF93DF93EC0119826C817D818E819F8183
:1017F0000E941E2428E23BE64EE65EE40E94762329
:101800006B017C016A817B8180E090E00E941E2454
:101810009B01AC01C701B6010E940A232885211152
:101820009058DF91CF91FF90EF90DF90CF90089587
:10183000CF92DF92EF92FF92CF93DF93EC01198268
:101840006B857C858D859E850E941E2428E23BE663
:101850004EE65EE40E9476236B017C0169857A8501
:1018600080E090E00E941E249B01AC01C701B601FC
:101870000E940A232F8521119058DF91CF91FF906C
:10188000EF90DF90CF900895CF93DF93EB010E940C
:10189000EC0B9F938F937F936F9386EA92E09F93D5
:1018A0008F93DF93CF930E9436272DB73EB7285FE3
:1018B0003F4F0FB6F8943EBF0FBE2DBF8C0F9D1F3C
:1018C000DF91CF910895CF93DF93EB010E94180C25
:1018D0009F938F937F936F9386EA92E09F938F936A
:1018E000DF93CF930E9436272DB73EB7285F3F4F37
:1018F0000FB6F8943EBF0FBE2DBF8C0F9D1FDF911A
:10190000CF910895CF93DF93EC018E819F81A885BD
:10191000B9858A839B83AC83BD830E9451096A8702
:101920007B878C879D8781E089838883DF91CF9136
:101930000895CF93DF93EC018E819F81A885B985AF
:101940008A839B83AC83BD830E9451096A877B870E
:101950008C879D8781E089838883DF91CF9108956B
:10196000CF93DF93EC01CB010E94C10A6E837F838A
:1019700088879987DF91CF910895CF93DF93EC010A
:10198000CB010E9419256E837F8388879987DF9119
:10199000CF910895FC0111826281738184819581C8
:1019A00024E630E040E050E00E94F221CB01805379
:1019B000984F0895CF92DF92EF92FF92FC0111822F
:1019C000628173818481958124E6C22ED12CE12C21
:1019D000F12CA70196010E94F221CA01B901A701C9
:1019E00096010E94F221862FFF90EF90DF90CF901A
:1019F0000895FC011182628173818481958120E1C7
:101A000037E240E050E00E94F221822F0895FC016D
:101A10001182628173818481958120E432E44FE0F8
:101A200050E00E94F221822F0895FC011182628110
:101A300073818481958120E137E240E050E00E948B
:101A4000F221CA01B90124E630E040E050E00E94F2
:101A5000F221862F0895CF92DF92EF92FF92FC0140
:101A60001182628173818481958124E6C22ED12CFA
:101A7000E12CF12CA70196010E94F221CA01B901C3
:101A8000A70196010E94F221862FFF90EF90DF9030
:101A9000CF900895FC0111826281738184819581C8
:101AA00024E630E040E050E00E94F221862F0895C5
:101AB000CF93DF93EC018A859B85AC85BD858E83B2
:101AC0009F83A887B9870E9451096A837B838C838F
:101AD0009D8381E089838883DF91CF910895CF939F
:101AE000DF93EC01CB010E94C10A6A877B878C8758
:101AF0009D87DF91CF910895CF93DF93EC018A8585
:101B00009B85AC85BD858E839F83A887B9870E94FE
:101B100051096A837B838C839D8381E089838883D9
:101B2000DF91CF910895CF93DF93EC01CB010E9419
:101B300019256A877B878C879D87DF91CF910895D0
:101B4000CF93DF93EC01BC0140960E942C260E94AB
:101B5000510968A379A38AA39BA381E08DA38CA3D9
:101B6000DF91CF91089540E150E00C943326BF926D
:101B7000CF92DF92EF92FF920F931F93CF93DF9359
:101B8000EC01FC01EA57FF4FB080BB2009F499C07B
:101B9000319660810E94AF0A182FFE01E857FF4F6F
:101BA0006081CE010E94AF0A40E1149F800D112494
:101BB000FE01EB57FF4F9081891374C0B596808169
:101BC0009181A281B3810196A11DB11D8083918372
:101BD000A283B3838E0107561F4FD8018C918823AF
:101BE00061F0389780819181A281B3810196A11D16
:101BF000B11D80839183A283B383FE01EA56FF4F18
:101C000080818823C9F0813089F5CE0182960E94B7
:101C1000820CCE01C0960E94990CF8018081882325
:101C200029F1CE010E94BD0BCE01CE960E94580D27
:101C3000CE01845B9F4F18C0CE01C0960E94990CC4
:101C4000D8018C91882341F0CE010E94BD0BCE01BA
:101C5000865A9F4F0E94580DCE0188599F4F0E946F
:101C60007C0DCE018A589F4F0E94580D8E0104565C
:101C70001F4FF801C081D181209709F407C1D80115
:101C8000ED91FC9166A177A18EA19FA10E942326D0
:101C9000892B09F0FBC0CE010E94A00D0AA4DBA590
:101CA000C02DEACFCA55DF4F88819981AA81BB81B7
:101CB0000196A11DB11D88839983AA83BB83B12C92
:101CC000E5C07C01B7E9EB0EF11CF70130818A56C3
:101CD0009F4F6C018E0104561F4F31113EC07E0193
:101CE00097E8E90EF11C6BEA72E0C7010E94232617
:101CF000892B39F061EB72E0C7010E942326892B02
:101D000011F481E012C067EB72E0C7010E94232644
:101D1000892B39F06DEB72E0C7010E942326892BD5
:101D200019F4F601108203C082E0D6018C93C656E6
:101D3000DF4F88819981F80191838083C081D181AF
:101D4000209709F4A3C0B7018EA19FA10E9423266A
:101D500097FF97C08AA59BA5EECFDC01EC91E230FE
:101D600009F463C0CE0189579F4FDC012C912223D7
:101D700009F45BC0B0E2EB9FF0011124E32B319733
:101D8000E932F10508F051C0EC5CFF4F0C941422CD
:101D9000BC01CE01C0960E94B00C47C0FE01E756C0
:101DA000FF4F81E0213461F52CC0BE01605F7F4FA1
:101DB00009C081E0233509F080E08E8B36C0BE017A
:101DC000695E7F4F0E941A0B30C081E0273509F011
:101DD00080E08D8F2AC0BC01CE01CE9624C0BC010C
:101DE000CE01845B9F4F1FC0BC01CE0182960E9432
:101DF000BD0C1BC0FE01E756FF4F81E021330CF400
:101E000080E0808312C0BC01CE0188599F4F0E94A0
:101E1000930D0BC0BC01CE018A589F4F04C0BC017A
:101E2000CE01865A9F4F0E946F0DF801C080D1806D
:101E3000C957DF4FC114D10449F1D801ED91FC918C
:101E400066A177A1F60186A197A10E942326892B7E
:101E5000E9F4D60198962D913C919997F7018081EC
:101E600090E08217930794F02817390721F4BE01F8
:101E7000C6010E94B30DD6019A96CD90DC909B9737
:101E8000D9CF892B19F0D8011D921C928B2DDF918F
:101E9000CF911F910F91FF90EF90DF90CF90BF9067
:101EA0000895DF92EF92FF920F931F93CF93DF93EA
:101EB0009C01FC01E256FF4F80819181A281B38198
:101EC0000196A11DB11D80839183A283B383C901B3
:101ED00088569F4F7C01E901CA57DF4F643279F180
:101EE0002CF46A3069F06D30C9F50AC06A3241F0ED
:101EF0006C32A1F5F901EB57FF4F80818627808373
:101F0000D62E8901F70180818F3050F4F901E80F56
:101F1000F11DE957FF4F1082C9010E94B70D01C0A2
:101F200080E0F801E956FF4F90819F5F9083F701B1
:101F3000108291E0FAE2DF1290E0988327C0FC0162
:101F40001082F901E956FF4F108272971082719644
:101F500082E0808318823396108217C0F701808157
:101F60008E3048F491E0980F9083F901E80FF11D4D
:101F7000E957FF4F60838881811107C0F901EB5752
:101F8000FF4F90816927608301C080E0DF91CF918E
:101F90001F910F91FF90EF90DF900895AF92BF9245
:101FA000CF92DF92EF92FF920F931F93CF93DF9325
:101FB0007B015A0169018C0106561F4FF801C0814F
:101FC000D1812097A9F06EA17FA1C5010E9423268F
:101FD00097FD0EC0892B29F488A599A5C816D906A6
:101FE0003CF08E01065D1F4F0AA4DBA5C02DE9CF92
:101FF000F701D3A7C2A7F801F182E082DF91CF9168
:102000001F910F91FF90EF90DF90CF90BF90AF9016
:102010000895CF93DF93FC01DB0110A211A212A25D
:1020200013A214A215A257A346A331A720A790E19B
:10203000EF01892F19928A95E9F7BF01605F7F4F01
:10204000EB0119929A95E9F7BF01CD01DF91CF918C
:102050000C94CE0F0C9409102FEF82E597E02150DD
:1020600080409040E1F700C0000040E064E084E47C
:102070000E94C6082FEB8AED90E0215080409040EE
:10208000E1F700C0000041E064E084E40E94C6087B
:102090002FEB8AED90E0215080409040E1F700C0A6
:1020A000000040E064E084E40E94C6082FEB8AED63
:1020B00090E0215080409040E1F700C0000083ECA8
:1020C00092E00C9406270F931F93CF938C01025537
:1020D0001F4F8CED95E0A0E0B0E0F8018083918384
:1020E000A283B38383E992E00E940627C0E0F8014F
:1020F00080819181A281B381892B8A2B8B2B79F0EE
:102100000E94CC01882399F30E94B801882379F3B7
:10211000082E000C990B0E94FF26CF5FE8CF83E9C1
:1021200092E00E9406278C2FCC0F990BCF911F9124
:102130000F9108950F931F93CF93DF938C01C6E007
:10214000D0E0C8010E942C10C8010E946310892BA6
:1021500031F085ED92E00E94062781E00BC08DED05
:1021600092E00E940627219761F78CEE92E00E9490
:10217000062780E0DF91CF911F910F9108950F9373
:102180001F93CF93DF938C01C6E0D0E0C8010E947B
:102190002C10C8010E946310892B31F48FEF92E05C
:1021A0000E94062781E00BC08AE093E00E94062788
:1021B000219761F78AE193E00E94062780E0DF9192
:1021C000CF911F910F91089540E064E084E40C9456
:1021D000C60841E064E084E40C94C6080E949901BA
:1021E0000E94B101789408951F93CF93DF93EC017F
:1021F000162F0E94EE1064E084E40E947B0864E0E5
:1022000084E40E945708CC57DF4F1883DF91CF91A9
:102210001F9108950F931F93CF93DF93EC0180E3F9
:1022200093E00E940627CE010E94E41018828E01DE
:1022300002551F4F80E395E7A0E0B0E0F8018083EE
:102240009183A283B383F80180819181A281B381BC
:10225000892B8A2B8B2BC9F00E94CC01882331F06B
:102260000E94B801682FCE010E94510F88818823F7
:1022700051F3F80183818F9382818F9381818F93B2
:1022800080818F9383E493E006C01F921F921F9278
:102290001F928FE693E09F938F930E94E926CE01D1
:1022A0000E94E9100F900F900F900F900F900F90D9
:1022B00080E0DF91CF911F910F910895EF92FF92EF
:1022C0000F931F93CF93DF93EC018EE993E09F93DD
:1022D0008F930E94E9260F900F908881882309F13F
:1022E000CE010E94180C162F072FF82EE92ECE01D2
:1022F0000E94EC0BEF92FF920F931F939F938F938B
:102300007F936F9389EA93E09F938F930E94E926CE
:102310008DB79EB70A960FB6F8949EBF0FBE8DBFBD
:1023200004C084EB93E00E9406278DEB93E09F931B
:102330008F930E94E9260F900F908AA1882359F16C
:102340008E010E5D1F4FC8010E94CA0CF82EE92EA7
:10235000C8010E94DA0C1BA2EF92FF921F928F938A
:102360006CA17DA18EA19FA120E137E240E050E069
:102370000E94F2211F922F9389EC93E09F938F93F9
:102380000E94E9268DB79EB708960FB6F8949EBFB7
:102390000FBE8DBF04C08CED93E00E94062788A974
:1023A000882309F484C019AA6AA97BA98CA99DA9CC
:1023B00020E432E44FE050E00E94F2212A3020F481
:1023C00080E390E00E94FF2619AA6AA97BA98CA944
:1023D0009DA920E432E44FE050E00E94F2211F92D8
:1023E0002F9386EE93E09F938F930E94E9268E01B0
:1023F000005D1F4FC8010E94150D0F900F900F90A8
:102400000F908A3020F480E390E00E94FF26C801FC
:102410000E94150D1F928F9386EE93E09F938F93EA
:102420000E94E926C8010E942B0D0F900F900F907B
:102430000F908A3020F480E390E00E94FF26C801CC
:102440000E942B0D1F928F9387EF94E09F938F93A1
:102450000E94E92619AA6AA97BA98CA99DA924E64C
:1024600030E040E050E00E94F2210F900F900F907A
:102470000F906A3020F480E390E00E94FF2619AAB2
:102480006AA97BA98CA99DA924E630E040E050E030
:102490000E94F2217F936F9384EB94E09F938F933C
:1024A0000E94E9260F900F900F900F9004C084EBCC
:1024B00093E00E94062783E992E0DF91CF911F917C
:1024C0000F91FF90EF900C940627FC01E255FF4F0F
:1024D000408151816281738141155105610571050A
:1024E00041F0415051096109710940835183628370
:1024F00073830895CF93DF93EB01FC01EA58FF4FFC
:10250000118266817781808591850E9420249F9326
:102510008F937F936F938CEE93E09F938F93DF93D2
:10252000CF930E9436272DB73EB7285F3F4F0FB697
:10253000F8943EBF0FBE2DBF8C0F9D1FDF91CF9132
:1025400008956AE00E94BE2120E1829F900D11242F
:10255000892F0895982F92959F708F702AE0929FEF
:10256000800D11240895CF93C82F88E60E943D1A4C
:102570008C2F0E94571A0E94471A61E088E60E9439
:10258000301ACF910C94AA1ACF93DF93C82FD62F6D
:1025900088E60E943D1A8D2F0E94571A8C2F0E94A8
:1025A000571ADF91CF910C94471ACF93DF9381E1B3
:1025B0000E94B312D82F82E10E94B312C82F61E1AA
:1025C0008EEE0E94C41262E18DED0E94C41281E180
:1025D0000E94B3128E3E29F482E10E94B3128D3D17
:1025E00031F081E080932307DF91CF91089581E05E
:1025F0008093240761E18D2F0E94C41262E18C2F29
:10260000DF91CF910C94C41262E084E40E94300800
:1026100062E084E40E947B08E9E6F0E08081826069
:102620008083E89A78940895809124070895809192
:102630002307089581E080932407109223070895CB
:102640001092240781E0809323070895EF92FF9270
:102650000F931F93CF93DF93CDB7DEB729970FB6B4
:10266000F894DEBF0FBECDBF88E60E943D1A80E021
:102670000E94571A0E94471A67E088E60E94301AA3
:102680008E010F5F1F4F7E0188E0E80EF11C0E9453
:10269000AA1AF80181938F01EE15FF05C1F70E9478
:1026A000471A89818F770E94AA1290E090931307AE
:1026B000809312078A810E94AA1290E090931507D6
:1026C000809314078B810E94AA12082F10E01093A8
:1026D0001707009316078D810E94AA1290E090932D
:1026E000190780931807FE808F2D8F710E94AA1200
:1026F00090E090931B0780931A078F81F7FE06C026
:102700000E94AA1290E08053984F05C00E94AA121E
:1027100090E08459984F90931D0780931C078C81FB
:102720000E94AA1290E090931F0780931E07011544
:10273000110529F4109222071092210707C00C30CE
:10274000110544F4109322070093210781E0809340
:10275000200708C00C50110910932207009321078D
:102760001092200782E197E029960FB6F894DEBF19
:102770000FBECDBFDF91CF911F910F91FF90EF90D2
:1027800008958F929F92AF92BF92CF92DF92EF9275
:10279000FF920F931F93CF93DF93CDB7DEB72997A7
:1027A0000FB6F894DEBF0FBECDBF7C016B015A019E
:1027B00088E60E943D1A80E00E94571A0E94471A3C
:1027C00067E088E60E94301A8E010F5F1F4F4E01AE
:1027D00088E0880E911C0E94AA1AF80181938F014B
:1027E000E815F905C1F70E94471AA114B10429F0B0
:1027F00089810E94AA12F5018083C114D10429F0B5
:102800008A810E94AA12F6018083E114F10429F062
:102810008B810E94AA12F701808329960FB6F89443
:10282000DEBF0FBECDBFDF91CF911F910F91FF9003
:10283000EF90DF90CF90BF90AF909F908F900895D2
:102840001F93CF93DF93EC0188E60E943D1A80E04E
:102850000E94571A8A859B85813D27E0920734F0B4
:10286000805D97409B878A8710E805C08C5697400B
:102870009B878A8710E088810E94A1120E94571AC4
:102880008A810E94A1120E94571A8C810E94A11273
:102890000E94571A8C850E94A1120E94571A8E819D
:1028A0000E94A1120E94571A88850E94A112810FCE
:1028B0000E94571A8A850E94A1120E94571ADF911E
:1028C000CF911F910C94471A1F93CF93DF93C82F7A
:1028D000D62F142F88E60E943D1A80E00E94571AD6
:1028E000812F0E94A1120E94571A8D2F0E94A112BF
:1028F0000E94571A8C2F0E94A1120E94571ADF9132
:10290000CF911F910C94471ACF9390912307911167
:102910000DC0C82F80E00E94B312CC2311F08F7736
:1029200001C0806860E0CF910C94C412CF910895EB
:1029300080912307811106C00E94B3128095881FE1
:102940008827881F0895FF920F931F93CF93DF93DB
:10295000FC011082FB01108220912407211122C06A
:10296000EB018C0188E60E943D1A81E10E94571A12
:102970000E94471A62E088E60E94301A0E94A41A58
:10298000882381F00E94AA1AF82E0E94AA1AF80140
:10299000F082829586958695837099E1899F802D36
:1029A00011248883DF91CF911F910F91FF9008959B
:1029B000CF93DF939091240791112EC0C82F88E602
:1029C0000E943D1A8EE00E94571A0E94471A61E049
:1029D00088E60E94301A0E94AA1AD82F88E60E9420
:1029E0003D1A8EE00E94571A8D2F80620E94571A5E
:1029F0000E94471ACC2381F088E60E943D1A8EE09F
:102A00000E94571A0E94471A61E088E60E94301A15
:102A10000E94AA1A85FDF0CFDF91CF910895CF9340
:102A2000C82F88E60E943D1A88E08C0F0E94571A32
:102A30000E94471A61E088E60E94301ACF910C94F8
:102A4000AA1A0F931F93CF938C01C0E08C2F0E9482
:102A50000F15F80181938F01CF5FC833B9F7CF917C
:102A60001F910F910895CF93DF93C82FD62F88E63B
:102A70000E943D1A88E08D0F0E94571A8C2F0E94E9
:102A8000571ADF91CF910C94471A0F931F93CF934E
:102A90008C01C0E06C2FF80181918F010E943315E9
:102AA000CF5FC833B9F7CF911F910F910895CF939E
:102AB000C82F809124078823D1F088E60E943D1A10
:102AC00087E00E94571A0E94471A61E088E60E9438
:102AD000301A0E94AA1ACC2319F0C82FC06102C074
:102AE000C82FCF7E88E60E943D1A87E01AC088E68C
:102AF0000E943D1A8EE00E94571A0E94471A61E018
:102B000088E60E94301A0E94AA1ACC2321F0C82F0E
:102B1000CB7FC06402C0C82FCF7B88E60E943D1ADD
:102B20008EE00E94571A8C2F0E94571ACF910C9456
:102B3000471ACF93DF93EC01809124078823A9F0F3
:102B400088E60E943D1A87E00E94571A0E94471AA1
:102B500061E088E60E94301A0E94AA1A8C7FC82B76
:102B600088E60E943D1A87E019C088E60E943D1A57
:102B70008EE00E94571A0E94471A61E088E60E9480
:102B8000301A0E94AA1A94E0CC0FDD1F9A95E1F743
:102B9000877EC82B88E60E943D1A8EE00E94571A55
:102BA0008C2F0E94571ADF91CF910C94471ACF9324
:102BB00090912307992311F1C82F88E60E943D1AAE
:102BC0008FE00E94571A0E94471A61E088E60E942F
:102BD000301A0E94AA1ACC2319F0C82FC86002C06C
:102BE000C82FC77F88E60E943D1A8FE00E94571ABF
:102BF0008C2F0E94571ACF910C94471ACF910895A9
:102C000080912407882361F060E080E00E94331502
:102C100061E080E00E94331562E080E00C9433159F
:102C200067E080E00E94C41268E080E00E94C41265
:102C300069E080E00E94C4126AE080E00C94C41253
:102C40001F93CF93DF93883108F057C06C3308F09F
:102C500054C04C3308F051C0142FD62FC82F809188
:102C60002407882379F060E08C2F0E94331561E0FF
:102C70008D2F0E94331562E0812FDF91CF911F913C
:102C80000C943315842F0E94A11267E00E94C41295
:102C90008D2F0E94A11268E00E94C4128C2F0E9406
:102CA000A11269E00E94C4126AE081E80E94C41285
:102CB0008FE00E94B3126FE08E7F0E94C41288E6FC
:102CC0000E943D1A8EE00E94571A0E94471A61E046
:102CD00088E60E94301A0E94AA1AC82F88E60E942D
:102CE0003D1A8EE00E94571A8C2F81600E94571A5D
:102CF000DF91CF911F910C94471ADF91CF911F91D3
:102D00000895FC01892B29F04081628184810C9413
:102D100020160895EF92FF920F931F93CF93DF93A6
:102D2000EC018B017A01809124078823B9F0209768
:102D300021F080E00E940F1588830115110529F00C
:102D400081E00E940F15F8018083E114F104E9F09D
:102D500082E00E940F15F701808317C087E00E9470
:102D6000B3128F770E94AA12F701808388E00E9435
:102D7000B3128F770E94AA12F801808389E00E9423
:102D8000B3128F770E94AA128883DF91CF911F918F
:102D90000F91FF90EF900895CF93DF9300D01F9293
:102DA000CDB7DEB7AE014F5F5F4FBE016E5F7F4FA5
:102DB000CE0103960E948A16E2E1F7E08B8190E053
:102DC000958384838A8190E093838283898190E0D4
:102DD00091838083CF010F900F900F90DF91CF915F
:102DE0000895FF920F931F93CF93DF9300D01F920C
:102DF000CDB7DEB780912407882311F180E00E94CF
:102E00000F15F82E81E00E940F15082F82E00E9416
:102E10000F15182FAE014F5F5F4FBE016E5F7F4FE2
:102E2000CE0103960E94C1138B81F81207C08A81DC
:102E3000081304C081E09981911771F080E00CC003
:102E40008FE00E94B312182F117080FF04C06FE052
:102E50008E7F0E94C412812F0F900F900F90DF91F0
:102E6000CF911F910F91FF900895CF93DF93FC01B5
:102E7000DB0186A197A127A930AD14964D915C91F5
:102E80001597821793076CF028173907F4F082170B
:102E9000930739F4C4A1D5A165A976A96C177D075C
:102EA000A4F0481759071CF042175307A4F0241741
:102EB000350799F481E012964D915C91139725A9FD
:102EC00036A94217530754F008C04817590764F34E
:102ED0004831510564F781E001C080E0DF91CF9176
:102EE0000895EF92FF920F931F93CF93DF93FC010E
:102EF000EB01DC01A85BBF4F2C813D818D919C9142
:102F0000820F931F08E110E0B8010E94DE219C01AE
:102F100095838483DF01AA5BBF4FED90FC908A818B
:102F20009B818E0D9F1D6CE370E00E94DE219383D8
:102F300082838A819B818E0D9F1DCC973CF0C901B5
:102F40000196B8010E94DE2195838483DF91CF91A1
:102F50001F910F91FF90EF900895CF93DF93EC01B5
:102F6000BC016F5E7F4F0E9471178B818F938A81A6
:102F70008F938D818F938C818F9383E194E09F93C6
:102F80008F930E94E926BE01CE010E9435170F9053
:102F90000F900F900F900F900F9040E0882379F0E2
:102FA0006A818C810E9420168B818F938A818F93F6
:102FB0008D818F938C818F9384E494E00EC06CA1FB
:102FC0008EA10E9420168DA18F938CA18F938FA12B
:102FD0008F938EA18F938EE794E09F938F930E949F
:102FE000E9260F900F900F900F900F900F90DF91A8
:102FF000CF91089510929007449A459AE9EBF0E03A
:1030000080818E7F808380818D7F80838CE0809320
:10301000B80085E48093BC0078940895880F80936D
:10302000BA000895413258F5909190079111FCCF64
:1030300091E0909390079FEF9093250710926A0775
:10304000940F90936907880F816080938F0785EEB6
:103050008093BC00809190078130E1F380916A07F2
:10306000841710F440916A07ABE6B7E0962FFB0196
:103070008E2F891B841728F48D918193F9CF80E0DE
:103080000895842F0895413248F590919007911149
:10309000FCCF32E0309390073FEF3093250710923A
:1030A0006A0740936907562FABE6B7E0FB013E2F56
:1030B000351B341718F431913D93F9CF482F50E068
:1030C000440F551F40938F0785EE8093BC00222349
:1030D00039F080919007823019F4F9CF91E011C056
:1030E000809125078F3F69F080912507803231F06C
:1030F00080912507803321F094E003C092E001C065
:1031000093E0892F0895613288F42091900724304C
:1031100079F460934707282FA9E4B7E0FC018E2FCC
:10312000821B861738F481918D93F9CF81E0089541
:1031300082E0089580E0089590938C0780938B0738
:10314000089590938E0780938D070895882311F03A
:1031500085EC01C085E88093BC00089585ED8093DF
:10316000BC008091BC0084FDFCCF109290070895B4
:1031700085EC8093BC001092900708951F920F92E7
:103180000FB60F9211242F933F934F935F936F933A
:103190007F938F939F93AF93BF93EF93FF93809110
:1031A000B900887F803609F495C068F5883209F443
:1031B0005BC090F4803109F454C038F4882309F4DA
:1031C000EEC0883009F44DC0EEC0883109F44CC01F
:1031D000803209F45EC0E7C0803409F469C048F465
:1031E000803309F456C0883309F0DDC08093250789
:1031F000A1C0803509F450C0883509F45EC0883418
:1032000009F0D1C0CEC0883909F4BFC0A8F488370E
:1032100009F460C038F4883609F45CC0803709F4DA
:1032200059C0C1C0883809F4B0C0803909F458C009
:10323000803809F0B8C054C0803B09F47EC038F42F
:10324000803A09F45FC0883A09F477C0ACC0803C8A
:1032500009F49FC0883C09F49CC0883B09F482C0F3
:10326000A2C080918F0711C090916A078091690771
:10327000981708F096C0E0916A0781E08E0F80935E
:103280006A07F0E0E559F84F80818093BB0085EC38
:103290007DC08093250785C0E0916A0781E08E0F8D
:1032A00080936A078091BB00F0E0E559F84F808376
:1032B00090916A078091690765C0E0916A0781E093
:1032C0008E0F80936A078091BB00F0E0E559F84FBC
:1032D000808367C083E08093900710922607D7CF42
:1032E00080912607803208F050C0E091260781E0E7
:1032F0008E0F809326078091BB00F0E0E95DF84FC8
:103300008083C5CF80912607803230F4E091260774
:10331000F0E0E95DF84F10820E94AE186091260738
:1033200070E0E0918B07F0918C0787E297E00995B8
:10333000109226070E94B81836C084E08093900748
:103340001092480710924707E0918D07F0918E0781
:10335000099580914707811105C081E08093470757
:1033600010924907E091480781E08E0F809348074B
:10337000F0E0E75BF84F80818093BB0090914807B5
:1033800080914707981708F482CF85E88093BC00A6
:103390000AC085EC8093BC001092900704C0109284
:1033A00025070E94AE18FF91EF91BF91AF919F91B9
:1033B0008F917F916F915F914F913F912F910F90DE
:1033C0000FBE0F901F901895CF93DF93EC01E09103
:1033D0009107F09192073097F1F09091BA078091A0
:1033E000B9079817C0F090E0292F30E0261737076B
:1033F00054F4DE01A20FB31F4C91D901A554B84F6C
:103400004C939F5FF1CF1092BA076093B907CB013D
:10341000DF91CF910994DF91CF910895E0919307C7
:10342000F0919407309729F0109297071092960721
:10343000099408951092BA071092B907109297074D
:10344000109296070C94FA170E940E188EE09AE1DB
:103450000E94A11884EE99E10E949C180C941A1AFB
:10346000462F613208F040E26BEB77E00E941218C1
:103470001092BA078093B907089591E09093950749
:103480008093B8071092970710929607089521E04D
:103490004091960768E977E08091B8070E94431849
:1034A0001092970710929607109295070895CF9360
:1034B000DF931F92CDB7DEB789838091950788236C
:1034C00091F080919607803298F480919707E82FC9
:1034D000F0E0E856F84F998190838F5F80939707CB
:1034E0008093960705C061E0CE0101960E94831883
:1034F0000F90DF91CF9108950F931F93CF93DF9398
:1035000020919507222359F0EC018C01060F111D23
:10351000C017D10751F089910E94571AF9CFDF9156
:10352000CF911F910F910C948318DF91CF911F9130
:103530000F910895FC0101900020E9F73197BF0138
:10354000681B790B0C947C1A8091B9079091BA078B
:10355000891B08959091BA078091B907981748F48C
:10356000E92FF0E0E554F84F80819F5F9093BA0710
:10357000089580E0089590939207809391070895AD
:10358000909394078093930708950895CF93DF93C2
:10359000CDB7DEB761970FB6F894DEBF0FBECDBFD3
:1035A000FC0181E090E0978B868B84899589419717
:1035B00009F040C081818235C9F58481082E000C54
:1035C000990BC0979E838D838781082E000C990BE1
:1035D000C0979C838B838285082E000C990BC09723
:1035E0009A8389838585082E000C990BC09798874C
:1035F0008F838089082E000C990BC0979A87898742
:1036000083E190E0978B868B8389082E000C990BC1
:10361000C0979C878B87CE0101960E94201481E081
:103620008093780589EB94E00E94062782ED94E070
:103630000E94062761960FB6F894DEBF0FBECDBF7D
:10364000DF91CF910895FC0124893589233131051B
:1036500034F42F5F3F4F358B248B80E0089581E059
:103660000895DC015496ED91FC915597E80FF91FF0
:1036700060830C94231BFC01158A148A0C94311B63
:10368000FC0126893789620F731F6431710524F4A8
:10369000778B668B80E0089581E008950F931F93E8
:1036A000CF93DF938EE480937C0086E880937A004A
:1036B0008FEC97E00197F1F700C0000080917A004D
:1036C000806480937A0080917A0086FDFCCF8FEC35
:1036D00097E00197F1F700C0000080917A008064C4
:1036E00080937A0080917A0086FDFCCF8FE19EE482
:1036F0000197F1F700C00000809178009091790067
:10370000C92FD0E0082F10E01F929F931F928F9334
:1037100087EE94E09F938F930E94E926DC2FCC27BD
:10372000C02BD12BCE011F921F929F93CF938AEF74
:1037300094E09F938F930E94E92680E09CE2BE0173
:103740000E94CA21EB01CB0199279F938F9385E0BB
:1037500095E09F938F930E94E92680917A008F775E
:1037600080937A008C2F6AE00E94BE21682F70E05F
:1037700080E090E00E9420242DB73EB7205F3F4FAD
:103780000FB6F8943EBF0FBE2DBFDF91CF911F91B2
:103790000F910895AF92BF92CF92DF92EF92FF9276
:1037A0000F931F93CF93DF93D42EC52EB62EA72E43
:1037B000E9012BE7FC0120837C01F2E0EF0EF11C14
:1037C00023E4FC0121831F9281E08F9387EF94E033
:1037D0009F938F93FF92EF920E9436278C010F5F89
:1037E0001F4F0E0D1F1DF701E80FF91F8CE2F82E79
:1037F000F08289818F9388818F938B818F938A81C7
:103800008F938D818F938C818F9380E691E09F932E
:103810008F931F930F930E943627EC012196C00FC0
:10382000D11FF801E80FF91FF082AF92BF92CF923B
:10383000DF9282E195E09F938F93DF93CF930E9475
:103840003627C80FD91F8DE7888319828DB79EB799
:1038500048960FB6F8949EBF0FBE8DBFDF91CF91F3
:103860001F910F91FF90EF90DF90CF90BF90AF909E
:10387000089567E084E40E94570867E084E40E94AA
:103880007B082FEF83ED90E3215080409040E1F7DB
:1038900000C0000067E084E40C949F08EBEDF7E0C3
:1038A00083E190E09583848383E090E09383828337
:1038B000118210828BE190E0978386838CE090E008
:1038C0009187808785E190E0938782870895FC0146
:1038D000208531858091E3079091E4078217930753
:1038E0000CF446C0281739070CF440C028173907D4
:1038F000E1F5268137818091E1079091E2078217F7
:103900009307B4F1281739078CF12817390769F59F
:10391000248135818091DF079091E007821793071A
:103920003CF12817390714F128173907F1F42281DF
:1039300033818091DD079091DE0782179307C4F0F1
:10394000281739079CF02817390779F4208131812D
:103950008091DB079091DC07821793074CF02817C2
:10396000390724F02817390719F0089580E00895E1
:1039700081E00895CF92DF92EF92FF920F931F9311
:10398000CF93DF93CDB7DEB764970FB6F894DEBF61
:103990000FBECDBF0E944E1B6B017C010E944E1CCE
:1039A0000E9426138C010E94671C882319F187E16D
:1039B00095E00E9406270E94391C9801B701A601D4
:1039C0008E010F5F1F4FC8010E94CA1BF82E1F9364
:1039D0000F9385E395E09F938F930E94E9266F2DC7
:1039E000C8010E9496050F900F900F900F900E94B3
:1039F000C909FDCF64960FB6F894DEBF0FBECDBFE8
:103A0000DF91CF911F910F91FF90EF90DF90CF90BA
:103A10000895A0E1B0E0EFE0FDE10C948C227C0180
:103A20001B016A01FC0117821682838181FF44C356
:103A30009E012F5F3F4F3901F7019381F10193FD03
:103A4000859193FF81911F01882309F431C3853249
:103A500039F493FD859193FF81911F01853239F4EB
:103A6000B70190E00E94AD2656016501E5CF10E058
:103A7000512C912CFFE1F915D8F08B3279F038F404
:103A8000803279F08332A1F4F92DF0612EC08D32AD
:103A900061F0803369F4292D21602DC0392D326009
:103AA000932E892D8460982E2AC0E92DE86015C0D8
:103AB00097FC2DC020ED280F2A3088F496FE06C012
:103AC0003AE0139F200D1124122F19C08AE0589E4E
:103AD000200D1124522EE92DE0629E2E10C08E3250
:103AE00031F496FCE5C2F92DF0649F2E08C08C36A7
:103AF00021F4292D2068922E02C0883641F4F1016C
:103B000093FD859193FF81911F018111B3CF9BEBB1
:103B1000980F933020F4992D9061805E07C09BE947
:103B2000980F933008F066C1992D9F7E96FF16E09E
:103B30009F73992E853619F49064992E08C08636A5
:103B400021F4392F3068932E02C01111115097FEC5
:103B500007C01C3350F444244394410E27E00BC0AB
:103B6000183038F027E017E005C027E09CE3492E25
:103B700002C0212F412C560184E0A80EB11CF60191
:103B80006081718182819381042DA3010E9440256F
:103B90006C01F981FC87F0FF02C0F3FF06C091FCC5
:103BA00006C092FE06C000E205C00DE203C00BE2B3
:103BB00001C000E08C858C7019F001115AC29BC2C3
:103BC00097FE10C04C0CFC85F4FF04C08A81813341
:103BD00009F44A94141474F528E0241578F588E063
:103BE000482E2CC096FC2AC0812F90E08C159D0594
:103BF0009CF03CEFC3163FEFD30674F0892D80682C
:103C0000982E0AC0E2E0F0E0EC0FFD1FE10FF11D7D
:103C10008081803319F411501111F4CF97FE0EC03A
:103C200044244394410E812F90E0C816D9062CF409
:103C30001C1904C04424439401C010E097FE06C040
:103C40001C141D0434F4C601019605C085E090E003
:103C500002C081E090E001110196112331F0212F83
:103C600030E02F5F3F4F820F931F252D30E08217EA
:103C7000930714F4581A01C0512C892D897049F406
:103C8000552039F0B70180E290E00E94AD265A94A9
:103C9000F7CF002329F0B701802F90E00E94AD26D6
:103CA00093FC09C0552039F0B70180E390E00E94F1
:103CB000AD265A94F7CF97FE4CC04601D7FE02C0FE
:103CC000812C912CC60188199909F301E80FF91F7D
:103CD000FE87ED87960124193109388B2F87012F34
:103CE00010E01195019511093FEF8316930629F411
:103CF000B7018EE290E00E94AD26C814D9044CF0C2
:103D00008F8598898815990524F4ED85FE85818134
:103D100001C080E3F1E08F1A91082D853E852F5F69
:103D20003F4F3E872D87801691062CF0B70190E01B
:103D30000E94AD26D9CFC814D90441F49A81963394
:103D400020F4953319F43C8534FF81E3B70190E00A
:103D50004EC08A81813319F09C859F7E9C87B70174
:103D600090E00E94AD26111105C094FC18C085E6B4
:103D700090E017C0B7018EE290E00E94AD261E5F72
:103D800082E001E0080FF301E80FF11D8081B70127
:103D900090E00E94AD26802F0113F3CFE6CF85E49B
:103DA00090E0B7010E94AD26D7FC06C0C114D10433
:103DB00041F4EC85E4FF05C0D194C194D1088DE2B3
:103DC00001C08BE2B70190E00E94AD2680E32AE0BB
:103DD000C216D1042CF08F5FFAE0CF1AD108F7CFCA
:103DE000B70190E00E94AD26B701C601C0960E94BF
:103DF000AD2654C1833631F0833779F0833509F02D
:103E000056C020C0560132E0A30EB11CF6018081DD
:103E1000898301E010E0630112C05601F2E0AF0EA9
:103E2000B11CF601C080D18096FE03C0612F70E006
:103E300002C06FEF7FEFC6010E9442268C01F92D70
:103E4000FF7714C0560122E0A20EB11CF601C0801B
:103E5000D18096FE03C0612F70E002C06FEF7FEF4C
:103E6000C6010E9418268C01F92DF0689F2EF3FDE3
:103E70001AC0852D90E008171907A8F4B70180E251
:103E800090E00E94AD265A94F4CFF60197FC8591FC
:103E900097FE81916F01B70190E00E94AD2651100D
:103EA0005A94015011090115110579F7F7C08436AC
:103EB00011F0893661F5560197FE09C024E0A20E83
:103EC000B11CF60160817181828193810AC0F2E0A8
:103ED000AF0EB11CF60160817181072E000C880BBA
:103EE000990BF92DFF769F2E97FF09C0909580952D
:103EF000709561957F4F8F4F9F4FF0689F2E2AE0FE
:103F000030E0A3010E945827C82EC6183FC0092DD3
:103F1000853721F40F7E2AE030E01DC0097F8F36FF
:103F200091F018F4883559F0C3C0803719F08837FC
:103F300011F0BEC0006104FF09C0046007C094FE18
:103F400008C0066006C028E030E005C020E130E08F
:103F500002C020E132E0560107FF09C084E0A80E4C
:103F6000B11CF601608171818281938108C0F2E009
:103F7000AF0EB11CF6016081718180E090E0A30179
:103F80000E945827C82EC6180F77902E96FE0BC099
:103F9000092D0E7FC11650F494FE0AC092FC08C091
:103FA000092D0E7E05C0DC2C092D03C0DC2C01C0C0
:103FB000D12E04FF0DC0FE01EC0DF11D8081803378
:103FC00011F4097E09C002FF06C0D394D39404C043
:103FD000802F867809F0D39403FD11C000FF06C03E
:103FE0001C2DD51480F4150D1D190DC0D51458F4D1
:103FF000B70180E290E00E94AD26D394F7CFD514AC
:1040000010F45D1801C0512C04FF10C0B70180E30B
:1040100090E00E94AD2602FF17C001FD03C088E7B3
:1040200090E002C088E590E0B7010CC0802F867850
:1040300059F001FF02C08BE201C080E207FD8DE272
:10404000B70190E00E94AD26C11638F4B70180E3B5
:1040500090E00E94AD261150F7CFCA94F301EC0D09
:10406000F11D8081B70190E00E94AD26C110F5CF0F
:1040700015C0F4E0F51560F584E0581A93FE1FC0F2
:10408000011127C02C8523FF2AC00AEB10E0392D2F
:104090003071932EF8018491811124C0552009F4C8
:1040A000E4CCB70180E290E00E94AD265A94F6CFAE
:1040B000F7018681978126C08FEF9FEF23C0B7015C
:1040C00080E290E00E94AD265A945110F8CFD8CFEC
:1040D000512CB701802F90E00E94AD26D3CF0EEB7C
:1040E00010E0D5CF91108052B70190E00E94AD262C
:1040F0000F5F1F4FCFCF23E0251510F483E0BDCF16
:10410000512CC0CF6096E2E10C94A822CF93DF93AC
:10411000CDB7DEB761970FB6F894DEBF0FBECDBF47
:104120000E94870985EA91E00E9406270E941A1AD8
:104130000E94D51261E089E795E00E94F41084ECBA
:1041400091E00E9406270E94A0070E944E1B0E9439
:104150004E1B9F938F937F936F931F9281E08F935A
:104160008CED91E09F938F9303E416E01F930F93E0
:104170000E9436271F930F938AEE91E09F938F93AF
:104180000E94E92660E0C8010E9496050FB6F894E7
:10419000DEBF0FBECDBF83E0E82E82E0F82ECC2438
:1041A000C39401E512E00E9400090E941A1A0E94BD
:1041B000041346E856E068E876E08AE896E00E9454
:1041C000C113809187068F93809186068F9380918B
:1041D00089068F93809188068F9380918B068F93A9
:1041E00080918A068F93FF92EF920E94E92689E7D9
:1041F00095E00E940A11682F83E496E00E94480629
:10420000D82E89E795E00E945E110FB6F894DEBFC4
:104210000FBECDBF809179058823E1F185E292E060
:104220000E94062789EA95E00E94070D90E09E8390
:104230008D8389EA95E00E94150D90E09C838B8325
:1042400089EA95E00E942B0D90E09A8389838BE99F
:1042500095E00E94F90C90E098878F838BE995E0B8
:104260000E94DA0C90E09A8789878BE995E00E949A
:10427000CA0C9C878B87CE0101960E94201446E8C9
:1042800056E068E876E08AE896E00E94C113C092A2
:1042900078050EC08091780581110AC00E946C07D4
:1042A00046E856E068E876E08AE896E00E94C113A6
:1042B0006D2D83E496E00E9496050E94BA1C85E766
:1042C00096E00E94AD1746E856E068E876E08AE896
:1042D00096E00E94C113809187068F938091860695
:1042E0008F93809189068F93809188068F93809118
:1042F0008B068F9380918A068F931F930F930E9452
:10430000E9260E94160988E792E00E9406270E948B
:10431000C9090FB6F894DEBF0FBECDBF44CFEEEC97
:10432000F6E014AA13AA16AA15AA81E087AB10AE6C
:1043300011AE12AE13AE109242061092410689E7FA
:1043400095E00C94150A60E070E082EA99E00E9422
:10435000622690931107809310070895DB018F93D5
:104360009F930E941A22BF91AF91A29F800D911D31
:10437000A39F900DB29F900D11240895991B79E091
:1043800004C0991F961708F0961B881F7A95C9F7E5
:1043900080950895AA1BBB1B51E107C0AA1FBB1F34
:1043A000A617B70710F0A61BB70B881F991F5A95C1
:1043B000A9F780959095BC01CD01089597FB072E34
:1043C00016F4009407D077FD09D00E94CA2107FC9B
:1043D00005D03EF4909581959F4F08957095619515
:1043E0007F4F0895A1E21A2EAA1BBB1BFD010DC031
:1043F000AA1FBB1FEE1FFF1FA217B307E407F50795
:1044000020F0A21BB30BE40BF50B661F771F881F70
:10441000991F1A9469F760957095809590959B0106
:10442000AC01BD01CF010895EE0FFF1F0590F4917F
:10443000E02D09940E94FA22A59F900DB49F900D43
:10444000A49F800D911D11240895B7FF0C941A228A
:104450000E941A22821B930B0895689401C0E8946D
:104460008F929F92CF93DF930E943B22DF91CF9157
:104470009F908F90089588249924F401E401B0E47A
:104480009F93AA279A158B049C04ED05FE05CF0582
:10449000D007A10798F4AD2FDC2FCF2FFE2FE92DE9
:1044A000982C892E982F872F762F652F542F432FE6
:1044B000322F2227B85031F7BF9127C01B2EBF9152
:1044C000BB27220F331F441F551F661F771F881FEE
:1044D000991F881C991CEE1FFF1FCC1FDD1FAA1FF0
:1044E000BB1F8A149B04EC05FD05CE05DF05A00764
:1044F000B10748F08A189B08EC09FD09CE09DF09CD
:10450000A00BB10B21601A94E1F62EF49401AF01D7
:10451000BE01CD01000C08952F923F924F925F9201
:104520006F927F928F929F92AF92BF92CF92DF92C3
:10453000EF92FF920F931F93CF93DF93CDB7DEB728
:10454000CA1BDB0B0FB6F894DEBF0FBECDBF0994BC
:104550002A88398848885F846E847D848C849B8413
:10456000AA84B984C884DF80EE80FD800C811B8121
:10457000AA81B981CE0FD11D0FB6F894DEBF0FBE50
:10458000CDBFED0108950F93083090F0982F872F3D
:10459000762F652F542F432F322F22270850F4CF28
:1045A000220F331F441F551F661F771F881F991F37
:1045B0000A95B2F70F91089597FB10F8169400082A
:1045C0000F93083098F00850232F342F452F562F83
:1045D000672F782F892F902DF4CF05949795879585
:1045E0007795679557954795379527950A95AAF733
:1045F0000F910895A29FB001B39FC001A39F700DBA
:10460000811D1124911DB29F700D811D1124911DDA
:1046100008955058BB27AA270E9421230C94722486
:104620000E94642438F00E946B2420F039F49F3FEC
:1046300019F426F40C9461240EF4E095E7FB0C9435
:104640005B24E92F0E94832458F3BA17620773078B
:104650008407950720F079F4A6F50C94A5240EF4B0
:10466000E0950B2EBA2FA02D0B01B90190010C0182
:10467000CA01A0011124FF27591B99F0593F50F49A
:10468000503E68F11A16F040A22F232F342F4427F2
:10469000585FF3CF469537952795A795F0405395EA
:1046A000C9F77EF41F16BA0B620B730B840BBAF0BA
:1046B0009150A1F0FF0FBB1F661F771F881FC2F725
:1046C0000EC0BA0F621F731F841F48F48795779539
:1046D0006795B795F7959E3F08F0B0CF9395880FF3
:1046E00008F09927EE0F9795879508950E948A23E1
:1046F0000C9472240E946B2458F00E94642440F0B1
:1047000029F45F3F29F00C945B2451110C94A624EA
:104710000C9461240E94832468F39923B1F35523F8
:1047200091F3951B550BBB27AA27621773078407C4
:1047300038F09F5F5F4F220F331F441FAA1FA9F35A
:1047400035D00E2E3AF0E0E832D091505040E69548
:10475000001CCAF72BD0FE2F29D0660F771F881FA9
:10476000BB1F261737074807AB07B0E809F0BB0B9C
:10477000802DBF01FF2793585F4F3AF09E3F5105B0
:1047800078F00C945B240C94A6245F3FE4F3983EED
:10479000D4F3869577956795B795F7959F5FC9F799
:1047A000880F911D9695879597F90895E1E0660F1A
:1047B000771F881FBB1F621773078407BA0720F093
:1047C000621B730B840BBA0BEE1F88F7E0950895FC
:1047D0000E94EF236894B1110C94A62408950E94BE
:1047E0008B2488F09F5798F0B92F9927B751B0F0D4
:1047F000E1F0660F771F881F991F1AF0BA95C9F765
:1048000014C0B13091F00E94A524B1E008950C9439
:10481000A524672F782F8827B85F39F0B93FCCF3EC
:10482000869577956795B395D9F73EF490958095E1
:10483000709561957F4F8F4F9F4F0895E89409C001
:1048400097FB3EF490958095709561957F4F8F4FC3
:104850009F4F9923A9F0F92F96E9BB279395F695D9
:10486000879577956795B795F111F8CFFAF4BB0F57
:1048700011F460FF1BC06F5F7F4F8F4F9F4F16C0BB
:10488000882311F096E911C0772321F09EE8872F45
:10489000762F05C0662371F096E8862F70E060E001
:1048A0002AF09A95660F771F881FDAF7880F96957A
:1048B000879597F9089597F99F6780E870E060E021
:1048C00008959FEF80EC089500240A9416161706A9
:1048D00018060906089500240A94121613061406F1
:1048E00005060895092E0394000C11F4882352F054
:1048F000BB0F40F4BF2B11F460FF04C06F5F7F4F0C
:104900008F4F9F4F089557FD9058440F551F59F0F2
:104910005F3F71F04795880F97FB991F61F09F3FAC
:1049200079F087950895121613061406551FF2CFD5
:104930004695F1DF08C0161617061806991FF1CF25
:1049400086957105610508940895E894BB2766274C
:104950007727CB0197F908950E94BF240C94722405
:104960000E94642438F00E946B2420F0952311F0FB
:104970000C945B240C94612411240C94A6240E94B2
:10498000832470F3959FC1F3950F50E0551F629FEC
:10499000F001729FBB27F00DB11D639FAA27F00D98
:1049A000B11DAA1F649F6627B00DA11D661F829FBF
:1049B0002227B00DA11D621F739FB00DA11D621FA4
:1049C000839FA00D611D221F749F3327A00D611DC1
:1049D000231F849F600D211D822F762F6A2F1124A3
:1049E0009F5750409AF0F1F088234AF0EE0FFF1FD6
:1049F000BB1F661F771F881F91505040A9F79E3F2D
:104A0000510580F00C945B240C94A6245F3FE4F3E2
:104A1000983ED4F3869577956795B795F795E79582
:104A20009F5FC1F7FE2B880F911D9695879597F98B
:104A300008951F93FC0199278827BC01E8941191E0
:104A40001032E9F3193010F01E30C8F31B3251F068
:104A50001D3249F4689406C00E944D26610F711DF5
:104A6000811D911D119110531A30B0F33EF49095B1
:104A70008095709561957F4F8F4F9F4F1F9108953F
:104A8000283008F027E03327DA01990F311D87FD20
:104A9000916000966105710539F432602E5F3D9397
:104AA00030E32A95E1F708959F3F30F08038710593
:104AB000610509F03C5F3C5F3D93913008F08068F0
:104AC000911DDF93CF931F930F93FF92EF92192FB6
:104AD000987F9695E92F96959695E90FFF27E45EC6
:104AE000FE4F99273327EE24FF24A701E701059005
:104AF0000894079428F4360FE71EF81E491F511D2D
:104B0000660F771F881F991F0694A1F705900794D9
:104B100028F4E70EF81E491F561FC11D770F881F86
:104B2000991F661F0694A1F70590079428F4F80EC4
:104B3000491F561FC71FD11D880F991F661F771F5A
:104B40000694A1F70590079420F4490F561FC71F3C
:104B5000D81F990F661F771F881F0694A9F78491A5
:104B60001095177041F0D695C79557954795F794CE
:104B7000E7941A95C1F7E2ECF0E06894159015916E
:104B800035916591959105907FE27395E118F10A51
:104B9000430B560BC90BD009C0F7E10CF11E431FA4
:104BA000561FC91FD01D7EF4703311F48A95E6CFCD
:104BB000E894015030F0080F0AF40027021708F4B7
:104BC000202F2395022F7A3328F079E37D932A95BD
:104BD000E9F710C07D932A9589F606949795679515
:104BE000379517951794E118F10A430B560BC90B2B
:104BF000D00998F023957E9173957A3308F070E38D
:104C00007C932013B8F77E9170617D9330F083958B
:104C100071E37D9370E32A95E1F71124EF90FF9003
:104C20000F911F91CF91DF91992787FD909508955E
:104C3000FC010590615070400110D8F78095909567
:104C40008E0F9F1F0895FB01DC018D91019080194B
:104C50000110D9F3990B0895FB01DC0101900D922D
:104C60000020E1F70895FB01DC014150504048F07D
:104C700001900D920020C9F701C01D924150504093
:104C8000E0F70895FC016150704001900110D8F7E1
:104C9000809590958E0F9F1F0895592F482F372F7D
:104CA000262F660F771F881F991F660F771F881F93
:104CB000991F620F731F841F951F660F771F881F30
:104CC000991F08950F931F93CF93DF93009731F4AB
:104CD0006115710519F480E090E03AC08B01EC0198
:104CE0006EE070E081E090E00E94B627FC01892B25
:104CF00091F380E883830115110571F01387028712
:104D000081E883838091EC079091ED07892B21F452
:104D1000F093ED07E093EC072097C9F0D187C087A7
:104D20008381826083838091EE079091EF07892BC6
:104D300071F4F093EF07E093EE078091F007909104
:104D4000F107892B21F4F093F107E093F007CF01ED
:104D5000DF91CF911F910F9108950F931F93CF93E0
:104D6000DF93FB01238121FD03C08FEF9FEF2CC058
:104D700022FF16C04681578124813581421753078F
:104D800044F4A081B1819D012F5F3F4F3183208387
:104D90008C93268137812F5F3F4F3783268314C042
:104DA0008B01EC01FB010084F185E02D0995892B35
:104DB000E1F6D80116968D919C911797019617965A
:104DC0009C938E931697CE01DF91CF911F910F91F7
:104DD0000895A0E0B0E0EFEEF6E20C949C22AE0164
:104DE0004B5F5F4FFA0161917191AF018091EE07C6
:104DF0009091EF070E94091DE2E00C94B8226091A7
:104E0000EE077091EF070E94AD2608950F931F9350
:104E1000CF93DF93E091EE07F091EF07238121FF1D
:104E20001BC08C01D0E0C0E0F80181918F0160913E
:104E3000EE077091EF07DB011896ED91FC91199741
:104E4000882331F00995892B79F3DFEFCFEFECCF91
:104E50008AE00995892B19F08FEF9FEF02C08D2F03
:104E60009C2FDF91CF911F910F910895AEE0B0E09C
:104E7000ECE3F7E20C949A220D891E8986E08C837C
:104E80001A8309838FEF9FE79E838D83AE01475E70
:104E90005F4F6F89788DCE0101960E94091DEF81C9
:104EA000F885E00FF11F10822E96E4E00C94B622F4
:104EB000FA01AA27283051F1203181F1E8946F934B
:104EC0006E7F6E5F7F4F8F4F9F4FAF4FB1E03ED0F1
:104ED000B4E03CD0670F781F891F9A1FA11D680F8F
:104EE000791F8A1F911DA11D6A0F711D811D911DC2
:104EF000A11D20D009F468943F912AE0269F112437
:104F00003019305D3193DEF6CF010895462F47709A
:104F1000405D4193B3E00FD0C9F7F6CF462F4F70F5
:104F2000405D4A3318F0495D31FD4052419302D053
:104F3000A9F7EACFB4E0A6959795879577956795F9
:104F4000BA95C9F700976105710508959B01AC01F9
:104F50000A2E06945795479537952795BA95C9F720
:104F6000620F731F841F951FA01D08950F931F9339
:104F7000CF93DF93869F8001879F100D969F100D22
:104F80001124C8010E94D227EC01009729F0A80142
:104F900060E070E00E94F328CE01DF91CF911F9175
:104FA0000F9108950F931F93CF93DF938230910554
:104FB00010F482E090E0E091F407F091F50720E032
:104FC00030E0A0E0B0E0309719F1408151810281DA
:104FD000138148175907C8F08417950769F410978B
:104FE00031F012960C93129713961C9327C00093DE
:104FF000F4071093F50722C02115310519F0421767
:10500000530718F49A01BD01EF01DF01F801DBCF6E
:1050100021153105F9F0281B390B2430310580F4B6
:105020008A819B816115710521F0FB019383828345
:1050300004C09093F5078093F407FE01329644C0B4
:10504000FE01E20FF31F81939193225031093983BE
:1050500028833AC02091F2073091F307232B41F4C3
:1050600020910301309104013093F3072093F2075C
:1050700020910101309102012115310541F42DB734
:105080003EB74091050150910601241B350BE0917C
:10509000F207F091F307E217F307A0F42E1B3F0B82
:1050A0002817390778F0AC014E5F5F4F241735079A
:1050B00048F04E0F5F1F5093F3074093F207819320
:1050C000919302C0E0E0F0E0CF01DF91CF911F911A
:1050D0000F910895CF93DF93009709F481C0FC01ED
:1050E000329713821282A091F407B091F5071097BE
:1050F00081F420813181820F931F2091F20730913A
:10510000F3072817390751F5F093F307E093F207F7
:1051100067C0ED0120E030E0CE17DF0740F44A81A0
:105120005B819E0141155105F1F0EA01F5CFD38372
:10513000C28340815181840F951FC817D90759F444
:1051400088819981840F951F0296918380838A813B
:105150009B81938382832115310529F4F093F50710
:10516000E093F4073DC0E901FB83EA83499159913B
:10517000C40FD51FEC17FD0761F480819181840F66
:10518000951F0296E90199838883828193819B838D
:105190008A83E0E0F0E012968D919C91139700973E
:1051A00019F0FD01DC01F7CF8D919C9111979D01C4
:1051B0002E5F3F4F820F931F2091F2073091F3072C
:1051C0002817390769F4309729F41092F5071092DF
:1051D000F40702C013821282B093F307A093F20780
:1051E000DF91CF910895DC0101C06D934150504093
:0851F000E0F70895F894FFCFE9
:1051F800010000F6072000781E00A02800F03C00FF
:10520800405100127A00E4A20024F40048E801901A
:10521800D00320A107F103F303F803F703F903FB15
:1052280003FC03FF036B010304040407047A010B66
:105238000410040F045374617274696E67204C6F14
:105248005261206661696C6564210D00256C7500EA
:1052580025643A25643A25640047465300474F4B76
:10526800004E4F5F4C4F4300474657005061636BF9
:1052780065742067656E6572617465643A2025738C
:10528800200D0A00506B74204C656E6774683A20D4
:1052980025640D0A002D2D2D2D2D2D2D204D6564F5
:1052A80069756D20436F6C6C6172202D2D2D2D2D2D
:1052B8002D2D0D0052544320616E64204750532019
:1052C800496E697420446F6E65200D007B43256428
:1052D8002C4F4E2C252E31667D0053656E64696E09
:1052E80067206F6E205061636B65743A20257320C8
:1052F8000D0A004D61696E3A2057616B6575702023
:1053080054696D653A202564203A202564203A20A6
:1053180025640D0A004D61696E3A2056616C696416
:105328002074696D65206F6E204750532C2073657B
:105338007474696E67205254432054696D65200D5A
:10534800004D61696E3A20536C6565702054696D33
:10535800653A202564203A202564203A2025640DEA
:105368000A0D0A0D0A0D0A004D61696E3A20476F51
:10537800696E6720746F20736C656570206E6F7737
:10538800200D0A0D005265636965766564205061D9
:10539800636B65740D00252E3666004750524D43E9
:1053A80000474E524D4300475047474100474E473C
:1053B8004741004750532050756C73652047697604
:1053C800656E200D004750532055700D004750530F
:1053D8002077616B65206661696C0D00475053202A
:1053E80055702046696E616C206661696C0D0047D6
:1053F800505320536C6565700D0047505320736CF3
:10540800656570206661696C0D0047505320536CC8
:105418006565702046696E616C206661696C0D0077
:1054280048616E64656C696E6720475053204E6F03
:10543800770D004750532D3E48616E646C65723A93
:1054480020526574204C6F6320696E206D53205480
:10545800696D65722061743A20256C750D0A0047E4
:1054680050532D3E48616E646C65723A20526574E3
:10547800204E6F204C6F6320696E206D5320546955
:105488006D65722061743A20256C750D0A004C6FA9
:10549800636174696F6E3A20002566202C202566AA
:1054A800200D0A00494E56414C49440D0044617490
:1054B800652F54696D653A20002564202F202564E6
:1054C800202F2025642020202D202000494E5641E1
:1054D8004C4944200D002564203A2000252E3266D0
:1054E800004E004E4E4500454E450045534500537D
:1054F8005345005353570057535700574E57004EC4
:105508004E57007363686564756C652D3E616C6108
:10551800726D48616E646C65723A4E65787420618C
:105528006C61726D20666F723A202564202F2025E9
:10553800640D0A007363686564756C652D3E616C63
:1055480061726D48616E646C65723A20547275655B
:105558002053657474696E6720616C61726D206692
:105568006F723A202564202F2025640D0A0073638A
:10557800686564756C652D3E616C61726D48616E1D
:10558800646C65723A2046616C7365205365747467
:10559800696E6720616C61726D20666F723A2025B2
:1055A80064202F2025640D0A00636D642E646574E1
:1055B8006563742D5254432054696D652073657476
:1055C8000D00636D642E6465746563742D3E4578C3
:1055D8006974696E670D004144434C3A2025642C78
:1055E80020414443483A202564004144433A202559
:1055F8006C750D0A007663637831303A2025640DA6
:105608000A00252E31660072656C65617365486114
:105618006E646C65722D3E52656C656173652074AD
:10562800696D650D0053656E64696E673A20257370
:045638000D0A000057
:00000001FF
